:1000000000800020BD010000A53900005D3900001E
:100010005D3900005D3900005D3900005D39000088
:100020005D3900005D3900005D390000A539000030
:10003000A53900005D390000D14D0000D54E00000B
:10004000A5390000A5390000A5390000A539000038
:10005000A5390000A5390000A5390000A539000028
:10006000A5390000A5390000A5390000A539000018
:10007000A5390000A5390000A5390000A539000008
:10008000A5390000A5390000A5390000A5390000F8
:10009000A5390000A5390000A5390000A5390000E8
:1000A000A5390000A5390000A5390000A5390000D8
:1000B000A5390000A5390000A5390000A5390000C8
:1000C000A5390000A5390000A5390000A5390000B8
:1000D000A5390000A5390000A5390000A5390000A8
:1000E000A5390000A5390000A5390000A539000098
:1000F000A5390000C9500000A5390000F5510000E5
:10010000A539000021530000A5390000A5390000E1
:10011000A5390000A5390000A5390000A539000067
:10012000A5390000A5390000A5390000A539000057
:10013000A5390000A5390000A5390000A539000047
:10014000A5390000A5390000A5390000A539000037
:10015000A5390000A5390000A5390000A539000027
:10016000A5390000ED3D0000A5390000A5390000CB
:10017000A5390000A5390000A5390000A539000007
:10018000A5390000A5390000A5390000A5390000F7
:10019000A5390000A5390000A5390000A5390000E7
:1001A000A5390000A5390000A5390000A5390000D7
:1001B000A5390000A5390000A5390000564B4CF2C6
:1001C000205210B51A804DF628121A8000BF00BFC9
:1001D00003F0ECFB514B4FF010621A60504A9A60EA
:1001E000504ADA60504A136813F4807304D14F49BF
:1001F0000B604FF4A85313604D4B1A78110703D5C9
:100200001A7842F008021A704A4B4B492A221A7097
:100210004A4A4B4B8B4204D252F8040F43F8040B6A
:10022000F8E7484B484900228B4202D243F8042B9E
:10023000FAE74649464A002352F8230041F82300D2
:1002400001336F2BF8D1434B434A802103F8011B44
:100250009342FBD1414B3D4A1A60414B8A221A70AE
:10026000A3F5805324225A70A0221A709A7992071B
:10027000FCD59A79D406FCD43A4A937903F00C035E
:10028000082B384BF9D103221A7140225A719A79FE
:100290009006FCD5334A9179324B4906FBD5324A58
:1002A000324911600221516020221A709A7902F0BD
:1002B0000C020C2AFAD12E4B2E4A1A602E4B2F4AD2
:1002C0001A6000225A60072243F8042C2C4AC3F813
:1002D0000C2D62B603F040FC144B1B68DA0705D501
:1002E000284803F0B1FB284B284A1A60284B1B789A
:1002F0005B0609D5244C254B22689A4204D121483B
:1003000003F0A2FB0023236005F0D8FB03F054FBAD
:1003100004F0E8FDFEE700BF0E20054030800440F9
:10032000823F04000100002B10D0034014D0034092
:1003300002D0074000E00740548CFF1F7079000096
:100340002087FF1F548CFF1FA897FF1F0082FF1FED
:100350000000000000E400E05FE400E008ED00E0E1
:100360000050064000400640448004400000030165
:1003700004800440C010050014E000E0FF76010096
:10038000000020205DB6185E1CE00340A5C3945A0F
:1003900000F00740FFFFFFFFFFFFFFFFFFFFFFFF32
:1003A000FFFFFFFFFFFFFFFFFFFFFFFFFFFFFFFF5D
:1003B000FFFFFFFFFFFFFFFFFFFFFFFFFFFFFFFF4D
:1003C000FFFFFFFFFFFFFFFFFFFFFFFFFFFFFFFF3D
:1003D000FFFFFFFFFFFFFFFFFFFFFFFFFFFFFFFF2D
:1003E000FFFFFFFFFFFFFFFFFFFFFFFFFFFFFFFF1D
:1003F000FFFFFFFFFFFFFFFFFFFFFFFFFFFFFFFF0D
:10040000FFFFFFFFFFFFFFFFFFFFFFFFDEF9FFFF23
:1004100010B5054C237833B9044B13B10448AFF33E
:1004200000800123237010BD548CFF1F00000000CA
:1004300074790000084B10B51BB108490848AFF3A8
:1004400000800848036803B910BD074B002BFBD0A0
:10045000BDE81040184700BF00000000588CFF1F87
:1004600074790000548CFF1F000000004069704741
:10047000002070474268017B13780B43137070476C
:100480004268017B137823EA01031370704700BFB1
:100490002DE9F047994C237884B0002B40F0E3809D
:1004A000974B984A9848197812780388DFF8789221
:1004B000964E974F02EB8202520086FB0246D217FD
:1004C000C2EBE6060236F6B207F14B0E3D4603EBF1
:1004D000432203EB820303F5585319339BB203EB1A
:1004E000132215F8014FD2B212FB06F2A4EB12222E
:1004F00022EAE272AE452A70E9D1864DDFF82C82FD
:10050000A5F14902944605F1020E2C7815F8016D0B
:1005100004EB460488FB04A6A6EBE47465450EF8DC
:10052000014DF2D103EB432403EB840303F558534D
:1005300019339BB203EB1324E4B28C42038072485C
:1005400024D203EB432103EB810303F55853193302
:100550009BB203EB432403EB840404F55854193491
:1005600003EB1323A4B2DBB204EB1421C3EBC303EC
:10057000C9B21B1201EB4105C1EB4511D55C0480EA
:1005800009126039284680FA51F0D054624E4FF07B
:10059000010806F1E10A354624E002F0A5FC2246F6
:1005A0009DF80C309DF80DE09DF80E40CDF80080D0
:1005B0005A492B7085F801E0AC70FF2303A803357E
:1005C00002F092FC9DF80C109DF80D209DF80E3065
:1005D00086F8BF11AA4586F8C02186F8C131A6F178
:1005E00003063DD017F8012F99F800E04B49CDF8EC
:1005F0000080C2EB021402EB0412C2F30724FF23B3
:1006000003A82246BEF1000FC7D12246FF2343496B
:1006100003A802F069FC22469DF80C309DF80DE01D
:100620009DF80E40CDF800803C4986F8DE3086F813
:10063000DFE0FF2386F8E04003A802F055FC9DF8B8
:100640000C109DF80D209DF80E3085F8E11085F80E
:10065000E22085F8E3300335AA45A6F10306C1D1AF
:1006600004B0BDE8F0872848264F0388DFF8B8902B
:100670002B4E23492B4D03EB432203EB820303F55F
:10068000585319339BB203EB432C03EB8C0C0CF542
:10069000585C0CF1190C1FFA8CFC0CEB1C2203EBC0
:1006A0001323D2B25FFA83FE02EB82020CEB4C23DF
:1006B0000CEB8303C2EBC20203F55853D21119337A
:1006C00032329BB2D2B2CEEB0E1E3A7003EB13273E
:1006D000C7F3C0174FEAAE1E0EF1320E89F8007054
:1006E00001275FFA8EFE37700F27002681F800E0A1
:1006F000038071462F602670DAE600BF6087FF1F17
:100700005E87FF1F5C87FF1F6A87FF1FB5814E1B37
:100710008390FF1FCD90FF1FB08DFF1FD090FF1F54
:100720005687FF1F5887FF1F0E92FF1F56555555BE
:10073000F0B53548037885B0002B61D0334D344F88
:100740002B88344E344C03EB432103EB810101F53C
:100750005851193189B201EB1123DBB203EBC3020B
:1007600003EB4202D2110A32D2B24FF0010E2980BD
:10077000002314213A7086F800E021600370274CB2
:10078000274E2046962102F05DFB2B88254903EB7E
:10079000432203EB820303F5585319339BB203EB57
:1007A000432003EB800000F55850193080B200EB75
:1007B000102E96275FFA8EFE07FB03F301220092AC
:1007C0001F0C72462880FF2303A886F800E002F081
:1007D0008BFB07EB4703E118E25C9DF80C0082FA03
:1007E00050F2E2549DF80D304A7882FA53F24A7082
:1007F0008B789DF80E2083FA52F38B7005B0F0BD14
:10080000034B024D1A78BAE76087FF1F6A87FF1F04
:100810005487FF1F5687FF1F5887FF1FB08DFF1F8C
:100820000992FF1FD090FF1F2DE9F04361490B781B
:1008300083B0002B40F087805F4B604A604D187892
:1008400012782B885F4F604C87FB02171744FF100C
:100850000237FFB204F1960E264603EB432203EB68
:10086000820303F5585319339BB203EB132216F896
:10087000011FD2B212FB07F2A1EB122222EAE272AE
:10088000B6453270E9D1514EDFF85081A6F192029F
:10089000944606F1020E317816F8017D01EB47010E
:1008A00088FB0197A7EBE17166450EF8011DF2D1B7
:1008B00003EB432103EB810303F5585319339BB238
:1008C00003EB1321C9B281422B803D4D24D203EBAF
:1008D000432103EB810303F5585319339BB203EB18
:1008E000432003EB800000F55850193003EB13232D
:1008F00080B2DBB200EB1021C3EBC303C9B21B1201
:1009000001EB4106C1EB4611D65C28800912603923
:10091000304680FA51F0D0542D4D05F5E17614F8AB
:10092000011F01A802F0BEFA9DF804109DF80520F1
:100930009DF8063029706A70AB700335AE42EED177
:1009400003B0BDE8F0831E4D1C4F2B88214E1A4882
:10095000214C03EB432203EB820202F55852193279
:1009600092B202EB422302EB830303F5585319338F
:100970009BB202EB122E03EB1322D2B202EB8202E5
:10098000C2EBC2025FFA8EFED211CEEB0E1E3232E5
:100990004FEAAE1ED2B20EF1320E3A7000275FFA65
:1009A0008EFE37700F2680F800E02B8070460F70A7
:1009B000266047E76087FF1F5E87FF1F5C87FF1F7A
:1009C0006A87FF1F89888888AF92FF1F4293FF1FA5
:1009D000B08DFF1F5687FF1F5887FF1F565555556F
:1009E0002DE9F047924C237882B0002B40F0D28062
:1009F0009049914B914A924D0878127819782B883A
:100A0000904E914C02EB8202520086FB026ED2178E
:100A1000C2EBEE0E0EF1020E5FFA8EFE04F14B0CED
:100A2000274603EB432203EB820303F558531933A4
:100A30009BB203EB132217F8016FD2B212FB0EF236
:100A4000A6EB122222EAE272BC453A70E9D17F4F4E
:100A5000DFF80892A7F14902904607F1020C3E78B0
:100A600017F801ED06EB4E0689FB06AEAEEBE67617
:100A7000B8450CF8016DF2D103EB432603EB860376
:100A800003F5585319339BB203EB1326F6B2864293
:100A90002B806B4D24D203EB432003EB800303F543
:100AA000585319339BB203EB432603EB860606F536
:100AB0005856193603EB1323B6B2DBB206EB1620F9
:100AC000C3EBC303C0B21B1200EB4007C0EB4710DF
:100AD000D75C2E80001260383D4685FA50F5D5541B
:100AE00051B35B4E01AF06F1E108354614F8011F22
:100AF000384602F0D7F99DF804009DF805209DF8CE
:100B0000063028706A70AB7021783846033502F0E1
:100B1000C9F99DF804109DF805209DF8063086F867
:100B2000BF11A84586F8C02186F8C131A6F1030699
:100B3000DCD102B0BDE8F087454D01AFA5F1E10879
:100B40002E4614F8011F384602F0ACF99DF8040057
:100B50009DF805209DF8063085F8DE0085F8DF2039
:100B600085F8E03021783846033D02F09BF99DF886
:100B700004109DF805209DF8063086F8E110A84580
:100B800086F8E22086F8E33006F10306D9D102B0F8
:100B9000BDE8F0872A4D27482B88DFF8A0E02D4FCD
:100BA00025492D4E03EB432203EB820303F55853F3
:100BB00019339BB203EB432803EB880808F5585818
:100BC00008F119081FFA88F808EB182203EB132321
:100BD000D2B25FFA83FC02EB820208EB482308EBF7
:100BE0008303CCEB0C1CC2EBC20203F558534FEA53
:100BF000AC1CD21119330CF1320C32325FFA8CFC7E
:100C00009BB2D2B280F800C08EF80020604603EBA1
:100C1000132E4FF0000CCEF3C01E87F800C00F2734
:100C200081F800E02B80714684F800C03760E7E669
:100C30006087FF1F5E87FF1F0E92FF1F5C87FF1FED
:100C40006A87FF1FB5814E1B1792FF1F6192FF1F1E
:100C5000B08DFF1F5687FF1F5887FF1F56555555EC
:100C60002E480378F0B593B92D492E4A2E4B0978BA
:100C700012781B782D48002946D001788A1AD2B202
:100C8000027096212A48BDE8F04002F029B8294CAC
:100C9000254F2388224D234E03EB432103EB810193
:100CA00001F55851193189B201EB412301EB83035E
:100CB00003F5585319339BB203EB432203EB820233
:100CC00002F5585219321FFA82FE03EB13220EEB83
:100CD0001E23C3F3421301EB11210133A4F800E0FA
:100CE0003B70C2F38112C1F3C011DFF850E0124F24
:100CF0002970002401320A25047032708EF80040F9
:100D00003D600A480029B8D101780A44D2B2027085
:100D100096210748BDE8F04001F0E2BF6087FF1F61
:100D20000E92FF1F6187FF1F5587FF1F0992FF1F4C
:100D3000B08DFF1F6A87FF1F5887FF1F5687FF1F51
:100D40003349F8B50B7843BB3249334A334B087803
:100D500012781B78D8B9324801780A44D2B20270AE
:100D600030484B2101F0BCFF2E4B03F1E1001A4645
:100D7000197882F8BF11597882F8C011997882F8F1
:100D8000C11103338342A2F10302F1D1F8BD24481B
:100D900001788A1AD2B20270E2E723481F4E038814
:100DA0001D4D1C4C03EB432203EB820303F5585308
:100DB00019339BB203EB432203EB820202F5585234
:100DC000193292B202EB422702EB870707F5585718
:100DD0001937BFB207EB172C03EB132302EB1222D8
:100DE000CCF3421CC3F3C01EC2F381120CF1010309
:100DF0000780337001320D4F0D4E2A7084F800E0E9
:100E000000250F2470463D700D703460A2E700BFCE
:100E10006087FF1F0E92FF1F6187FF1F5587FF1F0F
:100E20000992FF1FB08DFF1F6A87FF1F5687FF1FA4
:100E30005887FF1F08B50121072002F017FE012186
:100E40000E2002F013FE0B4A1368D90405D40A4998
:100E50000A4843F480531360C860074A136843F09C
:100E600000431360136823F4804323F001031360ED
:100E700008BD00BF3C80044000C0024001000138B2
:100E80002DE9F04F98490B7887B0002B00F01C81BA
:100E9000964CDFF88CA22388DFF888B2DFF88882CE
:100EA000DFF8889203EB432003EB800000F55850F5
:100EB000193080B200EB402300EB830303F5585355
:100EC000193303EB432203EB820303F55853193321
:100ED0009BB203EB432203EB820202F55852193214
:100EE00092B202EB422602EB860606F558561936F8
:100EF000B6B200EB102006EB1625C0F3811003EB11
:100F0000132302305FFA85FEDBB206EB462CFF2589
:100F100095FBF0F5013D03EB430306EB8C06EDB2C8
:100F20001B111EFB05F506F5585602EB1227193664
:100F300003F110022B12268001336D4C8AF8003029
:100F4000C7F303173D1D6B4B8BF80050D2B22270D4
:100F5000694D6A4C88F800000120187000230A20AF
:100F60002B700B7089F8003020609621644801F0E6
:100F700069FF98F80030002B00F0A380614FDFF884
:100F8000A4B13A78DFF898A1DFF8A0915C4E002573
:100F900060E09BF800100B445B4903EB45030968D4
:100FA00004919BB2FF2B049898BF1B024FF48C71E5
:100FB00098BF9BB201FB00F003FB00F0C0F30E40B2
:100FC00000F580404104C0F3CA0303D5C3F5FF63B5
:100FD00007339BB24FEA132EC3F346014B4B13F872
:100FE0000E404B4B33F81E3004FB01339CB203041C
:100FF00065D44849484B09781B78009124B2A4F580
:1010000000449621A4B201FB04F4240C04EB440434
:10101000424903A801F068FF3119335D9DF80C20A7
:1010200083FA52F333554A789DF80D3082FA53F221
:101030004A708B789DF80E2083FA52F38B703978C2
:101040009AF8002098F800300A440135D2B2AB4239
:101050003A7036DD99F8001000299AD09BF80010FC
:101060000B44294903EB4503096805919BB2FF2B0B
:10107000059998BF1B024FF48C7000FB01F198BFDB
:101080009BB203FB01F3C3F30E43A3F580439BB272
:101090005804C3F3CA0103D5C1F5FF61073189B212
:1010A0004FEA112EC1F34600184911F80E401849B5
:1010B00031F81E101B0404FB00118CB299D5644258
:1010C00097E707B0BDE8F08F0B4A127832B1084AB3
:1010D0000C491278DFF850800B7046E7044BDFF8BC
:1010E00048801A7841E700BF6087FF1F6A87FF1FAB
:1010F0005487FF1F5687FF1F1292FF1F5887FF1F3D
:10110000B08DFF1F0992FF1FE894FF1FE4680000E5
:10111000C87200000B92FF1F5D87FF1FD090FF1F5A
:101120005587FF1F6787FF1F6687FF1F0E92FF1FF0
:10113000F0B558490B7885B0002B56D1564B574D1A
:101140001A78574C5748962101F07CFE564A2B7866
:101150001268039203994FF48C721B0202FB01F197
:1011600003FB01F1090C4804C1F3CA0303D5C3F51D
:10117000FF6307339BB21A0A4C4D4D48AD5C30F803
:101180001200C3F3460205FB02039BB20A0448BFE8
:101190005B421BB2A3F500439BB22278962404FB6A
:1011A00003F31C0C002A5ED1424B43491A780123F9
:1011B000009302A8FF2301F097FE04EB4404394A90
:1011C0009DF80800135D111983FA50F313554A78FE
:1011D0009DF8093082FA53F24A708B789DF80A2004
:1011E00083FA52F38B7005B0F0BD344C2B4D23883D
:1011F0003348294E03EB432203EB820303F5585394
:1012000019339BB203EB432703EB870707F55857C6
:101210001937BFB207EB172E03EB132307EB472C4D
:101220005FFA8EFEDBB207EB8C070EEB8E0EC3EB84
:10123000C30307F558574FEAEE1E1A1119370EF17E
:10124000080E27801032164C1E4F85F800E04FF034
:10125000010E0023D2B280F800E00A203270237021
:101260000B7038606EE7134D13492A780123D618A6
:10127000009302A8FF232E7001F036FE04EB440415
:10128000084B9DF808001A5D191982FA50F21A5598
:101290009DE700BF6087FF1F5487FF1F6787FF1F01
:1012A0007090FF1FB08DFF1FE894FF1FE4680000DF
:1012B000C87200000992FF1FD090FF1F6A87FF1FAE
:1012C0005687FF1F5887FF1F2DE9F04F76490B788F
:1012D00085B0002B00F0D8807448DFF800920388B6
:1012E000DFF8FCA1DFF8FC81DFF8ECE103EB43243D
:1012F00003EB840404F558541934A4B204EB4423DA
:1013000004EB830303F55853193303EB432203EB38
:10131000820303F5585319339BB203EB432603EBC7
:10132000860606F558561936B6B206EB462506EB84
:10133000850505F55855193503EB1323ADB2DBB21E
:1013400004EB142403EB4302C4F3811405EB1523CF
:101350000234DFB2FF2393FBF4F3013BDBB217FB54
:1013600003F306EB16261211C6F303161B120580B3
:101370000436013310324E4F4E4D4F4889F800303D
:10138000D2B200238AF8006088F8004001260A24BF
:101390008EF800203E702B700B7004609621474839
:1013A00001F050FD98F80030002B6AD0444FDFF870
:1013B00030A13A78DFF82491404E00254FF0970B8A
:1013C00040490C689AF8001003940B442B449BB2DC
:1013D000FF2B039898BF1B024FF48C7198BF9BB2F0
:1013E00001FB00F003FB00F0000C4104C0F3CA0352
:1013F00003D5C3F5FF6307339BB24FEA132EC3F344
:101400004601314B13F80E40304B33F81E3004FBCD
:1014100001339CB2030448BF644224B2A4F50044E3
:10142000A4B20BFB04F42A482A4900780090240C4B
:1014300004EB4404FF2302A801F056FD06EB040E62
:10144000335D9DF8082083FA52F333559DF8092047
:101450009EF8013083FA52F38EF801309EF80210A4
:101460009DF80A3081FA53F1387899F8002098F8FD
:1014700000308EF8021002440135D2B2AB423A700D
:101480009EDC05B0BDE8F08F0A4A127832B1124AEC
:101490000B491278DFF84C800B707FE70E4BDFF8BA
:1014A00044801A787AE700BF6087FF1F6A87FF1FB2
:1014B0005687FF1F1292FF1F5887FF1FB08DFF1F17
:1014C0000992FF1FE894FF1FE4680000C872000043
:1014D0000B92FF1FD090FF1F5487FF1F5587FF1FE0
:1014E0006787FF1F6687FF1FF0B58BB00023056875
:1014F0008DF804308DF805308DF806302E68374AA7
:101500008DF8083096428DF809308DF80A305FD199
:10151000827C04910446012A01A805918DF81E30B1
:101520008DF81F308DF82030039015D08DF81D30C8
:101530008DF81C308DF81B308DF81A308DF819306D
:101540008DF818300023AA698DF8213020460993C0
:1015500003A990470BB0F0BD214A1378013303F083
:10156000070313F0010F14BF8021002113709A07A5
:1015700044BF41F04001C9B25B0748BF41F02001C0
:1015800010310022C9B20DF11B030DF11E074FF4FB
:10159000807EAAB19EFBF2F2D2B2501CC0B200FB18
:1015A00001152D121870EEB205B1013E03F8036C5F
:1015B00000B11A7001339F4208D0DA78002AE9D1CD
:1015C0001A7003F8032C01339F42F6D12568B9E75E
:1015D0000A4602AB01A9B0470BB0F0BDB11900003B
:1015E000708CFF1F7D4B7E4A2DE9F04FDF68C7618D
:1015F0001B697C4E036233687B4D43622B687B4CD6
:1016000083622368C362804680691368C8F83030FB
:1016100083B050B10368764A1B68934240F053810F
:101620004268007B1378034313706C4BDA68B2F1A5
:10163000605F00F02B81694B1A68550400F130811E
:1016400042F4804040F001004FF060554FF0F0440C
:101650001860DD601C611A60624B614D634C624E24
:101660005E484FF410721A604FF4A27333602A6020
:1016700023600C7DCD7C91F812B0C26A574B5704A1
:10168000FBD472B64FF080525A63DA6A42F00042DD
:10169000DA6262B6DA6A51485604FBD472B64FF089
:1016A00080534363C36A43F00043C36262B68B68EE
:1016B000002B5ADD0346681C0746601C04460A6876
:1016C000CDF804800BF1010B1846A2468C69151960
:1016D000145DAE786A780AFB06F60BFB04F4C6F3D9
:1016E000072607FB02F2241246F47F461512DA6A37
:1016F0005204FCD472B646F080524263C26A42F091
:101700000042C26262B62A0292B2224394B2DA6AFC
:101710005204FCD472B644F080524263C26A42F072
:101720000042C26262B68C68009491F915200C6880
:1017300091F80C904E7B8D7B91F80FE091F8108022
:1017400091F811C02244009C0A60013CC9EB0E0EC6
:10175000C6EB0806C5EB0C05002C81F80CE04E73B7
:101760008D738C60B2DCDDF8048048681B4A002869
:10177000B8BF1F3040111146FF24D36A5E04FCD469
:1017800072B64C63CB6A43F00043CB6262B6D36A55
:1017900013F48043FBD172B64B63CB6A43F0004332
:1017A000CB6262B6D36A13F48043FBD172B64B634B
:1017B000CB6A43F00043CB6262B6D36A13F4804332
:1017C000FBD172B64B63CB6A43F00043CB6262B687
:1017D00010F1FF30D1D2014A13E000BF00C0024037
:1017E00004C0044008C0044018B0044014B00440D1
:1017F00075040000D36A43F00043D362002362B64D
:1018000043B972B6D36A13F4704FF3D1012362B6B1
:10181000002BF6D02F49CB6A2E4A002BFBDAD36A75
:101820002D4ED8F818002D4D2D4C2E4943F0104365
:10183000D3624FF4A2733360D8F828202A60236063
:10184000D8F82C300B6050B10368274A5B6893428C
:101850003DD14268017B137823EA010313701D4BCD
:10186000D8F81C20D968D8F820008A421FD0194B1C
:1018700019684C0422D441F4804444F001041C60F3
:10188000DA601861196003B0BDE8F08F1B69B3F12D
:10189000F04F3FF4E1AE0F4B1A6855047FF5D0AE20
:1018A0004FF060504FF0F042D8601A61D4E61B69E7
:1018B0009842E8D0074B19684C04DCD5DA6018610F
:1018C00003B0BDE8F08F009198470099ADE69847C6
:1018D000C5E700BF00C0024008C0044018B0044083
:1018E00004C0044014B0044081040000F0B5857CBD
:1018F0001C785E789B7889B0012D01910292039249
:101900008DF816408DF817608DF8183017D0002329
:101910008DF815308DF814308DF813308DF81230A5
:101920008DF811308DF810300368002203219B6977
:101930008DF81910079201A9984709B0F0BD1B4A0C
:101940001378013303F0070313F0010F137014BF72
:1019500080220022990744BF42F04002D2B25B07C6
:1019600048BF42F020021032D2B20DF113030DF144
:1019700016074FF4807EACB19EFBF4F4E4B2611C18
:10198000C9B201FB02252D121970EEB205B1013E5C
:1019900003F8036C01B11C700133BB42C4D0DC7886
:1019A000002CE9D11C7003F8034CF5E7708CFF1F85
:1019B000F0B5857C1C785E789B7889B0012D01910B
:1019C000029203928DF816408DF817608DF818304A
:1019D00016D000238DF815308DF814308DF81330A3
:1019E0008DF812308DF811308DF810300268002318
:1019F00092698DF81930079301A9904709B0F0BD9D
:101A00001B4A1378013303F0070313F0010F13701F
:101A100014BF80220022990744BF42F04002D2B294
:101A20005B0748BF42F020021032D2B20DF113031F
:101A30000DF116074FF4807EACB19EFBF4F4E4B2D6
:101A4000611CC9B201FB02252D121970EEB205B15D
:101A5000013E03F8036C01B11C700133BB42C5D0D9
:101A6000DC78002CE9D11C7003F8034CF5E700BFCB
:101A7000708CFF1F2DE9F04FB14B1A788DB032B149
:101A8000B04CB14900220A2022701A700860AF4899
:101A900003680B930B9A45F6287303FB02F2120CB2
:101AA0005504C2F3CA0303D5C3F5FF6307339BB2E2
:101AB000190AA74FDFF8B0827C5C38F81110C3F325
:101AC000460304FB03139BB2140448BF5B42026845
:101AD0000A921BB2A3F500430A999E4A9BB2C3EB3C
:101AE000431302FB01F21B0C120CDC33DBB251047A
:101AF0000093C2F3CA0303D5C3F5FF6307339BB258
:101B0000190AC3F346037C5C38F8111004FB031375
:101B100016049BB248BF5B42026809921BB2A3F550
:101B200000439BB2099903EBC3134DF608621B0CEB
:101B300002FB01F2120C60339BB2550401935FFA71
:101B400083F9C2F3CA0303D5C3F5FF6307339BB21E
:101B5000190AC3F346037C5C38F8111004FB031325
:101B60009BB2140448BF5B421BB202680892A3F503
:101B700000439BB2C3EB0312089903EB02234AF222
:101B8000C80202FB01F2120C1B0C03F5C8535104EE
:101B90001FFA83FBC2F3CA0303D5C3F5FF63073300
:101BA0009BB2190AC3F346037C5C38F811106A4DE6
:101BB00004FB031312049BB248BF5B420268079206
:101BC0001BB2A3F500439BB22621079CB5F800A0E9
:101BD00001FB03F147F6983303FB04F4240C090CD2
:101BE0001731660489B2C4F3CA0203D5C2F5FF6295
:101BF000073292B2160AC2F3460217F806E038F826
:101C00001660DFF868C1554B0EFB0262240492B2E5
:101C10000468059448BF5242059EBCF80040006825
:101C2000069012B2A2F50042B6B240F6B83092B2B7
:101C3000341B00FB02F2ACF800601888484EDDF857
:101C400018C0A4B214FB010006FB0CF1090C120C25
:101C500080B2013218804B0496B2C1F3CA0203D598
:101C6000C2F5FF62073292B24FEA122EC2F3460269
:101C700017F80EC038F81EE00CFB02E292B20B041B
:101C800048BF524212B2A2F5004292B202EB820267
:101C9000120C05326FEA09095FFA89F992B204FB66
:101CA00002A24B4658442A80D14684B295259A46D2
:101CB00009EB06031FFA83F961044FEA192EC4F3F6
:101CC000CA0203D5C2F5FF62073292B2100AC2F30C
:101CD000460117F800C038F810208DF810E00CFB12
:101CE0000122230492B248BF524212B2A2F500422E
:101CF00092B2019B02FB02F2120C03FB02F2C2F34E
:101D0000074252449DF800308DF8122003A904A820
:101D10008DF8113001F032FA124B05EB45001844F2
:101D2000402203A9013D01F08FF8ADB24FF6FF73D9
:101D30005C449D42A4B2BBD10DB0BDE8F08F00BFA2
:101D40006087FF1F5687FF1F5887FF1FE894FF1FFC
:101D5000E4680000F87401006E90FF1FF491FF1F0B
:101D600080B50100B08DFF1FC87200006C94FF1F8A
:101D70002DE9F04FBB4B1A788DB03AB1BA4CBB4944
:101D800001250A200022257008601A70B849B94B55
:101D90000A680B920B9803FB00F0000C4704C0F399
:101DA000CA0303D5C3F5FF6307339BB21A0ADFF8F2
:101DB0000CA3DFF80CB31AF802503BF81240C3F33F
:101DC000460205FB024306049BB248BF5B421BB2BE
:101DD0000A680A92A3F500439BB203EBC3130A9C63
:101DE000180C4DF6086303FB04F4240CA24B60307E
:101DF000C0B265041870C4F3CA0303D5C3F5FF630A
:101E000007339BB21D0AC3F346021AF805603BF87C
:101E1000153006FB02339BB2220448BF5B421BB263
:101E20000A680992A3F500439BB2C3EB0319099C0E
:101E3000924A03EB09294AF2C80303FB04F44FEA70
:101E40001949240C09F5C8591FFA89F3670403934B
:101E50001380C4F3CA0303D5C3F5FF6307339BB2F2
:101E60001D0AC3F346021AF805603BF81530DFF887
:101E7000548206FB02339BB2260448BF5B420A68C9
:101E800008921BB2A3F500439BB2089DB8F800E08E
:101E9000262202FB03F247F6983404FB05F4120CE9
:101EA000774B240C173292B265041A70C4F3CA033C
:101EB00003D5C3F5FF6307339BB21E0AC3F3460580
:101EC0001AF806303BF81660DFF8FCC103FB056327
:101ED00027049BB20C68069448BF5B421BB2069F66
:101EE0000968BCF80040674E0791A3F5004340F233
:101EF000B1419BB2BFB201FB03F3634935880F8048
:101F00003C1BA4B26149ACF8007014FB0252DFF82C
:101F1000BCC1079D0C801B0C91B2318003F59673F8
:101F20005B4E0CFB05F52D0C9BB233806E04C5F3A4
:101F3000CA0203D5C2F5FF62073292B2160AC2F393
:101F400046021AF806703BF81660DFF8849107FB2A
:101F5000026292B22D0448BF524212B2A2F5004270
:101F600092B202EB8202120C053292B204FB02E43E
:101F7000484F494E039AA8F800409525474C0395D1
:101F800005EB4508A044042473449BB24FEAD31EDA
:101F90001EF4807F6FEA132C0A4492B25FFA8CFC25
:101FA000338008BF4FEA132C3D4D3E4BA5F800E0AF
:101FB000510483F800C03A80C2F3CA0E05D5CEF5AD
:101FC000FF6E0EF1070E1FFA8EFE4FEA1E21CEF3B2
:101FD00046031AF801E03BF81110334D0EFB031EC7
:101FE0001FFA8EFE130448BFCEF1000E0FFA8EFECC
:101FF000AEF5004E1FFA8EFE0EFB0EF2120C02FB27
:1020000000F3C04300EB1340CCEB0C130CEB031CB0
:10201000012300932A80254B254DA3F800E0CCF343
:10202000072CC0B2034662462870224989F800C0D6
:1020300005A800F059FF204BBDF80C501D808022F0
:1020400005A94046013C00F0FFFE14F0FF0441D01A
:102050000F4B0A4A0848B6F800E01B8839881288F6
:10206000007891E76087FF1F5687FF1F5887FF1F83
:10207000E894FF1FF8740100F691FF1F7290FF1F94
:10208000AC8DFF1F0C92FF1F1092FF1F4693FF1F86
:10209000AC92FF1FAE8CFF1FF891FF1FB08DFF1F8A
:1020A0001492FF1F1692FF1F7890FF1FA492FF1F2C
:1020B000F091FF1FD090FF1F6C90FF1FE46800009D
:1020C000C87200006492FF1FA692FF1F80B5010036
:1020D0003894FF1F039D013DADB24FF6FF739D4243
:1020E00009D0064B064A0748B6F800E01B88398835
:1020F0001288007842E70DB0BDE8F08FAC92FF1F68
:102100007290FF1FF691FF1F2DE9F04F9BB03F4BE0
:102110000993431E0A9300F12F030B93DFF8F49009
:1021200000230893002759F82730DBB20137FF2B33
:10213000BFB2F8D1D9F8003007974FEA13684FF0D3
:10214000FF32C6460692C3F3072BC3F3074A0024A7
:10215000C84658F8045FC5F30727C5F30746F9B228
:102160004FEA241C0491F1B205915FFA8CF10391BE
:102170000799ECB20F29C5F307650DAA0EA84FEA1F
:1021800014135FFA85F90CD806998C4507DC0F29E2
:1021900005D00131C9B28B42039138BF0B4659B209
:1021A00006910CA9009103998DF834B08DF835A0F3
:1021B0008DF836E08DF830708DF831608DF8325042
:1021C00000F0AEFDFF2CDDF810B0DDF814A0CE4617
:1021D000BFD10A9B0B9C0EAA01E0A3420FD012F8BC
:1021E000011B13F8010F8842F7D0089B01335D2BC8
:1021F000089308D0099B53F8049F099392E7044B76
:102200009DF820201A701BB0BDE8F08F1069000007
:102210003994FF1FDC750000F0B5022083B001F097
:102220001FFB1A491A4A0B88DFF878E0194E1A4D3D
:102230001A4C184400EB402343F2196700EB83006B
:10224000384480B200EB402300EB830300EB102006
:10225000C0B2C0EB00103B4440119BB214300027C9
:102260000B80107003EB132301AA96210C483370E6
:102270002F708DF804708DF805708DF8067027703A
:102280008EF8007000F01CFD03B0F0BD6A87FF1FE0
:10229000AE92FF1F1792FF1FAD8DFF1FF291FF1F20
:1022A000B08DFF1FF191FF1F2DE9F04F554C2378A2
:1022B00085B0002B00F08780534B544A1B8812785E
:1022C000019203EB432103EB810101F558511931D0
:1022D0001FFA81FA0AEB1A23DBB203EB830903EB43
:1022E000C9094FEA29291046DFF84CE1484ADFF8CE
:1022F0004C81484D484F494E494C09F1140901237E
:102300005FFA89F913708EF8009003F073F9434671
:102310004FF0000BA84600901D460AEB4A230AEB3B
:10232000830A0AF5585A0AF1190A1FFA8AFA73231E
:1023300003FB0AF0000C009B45F8043F0A3080B212
:1023400003F058F9374903F061FA0AEB4A230AEB24
:10235000830303F5585319339BB203EB432A03EB72
:102360008A0A0AF5585A0AF1190A1FFA8AFA0AEB78
:102370001A21C9B201EB8101C91103EB1323C3F385
:10238000C013053147F8040F06F8013FC8B203F047
:1023900031F90BF1010B5FFA8BF3234A48F8040F74
:1023A000994544F8042FB8D8174B2048A3F800A04B
:1023B000019B03EB4303C118FF22C2544A708A7089
:1023C00005B0BDE8F08F1A4D104A2B7812781948E5
:1023D000164906788DF80C6002EB42020533DBB239
:1023E000114403A8FF222B708DF80E308DF80D20BC
:1023F00000F0C4FE2B78FF2B04BF0123237005B02F
:10240000BDE8F08FF191FF1F6A87FF1FAE92FF1F9B
:10241000AD8DFF1F4493FF1FAC8CFF1F6792FF1F02
:10242000708FFF1F0000C84200007F43B08DFF1F68
:10243000F291FF1F1792FF1F0892FF1FFC90FF1FD2
:102440002DE9F04F644B65481A7885B0962100F06D
:10245000F9FC634B634A1B7800241470002B00F0D6
:102460008B80DFF8B481604E5C4DDFF8B0A103AB28
:10247000C14601933DE059F82410584603F00AF88C
:1024800049F8240007460021384603F0A9FA5749C5
:10249000002868D1384603F0C1FA00B1534F544BBD
:1024A00048F824701868594603F0FCF8514B4AF874
:1024B00024004FF06E5153F8240003F0F3F8014666
:1024C0004FF07E5002F0E4FF56F8241003F0EAF8D3
:1024D00046F8240003F0D2FA424B1B78C0B2834284
:1024E0003CBF404B18703E4B01341B78E4B2A34212
:1024F0003BD958F8240003F09BFA834656F8240091
:1025000003F0BCFA3C4B8DF80A001A7801998DF85B
:102510000820FF2302A88DF8093000F02FFE0BEBF6
:102520004B0029182B5C9DF80C2083FA52F32B5496
:102530009DF80D304A7882FA53F24A708B789DF8F4
:102540000E2083FA52F32D4A8B70125D5AF824B094
:10255000002A90D159F82400594602F099FF074605
:1025600049F824008FE7002799E71E4B1B78052BBD
:1025700004D905B0BDE8F08F03AB01930023019AA5
:1025800016488DF80C3096218DF80D308DF80E30F0
:1025900000F096FB1A481B4C038824681A491B4A12
:1025A000039403EB432409881288194D03EB840339
:1025B00003F558530A4419339BB292B20399154C50
:1025C000038003FB02F301EB134302222B60227012
:1025D00005B0BDE8F08F00BF6887FF1FB08DFF1FFB
:1025E0000892FF1F0A92FF1F748FFF1F0000154300
:1025F0005087FF1F4893FF1F1792FF1F6892FF1F0E
:102600006A87FF1FE894FF1F6287FF1F6487FF1F11
:102610006890FF1FAD8DFF1F0091FF1FB08CFF1F43
:1026200000B5104B1B78022B83B005D0A3B1012B52
:102630000DD003B05DF804FB0B4A0C4B12680192FD
:10264000019A1B689A42F4D3FFF7E6FDF1E7FFF722
:10265000F7FE03B05DF804FBFFF726FE03B05DF85C
:1026600004FB00BFAD8DFF1FE894FF1F6890FF1FA4
:10267000194A13786BB3194919480B88F0B403EB66
:10268000432703EB870303F5585319339BB203EB3E
:10269000432703EB870703EB132307F55857DBB2F8
:1026A000193703EB83130F4D0F4E104CBFB2DB11E4
:1026B0000F800A3307EB17270D4933702F70002363
:1026C0000A260225237006600D70F0BC1370FFF718
:1026D000A7BFFFF7A5BF00BF6087FF1F6A87FF1F67
:1026E0005887FF1F1792FF1FAE92FF1F5687FF1FCD
:1026F000AD8DFF1F2DE9F04F40F6B83197B0784807
:1027000000F0C2FE4FF4E131754800F0B9FE01213E
:10271000734800F08FFE50B11021724802F0E6F9C4
:102720006F480A2100F074FE6D4800F0A7FE0122F8
:1027300000216B4800F054FF4FF4FA6001F0BEF93D
:1027400069486A4903686A4A0978117013F00104FC
:1027500000F0A1809622002366496748DFF8B8811F
:10276000664C00F049FC40F6B831052000F044FE0C
:102770004FF497530220A8F8003001F071F8B8F830
:1027800000300027034409AA0AA810210AADA8F8BE
:1027900000308DF824708DF825708DF8267000F0CB
:1027A0008FFA0FCD0FC40FCDB8F8006006EB462EA0
:1027B00006EB8E060FC406F5585695E80F0019363D
:1027C000B5B205EB1526F6B284E80F0006EB46031A
:1027D000C6EB0316F6114A4BA8F8005053F82680B2
:1027E00058F82730DBB20137FF2BBFB2F8D1D8F849
:1027F000003007974FF0FF324FEA13690692C3F398
:10280000072BC3F3074A0024CE4658F8045F3D481F
:10281000C5F30727C5F30746F9B24FEA241C049114
:10282000F1B205915FFA8CF103910799ECB20F298F
:10283000C5F307650AAA4FEA14135FFA85F90CD8A5
:1028400006998C4507DC0F2905D00131C9B28B42AE
:10285000039138BF0B4659B2069109A9009103991B
:102860008DF828B08DF829A08DF82AE08DF8247015
:102870008DF825608DF8265000F052FAFF2CDDF817
:1028800010B0DDF814A0CE46BFD11F4B01221A7044
:1028900017B0BDE8F08F01F091F800283FF45AAF6F
:1028A0001A49154B08685C60FF2201255C619C6039
:1028B0009D741A735A739A73DA731A745A7460B1E6
:1028C000134A116801B18B60136000221149064858
:1028D0009A61196001F078F83CE70B60F0E700BFFF
:1028E0009894FF1F805D0000748CFF1F5F87FF1F9F
:1028F0007094FF1FB08DFF1F788CFF1FD090FF1FBB
:10290000106900003C94FF1F0B92FF1F8094FF1F73
:102910009094FF1F905B00006A87FF1F2DE9F04F26
:10292000DFF82493B54DA3B003F0F0F8B9F8003008
:102930002A681844A9F80000D00740F18680DFF823
:102940000C83AF4CD8F800300D9394E806000D9B33
:102950005B1A9A4240F28C80AA4D2B68D90740F14D
:102960009680D8F80030A84C1093109BA748228876
:102970006188A0FB0303C2EB93139BB299420DD86D
:10298000D8F800300F930F9BA049A14AA1FB031375
:1029900012789B092380002A40F099809D4D2B6876
:1029A000DA0740F18980D8F800309B4C1393139BD1
:1029B000964822886188A0FB0303C2EB93139BB265
:1029C00099421FD8B9F80030D8F80020129203EBD2
:1029D000432203EB820303F5585319339BB203EBF5
:1029E00013221299894EA9F80030D3B203EB4303A6
:1029F000A6FB0112894D8A489B11920901212B7077
:102A000022800170874D2B68DB074BD5D8F800304A
:102A1000854C169394E80600169B5B1A93420DD3DF
:102A20007E4BD8F80010814A18781591804B159983
:102A3000126853F8203084E8060098477D480178F2
:102A400000F02CFB23B0BDE8F08F284600F0B6FF65
:102A5000DFF8F8816A4C002840F00781D8F8003090
:102A60000D9394E806000D9B5B1A9342FFF474AF3C
:102A7000D8F800300C930C9B624D6F4923606F486F
:102A8000182200F091FA2B68D9073FF56AAF284663
:102A900000F094FF002840F0F3805B4CD8F8003041
:102AA000109362E7284600F089FF002840F0D080AC
:102AB0005D4CD8F80030ACE7284600F07FFF0028D6
:102AC00040F08C80544CD8F8003013936FE75A4D87
:102AD0000FCD16AC0FC40FCD0FC495E80F0084E8DE
:102AE0000F0016A8FFF710FBB9F8003054485549FD
:102AF00003EB432203EB820303F5585319339BB2D4
:102B000003EB1322D2B202EB4202C2EB42121212C8
:102B1000A9F8003050F822A00A7000275AF8273090
:102B2000DBB20137FF2BBFB2F8D1DAF80030CDF8B5
:102B300024804FF0FF32C3F3074B0792C3F3072201
:102B40001B0E0592049300240897DE46D04658F8E1
:102B5000045F39484FEA241CC5F30727ECB2C5F3DC
:102B60000746C5F30765E9B206915FFA8CF1039158
:102B700008990F2916AA4FEA14135FFA87FB5FFA28
:102B800086FA0CD807998C4507DC0F2905D001314E
:102B9000C9B28B42039138BF0B4659B2079115A9B0
:102BA00000919DF814C08DF859E003999DF810E04C
:102BB0008DF85AE08DF858C08DF854708DF8556036
:102BC0008DF8565000F0ACF8069BCDF814B0FF2CF1
:102BD000D6460493BBD1DDF82480DFE6D8F8003078
:102BE0001193119B094A0C4CA2FB03239B097822E9
:102BF00028462380628000F0E7FE64E7FC91FF1F17
:102C0000A08DFF1F0092FF1F7490FF1FD34D621015
:102C10005687FF1F0492FF1FA88DFF1FAC8CFF1F5C
:102C20006087FF1F6490FF1F7C90FF1F5887FF1F66
:102C30002087FF1F7094FF1F3C94FF1FD090FF1F41
:102C4000106900003994FF1F6A87FF1FE894FF1F77
:102C5000D8F80020124B134C1492149A1B6822606F
:102C60002846636000F0B0FE23E7D8F800300B93ED
:102C70000B9B236032232846636000F0A5FEEDE63F
:102C8000D8F800300E930E9B074A084CA2FB032392
:102C90009B09192228462380628000F095FEFDE6FC
:102CA0005887FF1F7C90FF1FD34D62107490FF1F49
:102CB000024B00221A705A709A707047A892FF1F38
:102CC00000290BDD01EB41010144137803705378B7
:102CD00043709378837003308842F6D1704700BF09
:102CE00070B582B0FF25F02400298DF804208DF8FE
:102CF00006508DF8054010DD01EB41011E460446EB
:102D00004518214601A800F039FA9DF80420033443
:102D10003244AC428DF80420F3D102B070BD00BF44
:102D20002DE9F04F8B42099E52D396F800E01578BA
:102D3000777896F80280547892F802C0C1EB030BC2
:102D4000C5EB0E0EC4EB070ACCEB08061FFA8BF29C
:102D50004FEACE1E4FEACA1AF601B2B30FFA82FB4F
:102D60009EFBFBFE9AFBFBFA4FEA4E0E4FEA4A0A25
:102D700096FBFBFB99424FEA4B0B1FFA8EFE1FFAA4
:102D80008AFA1FFA8BFB4FEA05254FEA04244FEA23
:102D90000C2218D801EB41070131C61989B24FEA5C
:102DA00025294FEA24284FEA222C754454445A44DA
:102DB0008B4200F80790ADB286F80180A4B286F885
:102DC00002C092B2E6D2BDE8F08F4FF0010BC7E728
:102DD0008946357892F800E07478577896F802C002
:102DE00092F802801570194686F800E04B46547040
:102DF000777082F802C086F802809FE709B330B48A
:102E00004D1EADB2D2430135D2B205EB45050544A6
:102E10000132441C14F8013C02FB03F31B1204F8BA
:102E2000013C4178837802FB01F102FB03F30912B4
:102E30001B12417083700330854204F10304E9D111
:102E400030BC7047FFF7DABF22B3FF2A23D0F0B4BB
:102E500004780E78437895B2A719D24306FB05761D
:102E6000D2B204FB0264C4F3072404704C78867861
:102E70001F1904FB057403FB0243C3F307234370CC
:102E80008B78F11803FB051506FB0252F0BCC2F368
:102E90000722827070470B7803704B7843708B78F1
:102EA0008370704701EB4103C1EB8313003118BFFE
:102EB000012101EB2321C9B28B000A06DBB20ED43B
:102EC00001F0400101F0FF0219B9037042708270F5
:102ED0007047FF2100224370017082707047FF220B
:102EE00083700270427070472DE9F043141104EBB7
:102EF000440512F00F020D449DF81C6000D0E6B9A5
:102F00002C786978AA78FF2B12D0002B43D001339C
:102F1000DBB21CB103FB0444C4F3072419B103FB67
:102F20000111C1F307211AB103FB0222C2F30722E8
:102F3000047041708270BDE8F0830F2C2E7895F8F4
:102F40000190AF7800D0E91C120182F0FF056C1CE3
:102F500091F800C091F801E091F8028004FB06F6B8
:102F6000511C04FB09F504FB07F4C4F30724C6F362
:102F7000072701FB08F201FB0CF6C5F3072501FB4F
:102F80000EFE04EB222207EB262605EB2E21F4B2DF
:102F9000C9B2D2B2B7E71A4619461C46047041704E
:102FA0008270BDE8F08300BFF0B50139441E0025F2
:102FB0002F3001E084421ED014F8013F11F8016F58
:102FC000B342F7D003F1010704D2FBB223700135FD
:102FD0000E78EDB25F1E9E42FFB205F1010E08D2DF
:102FE00027700E78BE4238BF023B5FFA8EF538BFBD
:102FF00023709542DED3F0BDF8B51E1E036804466B
:10300000CCBF02EB420500250F469B68D8BF164691
:1030100098477A19236862605B690A4A666193423D
:1030200001D12046F8BD204698470028F9D0064A2D
:10303000064B516893FBF0F0884238BF0846506059
:103040002046F8BD710400007094FF1F40420F003D
:1030500070B40F4C2268531C8A4283B0236013DB88
:103060000C4D0D4A2968019101992D68009516684B
:10307000009D15604FF47A720025891B02FB03F353
:103080002560B3FBF1F3438003B070BC704700BF11
:103090008494FF1FE894FF1F8C94FF1F2DE9F04FCD
:1030A00043682D4C83B006468946002B4BD100F077
:1030B000E3FCF36820601BB14846B168984781463D
:1030C000264B1C680025002C36D07388A77C6168CD
:1030D0006269632B236898BFA574D3F804808DF8C8
:1030E00004508DF805508DF80650B9F1000F1CD032
:1030F00004F10B030DF1040E04F10E0C13F801BFE3
:10310000BBF1000F0DD093F803A00AF101000BFBF7
:103110000000BAF1000F04D009FB00F0000C8EF89B
:10312000000063450EF1010EE8D1204601ABC04717
:10313000A774A468002CC8D130461921FFF788FF76
:1031400003B0BDE8F08F00F097FC22687368801A26
:103150009842AAD3ABE700BF8894FF1F8094FF1F5B
:1031600000207047044B0022FF204FF0FF31187001
:1031700099605A80DA6070477094FF1FF0B4047849
:1031800046788278E00000F0F80000EB800303EB63
:10319000031303442506C3F307235FD404F040055B
:1031A00005F0FF0704F02004002D46D104F0FF00D5
:1031B000002C6CD05533DDB2AB243B46FF2E1CD027
:1031C000002E79D01CB106FB0444C4F307241DB1C2
:1031D00006FB0555C5F307251BB106FB0333C3F3F7
:1031E0000723F043C0B200FB0000C0F307200444F3
:1031F00005440344E4B2EDB2DBB2FF2A18D012FB5F
:1032000002F0003218BF012202EB102212F0FF027E
:1032100056D01CB102FB0444C4F307241DB102FBC9
:103220000555C5F307251BB102FB0333C3F3072381
:103230000C704D708B70F0BC704704F0FF075CBBE6
:1032400000EBC00400EB440000EBC0000412563B4E
:10325000C4F1AB04DDB2E4B23B46AFE704F0400793
:1032600007F0FF05E7B904F0200707F0FF04002F7F
:1032700036D100EBC00300EB430000EBC000C0F30D
:103280000720C0F1AB055530EDB2C3B296E7DC4381
:10329000E4B21D46034691E70024DD43EDB28DE71D
:1032A00004F0200404F0FF0594B903F15504E4B2DE
:1032B000C3F1AB03DBB281E7FF231D461C469CE74D
:1032C0001546144613460C704D708B70F0BC704759
:1032D000A3F15604E4B20025C3F15503DBB26DE758
:1032E000D8431C46C3B269E7F0B561B301F1FF3EB4
:1032F0001FFA8EFE0EEB4E0E00220EF1060E8644D5
:10330000C31C1546144613F8037C13F8020C13F87B
:10331000016C033373453C4405443244F3D104EB60
:10332000840402EB8202C5EBC500C4F31713C2EBA1
:103330000212C5EBC004120A03EB142401EB810155
:1033400010190844F0BD0C460A46F7E72DE9F04392
:10335000254B1C6885B0074688469CB1DFF89490E1
:103360007D2507E0606981B23046FFF7BDFFA468A4
:10337000054444B194E848001B694B45F2D020460F
:103380009847F0E77D2505FB07F52D0A174B4545C6
:103390001B7810D223B3164A012152F833208DF83E
:1033A0000C109DF80C101378384623EA01031370B3
:1033B00005B0BDE8F08308FB07F7B7FBF5F0C7B22F
:1033C00073B10B4A012152F833208DF80C109DF88F
:1033D0000C10137838460B43137005B0BDE8F0832A
:1033E000384605B0BDE8F0838094FF1F9494FF1F1A
:1033F000BC7700006D040000034B044ADA6001FB57
:1034000000F19960704700BF7094FF1F4D330000BA
:10341000074882B003680193019A114401E0994280
:1034200004D303680093009B9A42F8D902B0704716
:10343000E894FF1F10B4104A85B0A1B91368009337
:103440004168009B591A31290DD813680293029CD8
:1034500004F13203591A01E0994204D3136801932D
:10346000019B9C42F8D913680393039B436001209E
:1034700005B010BC704700BFE894FF1F704700BF45
:103480004FF47A7000F01ABB00234364436071B1BB
:10349000074882B003680193019A114401E0994200
:1034A00004D303680093009B9A42F8D902B0704796
:1034B000E894FF1F30B5134C85B023680393039B3A
:1034C00043600D461048062101F010FB00230A223C
:1034D00029460E4801F01EFD06210D4801F006FBAD
:1034E0000A4801F007FD23680293029A02F13201B3
:1034F00001E0994204D323680193019B9A42F8D9D1
:1035000005B030BDE894FF1F387700007487FF1FB7
:103510004077000038B5037E0BB9632038BD0D46F7
:10352000044601F0B9FA10F0FF0F01D1652038BD53
:1035300001F0B2FA10F0FF0FF8D001F071FAC0B24A
:10354000A0F158031E2BF3D801A252F823F000BFBC
:10355000D93500003135000031350000313500002B
:1035600031350000313500003135000031350000C3
:10357000313500003135000031350000CD35000017
:1035800031350000313500003135000031350000A3
:103590001B350000313500003135000031350000A9
:1035A0003135000031350000313500003135000083
:1035B000313500001B350000313500003135000089
:1035C00031350000313500001D3500002046294608
:1035D000FFF770FF632038BD00232376632038BDDA
:1035E00070B5054682B01646C9B101230D4C03766D
:1035F00000212846FFF78EFF632810D0236801932F
:10360000019A511C23680093009B9A42F0D899427A
:10361000F8D200212846FFF77DFF6328EED12E76F1
:1036200002B070BDE894FF1F034B00229A60DA607D
:103630001A615A61704700BF9894FF1F374A384992
:1036400013681B06FCD40B6813F08003F8D172B624
:1036500034490A78002A5FD0334A3448F0B4344CF5
:10366000176806682568D4680C303E441432006838
:103670001268304F35442C4420440244C2F34E02B9
:103680002D4E2E482E4D2F4C42F400423A603768A2
:1036900006682D682C4A24680C303E440068126885
:1036A0002A4F35442C4420440244C2F34E02284E93
:1036B0002848294D294C42F400423A603768066890
:1036C0002D68274A24680C303E4400681268254F54
:1036D00035442C4420440244C2F34E02224E234877
:1036E000234D244C42F400423A60376806682D6846
:1036F000214A24680C303E440068126835442C444A
:1037000020440244C2F34E021C4842F400420260CC
:103710000B7062B6F0BC704762B6704724B00340CD
:1037200024B00B40E194FF1F38B003403CB003408D
:1037300040B003402CB0034058B003405CB003409D
:1037400060B0034064B003406CB0034030B003404D
:1037500038B00B403CB00B4040B00B4044B00B4085
:103760004CB00B402CB00B4058B00B405CB00B4041
:1037700060B00B4064B00B406CB00B4030B00B40FD
:1037800030B42948294A2A4B2A4D6024E12104708B
:1037900011701B78284C082B30D00A2B2748284959
:1037A00037D00C2B0CBF35223D2212232A60236018
:1037B00002600B60234B24491B78244ABBB10123D0
:1037C0000B601360224B23491B78234A012B26D917
:1037D000042B0FD9082B1ED9102B94BF86238723C7
:1037E0000B6013601D4B01221A7030BC70470B60D8
:1037F0001360E7E784230B601360F3E700F58E2086
:103800000F490830012213232A60236002600B60F5
:10381000D0E73922F7E785230B601360E2E78023C6
:103820000B601360DEE700BF004007400140074027
:103830006C87FF1F08B003400CB0034008B00B407A
:103840000CB00B40E494FF1F20B0034020B00B40AD
:103850006D87FF1F24B0034024B00B40E194FF1F8D
:1038600028282FD8334B2DE9F0411E5CFF2E2BD09A
:10387000314B1B78002B2AD132062CD472B62F4D37
:103880002F4C2F46012326602B7062B672B6236838
:103890001B060CD43B781BB9F4E72B78002BF1D036
:1038A00062B601F08DFB72B623681806F5D5254B7C
:1038B0001B6800222A7062B6234A107843FA00F08F
:1038C000BDE8F081002070470020BDE8F081FFF7DF
:1038D000B5FE3206D2D572B61C4DDFF87C801C4C8A
:1038E00006F04007FFB206F03F06D8F80030DFB11F
:1038F00023F01003C8F8003001232660134A2B7010
:1039000062B672B6236819060CD413781BB9ECE7BB
:103910002B78002BE9D062B601F052FB72B6236817
:103920001B06F5D50B4BC3E743F01003C8F8003076
:10393000E2E700BF90770000E194FF1FE394FF1FD0
:1039400000B0034010B00340E094FF1FE294FF1F5B
:1039500000B00B4010B00B400CB00B4008B5104C41
:1039600008E0236859050DD423681A050FD423688D
:10397000DB0411D423685803F3D500F037FA236829
:103980005905F1D501F0A0FB23681A05EFD501F028
:1039900031FC2368DB04EDD501F0C2FCEAE700BF8F
:1039A0003480044008B5FFF7D9FF00BF014B102257
:1039B0001A80704700200540704700BF0078B0FAB9
:1039C00080F04009704700BF01230370704700BFBB
:1039D0001C4A02EBC00301295B6811D004291BD0EB
:1039E00052F83000002280F8802229B1022920D02C
:1039F000032922D01A6070474FF480721A60704712
:103A000052F830004FF4A27280F880121A601A68DF
:103A100022F020021A60704752F830104FF4A27260
:103A2000012081F880021A601A6842F020021A60B0
:103A3000704740F203121A6070474FF481721A60A7
:103A4000704700BFBC77000030B4054B054D064CF5
:103A5000002210211A602A602060196030BC704773
:103A600014D0034004D0034000D00340212801D8E3
:103A7000FFF7AEBF704700BF72B60C490C4B0D4A42
:103A80001B680868126862B6520102D5322B88BFE3
:103A900001300949C3F5BB334FF47A72FF33A1FB00
:103AA000031302FB00F000EB93107047E894FF1F34
:103AB00018E000E004ED00E0ABAAAAAA2DE9F84363
:103AC000054672B6204F214B214A1B683C6812689C
:103AD00062B6520102D5322B88BF013495B3C3F5CB
:103AE000BB331C4EDFF86490DFF86480FF334FF483
:103AF0007A72A6FB031302FB04F404EB931472B670
:103B0000D9F800103A68D8F800E062B6C1F5BB33C6
:103B1000FF33A6FB03031EF0806FC4EB93134FF437
:103B20007A7002D0322988BF013200FB0233B3F52C
:103B30007A7F04D3013D05D004F57A74DFE701F004
:103B40003FFADCE7BDE8F883E894FF1F18E000E0E7
:103B500004ED00E0ABAAAAAAF8B52D4B2D49DFF879
:103B6000D0E0DFF8D0C02C4E2C4D2D4C2D4A2E4FDE
:103B70004FF4000018604FF0807018604FF0007034
:103B800018604FF0806018604FF0006018600020EF
:103B9000086028234BF6FF71CCF80010CEF80030F7
:103BA000336013602B6023603B60B3629362092231
:103BB00045F8242CC4F8D80F05F57F65C7F8D41F45
:103BC00007F5FF2707F5FA67C6F8F83F2B6006F5FB
:103BD000FF26C4F8D42F05F5FD2504F5FF24386031
:103BE00006F2F4761148316005F5FF6504F5FD64D1
:103BF0002B6023600260FFF7C3FD1920FFF75EFF13
:103C000000F05CFE40F21310BDE8F840FFF756BF2D
:103C100008E100E004800340148003402480034056
:103C20002C8003401C8003403480034000800B4004
:103C30000C80034008800340431E032B14D872B647
:103C40000A4951F8230068B170B4094C058834F86A
:103C50001320466841F82360521B24F8132062B6F3
:103C600070BC704762B67047002070474495FF1FD4
:103C70009497FF1F013803280BD872B6074B53F8EF
:103C8000203043B100205B680130002BFBD162B6CD
:103C90007047002070471846F9E700BF9895FF1F4E
:103CA00030B472B62B4A13781D0706D52A4B196A11
:103CB000002936D0996A002941D053781C0706D5CF
:103CC000254B196C00293ED0996C002939D0937886
:103CD000190705D5204B196E002936D0996E89B188
:103CE000D3781B0707D51C4BD3F880207AB3D3F8C1
:103CF000882011213AB162B6184B00221A7030BCEC
:103D000000F068BE0D21154C154D227843F8315056
:103D100003EBC1030830013A5860227062B630BC30
:103D2000704704220D4C0F4D217843F8325003EBBD
:103D3000C20308304A1E5860227062B6EFE70521C0
:103D4000E1E70921DFE70822ECE70C22EAE710228D
:103D5000E8E700BFF87800000080FF1FC195FF1F53
:103D6000C800400088004000431E032B1DD81B4A9A
:103D7000400140F0100030B4104472B6184CE25CC0
:103D8000032A1BD8DFE802F00212151703220D8860
:103D9000E25410F0080F14BFC823882343EA0543F8
:103DA00008310360416062B630BC704708300222BF
:103DB000EDE70522EBE708300422E8E7094A52F86C
:103DC000230038B1084A52F82300416042F823101A
:103DD00062B6E9E742F82310034AF7E70080FF1FC5
:103DE000D095FF1F9895FF1FA895FF1F2DE9F04F55
:103DF000DFF80CB3DFF80CA387B044E0AB4F4FEA19
:103E0000930807EBC809013ED9F8042003F0080322
:103E1000F6B2A2F1080003F0FF04002B40F002818B
:103E200057F838301B0C99B222F8081C002B00F010
:103E3000F0809F4B22F8064C42F8044C53F82620A1
:103E4000002A00F0C5829B4D55F8263058609A4CE8
:103E500045F8260034F81630194424F8161000F0FE
:103E600099FD002800F0AD82944A954B19F0080F97
:103E700000F1080018BF1346C9F8040047F83830AD
:103E800008238BF800309BF80040E4B261071AD594
:103E90008C4B1B78A3B18C490A7802F0FF0322B146
:103EA000013BDBB20B7003B900BE88490A7802F00F
:103EB000FF032AB1013BDBB20B70002B00F05782ED
:103EC00004238BF8003004F0080303F0FF02002BFA
:103ED00000F0CC809AF80030DBB21E098ED19C082D
:103EE000DFF8C89159F8342009EBC401C2F383020A
:103EF000013A49680C2A00F28880DFE802F07C7CF5
:103F00008686868686864786868607000868704D80
:103F10004A68704F704E286081B240F28160674BF2
:103F20006A604FF0010E0022814249F834303A6055
:103F3000C9F81020C9F8182086F800E05B4C00F2A0
:103F4000E380B1F5D06F80F04683B1F5817F00F05A
:103F5000FC8200F28D82802900F07783822940F074
:103F6000FA82A98801F07F01042900F2F4825B48FB
:103F70005B4C89000844227062700278930740F11C
:103F8000588484F800E04FF0020E42E3514F3A6843
:103F900032B3544B504E5449188834780D78402829
:103FA000864645F0020828BF4FF0400E002C84F0F2
:103FB00001043470CEEB00000CBF8824C82409EB48
:103FC000C80680B285F0010544EA0E44726018808C
:103FD00049F8384072440D70002800F045813A607D
:103FE0003B4B1A88B2F5A06F0FD100219A78597017
:103FF0003E4B1A7009E0364A108842F22102904284
:1040000000F037812D4A49F83420394A01231370D2
:1040100036E72A4A2A4B19F0080F18BF134647F80B
:1040200038302DE700F0D6FC324A334952F82630BA
:10403000002B00F0D18158688C5D42F8260003F116
:104040000802C9F80420032C05D8DFE804F02C028C
:10405000292602228A551A8819F0080F0CBF8823D6
:10406000C82343EA024347F8383009E7E00700F184
:104070008181210600F1F281A20706D51F4A20495D
:1040800013780220DBB213700870E30602D51C4BD4
:1040900010221A7007B0BDE8F08F04228A55DAE7C3
:1040A00005228A55D7E703228A55D4E70080FF1FEF
:1040B0004495FF1FF094FF1F9497FF1FC800400016
:1040C00088004000CC95FF1F5595FF1FD495FF1F1A
:1040D000B895FF1FEC94FF1F5495FF1FC0200740A9
:1040E000C495FF1F0095FF1FC095FF1F9820074034
:1040F000942007409895FF1FD095FF1F8820074008
:10410000802007409020074042F22100814200F0C9
:104110002A8100F2D880B1F5086F00F07682B1F5FF
:10412000106F40F01882226AB349A878087012060E
:1041300000F13A83D9F82820B049130600F10C8326
:10414000D9F83020AD49150600F10183D9F838209F
:10415000AA49140600F1F682D9F84020A7491006B2
:1041600000F14A83D9F84820A449120600F13F83A0
:10417000D9F85020A149130600F13483D9F858200A
:104180009E49150600F12983D9F860209B49140641
:1041900000F11E83D9F868209849100600F11383B6
:1041A000D9F870209549120600F10883D9F87820D3
:1041B0009249130600F1FD82D9F880208F49150637
:1041C00000F13183D9F888208C49140600F1258349
:1041D000D9F890208949100600F11983D9F8982060
:1041E0008649120600F10D838548864A864901906A
:1041F0008648874D874C0497002305960295804694
:104200000F4616461D460394306828B1446800F0F6
:10421000E1FB2046002CF9D100233360029B386873
:104220001A46002342F8253028B1446800F0D2FB3A
:104230002046002CF9D100223A60019A98F800300B
:104240001146002241F8042B039A0191023B4FF0E2
:10425000000122F81510032B00F22B81DFE813F088
:104260007001250170012501BEF1400F18BF002229
:10427000B5E6694A0D784878157050708D78C87821
:104280009570D07010680D79157186284D798979EF
:104290005571917100F09B816049614E0A783078C8
:1042A00082F00105002842F002020D700CBF882147
:1042B000C82149F8321009EBC20280F00100002148
:1042C000307051609EE642F22120814240F0CB8165
:1042D000544B554C5549A8781D682560CDF804E02D
:1042E0000870002002908046844604464B490D78B1
:1042F00045F0020E09EBCE030393019B002B039BB9
:104300005C600CBF8824C82444EA080385F00104DB
:1043100049F83E3032700C70DFF8E0E0404BDFF8D7
:10432000FC80002840F01E81BCF1400F1BD144F0FE
:10433000020C09EBCC03029CDFF8C0E05C60002AB1
:1043400040F02681020442F088029DF804304EF8C5
:104350003C20044433700D702346402803D10020D4
:10436000334A3B601080334A012313704DE600F05E
:104370009DFCA5E5214B2F4828491A614FF0020EFC
:1043800080F800E02C4F0A702C49196099602C4E7F
:104390002C4D2D4C9A610D213970FF213170DFF8C1
:1043A000B8E029702270294D294A8EF800109F2705
:1043B000012406F8047C5D600470DA6007B0BDE893
:1043C000F08F244A47F8380013780133137057E50B
:1043D00043F826000E4D3AE58B5D032B00F2F0808A
:1043E00001A252F823F000BF813E0000813E000090
:1043F000A54400009F440000CC95FF1F0080FF1FD4
:10440000A895FF1F4495FF1F9895FF1FD095FF1F8C
:10441000F094FF1F9497FF1F9C97FF1FC095FF1FED
:104420005495FF1FE894FF1FA497FF1FE495FF1FFB
:104430000095FF1F94200740C020074088004000DF
:104440008820074080200740982007400495FF1FE0
:104450005895FF1FC195FF1F8C200740C149C24BD3
:1044600080220D2008701A70A2077FF50EAE05E6B7
:1044700040F20232914240F0EE80A98801F07F01C3
:10448000042968D86A88002A65D1B648CDF804E0C6
:1044900089000844017841F00201017021E70123FD
:1044A0008B55EDE400238B55EAE44FF0010388F8C7
:1044B00000300135042D06F1040607F1040708F168
:1044C00001087FF4A1AEA94CA94B2278A94D049F05
:1044D000059E002129701A70130700F1058162788A
:1044E000A549DFF8A0820A7010074FF00001C9F853
:1044F0003010C9F8381000F1E080A049A2780A70A5
:104500000021C9F85010C9F858101107DFF874825B
:1045100000F10181E2789A499A4C0A700021120751
:10452000C9F87010C9F8781000F1B08033780193A1
:10453000002183F00102C9F89010C9F89810D0E664
:104540004FF0000388F80030B3E7A98801F07F013D
:10455000042940F28D80834A0F2313708A4A012375
:10456000137052E540287FF6E2AE44F002040EEBF1
:10457000C401029E4E60BAB19DF80410834A1970BE
:104580003346403888F8005040334EF83420E7E690
:104590009DF8043033700204029B0D7042F0C80293
:1045A00003444EF83C20D8E69DF804101970029B95
:1045B000774A88F80050403840334EF83420CFE630
:1045C00019F0080F0CBF022303238B5558E4714ADE
:1045D0000F21117060E6704A5468002CBBD06888C7
:1045E000B5F804E003E00C325468002CB3D0138813
:1045F0008342F8D153887345F5D1000A03280CBFD4
:1046000094F800E0B2F808E003E0644A644C1278E1
:104610002270E888704580F03F8162490D7840281B
:10462000844645F0020E28BF4FF0400C04EB0C030B
:1046300009EBCE02029301235460CCEB00004FEA59
:104640000C4800220193C8245EE6554C4FF0020E40
:1046500022706270DDE7B1F5A06F7FF47CAF0123BB
:10466000002201933DE642F221329142F7D072E7F7
:104670006A88002A7FF46FAF3A48CDF804E08900D9
:104680000844017821F0020101702AE600F082F965
:10469000002800F0EF8008303D4AC4F88400C4F8D8
:1046A000802000F077F9002800F0DE800830374ADB
:1046B000C9F88C00C9F8882038E700F06BF90028A9
:1046C00000F0C0800830324AC8F84400C8F84020E2
:1046D00000F060F9002800F0AF8008302B4AC9F8DC
:1046E0004C00C9F8482008E700F054F9002800F011
:1046F000CD800830264AC9F82400C9F8202000F0EF
:1047000049F9002800F0BC800830204AC9F82C0084
:10471000C9F82820E3E600F03DF9002800F09E806B
:1047200008301B4AC8F86400C8F8602000F032F96D
:10473000002800F08D800830144AC9F86C00C9F8D0
:104740006820E7E6C86B083800F044F904E5486BD8
:10475000083800F03FF9F9E4C86A083800F03AF97F
:10476000EEE400BFC020074080200740F87800003A
:10477000C4200740C195FF1FC8200740CC20074038
:10478000D02007400080FF1F94200740C800400051
:10479000880040005595FF1FFC780000CC95FF1F56
:1047A000C495FF1FC095FF1F606A083800F012F91A
:1047B000C0E4C86F083800F00DF9FDE4486F083810
:1047C00000F008F9F2E4C86E083800F003F9E7E4F5
:1047D000486E083800F0FEF8DCE4C86D083800F0D8
:1047E000F9F8D1E4486D083800F0F4F8C6E4C86C74
:1047F000083800F0EFF8BBE4486C083800F0EAF83D
:10480000B0E4D1F89C00083800F0E4F8ECE4D1F80A
:104810009400083800F0DEF8E0E4D1F88C000838A5
:1048200000F0D8F8D4E4D1F88400083800F0D2F8C9
:10483000C8E44FF0020EECE62A78C9F848000132CD
:104840002A705AE62A78C8F8400001322A703FE7F9
:104850002A78C9F8680001322A705BE62A78C8F81D
:10486000600001322A7061E72A78C9F888000132B5
:104870002A705BE62A78C4F8800001322A7010E7BB
:104880002A78C9F8280001322A7028E62A78C9F85F
:10489000200001322A7032E7BEF1400FF44628BFF3
:1048A0004FF0400C04EB0C0302930123CCEB0E0001
:1048B0004FEA0C480022019318E500BFF8B500F05C
:1048C0009BFD294B29482A4C2A4F2B4DDFF8BCC0B1
:1048D000DFF8BCE0294E00221A605A609A60DA6064
:1048E0001A615A619A61DA611A625A629A62DA62EC
:1048F0001A635A639A63DA631A645A649A64DA64CC
:104900001A655A659A65DA651A665A669A66DA66AB
:104910001A675A679A67DA67C3F880200168C3F894
:10492000842041F480210160C3F307212170C3F387
:104930000740134938701B0E2B70FF238CF8003092
:10494000104D8EF8003010480B700123337084F83E
:10495000642070264FF40074102207F82C3C2E704F
:10496000046081F8F820F8BD0080FF1F3480044007
:104970009C200740B0200740B42007409420074007
:104980001020074049E400E008E100E080200740F3
:104990008820074072B60D480268B2FA82F30B2BEA
:1049A00010DC4FF00041D94022EA0102026062B6F9
:1049B000074803EBC303DB00C2180021C1501046B7
:1049C0005160704762B60020704700BF7087FF1FBC
:1049D000BC83FF1F0D4B0E4AC31AA2FB03231B0906
:1049E0000B2B0CD80B4A127852B972B60A484FF00A
:1049F0000041026821FA03F31A43026062B670476D
:104A0000064A1278002AF0D0FFF74AB9BC83FF1F8C
:104A1000398EE338C195FF1F7087FF1FCC95FF1FAC
:104A200038B50F4D286878B143880288C118013322
:104A300093420C7A02D24380204638BDFFF7CAFF6A
:104A4000002320462B6038BD064B1B782BB103207A
:104A5000FFF7F2F828600028E6D14FF0FF3038BDAC
:104A6000E095FF1FCC95FF1F10B5094C206818B1C9
:104A700043881844007A10BD064B1B782BB10320E5
:104A8000FFF7DAF820600028F2D14FF0FF3010BDB8
:104A9000E095FF1FCC95FF1F044B054A1B689088CB
:104AA0001BB11A885B88D31A18447047E095FF1F22
:104AB0009497FF1F0B4B1B789BB110B50A4C2068D5
:104AC00048B1FFF787FF002303202360FFF7B4F806
:104AD00030B1FFF77FFF0320FFF7AEF80028F8D1D1
:104AE00010BD7047CC95FF1FE095FF1F2DE9F04FDB
:104AF000DFF8F89083B0012289F80020019169B3B2
:104B0000DFF8EC80364F019E8346D8F80000B0B342
:104B1000344D4488C4F14001B14228BF314604EB12
:104B2000010E00221FFA8EFE2A70761AA0F802E00B
:104B300000F1080251B1013C224459441BF8014BD9
:104B400002F8014F8B45F9D1B0F802E0BEF13F0FFA
:104B50000BD8254A05211170002ED6D101980023CB
:104B600089F8003003B0BDE8F08F40220280014692
:104B70000420FFF7F9F80022C8F80020E9E73A78A6
:104B80002AB3184D4AF2F9244FF0010A07E0013C1C
:104B900016D02A78A2B900F013FA3A78BAB10420F4
:104BA000FFF768F80728F2D889F800A0FFF7F2FEAF
:104BB000C8F800000028ACD10C4B013C1870E8D1BB
:104BC00001234FF0FF302B7003B0BDE8F08F0023BE
:104BD0004FF0FF3089F8003003B0BDE8F08F00BF20
:104BE000CC95FF1FDC95FF1FD495FF1FD595FF1FA8
:104BF000D895FF1F00B583B002AB012103F8010D6A
:104C00001846FFF773FF03B05DF804FB38B50E4D8F
:104C10000E4C28680123237028B14088002323709C
:104C2000C0F1400038BD0A4B1B7813B9002020703A
:104C300038BD0420FFF71EF80728F7D8FFF7AAFEB3
:104C400028600028E9D1F1E7D895FF1FD595FF1F0F
:104C5000CC95FF1FF8B5114B1B788BB1104E114D41
:104C6000346801272F7064B10F4A638800271770DA
:104C7000214623800420FFF777F8376000232B704C
:104C8000F8BDFFF787FE084B28B1014604201C70D1
:104C9000FFF76AF8F2E71F70F0E700BFCC95FF1F3F
:104CA000D895FF1FD595FF1FD495FF1F38B50E4B24
:104CB0001B7873B90D4C216861B103F0FF054B8877
:104CC0000B800420FFF750F8256038BD084B012207
:104CD0001A7038BDFFF75EFE0028F7D00146BDE828
:104CE00038400420FFF740B8D595FF1FD895FF1F27
:104CF000D495FF1F10B4EFF3108272B6437F33B91F
:104D0000017F012907D003290FD00123437702B97E
:104D100062B610BC7047124C2168A1B111494361C1
:104D20000B68836108605861EFE70F4C216881B11F
:104D30000E4943610B688361086058610C4B4FF06A
:104D400080511960E1E7074B416181612060186083
:104D5000DBE7064B4161816120601860EEE700BF30
:104D6000F895FF1FF495FF1FE895FF1FEC95FF1FB7
:104D700004ED00E010B4047F4160022CC26002D058
:104D800010BCFFF7B7BF836810BC184770B5EFF3CE
:104D9000108272B60C4C206880B10C4E002543691D
:104DA000236073B19D6102B962B645778368984705
:104DB000EFF3108272B620680028F0D102B962B613
:104DC00070BD3360EFE700BFE895FF1FEC95FF1F54
:104DD000FFF7DCBF184A30B41468002C27D00368F2
:104DE00021688B420ED2CB1A00218460C1602360FF
:104DF000E06010600223037530BC704711688B427D
:104E0000144608D3A2685B1A0360002AF6D18260B8
:104E1000C460A060EEE7D268C2608460E060C568EC
:104E2000CB1A0222A8602360027530BC70478460F0
:104E3000C4601060DEE700BFF095FF1FF8B5224E9A
:104E400034682CB32368002B3AD1204F1D4604E070
:104E50003468ECB12368002B32D1A36803B1DD6064
:104E600020693360036825751B68BB4221D1037F2D
:104E70004560022BC46020D0FFF73CFF6368002B25
:104E8000E6D023602046FFF7A5FF3468002CE1D16F
:104E9000EFF3108372B60E4A00211068116003B957
:104EA00062B628B18468FFF795FF20460028F9D143
:104EB000F8BD224600219847E0E783689847DDE780
:104EC000013B2360E4E700BFF095FF1F754D000034
:104ED0000096FF1F024A136801331360FFF7AEBF4D
:104EE000E894FF1F08B5FDF705FCFDF717FD00F07E
:104EF00067F8FAE700B5064A036812885B6883B072
:104F000001A9ADF804200222984703B05DF804FB24
:104F1000CC780000F0B507468BB0002A33D0012AC8
:104F200008BF0A2251B3212400E0F4B2B1FBF2F52C
:104F300002FB1511C8B2092900F1300198BFC8B2AF
:104F40000AA988BF3730214488BFC0B201F8240CB9
:104F5000661E2946002DE8D133B1013CE4B20AAB0C
:104F600023442D2203F8242C3B6801AA11195B6805
:104F70003846C4F1220298470BB0F0BD30228DF8BC
:104F800025202124E8E70368C9B21B6898470BB0C5
:104F9000F0BD00BFFFF78EBDFFF766BDFFF740BD58
:104FA000FFF77ABDFFF756BEFFF730BE0846114641
:104FB000FFF79CBD0846FFF71DBE00BF704700BF4E
:104FC00038B5224C237803B138BD01232370FFF795
:104FD00063FD70BB00F068F840BB00F0FBF810BB4D
:104FE00000F08EF9E0B900232370EFF30583002B66
:104FF000EAD1EFF3108172B6154B1868E0B1154C89
:105000002278CAB945691D6001232370C5B1AA6120
:1050100001B962B600254577836898472570D3E7C4
:1050200000F030FADFE700F02BFAD9E700F026FABB
:10503000D3E7FFF7C3FFCDE70029C5D162B638BD7E
:10504000054B1D600029E5D1E3E700BF0496FF1F73
:10505000F895FF1FFC95FF1FF495FF1FF0B44D1E40
:105060002E46002400E00134B0FBF2F302FB1300F3
:10507000092800F130078ABF3730F8B2C0B206F80D
:10508000010F1846002BEED10A1953704CB110785D
:1050900015F8016F28700133E01A834202F80169A4
:1050A000F5DB0846F0BC7047054A064B10781B78C4
:1050B000C0B2DBB2984238BF4030C01A704700BF60
:1050C0000C96FF1F0D96FF1FF0B4384B1A7912F0A3
:1050D000300F2CD072B6997D01F0FF0200293DD02F
:1050E00062B6334F334938780D78334E1C46C0B220
:1050F000EDB2431C402BE17928BF0023AB4202F103
:10510000FF32C9B21CBFF154184612F0FF02F0D1B1
:105110002A4B1B68C2B23A704BB1A84236BFC5F1E8
:105120004005401B40192728C4BF01221A701F499F
:10513000CA78D2B2150616D452060DD51B4B1B7970
:105140005B0609D51E4B1F491B6800220A7003B17C
:105150001A70164B3C22DA70F0BC70474022D979A5
:105160005A7462B6E3E70B791C06E5D5164B174E69
:105170001C783378E4B2DBB29C420ED0144D01E0CF
:10518000A3420AD00133402B28BF00230879E85CF2
:10519000C0B2C871087D0728F2D9DBB20349337069
:1051A0000B79180644BF7C23CB70C5E700A00640EE
:1051B0000C96FF1F0D96FF1F5096FF1F0896FF1FAE
:1051C0009496FF1F9096FF1F9896FF1F9196FF1FC2
:1051D0001096FF1F054A064B10781B78C0B2DBB251
:1051E000984238BF4030C01A704700BF0C97FF1F6D
:1051F000A196FF1FF0B4384B1A7912F0300F2CD063
:1052000072B6997D01F0FF0200293DD062B6334F9E
:10521000334938780D78334E1C46C0B2EDB2431C8A
:10522000402BE17928BF0023AB4202F1FF32C9B223
:105230001CBFF154184612F0FF02F0D12A4B1B6834
:10524000C2B23A704BB1A84236BFC5F14005401B0F
:1052500040192728C4BF01221A701F49CA78D2B248
:10526000150616D452060DD51B4B1B795B0609D5C6
:105270001E4B1F491B6800220A7003B11A70164B9F
:105280003C22DA70F0BC70474022D9795A7462B679
:10529000E3E70B791C06E5D5164B174E1C783378DF
:1052A000E4B2DBB29C420ED0144D01E0A3420AD01E
:1052B0000133282B28BF00230879E85CC0B2C871ED
:1052C000087D0728F2D9DBB2034933700B79180641
:1052D00044BF7C23CB70C5E700B006400C97FF1F8E
:1052E000A196FF1FCC96FF1F9C96FF1F1097FF1FD4
:1052F000A096FF1F1497FF1F0D97FF1FA496FF1F77
:10530000054A064B10781B78C0B2DBB2984238BF12
:105310004030C01A704700BF1C97FF1F1D97FF1F2A
:1053200030B42B4B1A7994061FD52A48DA790378C2
:10533000294901333F2B0978C8BF00238B42D2B2E1
:1053400003D0264CD9B2E2540170254A116861B1EC
:10535000244A1278D2B2934236BFC2F140029B1A5D
:105360009B18272BC4BF01230B70194AD378DBB2DB
:10537000180611D45A060DD5154B1B795B0609D5B5
:10538000194B1A491B6800220A7003B11A70104B9E
:105390002C22DA7030BC704711790906EAD514491D
:1053A00010480C780178C9B28C420DD04A1C272ACB
:1053B00084BF00210A460F4D054C98BFD1B2AA5CAC
:1053C000D2B2E2710170D5E76C21D170D2E700BF93
:1053D00000C006401C97FF1F1D97FF1F4897FF1F27
:1053E0001897FF1F8997FF1F8C97FF1F8897FF1F34
:1053F0009097FF1F2097FF1F70B584B072B6194BAE
:10540000194D1A48702241260F2480211A702E70DF
:105410001A460470197013781B06FCD5144B1868D3
:1054200062B6144B144C984298BF00EB800001A95F
:1054300098BF40000A22FFF711FE01A92046002371
:1054400011F8012B01333AB10A2B20F8022FF7D1C2
:105450001623237004B070BD5B00DBB2237004B070
:1054600070BD00BF0000024007000240060002407D
:10547000080002407F9698001088FF1F704700BF09
:10548000704700BF704700BF80F0004002E000BFDF
:1054900081F0004142001FBF5FEA410392EA030F1F
:1054A0007FEA226C7FEA236C6AD04FEA1262D2EB69
:1054B0001363C1BFD218414048404140B8BF5B426E
:1054C000192B88BF704710F0004F40F4000020F007
:1054D0007F4018BF404211F0004F41F4000121F01D
:1054E0007F4118BF494292EA030F3FD0A2F1010267
:1054F00041FA03FC10EB0C00C3F1200301FA03F1A5
:1055000000F0004302D5494260EB4000B0F5000FC7
:1055100013D3B0F1807F06D340084FEA310102F186
:105520000102FE2A51D2B1F1004F40EBC25008BF38
:1055300020F0010040EA03007047490040EB000002
:1055400010F4000FA2F10102EDD1B0FA80FCACF131
:10555000080CB2EB0C0200FA0CF0AABF00EBC25030
:1055600052421843BCBFD0401843704792F0000F1E
:1055700081F4000106BF80F400000132013BB5E771
:105580004FEA41037FEA226C18BF7FEA236C21D0E7
:1055900092EA030F04D092F0000F08BF084670474C
:1055A00090EA010F1CBF0020704712F07F4F04D11A
:1055B000400028BF40F00040704712F100723CBF2D
:1055C00000F50000704700F0004343F0FE4040F457
:1055D000000070477FEA226216BF08467FEA236315
:1055E0000146420206BF5FEA412390EA010F40F400
:1055F000800070474FF0000304E000BF10F000434C
:1056000048BF40425FEA000C08BF704743F0964332
:1056100001464FF000001CE050EA010208BF70474D
:105620004FF000030AE000BF50EA010208BF7047D4
:1056300011F0004302D5404261EB41015FEA010CE9
:1056400002BF84460146002043F0B64308BFA3F1E1
:105650008053A3F50003BCFA8CF2083AA3EBC253C3
:1056600010DB01FA02FC634400FA02FCC2F12002E2
:10567000BCF1004F20FA02F243EB020008BF20F019
:105680000100704702F1200201FA02FCC2F120027F
:1056900050EA4C0021FA02F243EB020008BF20EA74
:1056A000DC7070474FF0FF0C1CEAD0521EBF1CEAA2
:1056B000D15392EA0C0F93EA0C0F6FD01A4480EA90
:1056C000010C400218BF5FEA41211ED04FF0006379
:1056D00043EA501043EA5111A0FB01310CF00040A5
:1056E000B1F5000F3EBF490041EAD3715B0040EACB
:1056F000010062F17F02FD2A1DD8B3F1004F40EB9B
:10570000C25008BF20F00100704790F0000F0CF06D
:10571000004C08BF49024CEA502040EA51207F3A31
:10572000C2BFD2F1FF0340EAC250704740F400000C
:105730004FF00003013A5DDC12F1190FDCBF00F0FD
:1057400000407047C2F10002410021FA02F1C2F1AB
:10575000200200FA02FC5FEA310040F1000053EA47
:105760004C0308BF20EADC70704792F0000F00F095
:10577000004C02BF400010F4000F013AF9D040EA9B
:105780000C0093F0000F01F0004C02BF490011F42F
:10579000000F013BF9D041EA0C018FE70CEAD1532D
:1057A00092EA0C0F18BF93EA0C0F0AD030F0004CAD
:1057B00018BF31F0004CD8D180EA010000F0004061
:1057C000704790F0000F17BF90F0004F084691F01F
:1057D000000F91F0004F14D092EA0C0F01D1420259
:1057E0000FD193EA0C0F03D14B0218BF084608D122
:1057F00080EA010000F0004040F0FE4040F400006C
:10580000704740F0FE4040F4400070474FF0FF0CFE
:105810001CEAD0521EBF1CEAD15392EA0C0F93EA45
:105820000C0F69D0A2EB030280EA010C49024FEA97
:10583000402037D04FF0805343EA111143EA101350
:105840000CF000408B4238BF5B0042F17D024FF408
:10585000000C8B4224BF5B1A40EA0C00B3EB510FE3
:1058600024BFA3EB510340EA5C00B3EB910F24BFCC
:10587000A3EB910340EA9C00B3EBD10F24BFA3EB51
:10588000D10340EADC001B0118BF5FEA1C1CE0D119
:10589000FD2A3FF650AF8B4240EBC25008BF20F0CC
:1058A000010070470CF0004C4CEA50207F32C2BF20
:1058B000D2F1FF0340EAC250704740F400004FF0BD
:1058C0000003013A37E792F0000F00F0004C02BFEE
:1058D000400010F4000F013AF9D040EA0C0093F0B8
:1058E000000F01F0004C02BF490011F4000F013B12
:1058F000F9D041EA0C0195E70CEAD15392EA0C0F7A
:1059000008D142027FF47DAF93EA0C0F7FF470AFB1
:10591000084676E793EA0C0F04D14B023FF44CAFF4
:1059200008466EE730F0004C18BF31F0004CCAD189
:1059300030F000427FF45CAF31F000437FF43CAFC5
:105940005FE700BF4FF0FF3C06E000BF4FF0010CE7
:1059500002E000BF4FF0010C4DF804CD4FEA4002C9
:105960004FEA41037FEA226C18BF7FEA236C11D013
:1059700001B052EA530C18BF90EA010F58BFB2EBC6
:10598000030088BFC81738BF6FEAE17018BF40F046
:10599000010070477FEA226C02D15FEA402C05D1FA
:1059A0007FEA236CE4D15FEA412CE1D05DF8040B7F
:1059B000704700BF844608466146FFE70FB5FFF712
:1059C000C9FF002848BF10F1000F0FBD4DF808EDCA
:1059D000FFF7F4FF0CBF012000205DF808FB00BFBB
:1059E0004DF808EDFFF7EAFF34BF012000205DF815
:1059F00008FB00BF4DF808EDFFF7E0FF94BF012062
:105A000000205DF808FB00BF4DF808EDFFF7D2FF5E
:105A100094BF012000205DF808FB00BF4DF808EDA1
:105A2000FFF7C8FF34BF012000205DF808FB00BF6E
:105A30004FEA4002B2F1FE4F0FD34FF09E03B3EB9B
:105A400012620DD94FEA002343F0004310F0004FDB
:105A500023FA02F018BF404270474FF00000704731
:105A600012F1610F01D1420205D110F0004008BFD0
:105A70006FF0004070474FF00000704742000ED2B8
:105A8000B2F1FE4F0BD34FF09E03B3EB126209D479
:105A90004FEA002343F0004323FA02F070474FF02F
:105AA0000000704712F1610F01D1420202D14FF0A4
:105AB000FF3070474FF00000704700BF70B50F4EC9
:105AC0000F4D761BB61018BF002405D0013455F8D1
:105AD000043B9847A642F9D10A4E0B4D761B01F0C4
