:1000000000800020BD010000116B0000C96A0000E3
:10001000C96A0000C96A0000C96A0000C96A000014
:10002000C96A0000C96A0000C96A0000116B0000BB
:10003000116B0000C96A00003D7F00004180000094
:10004000116B0000116B0000116B0000116B0000C0
:10005000116B0000116B0000116B0000116B0000B0
:10006000116B0000116B0000116B0000116B0000A0
:10007000116B0000116B0000116B0000116B000090
:10008000116B0000116B0000116B0000116B000080
:10009000116B0000116B0000116B0000116B000070
:1000A000116B0000116B0000116B0000116B000060
:1000B000116B0000116B0000116B0000116B000050
:1000C000116B0000116B0000116B0000116B000040
:1000D000116B0000116B0000116B0000116B000030
:1000E000116B0000116B0000116B0000116B000020
:1000F000116B0000CD820000116B0000F98300003D
:10010000116B000025850000116B0000116B0000D1
:10011000116B0000116B0000116B0000116B0000EF
:10012000116B0000116B0000116B0000116B0000DF
:10013000116B0000116B0000116B0000116B0000CF
:10014000116B0000116B0000116B0000116B0000BF
:10015000116B0000116B0000116B0000116B0000AF
:10016000116B0000596F0000116B0000116B000053
:10017000116B0000116B0000116B0000116B00008F
:10018000116B0000116B0000116B0000116B00007F
:10019000116B0000116B0000116B0000116B00006F
:1001A000116B0000116B0000116B0000116B00005F
:1001B000116B0000116B0000116B0000564B4CF2EC
:1001C000205210B51A804DF628121A8000BF00BFC9
:1001D00006F0A2FC514B4FF010621A60504A9A6030
:1001E000504ADA60504A136813F4807304D14F49BF
:1001F0000B604FF4A85313604D4B1A78110703D5C9
:100200001A7842F008021A704A4B4B492A221A7097
:100210004A4A4B4B8B4204D252F8040F43F8040B6A
:10022000F8E7484B484900228B4202D243F8042B9E
:10023000FAE74649464A002352F8230041F82300D2
:1002400001336F2BF8D1434B434A802103F8011B44
:100250009342FBD1414B3D4A1A60414B8A221A70AE
:10026000A3F5805324225A70A0221A709A7992071B
:10027000FCD59A79D406FCD43A4A937903F00C035E
:10028000082B384BF9D103221A7140225A719A79FE
:100290009006FCD5334A9179324B4906FBD5324A58
:1002A000324911600221516020221A709A7902F0BD
:1002B0000C020C2AFAD12E4B2E4A1A602E4B2F4AD2
:1002C0001A6000225A60072243F8042C2C4AC3F813
:1002D0000C2D62B606F0F6FC144B1B68DA0705D548
:1002E000284806F067FC284B284A1A60284B1B78E0
:1002F0005B0609D5244C254B22689A4204D121483B
:1003000006F058FC0023236008F0DAFC06F00AFC33
:1003100007F09EFEFEE700BF0E200540308004403F
:10032000823F04000100002B10D0034014D0034092
:1003300002D0074000E00740348CFF1FC8B7000020
:100340002087FF1F348CFF1F0CA0FF1F0082FF1FA0
:100350000000000000E400E05FE400E008ED00E0E1
:100360000050064000400640448004400000030165
:1003700004800440C010050014E000E0FF76010096
:1003800000002020894A2F5E1CE00340A5C3945A38
:1003900000F00740FFFFFFFFFFFFFFFFFFFFFFFF32
:1003A000FFFFFFFFFFFFFFFFFFFFFFFFFFFFFFFF5D
:1003B000FFFFFFFFFFFFFFFFFFFFFFFFFFFFFFFF4D
:1003C000FFFFFFFFFFFFFFFFFFFFFFFFFFFFFFFF3D
:1003D000FFFFFFFFFFFFFFFFFFFFFFFFFFFFFFFF2D
:1003E000FFFFFFFFFFFFFFFFFFFFFFFFFFFFFFFF1D
:1003F000FFFFFFFFFFFFFFFFFFFFFFFFFFFFFFFF0D
:10040000FFFFFFFFFFFFFFFFFFFFFFFFDEF9FFFF23
:1004100010B5054C237833B9044B13B10448AFF33E
:1004200000800123237010BD348CFF1F00000000EA
:10043000CCB70000084B10B51BB108490848AFF312
:1004400000800848036803B910BD074B002BFBD0A0
:10045000BDE81040184700BF00000000388CFF1FA7
:10046000CCB70000348CFF1F0000000040697047CB
:10047000002070474268017B13780B43137070476C
:100480004268017B137823EA01031370704700BFB1
:1004900010B5012104460E2006F09EFB0720012125
:1004A00006F09AFBA06958B10368074A5B6893425B
:1004B00007D14268017B137823EA0103137010BD52
:1004C00010BDBDE81040184781040000F0B58BB0A6
:1004D000002305688DF804308DF805308DF806305E
:1004E0002E68374A8DF8083096428DF809308DF81D
:1004F0000A305FD1827C04910446012A01A805914B
:100500008DF81E308DF81F308DF82030039015D0F7
:100510008DF81D308DF81C308DF81B308DF81A3099
:100520008DF819308DF818300023AA698DF8213024
:100530002046099303A990470BB0F0BD214A1378D8
:10054000013303F0070313F0010F14BF80210021D2
:1005500013709A0744BF41F04001C9B25B0748BF1E
:1005600041F0200110310022C9B20DF11B030DF141
:100570001E074FF4807EAAB19EFBF2F2D2B2501C4D
:10058000C0B200FB01152D121870EEB205B1013E8C
:1005900003F8036C00B11A7001339F4208D0DA7877
:1005A000002AE9D11A7003F8032C01339F42F6D1D7
:1005B0002568B9E70A4602AB01A9B0470BB0F0BD08
:1005C000C9050000508CFF1FF0B5857C1C785E7853
:1005D0009B7889B0012D0191029203928DF816400B
:1005E0008DF817608DF8183016D000238DF815306F
:1005F0008DF814308DF813308DF812308DF81130DD
:100600008DF810300268002392698DF81930079335
:1006100001A9904709B0F0BD1B4A1378013303F0DC
:10062000070313F0010F137014BF802200229907F3
:1006300044BF42F04002D2B25B0748BF42F0200202
:100640001032D2B20DF113030DF116074FF4807E74
:10065000ACB19EFBF4F4E4B2611CC9B201FB02250B
:100660002D121970EEB205B1013E03F8036C01B111
:100670001C700133BB42C5D0DC78002CE9D11C7062
:1006800003F8034CF5E700BF508CFF1FF0B5857CE5
:100690001C785E789B7889B0012D019102920392BB
:1006A0008DF816408DF817608DF8183017D000239C
:1006B0008DF815308DF814308DF813308DF8123018
:1006C0008DF811308DF810300368002203219B69EA
:1006D0008DF81910079201A9984709B0F0BD1B4A7F
:1006E0001378013303F0070313F0010F137014BFE5
:1006F00080220022990744BF42F04002D2B25B0739
:1007000048BF42F020021032D2B20DF113030DF1B6
:1007100016074FF4807EACB19EFBF4F4E4B2611C8A
:10072000C9B201FB02252D121970EEB205B1013ECE
:1007300003F8036C01B11C700133BB42C4D0DC78F8
:10074000002CE9D11C7003F8034CF5E7508CFF1F17
:1007500070B5044608460D4608F052FB2368024671
:10076000294620465B68BDE87040184738B5044606
:1007700008460D4608F044FB2368024629465B689C
:10078000204698470546204607F06AFC284438BDB5
:1007900038B50A220023054607F072FC04462846B5
:1007A00007F05EFC204438BD484B1B78002B00F05E
:1007B0008B802DE9F04F9BB000F2F7130A930023D2
:1007C000434A0793DFF80C91099000F22623089220
:1007D0000B93002759F82730DBB20137FF2BBFB24C
:1007E000F8D1D9F8003006974FF0FF32C3F3074A2B
:1007F0000592C3F3072B4FEA13680024D64659F835
:10080000045FC5F307464FEA241CC5F30727ECB283
:10081000F1B2C5F307650391E9B204915FFA8CF177
:10082000029106990F290DAA0EA84FEA14135FFA38
:1008300087FA0CD805998C4507DC0F2905D00131C2
:10084000C9B28B42029138BF0B4659B205910CA92F
:10085000009102998DF834B08DF835E08DF836802E
:100860008DF830708DF831608DF8325005F04EFA09
:10087000FF2CD346DDF80CE0DDF81080BFD10A9BD9
:100880000EAA934218D0099B0B9C03F5FB7301E061
:10089000A34211D012F8011B13F8010F8842F7D0C0
:1008A0000A4B079A1B7801329342079209DD089B95
:1008B00053F8049F08938CE7099B9DF81C2083F84C
:1008C00028221BB0BDE8F08F704700BF4487FF1F90
:1008D000389B00005C9D00002DE9F04F8BB0002795
:1008E0009621BE488DF8247009AA8DF825708DF8E0
:1008F000267005F0DBF9B94BB94983F8C67151F898
:100900002730B74ADBB20137FF2BBFB2F7D11368EC
:100910000797C3F30749C3F3072B4FEA13684FF058
:10092000FF33CE4606930024914659F8045FAD4844
:10093000C5F30727C5F30746F9B24FEA241C049113
:10094000F1B205915FFA8CF103910799ECB20F298E
:10095000C5F3076509AA4FEA14135FFA85FA0CD8A4
:1009600006998C4507DC0F2905D00131C9B28B42AD
:10097000039138BF0B4659B2069108A9009103991B
:100980008DF824B08DF825E08DF826808DF8207044
:100990008DF821608DF8225005F0B8F9FF2CDDF8B4
:1009A00010B0DDF814E0D046BFD18F49002751F8D0
:1009B00027308D4ADBB20137FF2BBFB2F7D1136866
:1009C00007974FEA1368C3F3072BC3F307494FF0A8
:1009D000FF33C64606930024904658F8045F7F4BC9
:1009E000C5F30727C5F30746F9B24FEA241C049163
:1009F000F1B205915FFA8CF103910799ECB20F29DE
:100A0000C5F3076503F2F71009AA4FEA14135FFA5A
:100A100085FA0CD806998C4507DC0F2905D00131E1
:100A2000C9B28B42039138BF0B4659B2069108A94F
:100A3000009103998DF824B08DF825908DF826E06B
:100A40008DF820708DF821608DF8225005F05EF948
:100A5000FF2CDDF810B0DDF81490D646BDD15F480C
:100A6000FFF7A2FE614B624A18785C4B83F82B02B9
:100A7000002312F8011F8142DCB203F1010300F0F0
:100A8000E580152BF5D15B4C00279621204609AA5D
:100A90008DF824708DF825708DF8267005F006F914
:100AA0000123554984F8C63151F82730524ADBB248
:100AB0000137FF2BBFB2F7D1136807974FEA1368CE
:100AC000C3F3072BC3F307494FF0FF33C646069322
:100AD0000024904658F8045F4848C5F30727C5F33B
:100AE0000746F9B24FEA241C0491F1B205915FFA6E
:100AF0008CF103910799ECB20F29C5F3076509AA98
:100B00004FEA14135FFA85FA0CD806998C4507DC76
:100B10000F2905D00131C9B28B42039138BF0B4672
:100B200059B2069108A9009103998DF824B08DF867
:100B300025908DF826E08DF820708DF821608DF8D5
:100B4000225005F0E3F8FF2CDDF810B0DDF814902A
:100B5000D646BFD12A49002751F82730284ADBB2B0
:100B60000137FF2BBFB2F7D1136807974FEA13681D
:100B7000C3F3072BC3F307494FF0FF33C646069371
:100B80000024904658F8045F1A4BC5F30727C5F3B5
:100B90000746F9B24FEA241C0491F1B205915FFABD
:100BA0008CF103910799ECB20F29C5F3076503F2A5
:100BB000F71009AA4FEA14135FFA85FA22D80699AA
:100BC0008C4507DC0F2905D00131C9B28B42039156
:100BD00038BF0B4659B2069114E000BFF893FF1FCF
:100BE000C89C0000BF95FF1FA8AC00003A87FF1FFC
:100BF0002387FF1F808CFF1F08AA0000478EFF1F5E
:100C000004AB000008A9009103998DF824B08DF879
:100C100025908DF826E08DF820708DF821608DF8F4
:100C2000225005F073F8FF2CDDF810B0DDF81490B9
:100C3000D646A7D1074A084B104693F82A3282F8C5
:100C40002A32FFF7B1FD0BB0BDE8F08F024B83F8FD
:100C50002A4218E7808CFF1FF893FF1F2DE9F04F01
:100C6000DFF890B0DFF890A01D4C1E4F85B05D46B8
:100C70000BF5E1785646324629463B78DFF864901A
:100C800003A8033505F004F99DF80C109DF80D201C
:100C90009DF80E302170A8456270A37006F103061E
:100CA00004F10304E7D1104E3368DB0740F11282F0
:100CB0000E4D0F4C2B68039394E80600039B5B1AC0
:100CC00093421BD33B782A6802920133029A226036
:100CD000DBB23B70FF2B15D005B0BDE8F08F00BF35
:100CE0000C9BFF1F768CFF1FE893FF1F489DFF1F83
:100CF000B093FF1FF893FF1F808CFF1F99F80030FF
:100D0000FF2BE9D1E24CE34800236A469621237089
:100D10008DF800308DF801308DF8023004F0C6FFF8
:100D2000DD4BDE4A03F5E17512F8034C12F8020CB4
:100D300012F8011C03F8034C03F8020C03F8011C21
:100D400003339D4202F10302EED19AF8C2019AF8F0
:100D5000C3119AF8C421D24B8BF8C2018BF8C3118E
:100D60009AF8C5019AF8C6118BF8C421CD4A8BF8C0
:100D7000C5018BF8C61103F130001C685968146076
:100D80009C685160D968D16010338342946002F14D
:100D90001002F2D1C44BC54A03F130011C685868F7
:100DA00014609C685060D868D06010338B429460A7
:100DB00002F11002F2D19AF827229AF828329AF812
:100DC00029429AF82A029AF82B128BF827229AF8CD
:100DD0002C228BF828328BF829429AF82D329AF877
:100DE0002E428BF82A028BF82B129AF82F029AF8CF
:100DF00030128BF82C229AF831228BF82D328BF896
:100E00002E429AF832329AF833428BF82F028BF83E
:100E100030129AF834029AF835128BF831229AF887
:100E200036228BF832328BF833428BF835128BF83E
:100E300036228BF834029AF837029AF838429AF838
:100E400039129B4B8BF838428BF839129AF83A4298
:100E50009AF83B128BF83A428BF83B129AF83C42D4
:100E60009AF83D12934A8BF837028BF83C4203F113
:100E70004B008BF83D1212F8011F03F8011B83424F
:100E8000F9D18D4903F14B0011F8012F03F8012B23
:100E90008342804AF8D19AF8D4329AF8D5529AF817
:100EA000D6429AF8D7029AF8D81282F8D4329AF831
:100EB000D93282F8D55282F8D642BAF8DA52BAF864
:100EC000DC4282F8D70282F8D812BAF8DE029AF829
:100ED000E01282F8D9329AF8E132A2F8DA52A2F896
:100EE000DC429AF8E2529AF8E342A2F8DE0282F873
:100EF000E0129AF8E4029AF8E51282F8E132BAF8C0
:100F0000E63282F8E25282F8E34282F8E40282F8A2
:100F1000E512A2F8E632BAF8E832A2F8E832BAF8F6
:100F2000EA52BAF8EC42BAF8EE02BAF8F012BAF89D
:100F3000F232A2F8EA52A2F8EC42BAF8F452BAF845
:100F4000F642A2F8EE02A2F8F012BAF8F802BAF8E5
:100F5000FA12A2F8F2329AF8FC32A2F8F452A2F88D
:100F6000F642A2F8F8029AF8FE429AF8FF02A2F8B6
:100F7000FA1282F8FC329AF800139AF801339AF8C0
:100F8000FD5282F8FE4282F8FF0282F8001382F8D6
:100F9000013382F8FD529AF802539AF803439AF803
:100FA00004039AF8053382F8025382F803439AF84F
:100FB00006539AF8074382F8040382F805339AF837
:100FC00008039AF8093382F8065382F8074382F837
:100FD000080382F809339AF80A539AF81133DAF8B9
:100FE0000C439AF81003354982F8113382F80A53FA
:100FF000C2F80C4382F8100302F5457302F2044272
:1010000051F8040F43F8040B9342F9D12C4A03F131
:10101000F00052F8041F43F8041B8342F9D1294A17
:1010200003F13C0012F8011F03F8011B8342F9D1C0
:10103000254A03F1F00052F8041F43F8041B8342D1
:10104000F9D1224A03F1F00052F8041F43F8041BBF
:101050008342104CF8D19AF810179AF811679AF851
:10106000123784F8101700256A46194884F811676A
:10107000962184F812378DF800508DF801508DF8C4
:10108000025004F013FE84F8C65105B0BDE8F08F9D
:10109000A493FF1FF893FF1FFB93FF1F838CFF1F79
:1010A000478EFF1FBF95FF1F778EFF1FEF95FF1F16
:1010B0003696FF1FBD8EFF1F088FFF1F908FFF1FEB
:1010C0008090FF1F7391FF1FAC91FF1F9C92FF1F29
:1010D000808CFF1F304605F027FD0D4D58B90D4C93
:1010E0002B68039394E80600039B5B1A9342BFF4BA
:1010F000E9AD3B78EEE5084B2A681B78054C019278
:10110000019A22609B003046636005F013FDE7E71B
:10111000489DFF1FB093FF1FEE93FF1F10B50121E5
:101120000446944806F098FD214600230A2292487E
:1011300006F0A6FF0221914806F08EFD5C2C00F21D
:101140008182DFE814F07A02750270026B02660297
:1011500061025C02570252024D02480243023E0203
:10116000390234022F022A02250220021B02160233
:1011700011020C0207020202FD01F801F301EE0167
:10118000E901E401DF01DA01D501D001CB01C6019B
:10119000C101BC01B701B201AD01A801A3019E01CB
:1011A000990194018F018A01850180017B017601FB
:1011B00071016C01670111010C0107010201FD00C1
:1011C000F800F300EE00E900E400DF00DA00D500EB
:1011D000D000CB00C600C100BC00B700B200AD001B
:1011E000A800A3009E00990094008F008A0085004B
:1011F00080007B00760071006C00670062005D007B
:101200005F495D48FFF7B2FA10BD5E495A48FFF7E3
:10121000ADFA10BD5C495848FFF7A8FA10BD5B490C
:101220005548FFF7A3FA10BD59495348FFF79EFAF6
:1012300010BD58495048FFF799FA10BD56494E481D
:10124000FFF794FA10BD55494B48FFF78FFA10BDD0
:1012500053494948FFF78AFA10BD52494648FFF7FB
:1012600085FA10BD50494448FFF780FA10BD4F4938
:101270004148FFF77BFA10BD4D493F48FFF776FA2A
:1012800010BD4C493C48FFF771FA10BD4A493A4835
:10129000FFF76CFA10BD49493748FFF767FA10BDF0
:1012A00047493548FFF762FA10BD46493248FFF713
:1012B0005DFA10BD44493048FFF758FA10BD434964
:1012C0002D48FFF753FA10BD41492B48FFF74EFA5E
:1012D00010BD40492848FFF749FA10BD3E4926484D
:1012E000FFF744FA10BD3D492348FFF73FFA10BD10
:1012F0003B492148FFF73AFA10BD3A491E48FFF72B
:1013000035FA10BD38491C48FFF730FA10BD37498F
:101310001948FFF72BFA10BD35491748FFF726FA91
:1013200010BD34491448FFF721FA10BD3249124864
:10133000FFF71CFA10BD31490F48FFF717FA10BD2F
:101340002F490D48FFF712FA10BD2E490A48FFF742
:101350000DFA10BD2C490848FFF708FA10BD2B49BB
:101360000548FFF703FA10BD29490348FFF7FEF9C6
:1013700010BD00BFC89D00005087FF1FCC9D00001E
:1013800060A3000054A3000044A3000034A30000A5
:1013900020A3000008A30000F0A20000E0A20000CB
:1013A000C8A20000BCA20000B0A2000098A20000E9
:1013B0008CA2000080A2000074A2000068A20000BD
:1013C00058A200004CA2000038A200002CA200008D
:1013D0001CA2000010A2000004A20000FCA100005A
:1013E000E8A10000D8A10000C4A10000B8A100003D
:1013F000ACA10000A0A1000090A100007CA1000011
:1014000070A1000060A1000054A1000044A10000F0
:1014100038A100008E498F48FFF7A8F910BD8E490A
:101420008C48FFF7A3F910BD8C498A48FFF79EF955
:1014300010BD8B498748FFF799F910BD8949854848
:10144000FFF794F910BD88498248FFF78FF910BD66
:1014500086498048FFF78AF910BD85497D48FFF726
:1014600085F910BD83497B48FFF780F910BD82499B
:101470007848FFF77BF910BD80497648FFF776F989
:1014800010BD7F497348FFF771F910BD7D49714860
:10149000FFF76CF910BD7C496E48FFF767F910BD86
:1014A0007A496C48FFF762F910BD79496948FFF73E
:1014B0005DF910BD77496748FFF758F910BD7649C7
:1014C0006448FFF753F910BD74496248FFF74EF9BD
:1014D00010BD73495F48FFF749F910BD71495D4878
:1014E000FFF744F910BD70495A48FFF73FF910BDA6
:1014F0006E495848FFF73AF910BD6D495548FFF756
:1015000035F910BD6B495348FFF730F910BD6A49F2
:101510005048FFF72BF910BD68494E48FFF726F9F0
:1015200010BD67494B48FFF721F910BD654949488F
:10153000FFF71CF910BD64494648FFF717F910BDC5
:1015400062494448FFF712F910BD61494148FFF76D
:101550000DF910BD5F493F48FFF708F910BD5E491E
:101560003C48FFF703F910BD5C493A48FFF7FEF825
:1015700010BD5B493748FFF7F9F810BD59493548A8
:10158000FFF7F4F810BD58493248FFF7EFF810BDE7
:1015900056493048FFF7EAF810BD55492D48FFF786
:1015A000E5F810BD53492B48FFF7E0F810BD52494C
:1015B0002848FFF7DBF810BD50492648FFF7D6F85A
:1015C00010BD4F492348FFF7D1F810BD4D492148C0
:1015D000FFF7CCF810BD4C491E48FFF7C7F810BD07
:1015E0004A491C48FFF7C2F810BD49491948FFF79E
:1015F000BDF810BD47491748FFF7B8F810BD464978
:101600001448FFF7B3F810BD44491248FFF7AEF88D
:1016100010BD43490F48FFF7A9F810BD41490D48D7
:10162000FFF7A4F810BD40490A48FFF79FF810BD26
:101630003E490848FFF79AF810BD3D490548FFF7B5
:1016400095F810BD3B490348FFF790F810BD00BF67
:1016500024A100005087FF1F14A1000008A1000072
:10166000FCA00000F0A00000DCA00000D0A0000062
:10167000C4A00000B8A00000A0A0000098A0000036
:1016800030A100008CA0000080A000006CA0000031
:1016900058A0000048A000003CA0000030A00000BE
:1016A00024A0000018A000000CA0000000A0000072
:1016B000F49F0000E89F0000DC9F0000D09F000026
:1016C000C49F0000B49F0000A09F0000849F000002
:1016D0006C9F0000509F0000409F0000309F000062
:1016E0001C9F00000C9F0000049F0000FC9E000057
:1016F000E49E0000D49E0000CC9E0000BC9E000032
:10170000AC9E00009C9E0000889E0000749E00001D
:10171000609E0000489E0000309E0000209E000059
:101720000C9E0000F89D0000E89D0000DC9D00007C
:10173000D09D000078A3000010B500210446B448F5
:1017400006F08AFAB34806F08BFC3221B24806F064
:1017500083FAB04806F084FC1221B04806F07CFA07
:1017600094F8C631002B00F08C80012B00F08482AD
:10177000022B00F086821221A94806F06DFA0023A0
:101780000A2294F8C211A34806F07AFCA14806F098
:1017900067FC1221A34806F05FFA00230A2294F89E
:1017A000C3119C4806F06CFC9A4806F059FC1221C3
:1017B0009D4806F051FA94F82912964806F0A0FCCC
:1017C000944806F04DFC94F82932002B54D1122194
:1017D000964806F041FA94F8C4118E4806F090FC41
:1017E0008C4806F03DFC1221914806F035FA94F839
:1017F000C511884806F084FC864806F031FC1221A9
:101800008C4806F029FA00230A2294F82A1281480B
:1018100006F036FC7F4806F023FC1221864806F0CD
:101820001BFA94F82D127B4806F06AFC794806F002
:1018300017FC1921814806F00FFA764806F010FCD3
:1018400094F82C32142B00F20A82DFE813F06600C1
:101850000802080208020802BC000802080221016E
:1018600008020802080208020802080203025E01D8
:1018700063017101BE01220094F82802FFF74EFCBB
:10188000A5E707216E4806F0E7F9624806F0E8FB95
:1018900071E76C495F48FEF769FF6B495D48FEF7E9
:1018A00057FFB4F8FA125B4806F02AFC594806F0D4
:1018B000D7FB66495748FEF74BFF94F81217554877
:1018C000FEF766FF62495348FEF742FF94F8301274
:1018D0005048FEF75DFF5F494E48FEF739FF94F828
:1018E00032124C48FEF754FF5B494A48FEF730FF7E
:1018F00094F831124748FEF74BFF19214F4806F084
:10190000ABF9444806F0ACFB0021414806F0A4F9CD
:101910004048BDE8104006F0A3BB50493D48FEF7E3
:1019200025FF4F493B48FEF713FF94F82E12394824
:10193000FEF72EFF4B493748FEF70AFF94F82F12A7
:101940003448FEF725FF48493248FEF701FF94F876
:1019500030123048FEF71CFF44492E48FEF7F8FECF
:1019600094F831122B48FEF713FF41492948FEF73E
:10197000EFFE94F832122748FEF70AFF3D4925484A
:10198000FEF7E6FE94F83312224806F0B9FB214830
:1019900006F066FB38491F48FEF7DAFE94F8341269
:1019A0001C4806F0ADFB1B4806F05AFB33491948AA
:1019B000FEF7CEFE94F83512164806F0A1FB154846
:1019C00006F04EFB99E794F83932002B40F05E8127
:1019D0002B491048FEF7CAFE0B212A4806F03CF9B5
:1019E00094F838120B48FEF7D3FE27490948FEF752
:1019F000AFFE94F837120748FEF7CAFE23490548A0
:101A0000FEF7A6FE94F836120248FEF7C1FE74E710
:101A100054A800005087FF1F90A30000C4A300003B
:101A2000F0A3000004A4000018A400002CA40000EF
:101A300040A4000054A4000068A400007CA400009E
:101A4000D8A3000068A7000080A7000094A70000AA
:101A5000A8A70000BCA70000D0A7000098A4000021
:101A6000B0A40000C0A40000D0A40000E0A40000C6
:101A7000F0A4000000A5000010A5000020A50000B3
:101A800030A5000060A500006CA500001CA70000A8
:101A900094F82B328E480D2B0CBF8E498E49FEF7E1
:101AA00057FE94F8D732002B40F00D8194F8D632CF
:101AB000002B40F0038189498548FEF757FE88498D
:101AC0008348FEF745FE94F83A128148FEF760FE1F
:101AD00084497F48FEF73CFE94F83C127C48FEF7B0
:101AE00057FE94F8D632002B00F0D58094F82B32B4
:101AF0000D2B7FF402AF7C497548FEF729FE94F860
:101B0000D9127348FEF744FEF7E678497048FEF7AD
:101B10002DFEF2E676496E48FEF728FE75496C48C0
:101B2000FEF716FE94F8FC126948FEF731FEE4E673
:101B300071496748FEF71AFE70496548FEF708FECE
:101B400094F8FD126248FEF723FE6D496048FEF7E7
:101B5000FFFD94F8FE125E48FEF71AFE69495C48E4
:101B6000FEF7F6FD94F8FF125948FEF711FE66499C
:101B70005748FEF7EDFD94F800135548FEF708FEB0
:101B800062495348FEF7E4FD94F806135048FEF707
:101B9000FFFD5F494E48FEF7DBFD94F801134C480A
:101BA000FEF7F6FD5B494A48FEF7D2FD94F80213B2
:101BB0004748FEF7EDFD58494548FEF7C9FD94F842
:101BC00003134348FEF7E4FD97E654494048FEF707
:101BD000CDFD53493E48FEF7BBFD94F807133C4842
:101BE000FEF7D6FD4F493A48FEF7B2FD94F80A33A6
:101BF000012B0AD005D3022B0BD14B493448FEF7F9
:101C0000B5FD4A493248FEF7B1FD49493048FEF773
:101C1000ADFD48492E48FEF79BFD94F811132C4862
:101C2000FEF7B6FD44492A48FEF792FD94F81017D6
:101C30002748FEF7ADFD41492548FEF789FDD4F858
:101C40000C13234800230A2206F01AFA204806F053
:101C500007FA52E63A491E48FEF788FD4DE6394933
:101C60001B48FEF783FD38491948FEF77FFD3549CB
:101C70001748FEF77BFD40E634491548FEF776FD30
:101C800079E533491248FEF771FD74E53149104892
:101C9000FEF76CFDA0E630490D48FEF759FD94F8BB
:101CA0003B120B48FEF774FD2C490948FEF750FD26
:101CB00094F83D120648FEF76BFD17E728490448E3
:101CC000FEF746FDF7E627490148FEF741FDEDE640
:101CD0005087FF1F78A5000084A5000090A4000095
:101CE000A0A50000B0A50000E0A5000004A600002B
:101CF00014A6000028A60000D4A60000E8A6000054
:101D0000F8A6000008A7000018A7000028A70000F8
:101D100038A7000048A7000058A7000038A6000018
:101D20004CA6000064A6000078A6000080A6000073
:101D300088A6000094A60000A8A60000BCA600008B
:101D4000F0A5000054A80000E4A70000E0A30000F4
:101D5000E8A3000044A50000C0A50000D0A5000035
:101D600098A5000090A500002DE9F04F8DB020212E
:101D7000054609903F48404C05F06EFF3F4806F08D
:101D80006FF93F483F4A0388117803EB432203EB86
:101D9000820303F5585319339BB203EB1322D2B2DB
:101DA00012FB01F21212038054F8228085F82822D7
:101DB000002758F82730DBB20137FF2BBFB2F8D12C
:101DC000D8F80030099A08974FEA136902F2F7121F
:101DD000C3F3072BC3F3074A4FF0FF330792069371
:101DE0000024CE4658F8045F0798C5F307274FEA4A
:101DF000241CC5F30746ECB2F9B2C5F3076504919C
:101E0000E9B205915FFA8CF1039108990F290BAAA9
:101E10004FEA14135FFA86F90CD806998C4507DC53
:101E20000F2905D00131C9B28B42039138BF0B464F
:101E300059B206910AA9009103998DF82CB08DF83A
:101E40002DA08DF82EE08DF828708DF829608DF882
:101E50002A5003F05BFFFF2CDDF810B0DDF814E032
:101E6000CA46BFD1099B93F82802FFF757F90DB076
:101E7000BDE8F08FFCA70000389B00005087FF1FD3
:101E80004687FF1F4487FF1F2DE9F04F90F82D3242
:101E900091B00446002B00F0F38090F8333290F8B4
:101EA000312213B1002384F82E329621204603F00C
:101EB000BFFF94F8341294F8357294F82F32002949
:101EC00040F07881002F00F0B882002B00F088836A
:101ED000C44894F82E22DFF81493DFF8148302909C
:101EE00004F1E1050F460DF13C0A04F2C71B03950E
:101EF0005EE094F830123B440B44D9F80010049192
:101F0000FF2B049998BF1B024FF48C7098BF9BB2B3
:101F100000FB01F103FB01F31B0C5E04C3F3CA01D8
:101F200003D5C1F5FF61073189B2029D080AC1F3EB
:101F3000460118F8006035F8100006FB01011D0489
:101F400089B248BF49420EB294F8271294F8C231C0
:101F500000915046594603F0CBFFA6F50043962268
:101F60009BB202FB03F31B0C03EB4303E118E25C9F
:101F70009DF83C0082FA50F2E2549DF83D304A78D8
:101F800082FA53F24A708B789DF83E2083FA52F31E
:101F90008B7094F82E1294F8322294F82F32013775
:101FA0000A44FFB2D2B2BB4284F82E2240F2188318
:101FB00094F8C41100299CD194F830123B440B448E
:101FC000D9F800100591FF2B059998BF1B024FF41B
:101FD0008C7000FB01F198BF9BB203FB01F31B0C5B
:101FE0005804C3F3CA0103D5C1F5FF61073189B2B3
:101FF000080A029D18F8006035F81000C1F3460188
:1020000006FB01011B0489B248BF49420EB294F895
:10201000271294F8C23100915046594603F068FFE8
:10202000A6F500439BB203EB8303C3EB03131B0C26
:1020300003EB4303E118E25C9DF83C0082FA50F2A6
:10204000E2549DF83D304A7882FA53F24A708B7818
:102050009DF83E2083FA52F3039D8B70224623465F
:10206000197882F8BF11597882F8C011997882F8EE
:10207000C11103339D42A2F10302F1D1039588E718
:10208000594D80F82C322B8803EB432103EB81015F
:1020900001F55851193189B201EB412001EB800063
:1020A00000F55850193080B200EB402300EB830359
:1020B00003F55853193303EB432203EB820202F575
:1020C0005852193292B202EB422602EB860606F50E
:1020D00058561936B6B206EB462306EB830303F5D2
:1020E000585319339BB203EB432E03EB8E0E0EF5C0
:1020F000585E0EF1190E1FFA8EFE0EEB4E270EEBF8
:10210000870707F558571937BFB207EB472803EB86
:10211000132302EB122C07EB8808DBB206EB162622
:1021200003EB830308F558585FFA8CFCF2B208F110
:1021300019080CEB4C0C03EB83031FFA88F602EB37
:1021400042029B110EEB1E2E01EB11214FEAEC18FF
:1021500000EB10204FEAA21CA3F17402CEF342134D
:10216000C1F3C01E08F10101C0F3C01907EB172726
:102170000CF1080084F82F1206EB162103F1010C74
:10218000D2B2C7F3C013C1F3C01184F830020120EA
:1021900084F834E284F8359284F8312284F832C22B
:1021A0002E8084F8C41184F8333284F82D0284F828
:1021B000290276E6002F00F0A680002B00F01082A6
:1021C000084B94F82E22DFF82490DFF82480029345
:1021D00004F1E10500270DF13C0A04F2C71B039549
:1021E0006DE000BF649400004687FF1F489DFF1FFD
:1021F000E49C000094F8C431002B00F0C682D9F8AA
:1022000000300893089994F830324FF4FA7000FBCC
:1022100017111B024FF48C7000FB03F303FB01F357
:10222000C3F30E4303F580435D04C3F3CA0103D532
:10223000C1F5FF61073189B2029D080AC1F3460169
:1022400018F8006035F8100006FB01061D04B6B250
:1022500094F8271294F8C231009148BF764259464B
:10226000504636B203F044FEA6F500439AB29623D8
:1022700003FB02F31B0C03EB4303E118E25C9DF844
:102280003C0082FA50F2E2544A789DF83D3082FADE
:1022900053F24A708B789DF83E2083FA52F38B708C
:1022A00094F82E2294F8323294F82F1201371A44FF
:1022B000FFB2D2B2B94284F82E2240F2918194F852
:1022C000C531002B96D194F8C431002B00F09281D7
:1022D000D9F800300A930A9994F830324FF4FA7022
:1022E00000FB17111B024FF48C7000FB03F303FB80
:1022F00001F3C3F30E43A3F580439BB25E04C3F323
:10230000CA0199D594E7002B00F06A81B64994F888
:102310002E22DFF8D892DFF8D882029104F1E1058D
:1023200004F2C71B4FF48C7A039563E094F8C41150
:10233000002900F08F8294F830123B440B44D9F806
:1023400000100C91FF2B0C999CBF1B029BB20AFB47
:1023500001F103FB01F3C3F30E4303F580435D0476
:10236000C3F3CA0103D5C1F5FF61073189B2029DEC
:10237000080AC1F3460118F8006035F8100006FBA2
:1023800001061D04B6B294F8271294F8C2310091E8
:1023900048BF764259460BA836B203F0A9FDA6F510
:1023A000004396229BB202FB03F31B0C03EB430397
:1023B000E118E25C9DF82C0082FA50F2E2544A786F
:1023C0009DF82D3082FA53F24A708B789DF82E20BA
:1023D00083FA52F38B7094F82E1294F8322294F808
:1023E0002F3201370A44FFB2D2B2BB4284F82E2208
:1023F00040F2F68094F8C511002997D194F8C411E1
:10240000002900F05D8194F830123B440B44D9F868
:1024100000100E91FF2B0E999CBF1B029BB20AFB72
:1024200001F103FB01F3C3F30E43A3F580439BB219
:102430005E04C3F3CA019AD595E7002B00F0D08063
:10244000694B94F82E22DFF8A491DFF8A48102935F
:1024500004F1E1050DF13C0A04F2C71B03955AE0B3
:10246000D9F800300693069B94F830124FF48C7024
:10247000090200FB03F303FB01F3790301EB1343B0
:1024800099B24E04C1F3CA0303D5C3F5FF63073302
:102490009BB2029D180AC3F3460318F8006035F892
:1024A000100006FB03030D049BB248BF5B4294F887
:1024B00027121EB2504694F8C2310091594603F0DB
:1024C00017FDA6F5004396229BB202FB03F31B0CFB
:1024D00003EB4303E118E25C9DF83C0082FA50F202
:1024E000E2549DF83D304A7882FA53F24A708B7874
:1024F0009DF83E2083FA52F38B7094F82E2294F8C4
:10250000323294F82F1201371A44FFB2D2B2B942D4
:1025100084F82E2264D994F8C431002BA0D1D9F8C4
:1025200000300793079B94F830124FF48C7000FB37
:1025300003F3090203FB01F3790301EB134399B29F
:102540004804C1F3CA0303D5C3F5FF6307339BB245
:10255000180A029D18F8006035F81000C3F346030E
:1025600006FB03039BB20E0448BF5B4294F827129C
:102570001EB2504694F8C2310091594603F0B8FC9F
:10258000A6F500439BB203EB8303C3EB03131B0CC1
:1025900003EB4303E118E25C9DF83C0082FA50F241
:1025A000E2549DF83D304A7882FA53F24A708B78B3
:1025B0009DF83E2083FA52F3039D8B7022462346FA
:1025C000197882F8BF11597882F8C011997882F889
:1025D000C1110333AB42A2F10302F1D103958CE7A1
:1025E00011B0BDE8F08F00BF64940000489DFF1F4C
:1025F000E49C0000D9F800300B9394F830120B9B48
:102600004FF4FA7000FB173309024FF48C7000FB93
:1026100001F103FB01F3C3F30E43A3F580439BB227
:102620005804C3F3CA0103D5C1F5FF61073189B26C
:10263000080A029D18F8006035F81000C1F3460141
:1026400006FB01061B04B6B294F8271294F8C231B7
:10265000009148BF76425946504636B203F048FCD6
:10266000A6F500439BB203EB8303C3EB03131B0CE0
:1026700003EB4303E118E25C9DF83C0082FA50F260
:10268000E2549DF83D304A7882FA53F24A708B78D2
:102690009DF83E2083FA52F3039D8B702246234619
:1026A000197882F8BF11597882F8C011997882F8A8
:1026B000C1110333AB42A2F10302F1D10395EFE55F
:1026C00094F830123B440B44D9F800100F91FF2BC3
:1026D0000F999CBF1B029BB20AFB01F103FB01F3A4
:1026E000C3F30E43A3F580439BB25804C3F3CA015E
:1026F00003D5C1F5FF61073189B2080A029D18F8B8
:10270000006035F81000C1F3460106FB01061B040A
:10271000B6B294F8271294F8C231009148BF7642BD
:1027200059460BA836B203F0E3FBA6F500439BB273
:1027300003EB8303C3EB03131B0C03EB4303E1180D
:10274000E25C9DF82C0082FA50F2E2549DF82D30A4
:102750004A7882FA53F24A708B789DF82E2083FAD9
:1027600052F3039D8B7022462346197882F8BF11DD
:10277000597882F8C011997882F8C1110333AB42BD
:10278000A2F10302F1D1039525E6D9F800300993AF
:10279000099994F830324FF4FA7000FB17111B02BC
:1027A0004FF48C7000FB03F303FB01F3C3F30E4300
:1027B00003F580435804C3F3CA0103D5C1F5FF6193
:1027C000073189B2080A029D18F8006035F8100038
:1027D000C1F3460106FB01061B04B6B294F82712AA
:1027E00094F8C231009148BF76425946504636B2FD
:1027F00003F07EFBA6F500439BB203EB8303C3EB20
:1028000003131B0C03EB4303E118E25C9DF83C004F
:1028100082FA50F2E2549DF83D304A7882FA53F23F
:102820004A708B789DF83E2083FA52F3039D8B709B
:1028300022462346197882F8BF11597882F8C011D0
:10284000997882F8C11103339D42A2F10302F1D1BC
:10285000039525E594F830123B440B44D9F8001059
:102860000D91FF2B0D999CBF1B029BB20AFB01F13E
:1028700003FB01F3C3F30E4303F580435804C3F392
:10288000CA0103D5C1F5FF61073189B2080A029D6B
:1028900018F8006035F81000C1F3460106FB010688
:1028A0001B04B6B294F8271294F8C231009148BFC5
:1028B000764259460BA836B203F01AFBA6F5004340
:1028C0009BB203EB8303C3EB03131B0C03EB430328
:1028D000E118E25C9DF82C0082FA50F2E2549DF877
:1028E0002D304A7882FA53F24A708B789DF82E2068
:1028F00083FA52F3039D8B7022462346197882F89F
:10290000BF11597882F8C011997882F8C111033348
:10291000AB42A2F10302F1D103955CE590F82D32B0
:102920002DE9F0410446002B6BD094F8C53143BB30
:1029300094F8382294F836321A4494F83932D2B2E4
:1029400084F838224BBB94F8C431002B51D194F851
:1029500037324B21204603F0B9F9204604F1E1015A
:102960002346027883F8BF21427883F8C021827819
:1029700083F8C12103308842A3F10303F1D1BDE8FC
:10298000F08194F8383294F836229A1A94F8393251
:10299000D2B284F83822002BD5D094F837322521D2
:1029A000204603F093F904F16F05234621462246A1
:1029B000107881F8DE00507881F8DF00907881F897
:1029C000E0000332AA42A1F10301F1D104F1E101D7
:1029D0002046027883F8BF21427883F8C0218278AC
:1029E00083F8C12103308842A3F10303F1D1BDE88C
:1029F000F08194F8373220469621BDE8F04103F08B
:102A000065B9274980F829320B8803EB432203EB91
:102A1000820303F5585319339BB203EB432203EBB4
:102A2000820202F55852193292B202EB422502EBB1
:102A3000850505F558551935ADB205EB452605EB6D
:102A4000860603EB132302EB122206F55856DBB27F
:102A5000D2B21936C3EB031302EB4202B6B21B1219
:102A6000121206EB16270133013205EB1525C7F3C9
:102A7000C017C5F3C01580F8373280F8362201231D
:102A8000052280F8C47180F8C55180F82D3280F895
:102A9000393280F82C220E80FEF74EFE45E700BF4B
:102AA0004687FF1FF0B590F82B429DF814609DF803
:102AB0001CE001270D3C0825BC4280F82C5280F810
:102AC0002D729DF8185040D9002380F83A6280F8A2
:102AD0003C5280F8D61280F8D72280F8D9E280F8EC
:102AE0002932002A3FD14B2380F8D52280F8D432F6
:102AF00051BB204C238803EB432203EB820303F5F5
:102B0000585319339BB203EB432203EB820202F5C5
:102B10005852193292B203EB132302EB1221DBB2AB
:102B2000C9B203EB430301EB41010A3E0A3DC3EB8B
:102B3000C303C1EBC10106EB232305EB212180F880
:102B40003B32228080F83D12F0BD80F8297280F877
:102B50003A6280F83C5280F8D61280F8D72280F88A
:102B6000D9E2002AC2D0252380F8D43280F8D532A9
:102B7000BEE700BF4687FF1F2DE9F04790F82D32D2
:102B8000CD4D86B00446002B00F01D8294F8D4325F
:102B9000002B00F0CA8294F83C122A8801EB8101D4
:102BA0004F0003F23D2E97FBF3F70237FFB2A64426
:102BB00004F23D2602EB422102EB810202F558525B
:102BC000193292B202EB122116F8010FC9B211FBB1
:102BD00007F1A0EB112121EAE171B6453170E9D18D
:102BE00094F8D6622A80002E00F00E81A3F1030E25
:102BF000BEF1010F4FF0010C1ADD03F23A2003F58C
:102C00000F77DFF8B8922044274404F23E28017879
:102C100010F8016D01EB460189FB01A6A6EBE171FD
:102C2000804507F8011DF2D1BCF1000F00F0D38000
:102C300002EB422102EB810202F55852193292B2A4
:102C400002EB122194F83A622A80C9B28E429A4865
:102C500026D902EB422102EB810202F558521932C9
:102C600092B202EB422602EB860606F5585619365A
:102C7000B6B206EB162102EB1222C9B2D2B201EBB8
:102C80004107C2EBC20204EB2222C1EB4711091239
:102C90000680603992F83E0280FA51F082F83E02D6
:102CA000BCF1000F12D12A8894F83B62824902EBF2
:102CB000422002EB800202F55852193292B202EB26
:102CC0001220C0B286422A8000F2CD8094F8C5213D
:102CD000002A5FD1002B00F0468104F23D27904688
:102CE000B94605AE013BC8EB030505EB450519F8F0
:102CF000011F304603F0DAF89DF81430635525447F
:102D00009DF816309DF815206A70AB7094F8D43297
:102D100008F101084345E5DC94F8D7220AB394F89A
:102D2000C521002A40F0B8819046002B00F0F781C1
:102D300008EB030517F8011F304603F0B7F805EB61
:102D400045039DF81420E25423449DF815109DF886
:102D5000162059709A7094F8D43208F1010843454E
:102D6000E6DC94F8D622002A00F0AA8004F1E10102
:102D700023461A7884F8BF215A7884F8C0219A78BB
:102D800084F8C12103339942A4F10304F1D106B0C0
:102D9000BDE8F087002B00F0BF8104F23D27B94663
:102DA00025464FF0000805AE19F8011F304603F024
:102DB0007DF89DF816309DF814109DF815202970A7
:102DC0006A70AB7094F8D43208F10108434505F1FC
:102DD0000305E9DCA0E703F2852603F28727DFF885
:102DE000DC8026442744317816F8010D01EB4001C0
:102DF00088FB01900EF1FF3EA0EBE171BEF1010FE7
:102E000007F8011DEFD113E794F83D1201EB8101A2
:102E10004FEA410E9EFBF3FE0EF1020E5FFA8EFEAC
:102E200004F5227702EB422102EB810202F55852AF
:102E3000193292B202EB122117F8010FC9B211FB3D
:102E40000EF1A0EB1121013621EAE1719E423970A9
:102E5000E8DB2A80A3F1030EBEF1010F4FF0000C56
:102E60003FF7CBAEE4E602EB422002EB800202F534
:102E70005852193292B202EB422502EB850505F554
:102E80005855193502EB1222ADB2D2B205EB15201E
:102E9000C2EBC202C0B204EB222200EB4006C0EB40
:102EA000461092F889620D8001126039304680FA2E
:102EB00051F082F8890209E74687FF1F565555559C
:102EC00094F8C521002A59D0002B3FF460AF04F5D7
:102ED0002277B94625464FF0000805AE19F8011FC4
:102EE000304602F0E3FF9DF816309DF814109DF86F
:102EF000152085F8BF1185F8C02185F8C13194F8F7
:102F0000D43208F101084345A5F10305E6DC94F845
:102F1000D722002A3FF43BAF94F8C521002A00F0E5
:102F2000DA80002B3FF433AF25464FF0000817F846
:102F3000011F304602F0BAFF9DF816309DF81410BC
:102F40009DF8152085F8E11085F8E22085F8E3303A
:102F500094F8D43208F10108434505F10305E6DC95
:102F600006B0BDE8F08794F8D732002B40F0D78048
:102F7000BCF1000F7FF4FAAE94F8D432002B3FF48A
:102F800006AF04F52277B9464FF0000805AE94F875
:102F9000D55219F8011F4B35454405EB4505304620
:102FA00002F084FF9DF81430635525449DF81630D7
:102FB0009DF815206A70AB7094F8D43208F10108BE
:102FC0004345E4DCA3E72B8803EB432103EB8101BA
:102FD00001F55851193189B201EB412201EB82020E
:102FE00002F55852193292B202EB422E02EB8E0ECB
:102FF0000EF5585E0EF1190E1FFA8EFE0EEB4E26E0
:103000000EEB860606F558561936B6B206EB462381
:1030100006EB830303F5585319339BB203EB4327A5
:1030200003EB870706EB16260EEB1E2E07F5585707
:1030300003EB1323F6B25FFA8EFE1937DBB2C6EB51
:103040000616BFB2B6110EEB8E0CC3EB03130EEBDC
:103050004C0E9B1106F1320C07EB17263C334FEA5E
:103060002E2EC6F381165FFA83F85FFA8CFC0136C8
:103070000EF1140301EB112102EB1222CDF800C076
:10308000CDF804800296C1F3C011C2F3C012DBB2C6
:103090002F80FFF707FD79E5002B40D025464FF044
:1030A000000817F8011F304602F000FF9DF81630A7
:1030B0009DF814109DF8152085F8DE1085F8DF20A6
:1030C00085F8E03094F8D43208F101084345A5F1C1
:1030D0000305E6DC45E69046002B3FF458AE4B3343
:1030E000C8EB030505EB450517F8011F304602F054
:1030F000DDFE9DF81430635525449DF816309DF88B
:1031000015206A70AB7094F8D43208F10108434579
:10311000E5DC06B0BDE8F08794F8D73253B194F8F7
:10312000D632002B7FF422AE31E694F8D62242B19B
:103130002A885BE5BCF1000F7FF418AE94F8D43216
:10314000C2E62A8886E600BF2DE9F04F90F82D32BE
:10315000CD4D87B00446002B00F0D28194F8D4C244
:103160006346BCF1000F00F0348294F83C122A88C8
:1031700001EB81014F000CF23D2E97FBFCF702376B
:10318000FFB2A64404F23D2602EB422102EB81028B
:1031900002F55852193292B202EB122116F8010FC1
:1031A000C9B211FB07F1A0EB112121EAE171B6458B
:1031B0003170E9D194F8D6622A80002E00F068813F
:1031C000ACF10307012F4FF001091ADD0CF23A2090
:1031D0000CF50F76DFF8B4822044264404F23E2E2C
:1031E000017810F801AD01EB4A0188FB01BAAAEBA6
:1031F000E171864506F8011DF2D1B9F1000F00F02A
:103200002C8102EB422102EB810202F55852193265
:1032100092B202EB122094F83A622A80C0B286423F
:10322000994928D902EB422002EB800202F558525C
:10323000193292B202EB422602EB860606F5585688
:10324000193602EB1222B6B2D2B206EB1620C2EB4E
:10325000C202C0B204EB222200EB40070E80C0EB9A
:10326000471092F83E620012A0F16001304680FAE9
:1032700051F082F83E02B9F1000F12D12A8894F879
:103280003B62814902EB422002EB800202F5585278
:10329000193292B202EB1220C0B286422A8000F2AA
:1032A000AF80BCF1000F00F0998104F23D270026A9
:1032B0000DF11409C3F14B039D1905EB450517F8F2
:1032C000011F484602F0F2FD9DF814306355254475
:1032D0009DF816309DF815206A70AB7094F8D432C2
:1032E0000136B342E6DC94F8D662002E75D104F5BF
:1032F0002277002B00F078814A339D1B05EB4505B2
:1033000017F8011F484602F0D1FD9DF814306355AF
:1033100025449DF816309DF815206A70AB7094F81E
:10332000D4320136B342E7DC4B2B47D00DF1140900
:1033300004F2C71B2746264600254FF0010A94F8E1
:10334000D822CDF800A0C5EB052898FBF3F31A446A
:10335000D2B2FF235946484602F0CAFD9DF8141028
:103360009DF815209DF8163031707270B37094F886
:10337000D83294F8D42298FBF2F808EB0302D2B2C8
:10338000FF235946CDF800A0484602F0B1FD9DF854
:1033900015209DF816309DF8141087F8C02187F885
:1033A000BF1187F8C13194F8D4320135C3F14B0213
:1033B000AA4206F10306A7F10307C0DC94F8C53161
:1033C000002B40F0938094F8D83294F8D9229B1ABD
:1033D00084F8D83207B0BDE8F08F214604F1E1054A
:1033E0002246107881F8BF01507881F8C0019078AA
:1033F00081F8C10103329542A1F10301F1D193E7B4
:1034000002EB422002EB800202F55852193292B2CE
:1034100002EB422502EB850505F55855193502EBFF
:103420001222ADB2D2B205EB1520C2EBC202C0B27D
:1034300004EB222200EB4006C0EB461092F88962B2
:103440000D8001126039304680FA51F082F889020D
:10345000BCF1000F7FF429AFC4E00CF285260CF21A
:10346000872EDFF828802644A644317816F8010D0F
:1034700001EB400188FB01A0013FA0EBE171012FAE
:103480000EF8011DF1D1BCE64687FF1F5655555574
:1034900094F83D1201EB81014FEA410E9EFBFCFEC8
:1034A0000EF1020E5FFA8EFE04F5227702EB422146
:1034B00002EB810202F55852193292B202EB12214C
:1034C00017F8010FC9B211FB0EF1A0EB1121013663
:1034D00021EAE17166453970E8DB2A80ACF1030727
:1034E000012F4FF000093FF771AE8AE694F8D82219
:1034F00094F8D932134484F8D83207B0BDE8F08F7D
:103500002B8803EB432103EB810101F5585119315D
:1035100089B201EB412201EB820202F558521932C5
:1035200092B202EB422E02EB8E0E0EF5585E0EF1B9
:10353000190E1FFA8EFE0EEB4E260EEB860606F5D2
:1035400058561936B6B206EB462306EB830303F54D
:10355000585319339BB203EB432703EB870706EB62
:1035600016260EEB1E2E07F5585703EB1323F6B263
:103570005FFA8EFE1937DBB2C6EB0616BFB2B61184
:103580000EEB8E0CC3EB03130EEB4C0E9B1106F1EE
:10359000320C07EB17263C334FEA2E2EC6F381166A
:1035A0005FFA83F85FFA8CFC01360EF1140301EB2D
:1035B000112102EB1222CDF800C0CDF80480029652
:1035C000C1F3C011C2F3C012DBB22F80FFF76AFA59
:1035D000C4E594F8D6224AB12A88F1E5B9F1000F82
:1035E0007FF4FBAE0DF114090023A1E62A8875E7EC
:1035F0002DE9F04F90F82D328BB00446002B00F0EF
:10360000B381B0F8FA52D34AD34B116809910998A3
:1036100003FB00F0000C4604C0F3CA0303D5C3F556
:10362000FF6307339BB2190ACC4FDFF8388317F8D2
:1036300001E038F81160C3F346010EFB016300049A
:103640009BB248BF5B42116808911BB2A3F50043CF
:103650009BB2089E03EBC3104DF6086303FB06F60E
:10366000000C360C6030C0B2710484F8E002C6F37E
:10367000CA0303D5C3F5FF6307339BB24FEA132E8A
:10368000C3F3460117F80EC038F81E300CFB0133A7
:103690009BB2310448BF5B421BB211680791A3F58E
:1036A00000439BB2C3EB0311079E03EB01214AF2D7
:1036B000C80303FB06FE090C4FEA1E4E01F5C85174
:1036C00089B21EF4804FA4F8E612CEF3CA0303D0E9
:1036D000C3F5FF6307339BB24FEA132CC3F34606CF
:1036E00017F80C9038F81C30B4F8DEC2A4F8E8C221
:1036F00009FB06331EF4004F9BB218BF5B421668ED
:1037000006961BB2A3F500439BB24FF0260E069E11
:103710000EFB03FE47F6983303FB06F64FEA1E4EF8
:10372000360C0EF1170E1FFA8EFE16F4804F84F839
:10373000E1E2C6F3CA0303D0C3F5FF6307339BB2CC
:103740004FEA132AC3F3460317F80AB038F81A9061
:103750000BFB03991FFA89F933041368049348BFDC
:10376000C9F10009049B126805920FFA89F9A9F5BD
:103770000042B4F8DC62B4F8DAB292B240F2B14975
:103780001FFA83FA09FB02F3754ADDF81490A4F8D6
:10379000ECA2C6EB0A06B6B202FB09F91B0C03F554
:1037A00096734FEA194916FB0EBE9AB21FFA8EFEA7
:1037B00019F4804FA4F8EA22A4F8EE62A4F8DCA27F
:1037C000A4F8DAE2C9F3CA0303D0C3F5FF630733F1
:1037D0009BB24FEA132BC3F3460A17F80B3038F8A5
:1037E0001BB0A4F8F0E203FB0AB39BB219F4004F3C
:1037F00018BF5B421BB2A3F500439BB203EB8303EC
:103800001B0C05339BB206FB03C3A4F8DE32002D6C
:1038100000F08980134604F2C71A00264FF0010910
:10382000042563449BB24FEAD31C8E441FFA8EFEDC
:103830001CF4807F6FEA1322D2B24FEA132B08BF29
:103840001A0A1EF4804F84F8E2B2A4F8E832A4F811
:10385000F2C284F8E222A4F8F0E2CEF3CA0103D067
:10386000C1F5FF61073189B24FEA112CC1F346035C
:1038700017F80CB038F81C100BFB03111EF4004FA6
:1038800089B218BF494209B2A1F5004189B201FBD2
:1038900001FE4FEA1E4E0EFB00F3C2EB021CC043BA
:1038A00002EB0C1200EB1343DBB2C2F30722A4F8C5
:1038B000F412A4F8F6E284F8E4325146CDF8009010
:1038C00003A884F8E52202F013FBB4F8FA32013BB6
:1038D0009B1B9BB203EB4300A4F8F83220448022E8
:1038E00003A9013D02F0A6FA15F0FF050AD0B4F8CD
:1038F000E8C2B4F8EA32B4F8F0E2B4F8E61294F8A8
:10390000E0028EE70136B4F8FA32B6B2B3420AD911
:10391000B4F8E8C2B4F8EA32B4F8F0E2B4F8E61267
:1039200094F8E0027CE794F8C43183B904F1E10132
:1039300023461A7884F8BF215A7884F8C0219A78EF
:1039400084F8C12103339942A4F10304F1D10BB0EF
:10395000BDE8F08F489DFF1FF8740100E49C000053
:1039600080B50100649400001048038803EB4322F3
:1039700003EB820303F5585319339BB203EB132275
:103980000121C2F3C0120F25038084F8C42184F8FA
:103990002D1284F8291284F82C521AB19625A4F815
:1039A000FA5230E64B25A4F8FA522CE64687FF1F60
:1039B000F0B590F82D3285B00446002B54D090F825
:1039C000FC22444E2046962102F032FA3288B4F8A6
:1039D000FA5202EB422302EB830202F558531933E9
:1039E0009BB203EB432703EB870707F558571937BB
:1039F000BFB207EB172203FB05F301211D0C009159
:103A000003A804F2C711D2B2FF23378002F070FA84
:103A100005EB4503E118E25C9DF80C0082FA50F2D8
:103A2000E2549DF80D304A7882FA53F24A708B784E
:103A30009DF80E2083FA52F38B7094F8C4318BB941
:103A4000204604F1E1012346027883F8BF21427841
:103A500083F8C021827883F8C12103308842A3F122
:103A60000303F1D105B0F0BD1A4E338803EB4322B6
:103A700003EB820303F5585319339BB203EB432145
:103A800003EB810101F55851193189B201EB112283
:103A9000D2B202EBC20002EB400203EB1323D211BD
:103AA0000120C3F3C0130A321125318084F8C431D8
:103AB000D2B284F82D0284F8290284F82C522BB952
:103AC0004B23A4F8FA3284F8FC227BE79623A4F86F
:103AD000FA32F8E74687FF1F2DE9F04F90F82D32B4
:103AE00085B0002B00F0908090F8054390F8FD32EF
:103AF00090F8062390F8FE12B0F8FA52234490F89A
:103B0000C541DBB280F8053380F80433002C77D050
:103B10000A4480F80623002D6FD0044600F2C7192E
:103B20000546471C00264FF0FF0894F8062394F83A
:103B3000013394F8FFB294F803E38DF80EE05FFAD6
:103B400086FA03FB0A23DBB2190644BFDB43DBB270
:103B50005B00DBB25A1C02FB03F31B1203FB02F2F5
:103B6000121203EB4303A3EB42039BB2DA0554BFEB
:103B7000DBB2FF2394F802238DF80C20294603A81A
:103B80009B4534BF4FF0FF0B4FF0000B8DF80D80BD
:103B900002F0AAFB94F8043394F8FD2294F827125B
:103BA000009102FB0A32D2B25B46494603A802F0FA
:103BB0009FF917F8013C9DF80C2083FA52F307F89F
:103BC000013C6A789DF80D3082FA53F26A70AB7846
:103BD0009DF80E2083FA52F3AB7094F8041394F816
:103BE0000033B4F8FA2201360B44B24205F1030562
:103BF00007F1030784F8043397DC05B0BDE8F08FC4
:103C0000521A80F8062386E7574F3B8803EB43257B
:103C100003EB850505F558551935ADB205EB452380
:103C200005EB830303F5585319339BB203EB432190
:103C300003EB810101F55851193189B201EB41249F
:103C400001EB840404F558541934A4B204EB442C59
:103C500004EB8C0C0CF5585C0CF1190C1FFA8CFC65
:103C60000CEB4C220CEB820202F55852193292B244
:103C700002EB422602EB860606F558561936B6B216
:103C800006EB462E06EB8E0E0EF5585E0EF1190E63
:103C90001FFA8EFE0EEB4E280EEB880808F55858DA
:103CA00003EB132308F119081FFA88F8DBB204EBC1
:103CB000142408EB182903EB8303E4B202EB12226D
:103CC00005EB15251B1201EB1121C4EBC4040CEB11
:103CD0001C2CD2B206EB16265FFA89F9A7F80080F1
:103CE000C5F3C01501270133C1F38111C4F30714D3
:103CF000CCF3811C02EB8202C6F3421609EB890960
:103D00000EEB1E2E4FF0120880F8C451DBB20131C9
:103D100084F080040CF1010CC2F307220136C9F3D0
:103D2000C7195FFA8EFE80F82D7280F8297280F82C
:103D30002C82A5B94B25A0F8FA5280F8FF4280F8F2
:103D4000FD3280F8FE1280F800C380F8062380F868
:103D5000016380F802E380F803930024CEE6962501
:103D6000A0F8FA52E9E700BF4687FF1F2DE9F04FA0
:103D700090F82D328DB0002B00F0B681B0F8FA32F9
:103D80000193D4490B680B930B9C45F6287303FBF6
:103D900004F4240C6504C4F3CA0303D5C3F5FF631C
:103DA00007339BB21A0ACC4ECC4F16F802E037F814
:103DB0001250C3F346020EFB025324049BB248BFC9
:103DC0005B421BB20A680A92A3F500439BB2C3EBA5
:103DD00043140A9DC24B240C03FB05F52D0CDC3467
:103DE000E4B26A0480F8E342C5F3CA0303D5C3F51D
:103DF000FF6307339BB24FEA132EC3F3460216F854
:103E00000EC037F81E300CFB02332D049BB248BFA6
:103E10005B420A6809921BB2A3F500439BB2099D5D
:103E20004DF6086203EBC31302FB05FE1B0C4FEAC1
:103E30001E4E6033DBB21EF4804F80F8E032CEF3CA
:103E4000CA0203D0C2F5FF62073292B24FEA122CC7
:103E5000C2F3460516F80C8037F81C2008FB052233
:103E600092B21EF4004F18BF524212B20D6808956C
:103E7000A2F5004292B2C2EB0215DDF820C002EBBF
:103E800005224AF2C80505FB0CFC120C4FEA1C4C3B
:103E900002F5C85292B21CF4804FA0F8E622CCF38F
:103EA000CA0503D0C5F5FF650735ADB24FEA152841
:103EB000C5F3460E16F8089037F8185009FB0E5552
:103EC0001CF4004FADB218BF6D42D1F800E0CDF840
:103ED0001CE02DB2A5F500454FF0260EADB2DDF881
:103EE0001C80B0F8DEC2A0F8E8C20EFB05F547F66C
:103EF000983E0EFB08F82D0C4FEA18481735ADB266
:103F000018F4804F80F8E152C8F3CA0E05D0CEF500
:103F1000FF6E0EF1070E1FFA8EFE4FEA1E2ACEF339
:103F2000460916F80AE037F81AA00EFB09AE18F495
:103F3000004F1FFA8EFED1F80080CDF8148018BF14
:103F4000CEF1000EDDF814A00968B0F8DC8206910D
:103F50000FFA8EFEAEF5004B1FFA8BFE1FFA8AFA9F
:103F60006049DDF81890A0F8ECA240F6B83B0BFBD6
:103F70000EFBC8EB0A08B0F8DAE2A0F8DCA21FFAE0
:103F800088F801FB09F94FEA1B4B18FB05EE4FEAD5
:103F900019490BF1010B1FFA8BF11FFA8EFE19F470
:103FA000804FA0F8EA12A0F8EE82A0F8DAE2C9F396
:103FB000CA0503D0C5F5FF650735ADB24FEA152A2E
:103FC000C5F3460516F80AB037F81AA0A0F8F0E2D3
:103FD0000BFB05A5ADB219F4004F18BF6D422DB211
:103FE000A5F50045ADB205EB85052D0C0535ADB247
:103FF00008FB05C8019DA0F8DE82002D66D00546AD
:104000004FF0000870460BE0B5F8E8C2B5F8EA12C8
:10401000B5F8F002B5F8E62295F8E03295F8E342FB
:104020006144104489B280B24FEA112CA5F8E8121D
:10403000410485F8E2C2A5F8F002C0F3CA0203D534
:10404000C2F5FF62073292B24FEA122EC2F3460166
:1040500016F80E9037F81E208DF810C009FB0122CB
:1040600092B2010448BF524212B2A2F5004292B28B
:1040700002FB02F1090C01FB03F0DB4303EB1043ED
:10408000DBB2A5F8F422A5F8F61285F8E43203A90C
:1040900004A88DF812308DF8114002F025F9B5F81A
:1040A000FA32013BC8EB03039BB203EB4300A5F8D4
:1040B000F8322844402203A901F0BCFE08F10108AF
:1040C000B5F8FA321FFA88F843459DD80DB0BDE81F
:1040D000F08F00BF489DFF1FE49C00006494000027
:1040E000F874010080B50100114980F829320B886D
:1040F00003EB432203EB820303F5585319339BB2BE
:1041000003EB1322C2F3C012012510240B8080F8A8
:10411000C42180F82D5280F82C4222B19623A0F8B9
:10412000FA3201932DE64B23A0F8FA32019328E6E8
:104130004687FF1F70B5044682B01B4D022002F077
:1041400045FC2B88184400EB402300EB830043F22E
:104150001963184480B200EB102200EB402100EB01
:104160008100D2B2034402EB82029BB2921100267C
:1041700003EB13211B3284F8072384F8081384F817
:104180000A6384F8096384F81063204601AA962123
:104190002B808DF804608DF805608DF8066001F0C5
:1041A00085FD02B070BD00BF4687FF1F2DE9F04FAF
:1041B00090F8103387B00290002B00F0898090F8BF
:1041C00007330393064618465D4B1B8803EB4324D5
:1041D00003EB840404F558541934A4B204EB1423FB
:1041E000DBB203EB830903EBC9094FEA292909F183
:1041F000140901235FFA89F986F80A3386F81193C6
:1042000004F0FAFA06F5447B06F22C5A5B4606F5F2
:10421000806806F2F347D346019006F21C6600253B
:104220009A4604EB442304EB830404F558541934F0
:10423000A4B2732303FB04F0000C019B4AF8043F73
:104240000A3080B204F0D8FA3E4904F0E1FB04EBF6
:10425000442304EB830303F5585319339BB203EB58
:10426000432403EB840404F558541934A4B204EB3A
:104270001421C9B201EB810103EB13230912C3F32B
:10428000C0130A3148F8040F07F8013FC8B204F020
:10429000B3FA0135EBB22C4A4BF8040F994546F8B6
:1042A000042FBED8039A029E254FC2F1950102EB5E
:1042B000420301EB4101F5187018FF223C80F254D3
:1042C0006A70AA7072544270827007B0BDE8F08FB5
:1042D000029D95F8093395F8071395F808238DF892
:1042E00014200533DBB201EB410185F80933294481
:1042F00005A8FF248DF816308DF8154001F0F4FF65
:1043000095F8071395F8083395F809238DF81430BC
:10431000C1F1950101EB410105A829448DF8154033
:104320008DF8162001F0E0FF95F80933FF2BCCD172
:10433000029A012382F8103307B0BDE8F08F00BF66
:104340004687FF1F0000C84200007F432DE9F04769
:10435000654B054682B01A78962101F069FD95F803
:104360001143002685F81067002C7ED0DFF890916D
:104370004FF0FF083BE0D4F81413504604F08CF9DA
:1043800007460021384604F02DFC5849002868D122
:10439000384604F045FC00B1544FC4F8147351463C
:1043A000D9F8000004F080FA4FF06E51C4F804040C
:1043B000D4F8300504F078FA01464FF07E5004F04E
:1043C00069F9D4F8201604F06FFAC4F8200604F056
:1043D00057FC95F81037C0B2834206F1010695F8F4
:1043E000113338BF85F81007F6B2B3423BD905EB5D
:1043F0008604D4F8140304F01DFC0746D4F8200604
:1044000004F03EFC95F808338DF8020001A96846D7
:104410008DF800308DF8018001F066FF07EB470052
:1044200029182B5C9DF8042083FA52F32B549DF835
:1044300005304A7882FA53F24A708B789DF806204C
:1044400083FA52F3AA198B7092F8F434D4F804A4C6
:10445000002B90D1D4F81403514604F01BF9074601
:104460008FE7002799E795F810472A4605F1E10004
:104470002B46197882F8BF11597882F8C0119978C3
:1044800082F8C11103338342A2F10302F1D144BB8C
:1044900001AA962128468DF804408DF805408DF834
:1044A000064001F003FC1248124C038824681249AC
:1044B000124A019403EB43240988128803EB840316
:1044C00003F558530A4419339BB292B20199038001
:1044D00003FB02F301EB13430222C5F80C3385F80A
:1044E0000A2302B0BDE8F0873987FF1F000094421D
:1044F0004687FF1F489DFF1F2087FF1F3C87FF1F28
:104500004087FF1F10B590F82D3282B0044603BBE0
:1045100001201321022284F8293284F82D0284F824
:104520002C1284F80A23002301AA962120468DF834
:1045300004308DF805308DF8063001F0B7FB0F4AD6
:10454000D4F80C3312680192019A9A4212D202B046
:1045500010BD90F80A33012B04D007D2FFF726FED6
:1045600002B010BDFFF7F2FE02B010BD022BDAD090
:1045700002B010BD2046FFF7DDFDE8E7489DFF1FB4
:104580002DE9F04390F82D6287B00446002E00F02C
:10459000F280B0F8FA2204F2C71712B326460025BB
:1045A0004FF0010894F81137CDF80080C5EB0521D4
:1045B00091FBF2F21A44D2B2FF23394605A801F06A
:1045C00097FC9DF815209DF814109DF81630317059
:1045D0007270B370B4F8FA220135AA4206F10306EC
:1045E000E0DC94F8C531002B00F0BD8094F8111781
:1045F00094F812370B4484F811374A2A00F32281C9
:1046000002EB4202A31804F1E10594F83112587844
:104610001E7893F802E0C943C9B24A1C02FB00F1BC
:1046200002FB06F602FB0EF230120912121218708B
:1046300059709A700333AB42E7D1894E94F8303207
:10464000326805920599B4F8FA024FF48C7202FBB5
:1046500001F21B0203FB02F3C3F30E43A3F58043F5
:104660009AB25104C2F3CA0303D5C3F5FF630733FB
:104670009BB2190ADFF8F4C1DFF8F4E11EF801E09B
:104680003CF81110C3F346030EFB031312049BB254
:1046900048BF5B421BB2C0F14A01A3F500439BB285
:1046A00089B201FB033194F827E294F8C23194F8FF
:1046B0002E22CDF800E000EB1140394687B204A865
:1046C00001F016FC07EB4703E118E25C9DF81000CF
:1046D00082FA50F2E2549DF811304A7882FA53F28D
:1046E0004A708B789DF8122083FA52F3DFF88481A8
:1046F0008B70D8F80030DB071AD55A4F3368049313
:1047000097E80600049B5B1A9A4220D923461A7840
:1047100084F8BF215A7884F8C0219A7884F8C1219E
:1047200003339D42A4F10304F1D107B0BDE8F08347
:10473000404602F0F9F9002840F08780494F33687D
:10474000049397E80600049B5B1A9342DED331681A
:1047500094F82E2294F8323203910399396013446D
:1047600084F82E32D2E794F8113794F812175B1AB6
:1047700084F8113741E73C4F3B8803EB432203EBBE
:10478000820303F5585319339BB203EB432203EB27
:10479000820202F55852193292B202EB422E02EB1B
:1047A0008E0E0EF5585E0EF1190E1FFA8EFE03EBFB
:1047B000132302EB122246213220DDB20EEB1E291A
:1047C0005FFA82F8A7F800E003F0F2FC3B8884F877
:1047D000300203EB432203EB820303F558531933F2
:1047E0009BB25FFA89F905EB450203EB132109EB54
:1047F000890905EB8202C9B2C9EBC909C1EBC10045
:1048000008EB880512124FEAE9116A392D12C2F13C
:10481000390200124FF0010E0135D2B2013084F896
:104820003112142184F8125784F8C461A4F8FA22D2
:104830003B8084F8320284F82DE284F829E284F87F
:104840002C12A8E604F1E105F7E63368054F029360
:10485000029B3B60322340467B6002F06BF96EE7BF
:10486000489DFF1FA893FF1F4687FF1F6494000009
:10487000E49C0000E493FF1FF0B590F82B3285B064
:104880000446142B00F25C84DFE813F09C031E0343
:104890009D026700E3004902E9003B011500B401F5
:1048A00064010202610041013A04350430042B0422
:1048B000260421041C0490F82D22002A47D1CC4D57
:1048C0002B8803EB432003EB800000F55850193090
:1048D00080B200EB402100EB810101F55851193104
:1048E00089B201EB412301EB830303F558531933DC
:1048F0009BB203EB432603EB860600EB102001EB93
:10490000112106F5585603EB1323C7B2C9B2193665
:10491000DBB2C1EB0111C3EB031307EB870EB6B299
:104920008811991107EB4E0306EB16273230C7F3B7
:1049300081173C311B12C0B20137C9B214338DE864
:104940008300DBB2114620462E80FEF7ABF82046EE
:1049500005B0BDE8F040FEF70FB990F82D32002BFE
:1049600077D1A34980F82C320B8803EB432203EB69
:10497000820303F55853193303EB432203EB8203FD
:1049800003F5585319339BB203EB432003EB80002C
:1049900000F55850193080B200EB402200EB820243
:1049A00002F55852193292B202EB422702EB870706
:1049B00007F558571937BFB207EB472507EB8505B1
:1049C00005F558551935ADB205EB452E03EB13230C
:1049D00005EB8E0EDBB202EB122200EB102003EB94
:1049E0004306D2B20EF5585EC0B202EB820200EB73
:1049F0004000F6110EF1190E02EB82031FFA8EFE33
:104A0000821107EB1727701C08329B11C7F342175E
:104A100005EB152584F82F020EEB1E20743B7E1C3F
:104A2000C5F3C015C0F3C01084F83022012284F809
:104A3000313284F83262A1F800E084F8C40184F8CD
:104A4000335284F82D2284F8292284F8342284F801
:104A50003522204605B0BDE8F040FDF715BA90F8C4
:104A60002D32002B4DD1624980F829320B8803EB9F
:104A7000432203EB820303F5585319339BB203EB34
:104A8000432203EB820202F55852193292B202EB32
:104A9000422002EB800000F55850193080B200EB44
:104AA000402500EB850503EB132302EB122205F5ED
:104AB0005855DBB2D2B21935C3EB0313ADB202EBDA
:104AC00042021B120133121205EB152600EB1020D7
:104AD000C0F3C01001270132C6F3C01684F8373284
:104AE000052384F8C50184F8362284F8C46184F86B
:104AF0002D7284F8397284F82C3220460D80FCF730
:104B00001BFE204605B0BDE8F040FDF707BF90F85A
:104B10002D22CAB9364E338803EB432503EB8505B6
:104B200005F558551935ADB205EB1523C3F38113BF
:104B300001335A204621029301900091142311461B
:104B400020463580FDF7AEFF204605B0BDE8F040B9
:104B5000FEF7FABA90F82D1200297FF4F8AE244D32
:104B60002B8803EB432003EB800000F558501930ED
:104B700080B200EB402200EB820202F5585219325B
:104B800092B202EB422302EB830303F5585319332D
:104B90009BB203EB432603EB860600EB102002EBEF
:104BA000122206F5585603EB1323C7B2D2B21936B8
:104BB000DBB2B6B207EB870EC2EB0212C3EB0313F4
:104BC00090119A1107EB4E0306EB16273230C7F30C
:104BD00081173C321B12C0B20137D2B214338DE8B8
:104BE0008500DBB2012220462E80FDF75BFFAEE69A
:104BF0004687FF1F90F82D22002A7FF4A8AEB14D02
:104C00002B8803EB432003EB800000F5585019304C
:104C100080B200EB402100EB810101F558511931C0
:104C200089B201EB412301EB830303F55853193398
:104C30009BB203EB432603EB860600EB102001EB4F
:104C4000112106F5585603EB1323C7B2C9B2193622
:104C5000DBB2B6B207EB870EC1EB0111C3EB031356
:104C60008811991107EB4E0306EB16273230C7F374
:104C700081173C311B12C0B20137C9B214338DE821
:104C80008300DBB2012120462E80FDF70BFF5EE69C
:104C900090F82D32002B7FF45AAE8A4D2B8803EB0F
:104CA000432203EB820303F5585319339BB203EB02
:104CB000432103EB810101F55851193189B201EB10
:104CC000412201EB820202F55852193292B202EBF4
:104CD000422602EB860603EB132301EB112106F5B6
:104CE000585602EB1222DBB2C9B21936D2B2C1EB6E
:104CF0000111C2EB021203EB8307B6B2881103EB7A
:104D00004703911106EB16273230C7F381173C3168
:104D10001B12C0B20137C9B2143301220FE690F85A
:104D20002D22002A7FF4EDAE664980F829220B88F7
:104D300080F8392203EB432203EB820303F5585337
:104D400019339BB203EB432203EB820202F5585264
:104D5000193292B202EB422002EB800000F558506B
:104D6000193080B200EB402500EB850503EB1323DF
:104D700002EB122205F55855DBB2D2B21935C3EB5E
:104D80000313ADB202EB42021B1205EB15260133F1
:104D9000121200EB10200132C6F3C016C0F3C0108F
:104DA000012784F83732052384F8C50184F83622B8
:104DB00084F8C46184F82D7284F82C3220460D806A
:104DC000FCF7BAFC9DE690F82D22002A7FF441AE54
:104DD0003C4980F82C220B8880F8342203EB4322D4
:104DE00003EB820303F55853193303EB432203EB20
:104DF000820303F5585319339BB203EB432003EBB3
:104E0000800000F55850193080B200EB402200EBD2
:104E1000820202F55852193292B202EB422702EB9B
:104E2000870707F558571937BFB207EB472507EB38
:104E3000850505F558551935ADB205EB452E03EB43
:104E4000132305EB8E0EDBB202EB122200EB1020D7
:104E500003EB4306D2B20EF5585EC0B202EB8202FB
:104E600000EB4000F6110EF1190E02EB82031FFA5F
:104E70008EFE821107EB1727701C08329B11C7F3B7
:104E8000421705EB152584F82F020EEB1E20743B0C
:104E90007E1CC5F3C015C0F3C01084F83022012277
:104EA00084F8313284F83262A1F800E084F8C40159
:104EB00084F8335284F82D2284F8292284F835228C
:104EC000C7E500BF4687FF1F90F82D22002A7FF418
:104ED000C0AD9C4980F82C220B8880F8352203EB6A
:104EE000432203EB820303F55853193303EB4322A8
:104EF00003EB820303F5585319339BB203EB4320B2
:104F000003EB800000F55850193080B200EB4022CE
:104F100000EB820202F55852193292B202EB42279C
:104F200002EB870707F558571937BFB207EB47253C
:104F300007EB850505F558551935ADB205EB452E3E
:104F400003EB132305EB8E0EDBB202EB122200EB18
:104F5000102003EB4306D2B20EF5585EC0B202EB4E
:104F6000820200EB4000F6110EF1190E02EB8203F3
:104F70001FFA8EFE821107EB1727701C08329B1157
:104F8000C7F3421705EB152584F82F020EEB1E2000
:104F9000743B7E1CC5F3C015C0F3C01084F83022EA
:104FA000012284F8313284F83262A1F800E084F8FA
:104FB000C40184F8335284F82D2284F8292284F81D
:104FC000342246E590F82D1200297FF442AD5D4869
:104FD00084F82C12038884F8341203EB432203EB89
:104FE000820303F55853193303EB432203EB820387
:104FF00003F5585319339BB203EB432503EB8505A7
:1050000005F558551935ADB205EB452205EB820281
:1050100002F55852193292B202EB422702EB87078F
:1050200007F558571937BFB207EB472607EB860637
:1050300006F558561936B6B206EB462C06EB8C0C24
:1050400002EB122205EB152503EB1323D2B20CF56C
:10505000585CEDB2DBB202EB820205EB45050CF1C8
:10506000190C03EB430E1FFA8CFC02EB820307EBD7
:105070001727AA1108324FEAEE1E9B11C7F34217F9
:1050800006EB162684F835120CEB1C210EF10105F7
:10509000743B0137C6F3C016C1F3C01184F8302247
:1050A000012284F82F5284F8313284F83272A0F849
:1050B00000C084F8C41184F8336284F82D2284F887
:1050C0002922C6E405B0BDE8F040FFF759BA05B0A3
:1050D000BDE8F040FFF716BA05B0BDE8F040FEF7B6
:1050E000FBBC05B0BDE8F040FEF762BC05B0BDE812
:1050F000F040FEF73BBE05B0BDE8F040FEF778BAE1
:1051000090F82D22002A7FF41FAD0E4E338803EB5A
:10511000432503EB850505F558551935ADB205EB6B
:105120001523C3F3811301335A20642102930190A4
:1051300000911423012120463580FDF7B3FC03E5DF
:1051400005B0F0BD4687FF1FF8B520213448354D26
:10515000354F02F081FD354802F082FF3448354A70
:10516000038816782C883449DFF8E0E003EB43220B
:1051700003EB820303F5585319339BB203EB43222D
:1051800003EB820202F5585203EB13231932C3F3E7
:10519000811392B203333B70013402EB12232C8053
:1051A000C3F3C013254F264C81F8C53101250023D8
:1051B000028081F82D328EF800303B702570D6B910
:1051C00091F82A221F4C0132A2FB0445531B05EB28
:1051D00053031B0903EB4303C3EBC303D31ADBB233
:1051E00081F82A32184A1448D35C81F82B32BDE882
:1051F000F840FFF741BB02EB422302EB830202F5CA
:105200005852193292B202EB1223DBB203EB430382
:10521000C3EBC303C3F30723028081F82A32E1E71B
:1052200020A80000748CFF1FEE93FF1F5087FF1F04
:105230004687FF1F3E87FF1F808CFF1F768CFF1F56
:10524000A493FF1F876118862487FF1FB893FF1F51
:1052500070B540F6B83182B0634801F0CBF94FF435
:105260006141614801F0C2F901215F4801F098F9FC
:1052700050B110215D4802F0EFFC5B480A2101F0BB
:105280007DF9594801F0B0F901220021564801F09A
:105290005DFA40F2DC51564802F03AFF08215548C9
:1052A00002F0DAFC524802F0DBFE4FF47A7001F0B3
:1052B000BBFC5148036813F0010471D04F4C5049B6
:1052C0005048514DFF260023962200F099FEB0224F
:1052D000F023204601A926708DF805208DF80630B0
:1052E0008DF8046000F0CCFE40F6B831052001F0E6
:1052F00039F94FF4975302202B8001F067FB2B887C
:105300000021034420462B8000F0CCFF217820466A
:1053100000F0EEFE2046322100F04CFF002501AAED
:10532000962137488DF804608DF805508DF80650A9
:1053300000F0BCFC2046FA2100F03CFF01AA9621B7
:105340002F488DF806608DF804508DF8055000F058
:10535000ADFC2046FA2100F02DFF802301AA962102
:1053600027488DF805308DF804508DF8065000F070
:105370009DFC2046FA2100F01DFF2946204600F042
:1053800091FF2046FA2100F015FFFBF7A5FA0E2148
:105390001E4802F061FC164802F062FE02B070BDC9
:1053A00001F0C2FB002889D01949164B08685C60DF
:1053B000FF2201255C619C609D741A735A739A7375
:1053C000DA731A745A7460B1124A116801B18B60B1
:1053D00013600022104908489A61196001F0AAFB85
:1053E0006CE70B60F0E700BFF89CFF1F44A80000CB
:1053F0005087FF1F58A80000548CFF1FD09CFF1F30
:105400000C9BFF1F588CFF1F4687FF1F64A80000DE
:10541000E09CFF1FF09CFF1F208F00002DE9F04F44
:1054200097B003F0C3FCA84DA84A29681388184414
:10543000CB07108040F1A481A54EA64C336803939E
:10544000039AA54823886188A0FB0202C3EB92134C
:105450009BB2994209D833680293029B9E4AA2FBF1
:1054600003239B092380FFF76FFE9C4D2B68DF070A
:1054700040F17D8133689A4C0693069A96482388BA
:105480006188A0FB0202C3EB92139BB2994240F2E7
:105490000181944FDFF89C92DFF86CA2924D2B684B
:1054A000DC0740F15C813368904C099394E8060076
:1054B000099B5B1A93420DD333688D490893089B6F
:1054C0002360A1F13000182200F072FD3B78002B20
:1054D00040F07F81DFF86082864DD8F80030DFF839
:1054E0005CB29AF8C32199F8C3112970D8078BF8D8
:1054F000002040F1B480804C33680C9394E80300A2
:105500000C9B1B1A8B4280F0BC80DFF83482D8F8E9
:105510000030D9076DD5794C33680F9394E80600B5
:105520000F9B5B1A9A4273D93B78002B79D0744D4C
:10553000FBF794FB2B68DA0740F187803368714CE6
:105540001293129A644823886188A0FB0202C3EB7D
:1055500092139BB2994226D833681193119B5E4AED
:105560006948A2FB03239B092380FCF7E5F83B78FD
:10557000002B40F02A811421644802F06DFB644B3B
:105580006448198802F0BCFD624802F069FD1621EA
:10559000614802F061FB614B5E48198802F0B0FD82
:1055A0005C4802F05DFD5E4D2B68DB0740F1FE803C
:1055B00033685C4C1593159A5B4823886188A0FB7F
:1055C0000202C3EB92339BB299420BD83368534922
:1055D0001493149B54480A88A0FB03039B0B0132CD
:1055E00023800A805148017800F082FD17B0BDE8A1
:1055F000F08F404601F098FA002840F01B813F4CA4
:1056000033680F9394E806000F9B5B1A93428BD389
:1056100033680E933B780E9A2260384A002B40F094
:10562000CE80394B424A03F5E1751C785878997859
:10563000147003339D425070917002F10302F4D153
:105640002F4D2B68DA073FF579AF284601F06CFA49
:10565000002840F0FA802B4C3368129371E74046E3
:1056600001F062FA002840F0D980234C33680C9393
:1056700094E806000C9B5B1A9342FFF446AF9BF83C
:10568000002033680B930B9B1F4862602360FFF779
:10569000F3F83AE7336805930F4A059B114FA2FBD5
:1056A00003233A789B092380002A4BD0DFF88490AB
:1056B00099F82932002B3FF4EFAE4846FCF754FB33
:1056C000DFF844A0EAE600BFCC93FF1F4687FF1F28
:1056D000489DFF1F788CFF1FD34D6210D093FF1F92
:1056E000BC93FF1FA493FF1FD493FF1FC093FF1F02
:1056F000EF95FF1FE193FF1F9C93FF1F9493FF1FE4
:10570000D893FF1F7C8CFF1FF893FF1F74A8000025
:10571000748CFF1F5087FF1F8CA80000EC93FF1FA5
:10572000DC93FF1FC893FF1F73B2E745D09CFF1F98
:105730000C9BFF1F808CFF1FF493FF1FE093FF1F44
:10574000F093FF1FDFF874A19AF82932002B47D19C
:105750004D4DDFF850912B68DC073FF5A4AE28468D
:1057600001F0E2F900283FD1484C33689DE6284615
:1057700001F0DAF9002842D1454C336806937CE603
:10578000284601F0D1F9434E00283FF456AE336865
:105790000193414A019B414CA2FB03239B09142224
:1057A00028462380628001F0C5F947E6284601F0CB
:1057B000BBF9002858D13A4C33681593FBE62B7897
:1057C00038485360FFF758F8AEE63648FBF7B4FFA9
:1057D000D1E635491822A1F1300000F0E9FB79E665
:1057E0005046FCF7C1FAB3E73368284C0793079B90
:1057F000236032232846636001F09CF9B5E73368E3
:105800000493049B244A224CA2FB03239B091E22DF
:1058100028462380628001F08DF9AEE733680A9351
:10582000224C0A9A9BF8003022604046636001F0E7
:1058300081F91BE733680D931D4C0D9A2B7822607C
:105840004046636001F076F9DAE633681093109B06
:10585000114A184CA2FB03239B09052228462380EA
:10586000628001F067F9F7E633681393139B124ADD
:105870000B4CA2FB03239B0B012228462380628052
:1058800001F058F998E700BFD493FF1FC093FF1FA2
:10589000BC93FF1F489DFF1FD34D6210788CFF1FE4
:1058A000C893FF1F808CFF1F778EFF1F9C93FF1FE5
:1058B0009493FF1F7C8CFF1F73B2E745F893FF1F83
:1058C00010B4040600F11981484B4949022404220E
:1058D0001C600A6000BF00BF00BF00BF00BF1A60AD
:1058E00000BF00BF00BF00BF410640F18380404AB7
:1058F000022104231160136000BF00BF00BF00BF7E
:1059000000BF536000BF00BF00BF00BF820640F170
:105910008480374A022104231160136000BF00BF56
:1059200000BF00BF00BF536000BF00BF00BF00BF8B
:10593000C30640F185802E4A0221042311601360C2
:1059400000BF00BF00BF00BF00BF536000BF00BF6B
:1059500000BF00BF040740F18680254A02210423CE
:105960001160136000BF00BF00BF00BF00BF5360E5
:1059700000BF00BF00BF00BF410740F187801C4A45
:10598000022104231160136000BF00BF00BF00BFED
:1059900000BF536000BF00BF00BF00BF820740F1DF
:1059A0008880134A022104231160136000BF00BFE6
:1059B00000BF00BF00BF536000BF00BF00BF00BFFB
:1059C000C30700F18980094B0949022004221860AD
:1059D0000A6000BF00BF00BF00BF00BF1A6000BF69
:1059E00000BF00BF00BF10BC704700BFC8F00F4031
:1059F000C4F00F40494B4A49022404221C600A604B
:105A000000BF00BF00BF00BF00BF1A6000BF00BFE3
:105A100000BF00BF82063FF57CAF404B40490224E7
:105A200004221C600A6000BF00BF00BF00BF00BFAF
:105A30001A6000BF00BF00BF00BFC3063FF57BAFC9
:105A4000364B3749022404221C600A6000BF00BFA5
:105A500000BF00BF00BF1A6000BF00BF00BF00BF93
:105A600004073FF57AAF2D4B2D49022404221C6018
:105A70000A6000BF00BF00BF00BF00BF1A6000BFC8
:105A800000BF00BF00BF41073FF579AF234B24495A
:105A9000022404221C600A6000BF00BF00BF00BFD8
:105AA00000BF1A6000BF00BF00BF00BF82073FF504
:105AB00078AF1A4B1A49022404221C600A6000BF06
:105AC00000BF00BF00BF00BF1A6000BF00BF00BF23
:105AD00000BFC3077FF577AF114A0221042311608D
