:1000000000800020BD010000EDBB0000A5BB00008A
:10001000A5BB0000A5BB0000A5BB0000A5BB000060
:10002000A5BB0000A5BB0000A5BB0000EDBB000008
:10003000EDBB0000A5BB000019D000001DD10000E1
:10004000EDBB0000EDBB0000EDBB0000EDBB000010
:10005000EDBB0000EDBB0000EDBB0000EDBB000000
:10006000EDBB0000EDBB0000EDBB0000EDBB0000F0
:10007000EDBB0000EDBB0000EDBB0000EDBB0000E0
:10008000EDBB0000EDBB0000EDBB0000EDBB0000D0
:10009000EDBB0000EDBB0000EDBB0000EDBB0000C0
:1000A000EDBB0000EDBB0000EDBB0000EDBB0000B0
:1000B000EDBB0000EDBB0000EDBB0000EDBB0000A0
:1000C000EDBB0000EDBB0000EDBB0000EDBB000090
:1000D000EDBB0000EDBB0000EDBB0000EDBB000080
:1000E000EDBB0000EDBB0000EDBB0000EDBB000070
:1000F000EDBB000075D40000EDBB0000A1D50000F1
:10010000EDBB0000CDD60000EDBB0000EDBB000054
:10011000EDBB0000EDBB0000EDBB0000EDBB00003F
:10012000EDBB0000EDBB0000EDBB0000EDBB00002F
:10013000EDBB0000EDBB0000EDBB0000EDBB00001F
:10014000EDBB0000EDBB0000EDBB0000EDBB00000F
:10015000EDBB0000EDBB0000EDBB0000EDBB0000FF
:10016000EDBB000035C00000EDBB0000EDBB0000A2
:10017000EDBB0000EDBB0000EDBB0000EDBB0000DF
:10018000EDBB0000EDBB0000EDBB0000EDBB0000CF
:10019000EDBB0000EDBB0000EDBB0000EDBB0000BF
:1001A000EDBB0000EDBB0000EDBB0000EDBB0000AF
:1001B000EDBB0000EDBB0000EDBB0000564B4CF268
:1001C000205210B51A804DF628121A8000BF00BFC9
:1001D0000BF010FD514B4FF010621A60504A9A60BC
:1001E000504ADA60504A136813F4807304D14F49BF
:1001F0000B604FF4A85313604D4B1A78110703D5C9
:100200001A7842F008021A704A4B4B492A221A7097
:100210004A4A4B4B8B4204D252F8040F43F8040B6A
:10022000F8E7484B484900228B4202D243F8042B9E
:10023000FAE74649464A002352F8230041F82300D2
:1002400001336F2BF8D1434B434A802103F8011B44
:100250009342FBD1414B3D4A1A60414B8A221A70AE
:10026000A3F5805324225A70A0221A709A7992071B
:10027000FCD59A79D406FCD43A4A937903F00C035E
:10028000082B384BF9D103221A7140225A719A79FE
:100290009006FCD5334A9179324B4906FBD5324A58
:1002A000324911600221516020221A709A7902F0BD
:1002B0000C020C2AFAD12E4B2E4A1A602E4B2F4AD2
:1002C0001A6000225A60072243F8042C2C4AC3F813
:1002D0000C2D62B60BF064FD144B1B68DA0705D5D4
:1002E00028480BF0D5FC284B284A1A60284B1B786D
:1002F0005B0609D5244C254B22689A4204D121483B
:100300000BF0C6FC002323600EF0C8F90BF078FC5C
:100310000CF00CFFFEE700BF0E20054030800440CB
:10032000823F04000100002B10D0034014D0034092
:1003300002D0074000E00740748CFF1FB01A010094
:100340002087FF1F748CFF1FC8ABFF1F0082FF1F99
:100350000000000000E400E05FE400E008ED00E0E1
:100360000050064000400640448004400000030165
:1003700004800440C010050014E000E0FF76010096
:10038000000020201233435E1CE00340A5C3945AB2
:1003900000F00740FFFFFFFFFFFFFFFFFFFFFFFF32
:1003A000FFFFFFFFFFFFFFFFFFFFFFFFFFFFFFFF5D
:1003B000FFFFFFFFFFFFFFFFFFFFFFFFFFFFFFFF4D
:1003C000FFFFFFFFFFFFFFFFFFFFFFFFFFFFFFFF3D
:1003D000FFFFFFFFFFFFFFFFFFFFFFFFFFFFFFFF2D
:1003E000FFFFFFFFFFFFFFFFFFFFFFFFFFFFFFFF1D
:1003F000FFFFFFFFFFFFFFFFFFFFFFFFFFFFFFFF0D
:10040000FFFFFFFFFFFFFFFFFFFFFFFFDEF9FFFF23
:1004100010B5054C237833B9044B13B10448AFF33E
:1004200000800123237010BD748CFF1F00000000AA
:10043000B41A0100084B10B51BB108490848AFF3C6
:1004400000800848036803B910BD074B002BFBD0A0
:10045000BDE81040184700BF00000000788CFF1F67
:10046000B41A0100748CFF1F00000000406970473F
:10047000002070474268017B13780B43137070476C
:100480004268017B137823EA01031370704700BFB1
:100490008039091110B44B0044788278C9B2DBB2BC
:1004A000611AD31A21EAE17123EAE3734170837080
:1004B00010BC704770B41D4C83B024680194019D3A
:1004C000FF2898BF00024FF48C74A5EB030304FBD4
:1004D00003F398BF80B200FB03F0C0F30E4000F5B9
:1004E00080404404C0F3CA0303D5C3F5FF63073358
:1004F0009BB21D0A0E4E0F4C765D34F81540C3F3C7
:10050000460506FB054300049BB24ABF5C421CB291
:1005100024B2521AA4F5004492B2A3B202FB0333F0
:1005200001EB134080B203B070BC704704A9FF1FF9
:10053000500901009CFD000070B41E4C83B024687B
:100540000194019DFF2898BF00024FF48C74A5EB25
:10055000030304FB03F398BF80B200FB03F0C0F376
:100560000E40A0F5804080B24404C0F3CA0303D516
:10057000C3F5FF6307339BB21D0A0F4E0F4C765D28
:1005800034F81540C3F3460506FB054300049BB24F
:100590004ABF5C421CB224B2521AA4F5004492B283
:1005A000A3B202FB033301EB134080B203B070BC73
:1005B000704700BF04A9FF1F500901009CFD000007
:1005C00010B5012104460E200BF074FB0720012119
:1005D0000BF070FBA06958B10368074A5B6893424F
:1005E00007D14268017B137823EA0103137010BD21
:1005F00010BDBDE81040184781040000F0B58BB075
:10060000002305688DF804308DF805308DF806302C
:100610002E68374A8DF8083096428DF809308DF8EB
:100620000A305FD1827C04910446012A01A8059119
:100630008DF81E308DF81F308DF82030039015D0C6
:100640008DF81D308DF81C308DF81B308DF81A3068
:100650008DF819308DF818300023AA698DF82130F3
:100660002046099303A990470BB0F0BD214A1378A7
:10067000013303F0070313F0010F14BF80210021A1
:1006800013709A0744BF41F04001C9B25B0748BFED
:1006900041F0200110310022C9B20DF11B030DF110
:1006A0001E074FF4807EAAB19EFBF2F2D2B2501C1C
:1006B000C0B200FB01152D121870EEB205B1013E5B
:1006C00003F8036C00B11A7001339F4208D0DA7846
:1006D000002AE9D11A7003F8032C01339F42F6D1A6
:1006E0002568B9E70A4602AB01A9B0470BB0F0BDD7
:1006F000F9060000908CFF1FF0B5857C1C785E78B1
:100700009B7889B0012D0191029203928DF81640D9
:100710008DF817608DF8183016D000238DF815303D
:100720008DF814308DF813308DF812308DF81130AB
:100730008DF810300268002392698DF81930079304
:1007400001A9904709B0F0BD1B4A1378013303F0AB
:10075000070313F0010F137014BF802200229907C2
:1007600044BF42F04002D2B25B0748BF42F02002D1
:100770001032D2B20DF113030DF116074FF4807E43
:10078000ACB19EFBF4F4E4B2611CC9B201FB0225DA
:100790002D121970EEB205B1013E03F8036C01B1E0
:1007A0001C700133BB42C5D0DC78002CE9D11C7031
:1007B00003F8034CF5E700BF908CFF1FF0B5857C74
:1007C0001C785E789B7889B0012D0191029203928A
:1007D0008DF816408DF817608DF8183017D000236B
:1007E0008DF815308DF814308DF813308DF81230E7
:1007F0008DF811308DF810300368002203219B69B9
:100800008DF81910079201A9984709B0F0BD1B4A4D
:100810001378013303F0070313F0010F137014BFB3
:1008200080220022990744BF42F04002D2B25B0707
:1008300048BF42F020021032D2B20DF113030DF185
:1008400016074FF4807EACB19EFBF4F4E4B2611C59
:10085000C9B201FB02252D121970EEB205B1013E9D
:1008600003F8036C01B11C700133BB42C4D0DC78C7
:10087000002CE9D11C7003F8034CF5E7908CFF1FA6
:1008800070B5044608460D460DF0BAFF23680246CF
:10089000294620465B68BDE87040184738B50446D5
:1008A00008460D460DF0ACFF2368024629465B68FA
:1008B00020469847054620460CF040FC284438BDA9
:1008C0002DE9F04F0D7805704D784570897881706D
:1008D0001178C17051780171927842711A788271E1
:1008E0005A78C2719B78DDF824A003729AF800B0A0
:1008F00080F809B00DF12C0898E80051DDF8289037
:100900000E9F0F9E109D1199129A159B9AF801B097
:1009100080F80AB09AF802A080F80BA099F800A01D
:1009200080F80CA099F801A080F80DA099F8029029
:1009300080F80E9098F8009080F80F9098F8019049
:1009400080F8109098F8028080F811809CF8008060
:1009500080F812809CF8018080F813809CF802C017
:1009600080F814C09EF800C080F815C09EF801C041
:1009700080F816C09EF802E080F817E097F800E0D3
:1009800080F818E097F801E080F819E0BF788776E2
:100990003778C77677780777B67846772E78867770
:1009A0006E78C677AD7880F820500D7880F82150A9
:1009B0004D7880F82250897880F82310117880F8DB
:1009C0002410517880F82510927880F82620139A08
:1009D000127880F82720139A527880F82820139AEA
:1009E000927880F82920149A127880F82A20149A94
:1009F000527880F82B20149A927880F82C201A785C
:100A000080F82D205A7880F82E209B7880F82F309F
:100A1000BDE8F08F2DE9F04F8BB00027069051F81C
:100A20002730DBB20137FF2BBFB2F8D10B68079735
:100A30004FEA1368C3F3072BC3F307494FF0FF33A3
:100A4000C64600240593884658F8045F0698C5F307
:100A500007274FEA241CC5F30746ECB2F9B2C5F3E9
:100A600007650391E9B204915FFA8CF1029107994D
:100A70000F2908AA4FEA14135FFA86FA0CD80599D1
:100A80008C4507DC0F2905D00131C9B28B42029198
:100A900038BF0B4659B2059109A9009102998DF80A
:100AA00020B08DF821908DF822E08DF824708DF81B
:100AB00025608DF826500AF099F8FF2CDDF810E03B
:100AC000DDF80CB0D146BFD106980BB0BDE8F08F71
:100AD000484B1B78002B00F08B802DE9F04F9BB02A
:100AE00000F5FC730A930023434A0793DFF80C9147
:100AF000099000F2272308920B93002759F827301A
:100B0000DBB20137FF2BBFB2F8D1D9F8003006971E
:100B10004FF0FF32C3F3074A0592C3F3072B4FEAA6
:100B200013680024D64659F8045FC5F307464FEA18
:100B3000241CC5F30727ECB2F1B2C5F30765039196
:100B4000E9B204915FFA8CF1029106990F290CAA7F
:100B50000EA84FEA14135FFA87FA0CD805998C4552
:100B600007DC0F2905D00131C9B28B42029138BF91
:100B70000B4659B205910DA9009102998DF830B03C
:100B80008DF831E08DF832808DF834708DF8356055
:100B90008DF836500AF02AF8FF2CD346DDF80CE029
:100BA000DDF81080BFD10A9B0EAA934218D0099B92
:100BB0000B9C03F2F71301E0A34211D012F8011BC2
:100BC00013F8010F8842F7D00A4B079A1B780132BD
:100BD0009342079209DD089B53F8049F08938CE722
:100BE000099B9DF81C2083F829221BB0BDE8F08FDB
:100BF000704700BF5087FF1F78070100D012010027
:100C00002DE9F04F8BB00027962189488DF824708C
:100C100009AA8DF825708DF8267009F0B7FF844B6E
:100C2000844983F8C67151F82730824ADBB2013714
:100C3000FF2BBFB2F7D1136807974FEA1368C3F3CE
:100C4000072BC3F307494FF0FF33C6460693002432
:100C5000904658F8045F7848C5F30727C5F3074660
:100C6000F9B24FEA241C0491F1B205915FFA8CF1BC
:100C700003910799ECB20F29C5F3076508AA4FEA5B
:100C800014135FFA85FA0CD806998C4507DC0F29F6
:100C900005D00131C9B28B42039138BF0B4659B21E
:100CA000069109A9009103998DF820B08DF8219043
:100CB0008DF822E08DF824708DF825608DF826508F
:100CC00009F094FFFF2CDDF810B0DDF81490D64643
:100CD000BFD15A49002751F82730584ADBB20137B3
:100CE000FF2BBFB2F7D113680797C3F30749C3F3CC
:100CF000072B4FEA13684FF0FF33CE4606930024CC
:100D0000914659F8045F4A4BC5F30727C5F30746D8
:100D1000F9B24FEA241C0491F1B205915FFA8CF10B
:100D200003910799ECB20F29C5F3076503F5FC7031
:100D300008AA4FEA14135FFA85FA0CD806998C4575
:100D400007DC0F2905D00131C9B28B42039138BFAE
:100D50000B4659B2069109A9009103998DF820B06C
:100D60008DF821E08DF822808DF824708DF82560B3
:100D70008DF8265009F03AFFFF2CDDF810B0DDF8B1
:100D800014E0D046BDD12A48FFF7A2FE2C4B2D4AD5
:100D90001878274B83F82C02002301E01F2B09D081
:100DA00012F8011F8142DCB203F10103F6D1204B9E
:100DB00083F82B42244D254E002409AA284696216B
:100DC0008DF824408DF825408DF8264009F0DEFE90
:100DD000012305F5E4701E4985F8C631FFF71AFEB8
:100DE0001C4905F5FC70FFF715FE114B284693F8DA
:100DF0002B3285F82B32FFF76BFE09AA304696217D
:100E00008DF824408DF825408DF8264009F0BEFE6F
:100E1000022306F5E470104986F8C631FFF7FAFDA3
:100E200006F5FC700C49FFF7F5FD0BB0BDE8F08F3F
:100E3000809EFF1F4016010048A0FF1FA80D010063
:100E40004987FF1F2387FF1FBC8CFF1F2096FF1FB2
:100E5000F4130100380701008014010010B51221BD
:100E600082B02E482E4C0BF065FF2E4B2046197891
:100E70000CF0B4F920460CF061F911212A480BF06E
:100E800059FF2A4B204619780CF0A8F920460CF09F
:100E900055F9152126480BF04DFF264B20461978B1
:100EA0000CF09CF920460CF049F9142122480BF073
:100EB00041FF224B204619880CF090F920460CF097
:100EC0003DF90F211E480BF035FF1E4B20461988B7
:100ED0000CF084F902211C480BF02CFF1B4B0A225A
:100EE0001978204600230CF039F9012118480BF03D
:100EF00021FF20460CF022F90E2116480BF01AFFB4
:100F0000154B1B680193019900230A2220460CF01F
:100F100025F920460CF012F902B010BD8CEA000051
:100F20009087FF1F8787FF1FA0EA00004C87FF1FE5
:100F3000B4EA00005C87FF1FCCEA0000B48CFF1FFE
:100F4000E4EA00001C96FF1FF4EA00006C95FF1F06
:100F5000F8EA0000FCEA000004A9FF1F1E491F4830
:100F60000B8803EB432203EB820303F55853193339
:100F70009BB203EB432203EB820202F5585203EBD0
:100F800013231932DBB292B203EB4303F0B41B120A
:100F900002EB1227124E134DF35C134C0A80FFB282
:100FA00007EB870701223F12033793422F7023700C
:100FB00002700CD006D3022B02D10C4B00221A7007
:100FC000F0BC70470A4B00221A70F0BC7047074B08
:100FD0004A221A70F0BC70478887FF1F1095FF1FC8
:100FE0005487FF1F6C9EFF1F2895FF1F4895FF1F0A
:100FF000B68CFF1FF0B5EC4CEC4883B0002301AA7F
:10100000962123708DF804308DF805308DF8063068
:1010100009F0BCFDE64BE74A03F5E17512F8034C15
:1010200012F8020C12F8011C03F8034C03F8020C2E
:1010300003F8011C03339D4202F10302EED1DE4CA2
:10104000DA4E94F8C23186F8C23104F5E4770FCF56
:1010500006F5E4750FC50FCF0FC597E80F0094F89C
:10106000C3E194F8C47186F8C3E186F8C47194F8BA
:10107000C5E194F8C67186F8C5E186F8C67194F8A2
:10108000C7E186F8C7E104F5FC7785E80F000FCFCC
:1010900006F5FC750FC50FCF0FC597E80F0094F844
:1010A00029E294F828C294F82A7285E80F0086F89D
:1010B00029E286F828C286F82A7294F82B2294F83E
:1010C0002C3294F82DE294F82E7294F82F5294F862
:1010D000300294F8311286F82B2286F82C3294F8DC
:1010E000322294F8333286F82DE286F82E7294F884
:1010F00034E294F8357286F82F5286F8300294F86C
:10110000365294F8370286F8311286F8322294F873
:10111000381294F8392286F8333294F83A3286F845
:10112000357286F8392286F83A3286F834E286F843
:10113000365286F8370286F8381206F23E2304F259
:101140003E2206F27A2712F8035C12F8020C12F81B
:10115000011C03F8035C03F8020C03F8011C0333C1
:101160009F4202F10302EED194F8772294F87802BC
:1011700094F8791286F8772294F87A228F4B86F8C1
:10118000780286F8791294F87B0294F87C1286F83B
:101190007A2294F87D2286F87B0286F87C1294F8F5
:1011A0007E0294F87F1286F87D22854A86F87E02B8
:1011B00086F87F1203F14B0012F8011F03F8011BA0
:1011C0008342F9D17F4903F14B0011F8012F03F855
:1011D000012B8342754AF8D194F8163394F81763BB
:1011E00094F8185394F8190394F81A1382F81633E4
:1011F00094F81B3382F8176382F81853B4F81C6311
:10120000B4F81E5382F8190382F81A13B4F82003B5
:1012100094F8221382F81B3394F82333A2F81C634A
:10122000A2F81E5394F8246394F82553A2F82003DF
:1012300082F8221394F8260394F8271382F82333B4
:10124000B4F8283382F8246382F8255382F8260301
:1012500082F82713A2F82833B4F82A33A2F82A33E5
:10126000B4F82C63B4F82E53B4F83003B4F8321346
:10127000B4F83433A2F82C63A2F82E53B4F83663D2
:10128000B4F83853A2F83003A2F83213B4F83A0392
:10129000B4F83C13A2F8343394F83E33A2F8366322
:1012A000A2F8385394F83F6394F84053A2F83A03F5
:1012B000A2F83C1394F8410394F8421382F83E33A9
:1012C00094F8433382F83F6382F8405382F8410335
:1012D00082F8421382F8433394F8443382F844335B
:1012E00094F8456394F8465394F8470394F84813E8
:1012F00094F8493382F8456382F8465394F84A6378
:1013000094F84B5382F8470382F8481394F84C033F
:1013100094F84D1382F8493394F84E3382F84A63B7
:1013200082F84B5382F84C0394F8505394F85103CD
:1013300082F84D1382F84E3394F8521394F85333D5
:1013400094F84F6382F8505382F8510382F8521395
:1013500082F8533382F84F631B4994F8546394F82E
:101360005D33D4F8585394F85C0382F85D3382F807
:101370005463C2F8585382F85C0302F5587302F5BF
:101380008A6251F8040F43F8040B9342F9D10F4AD3
:1013900003F1F00052F8041F43F8041B8342F9D113
:1013A0000B4A03F13C0015E01095FF1F809EFF1FC4
:1013B000839EFF1FBF8CFF1FBC8CFF1F00A1FF1F60
:1013C0003B8FFF1F868FFF1F1890FF1F0891FF1F85
:1013D000FB91FF1F12F8011F03F8011B8342F9D193
:1013E000624A03F1F00052F8041F43F8041B8342E1
:1013F000F9D15F4A03F1F00052F8041F43F8041BCF
:1014000083425C49F8D194F85C3794F85D2794F8EE
:101410005E67B4F86057B4F8620781F85C3781F80A
:101420005D27B4F8643794F8662781F85E67A1F801
:101430006057A1F86207A1F8643781F8662794F82D
:101440006A3794F8676794F8685794F869074A4AC6
:1014500081F86A3781F8676781F8685781F869070A
:1014600001F26C7301F28C7152F8040F43F8040B13
:101470008B42F9D1414A03F1200052F8041F43F88E
:10148000041B8342F9D13E4A03F1200052F8041FA5
:1014900043F8041B8342F9D13A4A03F1200052F881
:1014A000041F43F8041B8342F9D1374A03F120009B
:1014B00052F8041F43F8041B8342F9D1334A03F165
:1014C000200052F8041F43F8041B8342294DF8D131
:1014D000B4F82C38B4F83028D4F83418D4F83808D4
:1014E00094F82E68A5F82C38A5F8302894F83C38E4
:1014F00094F83E28C5F83418C5F8380894F83F1811
:1015000094F8400894F83D7885F82E6885F83C38C2
:1015100094F8416894F8423885F83E28002485F80C
:101520003F1885F8400801AA9621194885F84238E5
:1015300085F83D7885F841688DF804408DF80540C0
:101540008DF8064009F022FB124B85F8C6411B7846
:1015500053B901AA962110488DF804308DF8053052
:101560008DF8063009F012FB03B0F0BD3492FF1F76
:101570002493FF1F809EFF1F2494FF1F4494FF1F8E
:101580006494FF1F8494FF1FA494FF1FC494FF1F43
:10159000BC8CFF1F1A96FF1F2096FF1F2DE9F043FA
:1015A0002F4D304E304C314F85B005F5E178324645
:1015B00029463B78DFF8B49003A8033509F0D8FB3F
:1015C0009DF80C109DF80D209DF80E3021704545BA
:1015D0006270A37006F1030604F10304E7D1244E00
:1015E0003368DB071FD5234D234C2B68039394E806
:1015F0000600039B5B1A93420CD33B782A68029245
:101600000133029A2260DBB23B70FF2B06D005B09B
:10161000BDE8F08399F80030FF2BF8D1FFF7EAFC22
:1016200005B0BDE8F08330460AF0ECFA114D50B930
:10163000114C2B68039394E80600039B5B1A9342BA
:10164000DBD23B78E1E70D4B2A681B780A4C01920C
:10165000019A22609B00304663600AF0D9FAE8E7FD
:10166000809EFF1FBC8CFF1FC4A6FF1FB68CFF1FF0
:101670000496FF1F04A9FF1F0C96FF1F6C9EFF1FFF
:101680002DE9F04F944E96F800C01FFA8CF385B008
:10169000002B00F01E8103F1FF3B1FFA8BFB8F48EC
:1016A0008F490BF1010B0BEB4B0B834402460D46AC
:1016B0000C46177892F801A092F802902770033236
:1016C00090F8BF8190F8C0E190F8C17184F801A052
:1016D0005A4584F80290A0F1030081F8BF8181F897
:1016E000C0E181F8C17104F10304A1F10301E0D16B
:1016F0004A2B27D87B48C3F1950203EB430102EB49
:10170000420200EB010800EB020E01336F1810F8E3
:1017100001B005F801B0AC189BB298F801A098F898
:1017200002909EF801B010F802809EF8021087F82F
:1017300001A04B2B87F8029005F8028084F801B0D5
:10174000A170D8D10CF1FF3A0AEB4A0A802405EBCC
:101750000A0B5946234603A802AA00278DF8094020
:101760008DF80A408DF8087009F002FB96F80080A9
:101770009DF80C309DF80D209DF80E0005F80A30FC
:10178000C8F1960808EB480805EB080949462346C6
:101790008BF801208BF8020002AA03A88DF80870CC
:1017A0008DF809408DF80A4009F0E2FA32789DF888
:1017B0000C1005F80810C2F195019DF80D0089F88C
:1017C000010002EB420C01EB41019DF80E3089F85B
:1017D000023005EB0C0E6818FF23492A05F80C307F
:1017E000DFF8FC808EF801308EF80230DFF8E890E8
:1017F0006B54437083702ED93B4F3B68DB0717D582
:101800003A4D3B4C2B68039394E80600039B5B1A0C
:101810009342337806D32A680292013B029A2260EF
:10182000DBB233700BB9FFF7E5FB05B0BDE8F08F15
:1018300038460AF0E7F92D4D0028E2D02D4B2A68F2
:101840001B782B4C0192019A22609B003846636002
:101850000AF0DEF9D6E7551C05EB450508EB050A4D
:101860005146234602AA03A88DF808708DF8094056
:101870008DF80A4009F07CFA99F800308DF808706C
:10188000C3F1940707EB470708EB07099DF80CC065
:101890009DF80DE09DF80EB008F805C002AA234699
:1018A000494603A88AF801E08AF802B08DF8094099
:1018B0008DF80A4009F05CFA9DF80C109DF80D2097
:1018C0009DF80E3008F8071089F8012089F80230D9
:1018D00092E7034D0EE700BF4895FF1F809EFF1F54
:1018E000C4A6FF1FBC8CFF1F0896FF1F04A9FF1F83
:1018F0002C95FF1F6C9EFF1F2DE9F04FA24B1D780A
:10190000ABB285B0002B00F0308103F1FF3B1FFA32
:101910008BFB9E489E490BF1010B0BEB4B0B834459
:1019200002460C460E4692F800E092F801A092F8AA
:10193000029086F800E0033290F8BF8190F8C0C1B1
:1019400090F8C1E186F801A05A4586F80290A0F10E
:10195000030081F8BF8181F8C0C181F8C1E106F1BF
:101960000306A1F10301DED14A2B28D88948C3F12F
:10197000950203EB430102EB420200EB010800EB8E
:10198000020C013304EB010E10F801B004F801B0B1
:10199000A6189BB298F801A098F802909CF801B0A4
:1019A00010F802809CF802108EF801A04B2B8EF8E4
:1019B000029004F8028086F801B0B170D7D1002DF2
:1019C00040F08F800DF10C0A0DF1080B6E4B1B7867
:1019D000C3F1950000EB40005A1C03EB430304EBFA
:1019E000030E251802EB4202802604EB020917467B
:1019F000FF22E2544FF000088EF801208EF80220FA
:101A00003346225449466A70AA7050465A468DF8A9
:101A100009608DF80A608DF8088009F0A9F95A4B21
:101A20009DF80C101D789DF80DE08DF80880C5F12B
:101A3000940505EB450504EB050833468DF8096070
:101A40008DF80A609DF80E60E1555A4650464146B1
:101A500089F801E089F8026009F08AF94E4B9DF897
:101A60000C001B689DF80D109DF80E206055DB07DB
:101A7000454888F8011088F8022020D5474D484C89
:101A80002B68039394E80600039B5B1A93420ED3E2
:101A90003D4B2A681B780292029A226001333A4A2F
:101AA000DBB213704A2B05D005B0BDE8F08F037888
:101AB0004A2BF9D1FFF79EFA05B0BDE8F08F364802
:101AC000364D0AF09FF8002851D1354C2B6803930E
:101AD00094E80600039B5B1A9342D9D22A4B1B78E9
:101AE000E0E7013D05EB4505802604EB05090DF116
:101AF0000C0A0DF1080B4FF00008494633465046DA
:101B00005A468DF808808DF809608DF80A6009F052
:101B10002FF91D4B9DF80C201B789DF80DC09DF8EA
:101B20000EE08DF80880C3F1960303EB430304EB4A
:101B3000030862551F46414633465A46504689F8C7
:101B400001C089F802E08DF809608DF80A6009F09B
:101B50000FF99DF80C109DF80D209DF80E30E15501
:101B600088F8012088F8023030E7094CFEE60D4B7A
:101B70002A681B780A4C0192019A22609B00064851
:101B800063600AF045F8A1E74895FF1FBC8CFF1F72
:101B9000C4A6FF1F809EFF1F1496FF1F04A9FF1FEE
:101BA000709EFF1F6C9EFF1F012806D003D30228E2
:101BB00001D1FFF7A1BEFFF7F1BCFFF761BD00BF88
:101BC00010B51021044694480BF0B4F821460023C8
:101BD0000A2292480BF0C2FA022191480BF0AAF8AF
:101BE0005C2C00F28182DFE814F07A027502700248
:101BF0006B02660261025C02570252024D02480209
:101C000043023E02390234022F022A022502200238
:101C10001B02160211020C0207020202FD01F8016A
:101C2000F301EE01E901E401DF01DA01D501D001A0
:101C3000CB01C601C101BC01B701B201AD01A801D0
:101C4000A3019E01990194018F018A018501800100
:101C50007B01760171016C01670111010C01070123
:101C60000201FD00F800F300EE00E900E400DF00EF
:101C7000DA00D500D000CB00C600C100BC00B70020
:101C8000B200AD00A800A3009E00990094008F0050
:101C90008A00850080007B00760071006C00670080
:101CA00062005D005F495D48FEF7F8FD10BD5E49CA
:101CB0005A48FEF7F3FD10BD5C495848FEF7EEFDAB
:101CC00010BD5B495548FEF7E9FD10BD5949534821
:101CD000FEF7E4FD10BD58495048FEF7DFFD10BD8A
:101CE00056494E48FEF7DAFD10BD55494B48FEF700
:101CF000D5FD10BD53494948FEF7D0FD10BD5249EE
:101D00004648FEF7CBFD10BD50494448FEF7C6FDDE
:101D100010BD4F494148FEF7C1FD10BD4D493F4838
:101D2000FEF7BCFD10BD4C493C48FEF7B7FD10BDA9
:101D30004A493A48FEF7B2FD10BD49493748FEF717
:101D4000ADFD10BD47493548FEF7A8FD10BD464919
:101D50003248FEF7A3FD10BD44493048FEF79EFD12
:101D600010BD43492D48FEF799FD10BD41492B4850
:101D7000FEF794FD10BD40492848FEF78FFD10BDC9
:101D80003E492648FEF78AFD10BD3D492348FEF72F
:101D900085FD10BD3B492148FEF780FD10BD3A4945
:101DA0001E48FEF77BFD10BD38491C48FEF776FD46
:101DB00010BD37491948FEF771FD10BD3549174868
:101DC000FEF76CFD10BD34491448FEF767FD10BDE9
:101DD00032491248FEF762FD10BD31490F48FEF747
:101DE0005DFD10BD2F490D48FEF758FD10BD2E4971
:101DF0000A48FEF753FD10BD2C490848FEF74EFD7A
:101E000010BD2B490548FEF749FD10BD294903487F
:101E1000FEF744FD10BD00BF0CEB00009087FF1FD4
:101E200020EB0000B4F00000A8F0000098F00000E3
:101E300088F0000074F000005CF0000044F0000046
:101E400034F000001CF0000010F0000004F000006E
:101E5000ECEF0000E0EF0000D4EF0000C8EF00005E
:101E6000BCEF0000ACEF0000A0EF00008CEF000022
:101E700080EF000070EF000064EF000058EF0000FA
:101E800050EF00003CEF00002CEF000018EF0000C6
:101E90000CEF000000EF0000F4EE0000E4EE0000A4
:101EA000D0EE0000C4EE0000B4EE0000A8EE00008A
:101EB00098EE00008CEE00008E498F48FEF7EEFC95
:101EC00010BD8E498C48FEF7E9FC10BD8C498A484C
:101ED000FEF7E4FC10BD8B498748FEF7DFFC10BD20
:101EE00089498548FEF7DAFC10BD88498248FEF72B
:101EF000D5FC10BD86498048FEF7D0FC10BD854951
:101F00007D48FEF7CBFC10BD83497B48FEF7C6FC3D
:101F100010BD82497848FEF7C1FC10BD8049764863
:101F2000FEF7BCFC10BD7F497348FEF7B7FC10BD3F
:101F30007D497148FEF7B2FC10BD7C496E48FEF742
:101F4000ADFC10BD7A496C48FEF7A8FC10BD79497C
:101F50006948FEF7A3FC10BD77496748FEF79EFC71
:101F600010BD76496448FEF799FC10BD744962487B
:101F7000FEF794FC10BD73495F48FEF78FFC10BD5F
:101F800071495D48FEF78AFC10BD70495A48FEF75A
:101F900085FC10BD6E495848FEF780FC10BD6D49A8
:101FA0005548FEF77BFC10BD6B495348FEF776FCA5
:101FB00010BD6A495048FEF771FC10BD68494E4893
:101FC000FEF76CFC10BD67494B48FEF767FC10BD7F
:101FD00065494948FEF762FC10BD64494648FEF772
:101FE0005DFC10BD62494448FEF758FC10BD6149D4
:101FF0004148FEF753FC10BD5F493F48FEF74EFCD9
:1020000010BD5E493C48FEF749FC10BD5C493A48AA
:10201000FEF744FC10BD5B493748FEF73FFC10BD9E
:1020200059493548FEF73AFC10BD58493248FEF789
:1020300035FC10BD56493048FEF730FC10BD5549FF
:102040002D48FEF72BFC10BD53492B48FEF726FC0C
:1020500010BD52492848FEF721FC10BD50492648C2
:10206000FEF71CFC10BD4F492348FEF717FC10BDBE
:102070004D492148FEF712FC10BD4C491E48FEF7A1
:102080000DFC10BD4A491C48FEF708FC10BD49492B
:102090001948FEF703FC10BD47491748FEF7FEFB41
:1020A00010BD46491448FEF7F9FB10BD44491248DB
:1020B000FEF7F4FB10BD43490F48FEF7EFFB10BDE0
:1020C00041490D48FEF7EAFB10BD40490A48FEF7BA
:1020D000E5FB10BD3E490848FEF7E0FB10BD3D4959
:1020E0000548FEF7DBFB10BD3B490348FEF7D6FB76
:1020F00010BD00BF78EE00009087FF1F68EE000063
:102100005CEE000050EE000044EE000030EE0000F7
:1021100024EE000018EE00000CEE0000F4ED0000CC
:10212000ECED000084EE0000E0ED0000D4ED0000D6
:10213000C0ED0000ACED00009CED000090ED000053
:1021400084ED000078ED00006CED000060ED000013
:1021500054ED000048ED00003CED000030ED0000C3
:1021600024ED000018ED000008ED0000F4EC000084
:10217000D8EC0000C0EC0000A4EC000094EC0000DF
:1021800084EC000070EC000060EC000058EC0000F3
:1021900050EC000038EC000028EC000020EC0000BF
:1021A00010EC000000EC0000F0EB0000DCEB0000A5
:1021B000C8EB0000B4EB00009CEB000084EB0000D7
:1021C00074EB000060EB00004CEB00003CEB000007
:1021D00030EB000024EB0000CCF0000038B500210B
:1021E000044686480AF0A6FD85480AF0A7FF22218A
:1021F00084480AF09FFD82480AF0A0FF94F8C63197
:10220000002B00F0A180012B00F0B785022B00F01D
:10221000BA8513217C480AF08DFD7C4B78481978EB
:102220000A2200230AF09AFF032179480AF082FD6E
:1022300073480AF083FF132176480AF07BFD0023E0
:102240000A2294F8C3116E480AF088FF03217048EF
:102250000AF070FD6A480AF071FF11216E480AF019
:1022600069FD94F8C51166480AF0B8FF0321684873
:102270000AF060FD62480AF061FF142167480AF025
:1022800059FD00230A2294F82B125D480AF066FFDC
:1022900003215F480AF04EFD59480AF04FFF15210F
:1022A0005F480AF047FD94F82E1255480AF096FF51
:1022B000032157480AF03EFD51480AF03FFF112123
:1022C00058480AF037FD94F82A124D480AF086FF64
:1022D00003214F480AF02EFD49480AF02FFF94F8D9
:1022E0002A3263BB222147480AF024FD44480AF001
:1022F00025FF94F82D321E2B00F23185DFE813F014
:10230000A4002F052F052F052F052F0517012F05D9
:102310002F052F052F0569012F052F052F052F05E7
:102320002F057701A50182018401D40155023403F0
:102330009003D5032F0514046A04D6042C0094F8E6
:102340002902FFF73DFCCDE7222137480AF0F2FCD5
:102350002B480AF0F3FE5CE734492948FEF79EFA61
:1023600033492748FEF78CFA94F8C41124480AF040
:1023700035FF27492248FEF791FA2E492048FEF7FB
:102380007FFA00230A2294F83F181D480AF0E6FE5F
:102390001F491B48FEF782FA27491948FEF770FAD1
:1023A00000230A2294F8401815480AF0D7FE18496D
:1023B0001348FEF773FA21491148FEF761FA94F8C1
:1023C00041180F480AF00AFF11490D48FEF766FA56
:1023D0001B490B48FEF754FA94F8421808480AF0D3
:1023E000FDFE0B490648FEF759FA232115480AF06D
:1023F000A1FC0348BDE838400AF0A0BE7CF2000012
:102400009087FF1FE4F0000074F100002287FF1F97
:1024100088F100008CF10000A0F10000B4F1000090
:10242000CCF10000E4F1000008F10000F8FA00002F
:1024300040F200001CFB000034FB000050FB0000D9
:102440006CFB0000A8FB000094F82C328048042BA1
:102450000CBF80498049FEF721FA80497C48FEF78D
:102460000FFA94F8C4117A480AF0B8FE7C4978480B
:10247000FEF714FA7B497648FEF702FA94F8351213
:1024800073480AF0ABFE76497148FEF707FA7649C1
:102490006F48FEF7F5F994F836126D480AF09EFE83
:1024A0006F496B48FEF7FAF970496948FEF7E8F999
:1024B00000230A2294F8301265480AF04FFE68495A
:1024C0006348FEF7EBF96A496148FEF7D9F9002342
:1024D0000A2294F831125E480AF040FE60495C48D6
:1024E000FEF7DCF963495A48FEF7CAF900230A22CD
:1024F00094F8321256480AF031FE59495448FEF712
:10250000CDF95D495248FEF7BBF900230A2294F841
:1025100033124F480AF022FE51494D48FEF7BEF9EA
:1025200056494B48FEF7ACF994F8341256E794F844
:102530002C32072B00F09084092B00F0B684062B78
:1025400003D14F494248FEF7A9F944494048FEF7F4
:1025500097F994F8C4113E480AF040FE40493C48BF
:10256000FEF79CF947493A48FEF78AF994F87B123E
:1025700037480AF033FE3A493548FEF78FF94249A9
:102580003348FEF77DF900230A2294F87912304887
:102590000AF0E4FD32492E48FEF780F93B492C4809
:1025A000FEF76EF900230A2294F8781228480AF000
:1025B000D5FD2B492648FEF771F994F82C32092BEA
:1025C0007FF413AF32492248FEF75AF994F83112DA
:1025D00031E094F82C320B3B052B00F2DE83DFE870
:1025E00013F05A04D803550450044B0446042949F7
:1025F0001748FEF753F919491548FEF741F994F8C1
:10260000C411EBE62449F3E724491148FEF746F9E3
:1026100012490F48FEF734F994F8C4110C480AF037
:10262000DDFD0F490A48FEF739F91D490848FEF754
:1026300027F994F83E13064800230A220AF08EFD7B
:1026400007490348FEF72AF9CFE61649D0E700BF4D
:102650009087FF1FF8F100001CF2000040F200001C
:1026600088F1000058F200006CF2000080F20000D7
:1026700094F20000A4F20000B4F20000C4F20000E2
:10268000DCF2000048F3000058F3000068F300009B
:1026900078F30000DCF4000024F5000048F50000A9
:1026A0006CF5000000F5000097499848FEF7F6F831
:1026B00097499648FEF7E4F894F8C41193480AF055
:1026C0008DFD94499148FEF7E9F893498F48FEF74C
:1026D000D7F800230A2294F83F138C480AF03EFDF5
:1026E0008C498A48FEF7DAF88C498848FEF7C8F822
:1026F00000230A2294F8401384480AF02FFD8549EC
:102700008248FEF7CBF886498048FEF7B9F80023E7
:102710000A2294F841137D480AF020FD7D497B4848
:10272000FEF7BCF87F497948FEF7AAF800230A2291
:1027300094F8421375480AF011FD76497348FEF784
:10274000ADF879497148FEF79BF800230A2294F806
:1027500046136E480AF002FD6E496C48FEF79EF87B
:1027600072496A48FEF78CF800230A2294F8431352
:1027700066480AF0F3FC67496448FEF78FF86C4935
:102780006248FEF77DF800230A2294F84F135F4851
:102790000AF0E4FC5F495D48FEF780F865495B4854
:1027A000FEF76EF894F8501345E763495748FEF773
:1027B00075F857495548FEF763F894F8C411534823
:1027C0000AF00CFD53495148FEF768F85B494F4841
:1027D000FEF756F800230A2294F847134B480AF0F4
:1027E000BDFC4C494948FEF759F855494748FEF7A2
:1027F00047F800230A2294F84D1344480AF0AEFC2F
:1028000044494248FEF74AF84E494048FEF738F836
:1028100000230A2294F840133C480AF09FFC3D49EB
:102820003A48FEF73BF848493848FEF729F80023B4
:102830000A2294F8491335480AF090FC3549334888
:10284000FEF72CF841493148FEF71AF800230A2216
:1028500094F842132D480AF081FC2E492B48FEF7CC
:102860001DF83B492948FEF70BF800230A2294F88B
:102870004A1326480AF072FC26492448FEF70EF84F
:1028800034492248FDF7FCFF00230A2294F8411343
:102890001E480AF063FC1F491C48FDF7FFFF2E4944
:1028A0001A48FDF7EDFF00230A2294F84B1317484E
:1028B0000AF054FC17491548FDF7F0FF2749134863
:1028C000FDF7DEFF00230A2294F846130F480AF0B2
:1028D00045FC10490D48FDF7E1FF21490B48FDF784
:1028E000CFFF00230A2294F84C1308480AF036FC64
:1028F00008490648FDF7D2FF1A490448FDF7C0FF12
:1029000094F8431397E600BF54F600009087FF1F2A
:1029100040F2000088F1000078F600008CF600001C
:10292000A0F60000B4F60000C8F60000DCF60000D7
:10293000F0F6000004F7000018F700003CF7000074
:1029400050F7000064F7000078F700008CF70000F3
:10295000A0F70000B4F70000C8F70000DCF70000A3
:10296000F0F7000004F80000AF49B048FDF796FF0B
:10297000AF49AE48FDF784FF94F85433012B00F0C3
:102980007182C0F09882022B07D1AA49A748FDF7AF
:1029900077FFA949A548FDF781FFA849A348FDF79E
:1029A0006FFF00230A2294F85113A0480AF0D6FBC7
:1029B000A1499E48FDF772FFA1499C48FDF760FFC1
:1029C00000230A2294F85D1398480AF0C7FB9A493D
:1029D0009648FDF763FF9B499448FDF751FF00239C
:1029E0000A2294F85C1791480AF0B8FB92498F4884
:1029F000FDF754FF94498D48FDF742FF00230A225A
:102A0000D4F8581389480AF0A9FB8B498748FDF789
:102A100045FF8E498548FDF733FF94F8C711DDE483
:102A20008B498248FDF73AFF8A498048FDF728FF25
:102A3000B4F83C137D480AF0D1FB7F497B48FDF791
:102A40002DFF85497948FDF71BFF00230A2294F8E2
:102A50005E1776480AF082FB77497448FDF71EFF3F
:102A60007E497248FDF70CFF00230A2294F83212C7
:102A70006E480AF073FB70496C48FDF70FFF784908
:102A80006A48FDF7FDFE00230A2294F831126748D8
:102A90000AF064FB68496548FDF700FF7149634827
:102AA000FDF7EEFE94F83312C5E56F495F48FDF778
:102AB000F5FE6E495D48FDF7E3FE94F8C4115B48EE
:102AC0000AF08CFB5C495948FDF7E8FE6849574815
:102AD000FDF7D6FEB4F8601754480AF07FFB56495C
:102AE0005248FDF7DBFE63495048FDF7C9FEB4F8D4
:102AF00062174E480AF072FB4F494C48FDF7CEFE74
:102B00005D494A48FDF7BCFEB4F8641747480AF02F
:102B100065FB49494548FDF7C1FE58494348FDF763
:102B2000AFFE94F8671786E555494048FDF7B6FEB5
:102B300054493E48FDF7A4FE00230A2294F83212BD
:102B40003A480AF00BFB3C493848FDF7A7FE4E49CE
:102B50003648FDF795FE00230A2294F83A123348CE
:102B60000AF0FCFA34493148FDF798FE47492F48EE
:102B7000FDF786FE00230A2294F831122B480AF052
:102B8000EDFA2D492948FDF789FE41492748FDF70F
:102B900077FE00230A2294F8791224480AF0DEFA1C
:102BA00025492248FDF77AFE3A492048FDF768FE9C
:102BB00000230A2294F838121C480AF0CFFA1E4962
:102BC0001A48FDF76BFE34491848FDF759FE94F892
:102BD000771203E431491548FDF760FE3049134888
:102BE000FDF74EFE00230A2294F869170F480AF0F9
:102BF000B5FA11490D48FDF751FE2A490B48FDF77A
:102C00003FFE00230A2294F86A1708480AF0A6FA41
:102C100009490648FDF742FE23490448FDF730FE06
:102C200094F82A12FFF7DABB84F500009087FF1FA3
:102C3000A8F50000BCF5000088F10000D8F5000000
:102C4000F0F5000008F6000020F600003CF6000059
:102C500018F800003CF8000054F8000068F8000084
:102C600080F8000098F80000B0F8000040F2000082
:102C7000D4F80000ECF8000004F9000018F9000096
:102C80002CF9000050F9000068F9000080F90000FC
:102C900098F90000B0F90000C4F90000DCF9000068
:102CA00000FA000010FA00002CFA00008349844862
:102CB000FDF7F4FD83498248FDF7E2FD94F82A12FE
:102CC0007F480AF08BFA80497D48FDF7E7FD7F4990
:102CD0007B48FDF7D5FD00230A2294F82E1878488A
:102CE0000AF03CFA78497648FDF7D8FD78497448EF
:102CF000FDF7C6FD00230A2294F83D1870480AF03B
:102D00002DFA71496E48FDF7C9FD72496C48FDF70F
:102D1000B7FDB4F830186A480AF060FA6A496848A2
:102D2000FDF7BCFD6C496648FDF7AAFD94F83E38F6
:102D3000012B00F08C80C0F0B380022B03D16749D7
:102D40005F48FDF79DFD60495D48FDF7A7FD6449BB
:102D50005B48FDF795FDB4F82C18FFF73FBB6149C0
:102D60005748FDF79BFD60495548FDF797FD5D49C4
:102D70005348FDF793FDFFF738BB5C495048FDF71A
:102D80008DFDFFF746BA5A494D48FDF787FDFFF71D
:102D900040BA58494A48FDF781FD57494848FDF770
:102DA0006FFD00230A2294F87C1245480AF0D6F9F8
:102DB00045494348FDF772FD50494148FDF760FD24
:102DC00000230A2294F87E123D480AF0C7F93E49D2
:102DD0003B48FDF763FD94F81853CDB14849384896
:102DE000FDF74EFD94F8181335480AF0F7F9364907
:102DF0003348FDF753FD94F82C320F3B012B3FF67F
:102E0000F4AA40492E48FDF73BFD94F81B1312E449
:102E10003D492B48FDF734FD2B460A2294F87D12DC
:102E200027480AF09BF928492548FDF737FD37491F
:102E30002348FDF725FD94F87F1221482B460A22EE
:102E40000AF08CF920491E48FDF728FDC6E73049F5
:102E50001B48FDF715FD76E72E491948FDF71EFDC5
:102E6000FFF773BB2C491648FDF718FD95E52B4974
:102E70001348FDF713FD90E729491148FDF70EFDB2
:102E80008BE728490E48FDF709FD86E726490C48DF
:102E9000FDF704FD81E725490948FDF7FFFC7CE7C4
:102EA00023490748FDF7ECFC4DE722490448FDF7AC
:102EB000F5FCFFF74ABB204968E500BF44FA000073
:102EC0009087FF1F68FA000088F1000080FA000078
:102ED00098FA0000B0FA0000C4FA0000D8FA000026
:102EE000E8FA00007CF2000084FB00002CF10000F6
:102EF00050F10000FCF3000068F400007CF40000D6
:102F0000B8F40000C8F4000090F40000A4F400003D
:102F1000E0FA000000F30000CCF50000B4F300007C
:102F200090F3000044F4000020F40000D8F3000007
:102F3000C8F5000024F30000C4F500002DE9F04FAF
:102F40008DB03421054609904648474C09F0F2FE01
:102F500046480AF0F3F83321454809F0EBFE4348B0
:102F60000AF0ECF83321434809F0E4FE3F480AF048
:102F7000E5F84148414A0388117803EB432203EB0B
:102F8000820303F5585319339BB203EB1322D2B2D9
:102F900012FB01F21212038054F8228085F82922D4
:102FA000002758F82730DBB20137FF2BBFB2F8D12A
:102FB000D8F80030099A08974FEA136902F5FC72B5
:102FC000C3F3072BC3F3074A4FF0FF33079206936F
:102FD0000024CE4658F8045F0798C5F307274FEA48
:102FE000241CC5F30746ECB2F9B2C5F3076504919A
:102FF000E9B205915FFA8CF1039108990F290AAAA9
:103000004FEA14135FFA86F90CD806998C4507DC51
:103010000F2905D00131C9B28B42039138BF0B464D
:1030200059B206910BA9009103998DF828B08DF83B
:1030300029A08DF82AE08DF82C708DF82D608DF880
:103040002E5007F0D3FDFF2CDDF810B0DDF814E0B2
:10305000CA46BFD1099B93F82902FEF7B1FD0DB016
:10306000BDE8F08FCCFB0000780701009087FF1FC0
:1030700004FC000038FC00008887FF1F5087FF1FFA
:10308000244B254A1B7800211170072B09D8DFE853
:1030900003F0131C252E34043A0A204B1B8880F8B9
:1030A0003232FFF79BB81D4B1B88003318BF01233A
:1030B00080F83432FFF792B8184B1B88003318BFE2
:1030C000012380F8C431FFF789B8144B1B88003303
:1030D00018BF012380F83532FFF780B80F4B1B88EB
:1030E000003318BF012380F83632FFF777B80B4B57
:1030F0001B8880F83032FFF771B8084B1B8880F8C6
:103100003132FFF76BB8054B1B8880F83332FFF77D
:1031100065B800BF669EFF1F1996FF1F649EFF1FC4
:103120002DE9F04F90F82E3289B00446002B40F084
:103130009D80D44E80F82D32338803EB432003EB7F
:10314000800000F55850193080B200EB402500EBAC
:10315000850505F558551935ADB205EB452305EB49
:10316000830303F55853193303EB432203EB820324
:1031700003F5585319339BB203EB432103EB810151
:1031800001F55851193189B201EB412201EB82025C
:1031900002F55852193292B202EB422E02EB8E0E19
:1031A0000EF5585E0EF1190E1FFA8EFE0EEB4E2C28
:1031B0000EEB8C0C0CF5585C0CF1190C1FFA8CFC06
:1031C00003EB13270CEB4C280CEB880801EB1121C7
:1031D000FFB202EB12220EEB1E2E07EB870708F55B
:1031E0005858C9B2D3B201EB4101CEF3C01208F175
:1031F00019084FEA272E1FFA88F88F1100EB1020CC
:103200000EF1010103EB430305EB15251B11C0F380
:10321000C019C5F3C01507F1080001320CEB1C2CD6
:1032200084F8301208EB182103F12007D2B2CCF356
:10323000C01384F83652C1F3C01184F831020F254F
:10324000012084F8359284F8327284F83322A6F88B
:10325000008084F8C41184F8343284F82E0284F893
:103260002A0284F8C351002B40F07781864B1B78EB
:10327000002B40F07D8194F83432D3B1834B94F825
:103280002912002203F1270084F82F2201E0834253
:103290000FD013F8012F8A42F9D194F833327C4AC7
:1032A000A2FB0323DB080133002284F8333284F8C5
:1032B0003422962194F83222204607F029FD94F812
:1032C0003512002940F0EC8094F8367294F83032D0
:1032D000002F00F0AC81002B00F073826D4894F851
:1032E0002F22DFF8B4910390DFF8B0B10F460DF153
:1032F0001C0A04F5E47804F1E1055DE094F831126C
:103300003B440B44D9F800100491FF2B049998BF5B
:103310001B024FF48C7000FB01F198BF9BB203FBC2
:1033200001F31B0C5804C3F3CA0103D5C1F5FF61B7
:10333000073189B2080A039E365C3BF81000C1F3DE
:10334000460106FB010189B21E0448BF49420EB284
:1033500094F8281294F8C23100915046414607F083
:1033600037FDA6F5004396229BB202FB03F31B0C2C
:1033700003EB4303E118E25C9DF81C0082FA50F273
:10338000E2549DF81D304A7882FA53F24A708B78E5
:103390009DF81E2083FA52F38B7094F82F1294F844
:1033A000332294F8303201370A44FFB2D2B2BB4222
:1033B00084F82F2240F2058294F8C41100299DD18F
:1033C00094F831123B440B44D9F800100591FF2BBF
:1033D000059998BF1B024FF48C7000FB01F198BF58
:1033E0009BB203FB01F31B0C5804C3F3CA0103D5C2
:1033F000C1F5FF61073189B2080A039E365C3BF8CC
:103400001000C1F3460106FB010189B21E0448BF4A
:1034100049420EB294F8281294F8C23100915046F5
:10342000414607F0D5FCA6F500439BB203EB8303AE
:10343000C3EB03131B0C03EB4303E118E25C9DF8A1
:103440001C0082FA50F2E2549DF81D304A7882FA4C
:1034500053F24A708B789DF81E2083FA52F38B70DA
:1034600022462346197882F8BF11597882F8C01194
:10347000997882F8C11103339D42A2F10302F1D180
:103480008BE700BF8887FF1F1996FF1F5F87FF1F0D
:10349000CDCCCCCC5009010004A9FF1F9CFD00003D
:1034A00094F83662002E67D094F83032002B00F08A
:1034B000888100250DF11C0A04F5E4784FF4FA76B2
:1034C00039E006FB05F3002900F0B58195220021C3
:1034D00094F83102FCF7EEFF94F8281294F8C23108
:1034E00094F82F22009107464146504607F070FCA1
:1034F00007EB4703E118E25C9DF81C0082FA50F2EA
:10350000E2544A789DF81D3082FA53F24A708B7863
:103510009DF81E2083FA52F38B7094F82F1294F8C2
:10352000333294F830220135EDB20B44AA4284F8CC
:103530002F3240F2468194F8C53194F8C411002B23
:10354000BFD1002900F0B8811946952206FB05F38A
:1035500094F83102FCF7F0FFBEE702EB820202FAB8
:1035600000F384F83332D04B1B78002B3FF483AE4A
:103570002046FFF785FD7EE694F83012002900F022
:1035800020810DF11C0A04F5E47804F1E1053CE02A
:1035900094F8C43194F831023144002B00F01481C6
:1035A0000023084495221946FCF784FF94F828125A
:1035B00094F8C23194F82F220091074641465046B4
:1035C00007F006FC07EB4703E118E25C9DF81C00DE
:1035D00082FA50F2E2544A789DF81D3082FA53F292
:1035E0004A708B789DF81E2083FA52F38B7094F802
:1035F0002F2294F8333294F830120136F6B2134485
:10360000B14284F82F3240F2DC8094F8C531002BAF
:10361000BED194F8310294F8C42131440844002A00
:1036200000F0858119469522FCF786FFBEE7002B46
:1036300000F0C7809D4B94F82F22DFF8749203931B
:10364000DFF870B204F5E4784FF48C7A04F1E10508
:1036500057E0D9F800300693069B94F831120AFB24
:1036600003F3090203FB01F3790301EB134399B25E
:103670004804C1F3CA0303D5C3F5FF6307339BB204
:10368000180A039E365C3BF81000C3F3460306FBA2
:1036900003039BB20E0448BF5B4294F828121EB28B
:1036A00005A894F8C2310091414607F091FBA6F5B8
:1036B000004396229BB202FB03F31B0C03EB430374
:1036C000E118E25C9DF8140082FA50F2E2549DF891
:1036D00015304A7882FA53F24A708B789DF816209A
:1036E00083FA52F38B7094F82F2294F8333294F8C3
:1036F000301201371A44FFB2D2B2B94284F82F22F5
:103700005FD994F8C431002BA3D1D9F800300793C6
:10371000079994F831320AFB01F11B0203FB01F314
:10372000790301EB134399B24804C1F3CA0303D5EB
:10373000C3F5FF6307339BB2180A039E365C3BF860
:103740001000C3F3460306FB030309049BB248BF02
:103750005B4294F828121EB205A894F8C231009179
:10376000414607F035FBA6F500439BB203EB83030C
:10377000C3EB03131B0C03EB4303E118E25C9DF85E
:10378000140082FA50F2E2549DF815304A7882FA19
:1037900053F24A708B789DF8162083FA52F38B709F
:1037A00022462346197882F8BF11597882F8C01151
:1037B000997882F8C1110333AB42A2F10302F1D12F
:1037C00091E709B0BDE8F08F08444A221946FCF79A
:1037D00071FE94F8281294F8C23194F82F220091C7
:1037E00007464146504607F0F3FA07EB4703E11856
:1037F000E25C9DF81C0082FA50F2E2549DF81D3004
:103800004A7882FA53F24A708B789DF81E2083FA28
:1038100052F38B7022462346197882F8BF115978EB
:1038200082F8C011997882F8C1110333AB42A2F13A
:103830000302F1D1DBE64A2294F83102FCF73AFEAA
:1038400094F8281294F8C23194F82F220091074678
:103850004146504607F0BCFA07EB4703E118E25C2B
:103860009DF81C0082FA50F2E2549DF81D304A780F
:1038700082FA53F24A708B789DF81E2083FA52F335
:103880008B7004F1E10023462246197882F8BF11BB
:10389000597882F8C011997882F8C11103338342B4
:1038A000A2F10302F1D138E61996FF1F5009010079
:1038B00004A9FF1F9CFD000006FB05F34A2294F8B3
:1038C0003102FCF739FE94F8281294F8C23194F8CA
:1038D0002F22009107464146504607F079FA07EB40
:1038E0004703E118E25C9DF81C0082FA50F2E254B2
:1038F0009DF81D304A7882FA53F24A708B789DF811
:103900001E2083FA52F38B7004F1E1002346224615
:10391000197882F8BF11597882F8C011997882F825
:10392000C11103338342A2F10302F1D1F5E513463D
:1039300011464A22FCF700FE94F8281294F8C2318E
:1039400094F82F22009107464146504607F040FA6E
:1039500007EB4703E118E25C9DF81C0082FA50F285
:10396000E2549DF81D304A7882FA53F24A708B78FF
:103970009DF81E2083FA52F38B7022462346197855
:1039800082F8BF11597882F8C011997882F8C11174
:103990000333AB42A2F10302F1D128E62DE9F04F47
:1039A00090F82E328DB00446002B40F09D80C54E1D
:1039B00080F82D32338803EB432003EB800000F5C1
:1039C0005850193080B200EB402500EB850505F515
:1039D00058551935ADB205EB452305EB830303F5C7
:1039E0005853193303EB432203EB820303F5585377
:1039F00019339BB203EB432103EB810101F55851CD
:103A0000193189B201EB412201EB820202F55852D1
:103A1000193292B202EB422E02EB8E0E0EF5585E78
:103A20000EF1190E1FFA8EFE0EEB4E2C0EEB8C0CC7
:103A30000CF5585C0CF1190C1FFA8CFC03EB1327E6
:103A40000CEB4C280CEB880801EB1121FFB202EBC8
:103A500012220EEB1E2E07EB870708F55858C9B245
:103A6000D3B201EB4101CEF3C01208F119084FEABD
:103A7000272E1FFA88F88F1100EB10200EF101019C
:103A800003EB430305EB15251B11C0F3C019C5F368
:103A9000C01507F1080001320CEB1C2C84F8301221
:103AA00008EB182103F12007D2B2CCF3C01384F83D
:103AB0003652C1F3C01184F831020F25012084F879
:103AC000359284F8327284F83322A6F8008084F8A4
:103AD000C41184F8343284F82E0284F82A0284F85F
:103AE000C351002B40F09082774B1B78002B40F0A5
:103AF000968294F8343213B1002384F82F3294F86C
:103B000032229621204607F003F994F8C57194F803
:103B10003022002F40F09981002A00F050836B4B37
:103B2000DFF8ACB1DFF8ACA1039304F5E4780DF154
:103B30002C09BEB29319039A94F8311212680792B5
:103B40000B44FF2B079A98BF1B024FF48C7198BF50
:103B50009BB201FB02F203FB02F3C3F30E43A3F596
:103B600080439BB25D04C3F3CA0203D5C2F5FF6272
:103B7000073292B2100AC2F346011BF800503AF81D
:103B8000102005FB0122180492B248BF554294F858
:103B9000281294F8C23154BF15B22DB294F82F22D6
:103BA00000914846414607F013F9A5F50043262247
:103BB0009BB202FB03F31B0C25339BB203EB4303C5
:103BC000E118E25C9DF82C0082FA50F2E2549DF874
:103BD0002D304A7882FA53F24A708B789DF82E2065
:103BE00083FA52F38B7094F8312294F830321644F1
:103BF0001E44039B1B680693FF2E069A98BF36024D
:103C00004FF48C7398BFB6B203FB02F206FB02F2CC
:103C1000C2F30E4202F580425104C2F3CA0303D537
:103C2000C3F5FF6307339BB2180AC3F346011BF8C1
:103C300000503AF8103005FB013316049BB248BF20
:103C40005B4294F8281294F82F221DB2484694F84B
:103C5000C2310091414607F0BBF8A5F5004326228A
:103C60009BB202FB03F31B0C03EB4303E118E25C82
:103C70009DF82C0082FA50F2E2549DF82D304A78DB
:103C800082FA53F24A708B789DF82E2083FA52F311
:103C90008B7094F830320137FFB2BB421A463FF6C0
:103CA00048AF94F8C421002A00F09A8194F8C571B5
:103CB000002F40F0C1814FF48C79002B00F0C280BE
:103CC0000AE000BF8887FF1F1996FF1F04A9FF1F86
:103CD000500901009CFD000094F831220133134487
:103CE000039ABEB212680B9233449BB2FF2B0B9A1D
:103CF0009CBF1B029BB209FB02F203FB02F3C3F35E
:103D00000E43A3F580439BB25D04C3F3CA0203D5FF
:103D1000C2F5FF62073292B2110AC2F346021BF8E3
:103D200001503AF8111005FB02151804ADB294F8D1
:103D3000281294F8C23194F82F22009148BF6D42A6
:103D4000414609A82DB207F043F8A5F50043262205
:103D50009BB202FB03F31B0C70339BB203EB4303D8
:103D6000E118E25C9DF8240082FA50F2E2549DF8DA
:103D700025304A7882FA53F24A708B789DF82620D3
:103D800083FA52F38B7094F8312294F83032134452
:103D900001331E44039B1B680A93B6B2FF2E0A9A96
:103DA0009CBF3602B6B209FB02F206FB02F2C2F376
:103DB0000E4202F580425104C2F3CA0303D5C3F593
:103DC000FF6307339BB2180AC3F346011BF8005088
:103DD0003AF8103005FB013312049BB248BF5B4236
:103DE00094F8281294F82F221DB209A894F8C23131
:103DF0000091414606F0ECFFA5F500439BB203EBB2
:103E0000C30203EB82031B0C4B339BB203EB430354
:103E1000E118E25C9DF8240082FA50F2E2549DF829
:103E200025304A7882FA53F24A708B789DF8262022
:103E300083FA52F38B70013794F83032FFB2BB42F1
:103E40003FF64AAF0DB0BDE8F08F002A00F0B78111
:103E5000754BDFF8DCB1DFF8DCA1039304F5E478FF
:103E600000270DF12C09BEB29319039A94F8311270
:103E7000126805920B44FF2B059A98BF1B024FF462
:103E80008C7198BF9BB201FB02F203FB02F3C3F3F8
:103E90000E4303F580435D04C3F3CA0203D5C2F5A4
:103EA000FF62073292B2100AC2F346011BF80050BB
:103EB0003AF8102005FB0122180492B248BF55427F
:103EC00094F8281294F8C23154BF15B22DB294F868
:103ED0002F2200914846414606F07AFFA5F500439F
:103EE00026229BB202FB03F31B0C25339BB203EB90
:103EF0004303E118E25C9DF82C0082FA50F2E25490
:103F00009DF82D304A7882FA53F24A708B789DF8EA
:103F10002E2083FA52F38B7094F8312294F83032C9
:103F200016441E44039B1B680493FF2E049B98BFFA
:103F300036024FF48C7298BFB6B202FB03F306FB55
:103F400003F3C3F30E43A3F580439BB25904C3F3B9
:103F5000CA0203D5C2F5FF62073292B2100AC2F359
:103F600046011BF800503AF8102005FB01221E0400
:103F700092B248BF524294F8281294F8C23115B256
:103F8000484694F82F220091414606F021FFA5F5FE
:103F9000004326229BB202FB03F31B0C03EB4303FB
:103FA000E118E25C9DF82C0082FA50F2E2549DF890
:103FB0002D304A7882FA53F24A708B789DF82E2081
:103FC00083FA52F38B7094F830320137FFB2BB4260
:103FD0001A463FF648AF94F8C421002A7FF466AE33
:103FE00004F1E1012346227883F8BF21627883F847
:103FF000C021A27883F8C1210334A142A3F10303B5
:10400000F1D10DB0BDE8F08F02EB820202FA00F3AD
:1040100084F83332054B1B78002B3FF46AAD204601
:10402000FFF72EF865E500BF04A9FF1F1996FF1FD3
:10403000500901009CFD0000002B3FF403AF002756
:1040400094F8312201331344039ABEB212680992E4
:1040500033449BB2FF2B099A98BF1B024FF48C711B
:1040600098BF9BB201FB02F203FB02F3C3F30E43C2
:1040700003F580435D04C3F3CA0203D5C2F5FF62B2
:10408000073292B2110AC2F346021BF801503AF805
:10409000111005FB02151804ADB294F8281294F81B
:1040A000C23194F82F22009148BF6D4241464846E4
:1040B0002DB206F08DFEA5F5004326229BB202FB31
:1040C00003F31B0C70339BB203EB4303E118E25C78
:1040D0009DF82C0082FA50F2E2549DF82D304A7877
:1040E00082FA53F24A708B789DF82E2083FA52F3AD
:1040F0008B7094F8312294F83032134401331E440B
:10410000039B1B680893B6B2FF2E089B98BF36022C
:104110004FF48C7298BFB6B202FB03F306FB03F3B5
:10412000C3F30E43A3F580439BB25904C3F3CA0201
:1041300003D5C2F5FF62073292B2110AC2F34602FA
:104140001BF801503AF8111005FB02151E04ADB220
:1041500094F8281294F8C23194F82F22009148BFA5
:104160006D42414648462DB206F032FEA5F50043A9
:104170009BB203EBC30203EB82031B0C4B339BB2DA
:1041800003EB4303E118E25C9DF82C0082FA50F245
:10419000E2549DF82D304A7882FA53F24A708B78B7
:1041A0009DF82E2083FA52F38B70013794F8303249
:1041B000FFB2BB423FF644AF0DB0BDE8F08F94F8BC
:1041C000C431002B3FF40CAF3CE600BF1A4B1B4A36
:1041D0001B7800211170042B08D8DFE803F00F1EB4
:1041E00003270900164B1B8880F87932FDF7F6BFCC
:1041F000134B1B8880F83132FDF7F0BF104B1B8842
:10420000002B14BF0123002380F8C43114BF962370
:104210004B23A0F83C33FDF7E1BF094B1B8800336B
:1042200018BF012380F87B32FDF7D8BF044B1B88F1
:1042300080F87832FDF7D2BF669EFF1F1996FF1FE8
:10424000649EFF1F90F82E322DE9F0410446002BAA
:104250005CD1694884F82A32038803EB432203EBDC
:10426000820303F5585319339BB203EB432203EB4C
:10427000820202F55852193292B202EB422102EB4D
:10428000810101F55851193189B201EB412601EB49
:10429000860606F5585603EB1323DBB21936B6B281
:1042A00003EBC30706EB162503EB4703EDB21B1226
:1042B00005EB850501334FF0010E01EB1121ED11E6
:1042C000DBB2C1F3C0170680033506260F20734505
:1042D000E9B284F8C47184F82EE284F87BE284F8B1
:1042E0002D6284F8C30100F0858002EB1222D2B265
:1042F00002EB420212127244D2B284F8793284F88C
:10430000782284F831122046FDF768FF3B4B1B787A
:10431000002B6BD194F8C53143BB94F87A2294F802
:1043200078321A4494F87B32D2B284F87A224BBBAA
:1043300094F8C431002B51D194F879324B212046A6
:1043400006F034FC204604F1E1012346027883F8AC
:10435000BF21427883F8C021827883F8C1210330DD
:104360008842A3F10303F1D1BDE8F08194F87A32D9
:1043700094F878229A1A94F87B32D2B284F87A228E
:10438000002BD5D094F879322521204606F00EFC7A
:1043900004F16F05234621462246107881F8DE009D
:1043A000507881F8DF00907881F8E0000332AA426B
:1043B000A1F10301F1D104F1E1012046027883F873
:1043C000BF21427883F8C021827883F8C12103306D
:1043D0008842A3F10303F1D1BDE8F08194F879326A
:1043E00020469621BDE8F04106F0E0BB2046FFF7ED
:1043F000EDFE8FE71A4680E78887FF1F1996FF1F9B
:10440000F0B590F82E3283B00446002B5CD19C4866
:1044100084F82A32038803EB432203EB820303F57B
:10442000585319339BB203EB432203EB820202F58C
:104430005852193292B202EB422102EB810101F58E
:104440005851193189B201EB412601EB860606F578
:10445000585603EB1323DBB21936B6B203EBC3078E
:1044600006EB162503EB4703EDB21B1205EB8505A2
:1044700001334FF0010E01EB1121ED11DBB2C1F35D
:10448000C0170680033506260F207345E9B284F86D
:10449000C47184F82EE284F87BE284F82D6284F8FB
:1044A000C30100F0EB8002EB1222D2B202EB420217
:1044B00012127244D2B284F8793284F8782284F8E5
:1044C00031122046FDF78AFE6E4B1B78002B40F020
:1044D000C98094F8C5316C4A002B61D112680092F2
:1044E000009994F8313294F878524FF48C7202FBB0
:1044F00001F21B0203FB02F31B0ED9B2480600F1C6
:10450000A98001F03F0201F00F0060491211520032
:104510008E18895C727812FB00F001EB2011CAB290
:10452000190648BF524252B294F87A32803AD2B257
:104530002B4402EB420203EBE21294F87B32D2B23C
:1045400084F87A22002B60D094F879322521204615
:1045500006F02CFB04F16F05234621462246107815
:1045600081F8DE00507881F8DF00907881F8E00073
:104570000332AA42A1F10301F1D104F1E101204685
:104580001A7880F8BF215A7880F8C0219A7880F88C
:10459000C12103338B42A0F10300F1D103B0F0BD80
:1045A00012680192019994F8313294F878524FF4DC
:1045B0008C7202FB01F21B0203FB02F31B0ED9B249
:1045C0004A063FD401F03F0201F00F002F491211BB
:1045D00052008E18895C727812FB00F001EB2011FA
:1045E000CAB21B0648BF524252B294F87A32803A9D
:1045F000D2B25B1B02EB4202A3EBE21294F87B32D5
:10460000D2B284F87A22002B9ED194F8C4316BBBCD
:1046100094F879324B21204606F0C8FA204604F17E
:10462000E10123461A7880F8BF215A7880F8C0212A
:104630009A7880F8C12103339942A0F10300F1D1A7
:1046400003B0F0BDC943CAB202F00F00013002F05E
:104650003F02BBE7C943CAB202F00F00013002F0CB
:104660003F0252E72046FFF7B1FD32E794F8793276
:104670002046962106F09AFA03B0F0BD1A461AE7D2
:104680008887FF1F1996FF1F04A9FF1F24FF000042
:10469000F0B590F82C429DF818609DF81CE00B25B1
:1046A00001270F3C80F82D52BC424FF00F0580F8D7
:1046B000C35180F82E729DF814503DD900234B242D
:1046C00080F87C5280F87E6280F8181380F81923F5
:1046D00080F81BE380F82A3280F8173380F81643FD
:1046E0001F4C238803EB432203EB820303F558534B
:1046F00019339BB203EB432203EB820202F55852BB
:10470000193292B203EB132302EB1221DBB2C9B2CE
:1047100003EB430301EB41010A3D0A3EC3EBC30334
:10472000C1EBC10105EB232306EB212180F87D328B
:10473000228080F87F12F0BD80F82A7280F87C52C7
:1047400080F87E6280F8181380F8192380F81BE344
:1047500012B1252280F8172380F81633C0E700BF76
:104760008887FF1F194B1A4A1B7800211170052BEF
:1047700008D8DFE803F00F151B032109154B1B8830
:1047800080F87F32FDF72ABD124B1B8880F81B335F
:10479000FDF724BD0F4B1B8880F87C32FDF71EBD52
:1047A0000C4B1B8880F87E32FDF718BD094B1B8827
:1047B00080F87D32FDF712BD064B1B88003318BF11
:1047C000012380F81833FDF709BD00BF669EFF1F67
:1047D0001996FF1F649EFF1F2DE9F04390F82E32BB
:1047E000C54D87B00446002B00F01082C34B1B78E8
:1047F000002B40F0078294F81633002B00F0BA82A9
:1048000094F87E122A8801EB81014F0003F27F2E7B
:1048100097FBF3F70237FFB2A64404F27F2602EBC0
:10482000422102EB810202F55852193292B202EB98
:10483000122116F8010FC9B211FB07F1A0EB1121EB
:1048400021EAE171B6453170E9D12A80DF1E012FDE
:1048500016DD03F51F7003F27E2EDFF8A4C220449C
:10486000A64404F52078017810F8016D01EB4601AB
:104870008CFB0196A6EBE17140450EF8011DF2D1CB
:1048800002EB422102EB810202F55852193292B238
:1048900002EB122194F87C622A80C9B28E429648BB
:1048A00026D902EB422102EB810202F5585219325D
:1048B00092B202EB422602EB860606F558561936EE
:1048C000B6B206EB162102EB1222C9B2D2B201EB4C
:1048D000410EC2EBC20204EB2222C1EB4E110912BF
:1048E0000680603992F8800280FA51F082F88002E6
:1048F00094F818C3BCF1000F7AD1002B00F02F827E
:1049000094F87F122A8801EB81014E0003F2CA2E2F
:1049100096FBF3F60236F6B2A64404F2CA2002EB86
:10492000422102EB810202F55852193292B202EB97
:10493000122110F8018FC9B211FB06F1A8EB112169
:1049400021EAE17170450170E9D12A80012F16DD5D
:1049500003F2C72003F2C927DFF8A4E1204427446B
:1049600004F2CB28017810F8016D01EB46018EFBB3
:104970000196A6EBE171804507F8011DF2D102EB2B
:10498000422102EB810202F55852193292B202EB37
:10499000122194F87D622A80C9B28E42564827D9E6
:1049A00002EB422102EB810202F55852193292B217
:1049B00002EB422502EB850505F55855193502EB4A
:1049C0001222ADB2D2B205EB1521C2EBC202C9B2BE
:1049D00004EB222201EB4106C1EB461192F8CB62B7
:1049E000058009126039304680FA51F082F8CB0216
:1049F00094F8C521002A5ED1002B00F0D38004F288
:104A00007F279046B94605AE013BC8EB030505EB91
:104A1000450519F8011F304606F0B8F99DF8143025
:104A2000635525449DF816309DF815206A70AB70CB
:104A300094F8163308F101084345E5DC94F819238E
:104A40000AB394F8C521002A40F049819046002B12
:104A500000F08A8108EB030517F8011F304606F0C5
:104A600095F905EB45039DF81420E25423449DF885
:104A700015109DF8162059709A7094F8163308F1A5
:104A800001084345E6DC94F81823002A3AD004F1E3
:104A9000E1012346227883F8BF21627883F8C021A0
:104AA000A27883F8C1210334A142A3F10303F1D119
:104AB00007B0BDE8F083002B00F0538104F27F279C
:104AC000B94625464FF0000805AE19F8011F3046DB
:104AD00006F05CF99DF816309DF814109DF815202D
:104AE00029706A70AB7094F8163308F101084345D9
:104AF00005F10305E9DCA1E78887FF1F1996FF1F71
:104B00005655555594F8C521002A56D0002BCFD0C4
:104B100004F2CA27B94625464FF0000805AE19F839
:104B2000011F304606F032F99DF816309DF814103A
:104B30009DF8152085F8BF1185F8C02185F8C13191
:104B400094F8163308F101084345A5F10305E6DCA6
:104B500094F81923002AABD094F8C521002A00F05C
:104B6000DD80002BA4D025464FF0000817F8011F68
:104B7000304606F00BF99DF816309DF814109DF89C
:104B8000152085F8E11085F8E22085F8E33094F8E7
:104B9000163308F10108434505F10305E6DC07B0CB
:104BA000BDE8F08394F81933002B40F0DD80BCF1B0
:104BB000000F7FF46CAF94F81633002B3FF478AFFE
:104BC00004F2CA27B9464FF0000805AE94F817530F
:104BD00019F8011F4B35454405EB4505304606F0F5
:104BE000D5F89DF81430635525449DF816309DF88E
:104BF00015206A70AB7094F8163308F1010843452C
:104C0000E4DCA5E72046FFF7ADFDF4E52B8803EBD8
:104C1000432103EB810101F55851193189B201EBB0
:104C2000412201EB820202F55852193292B202EB94
:104C3000422E02EB8E0E0EF5585E0EF1190E1FFA83
:104C40008EFE0EEB4E260EEB860606F558561936EE
:104C5000B6B206EB462306EB830303F5585319332C
:104C60009BB203EB432703EB870706EB16260EEBFD
:104C70001E2E07F5585703EB1323F6B25FFA8EFE8C
:104C80001937DBB2C6EB0616BFB2B6110EEB8E0CAF
:104C9000C3EB03130EEB4C0E9B1106F1320C07EB2A
:104CA00017263C334FEA2E2EC6F381165FFA83F89F
:104CB0005FFA8CFC01360EF1140301EB112102EBBB
:104CC0001222CDF800C0CDF804800296C1F3C011C5
:104CD000C2F3C012DBB22F80FFF7DAFC86E5002BAF
:104CE00042D025464FF0000817F8011F304606F065
:104CF0004DF89DF816309DF814109DF8152085F894
:104D0000DE1085F8DF2085F8E03094F8163308F1DE
:104D100001084345A5F10305E6DCB4E69046002B07
:104D20003FF4C6AE4B33C8EB030505EB450517F85A
:104D3000011F304606F02AF89DF8143063552544CB
:104D40009DF816309DF815206A70AB7094F81633F4
:104D500008F101084345E5DC07B0BDE8F0832A8887
:104D6000F4E594F819333BB194F81833002B7FF431
:104D70008EAE9DE62A8869E5BCF1000F7FF487AE10
:104D800094F81633C2E600BF2DE9F04F90F82E32AA
:104D9000D04D87B00446002B00F0DA81CE4B1B7853
:104DA000002B40F0428294F816C36346BCF1000F1A
:104DB00000F03F8294F87E122A8801EB81014F00B7
:104DC0000CF27F2E97FBFCF70237FFB2A64404F2E9
:104DD0007F2602EB422102EB810202F55852193282
:104DE00092B202EB122116F8010FC9B211FB07F1C2
:104DF000A0EB112121EAE171B6453170E9D194F8B7
:104E000018632A80002E00F06B81ACF10307012F9C
:104E10004FF001091ADD0CF51F700CF27E26DFF849
:104E2000BC822044264404F5207E017810F801ADB0
:104E300001EB4A0188FB01BAAAEBE171864506F84D
:104E4000011DF2D1B9F1000F00F02C8102EB4221DB
:104E500002EB810202F55852193292B202EB122093
:104E600094F87C622A80C0B286429A4928D902EB23
:104E7000422002EB800202F55852193292B202EB44
:104E8000422602EB860606F55856193602EB122228
:104E9000B6B2D2B206EB1620C2EBC202C0B204EB2D
:104EA000222200EB40070E80C0EB471092F8806290
:104EB0000012A0F16001304680FA51F082F88002C1
:104EC000B9F1000F12D12A8894F87D62814902EB72
:104ED000422002EB800202F55852193292B202EBE4
:104EE0001220C0B286422A8000F2AF80BCF1000FCF
:104EF00000F0A48104F27F2700260DF11409C3F10C
:104F00004B039D1905EB450517F8011F484605F0B1
:104F10003DFF9DF81430635525449DF816309DF8EB
:104F200015206A70AB7094F816330136B342E6DC94
:104F300094F81863002E75D104F2CA27002B00F0F4
:104F400083814A339D1B05EB450517F8011F484631
:104F500005F01CFF9DF81430635525449DF816306C
:104F60009DF815206A70AB7094F816330136B34281
:104F7000E7DC4B2B47D00DF1140904F5E47B274601
:104F8000264600254FF0010A94F81A23CDF800A018
:104F9000C5EB052898FBF3F31A44D2B2FF23594618
:104FA000484605F015FF9DF814109DF815209DF852
:104FB000163031707270B37094F81A3394F8162367
:104FC00098FBF2F808EB0302D2B2FF235946CDF862
:104FD00000A0484605F0FCFE9DF815209DF816300F
:104FE0009DF8141087F8C02187F8BF1187F8C131E8
:104FF00094F816330135C3F14B02AA4206F10306B9
:10500000A7F10307C0DC94F8C531002B40F096806F
:1050100094F81A3394F81B239B1A84F81A3307B0B8
:10502000BDE8F08F214604F1E1052246107881F8B1
:10503000BF01507881F8C001907881F8C101033236
:105040009542A1F10301F1D193E702EB422002EB7B
:10505000800202F55852193292B202EB422502EB5D
:10506000850505F55855193502EB1222ADB2D2B2BD
:1050700005EB1520C2EBC202C0B204EB222200EB0A
:105080004006C0EB461092F8CB620D8001126039E9
:10509000304680FA51F082F8CB02BCF1000F7FF469
:1050A00029AFCFE00CF2C7260CF2C92EDFF82C8016
:1050B0002644A644317816F8010D01EB400188FB27
:1050C00001A0013FA0EBE171012F0EF8011DF1D10C
:1050D000BCE600BF8887FF1F1996FF1F5655555520
:1050E00094F87F1201EB81014FEA410E9EFBFCFE1A
:1050F0000EF1020E5FFA8EFE04F2CA2702EB422185
:1051000002EB810202F55852193292B202EB1221DF
:1051100017F8010FC9B211FB0EF1A0EB11210136F6
:1051200021EAE17166453970E8DB2A80ACF10307BA
:10513000012F4FF000093FF76EAE87E694F81A236F
:1051400094F81B33134484F81A3307B0BDE8F08F8A
:105150002B8803EB432103EB810101F558511931F1
:1051600089B201EB412201EB820202F55852193259
:1051700092B202EB422E02EB8E0E0EF5585E0EF14D
:10518000190E1FFA8EFE0EEB4E260EEB860606F566
:1051900058561936B6B206EB462306EB830303F5E1
:1051A000585319339BB203EB432703EB870706EBF6
:1051B00016260EEB1E2E07F5585703EB1323F6B2F7
:1051C0005FFA8EFE1937DBB2C6EB0616BFB2B61118
:1051D0000EEB8E0CC3EB03130EEB4C0E9B1106F182
:1051E000320C07EB17263C334FEA2E2EC6F38116FE
:1051F0005FFA8CFC5FFA83F801EB11210EF11403C6
:1052000002EB12220136CDF800C0CDF804800296E0
:10521000DBB2C1F3C011C2F3C0122F80FFF738FA1E
:105220000B4B1B78002B3FF4BEAD2046FFF79AFADC
:10523000B9E594F818234AB12A88E6E5B9F1000FD8
:105240007FF4F0AE0DF11409002396E62A886DE78D
:105250001996FF1F0E4B0F4A1B78002111703BB1AE
:10526000012B03D10C4B1B8880F83E33FCF7B6BFF3
:10527000094B1B88002B14BF0123002380F8C43185
:1052800014BF96234B23A0F83C33FCF7A7BF00BF05
:10529000669EFF1F1996FF1F649EFF1FF0B590F8D2
:1052A0002E324B4E85B004468BBB338803EB432232
:1052B00003EB820303F5585319339BB203EB4321ED
:1052C00003EB810101F55851193189B201EB11222B
:1052D000D2B2C2EB0212121203EB132301200632E8
:1052E000C3F3C01314270F253180D2B284F8C43120
:1052F00084F82E0284F82A0284F82D7284F8C351AF
:10530000002B5CD14B23A4F83C3384F83E23314B73
:105310001B78002B57D194F83E232046962105F0A8
:10532000F7FC3288B4F83C5302EB422302EB8302D1
:1053300002F5585319339BB203EB432703EB87075E
:1053400007F558571937BFB207EB172203FB05F3D0
:1053500001211D0C009103A804F5E471D2B2FF23D2
:10536000378005F035FD05EB4503E118E25C9DF85B
:105370000C0082FA50F2E2549DF80D304A7882FA1D
:1053800053F24A708B789DF80E2083FA52F38B709B
:1053900094F8C4318BB9204604F1E10123461A7810
:1053A00080F8BF215A7880F8C0219A7880F8C1210E
:1053B00003338B42A0F10300F1D105B0F0BD962379
:1053C000A4F83C33A1E72046FFF744FFA3E700BF62
:1053D0008887FF1F1996FF1F244B254A1B78002141
:1053E0001170092B0AD8DFE803F0101E23282D3294
:1053F00037053C0B1F4B1B8880F84F33FCF7EEBE84
:105400001C4B1B8880F84533F8E71A4B1B88002B90
:1054100014BF0123002380F8C43114BF96234B230B
:10542000A0F83C33EAE7134B1B8880F83F33E5E7ED
:10543000104B1B8880F84033E0E70E4B1B8880F848
:105440004133DBE70B4B1B8880F84233D6E7094B2F
:105450001B8880F84633D1E7064B1B8880F843331E
:10546000CCE7044B1B8880F85033C7E7669EFF1FCC
:105470001996FF1F649EFF1F2DE9F04F90F82E3202
:1054800085B00446002B40F0BE80DFF82CC3BCF88A
:10549000003003EB432603EB860606F55856193613
:1054A000B6B206EB462106EB810101F558511931E0
:1054B00089B201EB412501EB850505F558551935F4
:1054C000ADB205EB452305EB830303F558531933C0
:1054D0009BB203EB432703EB870707F558571937B0
:1054E000BFB207EB472007EB800000F5585019309A
:1054F00080B200EB402200EB820202F558521932D2
:1055000092B202EB422E02EB8E0E0EF5585E0EF1B9
:10551000190E1FFA8EFE0EEB4E280EEB880808F5CA
:10552000585803EB132301EB112102EB122208F16F
:1055300019081FFA88F8DBB2C9B2D2B208EB1829F1
:1055400002EB820203EB830301EB41014FEAA21A53
:1055500003EB83035FFA89F200EB1020091205EBDD
:1055600015259B110131C5F3421502EB820206EBB2
:10557000162607EB1727C0B203F16409ACF80080C8
:105580000AF11403C6F3C016C7F3811700EB8000BD
:105590000EEB1E2E5FFA81FA4FF01508691DC2F35B
:1055A000C71C01250F2284F8C4615FFA89F901370D
:1055B000C0F30720DBB25FFA8EFE84F82E5284F827
:1055C0002A5284F82D8284F8C321002E40F0E8800E
:1055D0004B22A4F83C23764D84F83FA3A5FB03257A
:1055E00001EB9502002184F8419384F8427384F81A
:1055F000460384F8433384F84FE384F850C384F8B7
:10560000402384F845136B4B1B78002B40F0CC8073
:1056100094F8451394F83F3394F8C5210B44DBB25A
:1056200084F8453384F84433002A00F0B18094F8BC
:10563000462394F84033134484F84633B4F83C339B
:10564000002B00F08E8004F5E4792546671C0026C7
:105650004FF0FF085CE00029BCBFD243D2B2520039
:10566000D2B2531C03FB02F2121202FB03F31B1211
:1056700002EB4202A2EB430292B2D30554BF5FFA9F
:1056800082FB4FF0FF0BC0EB0B0B5FFA8BFB94F828
:10569000502394F84F338DF80E20294603A88DF837
:1056A0000C308DF80D8005F091FD94F8443394F89A
:1056B0003F2394F82812009102FB0A32D2B25B46D3
:1056C000494603A805F084FB17F8013C9DF80C201F
:1056D00083FA52F307F8013C6A789DF80D3082FA9C
:1056E00053F26A70AB789DF80E2083FA52F3AB70D8
:1056F00094F8441394F84233B4F83C2301360B4435
:10570000B24205F1030507F1030784F8443328DDAD
:1057100094F8433394F846235FFA86FA03FB0A228F
:10572000D2B251B20029BABFD343DBB213465B00F9
:10573000DBB2581C00FB03F31B1203FB00F000124A
:1057400003EB4303A3EB40039BB2D80594F841035A
:1057500054BFDBB2FF239842FFF47DAF4FF0000B44
:1057600095E794F8C43183B904F1E1012346227826
:1057700083F8BF21627883F8C021A27883F8C12121
:105780000334A142A3F10303F1D105B0BDE8F08FCA
:1057900094F8463394F840239B1A84F846334DE737
:1057A0009622A4F83C2316E72046FFF715FE2FE7C4
:1057B000CDCCCCCC1996FF1F8887FF1F074B084A1A
:1057C0001B780021117033B9064B1B885B1A18BF78
:1057D000012380F8C731FCF701BD00BF669EFF1FA3
:1057E0001996FF1F649EFF1F70B5044682B01B4DC3
:1057F000022006F059F92B88184400EB402300EBF7
:10580000830043F21963184480B200EB102200EBCE
:10581000402100EB8100D2B2034402EB82029BB232
:105820009211002603EB13211B3284F8512384F8D4
:10583000521384F8546384F8536384F85C632046FD
:1058400001AA96212B808DF804608DF805608DF8F3
:10585000066005F09BF902B070BD00BF8887FF1F8E
:105860002DE9F04F90F85C3387B00290002B00F0E8
:10587000898090F851330393064618465D4B1B8888
:1058800003EB432403EB840404F558541934A4B205
:1058900004EB1423DBB203EB830903EBC9094FEAE2
:1058A000292909F1140901235FFA89F986F854338B
:1058B00086F85D9308F08EFC06F5577B06F5AF6A17
:1058C0005B4606F24C4806F23F57D346019006F578
:1058D000CD6600259A4604EB442304EB830404F5CB
:1058E00058541934A4B2732303FB04F0000C019B39
:1058F0004AF8043F0A3080B208F06CFC3E4908F0D8
:1059000075FD04EB442304EB830303F5585319336B
:105910009BB203EB432403EB840404F5585419347D
:10592000A4B204EB1421C9B201EB810103EB1323F0
:105930000912C3F3C0130A3148F8040F07F8013FF6
:10594000C8B208F047FC0135EBB22C4A4BF8040F03
:10595000994546F8042FBED8039A029E254FC2F1FE
:10596000950102EB420301EB4101F5187018FF228B
:105970003C80F2546A70AA7072544270827007B010
:10598000BDE8F08F029D95F8533395F8511395F8C3
:1059900052238DF814200533DBB201EB410185F869
:1059A0005333294405A8FF248DF816308DF815408F
:1059B00005F00CFC95F8511395F8523395F85323E4
:1059C0008DF81430C1F1950101EB410105A829447E
:1059D0008DF815408DF8162005F0F8FB95F8533337
:1059E000FF2BCCD1029A012382F85C3307B0BDE8CB
:1059F000F08F00BF8887FF1F0000C84200007F4370
:105A00002DE9F047654B054682B01A78962105F0DE
:105A10007FF995F85D43002685F85C67002C7ED001
:105A2000DFF890914FF0FF083BE0D4F86013504648
:105A300008F020FB07460021384608F0C1FD584910
:105A4000002868D1384608F0D9FD00B1544FC4F899
:105A500060735146D9F8000008F014FC4FF06E5105
:105A6000C4F85004D4F87C0508F00CFC01464FF053
:105A70007E5008F0FDFAD4F86C1608F003FCC4F868
:105A80006C0608F0EBFD95F85C37C0B2834206F176
:105A9000010695F85D3338BF85F85C07F6B2B3426E
:105AA0003BD905EB8604D4F8600308F0B1FD074646
:105AB000D4F86C0608F0D2FD95F852338DF8020048
:105AC00001A968468DF800308DF8018005F07EFB55
:105AD00007EB470029182B5C9DF8042083FA52F34A
