:1000000000800020BD01000031670000E9660000AB
:10001000E9660000E9660000E9660000E9660000A4
:10002000E9660000E9660000E9660000316700004B
:1000300031670000E96600005D7B0000617C000024
:100040003167000031670000316700003167000050
:100050003167000031670000316700003167000040
:100060003167000031670000316700003167000030
:100070003167000031670000316700003167000020
:100080003167000031670000316700003167000010
:100090003167000031670000316700003167000000
:1000A00031670000316700003167000031670000F0
:1000B00031670000316700003167000031670000E0
:1000C00031670000316700003167000031670000D0
:1000D00031670000316700003167000031670000C0
:1000E00031670000316700003167000031670000B0
:1000F00031670000697E000031670000957F0000D5
:1001000031670000C18000003167000031670000E6
:10011000316700003167000031670000316700007F
:10012000316700003167000031670000316700006F
:10013000316700003167000031670000316700005F
:10014000316700003167000031670000316700004F
:10015000316700003167000031670000316700003F
:1001600031670000796B00003167000031670000E3
:10017000316700003167000031670000316700001F
:10018000316700003167000031670000316700000F
:1001900031670000316700003167000031670000FF
:1001A00031670000316700003167000031670000EF
:1001B000316700003167000031670000564B4CF298
:1001C000205210B51A804DF628121A8000BF00BFC9
:1001D00006F0B2FA514B4FF010621A60504A9A6022
:1001E000504ADA60504A136813F4807304D14F49BF
:1001F0000B604FF4A85313604D4B1A78110703D5C9
:100200001A7842F008021A704A4B4B492A221A7097
:100210004A4A4B4B8B4204D252F8040F43F8040B6A
:10022000F8E7484B484900228B4202D243F8042B9E
:10023000FAE74649464A002352F8230041F82300D2
:1002400001336F2BF8D1434B434A802103F8011B44
:100250009342FBD1414B3D4A1A60414B8A221A70AE
:10026000A3F5805324225A70A0221A709A7992071B
:10027000FCD59A79D406FCD43A4A937903F00C035E
:10028000082B384BF9D103221A7140225A719A79FE
:100290009006FCD5334A9179324B4906FBD5324A58
:1002A000324911600221516020221A709A7902F0BD
:1002B0000C020C2AFAD12E4B2E4A1A602E4B2F4AD2
:1002C0001A6000225A60072243F8042C2C4AC3F813
:1002D0000C2D62B606F006FB144B1B68DA0705D539
:1002E000284806F077FA284B284A1A60284B1B78D2
:1002F0005B0609D5244C254B22689A4204D121483B
:1003000006F068FA0023236008F0A8FA06F01AFA4B
:1003100007F0AEFCFEE700BF0E2005403080044031
:10032000823F04000100002B10D0034014D0034092
:1003300002D0074000E007402C8CFF1F0CB30000E8
:100340002087FF1F2C8CFF1F20A0FF1F0082FF1F94
:100350000000000000E400E05FE400E008ED00E0E1
:100360000050064000400640448004400000030165
:1003700004800440C010050014E000E0FF76010096
:1003800000002020F8092F5E1CE00340A5C3945A0A
:1003900000F00740FFFFFFFFFFFFFFFFFFFFFFFF32
:1003A000FFFFFFFFFFFFFFFFFFFFFFFFFFFFFFFF5D
:1003B000FFFFFFFFFFFFFFFFFFFFFFFFFFFFFFFF4D
:1003C000FFFFFFFFFFFFFFFFFFFFFFFFFFFFFFFF3D
:1003D000FFFFFFFFFFFFFFFFFFFFFFFFFFFFFFFF2D
:1003E000FFFFFFFFFFFFFFFFFFFFFFFFFFFFFFFF1D
:1003F000FFFFFFFFFFFFFFFFFFFFFFFFFFFFFFFF0D
:10040000FFFFFFFFFFFFFFFFFFFFFFFFDEF9FFFF23
:1004100010B5054C237833B9044B13B10448AFF33E
:1004200000800123237010BD2C8CFF1F00000000F2
:1004300010B30000084B10B51BB108490848AFF3D2
:1004400000800848036803B910BD074B002BFBD0A0
:10045000BDE81040184700BF00000000308CFF1FAF
:1004600010B300002C8CFF1F000000004069704793
:10047000002070474268017B13780B43137070476C
:100480004268017B137823EA01031370704700BFB1
:1004900010B5012104460E2006F0AEF90720012117
:1004A00006F0AAF9A06958B10368074A5B6893424D
:1004B00007D14268017B137823EA0103137010BD52
:1004C00010BDBDE81040184781040000F0B58BB0A6
:1004D000002305688DF804308DF805308DF806305E
:1004E0002E68374A8DF8083096428DF809308DF81D
:1004F0000A305FD1827C04910446012A01A805914B
:100500008DF81E308DF81F308DF82030039015D0F7
:100510008DF81D308DF81C308DF81B308DF81A3099
:100520008DF819308DF818300023AA698DF8213024
:100530002046099303A990470BB0F0BD214A1378D8
:10054000013303F0070313F0010F14BF80210021D2
:1005500013709A0744BF41F04001C9B25B0748BF1E
:1005600041F0200110310022C9B20DF11B030DF141
:100570001E074FF4807EAAB19EFBF2F2D2B2501C4D
:10058000C0B200FB01152D121870EEB205B1013E8C
:1005900003F8036C00B11A7001339F4208D0DA7877
:1005A000002AE9D11A7003F8032C01339F42F6D1D7
:1005B0002568B9E70A4602AB01A9B0470BB0F0BD08
:1005C000C9050000488CFF1FF0B5857C1C785E785B
:1005D0009B7889B0012D0191029203928DF816400B
:1005E0008DF817608DF8183016D000238DF815306F
:1005F0008DF814308DF813308DF812308DF81130DD
:100600008DF810300268002392698DF81930079335
:1006100001A9904709B0F0BD1B4A1378013303F0DC
:10062000070313F0010F137014BF802200229907F3
:1006300044BF42F04002D2B25B0748BF42F0200202
:100640001032D2B20DF113030DF116074FF4807E74
:10065000ACB19EFBF4F4E4B2611CC9B201FB02250B
:100660002D121970EEB205B1013E03F8036C01B111
:100670001C700133BB42C5D0DC78002CE9D11C7062
:1006800003F8034CF5E700BF488CFF1FF0B5857CED
:100690001C785E789B7889B0012D019102920392BB
:1006A0008DF816408DF817608DF8183017D000239C
:1006B0008DF815308DF814308DF813308DF8123018
:1006C0008DF811308DF810300368002203219B69EA
:1006D0008DF81910079201A9984709B0F0BD1B4A7F
:1006E0001378013303F0070313F0010F137014BFE5
:1006F00080220022990744BF42F04002D2B25B0739
:1007000048BF42F020021032D2B20DF113030DF1B6
:1007100016074FF4807EACB19EFBF4F4E4B2611C8A
:10072000C9B201FB02252D121970EEB205B1013ECE
:1007300003F8036C01B11C700133BB42C4D0DC78F8
:10074000002CE9D11C7003F8034CF5E7488CFF1F1F
:1007500070B5044608460D4608F032F92368024693
:10076000294620465B68BDE87040184738B5044606
:1007700008460D4608F024F92368024629465B68BE
:10078000204698470546204607F07AFA284438BDA7
:1007900038B50A220023054607F082FA04462846A7
:1007A00007F06EFA204438BD10B46FF4DF710DE02D
:1007B00001F2BF121A445B1A14781C7054785C70F2
:1007C000033192789A7011F1DE0F0AD090F900206F
:1007D0008368002AECDA6FF4DF72521A1A440B4471
:1007E000EAE710BC704700BF484B1B78002B00F0B5
:1007F0008B802DE9F04F9BB000F209230A93002370
:10080000434A0793DFF80C91099000F50E730892A4
:100810000B93002759F82730DBB20137FF2BBFB20B
:10082000F8D1D9F8003006974FF0FF32C3F3074AEA
:100830000592C3F3072B4FEA13680024D64659F8F4
:10084000045FC5F307464FEA241CC5F30727ECB243
:10085000F1B2C5F307650391E9B204915FFA8CF137
:10086000029106990F290DAA0EA84FEA14135FFAF8
:1008700087FA0CD805998C4507DC0F2905D0013182
:10088000C9B28B42029138BF0B4659B205910CA9EF
:10089000009102998DF834B08DF835E08DF83680EE
:1008A0008DF830708DF831608DF8325005F03EF8DB
:1008B000FF2CD346DDF80CE0DDF81080BFD10A9B99
:1008C0000EAA934218D0099B0B9C03F5027301E01A
:1008D000A34211D012F8011B13F8010F8842F7D080
:1008E0000A4B079A1B7801329342079209DD089B55
:1008F00053F8049F08938CE7099B9DF81C2083F80C
:100900003A221BB0BDE8F08F704700BF4087FF1F41
:1009100048970000549900002DE9F04FBE4B8BB072
:10092000002798688DF82470962109AA8DF8257003
:100930008DF8267004F0CAFFB74BB84983F8D87118
:1009400051F82730B54ADBB20137FF2BBFB2F7D1E0
:1009500013680797C3F30749C3F3072B4FEA1368DC
:100960004FF0FF33CE4606930024914659F8045FBA
:10097000AB48C5F30727C5F30746F9B24FEA241C75
:100980000491F1B205915FFA8CF103910799ECB2F1
:100990000F29C5F3076509AA4FEA14135FFA85FA10
:1009A0000CD806998C4507DC0F2905D00131C9B256
:1009B0008B42039138BF0B4659B2069108A90091AA
:1009C00003998DF824B08DF825E08DF826808DF8F8
:1009D00020708DF821608DF8225004F0A7FFFF2CC5
:1009E000DDF810B0DDF814E0D046BFD18D49002706
:1009F00051F827308B4ADBB20137FF2BBFB2F7D15A
:100A0000136807974FEA1368C3F3072BC3F307492B
:100A10004FF0FF33C64606930024904658F8045F13
:100A20007D4BC5F30727C5F30746F9B24FEA241CEF
:100A30000491F1B205915FFA8CF103910799ECB240
:100A40000F29C5F3076503F2092009AA4FEA141319
:100A50005FFA85FA0CD806998C4507DC0F2905D07A
:100A60000131C9B28B42039138BF0B4659B206918E
:100A700008A9009103998DF824B08DF825908DF880
:100A800026E08DF820708DF821608DF8225004F05A
:100A90004DFFFF2CDDF810B0DDF81490D646BDD127
:100AA0005D48FFF7A1FE604B604A18785A4B83F807
:100AB0003D02002312F8011F8142DCB203F1010361
:100AC00000F0E480142BF5D1594C00279621A06842
:100AD0008DF8247009AA8DF825708DF8267004F021
:100AE000F5FE0123534984F8D83151F82730514A93
:100AF000DBB20137FF2BBFB2F7D1136807974FEA7C
:100B00001368C3F3072BC3F307494FF0FF33C646FF
:100B100006930024904658F8045F4748C5F307271A
:100B2000C5F30746F9B24FEA241C0491F1B20591CE
:100B30005FFA8CF103910799ECB20F29C5F30765B1
:100B400009AA4FEA14135FFA85FA0CD806998C4566
:100B500007DC0F2905D00131C9B28B42039138BFA0
:100B60000B4659B2069108A9009103998DF824B05B
:100B70008DF825908DF826E08DF820708DF8216095
:100B80008DF8225004F0D2FEFF2CDDF810B0DDF815
:100B90001490D646BFD12949002751F82730274A5B
:100BA000DBB20137FF2BBFB2F7D1136807974FEACB
:100BB0001368C3F3072BC3F307494FF0FF33C6464F
:100BC00006930024904658F8045F194BC5F3072795
:100BD000C5F30746F9B24FEA241C0491F1B205911E
:100BE0005FFA8CF103910799ECB20F29C5F3076501
:100BF00003F2092009AA4FEA14135FFA85FA21D8F3
:100C000006998C451CDC0F291AD00131C9B28B42E0
:100C1000039138BF0B4613E0FC93FF1FD8980000E8
:100C2000D595FF1F04A800003987FF1F2387FF1FEA
:100C3000748CFF1F60A500004D8EFF1F48A60000AA
:100C400059B2069108A9009103998DF824B08DF846
:100C500025908DF826E08DF820708DF821608DF8B4
:100C6000225004F063FEFF2CDDF810B0DDF8149084
:100C7000D646A8D1074A084B104693F83C3282F872
:100C80003C32FFF7B1FD0BB0BDE8F08F024B83F8AB
:100C90003C4219E7748CFF1FFC93FF1FF8B520211D
:100CA0002A482B4C2B4F2C4E06F0E6FD2B4806F025
:100CB000E7FF2B492B4A0B8815782088DFF8B8E02E
:100CC00003EB432203EB820303F5585319339BB222
:100CD00003EB1322C2F38112033201303A702080F9
:100CE0000122214F2148327000220B808EF8002013
:100CF0003A7080F83F2295B990F83C221C4B0132A3
:100D0000A3FB02131B0903EB8303A2EB8303DBB2F8
:100D1000184A80F83C32D35C80F83D32F8BD03EBD2
:100D2000432203EB820202F55852193292B202EBCF
:100D30001223DBB203EB8303C3F387130A800D4A4C
:100D400080F83C32D35C80F83D32F8BDC099000099
:100D50006C8CFF1FEE93FF1FAC93FF1F4C87FF1F90
:100D60004287FF1FCC93FF1F6E8CFF1F748CFF1FE9
:100D7000CDCCCCCC2487FF1FB893FF1F2DE9F04FBB
:100D8000DFF8B4A0DFF8AC80264FDFF8B090002683
:100D900085B05546344698F90030D8F80810BA683E
:100DA000DFF898B0002B97F90030B4BF8919091902
:100DB000002BB4BF9219121999F8003003A804F05F
:100DC00077FE9DF80C300AF8043003349DF80D20AE
:100DD0009DF80E306A70B4F5E17FAB70A6F10306A2
:100DE00005F10305D7D1104E3368DB0740F11482BB
:100DF0000E4D0F4C2B68039394E80600039B5B1A7F
:100E000093421DD399F800302A6802920133029A66
:100E10002260DBB289F80030FF2B15D005B0BDE8A9
:100E2000F08F00BF748CFF1FE893FF1F609DFF1FB2
:100E3000B093FF1FFC93FF1F249BFF1F6E8CFF1FAF
:100E40009BF80030FF2BE9D1D8F80830D8F80C50C7
:100E5000E049E14CDFF8BCE3BA68FE680020AB4231
:100E6000087015D0B24213D094F900409EF90000EA
:100E700004EB440400EB400011781970517859706C
:100E80009178997023449D42024401D09642F3D157
:100E9000D24BD34A03F5E17512F8034C12F8020C59
:100EA00012F8011C03F8034C03F8020C03F8011CB0
:100EB00003339D4202F10302EED197F8D421C94BCE
:100EC00097F8D54197F8D60197F8D71188F8D4212B
:100ED000C54A88F8D54188F8D60103F1300488F86E
:100EE000D71119685D6898681160D968D1601033AE
:100EF000A3425560906002F11002F2D1BB4BBC4A94
:100F000003F1300118685D689C681060D868D06093
:100F100010338B425560946002F11002F2D197F8C1
:100F2000394297F83A0297F83B1297F83C2297F823
:100F30003D3297F83E5288F8394288F83A0297F8DD
:100F40003F4297F8400288F83B1288F83C2297F815
:100F5000411297F8422288F83D3288F83E5297F8BD
:100F6000433297F8445288F83F4288F8400297F895
:100F7000454297F8460288F8411288F8422297F8CD
:100F8000471297F8482288F8433288F8445288F884
:100F9000454288F8471288F84822964B88F846025E
:100FA00097F8490297F84A5297F84B4297F84C1233
:100FB00088F84A5288F84B4297F84D5297F84E42BB
:100FC00088F84C128C4A97F84F1288F8490288F832
:100FD0004D5203F14B0088F84E4288F84F1212F838
:100FE000011F03F8011B8342F9D1844903F14B002F
:100FF00011F8012F03F8012B8342774AF8D197F8B3
:10100000E64297F8E70297F8E81297F8E93297F87E
:10101000EA6297F8EB5282F8E64282F8E702B7F804
:10102000EC42B7F8EE0282F8E81282F8E932B7F83B
:10103000F01297F8F23282F8EA6282F8EB5297F8EF
:10104000F36297F8F452A2F8EC42A2F8EE02A2F88A
:10105000F01297F8F60297F8F71282F8F23297F842
:10106000F542B7F8F83282F8F36282F8F45282F867
:10107000F60282F8F712A2F8F83282F8F542B7F8D1
:10108000FA42B7F8FC02B7F8FE12B7F80033B7F827
:101090000263B7F80453A2F8FA42A2F8FC02B7F8C8
:1010A0000643B7F80803A2F8FE12A2F80033B7F817
:1010B0000A13B7F80C33A2F80263A2F8045397F8A6
:1010C0000E6397F80F53A2F80643A2F8080397F8A7
:1010D0001043A2F80A13A2F80C3397F8121397F8EA
:1010E000133397F8110382F80E6382F80F5382F8D6
:1010F000104382F8121382F8133382F8110397F821
:10110000140397F8153397F8166397F8175397F861
:10111000184382F8140382F8153397F8190397F8E7
:101120001A3382F8166382F8175382F8184382F84C
:10113000190382F81A3397F81B6397F8253397F849
:101140001C53D7F8204397F824032D4982F8253300
:1011500082F81B6382F81C53C2F8204382F82403F0
:1011600002F54A7302F5836251F8040F43F8040B49
:101170009342F9D1234A03F1F00052F8041F43F8D7
:10118000041B8342F9D1204A03F13C0012F8011FED
:1011900003F8011B8342F9D11C4A03F1F00052F815
:1011A000041F43F8041B8342F9D1194A03F1F000EC
:1011B00052F8041F43F8041B83420749F8D197F8FB
:1011C000243781F82437002381F8D83105B0BDE8F1
:1011D000F08F00BFAC93FF1FFC93FF1F0F94FF1F06
:1011E000878CFF1F4D8EFF1FD595FF1F7D8EFF1F24
:1011F0000596FF1F4C96FF1FC38EFF1F0E8FFF1F0C
:10120000988FFF1F8890FF1F7B91FF1FB491FF1FD6
:10121000A492FF1F748CFF1F304605F095FA0E4D07
:1012200060B90E4C2B68039394E80600039B5B1A8D
:101230009342BFF4E7AD99F80030EDE5084B2A681A
:101240001B78064C0192019A22609B003046636035
:1012500005F080FAE6E700BF609DFF1FB093FF1F17
:10126000EE93FF1F10B501210446944806F004FBDD
:10127000214600230A22924806F012FD02219148DD
:1012800006F0FAFA5C2C00F28182DFE814F07A02B0
:10129000750270026B02660261025C025702520222
:1012A0004D02480243023E02390234022F022A0252
:1012B000250220021B02160211020C020702020282
:1012C000FD01F801F301EE01E901E401DF01DA01BA
:1012D000D501D001CB01C601C101BC01B701B201EA
:1012E000AD01A801A3019E01990194018F018A011A
:1012F000850180017B01760171016C01670111019B
:101300000C0107010201FD00F800F300EE00E90006
:10131000E400DF00DA00D500D000CB00C600C10039
:10132000BC00B700B200AD00A800A3009E00990069
:1013300094008F008A00850080007B007600710099
:101340006C00670062005D005F495D48FFF70EFAC0
:1013500010BD5E495A48FFF709FA10BD5C4958486C
:10136000FFF704FA10BD5B495548FFF7FFF910BDC0
:1013700059495348FFF7FAF910BD58495048FFF74B
:10138000F5F910BD56494E48FFF7F0F910BD554923
:101390004B48FFF7EBF910BD53494948FFF7E6F911
:1013A00010BD52494648FFF7E1F910BD5049444885
:1013B000FFF7DCF910BD4F494148FFF7D7F910BDE1
:1013C0004D493F48FFF7D2F910BD4C493C48FFF763
:1013D000CDF910BD4A493A48FFF7C8F910BD49494F
:1013E0003748FFF7C3F910BD47493548FFF7BEF945
:1013F00010BD46493248FFF7B9F910BD444930489D
:10140000FFF7B4F910BD43492D48FFF7AFF910BD00
:1014100041492B48FFF7AAF910BD40492848FFF77A
:10142000A5F910BD3E492648FFF7A0F910BD3D497A
:101430002348FFF79BF910BD3B492148FFF796F978
:1014400010BD3A491E48FFF791F910BD38491C48B4
:10145000FFF78CF910BD37491948FFF787F910BD20
:1014600035491748FFF782F910BD34491448FFF792
:101470007DF910BD32491248FFF778F910BD3149A6
:101480000F48FFF773F910BD2F490D48FFF76EF9AC
:1014900010BD2E490A48FFF769F910BD2C490848CC
:1014A000FFF764F910BD2B490548FFF75FF910BD40
:1014B00029490348FFF75AF910BD00BFE49900001D
:1014C0004C87FF1FE89900007C9F0000709F000080
:1014D000609F0000509F00003C9F0000249F000080
:1014E0000C9F0000FC9E0000E49E0000D89E0000BF
:1014F000CC9E0000B49E0000A89E00009C9E0000B0
:10150000909E0000849E0000749E0000689E000073
:10151000549E0000489E0000389E00002C9E000053
:10152000209E0000189E0000049E0000F49D000014
:10153000E09D0000D49D0000C89D0000BC9D0000FF
:10154000AC9D0000989D00008C9D00007C9D0000DB
:10155000709D0000609D0000549D00008E498F48E2
:10156000FFF704F910BD8E498C48FFF7FFF810BD56
:101570008C498A48FFF7FAF810BD8B498748FFF776
:10158000F5F810BD89498548FFF7F0F810BD884986
:101590008248FFF7EBF810BD86498048FFF7E6F870
:1015A00010BD85497D48FFF7E1F810BD83497B48B0
:1015B000FFF7DCF810BD82497848FFF7D7F810BD77
:1015C00080497648FFF7D2F810BD7F497348FFF78E
:1015D000CDF810BD7D497148FFF7C8F810BD7C49B2
:1015E0006E48FFF7C3F810BD7A496C48FFF7BEF8A4
:1015F00010BD79496948FFF7B9F810BD77496748C8
:10160000FFF7B4F810BD76496448FFF7AFF810BD96
:1016100074496248FFF7AAF810BD73495F48FFF7A5
:10162000A5F810BD71495D48FFF7A0F810BD7049DD
:101630005A48FFF79BF810BD6E495848FFF796F8D7
:1016400010BD6D495548FFF791F810BD6B495348DF
:10165000FFF78CF810BD6A495048FFF787F810BDB6
:1016600068494E48FFF782F810BD67494B48FFF7BD
:101670007DF810BD65494948FFF778F810BD644909
:101680004648FFF773F810BD62494448FFF76EF80B
:1016900010BD61494148FFF769F810BD5F493F48F7
:1016A000FFF764F810BD5E493C48FFF75FF810BDD6
:1016B0005C493A48FFF75AF810BD5B493748FFF7D5
:1016C00055F810BD59493548FFF750F810BD584935
:1016D0003248FFF74BF810BD56493048FFF746F83F
:1016E00010BD55492D48FFF741F810BD53492B480F
:1016F000FFF73CF810BD52492848FFF737F810BDF6
:1017000050492648FFF732F810BD4F492348FFF7EC
:101710002DF810BD4D492148FFF728F810BD4C4960
:101720001E48FFF723F810BD4A491C48FFF71EF872
:1017300010BD49491948FFF719F810BD4749174826
:10174000FFF714F810BD46491448FFF70FF810BD15
:1017500044491248FFF70AF810BD43490F48FFF704
:1017600005F810BD41490D48FFF700F810BD40498C
:101770000A48FEF7FBFF10BD3E490848FEF7F6FF9A
:1017800010BD3D490548FEF7F1FF10BD3B49034838
:10179000FEF7ECFF10BD00BF409D00004C87FF1F0F
:1017A000309D0000249D0000189D00000C9D00004D
:1017B000F89C0000EC9C0000E09C0000D49C000021
:1017C000BC9C0000B49C00004C9D0000A89C000044
:1017D0009C9C0000889C0000749C0000649C00009D
:1017E000589C00004C9C0000409C0000349C000071
:1017F000289C00001C9C0000109C0000049C000021
:10180000F89B0000EC9B0000E09B0000D09B0000D8
:10181000BC9B0000A09B0000889B00006C9B00000C
:101820005C9B00004C9B0000389B0000289B000044
:10183000209B0000189B0000009B0000F09A000015
:10184000E89A0000D89A0000C89A0000B89A0000F0
:10185000A49A0000909A00007C9A0000649A00000C
:101860004C9A00003C9A0000289A0000149A00004C
:10187000049A0000F8990000EC990000949F000081
:1018800010B500210446BC4805F0F6FFBB4806F041
:10189000F7F93221BA4805F0EFFFB84806F0F0F941
:1018A0001221B84805F0E8FF94F8D831002B00F079
:1018B0008B80012B00F05582022B00F05782122101
:1018C000B14805F0D9FF00230A2294F8D411AB489F
:1018D00006F0E6F9A94806F0D3F91221AB4805F065
:1018E000CBFF00230A2294F8D511A44806F0D8F9BA
:1018F000A24806F0C5F91221A54805F0BDFF94F8ED
:101900003B129E4806F00CFA9C4806F0B9F994F890
:101910003B32002B53D112219E4805F0ADFF94F8C5
:10192000D611964806F0FCF9944806F0A9F9122160
:10193000994805F0A1FF94F8D711904806F0F0F906
:101940008E4806F09DF91221944805F095FF00237A
:101950000A2294F83C12894806F0A2F9874806F05A
:101960008FF912218E4805F087FF94F83F128348C3
:1019700006F0D6F9814806F083F91921894805F067
:101980007BFF7E4806F07CF994F83E32132B00F280
:10199000DB81DFE813F06600D901D901D901D90153
:1019A000CB00D901D9013701D901D901D901D90118
:1019B000D901D901740179017E018C01210094F8CB
:1019C0003A02FFF74FFCA6E70721774805F054FFDE
:1019D0006A4806F055F972E774496848FEF7C6FE92
:1019E0001521734805F048FF94F819136348FEF772
:1019F000CFFE10216F4805F03FFF94F81C33012BF8
:101A00000AD005D3022B0BD16B495C48FEF7AEFE22
:101A10006A495A48FEF7AAFE69495848FEF7A6FEE9
:101A200068495648FEF794FE94F825135348FEF78C
:101A3000AFFE65495148FEF78BFE94F824174F48D6
:101A4000FEF7A6FE61494D48FEF782FED4F820134A
:101A50004A4800230A2206F023F9484806F010F904
:101A600054E05B494548FEF781FE5A494348FEF77A
:101A70006FFE94F840124148FEF78AFE56493F48EF
:101A8000FEF766FE94F841123C48FEF781FE0F21F6
:101A9000524805F0F1FE94F842123848FEF778FEFD
:101AA0000F214F4805F0E8FE94F843123348FEF743
:101AB0006FFE0F214B4805F0DFFE94F844122F48CB
:101AC000FEF766FE0F21484805F0D6FE94F8451251
:101AD0002A4806F025F9294806F0D2F80F21434894
:101AE00005F0CAFE94F84612244806F019F9234876
:101AF00006F0C6F83E492148FEF72AFE94F8471240
:101B00001E4806F00DF91D4806F0BAF819212548BF
:101B100005F0B2FE194806F0B3F80021164805F0AA
:101B2000ABFE1648BDE8104006F0AAB894F84B3258
:101B3000002B40F020812F491048FEF717FE0B21A3
:101B40002D4805F099FE94F84A120C48FEF720FE45
:101B50000B212A4805F090FE94F849120748FEF739
:101B600017FE0B21264805F087FE94F8481203481B
:101B7000FEF70EFECAE700BFD0A300004C87FF1F90
:101B8000AC9F0000E09F00000CA0000020A000001F
:101B900034A0000048A000005CA0000070A000007D
:101BA00084A0000098A00000F49F000054A2000050
:101BB00068A2000080A2000094A200009CA2000085
:101BC000A4A20000B0A20000C4A20000D8A200009D
:101BD000B4A00000CCA00000DCA00000ECA000003D
:101BE000FCA000000CA100001CA100002CA1000022
:101BF0003CA100004CA100007CA1000088A10000D5
:101C000038A3000094F83D326C480D2B0CBF6C4992
:101C10006C49FEF79DFD94F8E932002B40F0C88036
:101C200094F8E832002B40F0BE8067496348FEF725
:101C30009DFD0D21654805F01FFE94F84C125F488C
:101C4000FEF7A6FD0D21624805F016FE94F84E122F
:101C50005A48FEF79DFD94F8E832002B00F0908082
:101C600094F83D320D2B7FF451AF5A495348FEF79B
:101C70006FFD94F8EB125148FEF78AFD46E756498E
:101C80004E48FEF773FD41E754494C48FEF76EFDA0
:101C90003CE753494948FEF769FD52494748FEF77A
:101CA00057FD94F80E134548FEF772FD2EE74E4996
:101CB0004248FEF75BFD4D494048FEF749FD94F868
:101CC0000F133E48FEF764FD49493C48FEF740FDCE
:101CD00094F810133948FEF75BFD46493748FEF784
:101CE00037FD94F811133548FEF752FD4249334849
:101CF000FEF72EFD94F812133048FEF749FD3F49D8
:101D00002E48FEF725FD94F818132C48FEF740FDE9
:101D10003B492A48FEF71CFD94F813132748FEF7A9
:101D200037FD38492548FEF713FD94F8141323486E
:101D3000FEF72EFD34492148FEF70AFD94F81513ED
:101D40001E48FEF725FDE1E630491C48FEF70EFD72
:101D50002F491A48FEF70AFD2C491848FEF706FDE0
:101D6000D4E62C491548FEF701FDA8E52A49134899
:101D7000FEF7FCFCA3E529491048FEF7F7FCDEE678
:101D800027490E48FEF7E4FC94F84D120B48FEF785
:101D9000FFFC24490948FEF7DBFC94F84F12074882
:101DA000FEF7F6FC5CE720490448FEF7D1FC3CE76F
:101DB0001E490248FEF7CCFC32E700BF4C87FF1FEC
:101DC00094A10000A0A10000ACA00000BCA10000F4
:101DD000CCA10000FCA100000CA2000020A2000089
:101DE00030A2000044A20000F0A2000004A3000002
:101DF00014A3000024A3000034A3000044A30000A7
:101E000054A3000064A3000074A30000D0A300004A
:101E100084A30000FC9F000004A0000060A100005B
:101E2000DCA10000ECA10000B4A10000ACA1000006
:101E30002DE9F04F8DB02021054609903F48404CD8
:101E400005F01AFD3F4805F01BFF3F483F4A038855
:101E5000117803EB432203EB820303F55853193344
:101E60009BB203EB1322D2B212FB01F212120380D7
:101E700054F8228085F83A22002758F82730DBB240
:101E80000137FF2BBFB2F8D1D8F80030099A089774
:101E90004FEA136902F20922C3F3072BC3F3074A7F
:101EA0004FF0FF33079206930024CE4658F8045FA4
:101EB0000798C5F307274FEA241CC5F30746ECB281
:101EC000F9B2C5F307650491E9B205915FFA8CF1A7
:101ED000039108990F290BAA4FEA14135FFA86F9A8
:101EE0000CD806998C4507DC0F2905D00131C9B201
:101EF0008B42039138BF0B4659B206910AA9009153
:101F000003998DF82CB08DF82DA08DF82EE08DF86A
:101F100028708DF829608DF82A5003F007FDFF2CFA
:101F2000DDF810B0DDF814E0CA46BFD1099B93F884
:101F30003A02FFF797F90DB0BDE8F08F9CA30000BF
:101F4000489700004C87FF1F4287FF1F4087FF1FF5
:101F50002DE9F04F90F83F328FB00446002B00F08F
:101F6000EE8090F8457290F8432217B1002384F870
:101F700040329621A06803F06BFD94F8461294F865
:101F8000476294F84132002940F07181002E00F040
:101F9000B682002B00F0818394F84022DFF8FC9297
:101FA000DFF8FC82BB4F0E460DF1340A04F2D91B58
:101FB00065E094F8421233440B44D9F800100291C2
:101FC000FF2B029898BF1B024FF48C7198BF9BB2F5
:101FD00001FB00F003FB00F0000C4504C0F3CA0352
:101FE00003D5C3F5FF6307339BB21D0AC3F3460154
:101FF00018F805E037F81530A5680EFB01339BB2E1
:10200000010448BF5B421BB2A3F5004394F90010E2
:1020100096209BB200FB03F300294FEA1343B4BFA1
:10202000A3EB830303EB430394F839121D4450469A
:1020300094F8D4310091594603F06AFD2B789DF84D
:10204000342083FA52F32B706A789DF8353082FA87
:1020500053F26A70AB789DF8362083FA52F3AB7076
:1020600094F8401294F8442294F8413201360A441C
:10207000F6B2D2B2B34284F8402240F20E8394F812
:10208000D611002995D194F8421233440B44D9F863
:1020900000100391FF2B039898BF1B024FF48C7123
:1020A00098BF9BB201FB00F003FB00F0000C45045D
:1020B000C0F3CA0303D5C3F5FF6307339BB21D0A00
:1020C000C3F3460118F805E037F81530A5680EFB94
:1020D00001339BB2010448BF5B421BB2A3F500432E
:1020E0009BB294F9001003EB8303C3EB03130029A5
:1020F0004FEA1343B4BFA3EB830303EB430394F80A
:1021000039121D44504694F8D4310091594603F0D9
:10211000FFFC2B789DF8342083FA52F32B706A78F9
:102120009DF8353082FA53F26A70AB789DF836200C
:1021300083FA52F3AB702046FEF736FB90E7564D1C
:1021400080F83E322B8803EB432103EB810101F53C
:102150005851193189B201EB412001EB800000F5A3
:102160005850193080B200EB402300EB830303F595
:102170005853193303EB432203EB820202F5585202
:10218000193292B202EB422602EB860606F5585649
:102190001936B6B206EB462306EB830303F5585314
:1021A00019339BB203EB432E03EB8E0E0EF5585EF4
:1021B0000EF1190E1FFA8EFE0EEB4E270EEB87075F
:1021C00007F558571937BFB203EB132307EB472C1A
:1021D000DBB202EB122207EB8C0C03EB8303D2B2CF
:1021E00002EB420206EB16260CF5585C03EB830368
:1021F0009B114FEAE218F6B20CF1190C1FFA8CFC95
:10220000A3F1740206EB460608F101030EEB1E2E45
:1022100001EB1121C1F3C01100EB1020B611CEF378
:10222000421E07EB172784F841320CEB1C23C0F346
:10223000C0100836D2B20EF1010EC7F3C01784F8F1
:102240004612C3F3C013012184F8470284F84262A6
:1022500084F8432284F844E2A5F800C084F8D6311B
:1022600084F8457284F83F1284F83B127DE6002E14
:1022700000F0A880002B00F0108294F84022DFF8D4
:102280001C90DFF81C80034F00260DF1340A04F285
:10229000D91B73E0609000004287FF1F609DFF1F05
:1022A000F498000094F8D631002B00F0BA82D9F8E7
:1022B00000300693069894F842324FF4FA7101FB0D
:1022C00016001B024FF48C7101FB03F303FB00F0BB
:1022D000C0F30E4000F580404504C0F3CA0303D5A7
:1022E000C3F5FF6307339BB21D0AC3F3460118F819
:1022F00005E037F81530A5680EFB01339BB20104E9
:1023000048BF5B421BB2A3F5004394F9001096202E
:102310009BB200FB03F300294FEA1343B4BFA3EBC6
:10232000830303EB430394F839121D44504694F899
:10233000D4310091594603F0EBFB2B789DF8342003
:1023400083FA52F32B706A789DF8353082FA53F293
:102350006A70AB789DF8362083FA52F3AB7094F82C
:10236000402294F8443294F8411201361A44F6B2ED
:10237000D2B2B14284F8402240F28F8194F8D73132
:10238000002B8FD194F8D631002B00F08F81D9F833
:1023900000300893089894F842324FF4FA7101FB28
:1023A00016001B024FF48C7101FB03F303FB00F0DA
:1023B000C0F30E40A0F5804080B24504C0F3CA03CC
:1023C00092D58DE7002B00F0688194F84022DFF869
:1023D000D492DFF8D482B24F04F2D91B4FF48C7A36
:1023E0006AE094F8D611002900F0368294F842127F
:1023F00033440B44D9F800100A91FF2B0A989CBF74
:102400001B029BB20AFB00F003FB00F0C0F30E407E
:1024100000F580404504C0F3CA0303D5C3F5FF634C
:1024200007339BB21D0AC3F3460118F805E037F8DD
:102430001530A5680EFB01339BB2010448BF5B4217
:102440001BB2A3F5004394F9001096209BB200FB49
:1024500003F300294FEA1343B4BFA3EB830303EB59
:10246000430394F839121D4409A894F8D43100911B
:10247000594603F04DFB2B789DF8242083FA52F344
:102480002B706A789DF8253082FA53F26A70AB7827
:102490009DF8262083FA52F3AB7094F8401294F81A
:1024A000442294F8413201360A44F6B2D2B2B34221
:1024B00084F8402240F2F18094F8D711002990D19D
:1024C00094F8D611002900F04F8194F84212334459
:1024D0000B44D9F800100C91FF2B0C989CBF1B02E9
:1024E0009BB20AFB00F003FB00F0C0F30E40A0F526
:1024F000804080B24504C0F3CA0393D58EE7002B19
:1025000000F0CB8094F84022DFF89891DFF89881B2
:10251000634F0DF1340A04F2D91B61E0D9F80030A1
:102520000493049994F842324FF48C7000FB01F14B
:102530001B0201FB03F3700300EB134080B2450460
:10254000C0F3CA0303D5C3F5FF6307339BB21D0A6B
:10255000C3F3460118F805E037F81530A5680EFBFF
:1025600001339BB2010448BF5B421BB2A3F5004399
:1025700094F9001096209BB200FB03F300294FEA68
:102580001343B4BFA3EB830303EB430394F8391263
:102590001D44504694F8D4310091594603F0B8FADE
:1025A0002B789DF8342083FA52F32B706A789DF8CB
:1025B000353082FA53F26A70AB789DF8362083FA90
:1025C00052F3AB7094F8402294F8443294F84112DC
:1025D00001361A44F6B2D2B2B14284F840225CD934
:1025E00094F8D631002B99D1D9F80030059305998C
:1025F00094F842324FF48C7000FB01F11B0201FB96
:1026000003F3700300EB134080B24504C0F3CA0328
:1026100003D5C3F5FF6307339BB21D0AC3F346011D
:1026200018F805E037F81530A5680EFB01339BB2AA
:10263000010448BF5B421BB2A3F500439BB294F96F
:10264000001003EB8303C3EB031300294FEA13438A
:10265000B4BFA3EB830303EB430394F839121D4487
:10266000504694F8D4310091594603F051FA2B7832
:102670009DF8342083FA52F32B706A789DF8353038
:1026800082FA53F26A70AB789DF8362083FA52F3DF
:10269000AB702046FEF788F894E70FB0BDE8F08FE6
:1026A00060900000609DFF1FF4980000D9F8003092
:1026B0000993099894F842124FF4FA7303FB160336
:1026C00009024FF48C7000FB01F003FB00F0C0F333
:1026D0000E40A0F5804080B24504C0F3CA0303D584
:1026E000C3F5FF6307339BB21D0AC3F3460118F815
:1026F00005E037F81530A5680EFB01339BB20104E5
:1027000048BF5B421BB2A3F500439BB294F9001093
:1027100003EB8303C3EB031300294FEA1343B4BF56
:10272000A3EB830303EB430394F839121D44504693
:1027300094F8D4310091594603F0EAF92B789DF8CA
:10274000342083FA52F32B706A789DF8353082FA80
:1027500053F26A70AB789DF8362083FA52F3AB706F
:102760002046FEF721F8FAE594F8421233440B4470
:10277000D9F800100D91FF2B0D989CBF1B029BB246
:102780000AFB00F003FB00F0C0F30E40A0F5804010
:1027900080B24504C0F3CA0303D5C3F5FF63073312
:1027A0009BB21D0AC3F3460118F805E037F815304F
:1027B000A5680EFB01339BB2010448BF5B421BB20C
:1027C000A3F500439BB294F9001003EB8303C3EB22
:1027D000031300294FEA1343B4BFA3EB830303EBB6
:1027E000430394F839121D4409A894F8D431009198
:1027F000594603F08DF92B789DF8242083FA52F383
:102800002B706A789DF8253082FA53F26A70AB78A3
:102810009DF8262083FA52F3AB702046FDF7C4FFE3
:102820003BE6D9F800300793079894F842324FF40A
:10283000FA7101FB16001B024FF48C7101FB03F3CC
:1028400003FB00F0C0F30E4000F580404104C0F3EC
:10285000CA037FF549AF43E794F8421233440B446F
:10286000D9F800100B91FF2B0B989CBF1B029BB259
:102870000AFB00F003FB00F0C0F30E4000F58040BF
:102880004104C0F3CA038CD587E700BF90F83F32FC
:102890002DE9F0410446002B51D094F8D731ABB963
:1028A00094F84A2294F848321A4494F84B32D2B23F
:1028B00084F84A22B3B994F8D631ABB394F84932CC
:1028C000A0689621BDE8F04103F010B894F84A32B0
:1028D00094F848229A1A94F84B32D2B284F84A22D9
:1028E000002BE8D0252194F84932A06802F0FEFFC1
:1028F0006FF0DD010DE001F1DE021A445B1A107881
:10290000187050785870033192789A7011F16F0FE7
:1029100063D094F90020A368002AECDA6FF0DD029E
:10292000521A1A440B44EAE7A06894F849324B2142
:1029300002F0DCFF2046BDE8F041FDF735BF294934
:1029400080F83B320B8803EB432203EB820303F551
:10295000585319339BB203EB432203EB820202F577
:102960005852193292B202EB422502EB850505F569
:1029700058551935ADB205EB452605EB860603EB38
:10298000132302EB122206F55856DBB2D2B21936E7
:10299000C3EB031302EB4202B6B21B12121206EB98
:1029A00016270133013205EB1525C7F3C017C5F310
:1029B000C01580F8493280F848220123052280F8AA
:1029C000D67180F8D75180F83F3280F84B3280F8CA
:1029D0003E220E80FEF754FF5FE72046BDE8F0413F
:1029E000FDF7E2BE4287FF1FF0B590F83D429DF82B
:1029F00014609DF81CE001270D3C0825BC4280F8BE
:102A00003E5280F83F729DF8185040D9002380F85C
:102A10004C6280F84E5280F8E81280F8E92280F883
:102A2000EBE280F83B32002A3FD14B2380F8E722CB
:102A300080F8E63251BB204C238803EB432203EBA2
:102A4000820303F5585319339BB203EB432203EB84
:102A5000820202F55852193292B203EB132302EBB1
:102A60001221DBB2C9B203EB430301EB41010A3E81
:102A70000A3DC3EBC303C1EBC10106EB232305EB06
:102A8000212180F84D32228080F84F12F0BD80F86D
:102A90003B7280F84C6280F84E5280F8E81280F861
:102AA000E92280F8EBE2002AC2D0252380F8E63242
:102AB00080F8E732BEE700BF4287FF1F2DE9F047ED
:102AC00090F83F32D14D86B00446002B00F02F82A3
:102AD00094F8E632002B00F0F38294F84E122A8824
:102AE00001EB81014F0003F24F2E97FBF3F7023702
:102AF000FFB2A64404F24F2602EB422102EB810210
:102B000002F55852193292B202EB122116F8010F57
:102B1000C9B211FB07F1A0EB112121EAE171B64521
:102B20003170E9D194F8E8622A80002E00F07281B9
:102B3000A3F1030EBEF1010F4FF0010C1ADD03F5F6
:102B4000137003F24E27DFF8C8922044274404F59F
:102B50001478017810F8016D01EB460189FB01A69C
:102B6000A6EBE171804507F8011DF2D1BCF1000F21
:102B700000F0338102EB422102EB810202F5585250
:102B8000193292B202EB122194F84C622A80C9B237
:102B90008E429E4826D902EB422102EB810202F5C9
:102BA0005852193292B202EB422602EB860606F523
:102BB00058561936B6B206EB162102EB1222C9B2EC
:102BC000D2B201EB4107C2EBC20204EB2222C1EBFD
:102BD000471109120680603992F8500280FA51F0CC
:102BE00082F85002BCF1000F12D12A8894F84D628D
:102BF000864902EB422002EB800202F5585219325C
:102C000092B202EB1220C0B286422A8000F26681A4
:102C100094F8D771002F40F0B980002B00F0478264
:102C200004F24F26B04605AD94F90010A268013BAE
:102C3000DB1B0029B4BFA3EB830303EB430302EBCD
:102C4000030918F8011F284602F040FF9DF81430D0
:102C500089F800309DF8153089F801309DF816305C
:102C600089F8023094F8E6320137BB42DCDC94F894
:102C7000E9223AB394F8D721002A40F0C181904666
:102C8000002B00F0178294F90010A2684344002939
:102C9000B4BFA3EB830303EB4303D71816F8011F5C
:102CA000284602F013FF9DF814303B709DF8153054
:102CB0007B709DF81630BB7094F8E63208F101087D
:102CC0004345E0DC94F8E822002A40F0C28194F801
:102CD000D721002A40F0D880002B54D004F29A2645
:102CE000B046002705AD94F8E73294F90010A268C9
:102CF0004B333B440029B4BFA3EB830303EB4303F3
:102D000002EB030918F8011F284602F0DFFE9DF8C8
:102D1000143089F800309DF8153089F801309DF89D
:102D2000163089F8023094F8E6320137BB42DADC1B
:102D300094F8E9223AB394F8D721002A40F08F8121
:102D4000904603B394F90020A76816F8011F4B338F
:102D5000C8EB0303002AB4BFA3EB830303EB4303D5
:102D60001F44284602F0B2FE9DF814303B709DF8D7
:102D700015307B709DF81630BB7094F8E63208F180
:102D800001084345DEDC06B0BDE8F087002B70D0BB
:102D900004F24F26B1464FF0000805AD94F900202B
:102DA000A36819F8011F002AB4BFA8EB880708EB35
:102DB00048071F44284602F089FE9DF814303B70F6
:102DC0009DF815307B709DF81630BB7094F8E63294
:102DD00008F101084345E1DC49E703F2972603F2D5
:102DE0009927DFF82C8026442744317816F8010D06
:102DF00001EB400188FB01900EF1FF3EA0EBE17179
:102E0000BEF1010F07F8011DEFD1B3E64287FF1FA6
:102E10005655555594F84F1201EB81014FEA410E7A
:102E20009EFBF3FE0EF1020E5FFA8EFE04F29A276D
:102E300002EB422102EB810202F55852193292B2A2
:102E400002EB122117F8010FC9B211FB0EF1A0EB32
:102E50001121013621EAE1719E423970E8DB2A80B6
:102E6000A3F1030EBEF1010F4FF0000C3FF767AE68
:102E700080E694F8E932002B40F01C81BCF1000F91
:102E800040F0E78094F8E632002B3FF47CAF04F288
:102E90009A26B2466FF4DF794FF0000805AD94F939
:102EA0000030A7681AF8011F002BB4BF4F44C9EBCC
:102EB0000707284602F00AFE9DF814303B709DF883
:102EC00015307B709DF81630BB7094F8E63208F12F
:102ED0000108434509F10309E1DC29E702EB42203F
:102EE00002EB800202F55852193292B202EB4225EF
:102EF00002EB850505F55855193502EB1222ADB2E6
:102F0000D2B205EB1520C2EBC202C0B204EB222202
:102F100000EB4006C0EB461092F89B620D80011258
:102F20006039304680FA51F082F89B0270E62B88B7
:102F300003EB432103EB810101F55851193189B2AB
:102F400001EB412201EB820202F55852193292B292
:102F500002EB422E02EB8E0E0EF5585E0EF1190EAC
:102F60001FFA8EFE0EEB4E260EEB860606F5585621
:102F70001936B6B206EB462306EB830303F5585326
:102F800019339BB203EB432703EB870706EB1626A7
:102F90000EEB1E2E07F5585703EB1323F6B25FFA1C
:102FA0008EFE1937DBB2C6EB0616BFB2B6110EEBBA
:102FB0008E0CC3EB03130EEB4C0E9B1106F1320C7F
:102FC00007EB17263C334FEA2E2EC6F381165FFA25
:102FD00083F85FFA8CFC01360EF1140301EB11212A
:102FE00002EB1222CDF800C0CDF804800296C1F3A6
:102FF000C011C2F3C012DBB22F80FFF7F5FC67E50A
:10300000002B57D06FF0DD094FF0000894F9003025
:10301000A76816F8011F002BB4BF4F44C9EB070780
:10302000284602F053FD9DF814303B709DF8153092
:103030007B709DF81630BB7094F8E63208F10108F9
:10304000434509F10309E1DC94F8E822002A3FF442
:103050003EAE2046FDF7A8FB06B0BDE8F087002B8A
:103060003FF491AE6FF0E0094FF0000894F90030A2
:10307000A76816F8011F002BB4BF4F44C9EB070720
:10308000284602F023FD9DF814303B709DF8153062
:103090007B709DF81630BB7094F8E63208F1010899
:1030A0004345A9F10309E1DC06B0BDE8F08794F8D7
:1030B000E93263B194F8E832002B3FF464AEC8E71C
:1030C00094F8E8220AB12A8832E52A88C8E6BCF1D9
:1030D000000FBED194F8E632FEE500BF2DE9F04FB7
:1030E00090F83F32D24D87B00446002B00F0E181CA
:1030F00094F8E6C26146BCF1000F00F0438294F8F8
:103100004E222B8802EB820257000CF24F2E97FBC7
:10311000FCF70237FFB2A64404F24F2603EB43222A
:1031200003EB820303F5585319339BB203EB1322CD
:1031300016F8010FD2B212FB07F2A0EB122222EA1C
:10314000E272B6453270E9D194F8E8622B80002E25
:1031500000F04081ACF10307012F4FF001091ADDA7
:103160000CF513700CF24E26DFF8C882204426447A
:1031700004F5147E027810F801AD02EB4A0288FBD8
:1031800002BAAAEBE272864506F8012DF2D1B9F136
:10319000000F00F0088103EB432203EB820303F5E9
:1031A000585319339BB203EB132094F84C622B80D5
:1031B000C0B286429E4A28D903EB432003EB80032A
:1031C00003F5585319339BB203EB432603EB8606F2
:1031D00006F55856193603EB1323B6B2DBB206EBED
:1031E0001620C3EBC303C0B204EB232300EB40075C
:1031F0001680C0EB471093F850620012A0F16002F5
:10320000304680FA52F083F85002B9F1000F12D123
:103210002B8894F84D62864A03EB432003EB80032E
:1032200003F5585319339BB203EB1320C0B2864207
:103230002B8000F20181BCF1000F00F0A88104F2A4
:103240004F28002705AD94F90030A668C1F14B0165
:103250003944002BB4BFA1EB810101EB41010E44C5
:10326000284618F8011F02F031FC9DF81430337025
:103270009DF8153073709DF81630B37094F8E6120F
:103280000137B942DFDC94F8E872002F40F00B817F
:1032900004F29A28002900F07E8194F90030A66893
:1032A0004A31C91B002BB4BFA1EB810101EB4101E5
:1032B0000E44284618F8011F02F008FC9DF814304F
:1032C00033709DF8153073709DF81630B37094F814
:1032D000E6120137B942E0DCC1F14B03002B53DDAC
:1032E00005AD04F2D91B6FF4DF7900264FF0010A17
:1032F00094F90020A368002A94F8EA22CDF800A0EF
:10330000B4BFA6EB860706EB4607C6EB062898FB7C
:10331000F1F10A441F44D2B2FF235946284602F075
:10332000F7FB9DF814303B709DF815307B709DF8CD
:103330001630BB7094F9003094F8EA12A76894F83C
:10334000E62298FBF2F8002B08EB0102B4BF4F44D1
:10335000C9EB0707FF235946CDF800A0D2B2284693
:1033600002F0D6FB9DF814303B709DF815307B7051
:103370009DF81630BB7094F8E6120136C1F14B038C
:10338000B34209F10309B3DC94F8D731002B40F0C4
:10339000808094F8EA3294F8EB229B1A84F8EA329F
:1033A00007B0BDE8F08F0CF297260CF2992EDFF8EB
:1033B00084802644A644327816F8010D02EB4002C0
:1033C00088FB02A0013FA0EBE272012F0EF8012D55
:1033D000F1D1E0E694F84F2202EB82024FEA420E6E
:1033E0009EFBFCFE0EF1020E5FFA8EFE04F29A279F
:1033F00003EB432203EB820303F5585319339BB2CB
:1034000003EB132217F8010FD2B212FB0EF2A0EB5E
:103410001222013622EAE27266453A70E8DB2B801E
:10342000ACF10307012F4FF000093FF799AEB2E668
:103430004287FF1F5655555503EB432003EB80038E
:1034400003F5585319339BB203EB432503EB850572
:1034500005F55855193503EB1323ADB2DBB205EB77
:103460001520C3EBC303C0B204EB232300EB4006DB
:10347000C0EB461093F89B6215800212603A30460A
:1034800080FA52F083F89B02BCF1000F7FF4D7AEB4
:1034900080E094F8EA2294F8EB32134484F8EA329C
:1034A00007B0BDE8F08F2046FDF77EF994F8E612EC
:1034B00012E72B8803EB432103EB810101F55851FF
:1034C000193189B201EB412201EB820202F5585217
:1034D000193292B202EB422E02EB8E0E0EF5585EBE
:1034E0000EF1190E1FFA8EFE0EEB4E260EEB86061F
:1034F00006F558561936B6B206EB462306EB83039B
:1035000003F5585319339BB203EB432703EB8707AB
:1035100006EB16260EEB1E2E07F5585703EB13236A
:10352000F6B25FFA8EFE1937DBB2C6EB0616BFB2F3
:10353000B6110EEB8E0CC3EB03130EEB4C0E9B116E
:1035400006F1320C07EB17263C334FEA2E2EC6F35A
:1035500081165FFA83F85FFA8CFC01360EF11403D2
:1035600001EB112102EB1222CDF800C0CDF804804E
:103570000296C1F3C011C2F3C012DBB22F80FFF775
:1035800033FAB5E594F8E8323BB12B88E2E5B9F1BE
:10359000000F88D105AD0021A3E62B8840E700BFCE
:1035A0002DE9F04F90F83F328BB00446002B00F02D
:1035B000AF81B0F80C63D14DD14B2A6809920999BB
:1035C00003FB01F1090C4804C1F3CA0303D5C3F599
:1035D000FF6307339BB21A0ACA4FDFF8308317F82C
:1035E00002E038F81200C3F346020EFB020309049E
:1035F0009BB248BF5B422A6808921BB2A3F5004306
:103600009BB2089903EBC3104DF6086303FB01F16D
:10361000000C090C6030C0B24A0484F8F202C1F315
:10362000CA0303D5C3F5FF6307339BB24FEA132EDA
:10363000C3F3460217F80EC038F81E300CFB0233F5
:103640009BB20A0448BF5B421BB22A680792A3F5EB
:1036500000439BB2C3EB0311079A03EB01214AF22B
:10366000C80303FB02FE090C4FEA1E4E01F5C851C8
:1036700089B21EF4804FA4F8F812CEF3CA0303D027
:10368000C3F5FF6307339BB24FEA132CC3F3460223
:1036900017F80C9038F81C3009FB02331EF4004F69
:1036A0009BB218BF5B422A6806921BB2A3F5004387
:1036B0009BB24FF0260EDDF818C0B4F8F022A4F843
:1036C000FA220EFB03FE47F6983303FB0CFC4FEA8D
:1036D0001E4E4FEA1C4C0EF1170E1FFA8EFE1CF404
:1036E000804F84F8F3E2CCF3CA0303D0C3F5FF6341
:1036F00007339BB24FEA132AC3F3460317F80AB005
:1037000038F81A900BFB03991CF4004F2B680493B4
:103710001FFA89F918BFC9F10009049B2D680595A6
:103720000FFA89F9A9F50045B4F8EEC2B4F8ECB285
:10373000ADB240F2B1491FFA83FA09FB05F3724DAD
:10374000DDF81490A4F8FEA2CCEB0A0C1FFA8CFC56
:1037500005FB09F91B0C03F596734FEA19491CFB8D
:103760000EBE9DB21FFA8EFE19F4804FA4F8FC52D3
:10377000A4F800C3A4F8EEA2A4F8ECE2C9F3CA03CB
:1037800003D0C3F5FF6307339BB24FEA132BC3F398
:10379000460A17F80B3038F81BB0A4F802E303FB15
:1037A0000AB39BB219F4004F18BF5B421BB2A3F5DA
:1037B00000439BB203EB83031B0C05339BB20CFB52
:1037C0000323A4F8F032002E00F08E802B4604F282
:1037D000D91A00264FF0010904251A4492B2D309E0
:1037E0008E44A4F80433DB054FEA122CA4F8FA2225
:1037F0001FFA8EFE46BF6FEA1222D2B2120A1EF4E0
:10380000804F84F8F4C2A4F802E384F8F422CEF3E3
:10381000CA0103D0C1F5FF61073189B24FEA112C0B
:10382000C1F3460317F80CB038F81C100BFB03115A
:103830001EF4004F89B218BF494209B2A1F50041F8
:1038400089B201FB01FE4FEA1E4E0EFB00F3C2EBF4
:10385000021CC04302EB0C1200EB1343DBB2C2F3B9
:103860000722A4F80613A4F808E384F8F6325146B8
:10387000CDF8009003A884F8F72202F049F9B4F8D3
:103880000C3394F90020A068013B9B1B9BB2002ADB
:10389000A4F80A33B4BFA3EB830303EB4303184438
:1038A000802203A9013D02F0D5F815F0FF050AD0EA
:1038B000B4F8FA22B4F8FC32B4F802E3B4F8F8121F
:1038C00094F8F20289E70136B4F80C33B6B2B34289
:1038D0000AD9B4F8FA22B4F8FC32B4F802E3B4F826
:1038E000F81294F8F20277E794F8D63113B920462B
:1038F000FCF75AFF0BB0BDE8F08F00BF609DFF1FC3
:10390000F8740100F498000080B501006090000098
:103910001048038803EB432203EB820303F558535B
:1039200019339BB203EB13220121C2F3C0120F25FE
:10393000038084F8D62184F83F1284F83B1284F87F
:103940003E521AB19626A4F80C6334E64B26A4F82E
:103950000C6330E64287FF1FF0B590F83F3285B028
:103960000646002B48D090F80E23334DB0689621C0
:1039700002F06EF82B88B76803EB432203EB820357
:1039800003F5585319339BB22B8003EB432496F96C
:10399000001003EB8404962202FB03F204F5585452
:1039A00000294FEA124204F11904B4BFA2EB8202CB
:1039B00002EB4202A4B21744012304EB1422009349
:1039C00006F2D911D2B2FF2303A82C8002F0A0F88E
:1039D0003B789DF80C2083FA52F33B707A789DF87F
:1039E0000D3082FA53F27A70BB789DF80E2083FA7C
:1039F00052F3BB7005B0F0BD0F4D2B8803EB432194
:103A000003EB810101F55851193189B201EB112302
:103A1000DBB203EBC30203EB4202D2110A320123F1
:103A2000D2B21120298086F80E2386F83F3286F81C
:103A30003B3286F83E0299E74287FF1F2DE9F047A7
:103A400090F83F1284B00446002900F09D8090F861
:103A5000171394F8183390F80F0394F810230144C7
:103A600094F8D701C9B284F8171384F81613002804
:103A700000F085801344DAB284F8182304F2D917D1
:103A80000025FF2601E094F8182394F8133394F8E6
:103A900011A38DF80D605FFA85F803FB0823DBB2F4
:103AA000190644BFDB43DBB25B00DBB25A1C02FBEE
:103AB00003F31B1203FB02F2121203EB4303A3EB0B
:103AC00042039BB2DA0594F90010A26854BFDBB23E
:103AD000FF239A4534BF4FF0FF0A4FF0000A002938
:103AE000B4BFA5EB850105EB450194F814338DF8BF
:103AF0000C30114403A894F815238DF80E2002F021
:103B000003FA94F90030A26894F83912002BB4BF7C
:103B1000A5EB850905EB450994F81633914494F813
:103B20000F23009102FB0832D2B25346394603A854
:103B300001F0EEFF99F800309DF80C2083FA52F363
:103B400089F8003099F801209DF80D3082FA53F27F
:103B500089F8012099F802309DF80E2083FA52F37B
:103B600089F8023094F8162394F81233013513447F
:103B7000962D84F8163386D104B0BDE8F0879B1AE1
:103B8000DAB284F8182379E74B4E338803EB4322EB
:103B900003EB820202F55852193292B202EB422034
:103BA00002EB800000F55850193080B200EB40283D
:103BB00000EB880808F5585808F119081FFA88F82A
:103BC00008EB482C08EB8C0C0CF5585C0CF1190C2C
:103BD0001FFA8CFC0CEB4C230CEB830303F55853BE
:103BE00019339BB203EB432E03EB8E0E0EF5585E9A
:103BF0000EF1190E1FFA8EFE0EEB4E250EEB85050B
:103C000005F558551935ADB205EB452708EB1828D1
:103C100005EB87075FFA88F807F55857C8EBC8081F
:103C200002EB122219374FEA2818BFB2A8F1800818
:103C3000D2B202EB820203EB132384F8118307EB69
:103C4000172800EB102012120CEB1C2CDBB20EEB31
:103C50001E2E5FFA88F80132C0F38119CCF3811C63
:103C600003EB8303CEF3421E08EB8808D0B2378003
:103C700009F1010201260CF1010CC3F307230EF137
:103C8000010E05EB15254FEAE818122784F80F03FB
:103C900084F8102384F812C384F8183384F813E3EB
:103CA00084F8158384F8145384F83F6284F83B62E7
:103CB00084F83E72D3E600BF4287FF1F2DE9F04F24
:103CC00090F83F328BB004463BB90121102280F8B6
:103CD0003B3280F83F1280F83E22C74A13680993AE
:103CE000099945F6287303FB01F1090C4804C1F357
:103CF000CA0303D5C3F5FF6307339BB2180ABF4E4F
:103D0000BF4D375C35F81000C3F3460307FB0303D0
:103D10009BB20F0448BF5B42116808911BB2A3F528
:103D200000430898B7499BB2C3EB43134FEA134CC7
:103D300001FB00F1090C0CF1DC0C5FFA8CFC48046F
:103D400084F8F5C2C1F3CA0303D5C3F5FF63073393
:103D50009BB2180AC3F34603375C35F8100007FB23
:103D6000030309049BB248BF5B421BB21168079171
:103D7000A3F500439BB203EBC3130798190C4DF650
:103D8000086303FB00F0000C6031C9B2470484F8FB
:103D9000F212C0F3CA0303D5C3F5FF6307339BB226
:103DA0001F0AC3F3460316F807E035F817700EFB39
:103DB000037300049BB248BF5B421BB2A3F50043F0
:103DC0009BB210680690C3EB031003EB0020069F24
:103DD000000C4AF2C80303FB07F300F5C85087B292
:103DE000180C10F4804FA4F8F872C0F3CA0303D083
:103DF000C3F5FF6307339BB24FEA132EC3F34603A9
:103E000016F80E8035F81EE0B4F8F09208FB03E3D4
:103E100000049BB248BF5B42106805901BB2A3F53B
:103E200000439BB22620DDF814E000FB03F047F6C8
:103E3000983303FB0EFE000C4FEA1E4E173080B283
:103E40001EF4804F84F8F302CEF3CA0303D0C3F507
:103E5000FF6307339BB24FEA1328C3F3460316F8F8
:103E600008A035F818800AFB03831EF4004F9BB2AC
:103E7000D2F800E0CDF80CE018BF5B42DDF80CA0F2
:103E8000B4F8EE82126804921BB2A3F500431FFA45
:103E90008AFA40F6B8329BB2B4F8ECE2DDF810B022
:103EA000A4F8FEA202FB03F3C8EB0A08564AA4F8E2
:103EB000EEA21FFA88F818FB00E002FB0BFB1B0CBC
:103EC00001331FFA80FE4FEA1B409AB210F4804F74
:103ED000A4F8FC22A4F80083A4F8ECE2C0F3CA031F
:103EE00003D0C3F5FF6307339BB24FEA132AC3F332
:103EF000460316F80AB035F81AA00BFB03A39BB2D1
:103F0000000448BF5B421BB2A3F500439BB203EB26
:103F100083031B0C05339BB208FB0393A4F8F03218
:103F2000384613464FF095084FF6FF770BE0B4F88C
:103F3000FA92B4F8FC32B4F802E3B4F8F80294F858
:103F4000F21294F8F5C270444B449BB280B24FEA2F
:103F5000132E4204A4F8FA3284F8F4E2A4F802031F
:103F6000C0F3CA0303D5C3F5FF6307339BB24FEA1F
:103F70001329C3F3460216F809A035F819308DF855
:103F800008E00AFB02339BB2020448BF5B421BB24B
:103F9000A3F500439BB203FB03F0000C00FB01F20E
:103FA000C94301EB1242D2B2A4F80633A4F80803C5
:103FB00084F8F62202A801A98DF80A208DF809C01C
:103FC00001F0A2FF94F90020A368A4F80A83002A54
:103FD000B4BFA8EB880008EB480008F1FF3818448C
:103FE000402201A91FFA88F801F034FDB8459ED19E
:103FF0000BB0BDE8F08F00BF609DFF1FF49800007C
:1040000060900000F874010080B5010070B50446AE
:1040100082B01B4D022002F0E9FA2B88A2681844F6
:1040200000EB402300EB830043F21963184480B295
:1040300000EB102100EB402600EB8600C9B20344E0
:1040400001EB81019BB28911002603EB13201B3188
:1040500084F8191384F81A0384F81C63104684F852
:104060001B6384F8246301AA96212B808DF80460D9
:104070008DF805608DF8066001F028FC02B070BD77
:104080004287FF1F2DE9F04F90F8243387B002904C
:10409000002B00F09B8090F81933039306461846D6
:1040A0006E4B1B8803EB432403EB840404F5585444
:1040B0001934A4B204EB1423DBB203EB830903EB42
:1040C000C9094FEA292909F1140901235FFA89F97D
:1040D00086F81C3386F8259304F05CF906F5497BD5
:1040E00006F5A86A5B4606F2144806F20757D3465F
:1040F000019006F5C66600259A4604EB442304EBBE
:10410000830404F558541934A4B2732303FB04F058
:10411000000C019B4AF8043F0A3080B204F03AF9DF
:104120004F4904F043FA04EB442304EB830303F503
:10413000585319339BB203EB432403EB840404F577
:1041400058541934A4B204EB1421C9B201EB810113
:1041500003EB1323C911C3F3C013053148F8040F4F
:1041600007F8013FC8B204F015F90135EBB23D4A3A
:104170004BF8040F994546F8042FBED8374B0299E7
:104180001C8091F900208B680298002A039AB4BF22
:10419000A2EB820202EB42021344FF221A705A7011
:1041A0009A7090F8193390F900108268C3F1950362
:1041B0000029B4BFA3EB830303EB43031344FF22A3
:1041C0001A705A709A7007B0BDE8F08F029D029C79
:1041D00095F81B3395F9000095F81923A968053364
:1041E0000028DBB2B4BFA2EB820202EB420285F8E8
:1041F0001B33114405A894F81A238DF81630FF23B9
:104200008DF814208DF8153001F07EFE94F9002011
:1042100094F81933A168029C002AC3F19503B4BF36
:10422000A3EB830303EB4303194494F81B3394F883
:104230001A238DF8163005A8FF238DF815308DF858
:10424000142001F061FE94F81B33FF2BBBD1029ABE
:10425000012382F8243307B0BDE8F08F4287FF1FA7
:104260000000C84200007F432DE9F047654B064639
:104270001A78806882B0962101F0EAFB96F825331F
:10428000002786F82477002B00F08880DFF88C91D7
:104290004FF0FF083BE0D4F82813504603F0CAFF64
:1042A00005460021284604F06BFA002874D15649CF
:1042B000284604F083FA00B1534DC4F82853514600
:1042C000D9F8000004F0BEF84FF06E51C4F818049D
:1042D000D4F8440504F0B6F801464FF07E5003F0E0
:1042E000A7FFD4F8341604F0ADF8C4F8340604F08F
:1042F00095FA96F82437C0B2834207F1010796F881
:10430000253338BF86F82407FFB2BB4246D906EBF7
:104310008704D4F8280304F05BFA96F90030B568F6
:10432000002BB4BFA0EB800000EB40000544D4F8A4
:10433000340604F073FA96F81A338DF8020001A9D6
:1043400068468DF800308DF8018001F0DDFD2B7896
:104350009DF8042083FA52F32B706A789DF805309B
:1043600082FA53F26A70AB789DF8062083FA52F312
:10437000F219AB7092F80835D4F818A4002B8AD142
:104380005146D4F8280303F053FF05460021284680
:1043900004F0F6F900288AD000258EE73046FCF7B5
:1043A00003FA96F82437052B29D80023B0688DF836
:1043B000043001AA96218DF805308DF8063001F001
:1043C00085FA1248124C038824681249124A019453
:1043D00003EB43240988128803EB840303F5585345
:1043E0000A4419339BB292B20199038003FB02F392
:1043F00001EB13430222C6F8203386F81C2302B0D7
:10440000BDE8F0873887FF1F000094424287FF1FF6
:10441000609DFF1F2087FF1F3A87FF1F3C87FF1FFC
:1044200010B590F83F3282B0044603BB012013213F
:10443000022284F83B3284F83F0284F83E1284F86A
:104440001C23002301AAA0688DF8043096218DF862
:1044500005308DF8063001F039FA0F4AD4F82033D0
:1044600012680192019A9A4212D202B010BD90F8DD
:104470001C33012B04D007D2FFF704FE02B010BD9D
:10448000FFF7F2FE02B010BD022BDAD002B010BD71
:104490002046FFF7BBFDE8E7609DFF1FF0B590F8F1
:1044A0003D3285B00446132B00F25584DFE813F04B
:1044B0009A031C039C026700E3006401E9003B01CE
:1044C00056020802BA0114006100410133042E04AF
:1044D000290424041F041A0490F83F32002B48D109
:1044E000CF4D2B8803EB432203EB820303F5585394
:1044F00019339BB203EB432103EB810101F55851C2
:10450000193189B201EB412201EB820202F55852C6
:10451000193292B202EB422602EB860603EB13231A
:1045200001EB112106F5585602EB1222DBB2C9B29B
:104530001936D2B2C1EB0111C2EB021203EB8307B1
:10454000B6B2881103EB4703911106EB1627323000
:10455000C7F381173C311B12C0B20137C9B2143303
:1045600001228DE88300DBB2114620462E80FEF743
:104570003BFA204605B0BDE8F040FEF79FBA90F840
:104580003F32002B77D1A64980F83E320B8803EBEF
:10459000432203EB820303F55853193303EB432201
:1045A00003EB820303F5585319339BB203EB43200B
:1045B00003EB800000F55850193080B200EB402228
:1045C00000EB820202F55852193292B202EB4227F6
:1045D00002EB870707F558571937BFB207EB472596
:1045E00007EB850505F558551935ADB205EB452E98
:1045F00003EB132305EB8E0EDBB202EB122200EB72
:10460000102003EB4306D2B20EF5585EC0B202EBA7
:10461000820200EB4000F6110EF1190E02EB82034C
:104620001FFA8EFE821107EB1727701C08329B11B0
:10463000C7F3421705EB152584F841020EEB1E2047
:10464000743B7E1CC5F3C015C0F3C01084F8422231
:10465000012284F8433284F84462A1F800E084F82F
:10466000D60184F8455284F83F2284F83B2284F82E
:10467000462284F84722204605B0BDE8F040FDF709
:1046800067BC90F83F32002B4DD1654980F83B3232
:104690000B8803EB432203EB820303F558531933D2
:1046A0009BB203EB432203EB820202F5585219320C
:1046B00092B202EB422002EB800000F55850193014
:1046C00080B200EB402500EB850503EB132302EBE2
:1046D000122205F55855DBB2D2B21935C3EB0313DC
:1046E000ADB202EB42021B120133121205EB15268A
:1046F00000EB1020C0F3C01001270132C6F3C01632
:1047000084F84932052384F8D70184F8482284F8D4
:10471000D66184F83F7284F84B7284F83E322046AA
:104720000D80FDF7ADF8204605B0BDE8F040FEF77E
:10473000ADB890F83F22CAB9394E338803EB432510
:1047400003EB850505F558551935ADB205EB152375
:10475000C3F3811301335A20462102930190009143
:104760001423114620463580FEF73EF9204605B059
:10477000BDE8F040FEF7B2BC90F83F22002AD2D14B
:10478000274980F83B220B8880F84B2203EB432219
:1047900003EB820303F5585319339BB203EB432217
:1047A00003EB820202F55852193292B202EB422018
:1047B00002EB800000F55850193080B200EB402524
:1047C00000EB850503EB132302EB122205F5585588
:1047D000DBB2D2B21935C3EB0313ADB202EB420226
:1047E0001B1205EB15260133121200EB10200132CB
:1047F000C6F3C016C0F3C010012784F84932052360
:1048000084F8D70184F8482284F8D66184F83F728E
:1048100084F83E3220460D80FDF732F883E700BF72
:104820004287FF1F90F83F1200297FF4A2AEAD4DE2
:104830002B8803EB432003EB800000F55850193020
:1048400080B200EB402200EB820202F5585219328E
:1048500092B202EB422302EB830303F55853193360
:104860009BB203EB432603EB860600EB102002EB22
:10487000122206F5585603EB1323C7B2D2B21936EB
:10488000DBB2B6B207EB870EC2EB0212C3EB031327
:1048900090119A1107EB4E0306EB16273230C7F33F
:1048A00081173C321B12C0B20137D2B214338DE8EB
:1048B0008500DBB2012220462E80FEF795F858E6EF
:1048C00090F83F22002A7FF454AE864D2B8803EBEC
:1048D000432003EB800000F55850193080B200EB04
:1048E000402100EB810101F55851193189B201EBEA
:1048F000412301EB830303F5585319339BB203EBB8
:10490000432603EB860600EB102001EB112106F590
:10491000585603EB1323C7B2C9B21936DBB2B6B28D
:1049200007EB870EC1EB0111C3EB0313881199113B
:1049300007EB4E0306EB16273230C7F381173C31E5
:104940001B12C0B20137C9B214338DE88300DBB249
:10495000012120462E80FEF747F80AE690F83F2214
:10496000002A7FF406AE5F4D2B8803EB432003EB58
:10497000800000F55850193080B200EB402100EB68
:10498000810101F55851193189B201EB412301EB45
:10499000830303F5585319339BB203EB432603EB10
:1049A000860600EB102001EB112106F5585603EBAB
:1049B0001323C7B2C9B21936DBB2C1EB0111C3EB85
:1049C000031307EB870EB6B28811991107EB4E035C
:1049D00006EB16273230C7F381173C311B12C0B2E9
:1049E0000137C9B21433BCE590F83F22002A7FF4A6
:1049F00042AE3C4980F83E220B8880F8462203EB09
:104A0000432203EB820303F55853193303EB43228C
:104A100003EB820303F5585319339BB203EB432096
:104A200003EB800000F55850193080B200EB4022B3
:104A300000EB820202F55852193292B202EB422781
:104A400002EB870707F558571937BFB207EB472521
:104A500007EB850505F558551935ADB205EB452E23
:104A600003EB132305EB8E0EDBB202EB122200EBFD
:104A7000102003EB4306D2B20EF5585EC0B202EB33
:104A8000820200EB4000F6110EF1190E02EB8203D8
:104A90001FFA8EFE821107EB1727701C08329B113C
:104AA000C7F3421705EB152584F841020EEB1E20D3
:104AB000743B7E1CC5F3C015C0F3C01084F84222BD
:104AC000012284F8433284F84462A1F800E084F8BB
:104AD000D60184F8455284F83F2284F83B2284F8BA
:104AE0004722C8E54287FF1F90F83F22002A7FF443
:104AF000C2AD9A4980F83E220B8880F8472203EB2A
:104B0000432203EB820303F55853193303EB43228B
:104B100003EB820303F5585319339BB203EB432095
:104B200003EB800000F55850193080B200EB4022B2
:104B300000EB820202F55852193292B202EB422780
:104B400002EB870707F558571937BFB207EB472520
:104B500007EB850505F558551935ADB205EB452E22
:104B600003EB132305EB8E0EDBB202EB122200EBFC
:104B7000102003EB4306D2B20EF5585EC0B202EB32
:104B8000820200EB4000F6110EF1190E02EB8203D7
:104B90001FFA8EFE821107EB1727701C08329B113B
:104BA000C7F3421705EB152584F841020EEB1E20D2
:104BB000743B7E1CC5F3C015C0F3C01084F84222BC
:104BC000012284F8433284F84462A1F800E084F8BA
:104BD000D60184F8455284F83F2284F83B2284F8B9
:104BE000462248E590F83F1200297FF444AD5B4827
:104BF00084F83E12038884F8461203EB432203EB49
:104C0000820303F55853193303EB432203EB82036A
:104C100003F5585319339BB203EB432503EB85058A
:104C200005F558551935ADB205EB452205EB820265
:104C300002F55852193292B202EB422702EB870773
:104C400007F558571937BFB207EB472607EB86061B
:104C500006F558561936B6B206EB462C06EB8C0C08
:104C600002EB122205EB152503EB1323D2B20CF550
:104C7000585CEDB2DBB202EB820205EB45050CF1AC
:104C8000190C03EB430E1FFA8CFC02EB820307EBBB
:104C90001727AA1108324FEAEE1E9B11C7F34217DD
:104CA00006EB162684F847120CEB1C210EF10105C9
:104CB000743B0137C6F3C016C1F3C01184F8422219
:104CC000012284F8415284F8433284F84472A0F8F7
:104CD00000C084F8D61184F8456284F83F2284F835
:104CE0003B22C8E405B0BDE8F040FFF799BB05B032
:104CF000BDE8F040FEF7A2BE05B0BDE8F040FEF70B
:104D00002BBE05B0BDE8F040FEF7D8BF05B0BDE84A
:104D1000F040FEF745BC90F83F22002A7FF426AD14
:104D20000E4E338803EB432503EB850505F55855F7
:104D30001935ADB205EB1523C3F3811301335A20A6
:104D400064210293019000911423012120463580B3
:104D5000FDF74AFE0AE505B0F0BD00BF4287FF1F20
:104D600070B540F6B83182B0634801F053FA4FF4A1
:104D70006141614801F04AFA01215F4801F020FADF
:104D800050B110215D4802F077FD5B480A2101F027
:104D900005FA594801F038FA01220021564801F07D
:104DA000E5FA40F2DC51564802F0C2FF08215548AE
:104DB00002F062FD524802F063FF4FF47A7001F096
:104DC00043FD5148036813F0010471D04F4C504922
:104DD0005048514DFF260023962200F021FFB022BB
:104DE000F023204601A926708DF805208DF80630A5
:104DF0008DF8046000F054FF40F6B831052001F052
:104E0000C1F94FF4975302202B8001F0EFFB2B8860
:104E10000021034420462B8001F054F821782046DD
:104E200000F076FF2046322100F0D4FF002501AAD1
:104E3000962137488DF804608DF805508DF806509E
:104E400000F044FD2046FA2100F0C4FF01AA96219B
:104E50002F488DF806608DF804508DF8055000F04D
:104E600035FD2046FA2100F0B5FF802301AA9621E6
:104E700027488DF805308DF804508DF8065000F065
:104E800025FD2046FA2100F0A5FF2946204601F025
:104E900019F82046FA2100F09DFFFBF73DFD0E2199
:104EA0001E4802F0E9FC164802F0EAFE02B070BDAE
:104EB00001F04AFC002889D01949164B08685C604B
:104EC000FF2201255C619C609D741A735A739A736A
:104ED000DA731A745A7460B1124A116801B18B60A6
:104EE00013600022104908489A61196001F032FCF1
:104EF0006CE70B60F0E700BF109DFF1FC0A3000030
:104F00004C87FF1FD4A300004C8CFF1FE89CFF1FA1
:104F1000249BFF1F508CFF1F4287FF1FE0A3000050
:104F2000F89CFF1F089DFF1FE08A00002DE9F04F4D
:104F300097B003F009FDA34DA34A296813881844CC
:104F4000CB07108040F1B281A04EA14C336803938F
:104F5000039AA04823886188A0FB0202C3EB921346
:104F60009BB2994209D833680293029B994AA2FBEB
:104F700003239B092380FBF791FE974D2B68DF07E6
:104F800040F18B813368954C0693069A91482388AB
:104F90006188A0FB0202C3EB92139BB2994240F2DC
:104FA0004F818F4DDFF880A28E4FDFF88082D8F8D6
:104FB0000030DC0740F1698133688B4C099394E839
:104FC0000600099B5B1A93420DD333688749089307
:104FD000089B2360A1F13000182200F0F9FD2B7826
:104FE000002B40F08D81DFF84892DFF84882D9F835
:104FF0000030DFF844B29AF8D52197F8D51188F837
:105000000020D8078BF8001040F1C080784C33683E
:105010000C9394E805000C9B1B1A934280F0C88007
:10502000DFF81892D9F80030D9076DD5714C336884
:105030000F9394E806000F9B5B1A9A4273D92B7862
:10504000002B79D06C4FFBF799FE3B68DA0740F1F3
:1050500093803368694C1293129A5E482388618862
:10506000A0FB0202C3EB92139BB2994226D833688D
:105070001193119B574A5B48A2FB03239B09238092
:10508000FCF7FEFB2B78002B40F0368114215C48A6
:1050900002F0F2FB5B4B5C48198802F041FE5A4873
:1050A00002F0EEFD1621594802F0E6FB584B564837
:1050B000198802F035FE544802F0E2FD554D2B6888
:1050C000DB0740F109813368534C1593159A534817
:1050D00023886188A0FB0202C3EB92339BB2994202
:1050E0000BD833684A491493149B4C480A88A0FB98
:1050F00003039B0B013223800A804948017800F0AA
:1051000007FE17B0BDE8F08F484601F01DFB0028F0
:1051100040F02781374C33680F9394E806000F9BCB
:105120005B1A93428BD333680E932B780E9A2260CE
:10513000304A002B40F0D980B9683A4B97F900E02B
:10514000084603F5E17730EA2E0228BF0A4603330A
:10515000147803F8034C547803F8024C927803F85F
:10516000012C9F42A1F1030100F10300EBD1224F7A
:105170003B68DA073FF56DAF384601F0E5FA0028E5
:1051800040F0FB801D4C3368129365E7484601F000
:10519000DBFA002840F0D980154C33680C930C9949
:1051A00023686268CB1A9342FFF43AAF9BF8001071
:1051B00033680B930B9B0B4861602360FFF76EF91C
:1051C0002EE700BFD093FF1F4287FF1F609DFF1F88
:1051D000BC93FF1FD34D6210D493FF1F708CFF1F31
:1051E000AC93FF1FFC93FF1FC093FF1F0596FF1F8B
:1051F000A493FF1F9C93FF1FDC93FF1FC893FF1F07
:10520000F0A300006C8CFF1F4C87FF1F08A4000058
:10521000EC93FF1FE093FF1FF493FF1F73B2E7456A
:10522000E89CFF1F249BFF1F748CFF1FD893FF1F58
:10523000F893FF1FE493FF1FE593FF1FF093FF1FF9
:10524000336805935C4A059B5C4DA2FB03232A78D7
:105250009B0923805AB1DFF880A19AF83B32002BDA
:105260003FF4A2AE5046FCF7E3FD554F9DE6544F88
:1052700097F83B32002B4AD1DFF87481DFF858A150
:10528000D8F80030DC073FF597AE404601F05CFAF5
:10529000002840D14B4C336890E6284601F054FA80
:1052A000002843D1484C336806936EE6284601F047
:1052B0004BFA464E00283FF448AE336801933E4A0D
:1052C000019B434CA2FB03239B0914222846238005
:1052D000628001F03FFA39E6284601F035FA0028ED
:1052E0005AD13C4C33681593F0E698F800303A48B0
:1052F0005360FFF7D3F8A2E63748FCF7C1FAC5E6DA
:1053000036491822A1F1300000F062FC6BE6384605
:10531000FCF78EFDB0E733682A4C0793079B2360A8
:1053200032234046636001F015FAB4E73368049312
:10533000049B214A244CA2FB03239B091E222846DE
:105340002380628001F006FAADE733680A93244CAB
:105350000A9A9BF8003022604846636001F0FAF92F
:105360001BE733680D931F4C0D9A98F800302260AC
:105370004846636001F0EEF9CDE633681093109B68
:105380000D4A194CA2FB03239B09052238462380B2
:10539000628001F0DFF9F6E633681393139B134A3A
:1053A0000C4CA2FB03239B0B012228462380628026
:1053B00001F0D0F996E700BFD34D6210AC93FF1F08
:1053C000FC93FF1FC093FF1F708CFF1F609DFF1F8A
:1053D000BC93FF1FF493FF1F748CFF1F7D8EFF1F74
:1053E000A493FF1F9C93FF1FC893FF1F73B2E74551
:1053F000D893FF1F10B4040600F11981484B4949A6
:10540000022404221C600A6000BF00BF00BF00BF6E
:1054100000BF1A6000BF00BF00BF00BF410640F1DF
:105420008380404A022104231160136000BF00BF43
:1054300000BF00BF00BF536000BF00BF00BF00BF80
:10544000820640F18480374A0221042311601360F0
:1054500000BF00BF00BF00BF00BF536000BF00BF60
:1054600000BF00BFC30640F185802E4A02210423FD
:105470001160136000BF00BF00BF00BF00BF5360DA
:1054800000BF00BF00BF00BF040740F18680254A6F
:10549000022104231160136000BF00BF00BF00BFE2
:1054A00000BF536000BF00BF00BF00BF410740F115
:1054B00087801C4A022104231160136000BF00BFD3
:1054C00000BF00BF00BF536000BF00BF00BF00BFF0
:1054D000820740F18880134A02210423116013607F
:1054E00000BF00BF00BF00BF00BF536000BF00BFD0
:1054F00000BF00BFC30700F18980094B09490220A2
:10550000042218600A6000BF00BF00BF00BF00BFD8
:105510001A6000BF00BF00BF00BF10BC704700BFD3
:10552000C8F00F40C4F00F40494B4A4902240422FE
:105530001C600A6000BF00BF00BF00BF00BF1A6050
:1055400000BF00BF00BF00BF82063FF57CAF404BED
:105550004049022404221C600A6000BF00BF00BF53
:1055600000BF00BF1A6000BF00BF00BF00BFC3067E
:105570003FF57BAF364B3749022404221C600A609A
:1055800000BF00BF00BF00BF00BF1A6000BF00BF68
:1055900000BF00BF04073FF57AAF2D4B2D49022411
:1055A00004221C600A6000BF00BF00BF00BF00BF34
:1055B0001A6000BF00BF00BF00BF41073FF579AFD1
:1055C000234B2449022404221C600A6000BF00BF50
:1055D00000BF00BF00BF1A6000BF00BF00BF00BF18
:1055E00082073FF578AF1A4B1A49022404221C6047
:1055F0000A6000BF00BF00BF00BF00BF1A6000BF4D
:1056000000BF00BF00BFC3077FF577AF114A02217B
:1056100004231160136000BF00BF00BF00BF00BFC4
:10562000536000BF00BF00BF00BF10BC7047094AF5
:10563000022104231160136000BF00BF00BF00BF40
:1056400000BF536000BF00BF00BF00BFE6E600BF61
:10565000C8F00F40C4F00F402DE9F04F804680693C
:1056600081B00C4650B10368774A1B68934240F002
:10567000E8804268017B13780B4313700020277D7C
:1056800094F8139094F812A0FFF7B4FE0020FFF7EF
:10569000B1FE0020FFF7AEFE0020FFF7ABFEA368CF
:1056A000002B44DD22680AF1010A09F101090137E2
:1056B000A1695318565C5D7893F802B009FB05F5B3
:1056C0002D1207FB0BFB0AFB06F62D0236124FEAE2
:1056D0002B2BADB26BF0FF0BFF203543FFF78AFE9B
:1056E000ADB25FFA8BF0FFF785FE280AFFF782FE66
:1056F000E8B2FFF77FFEA368267B657B94F80EE097
:10570000216894F80FB094F810C0607C94F91520CB
:10571000013BC6EB0B06C5EB0C05CEEB00000A44C3
:10572000002B26736573A0732260A360C0DC6668DB
:10573000464D474C002EB8BF1F367611FF20FFF7AD
:1057400059FE0020FFF756FE0222042322602B6040
:1057500000BF00BF00BF00BF00BF236000BF00BF8D
:1057600000BF00BF22602B6000BF00BF00BF00BFB2
:1057700000BF236000BF00BF00BF00BF22602B60DE
:1057800000BF00BF00BF00BF00BF236000BF00BF5D
:1057900000BF00BF22602B6000BF00BF00BF00BF82
:1057A00000BF236000BF00BF00BF00BF22602B60AE
:1057B00000BF00BF00BF00BF00BF236000BF00BF2D
:1057C00000BF00BF22602B6000BF00BF00BF00BF52
:1057D00000BF236000BF00BF00BF00BF22602B607E
:1057E00000BF00BF00BF00BF00BF236000BF00BFFD
:1057F00000BF00BF22602B6000BF00BF00BF00BF22
:1058000000BF236000BF00BF00BF00BF0020013EFB
:10581000FFF7F0FD731C91D1D8F8180050B1036860
:105820000C4A5B68934208D14268017B137823EAF3
:105830000103137001B0BDE8F08F01B0BDE8F04F77
:10584000184798471AE700BF75040000C4F00F40DE
:10585000C8F00F4081040000F0B41A4A1A4B02F15C
:10586000100502F5E974012103F110009560D46080
:10587000FF250F24962603F5E97798601170002024
:10588000197082F8D45183F8D45182F8D54183F845
:10589000D541DF6056605E6082F8D61182F8D7117C
:1058A00082F8391282F83B1283F8D61183F8D711A7
:1058B00083F8391283F83B1282F83F0283F83F02E3
:1058C000F0BC7047FC93FF1F748CFF1F00290BDD99
:1058D00001EB4101014413780370537843709378CE
:1058E000837003308842F6D1704700BF70B582B034
:1058F000FF25F02400298DF804208DF806508DF83E
:10590000054010DD01EB41011E46044645182146C5
:1059100001A800F0F9FA9DF8042003343244AC42A7
:105920008DF80420F3D102B070BD00BF2DE9F04F17
:105930008B42099E52D396F800E01578777896F856
:105940000280547892F802C0C1EB030BC5EB0E0E37
:10595000C4EB070ACCEB08061FFA8BF24FEACE1E07
:105960004FEACA1AF601B2B30FFA82FB9EFBFBFEA6
:105970009AFBFBFA4FEA4E0E4FEA4A0A96FBFBFBF4
:1059800099424FEA4B0B1FFA8EFE1FFA8AFA1FFA52
:105990008BFB4FEA05254FEA04244FEA0C2218D866
:1059A00001EB41070131C61989B24FEA25294FEAB7
:1059B00024284FEA222C754454445A448B4200F860
:1059C0000790ADB286F80180A4B286F802C092B208
:1059D000E6D2BDE8F08F4FF0010BC7E78946357876
:1059E00092F800E07478577896F802C092F8028036
:1059F0001570194686F800E04B465470777082F8AF
:105A000002C086F802809FE709B330B44D1EADB2E4
:105A1000D2430135D2B205EB450505440132441CA1
:105A200014F8013C02FB03F31B1204F8013C41781B
:105A3000837802FB01F102FB03F309121B12417090
:105A400083700330854204F10304E9D130BC704710
:105A5000FFF7DABF22B3FF2A23D0F0B404780E7820
:105A6000437895B2A719D24306FB0576D2B204FB60
:105A70000264C4F3072404704C7886781F1904FB71
:105A8000057403FB0243C3F3072343708B78F118BB
:105A900003FB051506FB0252F0BCC2F3072282701D
:105AA00070470B7803704B7843708B788370704726
:105AB00038B50D7805704D78457089788170044649
:105AC00011461A46FFF7C6FF204638BD01EB4103D9
:105AD000C1EB8313003118BF012101EB2321C9B2AF
