:1000000000800020BD010000E15A0000995A000064
:10001000995A0000995A0000995A0000995A000014
:10002000995A0000995A0000995A0000E15A0000BC
:10003000E15A0000995A00000D6F00001170000095
:10004000E15A0000E15A0000E15A0000E15A0000C4
:10005000E15A0000E15A0000E15A0000E15A0000B4
:10006000E15A0000E15A0000E15A0000E15A0000A4
:10007000E15A0000E15A0000E15A0000E15A000094
:10008000E15A0000E15A0000E15A0000E15A000084
:10009000E15A0000E15A0000E15A0000E15A000074
:1000A000E15A0000E15A0000E15A0000E15A000064
:1000B000E15A0000E15A0000E15A0000E15A000054
:1000C000E15A0000E15A0000E15A0000E15A000044
:1000D000E15A0000E15A0000E15A0000E15A000034
:1000E000E15A0000E15A0000E15A0000E15A000024
:1000F000E15A000019720000E15A00004573000047
:10010000E15A000071740000E15A0000E15A000059
:10011000E15A0000E15A0000E15A0000E15A0000F3
:10012000E15A0000E15A0000E15A0000E15A0000E3
:10013000E15A0000E15A0000E15A0000E15A0000D3
:10014000E15A0000E15A0000E15A0000E15A0000C3
:10015000E15A0000E15A0000E15A0000E15A0000B3
:10016000E15A0000295F0000E15A0000E15A000056
:10017000E15A0000E15A0000E15A0000E15A000093
:10018000E15A0000E15A0000E15A0000E15A000083
:10019000E15A0000E15A0000E15A0000E15A000073
:1001A000E15A0000E15A0000E15A0000E15A000063
:1001B000E15A0000E15A0000E15A0000564B4CF2AF
:1001C000205210B51A804DF628121A8000BF00BFC9
:1001D00005F08AFC514B4FF010621A60504A9A6049
:1001E000504ADA60504A136813F4807304D14F49BF
:1001F0000B604FF4A85313604D4B1A78110703D5C9
:100200001A7842F008021A704A4B4B492A221A7097
:100210004A4A4B4B8B4204D252F8040F43F8040B6A
:10022000F8E7484B484900228B4202D243F8042B9E
:10023000FAE74649464A002352F8230041F82300D2
:1002400001336F2BF8D1434B434A802103F8011B44
:100250009342FBD1414B3D4A1A60414B8A221A70AE
:10026000A3F5805324225A70A0221A709A7992071B
:10027000FCD59A79D406FCD43A4A937903F00C035E
:10028000082B384BF9D103221A7140225A719A79FE
:100290009006FCD5334A9179324B4906FBD5324A58
:1002A000324911600221516020221A709A7902F0BD
:1002B0000C020C2AFAD12E4B2E4A1A602E4B2F4AD2
:1002C0001A6000225A60072243F8042C2C4AC3F813
:1002D0000C2D62B605F0DEFC144B1B68DA0705D561
:1002E000284805F04FFC284B284A1A60284B1B78F9
:1002F0005B0609D5244C254B22689A4204D121483B
:1003000005F040FC0023236007F066F905F0F2FBDE
:1003100006F086FEFEE700BF0E2005403080044058
:10032000823F04000100002B10D0034014D0034092
:1003300002D0074000E007401C8CFF1FD09E000049
:100340002087FF1F1C8CFF1FA897FF1F0082FF1F25
:100350000000000000E400E05FE400E008ED00E0E1
:100360000050064000400640448004400000030165
:1003700004800440C010050014E000E0FF76010096
:100380000000202064C6295E1CE00340A5C3945AE7
:1003900000F00740FFFFFFFFFFFFFFFFFFFFFFFF32
:1003A000FFFFFFFFFFFFFFFFFFFFFFFFFFFFFFFF5D
:1003B000FFFFFFFFFFFFFFFFFFFFFFFFFFFFFFFF4D
:1003C000FFFFFFFFFFFFFFFFFFFFFFFFFFFFFFFF3D
:1003D000FFFFFFFFFFFFFFFFFFFFFFFFFFFFFFFF2D
:1003E000FFFFFFFFFFFFFFFFFFFFFFFFFFFFFFFF1D
:1003F000FFFFFFFFFFFFFFFFFFFFFFFFFFFFFFFF0D
:10040000FFFFFFFFFFFFFFFFFFFFFFFFDEF9FFFF23
:1004100010B5054C237833B9044B13B10448AFF33E
:1004200000800123237010BD1C8CFF1F0000000002
:10043000D49E0000084B10B51BB108490848AFF323
:1004400000800848036803B910BD074B002BFBD0A0
:10045000BDE81040184700BF00000000208CFF1FBF
:10046000D49E00001C8CFF1F0000000040697047F4
:10047000002070474268017B13780B43137070476C
:100480004268017B137823EA01031370704700BFB1
:1004900070B4154E338803EB432443F2196503EB24
:1004A00084032B449BB203EB432403EB84042C44CE
:1004B000A4B204EB142503EB1323DBB2EDB203EB80
:1004C000430305EB45050A390A3AC3EBC303C5EB01
:1004D000C50502EB252501EB2323348080F83D522E
:1004E00080F83B3270BC70473487FF1F10B5012184
:1004F00004460E2005F058FB0720012105F054FBAF
:10050000A06958B10368074A5B68934207D1426803
:10051000017B137823EA0103137010BD10BDBDE801
:100520001040184781040000F0B58BB00023056827
:100530008DF804308DF805308DF806302E68374A76
:100540008DF8083096428DF809308DF80A305FD169
:10055000827C04910446012A01A805918DF81E3081
:100560008DF81F308DF82030039015D08DF81D3098
:100570008DF81C308DF81B308DF81A308DF819303D
:100580008DF818300023AA698DF821302046099390
:1005900003A990470BB0F0BD214A1378013303F053
:1005A000070313F0010F14BF8021002113709A0775
:1005B00044BF41F04001C9B25B0748BF41F0200190
:1005C00010310022C9B20DF11B030DF11E074FF4CB
:1005D000807EAAB19EFBF2F2D2B2501CC0B200FBE8
:1005E00001152D121870EEB205B1013E03F8036C2F
:1005F00000B11A7001339F4208D0DA78002AE9D19D
:100600001A7003F8032C01339F42F6D12568B9E72D
:100610000A4602AB01A9B0470BB0F0BDE9060000E5
:10062000388CFF1FF0B5857C1C785E789B7889B08C
:10063000012D0191029203928DF816408DF81760FA
:100640008DF8183017D000238DF815308DF8143040
:100650008DF813308DF812308DF811308DF8103080
:100660000368002203219B698DF81910079201A9E4
:10067000984709B0F0BD1B4A1378013303F0070314
:1006800013F0010F137014BF80220022990744BF9A
:1006900042F04002D2B25B0748BF42F02002103263
:1006A000D2B20DF113030DF116074FF4807EACB1F9
:1006B0009EFBF4F4E4B2611CC9B201FB02252D12C9
:1006C0001970EEB205B1013E03F8036C01B11C7064
:1006D0000133BB42C4D0DC78002CE9D11C7003F894
:1006E000034CF5E7388CFF1FF0B5857C1C785E78ED
:1006F0009B7889B0012D0191029203928DF81640EA
:100700008DF817608DF8183016D000238DF815304D
:100710008DF814308DF813308DF812308DF81130BB
:100720008DF810300268002392698DF81930079314
:1007300001A9904709B0F0BD1B4A1378013303F0BB
:10074000070313F0010F137014BF802200229907D2
:1007500044BF42F04002D2B25B0748BF42F02002E1
:100760001032D2B20DF113030DF116074FF4807E53
:10077000ACB19EFBF4F4E4B2611CC9B201FB0225EA
:100780002D121970EEB205B1013E03F8036C01B1F0
:100790001C700133BB42C5D0DC78002CE9D11C7041
:1007A00003F8034CF5E700BF388CFF1F2DE9F04F2D
:1007B00089B00790806950B10368574A1B6893421B
:1007C00040F07E824268007B1378034313705348E5
:1007D000534A0D7DCF7C91F812E00224042304607B
:1007E000136000BF03600460136000BF0360046017
:1007F000136000BF03600460136000BF0360046007
:10080000136000BF03600460136000BF03600460F6
:10081000136000BF03600460136000BF03600460E6
:10082000136000BF03600460136000BF03600460D6
:10083000136000BF03600460136000BF03600460C6
:10084000136000BF03600460136000BF03600460B6
:10085000136000BF03600460136000BF03600460A6
:10086000136000BF03600460136000BF0360046096
:10087000136000BF03600460136000BF0360046086
:10088000136000BF03600460136000BF0360046076
:10089000136000BF03600460136000BF0360046066
:1008A000136000BF03600460136000BF0360046056
:1008B000136000BF03600460136000BF0360046046
:1008C000136000BF03600460136000BF0360046036
:1008D000136000BF03600460136000BFD1F808A07C
:1008E0000360BAF1000F40F34981D1F818B0D1F894
:1008F00000C0CDF804A00EF1010606967E1C0596F8
:100900000BF10206013503960BF1010604950296E0
:100910002546664606E000BF75040000C8F00F409B
:10092000C4F00F40039F16F80BE016F80780029FF3
:1009300016F807C0049F156007FB08F8059F07FB22
:100940000CFC069F136007FB0EFE4FEA282868F098
:10095000FF084FEA2C2C4FEA2E2E00BF03601560D3
:10096000136000BF03601560136000BF0360156073
:10097000136000BF03601560136000BF0360156063
:10098000136000BF03601560136000BF0360156053
:10099000136000BF18F0800F03605FFA88F914BF7E
:1009A00014600460136000BF19F0400F036014BFAF
:1009B00014600460136000BF19F0200F036014BFBF
:1009C00014600460136000BF19F0100F036014BFBF
:1009D00014600460136000BF19F0080F036014BFB7
:1009E00014600460136000BF19F0040F036014BFAB
:1009F00014600460136000BF19F0020F036014BF9D
:100A000014600460136000BF19F0010F036014BF8D
:100A100014600460136000BF4FEA0C2C1FFA8CFCBA
:100A20004CEA0E0E1FFA8EFE4FEA2E2818F0800FA9
:100A300003605FFA88FC14BF14600460136000BF99
:100A40001CF0400F036014BF14600460136000BF0B
:100A50001CF0200F036014BF14600460136000BF1B
:100A60001CF0100F036014BF14600460136000BF1B
:100A70001CF0080F036014BF14600460136000BF13
:100A80001CF0040F036014BF14600460136000BF07
:100A90001CF0020F036014BF14600460136000BFF9
:100AA0001CF0010F036014BF14600460136000BFEA
:100AB0001EF0800F03605FFA8EFC14BF14600460A8
:100AC000136000BF1CF0400F036014BF146004608B
:100AD000136000BF1CF0200F036014BF146004609B
:100AE000136000BF1CF0100F036014BF146004609B
:100AF000136000BF1CF0080F036014BF1460046093
:100B0000136000BF1CF0040F036014BF1460046086
:100B1000136000BF1CF0020F036014BF1460046078
:100B2000136000BF1CF0010F036014BF1460046069
:100B3000136000BF036091F8109091F80DE091F8F8
:100B40001180019F91F80CC091F80FA0CEEB090E17
:100B500091F80E9081F80DE0C9EB080891F9159015
:100B600081F80E80013FCCEB0A0C4E44002F019718
:100B70008F6081F80CC00E603FF7D4AE4C68524ACB
:100B80005249002CB8BF1F346411022004230860AE
:100B90000B6000BF136008600B6000BF136008604B
:100BA0000B6000BF136008600B6000BF136008603B
:100BB0000B6000BF136008600B6000BF136008602B
:100BC0000B6000BF136008600B6000BF1360106013
:100BD0000B6000BF136010600B6000BF13601060FB
:100BE0000B6000BF136010600B6000BF13601060EB
:100BF0000B6000BF136010600B6000BF13601060DB
:100C00000B6000BF136010600B6000BF13601060CA
:100C10000B6000BF136010600B6000BF13601060BA
:100C20000B6000BF136010600B6000BF13601060AA
:100C30000B6000BF136010600B6000BF136010609A
:100C40000B6000BF136010600B6000BF136010608A
:100C50000B6000BF136010600B6000BF136010607A
:100C60000B6000BF136010600B6000BF136010606A
:100C70000B6000BF136010600B6000BF136010605A
:100C80000B6000BF136010600B6000BF013C651C6F
:100C900013607FF47CAF079B986950B103680C4ADE
:100CA0005B68934208D14268017B137823EA010311
:100CB000137009B0BDE8F08F09B0BDE8F04F1847D8
:100CC00001919847019982E5C8F00F40C4F00F40A8
:100CD0008104000038B5044608460D4606F030FD94
:100CE0002368024629465B68204698470546204609
:100CF00006F09EF9284438BD38B5002104469448D2
:100D000005F092FF934806F093F91921924805F0F7
:100D10008BFF904806F08CF91221904805F084FF73
:100D200094F8C631002B00F0C781012B00F0FB8145
:100D3000022B00F000821221894805F075FF002384
:100D40000A2294F8C211834806F082F9814806F01D
:100D50006FF91221834805F067FF00230A2294F8F7
:100D6000C3117C4806F074F97A4806F061F9122143
:100D70007D4805F059FF94F82912764806F0A8F945
:100D8000744806F055F91221784805F04DFF94F8A3
:100D9000C411704806F09CF96E4806F049F912211A
:100DA000734805F041FF94F8C5116A4806F090F9C0
:100DB000684806F03DF912216E4805F035FF002322
:100DC0000A2294F82A12634806F042F9614806F0B4
:100DD0002FF91221684805F027FF94F82D125D487D
:100DE00006F076F95B4806F023F919215A4805F018
:100DF0001BFF584806F01CF994F82C320F2B00F218
:100E00004581DFE813F0D100430143014301430171
:100E10006D004301430127004301430143014301A6
:100E20004301430110001321544805F0FDFE4948D9
:100E300006F0FEF81921484805F0F6FE454806F090
:100E4000F7F80021424805F0EFFE4248BDE838407F
:100E500006F0EEB894F82B320D2B07BF0A21484854
:100E60004848092105F0E0FE94F8D732002B40F005
:100E7000338194F8D632002B40F05081052142484E
:100E800005F0D2FE334806F0D3F80D213F4805F0B7
:100E9000CBFE00230A2294F83A122E4806F0D8F826
:100EA0002C4806F0C5F80D21394805F0BDFE002399
:100EB0000A2294F83C12274806F0CAF8254806F0A2
:100EC000B7F894F8D652002D00F00B8194F82B124D
:100ED0000D29AFD12F4805F0A7FE94F8D9122DE0C7
:100EE00094F83932002B00F0EF8019212A4805F0E0
:100EF0009BFE184806F09CF80B21284805F094FE4C
:100F000000230A2294F83812124806F0A1F811487A
:100F100006F08EF80B21224805F086FE00230A22F7
:100F200094F837120B4806F093F80A4806F080F858
:100F30000B211C4805F078FE94F836120548002372
:100F40000A2206F085F8034806F072F872E700BF3F
:100F5000B08F00003C87FF1F2C87000048870000EF
:100F600074870000888700009C870000B08700001D
:100F7000C4870000D8870000EC8700006489000067
:100F8000EC880000F8880000408700001489000009
:100F90002489000054890000AC880000C888000043
:100FA000D4880000E08800001621674805F03CFE68
:100FB000664806F03DF80F21654805F035FE002330
:100FC0000A2294F82E12614806F042F85F4806F0B3
:100FD0002FF80F215F4805F027FE00230A2294F81E
:100FE0002F125A4806F034F8584806F021F80F211D
:100FF000594805F019FE00230A2294F8301253488C
:1010000006F026F8514806F013F80F21534805F072
:101010000BFE00230A2294F831124C4806F018F80F
:101020004A4806F005F80F214D4805F0FDFD002364
:101030000A2294F83212454806F00AF8434805F0AF
:10104000F7FF0F21474805F0EFFD94F833123F48B2
:1010500006F03EF83D4805F0EBFF0F21424805F051
:10106000E3FD94F83412394806F032F8374805F0B9
:10107000DFFF0F213D4805F0D7FD94F835123348C6
:1010800006F026F8314805F0D3FFD3E600213848B2
:1010900005F0CAFD2D4805F0CBFF1521354805F0B8
:1010A000C3FD2A4805F0C4FF0021314805F0BCFD0E
:1010B000264805F0BDFFBDE607212F4805F0B4FD29
:1010C000224805F0B5FF36E613212C4805F0ACFDAB
:1010D0001E4805F0ADFF0FE70721294805F0A4FDE4
:1010E000C7E60D21274805F09FFD2B460A2294F8FC
:1010F0003B12164805F0ACFF144805F099FF0D218E
:10110000214805F091FD2B460A2294F83D120F4824
:1011100005F09EFF0D4805F08BFFD7E605211B4823
:1011200005F082FDAAE60421194805F07DFD074877
:1011300005F07EFFFFE50721164805F075FD034821
:1011400005F076FFF7E500BF008800003C87FF1F31
:1011500018880000288800003888000048880000AF
:10116000588800006888000078880000888800009F
:10117000B08F0000788900005C870000988800002C
:101180000489000034890000448900000C890000B3
:10119000648700006C870000484B1B78002B00F030
:1011A0008B802DE9F04F9BB000F2F7130A930023D8
:1011B000434A0793DFF80C91099000F22623089226
:1011C0000B93002759F82730DBB20137FF2BBFB252
:1011D000F8D1D9F8003006974FF0FF32C3F3074A31
:1011E0000592C3F3072B4FEA13680024D64659F83B
:1011F000045FC5F307464FEA241CC5F30727ECB28A
:10120000F1B2C5F307650391E9B204915FFA8CF17D
:10121000029106990F290DAA0EA84FEA14135FFA3E
:1012200087FA0CD805998C4507DC0F2905D00131C8
:10123000C9B28B42029138BF0B4659B205910CA935
:10124000009102998DF834B08DF835E08DF8368034
:101250008DF830708DF831608DF8325003F03EFD1E
:10126000FF2CD346DDF80CE0DDF81080BFD10A9BDF
:101270000EAA934218D0099B0B9C03F5FB7301E067
:10128000A34211D012F8011B13F8010F8842F7D0C6
:101290000A4B079A1B7801329342079209DD089B9B
:1012A00053F8049F08938CE7099B9DF81C2083F852
:1012B00027221BB0BDE8F08F704700BF3287FF1FA9
:1012C000E0840000DC8600002DE9F04FB84C8BB0C4
:1012D00000279621204609AA8DF824708DF82570E4
:1012E0008DF8267003F0CAFCB24984F8C67151F833
:1012F0002730B04ADBB20137FF2BBFB2F7D11368FA
:1013000007974FEA1368C3F3072BC3F307494FF05E
:10131000FF33924606930024C6465AF8045FA64857
:10132000C5F30727C5F30746F9B24FEA241C049119
:10133000F1B205915FFA8CF103910799ECB20F2994
:10134000C5F3076509AA4FEA14135FFA85F80CD8AC
:1013500006998C4507DC0F2905D00131C9B28B42B3
:10136000039138BF0B4659B2069108A90091039921
:101370008DF824B08DF825908DF826E08DF820703A
:101380008DF821608DF8225003F0A8FCFF2CDDF8C9
:1013900010B0DDF81490C646BFD18849002751F837
:1013A0002730864ADBB20137FF2BBFB2F7D1136873
:1013B00007974FEA1368C3F3072BC3F307494FF0AE
:1013C000FF33C64606930024904658F8045F784BD6
:1013D000C5F30727C5F30746F9B24FEA241C049169
:1013E000F1B205915FFA8CF103910799ECB20F29E4
:1013F000C5F3076503F2F71009AA4FEA14135FFA61
:1014000085FA0CD806998C4507DC0F2905D00131E7
:10141000C9B28B42039138BF0B4659B2069108A955
:10142000009103998DF824B08DF825908DF826E071
:101430008DF820708DF821608DF8225003F04EFC5D
:10144000FF2CDDF810B0DDF81490D646BDD1584819
:101450005B4CFFF7A1FE5B4B554A1B7882F82B32A1
:1014600000279621204609AA8DF824708DF8257052
:101470008DF8267003F002FC0123534984F8C6312D
:1014800051F82730504ADBB20137FF2BBFB2F7D1FA
:1014900013680797C3F30749C3F3072B4FEA136891
:1014A0004FF0FF33924606930024CE465AF8045F6D
:1014B0004648C5F30727C5F30746F9B24FEA241C8F
:1014C0000491F1B205915FFA8CF103910799ECB2A6
:1014D0000F29C5F3076509AA4FEA14135FFA85F9C6
:1014E0000CD806998C4507DC0F2905D00131C9B20B
:1014F0008B42039138BF0B4659B2069108A900915F
:1015000003998DF824B08DF825E08DF826808DF8AC
:1015100020708DF821608DF8225003F0DFFBFF2C46
:10152000DDF810B0DDF814E0C846BFD12849002727
:1015300051F82730264ADBB20137FF2BBFB2F7D173
:1015400013680797C3F30749C3F3072B4FEA1368E0
:101550004FF0FF33924606930024CE465AF8045FBC
:101560001C48C5F30727C5F30746F9B24FEA241C08
:101570000491F1B205915FFA8CF103910799ECB2F5
:101580000F29C5F3076509AA4FEA14135FFA85F915
:1015900022D806998C4507DC0F2905D00131C9B244
:1015A0008B42039138BF0B4659B2069114E000BF3D
:1015B0007491FF1F309900003B93FF1FB899000002
:1015C000648CFF1F3087FF1F2C9100002B8EFF1FA4
:1015D0000C9200005B8EFF1F08A9009103998DF803
:1015E00024B08DF825E08DF826808DF820708DF8D8
:1015F00021608DF8225003F071FBFF2CDDF810B054
:10160000DDF814E0C846A9D10248FFF7C5FD0BB0CC
:10161000BDE8F08F648CFF1FF8B520212348244FCC
:10162000244E254D05F000FB244805F001FD24481B
:10163000244A03881478244903EB432203EB8203F2
:1016400003F5585319339BB203EB1322C2F38112F3
:1016500003320A7001221D493A7000220380327061
:101660002A7081F82D225CB991F82A32184A013388
:1016700003F00F0381F82A32D35C81F82B32F8BDD6
:1016800003EB432203EB820303F5585319339BB258
:1016900003EB1322C2F30312038081F82A221346BC
:1016A0000B4AD35C81F82B32F8BD00BF9089000053
:1016B000708FFF1F7C8FFF1F5C8CFF1F3C87FF1FFD
:1016C0003487FF1F3187FF1F6A91FF1F648CFF1F44
:1016D0002087FF1F2DE9F04FDFF844B3DFF848A360
:1016E000C04CC14F85B05D460BF5E1785646324699
:1016F00029463B78DFF8F09203A8033503F0B0FBEE
:101700009DF80C109DF80D209DF80E302170454578
:101710006270A37006F1030604F10304E7D1B34E2F
:101720003368DB0740F13F81B14DB24C2B68039326
:1017300094E80600039B5B1A93420CD33B782A681B
:1017400002920133029A2260DBB23B70FF2B06D07B
:1017500005B0BDE8F08F99F80030FF2BF8D1A6490D
:10176000A64BA74A0020087003F5E17512F8034C58
:1017700012F8020C12F8011C03F8034C03F8020CD7
:1017800003F8011C03339D4202F10302EED19AF8E3
:10179000C2219C4B9AF8C3419AF8C4019AF8C5112A
:1017A0008BF8C221984A8BF8C3418BF8C40103F12E
:1017B00030048BF8C51119685D6898681160D968A4
:1017C000D1601033A3425560906002F11002F2D153
:1017D0008E4B8F4A03F1300118685D689C68106079
:1017E000D868D06010338B425560946002F11002CB
:1017F000F2D19AF827429AF828029AF829129AF810
:101800002A229AF82B329AF82C528BF827428BF81E
:1018100028029AF82D429AF82E028BF829128BF89A
:101820002A229AF82F129AF830228BF82B328BF852
:101830002C529AF831329AF832528BF82D428BF8AA
:101840002E029AF833429AF834028BF82F128BF852
:1018500030229AF835129AF836228BF831328BF80A
:1018600032528BF833428BF835128BF83622694BA3
:101870008BF834029AF837029AF838529AF83942BB
:101880009AF83A128BF838528BF839429AF83B5250
:101890009AF83C428BF83A125F4A9AF83D128BF85C
:1018A00037028BF83B5203F14B008BF83C428BF82C
:1018B0003D1212F8011F03F8011B8342F9D1574A68
:1018C00003F14B0012F8011F03F8011B8342544936
:1018D000F8D19AF8D4429AF8D5029AF8D6229AF812
:1018E000D7329AF8D8629AF8D95281F8D44281F85E
:1018F000D502BAF8DA42BAF8DC0281F8D62281F8C9
:10190000D732BAF8DE229AF8E03281F8D86281F84C
:10191000D9529AF8E1629AF8E252A1F8DA42A1F8B3
:10192000DC029AF8E3429AF8E402A1F8DE2281F898
:10193000E032BAF8E622BAF8E83281F8E16281F8DA
:10194000E25281F8E402A1F8E622A1F8E83281F837
:10195000E342BAF8EA42BAF8EC02BAF8EE22BAF870
:10196000F072BAF8F262A1F8EA42BAF8F452A1F8B9
:10197000EC02BAF8F642A1F8EE22BAF8F802BAF888
:10198000FA22A1F8F0720023A1F8F262A1F8F45251
:10199000A1F8F642A1F8F802A1F8FA2281F8C631BE
:1019A00005B0BDE8F08F304604F0A6F8104D58B9E8
:1019B000104C2B68039394E80600039B5B1A934238
:1019C000BFF4BCAE3B78C1E6164B2A681B78094CC5
:1019D0000192019A22609B003046636004F092F805
:1019E000E7E700BFA88FFF1F5C8CFF1FA48FFF1FBE
:1019F000E894FF1F748FFF1F708FFF1F7791FF1FE9
:101A0000678CFF1F2B8EFF1F3B93FF1F5B8EFF1FFB
:101A10006B93FF1FB293FF1FA18EFF1FEC8EFF1F62
:101A20007491FF1F6A91FF1F648CFF1F10B5012185
:101A30000446934805F0F8F8214600230A2291480D
:101A400005F006FB0221904805F0EEF85C2C00F250
:101A50005F83DFE814F0580353034A034503CF02C2
:101A6000CA02C102B802AF02A6029D0294028B0212
:101A700082027902700267025E0255024C02430242
:101A80003A02310228021F0216020D020402FB0173
:101A9000F201E901E001DB01D601D101CC01C7016E
:101AA000C201BD01B801B301AE01A901A4019F01AA
:101AB0009A01950190018B01860181017C017701DA
:101AC00072016D016801630110010B010601010142
:101AD000FC00F700F200ED00E800E300DE00D900B2
:101AE000D400CF00CA00C500C000BB00B600B100E2
:101AF000AC00A700A2009D00980093008E00890012
:101B000084007F007A00750070006B0062005D0049
:101B10005E495C48FFF7DEF810BD0B215C4805F01C
:101B200083F85848BDE8104005F082BA5949554835
:101B3000FFF7D0F810BD58495248FFF7CBF810BD59
:101B400056495048FFF7C6F810BD55494D48FFF7B4
:101B5000C1F810BD53494B48FFF7BCF810BD5249BE
:101B60004848FFF7B7F810BD50494648FFF7B2F8AC
:101B700010BD4F494348FFF7ADF810BD4D494148EE
:101B8000FFF7A8F810BD4C493E48FFF7A3F810BD79
:101B90004A493C48FFF79EF810BD49493948FFF7CC
:101BA00099F810BD47493748FFF794F810BD4649EA
:101BB0003448FFF78FF810BD44493248FFF78AF8E0
:101BC00010BD43492F48FFF785F810BD41492D4806
:101BD000FFF780F810BD40492A48FFF77BF810BD99
:101BE0003E492848FFF776F810BD3D492548FFF7E4
:101BF00071F810BD3B492348FFF76CF810BD3A4916
:101C00002048FFF767F810BD38491E48FFF762F813
:101C100010BD37491B48FFF75DF810BD354919481D
:101C2000FFF758F810BD34491648FFF753F810BDB8
:101C300032491448FFF74EF810BD31491148FFF7FB
:101C400049F810BD2F490F48FFF744F810BD2E4941
:101C50000C48FFF73FF810BD2C490A48FFF73AF847
:101C600010BD2B490748FFF735F810BD2949054835
:101C7000FFF730F810BD28490248FFF72BF810BDD8
:101C8000B48900003C87FF1FB88900004C8F00001A
:101C9000408F0000308F0000208F00000C8F00006C
:101CA000F48E0000DC8E0000CC8E0000B48E0000AC
:101CB000A88E00009C8E0000848E0000788E0000AC
:101CC0006C8E0000608E0000548E0000448E000078
:101CD000388E0000248E0000188E0000088E000050
:101CE000FC8D0000F08D0000E88D0000D48D000018
:101CF000C48D0000B08D0000A48D0000988D000000
:101D00008C8D00007C8D0000688D00005C8D0000D3
:101D10004C8D0000408D0000308D0000BA49BB485A
:101D2000FEF7D8FF10BDBA49B848FEF7D3FF10BD83
:101D3000B849B648FEF7CEFF10BDB749B348FEF725
:101D4000C9FF10BDB549B148FEF7C4FF10BDB44985
:101D5000AE48FEF7BFFF10BDB249AC48FEF7BAFF70
:101D600010BDB149A948FEF7B5FF10BDAF49A7485E
:101D7000FEF7B0FF10BDAE49A448FEF7ABFF10BDA3
:101D8000AC49A248FEF7A6FF10BDAB499F48FEF73D
:101D9000A1FF10BDA9499D48FEF79CFF10BDA849B1
:101DA0009A48FEF797FF10BDA6499848FEF792FFA4
:101DB00010BDA5499548FEF78DFF10BDA349934876
:101DC000FEF788FF10BDA2499048FEF783FF10BDC3
:101DD000A0498E48FEF77EFF10BD9F498B48FEF755
:101DE00079FF10BD9D498948FEF774FF10BD9C49DD
:101DF0008648FEF76FFF10BD9A498448FEF76AFFD8
:101E000010BD99498148FEF765FF10BD97497F488D
:101E1000FEF760FF10BD0A21954804F005FF7B48DE
:101E2000BDE8104005F004B90A21924804F0FCFE18
:101E30007648BDE8104005F0FBB80A218E4804F052
:101E4000F3FE7248BDE8104005F0F2B80A218B4855
:101E500004F0EAFE6D48BDE8104005F0E9B80E2137
:101E6000874804F0E1FE6948BDE8104005F0E0B89D
:101E70001321844804F0D8FE6448BDE8104005F002
:101E8000D7B81B21804804F0CFFE6048BDE8104061
:101E900005F0CEB814217D4804F0C6FE5B48BDE8CD
:101EA000104005F0C5B81B21794804F0BDFE574825
:101EB000BDE8104005F0BCB80F21764804F0B4FE30
:101EC0005248BDE8104005F0B3B80E21724804F046
:101ED000ABFE4E48BDE8104005F0AAB812216F488D
:101EE00004F0A2FE4948BDE8104005F0A1B80C215D
:101EF0006B4804F099FE4548BDE8104005F098B8DD
:101F00000721684804F090FE4048BDE8104005F005
:101F10008FB80721644804F087FE3C48BDE81040B4
:101F200005F086B81721614804F07EFE3748BDE809
:101F3000104005F07DB80C215D4804F075FE334873
:101F4000BDE8104005F074B807215A4804F06CFE53
:101F50002E48BDE8104005F06BB80D21564804F03E
:101F600063FE2A48BDE8104005F062B80C215348D2
:101F700004F05AFE2548BDE8104005F059B80C2180
:101F80004F4804F051FE2148BDE8104005F050B81C
:101F900011214C4804F048FE1C48BDE8104005F0F3
:101FA00047B81221484804F03FFE1848BDE81040E9
:101FB00005F03EB81221454804F036FE1348BDE84E
:101FC000104005F035B81621414804F02DFE0F48A9
:101FD000BDE8104005F02CB816213E4804F024FE60
:101FE0000A48BDE8104005F023B83B490748FEF712
:101FF00071FE10BD1321394804F016FE0348BDE8F8
:10200000104005F015B800BF248D00003C87FF1F6D
:10201000108D0000008D0000F48C0000E88C0000A2
:10202000DC8C0000C88C0000BC8C0000B08C000070
:10203000A48C00008C8C0000848C00001C8D00009F
:10204000788C00006C8C0000588C0000448C0000E0
:10205000348C0000288C00001C8C0000108C0000C8
:10206000048C0000F88B0000EC8B0000E08B00007B
:10207000D48B0000C88B0000BC8B0000B08B00002C
:10208000A08B00008C8B0000708B0000588B000030
:102090003C8B00002C8B00001C8B0000088B000088
:1020A000F88A0000F08A0000E88A0000D08A000068
:1020B000C08A0000B88A0000A88A0000988A000040
:1020C000888A0000748A0000608A00004C8A000040
:1020D000348A00001C8A00000C8A0000F889000085
:1020E0000E490F48FEF7F6FD10BD0E210D4804F015
:1020F0009BFD0B48BDE8104004F09ABF0A49084810
:10210000FEF7E8FD10BD09490548FEF7E3FD10BDE7
:1021100007490348FEF7DEFD10BD00BFE48900005B
:102120003C87FF1FD4890000C8890000BC890000DB
:10213000648F00002DE9F04F8DB0202105460990F5
:102140003F48404C04F070FD3F4804F071FF3F48A9
:102150003F4A0388117803EB432203EB820303F524
:10216000585319339BB203EB1322D2B212FB01F284
:102170001212038054F8228085F82722002758F88D
:102180002730DBB20137FF2BBFB2F8D1D8F80030CF
:10219000099A08974FEA136902F2F712C3F3072B63
:1021A000C3F3074A4FF0FF33079206930024CE464D
:1021B00058F8045F0798C5F307274FEA241CC5F3B6
:1021C0000746ECB2F9B2C5F307650491E9B205918F
:1021D0005FFA8CF1039108990F290BAA4FEA1413A7
:1021E0005FFA86F90CD806998C4507DC0F2905D0D3
:1021F0000131C9B28B42039138BF0B4659B20691E7
:102200000AA9009103998DF82CB08DF82DA08DF8B6
:102210002EE08DF828708DF829608DF82A5002F094
:102220005DFDFF2CDDF810B0DDF814E0CA46BFD12B
:10223000099B93F82702FFF7F9FB0DB0BDE8F08F7B
:102240007C8F0000E08400003C87FF1F3487FF1F65
:102250003287FF1F2DE9F04F90F82D3291B00446E0
:10226000002B00F0F38090F8333290F8312213B154
:10227000002384F82E329621204602F0C1FD94F806
:10228000341294F8357294F82F32002940F0788196
:10229000002F00F0AE82002B00F07E83C44894F83B
:1022A0002E22DFF81493DFF81483029004F1E10585
:1022B0000F460DF13C0A04F2C71B03955EE094F84B
:1022C00030123B440B44D9F800100491FF2B0499C1
:1022D00098BF1B024FF48C7000FB01F198BF9BB2BA
:1022E00003FB01F31B0C5804C3F3CA0103D5C1F56A
:1022F000FF61073189B2080A029D18F8006035F8BD
:102300001000C1F3460106FB01011B0489B248BF5E
:1023100049420EB294F8281294F8C2310091504606
:10232000594602F0CDFDA6F5004396229BB202FB72
:1023300003F31B0C03EB4303E118E25C9DF83C0044
:1023400082FA50F2E2549DF83D304A7882FA53F214
:102350004A708B789DF83E2083FA52F38B7094F884
:102360002E1294F8322294F82F3201370A44FFB229
:10237000D2B2BB4284F82E2240F20E8394F8C411EC
:1023800000299CD194F830123B440B44D9F800103A
:102390000591FF2B059998BF1B024FF48C7098BFD5
:1023A0009BB200FB01F103FB01F31B0C5E04C3F3C2
:1023B000CA0103D5C1F5FF61073189B2029D080A40
:1023C000C1F3460118F8006035F8100006FB010162
:1023D0001D0489B248BF49420EB294F8281294F8FD
:1023E000C23100915046594602F06AFDA6F50043FD
:1023F0009BB203EB8303C3EB03131B0C03EB4303FD
:10240000E118E25C9DF83C0082FA50F2E2549DF83B
:102410003D304A7882FA53F24A708B789DF83E201C
:1024200083FA52F3039D8B7022462346197882F873
:10243000BF11597882F8C011997882F8C11103331D
:102440009D42A2F10302F1D1039588E7594D80F82E
:102450002C322B8803EB432103EB810101F558510A
:10246000193189B201EB412001EB800000F5585091
:10247000193080B200EB402300EB830303F558537F
:10248000193303EB432203EB820202F5585219324F
:1024900092B202EB422602EB860606F55856193632
:1024A000B6B206EB462306EB830303F55853193304
:1024B0009BB203EB432E03EB8E0E0EF5585E0EF12E
:1024C000190E1FFA8EFE0EEB4E270EEB870707F54F
:1024D00058571937BFB207EB472803EB132302EB1A
:1024E000122C07EB8808DBB206EB162603EB8303FE
:1024F00008F558585FFA8CFCF2B208F119080CEB99
:102500004C0C03EB83031FFA88F602EB42029B118B
:102510000EEB1E2E01EB11214FEAEC1800EB102000
:102520004FEAA21CA3F17402CEF34213C1F3C01E02
:1025300008F10101C0F3C01907EB17270CF10800DF
:1025400084F82F1206EB162103F1010CD2B2C7F367
:10255000C013C1F3C01184F83002012084F834E2C2
:1025600084F8359284F8312284F832C22E8084F8BF
:10257000C41184F8333284F82D0284F8290276E6F7
:10258000002F00F09C80002B00F00682084B94F88E
:102590002E22DFF82490DFF82480029304F1E10575
:1025A00000270DF13C0A04F2C71B03956CE000BF45
:1025B000F87D00003487FF1FE894FF1F6486000049
:1025C00094F8C431002B00F0BA82D9F80030089397
:1025D000089B94F830124FF48C7000FB03F309024F
:1025E00003FB01F3C3F30E4303F5804303EB4733CF
:1025F0009BB25E04C3F3CA0103D5C1F5FF61073185
:1026000089B2029D080AC1F3460118F8006035F846
:10261000100006FB01061D04B6B294F8281294F8C7
:10262000C231009148BF76425946504636B202F058
:1026300047FCA6F5004396229BB202FB03F31B0C5A
:1026400003EB4303E118E25C9DF83C0082FA50F290
:10265000E2544A789DF83D3082FA53F24A708B7802
:102660009DF83E2083FA52F38B7094F82E2294F852
:10267000323294F82F1201371A44FFB2D2B2B94263
:1026800084F82E2240F2888194F8C531002B97D12E
:1026900094F8C431002B00F08981D9F800300A93F6
:1026A0000A9B94F830124FF48C7000FB03F309027C
:1026B00003FB01F3C3F30E43A3F5804396E7002B1E
:1026C00000F06A81B64994F82E22DFF8D892DFF83C
:1026D000D882029104F1E10504F2C71B4FF48C7A11
:1026E000039563E094F8C411002900F08C8294F8FB
:1026F00030123B440B44D9F800100C91FF2B0C997D
:102700009CBF1B029BB20AFB01F103FB01F3C3F365
:102710000E4303F580435D04C3F3CA0103D5C1F53D
:10272000FF61073189B2029D080AC1F3460118F81A
:10273000006035F8100006FB01061D04B6B294F8DF
:10274000281294F8C231009148BF764259460BA82E
:1027500036B202F0B5FBA6F5004396229BB202FB0F
:1027600003F31B0C03EB4303E118E25C9DF82C0020
:1027700082FA50F2E2544A789DF82D3082FA53F2F0
:102780004A708B789DF82E2083FA52F38B7094F860
:102790002E1294F8322294F82F3201370A44FFB2F5
:1027A000D2B2BB4284F82E2240F2F68094F8C511D2
:1027B000002997D194F8C411002900F05B8194F8A6
:1027C00030123B440B44D9F800100E91FF2B0E99A8
:1027D0009CBF1B029BB20AFB01F103FB01F3C3F395
:1027E0000E43A3F580439BB25E04C3F3CA019AD59E
:1027F00095E7002B00F0D080694B94F82E22DFF88B
:10280000A491DFF8A481029304F1E1050DF13C0AE3
:1028100004F2C71B03955AE0D9F800300693069BD3
:1028200094F830124FF48C7000FB03F3090203FBA1
:1028300001F3790301EB134399B24804C1F3CA03CE
:1028400003D5C3F5FF6307339BB2180A029D18F83E
:10285000006035F81000C3F3460306FB03030904C8
:102860009BB248BF5B4294F828121EB2504694F8BF
:10287000C2310091594602F023FBA6F5004396228F
:102880009BB202FB03F31B0C03EB4303E118E25C76
:102890009DF83C0082FA50F2E2549DF83D304A78AF
:1028A00082FA53F24A708B789DF83E2083FA52F3F5
:1028B0008B7094F82E2294F8323294F82F1201374C
:1028C0001A44FFB2D2B2B94284F82E2264D994F8E5
:1028D000C431002BA0D1D9F800300793079B94F89E
:1028E00030124FF48C70090200FB03F303FB01F379
:1028F000790301EB134399B24E04C1F3CA0303D524
:10290000C3F5FF6307339BB2029D180AC3F3460366
:1029100018F8006035F8100006FB03030D049BB2A5
:1029200048BF5B4294F828121EB2504694F8C23158
:102930000091594602F0C4FAA6F500439BB203EB9E
:102940008303C3EB03131B0C03EB4303E118E25CAB
:102950009DF83C0082FA50F2E2549DF83D304A78EE
:1029600082FA53F24A708B789DF83E2083FA52F334
:10297000039D8B7022462346197882F8BF1159783F
:1029800082F8C011997882F8C1110333AB42A2F1E9
:102990000302F1D103958CE711B0BDE8F08F00BFC1
:1029A000F87D0000E894FF1F64860000D9F800302D
:1029B0000B930B9994F830324FF48C7000FB01F1BB
:1029C0001B0203FB01F3C3F30E43A3F5804303EBA8
:1029D00047339BB25804C3F3CA0103D5C1F5FF6165
:1029E000073189B2080A029D18F8006035F8100016
:1029F000C1F3460106FB01061B04B6B294F8281287
:102A000094F8C231009148BF76425946504636B2DA
:102A100002F056FAA6F500439BB203EB8303C3EB27
:102A200003131B0C03EB4303E118E25C9DF83C002D
:102A300082FA50F2E2549DF83D304A7882FA53F21D
:102A40004A708B789DF83E2083FA52F3039D8B7079
:102A500022462346197882F8BF11597882F8C011AE
:102A6000997882F8C1110333AB42A2F10302F1D18C
:102A70000395FAE594F830123B440B44D9F8001062
:102A80000F91FF2B0F999CBF1B029BB20AFB01F118
:102A900003FB01F3C3F30E43A3F580439BB2580439
:102AA000C3F3CA0103D5C1F5FF61073189B2080A32
:102AB000029D18F8006035F81000C1F3460106FBCE
:102AC00001061B04B6B294F8281294F8C2310091A2
:102AD00048BF764259460BA836B202F0F1F9A6F586
:102AE00000439BB203EB8303C3EB03131B0C03EB09
:102AF0004303E118E25C9DF82C0082FA50F2E254A4
:102B00009DF82D304A7882FA53F24A708B789DF8FE
:102B10002E2083FA52F3039D8B70224623461978A8
:102B200082F8BF11597882F8C011997882F8C111E2
:102B30000333AB42A2F10302F1D1039527E6D9F8A2
:102B400000300993099B94F830124FF48C7000FB0D
:102B500003F3090203FB01F3C3F30E4303F58043C0
:102B600003EB47339BB25804C3F3CA0103D5C1F545
:102B7000FF61073189B2080A029D18F8006035F834
:102B80001000C1F3460106FB01061B04B6B294F81F
:102B9000281294F8C231009148BF764259465046F7
:102BA00036B202F08DF9A6F500439BB203EB830326
:102BB000C3EB03131B0C03EB4303E118E25C9DF82A
:102BC0003C0082FA50F2E2549DF83D304A7882FA95
:102BD00053F24A708B789DF83E2083FA52F3039D9E
:102BE0008B7022462346197882F8BF11597882F8F3
:102BF000C011997882F8C11103339D42A2F10302FA
:102C0000F1D1039531E594F830123B440B44D9F8E7
:102C100000100D91FF2B0D999CBF1B029BB20AFB6C
:102C200001F103FB01F3C3F30E4303F580435804A2
:102C3000C3F3CA0103D5C1F5FF61073189B2080AA0
:102C4000029D18F8006035F81000C1F3460106FB3C
:102C500001061B04B6B294F8281294F8C231009110
:102C600048BF764259460BA836B202F029F9A6F5BC
:102C700000439BB203EB8303C3EB03131B0C03EB77
:102C80004303E118E25C9DF82C0082FA50F2E25412
:102C90009DF82D304A7882FA53F24A708B789DF86D
:102CA0002E2083FA52F3039D8B7022462346197817
:102CB00082F8BF11597882F8C011997882F8C11151
:102CC0000333AB42A2F10302F1D103955FE500BFEC
:102CD00090F82D322DE9F0410446002B6BD094F88A
:102CE000C53143BB94F8382294F836321A4494F82C
:102CF0003932D2B284F838224BBB94F8C431002B5D
:102D000051D194F837324B21204601F0C7FF2046BD
:102D100004F1E1012346027883F8BF21427883F869
:102D2000C021827883F8C12103308842A3F10303D4
:102D3000F1D1BDE8F08194F8383294F836229A1A2D
:102D400094F83932D2B284F83822002BD5D094F8D6
:102D500037322521204601F0A1FF04F16F052346FB
:102D600021462246107881F8DE00507881F8DF0095
:102D7000907881F8E0000332AA42A1F10301F1D179
:102D800004F1E1012046027883F8BF21427883F8FC
:102D9000C021827883F8C12103308842A3F1030364
:102DA000F1D1BDE8F08194F8373220469621BDE894
:102DB000F04101F073BF274980F829320B8803EBFB
:102DC000432203EB820303F5585319339BB203EB01
:102DD000432203EB820202F55852193292B202EBFF
:102DE000422502EB850505F558551935ADB205EBC1
:102DF000452605EB860603EB132302EB122206F5AC
:102E00005856DBB2D2B21936C3EB031302EB4202BF
:102E1000B6B21B12121206EB16270133013205EB74
:102E20001525C7F3C017C5F3C01580F8373280F8F1
:102E300036220123052280F8C47180F8C55180F83C
:102E40002D3280F8393280F82C220E80FDF754FFA5
:102E500045E700BF3487FF1FF0B590F82BE29DF8DF
:102E600018509DF81C7008240126BEF10D0F80F843
:102E70002C4280F82D629DF8144019D0002380F870
:102E80003A4280F83C5280F8D61280F8D72280F877
:102E9000D97280F82932CAB94B2380F8D52280F83C
:102EA000D432D1B92A462146BDE8F040FDF7F0BA48
:102EB00080F8296280F83A4280F83C5280F8D612B5
:102EC00080F8D72280F8D972002AE8D0252380F82C
:102ED000D43280F8D5320029E4D0F0BD2DE9F04796
:102EE00090F82D32CF4D86B00446002B00F02182A1
:102EF00094F8D432002B00F0D68294F83C122A8841
:102F000001EB81014F0003F23D2E97FBF3F70237EF
:102F1000FFB2A64404F23D2602EB422102EB8102FD
:102F200002F55852193292B202EB122116F8010F33
:102F3000C9B211FB07F1A0EB112121EAE171B645FD
:102F40003170E9D194F8D6622A80002E00F0118108
:102F5000A3F1030EBEF1010F4FF0010C1ADD03F2D5
:102F60003A2003F50F77DFF8C0922044274404F29B
:102F70003E28017810F8016D01EB460189FB01A69E
:102F8000A6EBE171804507F8011DF2D1BCF1000FFD
:102F900000F0D68002EB422102EB810202F558528A
:102FA000193292B202EB122194F83A622A80C9B225
:102FB0008E429C4826D902EB422102EB810202F5A7
:102FC0005852193292B202EB422602EB860606F5FF
:102FD00058561936B6B206EB162102EB1222C9B2C8
:102FE000D2B201EB4107C2EBC20204EB2222C1EBD9
:102FF000471109120680603992F83E0280FA51F0BA
:1030000082F83E02BCF1000F12D12A8894F83B628C
:10301000844902EB422002EB800202F55852193239
:1030200092B202EB1220C0B286422A8000F2D08017
:1030300094F8C521002A62D1002B00F04A8104F2E5
:103040003D279046B94605AE94F8D55219F8011FB0
:103050005D1B013DC8EB050505EB4505304601F05C
:103060000DFF9DF81430635525449DF816309DF8EA
:1030700015206A70AB7094F8D43208F1010843450A
:10308000E2DC94F8D7220AB394F8C521002A40F074
:10309000C1819046002B00F0008208EB530517F821
:1030A000011F304601F0EAFE05EB45039DF81420B0
:1030B000E25423449DF815109DF8162059709A701B
:1030C00094F8D43208F101084345E6DC94F8D6229E
:1030D000002A00F0AB8004F1E10123461A7884F85D
:1030E000BF215A7884F8C0219A7884F8C12103332B
:1030F0009942A4F10304F1D106B0BDE8F087002B9A
:1031000000F0C88104F23D27B94625464FF000087B
:1031100005AE19F8011F304601F0B0FE9DF81630DB
:103120009DF814109DF8152029706A70AB7094F802
:10313000D43208F10108434505F10305E9DCA0E7B5
:1031400003F2852603F28727DFF8DC802644274434
:10315000317816F8010D01EB400188FB01900EF16A
:10316000FF3EA0EBE171BEF1010F07F8011DEFD1A9
:1031700010E794F83D1201EB81014FEA410E9EFBEE
:10318000F3FE0EF1020E5FFA8EFE04F5227702EBDB
:10319000422102EB810202F55852193292B202EB3F
:1031A000122117F8010FC9B211FB0EF1A0EB11218A
:1031B000013621EAE1719E423970E8DB2A80A3F1F1
:1031C000030EBEF1010F4FF0000C3FF7C8AEE1E671
:1031D00002EB422002EB800202F55852193292B201
:1031E00002EB422502EB850505F55855193502EB32
:1031F0001222ADB2D2B205EB1520C2EBC202C0B2B0
:1032000004EB222200EB4006C0EB461092F88962E4
:103210000D8001126039304680FA51F082F889023F
:1032200006E700BF3487FF1F5655555594F8C52152
:10323000002A59D0002B3FF45FAF04F52277B9463E
:1032400025464FF0000805AE19F8011F304601F081
:1032500015FE9DF816309DF814109DF8152085F880
:10326000BF1185F8C02185F8C13194F8D43208F136
:1032700001084345A5F10305E6DC94F8D722002AAE
:103280003FF43AAF94F8C521002A00F0E280002B09
:103290003FF432AF25464FF0000817F8011F3046C3
:1032A00001F0ECFD9DF816309DF814109DF81520E6
:1032B00085F8E11085F8E22085F8E33094F8D432FF
:1032C00008F10108434505F10305E6DC06B0BDE859
:1032D000F08794F8D732002B40F0DF80BCF1000F6C
:1032E0007FF4F9AE94F8D432002B3FF405AF04F527
:1032F0002277B9464FF0000805AE94F8D55219F878
:10330000011F4B35454405EB4505304601F0B6FD40
:103310009DF81430635525449DF816309DF815200E
:103320006A70AB7094F8D43208F101084345E4DCCC
:10333000A3E72B8803EB432103EB810101F55851EF
:10334000193189B201EB412201EB820202F5585298
:10335000193292B202EB422302EB830303F5585376
:1033600019339BB203EB432E03EB8E0E0EF5585E22
:103370000EF1190E1FFA8EFE0EEB4E260EEB860690
:1033800006F558561936B6B206EB462706EB870700
:1033900007F558571937BFB203EB13230EEB1E2C5A
:1033A00006EB162607EB17285FFA83FE5FFA8CFC04
:1033B000F3B25FFA88F80EEB4E06C3EB0313C8EBCB
:1033C0000818CCEB0C1CC6EBC60E4FEAAC1C9E11C9
:1033D0004FEA28234FEA2E2E0CF1320C3C360133F3
:1033E0000EF10A0801EB11215FFA8CFE02EB1222AA
:1033F0005FFA86FCDEB2CDF800E0CDF804C002969C
:10340000C1F3C011C2F3C0125FFA88F32F80FFF737
:1034100023FD6DE5002B40D025464FF0000817F83E
:10342000011F304601F02AFD9DF816309DF814105A
:103430009DF8152085F8DE1085F8DF2085F8E0304E
:1034400094F8D43208F101084345A5F10305E6DC00
:103450003CE69046002B3FF44FAE4B33C8EB0305E0
:1034600005EB450517F8011F304601F007FD9DF8F3
:103470001430635525449DF816309DF815206A7068
:10348000AB7094F8D43208F101084345E5DC06B08E
:10349000BDE8F08794F8D73253B194F8D632002BB8
:1034A0007FF419AE28E694F8D62242B12A884FE577
:1034B000BCF1000F7FF40FAE94F8D432BAE62A883C
:1034C0007DE600BF2DE9F04F90F82D32CB4C87B050
:1034D0000546002B00F0C48195F8D4C26346BCF1C8
:1034E000000F00F02E8295F83C12228801EB81013A
:1034F0004F000CF23D2E97FBFCF70237FFB2AE44B3
:1035000005F23D2602EB422102EB810202F5585200
:10351000193292B202EB122116F8010FC9B211FB57
:1035200007F1A0EB112121EAE171B6453170E9D133
:1035300095F8D6622280002E00F06481ACF103077A
:10354000012F4FF001091ADD0CF23A200CF50F762D
:10355000DFF8AC8228442E4405F23E2E017810F8A4
:1035600001AD01EB4A0188FB01BAAAEBE171864586
:1035700006F8011DF2D1B9F1000F00F0288102EB2D
:10358000422102EB810202F55852193292B202EB4B
:10359000122095F83A622280C0B28642974928D913
:1035A00002EB422002EB800202F55852193292B22D
:1035B00002EB422602EB860606F55856193602EB58
:1035C0001222B6B2D2B206EB1620C2EBC202C0B2D1
:1035D00005EB222200EB40070E80C0EB471092F86B
:1035E0003E620012A0F16001304680FA51F082F88C
:1035F0003E02B9F1000F12D1228895F83B627F4953
:1036000002EB422002EB800202F55852193292B2CC
:1036100002EB1220C0B28642228000F2AB80BCF1E5
:10362000000F00F0918005F23D28002705AEC3F1A0
:103630004B03DC1904EB440418F8011F304601F079
:103640001DFC9DF814302B552C449DF816309DF828
:1036500015206270A37095F8D4320137BB42E6DCC6
:1036600095F8D672002F72D105F52278D3B14A337E
:10367000DC1B04EB440418F8011F304601F0FEFB8C
:103680009DF814302B552C449DF816309DF81520CC
:103690006270A37095F8D4320137BB42E7DC4B2B44
:1036A0004FD005AE05F2C71A2F462C464FF0000842
:1036B0004FF0010912E095F8D82295F8D932134459
:1036C00085F8D83295F8D43208F10108C3F14B03DC
:1036D000434504F10304A7F1030732DD95F8D8222E
:1036E000CDF80090FF235146304601F0E9FB9DF8EC
:1036F00014109DF815209DF816302170A37062708B
:1037000095F8D822CDF80090FF235146304601F0BD
:10371000D7FB9DF816309DF814109DF8152087F8FA
:10372000BF1187F8C02187F8C13195F8C531002B4A
:10373000C1D195F8D83295F8D9229B1A85F8D8329C
:10374000C0E707B0BDE8F08FB9F1000FA9D02A4655
:1037500005F1E1042946107881F8BF01507881F81D
:10376000C001907881F8C10103329442A1F10301B4
:10377000F1D194E702EB422002EB800202F55852AD
:10378000193292B202EB422402EB840404F558543D
:10379000193402EB1222A4B2D2B204EB1420C2EB11
:1037A000C202C0B205EB222200EB4006C0EB46107D
:1037B00092F889620C8001126039304680FA51F02B
:1037C00082F88902BCF1000F7FF42DAF69E70CF29B
:1037D00085260CF2872EDFF828802E44AE443178FF
:1037E00016F8010D01EB400188FB01A0013FA0EBA1
:1037F000E171012F0EF8011DF1D1C0E63487FF1FE2
:103800005655555595F83D1201EB81014FEA410E91
:103810009EFBFCFE0EF1020E5FFA8EFE05F522778E
:1038200002EB422102EB810202F55852193292B2A8
:1038300002EB122117F8010FC9B211FB0EF1A0EB38
:103840001121013621EAE17166453970E8DB2280F9
:10385000ACF10307012F4FF000093FF775AE8EE67C
:10386000238803EB432103EB810101F55851193102
:1038700089B201EB412201EB820202F55852193262
:1038800092B202EB422302EB830303F55853193340
:103890009BB203EB432E03EB8E0E0EF5585E0EF13A
:1038A000190E1FFA8EFE0EEB4E260EEB860606F55F
:1038B00058561936B6B206EB462706EB870707F5CA
:1038C00058571937BFB203EB13230EEB1E2C06EB30
:1038D000162607EB17285FFA83FE5FFA8CFCF3B21B
:1038E0005FFA88F80EEB4E06C3EB0313C8EB08181B
:1038F000CCEB0C1CC6EBC60E4FEAAC1C9E114FEA7B
:1039000028234FEA2E2E0CF1320C3C3601330EF1F7
:103910000A0801EB11215FFA8CFE02EB12225FFA1A
:1039200086FCDEB2CDF800E0CDF804C00296C1F30B
:10393000C011C2F3C0125FFA88F32780FFF78CFA38
:10394000CAE595F8D6220AB12288F7E522887FE7F2
:103950002DE9F04F90F82D328BB00446002B00F08B
:10396000B381B0F8FA52D34AD34B11680991099840
:1039700003FB00F0000C4604C0F3CA0303D5C3F5F3
:10398000FF6307339BB2190ADFF83883CB4F18F86F
:1039900001E037F81160C3F346010EFB0163000438
:1039A0009BB248BF5B42116808911BB2A3F500436C
:1039B0009BB2089E03EBC3104DF6086303FB06F6AB
:1039C000000C360C6030C0B2710484F8E002C6F31B
:1039D000CA0303D5C3F5FF6307339BB24FEA132E27
:1039E000C3F3460118F80EC037F81E300CFB013344
:1039F0009BB2310448BF5B421BB211680791A3F52B
:103A000000439BB2C3EB0311079E03EB01214AF273
:103A1000C80303FB06FE090C4FEA1E4E01F5C85110
:103A200089B21EF4804FA4F8E612CEF3CA0303D085
:103A3000C3F5FF6307339BB24FEA132CC3F346066B
:103A400018F80C9037F81C30B4F8DEC2A4F8E8C2BD
:103A500009FB06331EF4004F9BB218BF5B42166889
:103A600006961BB2A3F500439BB24FF0260E069EAE
:103A70000EFB03FE47F6983303FB06F64FEA1E4E95
:103A8000360C0EF1170E1FFA8EFE16F4804F84F8D6
:103A9000E1E2C6F3CA0303D0C3F5FF6307339BB269
:103AA0004FEA132AC3F3460318F80AB037F81A90FE
:103AB0000BFB03991FFA89F933041368049348BF79
:103AC000C9F10009049B126805920FFA89F9A9F55A
:103AD0000042B4F8DC62B4F8DAB292B240F2B14912
:103AE0001FFA83FA09FB02F3754ADDF81490A4F873
:103AF000ECA2C6EB0A06B6B202FB09F91B0C03F5F1
:103B000096734FEA194916FB0EBE9AB21FFA8EFE43
:103B100019F4804FA4F8EA22A4F8EE62A4F8DCA21B
:103B2000A4F8DAE2C9F3CA0303D0C3F5FF6307338D
:103B30009BB24FEA132BC3F3460A18F80B3037F841
:103B40001BB0A4F8F0E203FB0AB39BB219F4004FD8
:103B500018BF5B421BB2A3F500439BB203EB830388
:103B60001B0C05339BB206FB03C3A4F8DE32002D09
:103B700000F08980134604F2C71A00264FF00109AD
:103B8000042563449BB24FEAD31C8E441FFA8EFE79
:103B90001CF4807F6FEA1322D2B24FEA132B08BFC6
:103BA0001A0A1EF4804F84F8E2B2A4F8E832A4F8AE
:103BB000F2C284F8E222A4F8F0E2CEF3CA0103D004
:103BC000C1F5FF61073189B24FEA112CC1F34603F9
:103BD00018F80CB037F81C100BFB03111EF4004F43
:103BE00089B218BF494209B2A1F5004189B201FB6F
:103BF00001FE4FEA1E4E0EFB00F3C2EB021CC04357
:103C000002EB0C1200EB1343DBB2C2F30722A4F861
:103C1000F412A4F8F6E284F8E3325146CDF80090AD
:103C200003A884F8E42201F04BF9B4F8FA32013B1E
:103C30009B1B9BB203EB4300A4F8F8322044802284
:103C400003A9013D01F0DEF815F0FF050AD0B4F834
:103C5000E8C2B4F8EA32B4F8F0E2B4F8E61294F844
:103C6000E0028EE70136B4F8FA32B6B2B3420AD9AE
:103C7000B4F8E8C2B4F8EA32B4F8F0E2B4F8E61204
:103C800094F8E0027CE794F8C43183B904F1E101CF
:103C900023461A7884F8BF215A7884F8C0219A788C
:103CA00084F8C12103339942A4F10304F1D10BB08C
:103CB000BDE8F08FE894FF1FF8740100F87D000064
:103CC00080B50100648600001048038803EB43229E
:103CD00003EB820303F5585319339BB203EB132212
:103CE0000121C2F3C0120F25038084F8C42184F897
:103CF0002D1284F8291284F82C521AB19625A4F8B2
:103D0000FA5230E64B25A4F8FA522CE63487FF1F0E
:103D1000F0B590F82B3285B004460F2B00F2778473
:103D2000DFE813F0A0012102A5026800E5002104EC
:103D3000EB003D0126037703C80310006200430136
:103D40004E01A00290F82D32002B4DD1C44980F8CD
:103D500029320B8803EB432203EB820303F558530C
:103D6000193303EB432203EB820303F55853193352
:103D70009BB203EB432203EB820202F55852193245
:103D800092B202EB422002EB800000F5585019304D
:103D900080B203EB132300EB102502EB1222DBB2FF
:103DA000EDB2D2B2C3EB0313C5EB0515C2EB0212A1
:103DB0009B1132332D129211012601353C32082716
:103DC00084F83A322523088084F8D95284F83C22BA
:103DD00084F82D6284F8D66284F8D76284F82C7255
:103DE00084F8D43284F8D532204605B0BDE8F040DE
:103DF000FFF774B890F82D32002B78D1984980F8ED
:103E00002C320B8803EB432203EB820303F5585358
:103E1000193303EB432203EB820303F558531933A1
:103E20009BB203EB432003EB800000F558501930A0
:103E300080B200EB402200EB820202F558521932A8
:103E400092B202EB422702EB870707F55857193762
:103E5000BFB207EB472507EB850505F55855193522
:103E6000ADB205EB452E03EB132305EB8E0E02EBF3
:103E7000122200EB1020DBB203EB4303D2B20EF5AB
:103E8000585EC0B2DE1102EB82020EF1190E00EB99
:103E9000400002EB82021FFA8EFE8011013607EB12
:103EA00017279311C7F3421700F1080205EB1525F8
:103EB00084F82F620EEB1E26743B781CC5F3C015E8
:103EC000C6F3C01684F83022012284F8313284F817
:103ED0003202A1F800E084F8C46184F8335284F817
:103EE0002D2284F8292284F8342284F835222046B1
:103EF00005B0BDE8F040FEF7ADB990F82D32002BCB
:103F00004DD1574980F829320B8803EB432203EB4C
:103F1000820303F5585319339BB203EB432203EB9F
:103F2000820202F55852193292B202EB422002EBA1
:103F3000800000F55850193080B200EB402500EBAE
:103F4000850503EB132302EB122205F55855DBB26E
:103F5000D2B21935C3EB0313ADB202EB42021B120E
:103F60000133121205EB152600EB1020C0F3C01030
:103F700001270132C6F3C01684F83732052384F8CE
:103F8000C50184F8362284F8C46184F82D7284F85F
:103F9000397284F82C3220460D80FCF7ADFE2046A5
:103FA00005B0BDE8F040FEF793BE90F82D22002A40
:103FB00000F02F83204605B0BDE8F040FFF782BA3D
:103FC00090F82D22002AF5D1254D2B8803EB4321B3
:103FD00003EB810303F5585319339BB203EB4320E2
:103FE00003EB800000F55850193080B200EB4021FF
:103FF00000EB810101F55851193189B201EB4126DD
:1040000001EB860606F558561936B6B206EB1627AA
:1040100003EB132300EB102001EB1121DBB2C0B244
:10402000FFB2C9B203EB4303C0EB0010C7EB0717A5
:10403000C1EB0111C3EBC30380113F1289111B12A5
:10404000323001373C31C0B2FFB2C9B20A338DE819
:104050008300DBB2012120462E80FEF7FDFEA9E79A
:104060003487FF1F90F82D1200297FF440AFBF481E
:1040700084F82C12038884F8341203EB432203EBF8
:10408000820303F55853193303EB432203EB8203F6
:1040900003F5585319339BB203EB432503EB850516
:1040A00005F558551935ADB205EB452205EB8202F1
:1040B00002F55852193292B202EB422702EB8707FF
:1040C00007F558571937BFB207EB472607EB8606A7
:1040D00006F558561936B6B206EB462E06EB8E0E8E
:1040E00002EB122205EB152503EB1323D2B20EF5DA
:1040F000585EEDB20EF1190EDBB202EB820205EB57
:1041000045051FFA8EFC03EB430302EB8202AD115F
:1041100007EB17274FEAE31EC7F34217931106EB8D
:10412000162605F1080284F835120CEB1C210EF15D
:10413000010E743B7D1CC6F3C016C1F3C01184F898
:104140003022012284F82FE284F8313284F832528E
:10415000A0F800C084F8C41184F8336284F82D22DA
:1041600084F82922C3E690F82D22002A7FF4BFAEFE
:104170007E4980F82C220B8880F8352203EB4322FD
:1041800003EB820303F55853193303EB432203EB8C
:10419000820303F5585319339BB203EB432003EB1F
:1041A000800000F55850193080B200EB402200EB3F
:1041B000820202F55852193292B202EB422702EB08
:1041C000870707F558571937BFB207EB472507EBA5
:1041D000850505F558551935ADB205EB452E03EBB0
:1041E000132305EB8E0E02EB122200EB1020DBB244
:1041F00003EB4303D2B20EF5585EC0B2DE1102EB00
:1042000082020EF1190E00EB400002EB82021FFA4F
:104210008EFE8011013607EB17279311C7F3421763
:1042200000F1080205EB152584F82F620EEB1E261F
:10423000743B781CC5F3C015C6F3C01684F8302251
:10424000012284F8313284F83202A1F800E084F8C7
:10425000C46184F8335284F82D2284F8292284F82A
:10426000342244E605B0BDE8F040FFF771BB90F89A
:104270002D22002A7FF43BAE3C4980F82C220B888B
:1042800080F8342203EB432203EB820303F55853F7
:10429000193303EB432203EB820303F5585319331D
:1042A0009BB203EB432003EB800000F5585019301C
:1042B00080B200EB402200EB820202F55852193224
:1042C00092B202EB422702EB870707F558571937DE
:1042D000BFB207EB472507EB850505F5585519359E
:1042E000ADB205EB452E03EB132305EB8E0E02EB6F
:1042F000122200EB1020DBB203EB4303D2B20EF527
:10430000585EC0B2DE1102EB82020EF1190E00EB14
:10431000400002EB82021FFA8EFE8011013607EB8D
:1043200017279311C7F3421700F1080205EB152573
:1043300084F82F620EEB1E26743B781CC5F3C01563
:10434000C6F3C01684F83022012284F8313284F892
:104350003202A1F800E084F8C46184F8335284F892
:104360002D2284F8292284F83522C0E53487FF1FE6
:1043700090F82D22002A7FF437ADCC4D2B8803EB2B
:10438000432103EB810303F5585319339BB203EB2D
:10439000432003EB800000F55850193080B200EB49
:1043A000402100EB810101F55851193189B201EB2F
:1043B000412601EB860606F558561936B6B206EBCD
:1043C000162703EB132300EB102001EB1121DBB2C6
:1043D000C0B2FFB2C9B203EB4303C0EB0010C7EB9E
:1043E0000717C1EB0111C3EBC30380113F12891101
:1043F0001B12323001373C31C0B2FFB2C9B20A33AE
:104400008DE88300DBB2114620462E80FEF724FDA6
:10441000EAE490F82D22002A7FF4E6ACA34D2B8825
:1044200003EB432103EB810303F5585319339BB28C
:1044300003EB432003EB800000F55850193080B2A5
:1044400000EB402100EB810101F55851193189B28F
:1044500001EB412601EB860606F558561936B6B231
:1044600006EB162703EB132300EB102001EB1121C1
:10447000DBB2C0B2FFB2C9B203EB4303C0EB001022
:10448000C7EB0717C1EB0111C3EBC30380113F1248
:1044900089111B12323001373C31C0B2FFB2C9B2B0
:1044A0000A338DE88300DBB2012120462E80FEF71F
:1044B000D3FC99E490F82D22002A7FF495AC7B4D33
:1044C00080F829222B8880F8D62203EB432203EBC5
:1044D000820303F55853193303EB432203EB8203A2
:1044E00003F5585319339BB203EB432203EB8202CB
:1044F00002F55852193292B202EB422602EB8606BE
:1045000006F558561936B6B203EB132306EB162000
:1045100002EB1222DBB2C3EB0313C0B2D2B2991189
:10452000C2EB0212C0EB001392111B1201333231A5
:104530003C320120C9B2D2B2082784F8D9322523EF
:1045400084F82D0284F8D70284F83A1284F83C22C9
:1045500084F82C7284F8D43284F8D53220462E8028
:10456000FBF796FF40E490F82D22002A7FF417AD68
:104570004E4980F829220B8880F8392203EB432228
:1045800003EB820303F5585319339BB203EB432229
:1045900003EB820202F55852193292B202EB42202A
:1045A00002EB800000F55850193080B200EB402536
:1045B00000EB850503EB132302EB122205F558559A
:1045C000DBB2D2B21935C3EB0313ADB202EB420238
:1045D0001B1205EB15260133121200EB10200132DD
:1045E000C6F3C016C0F3C010012784F83732052384
:1045F00084F8C50184F8362284F8C46184F82D72E9
:1046000084F82C3220460D80FCF776FBC7E405B019
:10461000F0BD264D2B8803EB432103EB810303F50B
:10462000585319339BB203EB432003EB800000F592
:104630005850193080B200EB402100EB810101F5A8
:104640005851193189B201EB412601EB860606F576
:1046500058561936B6B206EB162703EB132300EBB8
:10466000102001EB1121DBB2C0B2FFB2C9B203EBE3
:104670004303C0EB0010C7EB0717C1EB0111C3EBFD
:10468000C30380113F1289111B12323001373C31B4
:10469000C0B2FFB2C9B20A338DE88300DBB2114663
:1046A00020462E80FEF7D8FB84E400BF3487FF1F2E
:1046B00070B540F6B83182B0634800F083FF4FF424
:1046C0006141614800F07AFF01215F4800F050FF2E
:1046D00050B110215D4802F0A7FA5B480A2100F0B2
:1046E00035FF594800F068FF01220021564801F0CB
:1046F00015F840F2DC51564802F0F2FC082155480A
:1047000002F092FA524802F093FC4FF47A7001F0F2
:1047100073FA5148036813F0010471D04F4C5049AB
:104720005048514DFF260023962200F051FCB02244
:10473000F023204601A926708DF805208DF806305B
:104740008DF8046000F084FC40F6B831052000F0DC
:10475000F1FE4FF4975302202B8001F01FF92B88B4
:104760000021034420462B8000F084FD2178204660
:1047700000F0A6FC2046322100F004FD002501AA2D
:10478000962137488DF804608DF805508DF8065055
:1047900000F074FA2046FA2100F0F4FC01AA9621F8
:1047A0002F488DF806608DF804508DF8055000F004
:1047B00065FA2046FA2100F0E5FC802301AA962143
:1047C00027488DF805308DF804508DF8065000F01C
:1047D00055FA2046FA2100F0D5FC2946204600F083
:1047E00049FD2046FA2100F0CDFCFCF76DFD0E21BD
:1047F0001E4802F019FA164802F01AFC02B070BD09
:1048000001F07AF9002889D01949164B08685C60D4
:10481000FF2201255C619C609D741A735A739A7320
:10482000DA731A745A7460B1124A116801B18B605C
:1048300013600022104908489A61196001F062F97A
:104840006CE70B60F0E700BF9894FF1FA08F00009B
:104850003C87FF1FB48F00003C8CFF1F7094FF1F2C
:10486000A88FFF1F408CFF1F3487FF1FC08F0000E1
:104870008094FF1F9094FF1F607800002DE9F04F97
:1048800093B002F01FFFA94DA94A29681388CE07EB
:104890001844108040F12F81A64EA74C3368029334
:1048A000029AA64823886188A0FB0202C3EB9213F8
:1048B0009BB2994209D833680193019B9F4AA2FB9E
:1048C00003239B092380FCF7A7FE9D4D2B68DC0783
:1048D00040F1088133689B4C0593059A97482388DB
:1048E0006188A0FB0202C3EB92139BB2994240F293
:1048F000D880954FDFF88092DFF864A2934D2B6843
:10490000D80740F19A80924C3368089394E80600E7
:10491000089B5B1A9A4240F2A080DFF860828D4DBE
:10492000D8F8003099F8C311DFF854B29AF8C321CF
:104930002970D9078BF8002057D5874C33680B9323
:1049400094E803000B9B1B1A8B425FD2DFF8348282
:10495000D8F80030DA0767D53368804C0E9394E8B6
:1049600006000E9B5B1A9342C0F0878033680D935C
:104970003B780D9A2260794A002B79D1784B794A9D
:1049800003F5E1751C785878997814700333AB42BD
:104990005070917002F10302F4D1734D2B68DB0764
:1049A00075D53368714C1193119A644823886188D6
:1049B000A0FB0202C3EB92139BB299420ED833685C
:1049C0001093109B5D4A6648A2FB03239B0923803A
:1049D000FCF792F93B78002B40F0A3806448017803
:1049E00000F06EFB13B0BDE8F08F404601F084F894
:1049F000002840F0F680584C33680B9394E806008A
:104A00000B9B5B1A9342A1D39BF8002033680A9357
:104A10000A9BDFF87081626023605148FFF778F9E4
:104A2000D8F80030DA0797D4404601F065F800283E
:104A300040F0E380494C336890E7284601F05CF889
:104A4000002840F0B480424C3368089394E8060094
:104A5000089B5B1A9342FFF460AF336845490793A4
:104A6000079B2360A1F13000182200F089FA54E777
:104A70002B7841485360FFF74BF93B78002B3FF40C
:104A80007DAF394DFCF726FE2B68DB0789D428461D
:104A900001F032F8002840F09580344C33681193CF
:104AA00082E733680493254A049B274FA2FB032324
:104AB0003A789B09238062B1DFF8BC9099F82932DB
:104AC000002B3FF419AF4846FDF734FBDFF890A008
:104AD00014E7DFF88CA09AF82932002B54D1DFF8C4
:104AE00098900BE7284601F007F8002850D1154CA4
:104AF00033680593F1E6284600F0FEFF0D4E0028CE
:104B00003FF4CBAE336800930C4A009B0A4CA2FBE7
:104B100003239B09142228462380628000F0F2FFC1
:104B2000BCE61548FCF7E8F858E700BF908FFF1F78
:104B30003487FF1FE894FF1F808FFF1FD34D621043
:104B4000948FFF1F608CFF1F708FFF1F988FFF1FB8
:104B5000848FFF1FA08FFF1F688FFF1F608FFF1FB5
:104B60007491FF1FA88FFF1F9C8FFF1F8C8FFF1F4B
:104B70007094FF1F6B93FF1F648CFF1F7091FF1FCA
:104B8000A18FFF1F6C91FF1F5046FDF7D3FAA6E7D8
:104B900033680393039B1E4A1E4CA2FB03239B090D
:104BA0001E2228462380628000F0ACFFA0E7336815
:104BB000194C0693069B236032232846636000F05D
:104BC000A1FF41E733680F930F9B114A134CA2FBDF
:104BD00003239B09052228462380628000F092FF70
:104BE0005CE7336809930E4C099A9BF80030226009
:104BF0004046636000F086FFFEE633680C93094C84
:104C00000C9A2B7822604046636000F07BFF12E72D
:104C1000D34D6210608CFF1F848FFF1F8C8FFF1F8E
:104C2000688FFF1F608FFF1F30B41249124AFF25A3
:104C30000A240123002081F8C25182F8C25181F870
:104C4000C34182F8C34181F8C43181F8C53181F88C
:104C5000283281F8293282F8C43182F8C53182F8CD
:104C6000283282F8293281F82D0282F82D0230BCD8
:104C7000704700BF7491FF1F648CFF1F00290BDD7C
:104C800001EB41010144137803705378437093782A
:104C9000837003308842F6D1704700BF70B582B090
:104CA000FF25F02400298DF804208DF806508DF89A
:104CB000054010DD01EB41011E4604464518214622
:104CC00001A800F0F9FA9DF8042003343244AC4204
:104CD0008DF80420F3D102B070BD00BF2DE9F04F74
:104CE0008B42099E52D396F800E01578777896F8B3
:104CF0000280547892F802C0C1EB030BC5EB0E0E94
:104D0000C4EB070ACCEB08061FFA8BF24FEACE1E63
:104D10004FEACA1AF601B2B30FFA82FB9EFBFBFE02
:104D20009AFBFBFA4FEA4E0E4FEA4A0A96FBFBFB50
:104D300099424FEA4B0B1FFA8EFE1FFA8AFA1FFAAE
:104D40008BFB4FEA05254FEA04244FEA0C2218D8C2
:104D500001EB41070131C61989B24FEA25294FEA13
:104D600024284FEA222C754454445A448B4200F8BC
:104D70000790ADB286F80180A4B286F802C092B264
:104D8000E6D2BDE8F08F4FF0010BC7E789463578D2
:104D900092F800E07478577896F802C092F8028092
:104DA0001570194686F800E04B465470777082F80B
:104DB00002C086F802809FE709B330B44D1EADB241
:104DC000D2430135D2B205EB450505440132441CFE
:104DD00014F8013C02FB03F31B1204F8013C417878
:104DE000837802FB01F102FB03F309121B124170ED
:104DF00083700330854204F10304E9D130BC70476D
:104E0000FFF7DABF22B3FF2A23D0F0B404780E787C
:104E1000437895B2A719D24306FB0576D2B204FBBC
:104E20000264C4F3072404704C7886781F1904FBCD
:104E3000057403FB0243C3F3072343708B78F11817
:104E400003FB051506FB0252F0BCC2F30722827079
:104E500070470B7803704B7843708B788370704782
:104E600038B50D7805704D784570897881700446A5
:104E700011461A46FFF7C6FF204638BD01EB410335
:104E8000C1EB8313003118BF012101EB2321C9B20B
:104E90008B000A06DBB20ED401F0400101F0FF02E4
:104EA00019B90370427082707047FF21002243706D
:104EB000017082707047FF228370027042707047E9
:104EC0002DE9F043141104EB440512F00F020D44D8
:104ED0009DF81C6000D0E6B92C786978AA78FF2B81
:104EE00012D0002B43D00133DBB21CB103FB0444CE
:104EF000C4F3072419B103FB0111C1F307211AB14F
:104F000003FB0222C2F30722047041708270BDE8E5
:104F1000F0830F2C2E7895F80190AF7800D0E91C23
:104F2000120182F0FF056C1C91F800C091F801E0BD
:104F300091F8028004FB06F6511C04FB09F504FB02
:104F400007F4C4F30724C6F3072701FB08F201FBAB
:104F50000CF6C5F3072501FB0EFE04EB222207EB3E
:104F6000262605EB2E21F4B2C9B2D2B2B7E71A4613
:104F700019461C46047041708270BDE8F08300BF82
:104F8000F0B50139441E00252F3001E084421ED0C7
:104F900014F8013F11F8016FB342F7D003F1010794
:104FA00004D2FBB2237001350E78EDB25F1E9E4233
:104FB000FFB205F1010E08D227700E78BE4238BF4D
:104FC000023B5FFA8EF538BF23709542DED3F0BD09
:104FD000F8B51E1E03680446CCBF02EB420500254F
:104FE0000F469B68D8BF164698477A1923686260B7
:104FF0005B690A4A6661934201D12046F8BD2046AA
:1050000098470028F9D0064A064B516893FBF0F008
:10501000884238BF084650602046F8BD7104000041
:105020007094FF1F40420F00084B10B51C685CB124
:1050300063680021184623B1626902EB420202F064
:10504000F3FAA468002CF3D110BD00BF8094FF1FB9
:10505000074B1B6853B110B408784A788C789C735E
:1050600018735A739B68002BF6D110BC704700BFB1
:105070008094FF1F70B40F4C2268531C8A4283B087
:10508000236013DB0C4D0D4A2968019101992D68AD
:1050900000951668009D15604FF47A720025891BF3
:1050A00002FB03F32560B3FBF1F3438003B070BC54
:1050B000704700BF8494FF1FE894FF1F8C94FF1F6C
:1050C0002DE9F04F43682D4C83B006468946002BEE
:1050D0004BD100F06FFDF36820601BB14846B1680A
:1050E00098478146264B1C680025002C36D07388D3
:1050F000A77C61686269632B236898BFA574D3F8A5
:1051000004808DF804508DF805508DF80650B9F1E3
:10511000000F1CD004F10B030DF1040E04F10E0C72
:1051200013F801BFBBF1000F0DD093F803A00AF1F3
:1051300001000BFB0000BAF1000F04D009FB00F0E6
:10514000000C8EF8000063450EF1010EE8D12046F8
:1051500001ABC047A774A468002CC8D13046192100
:10516000FFF788FF03B0BDE8F08F00F023FD226851
:105170007368801A9842AAD3ABE700BF8894FF1FD8
:105180008094FF1FF0B50A4D83B02B680093009FF9
:1051900004460E4621782046FFF792FF01F0B8FF43
:1051A0002B680193019BDB1BB342F3D303B0F0BD2B
:1051B000E894FF1F2DE9F04F43682C4C83B006465E
:1051C0008A469146002B49D100F0F4FCF368206038
:1051D0001BB14846B16898478146254B1C6800259D
:1051E000002C34D07388A77C6269632B236898BF36
:1051F000A574D3F800808DF804508DF805508DF813
:105200000650B9F1000F1AD004F10B0301A804F104
:105210000E0E13F801BFBBF1000F0CD093F803C0C2
:105220000CF101010BFB0111BCF1000F03D009FBD4
:1052300001F1090C0170734500F10100E9D120462C
:1052400001AB5146C047A774A468002CCAD13046B0
:105250001921FFF70FFF03B0BDE8F08F00F0AAFCA3
:1052600022687368801A9842ACD3ADE78894FF1F18
:105270008094FF1F10B5044682B051B100231A4636
:1052800001A98DF804308DF805308DF80630FFF750
:1052900091FF2046FFF7C8FE02B010BD0020704706
:1052A000044B0022FF204FF0FF31187099605A80A4
:1052B000DA6070477094FF1FF0B404784678827803
:1052C000E00000F0F80000EB800303EB031303445D
:1052D0002506C3F307235FD404F0400505F0FF075C
:1052E00004F02004002D46D104F0FF00002C6CD007
:1052F0005533DDB2AB243B46FF2E1CD0002E79D0B7
:105300001CB106FB0444C4F307241DB106FB05557C
:10531000C5F307251BB106FB0333C3F30723F04393
:10532000C0B200FB0000C0F307200444054403445E
:10533000E4B2EDB2DBB2FF2A18D012FB02F0003269
:1053400018BF012202EB102212F0FF0256D01CB14E
:1053500002FB0444C4F307241DB102FB0555C5F349
:1053600007251BB102FB0333C3F307230C704D70F9
:105370008B70F0BC704704F0FF075CBB00EBC0040F
:1053800000EB440000EBC0000412563BC4F1AB0438
:10539000DDB2E4B23B46AFE704F0400707F0FF059B
:1053A000E7B904F0200707F0FF04002F36D100EB27
:1053B000C00300EB430000EBC000C0F30720C0F1C6
:1053C000AB055530EDB2C3B296E7DC43E4B21D46FF
:1053D000034691E70024DD43EDB28DE704F020049D
:1053E00004F0FF0594B903F15504E4B2C3F1AB0333
:1053F000DBB281E7FF231D461C469CE71546144699
:1054000013460C704D708B70F0BC7047A3F15604BE
:10541000E4B20025C3F15503DBB26DE7D8431C4667
:10542000C3B269E7F0B561B301F1FF3E1FFA8EFE2A
:105430000EEB4E0E00220EF1060E8644C31C1546DE
:10544000144613F8037C13F8020C13F8016C0333B1
:1054500073453C4405443244F3D104EB840402EB2D
:105460008202C5EBC500C4F31713C2EB0212C5EBF1
:10547000C004120A03EB142401EB81011019084443
:10548000F0BD0C460A46F7E72DE9F043254B1C68B2
:1054900085B0074688469CB1DFF894907D2507E0EB
:1054A000606981B23046FFF7BDFFA468054444B18E
:1054B00094E848001B694B45F2D020469847F0E736
:1054C0007D2505FB07F52D0A174B45451B7810D2A6
:1054D00023B3164A012152F833208DF80C109DF8A1
:1054E0000C101378384623EA0103137005B0BDE8A9
:1054F000F08308FB07F7B7FBF5F0C7B273B10B4AAF
:10550000012152F833208DF80C109DF80C101378FF
:1055100038460B43137005B0BDE8F083384605B03C
:10552000BDE8F0838094FF1F9494FF1F1C9D000032
:105530006D040000034B044ADA6001FB00F199603E
:10554000704700BF7094FF1F89540000074882B065
:1055500003680193019A114401E0994204D303685E
:105560000093009B9A42F8D902B07047E894FF1F5D
:1055700010B4104A85B0A1B9136800934168009B2C
:10558000591A31290DD813680293029C04F1320391
:10559000591A01E0994204D313680193019B9C427C
:1055A000F8D913680393039B4360012005B010BC36
:1055B000704700BFE894FF1F704700BF4FF47A7038
:1055C00000F01ABB00234364436071B1074882B006
:1055D00003680193019A114401E0994204D30368DE
:1055E0000093009B9A42F8D902B07047E894FF1FDD
:1055F00030B5134C85B023680393039B43600D467D
:105600001048062101F010FB00230A2229460E480B
:1056100001F01EFD06210D4801F006FB0A4801F0CD
:1056200007FD23680293029A02F1320101E09942D8
:1056300004D323680193019B9A42F8D905B030BD89
:10564000E894FF1F989C00003C87FF1FA09C00006F
:1056500038B5037E0BB9632038BD0D46044601F012
:10566000B9FA10F0FF0F01D1652038BD01F0B2FA90
:1056700010F0FF0FF8D001F071FAC0B2A0F158039A
:105680001E2BF3D801A252F823F000BF15570000DB
:105690006D5600006D5600006D5600006D560000FE
:1056A0006D5600006D5600006D5600006D560000EE
:1056B0006D5600006D560000095700006D56000041
:1056C0006D5600006D5600006D56000057560000E4
:1056D0006D5600006D5600006D5600006D560000BE
:1056E0006D5600006D5600006D5600006D560000AE
:1056F000575600006D5600006D5600006D560000B4
:105700006D5600005956000020462946FFF770FFED
:10571000632038BD00232376632038BD70B505466D
:1057200082B01646C9B101230D4C037600212846EC
:10573000FFF78EFF632810D023680193019A511C54
:1057400023680093009B9A42F0D89942F8D2002136
:105750002846FFF77DFF6328EED12E7602B070BD9C
:10576000E894FF1F034B00229A60DA601A615A61C5
:10577000704700BF9894FF1F374A384913681B06CB
:10578000FCD40B6813F08003F8D172B634490A7860
:10579000002A5FD0334A3448F0B4344C17680668A6
:1057A0002568D4680C303E44143200681268304FCB
:1057B00035442C4420440244C2F34E022D4E2E4860
:1057C0002E4D2F4C42F400423A60376806682D682F
:1057D0002C4A24680C303E44006812682A4F354435
:1057E0002C4420440244C2F34E02284E2848294D3E
:1057F000294C42F400423A60376806682D68274A0F
:1058000024680C303E4400681268254F35442C440F
:1058100020440244C2F34E02224E2348234D244C1E
:1058200042F400423A60376806682D68214A2468CD
:105830000C303E440068126835442C442044024435
:10584000C2F34E021C4842F4004202600B7062B682
:10585000F0BC704762B6704724B0034024B00B40E0
:10586000E194FF1F38B003403CB0034040B0034018
:105870002CB0034058B003405CB0034060B003401C
:1058800064B003406CB0034030B0034038B00B400C
:105890003CB00B4040B00B4044B00B404CB00B4010
:1058A0002CB00B4058B00B405CB00B4060B00B40CC
:1058B00064B00B406CB00B4030B00B4030B42948A2
:1058C000294A2A4B2A4D6024E121047011701B786B
:1058D000284C082B30D00A2B2748284937D00C2BCE
:1058E0000CBF35223D2212232A60236002600B6028
:1058F000234B24491B78244ABBB101230B6013605E
:10590000224B23491B78234A012B26D9042B0FD97C
:10591000082B1ED9102B94BF862387230B6013609E
:105920001D4B01221A7030BC70470B601360E7E713
:1059300084230B601360F3E700F58E200F490830D5
:10594000012213232A60236002600B60D0E7392212
:10595000F7E785230B601360E2E780230B60136099
:10596000DEE700BF00400740014007403687FF1FC9
:1059700008B003400CB0034008B00B400CB00B4023
:10598000E494FF1F20B0034020B00B403787FF1F77
:1059900024B0034024B00B40E194FF1F28282FD8E7
:1059A000334B2DE9F0411E5CFF2E2BD0314B1B7881
:1059B000002B2AD132062CD472B62F4D2F4C2F46F5
:1059C000012326602B7062B672B623681B060CD4C6
:1059D0003B781BB9F4E72B78002BF1D062B601F0CD
:1059E00097FB72B623681806F5D5254B1B68002275
:1059F0002A7062B6234A107843FA00F0BDE8F081BD
:105A0000002070470020BDE8F081FFF7B5FE3206A8
:105A1000D2D572B61C4DDFF87C801C4C06F04007D6
:105A2000FFB206F03F06D8F80030DFB123F01003D4
:105A3000C8F8003001232660134A2B7062B672B694
:105A4000236819060CD413781BB9ECE72B78002BCC
:105A5000E9D062B601F05CFB72B623681B06F5D58F
:105A60000B4BC3E743F01003C8F80030E2E700BF78
:105A7000F09C0000E194FF1FE394FF1F00B003407F
:105A800010B00340E094FF1FE294FF1F00B00B40F2
:105A900010B00B400CB00B4008B5104C08E0236868
:105AA00059050DD423681A050FD42368DB0411D4DB
:105AB00023685803F3D500F037FA23685905F1D568
:105AC00001F0AAFB23681A05EFD501F03BFC23681F
:105AD000DB04EDD501F0CCFCEAE700BF34800440E4
