:1000000000800020BD01000065C900001DC900007E
:100010001DC900001DC900001DC900001DC9000048
:100020001DC900001DC900001DC9000065C90000F0
:1000300065C900001DC9000091DD000095DE0000CB
:1000400065C9000065C9000065C9000065C90000F8
:1000500065C9000065C9000065C9000065C90000E8
:1000600065C9000065C9000065C9000065C90000D8
:1000700065C9000065C9000065C9000065C90000C8
:1000800065C9000065C9000065C9000065C90000B8
:1000900065C9000065C9000065C9000065C90000A8
:1000A00065C9000065C9000065C9000065C9000098
:1000B00065C9000065C9000065C9000065C9000088
:1000C00065C9000065C9000065C9000065C9000078
:1000D00065C9000065C9000065C9000065C9000068
:1000E00065C9000065C9000065C9000065C9000058
:1000F00065C90000EDE1000065C9000019E30000DA
:1001000065C9000045E4000065C9000065C900003C
:1001100065C9000065C9000065C9000065C9000027
:1001200065C9000065C9000065C9000065C9000017
:1001300065C9000065C9000065C9000065C9000007
:1001400065C9000065C9000065C9000065C90000F7
:1001500065C9000065C9000065C9000065C90000E7
:1001600065C90000ADCD000065C9000065C900008B
:1001700065C9000065C9000065C9000065C90000C7
:1001800065C9000065C9000065C9000065C90000B7
:1001900065C9000065C9000065C9000065C90000A7
:1001A00065C9000065C9000065C9000065C9000097
:1001B00065C9000065C9000065C90000564B4CF2D6
:1001C000205210B51A804DF628121A8000BF00BFC9
:1001D0000CF0CCFB514B4FF010621A60504A9A6001
:1001E000504ADA60504A136813F4807304D14F49BF
:1001F0000B604FF4A85313604D4B1A78110703D5C9
:100200001A7842F008021A704A4B4B492A221A7097
:100210004A4A4B4B8B4204D252F8040F43F8040B6A
:10022000F8E7484B484900228B4202D243F8042B9E
:10023000FAE74649464A002352F8230041F82300D2
:1002400001336F2BF8D1434B434A802103F8011B44
:100250009342FBD1414B3D4A1A60414B8A221A70AE
:10026000A3F5805324225A70A0221A709A7992071B
:10027000FCD59A79D406FCD43A4A937903F00C035E
:10028000082B384BF9D103221A7140225A719A79FE
:100290009006FCD5334A9179324B4906FBD5324A58
:1002A000324911600221516020221A709A7902F0BD
:1002B0000C020C2AFAD12E4B2E4A1A602E4B2F4AD2
:1002C0001A6000225A60072243F8042C2C4AC3F813
:1002D0000C2D62B60CF020FC144B1B68DA0705D518
:1002E00028480CF091FB284B284A1A60284B1B78B1
:1002F0005B0609D5244C254B22689A4204D121483B
:100300000CF082FB002323600FF084F80CF034FB28
:100310000DF0C8FDFEE700BF0E2005403080044010
:10032000823F04000100002B10D0034014D0034092
:1003300002D0074000E00740748CFF1F982A01009C
:100340002087FF1F748CFF1F60B4FF1F0082FF1FF8
:100350000000000000E400E05FE400E008ED00E0E1
:100360000050064000400640448004400000030165
:1003700004800440C010050014E000E0FF76010096
:100380000000202084904E5E1CE00340A5C3945AD8
:1003900000F00740FFFFFFFFFFFFFFFFFFFFFFFF32
:1003A000FFFFFFFFFFFFFFFFFFFFFFFFFFFFFFFF5D
:1003B000FFFFFFFFFFFFFFFFFFFFFFFFFFFFFFFF4D
:1003C000FFFFFFFFFFFFFFFFFFFFFFFFFFFFFFFF3D
:1003D000FFFFFFFFFFFFFFFFFFFFFFFFFFFFFFFF2D
:1003E000FFFFFFFFFFFFFFFFFFFFFFFFFFFFFFFF1D
:1003F000FFFFFFFFFFFFFFFFFFFFFFFFFFFFFFFF0D
:10040000FFFFFFFFFFFFFFFFFFFFFFFFDEF9FFFF23
:1004100010B5054C237833B9044B13B10448AFF33E
:1004200000800123237010BD748CFF1F00000000AA
:100430009C2A0100084B10B51BB108490848AFF3CE
:1004400000800848036803B910BD074B002BFBD0A0
:10045000BDE81040184700BF00000000788CFF1F67
:100460009C2A0100748CFF1F000000004069704747
:10047000002070474268017B13780B43137070476C
:100480004268017B137823EA01031370704700BFB1
:100490008039091110B44B0044788278C9B2DBB2BC
:1004A000611AD31A21EAE17123EAE3734170837080
:1004B00010BC704770B41D4C83B024680194019D3A
:1004C000FF2898BF00024FF48C74A5EB030304FBD4
:1004D00003F398BF80B200FB03F0C0F30E4000F5B9
:1004E00080404404C0F3CA0303D5C3F5FF63073358
:1004F0009BB21D0A0E4E0F4C765D34F81540C3F3C7
:10050000460506FB054300049BB24ABF5C421CB291
:1005100024B2521AA4F5004492B2A3B202FB0333F0
:1005200001EB134080B203B070BC70479CB1FF1F59
:10053000541801001C11010070B41E4C83B02468D3
:100540000194019DFF2898BF00024FF48C74A5EB25
:10055000030304FB03F398BF80B200FB03F0C0F376
:100560000E40A0F5804080B24404C0F3CA0303D516
:10057000C3F5FF6307339BB21D0A0F4E0F4C765D28
:1005800034F81540C3F3460506FB054300049BB24F
:100590004ABF5C421CB224B2521AA4F5004492B283
:1005A000A3B202FB033301EB134080B203B070BC73
:1005B000704700BF9CB1FF1F541801001C110100BF
:1005C00070B4184B83B01B680193019E4FF48C7379
:1005D00003FB06F600FB06F0060C7004C6F3CA0324
:1005E00003D5C3F5FF6307339BB2180A0E4D0F4CBA
:1005F000245C35F81000C3F3460504FB05043304FE
:10060000A4B248BF644224B2531AA4F500449AB27B
:10061000A3B202FB033301EB134080B203B070BC02
:10062000704700BF9CB1FF1F1C110100541801004E
:1006300010B5012104460E200CF0F8F90720012125
:100640000CF0F4F9A06958B10368074A5B6893425B
:1006500007D14268017B137823EA0103137010BDB0
:1006600010BDBDE81040184781040000F0B58BB004
:10067000002305688DF804308DF805308DF80630BC
:100680002E68374A8DF8083096428DF809308DF87B
:100690000A305FD1827C04910446012A01A80591A9
:1006A0008DF81E308DF81F308DF82030039015D056
:1006B0008DF81D308DF81C308DF81B308DF81A30F8
:1006C0008DF819308DF818300023AA698DF8213083
:1006D0002046099303A990470BB0F0BD214A137837
:1006E000013303F0070313F0010F14BF8021002131
:1006F00013709A0744BF41F04001C9B25B0748BF7D
:1007000041F0200110310022C9B20DF11B030DF19F
:100710001E074FF4807EAAB19EFBF2F2D2B2501CAB
:10072000C0B200FB01152D121870EEB205B1013EEA
:1007300003F8036C00B11A7001339F4208D0DA78D5
:10074000002AE9D11A7003F8032C01339F42F6D135
:100750002568B9E70A4602AB01A9B0470BB0F0BD66
:10076000B1080000908CFF1F70B41E4C83B0246849
:100770000194FF28019D98BF00024FF48C7498BF2C
:1007800080B204FB05F400FB04F003EB1060C3B27D
:10079000580621D5DD43EDB205F00F00013005F01C
:1007A0003F05114C2D116D006619655D747814FBC1
:1007B00000F405EB24141B06E4B248BF644264B2A3
:1007C000501A803CC0B2E3B200FB033301EB23209C
:1007D000C0B203B070BC704703F03F0503F00F00D8
:1007E000DFE700BF9CB1FF1FBC120100F0B5857CA4
:1007F0001C785E789B7889B0012D0191029203925A
:100800008DF816408DF817608DF8183017D000233A
:100810008DF815308DF814308DF813308DF81230B6
:100820008DF811308DF810300368002203219B6988
:100830008DF81910079201A9984709B0F0BD1B4A1D
:100840001378013303F0070313F0010F137014BF83
:1008500080220022990744BF42F04002D2B25B07D7
:1008600048BF42F020021032D2B20DF113030DF155
:1008700016074FF4807EACB19EFBF4F4E4B2611C29
:10088000C9B201FB02252D121970EEB205B1013E6D
:1008900003F8036C01B11C700133BB42C4D0DC7897
:1008A000002CE9D11C7003F8034CF5E7908CFF1F76
:1008B000F0B5857C1C785E789B7889B0012D01911C
:1008C000029203928DF816408DF817608DF818305B
:1008D00016D000238DF815308DF814308DF81330B4
:1008E0008DF812308DF811308DF810300268002329
:1008F00092698DF81930079301A9904709B0F0BDAE
:100900001B4A1378013303F0070313F0010F137030
:1009100014BF80220022990744BF42F04002D2B2A5
:100920005B0748BF42F020021032D2B20DF1130330
:100930000DF116074FF4807EACB19EFBF4F4E4B2E7
:10094000611CC9B201FB02252D121970EEB205B16E
:10095000013E03F8036C01B11C700133BB42C5D0EA
:10096000DC78002CE9D11C7003F8034CF5E700BFDC
:10097000908CFF1F70B5044608460D460EF060FED1
:1009800023680246294620465B68BDE87040184748
:1009900038B5044608460D460EF052FE236802465E
:1009A00029465B6820469847054620460DF082FAA6
:1009B000284438BD2DE9F04F0D7805704D7845700D
:1009C000897881701178C170517801719278427183
:1009D0001A7882715A78C2719B78DDF824A003726C
:1009E0009AF800B080F809B00DF12C0898E8005191
:1009F000DDF828900E9F0F9E109D1199129A159B5D
:100A00009AF801B080F80AB09AF802A080F80BA01A
:100A100099F800A080F80CA099F801A080F80DA02A
:100A200099F8029080F80E9098F8009080F80F9056
:100A300098F8019080F8109098F8028080F8118062
:100A40009CF8008080F812809CF8018080F8138068
:100A50009CF802C080F814C09EF800C080F815C051
:100A60009EF801C080F816C09EF802E080F817E0FA
:100A700097F800E080F818E097F801E080F819E0B6
:100A8000BF7887763778C77677780777B6784677EE
:100A90002E7886776E78C677AD7880F820500D78FE
:100AA00080F821504D7880F82250897880F8231002
:100AB000117880F82410517880F82510927880F809
:100AC0002620139A127880F82720139A527880F8FB
:100AD0002820139A927880F82920149A127880F8A6
:100AE0002A20149A527880F82B20149A927880F851
:100AF0002C201A7880F82D205A7880F82E209B78A8
:100B000080F82F30BDE8F08F2DE9F04F8BB0002733
:100B1000069051F82730DBB20137FF2BBFB2F8D176
:100B20000B6807974FEA1368C3F3072BC3F3074912
:100B30004FF0FF33C64600240593884658F8045FFB
:100B40000698C5F307274FEA241CC5F30746ECB205
:100B5000F9B2C5F307650391E9B204915FFA8CF12C
:100B6000029107990F2908AA4FEA14135FFA86FA2F
:100B70000CD805998C4507DC0F2905D00131C9B285
:100B80008B42029138BF0B4659B2059109A90091D9
:100B900002998DF820B08DF821908DF822E08DF823
:100BA00024708DF825608DF826500AF0DBFEFF2CAE
:100BB000DDF810E0DDF80CB0D146BFD106980BB0DF
:100BC000BDE8F08F484B1B78002B00F08B802DE99F
:100BD000F04F9BB000F5FC730A930023434A079340
:100BE000DFF80C91099000F2272308920B9300275D
:100BF00059F82730DBB20137FF2BBFB2F8D1D9F853
:100C0000003006974FF0FF32C3F3074A0592C3F353
:100C1000072B4FEA13680024D64659F8045FC5F342
:100C200007464FEA241CC5F30727ECB2F1B2C5F31F
:100C300007650391E9B204915FFA8CF1029106997C
:100C40000F290CAA0EA84FEA14135FFA87FA0CD8E2
:100C500005998C4507DC0F2905D00131C9B28B42BB
:100C6000029138BF0B4659B205910DA90091029926
:100C70008DF830B08DF831E08DF832808DF8347019
:100C80008DF835608DF836500AF06CFEFF2CD34697
:100C9000DDF80CE0DDF81080BFD10A9B0EAA93426C
:100CA00018D0099B0B9C03F2F71301E0A34211D06B
:100CB00012F8011B13F8010F8842F7D00A4B079A6C
:100CC0001B7801329342079209DD089B53F8049F79
:100CD00008938CE7099B9DF81C2083F829221BB000
:100CE000BDE8F08F704700BF5887FF1FB0160100A6
:100CF000542201002DE9F041424D82B001AA0024A6
:100D0000284696218DF804408DF805408DF8064060
:100D10000AF0F8FD3C4985F8C64105F5E470FFF797
:100D2000F3FE3A4905F5FC70FFF7EEFE2846FFF7A3
:100D300049FF374B374A187885F82C02234601E0E3
:100D4000222B08D012F8011F8142DCB203F101030B
:100D5000F6D185F82B42304EDFF8D0802F4F00249B
:100D600001AA304696218DF804408DF805408DF893
:100D700006400AF0C7FD012306F5E470284986F80D
:100D8000C631FFF7C1FE274906F5FC70FFF7BCFE30
:100D900095F82B3286F82B323046FFF713FF01AA65
:100DA000404696218DF804408DF805408DF80640A8
:100DB0000AF0A8FD022308F5E4701B4988F8C63143
:100DC000FFF7A2FE08F5FC701749FFF79DFE01AA88
:100DD000384696218DF804408DF805408DF8064080
:100DE0000AF090FD032307F5E4700F4987F8C63138
:100DF000FFF78AFE07F5FC700B49FFF785FE02B08E
:100E0000BDE8F08100A7FF1FA0260100F81C01002B
:100E10005187FF1F2787FF1FB88CFF1FA09EFF1F52
:100E20007024010030240100182501002C96FF1FBA
:100E300010B5122182B03448344C0CF037FE344BDC
:100E4000204619780DF086F820460DF033F8112170
:100E500030480CF02BFE304B204619780DF07AF814
:100E600020460DF027F815212C480CF01FFE2C4BC6
:100E7000204619780DF06EF820460DF01BF8112170
:100E800028480CF013FE284B204619880DF062F814
:100E900020460DF00FF8142124480CF007FE244BD7
:100EA000204619880DF056F820460DF003F80F2162
:100EB00020480CF0FBFD204B204619880DF04AF825
:100EC00002211E480CF0F2FD1D4B0A221978204623
:100ED00000230CF0FFFF01211A480CF0E7FD20462B
:100EE0000CF0E8FF0E2118480CF0E0FD174B1B68D2
:100EF0000193019900230A2220460CF0EBFF2046C3
:100F00000CF0D8FF02B010BD88F800009087FF1FDA
:100F10008787FF1F9CF800005287FF1FB0F8000072
:100F20002287FF1FC8F800002087FF1FDCF80000A1
:100F3000B48CFF1FF4F800002696FF1F04F9000090
:100F40008195FF1F08F900000CF900009CB1FF1FFC
:100F50001E491F480B8803EB432203EB820303F572
:100F6000585319339BB203EB432203EB820202F581
:100F7000585203EB13231932DBB292B203EB430353
:100F8000F0B41B1202EB1227124E134DF35C134CFC
:100F90000A80FFB207EB870701223F120337934213
:100FA0002F70237002700CD006D3022B02D10C4B91
:100FB00000221A70F0BC70470A4B00221A70F0BC75
:100FC0007047074B4A221A70F0BC70478887FF1F92
:100FD0002495FF1F2487FF1F8D9EFF1F3895FF1F3D
:100FE0006095FF1FB68CFF1FF8B5CA1C0446C31CD2
:100FF0000D4600F2C51012F8031C03F8031C12F88A
:10100000021C03F8021C12F8011C03F8011C033334
:10101000984202F10302EED195F8C23184F8C23150
:1010200095F8C33184F8C33195F8C73195F8C401F8
:1010300095F8C51195F8C62184F8C62184F8C73102
:1010400084F8C40184F8C511302205F5E47104F573
:10105000E4700EF007FA302205F5FC7104F5FC701F
:101060000EF000FA95F8283284F8283295F82932E3
:1010700084F8293295F82A3284F82A3295F82B32EE
:1010800084F82B3295F82C1295F82D2295F82E32F3
:1010900084F82E3284F82C1284F82D2295F82F3201
:1010A00084F82F3295F8303284F8303295F83132A6
:1010B00084F8313295F8323284F8323295F833328E
:1010C00084F8333295F8352295F8363295F8341293
:1010D00084F8341284F8352284F8363295F83732A1
:1010E00084F8373295F8383284F8383295F8393246
:1010F00084F8393295F83A3284F83A3205F23E22D1
:1011000004F23E2304F27A2012F8031C03F8031CB5
:1011100012F8021C03F8021C12F8011C03F8011C4F
:101120000333984202F10302EED195F8773284F846
:10113000773295F8783284F8783295F8793284F8F5
:10114000793295F87A3284F87A3295F87B3284F8DD
:101150007B3295F87C3284F87C3295F87D3284F8C5
:101160007D3295F87E3284F87E3295F87F3284F8AD
:101170007F3205F27F2204F5207304F2CB2012F8AF
:10118000011F03F8011B8342F9D105F2CA2204F2C0
:10119000163012F8011F03F8011B8342F9D195F8AC
:1011A000163384F8163395F8173384F8173395F807
:1011B000182395F8193384F8193384F8182395F80F
:1011C0001A3384F81A3395F81B3384F81B33B5F8B7
:1011D0001C13B5F81E23B5F82033A4F82033A4F867
:1011E0001C13A4F81E2395F8223384F8223395F8B3
:1011F000233384F8233395F8243384F8243395F883
:10120000253384F8253395F8263384F8263395F86A
:10121000273384F82733B5F82833A4F82833B5F8F2
:101220002A03B5F82C13B5F82E23B5F83033B5F8EA
:101230003273B5F83463A4F82A03B5F83603A4F87A
:101240002C13B5F83813A4F82E23B5F83A23A4F8D4
:101250003033B5F83C33A4F83C33A4F83813A4F881
:101260003A23A4F83273A4F83463A4F8360395F84B
:101270003E3384F83E3395F83F3384F83F3395F896
:10128000403384F8403395F8413384F8413395F87E
:10129000423384F8423395F8433384F8433395F866
:1012A000443384F8443395F8453384F8453395F84E
:1012B000463384F8463395F8473384F8473395F836
:1012C000483384F8483395F8493384F8493395F81E
:1012D0004A3384F84A3395F84B3384F84B3395F806
:1012E0004C3384F84C3395F84D3384F84D3395F8EE
:1012F0004E3384F84E3395F84F3384F84F3395F8D6
:10130000503384F8503395F8513384F8513395F8BD
:10131000523384F8523395F8533384F8533395F8A5
:101320005413D5F8582395F85C3384F85C3384F86B
:101330005413C4F8582395F85D3384F85D3304F5ED
:10134000587205F5577104F58A6351F8040F42F895
:10135000040B9342F9D105F24C4204F5A86052F80F
:10136000041F43F8041B8342F9D105F23F5204F2F3
:101370007C5012F8011F03F8011B8342F9D105F5D7
:10138000AF6104F26C6251F8040F43F8040B9A4207
:10139000F9D1134604F25C7005F5CD6252F8041FD2
:1013A00043F8041B9842F9D195F85C3784F85C3710
:1013B00095F85D3784F85D3795F85E3784F85E37C9
:1013C000B5F86017B5F86227B5F86437A4F8643744
:1013D000A4F86017A4F8622795F8663784F8663792
:1013E00095F8673784F8673795F8683784F8683771
:1013F00095F8693784F8693795F86A3784F86A3759
:1014000005F5ED6104F26C7304F28C7251F8040F6F
:1014100043F8040B9A42F9D105F5F16104F2AC737B
:1014200051F8040F42F8040B9342F9D105F5F56227
:1014300004F2CC7052F8041F43F8041B8342F9D124
:1014400005F5F96204F2EC7052F8041F43F8041B2E
:101450008342F9D105F5FD6204F60C0052F8041F31
:1014600043F8041B8342F9D105F6080204F62C0068
:1014700052F8041F43F8041B8342F9D1B5F82C3805
:10148000A4F82C3895F82E3884F82E38B5F8301892
:10149000D5F83428D5F83838C4F83838A4F83018D6
:1014A000C4F8342895F83C3884F83C3895F83D3831
:1014B00084F83D3895F83E3884F83E3895F83F3842
:1014C00084F83F3895F8403884F8403895F841085A
:1014D000D5F8483895F84218D5F84428C4F8442877
:1014E00084F8410884F84218C4F8483895F84C3814
:1014F00084F84C3895F84D3884F84D3895F84E38C6
:1015000084F84E3895F84F3884F84F3895F85038AD
:1015100084F8503895F8513884F8513895F8523895
:1015200084F8523895F8533884F8533895F854387D
:1015300084F8543895F8553884F8553895F8563865
:1015400084F8563895F8573884F8573895F858384D
:1015500084F8583895F8593884F8593895F85A3835
:1015600084F85A3895F85B3884F85B382046F8BD23
:1015700030B51D4D1D4C83B00023284601AA96218D
:1015800023708DF804308DF805308DF806300AF0A0
:10159000B9F928461649FFF727FD95F8C7313BB141
:1015A000144C15492046FFF71FFD022384F8C6316D
:1015B000002401AA96210E488DF804408DF80540BC
:1015C0008DF806400AF09EF901AA96210A488DF886
:1015D00004408DF805408DF806400AF093F985F82F
:1015E000C64103B030BD00BF00A7FF1F2495FF1FF9
:1015F000B88CFF1F2C96FF1FA09EFF1F2DE9F04304
:101600002F4D304E304C314F85B005F5E1783246E4
:1016100029463B78DFF8B49003A803350AF064FA52
:101620009DF80C109DF80D209DF80E302170454559
:101630006270A37006F1030604F10304E7D1244E9F
:101640003368DB071FD5234D234C2B68039394E8A5
:101650000600039B5B1A93420CD33B782A680292E4
:101660000133029A2260DBB23B70FF2B06D005B03B
:10167000BDE8F08399F80030FF2BF8D1FFF778FF31
:1016800005B0BDE8F08330460BF078F9114D50B944
:10169000114C2B68039394E80600039B5B1A93425A
:1016A000DBD23B78E1E70D4B2A681B780A4C0192AC
:1016B000019A22609B00304663600BF065F9E8E711
:1016C00000A7FF1FB88CFF1F5CAFFF1FB68CFF1F6A
:1016D0001896FF1F9CB1FF1F2895FF1F8D9EFF1FAF
:1016E0002DE9F04F944E96F800C01FFA8CF385B0A8
:1016F000002B00F01E8103F1FF3B1FFA8BFB8F488C
:101700008F490BF1010B0BEB4B0B834402460D464B
:101710000C46177892F801A092F8029027700332D5
:1017200090F8BF8190F8C0E190F8C17184F801A0F1
:101730005A4584F80290A0F1030081F8BF8181F836
:10174000C0E181F8C17104F10304A1F10301E0D10A
:101750004A2B27D87B48C3F1950203EB430102EBE8
:10176000420200EB010800EB020E01336F1810F883
:1017700001B005F801B0AC189BB298F801A098F838
:1017800002909EF801B010F802809EF8021087F8CF
:1017900001A04B2B87F8029005F8028084F801B075
:1017A000A170D8D10CF1FF3A0AEB4A0A802405EB6C
:1017B0000A0B5946234603A802AA00278DF80940C0
:1017C0008DF80A408DF808700AF08EF996F80080BE
:1017D0009DF80C309DF80D209DF80E0005F80A309C
:1017E000C8F1960808EB480805EB08094946234666
:1017F0008BF801208BF8020002AA03A88DF808706C
:101800008DF809408DF80A400AF06EF932789DF89B
:101810000C1005F80810C2F195019DF80D0089F82B
:10182000010002EB420C01EB41019DF80E3089F8FA
:10183000023005EB0C0E6818FF23492A05F80C301E
:10184000DFF8FC808EF801308EF80230DFF8E89087
:101850006B54437083702ED93B4F3B68DB0717D521
:101860003A4D3B4C2B68039394E80600039B5B1AAC
:101870009342337806D32A680292013B029A22608F
:10188000DBB233700BB9FFF773FE05B0BDE8F08F24
:1018900038460BF073F82D4D0028E2D02D4B2A6806
:1018A0001B782B4C0192019A22609B0038466360A2
:1018B0000BF06AF8D6E7551C05EB450508EB050A61
:1018C0005146234602AA03A88DF808708DF80940F6
:1018D0008DF80A400AF008F999F800308DF8087080
:1018E000C3F1940707EB470708EB07099DF80CC005
:1018F0009DF80DE09DF80EB008F805C002AA234639
:10190000494603A88AF801E08AF802B08DF8094038
:101910008DF80A400AF0E8F89DF80C109DF80D20AB
:101920009DF80E3008F8071089F8012089F8023078
:1019300092E7034D0EE700BF6095FF1F00A7FF1F52
:101940005CAFFF1FB88CFF1F1C96FF1F9CB1FF1FD1
:101950003C95FF1F8D9EFF1F2DE9F04FA24B1D7878
:10196000ABB285B0002B00F0308103F1FF3B1FFAD2
:101970008BFB9E489E490BF1010B0BEB4B0B8344F9
:1019800002460C460E4692F800E092F801A092F84A
:10199000029086F800E0033290F8BF8190F8C0C151
:1019A00090F8C1E186F801A05A4586F80290A0F1AE
:1019B000030081F8BF8181F8C0C181F8C1E106F15F
:1019C0000306A1F10301DED14A2B28D88948C3F1CF
:1019D000950203EB430102EB420200EB010800EB2E
:1019E000020C013304EB010E10F801B004F801B051
:1019F000A6189BB298F801A098F802909CF801B044
:101A000010F802809CF802108EF801A04B2B8EF883
:101A1000029004F8028086F801B0B170D7D1002D91
:101A200040F08F800DF10C0A0DF1080B6E4B1B7806
:101A3000C3F1950000EB40005A1C03EB430304EB99
:101A4000030E251802EB4202802604EB020917461A
:101A5000FF22E2544FF000088EF801208EF8022099
:101A60003346225449466A70AA7050465A468DF849
:101A700009608DF80A608DF808800AF035F85A4B35
:101A80009DF80C101D789DF80DE08DF80880C5F1CB
:101A9000940505EB450504EB050833468DF8096010
:101AA0008DF80A609DF80E60E1555A465046414651
:101AB00089F801E089F802600AF016F84E4B9DF8AB
:101AC0000C001B689DF80D109DF80E206055DB077B
:101AD000454888F8011088F8022020D5474D484C29
:101AE0002B68039394E80600039B5B1A93420ED382
:101AF0003D4B2A681B780292029A226001333A4ACF
:101B0000DBB213704A2B05D005B0BDE8F08F037827
:101B10004A2BF9D1FFF72CFD05B0BDE8F08F364810
:101B2000364D0AF02BFF002851D1354C2B6803931A
:101B300094E80600039B5B1A9342D9D22A4B1B7888
:101B4000E0E7013D05EB4505802604EB05090DF1B5
:101B50000C0A0DF1080B4FF0000849463346504679
:101B60005A468DF808808DF809608DF80A6009F0F2
:101B7000BBFF1D4B9DF80C201B789DF80DC09DF8F8
:101B80000EE08DF80880C3F1960303EB430304EBEA
:101B9000030862551F46414633465A46504689F867
:101BA00001C089F802E08DF809608DF80A6009F03B
:101BB0009BFF9DF80C109DF80D209DF80E30E1550F
:101BC00088F8012088F8023030E7094CFEE60D4B1A
:101BD0002A681B780A4C0192019A22609B000648F1
:101BE00063600AF0D1FEA1E76095FF1FB88CFF1F6C
:101BF0005CAFFF1F00A7FF1F2096FF1F9CB1FF1FB8
:101C0000909EFF1F8D9EFF1F012806D003D3022840
:101C100001D1FFF7A1BEFFF7F1BCFFF761BD00BF27
:101C200010B51021044694480BF040FF21460023D4
:101C30000A2292480CF04EF9022191480BF036FF2F
:101C40005C2C00F28182DFE814F07A0275027002E7
:101C50006B02660261025C02570252024D024802A8
:101C600043023E02390234022F022A0225022002D8
:101C70001B02160211020C0207020202FD01F8010A
:101C8000F301EE01E901E401DF01DA01D501D00140
:101C9000CB01C601C101BC01B701B201AD01A80170
:101CA000A3019E01990194018F018A0185018001A0
:101CB0007B01760171016C01670111010C010701C3
:101CC0000201FD00F800F300EE00E900E400DF008F
:101CD000DA00D500D000CB00C600C100BC00B700C0
:101CE000B200AD00A800A3009E00990094008F00F0
:101CF0008A00850080007B00760071006C00670020
:101D000062005D005F495D48FEF742FE10BD5E491E
:101D10005A48FEF73DFE10BD5C495848FEF738FEB4
:101D200010BD5B495548FEF733FE10BD5949534875
:101D3000FEF72EFE10BD58495048FEF729FE10BD93
:101D400056494E48FEF724FE10BD55494B48FEF754
:101D50001FFE10BD53494948FEF71AFE10BD5249F7
:101D60004648FEF715FE10BD50494448FEF710FEE8
:101D700010BD4F494148FEF70BFE10BD4D493F488D
:101D8000FEF706FE10BD4C493C48FEF701FE10BDB3
:101D90004A493A48FEF7FCFD10BD49493748FEF76D
:101DA000F7FD10BD47493548FEF7F2FD10BD464925
:101DB0003248FEF7EDFD10BD44493048FEF7E8FD1E
:101DC00010BD43492D48FEF7E3FD10BD41492B48A6
:101DD000FEF7DEFD10BD40492848FEF7D9FD10BDD5
:101DE0003E492648FEF7D4FD10BD3D492348FEF785
:101DF000CFFD10BD3B492148FEF7CAFD10BD3A4951
:101E00001E48FEF7C5FD10BD38491C48FEF7C0FD51
:101E100010BD37491948FEF7BBFD10BD35491748BD
:101E2000FEF7B6FD10BD34491448FEF7B1FD10BDF4
:101E300032491248FEF7ACFD10BD31490F48FEF79C
:101E4000A7FD10BD2F490D48FEF7A2FD10BD2E497C
:101E50000A48FEF79DFD10BD2C490848FEF798FD85
:101E600010BD2B490548FEF793FD10BD29490348D5
:101E7000FEF78EFD10BD00BF1CF900009087FF1F0C
:101E800030F90000C4FE0000B8FE0000A8FE00000B
:101E900098FE000084FE00006CFE000054FE00006E
:101EA00044FE00002CFE000020FE000014FE000096
:101EB000FCFD0000F0FD0000E4FD0000D8FD000086
:101EC000CCFD0000BCFD0000B0FD00009CFD00004A
:101ED00090FD000080FD000074FD000068FD000022
:101EE00060FD00004CFD00003CFD000028FD0000EE
:101EF0001CFD000010FD000004FD0000F4FC0000CB
:101F0000E0FC0000D4FC0000C4FC0000B8FC0000B1
:101F1000A8FC00009CFC00008E498F48FEF738FDAD
:101F200010BD8E498C48FEF733FD10BD8C498A48A0
:101F3000FEF72EFD10BD8B498748FEF729FD10BD29
:101F400089498548FEF724FD10BD88498248FEF77F
:101F50001FFD10BD86498048FEF71AFD10BD85495A
:101F60007D48FEF715FD10BD83497B48FEF710FD47
:101F700010BD82497848FEF70BFD10BD80497648B8
:101F8000FEF706FD10BD7F497348FEF701FD10BD49
:101F90007D497148FEF7FCFC10BD7C496E48FEF798
:101FA000F7FC10BD7A496C48FEF7F2FC10BD794988
:101FB0006948FEF7EDFC10BD77496748FEF7E8FC7D
:101FC00010BD76496448FEF7E3FC10BD74496248D1
:101FD000FEF7DEFC10BD73495F48FEF7D9FC10BD6B
:101FE00071495D48FEF7D4FC10BD70495A48FEF7B0
:101FF000CFFC10BD6E495848FEF7CAFC10BD6D49B4
:102000005548FEF7C5FC10BD6B495348FEF7C0FCB0
:1020100010BD6A495048FEF7BBFC10BD68494E48E8
:10202000FEF7B6FC10BD67494B48FEF7B1FC10BD8A
:1020300065494948FEF7ACFC10BD64494648FEF7C7
:10204000A7FC10BD62494448FEF7A2FC10BD6149DF
:102050004148FEF79DFC10BD5F493F48FEF798FCE4
:1020600010BD5E493C48FEF793FC10BD5C493A4800
:10207000FEF78EFC10BD5B493748FEF789FC10BDAA
:1020800059493548FEF784FC10BD58493248FEF7DF
:102090007FFC10BD56493048FEF77AFC10BD55490B
:1020A0002D48FEF775FC10BD53492B48FEF770FC18
:1020B00010BD52492848FEF76BFC10BD5049264818
:1020C000FEF766FC10BD4F492348FEF761FC10BDCA
:1020D0004D492148FEF75CFC10BD4C491E48FEF7F7
:1020E00057FC10BD4A491C48FEF752FC10BD494937
:1020F0001948FEF74DFC10BD47491748FEF748FC4C
:1021000010BD46491448FEF743FC10BD444912482F
:10211000FEF73EFC10BD43490F48FEF739FC10BDE9
:1021200041490D48FEF734FC10BD40490A48FEF70E
:102130002FFC10BD3E490848FEF72AFC10BD3D4962
:102140000548FEF725FC10BD3B490348FEF720FC7F
:1021500010BD00BF88FC00009087FF1F78FC0000C6
:102160006CFC000060FC000054FC000040FC00001F
:1021700034FC000028FC00001CFC000004FC0000F3
:10218000FCFB000094FC0000F0FB0000E4FB0000FE
:10219000D0FB0000BCFB0000ACFB0000A0FB00007B
:1021A00094FB000088FB00007CFB000070FB00003B
:1021B00064FB000058FB00004CFB000040FB0000EB
:1021C00034FB000028FB000018FB000004FB0000AB
:1021D000E8FA0000D0FA0000B4FA0000A4FA000007
:1021E00094FA000080FA000070FA000068FA00001B
:1021F00060FA000048FA000038FA000030FA0000E7
:1022000020FA000010FA000000FA0000ECF90000CB
:10221000D8F90000C4F90000ACF9000094F90000FE
:1022200084F9000070F900005CF900004CF900002E
:1022300040F9000034F90000DCFE000038B5002150
:10224000044694480BF032FC93480BF033FE2221F5
:1022500092480BF02BFC90480BF02CFE94F8C63102
:10226000002B00F0B780012B00F0958613218C48DD
:102270000BF01CFC8B4B884819780A2200230BF0CA
:1022800029FE032188480BF011FC83480BF012FE55
:10229000132186480BF00AFC0A22002394F8C3118C
:1022A0007D480BF017FE03217F480BF0FFFB7A48B7
:1022B0000BF000FE11217E480BF0F8FB94F8C511DD
:1022C00075480BF047FE032177480BF0EFFB72488F
:1022D0000BF0F0FD112177480BF0E8FB94F8283261
:1022E000012B0BBF06210721734874480BF0DEFB5E
:1022F00003216D480BF0DAFB67480BF0DBFD14217E
:102300006F480BF0D3FB00230A2294F82B1262488B
:102310000BF0E0FD032164480BF0C8FB5E480BF0B6
:10232000C9FD152167480BF0C1FB94F82E125A48DD
:102330000BF010FE03215C480BF0B8FB56480BF085
:10234000B9FD112160480BF0B1FB94F82A125248F4
:102350000BF000FE032154480BF0A8FB4E480BF095
:10236000A9FD94F82A3283BB22214C480BF09EFB36
:1023700049480BF09FFD94F82D32222B00F2FD8589
:10238000DFE813F0B400FB05FB05FB05FB05FB05CF
:10239000FB052A01FB05FB05FB05FB058501FB058C
:1023A000FB05FB05FB05FB059301A501A701A901A1
:1023B000EE016F024E03AA03EF03FB052E04840413
:1023C000F00448058B05E005300094F82902FFF77A
:1023D00027FCC9E722213D480BF068FB2E480BF093
:1023E00069FD43E73A492C48FEF7D2FA39492A48B1
:1023F000FEF7C0FA00230A2294F8571826480BF07B
:1024000069FD29492448FEF7C3FA33492248FEF7FB
:10241000B1FA00230A2294F853181F480BF05AFD12
:1024200021491D48FEF7B4FA2C491B48FEF7A2FAD1
:1024300000230A2294F8541817480BF04BFD1A4950
:102440001548FEF7A5FA26491348FEF793FA00232C
:102450000A2294F8551810480BF03CFD12490E481A
:10246000FEF796FA1F490C48FEF784FA94F85618BE
:10247000094800230A220BF02DFD0B490648FEF700
:1024800087FA232118480BF011FB0348BDE83840B8
:102490000BF010BDB00001009087FF1FF4FE00009C
:1024A00060FF00002387FF1F74FF000078FF00001B
:1024B0008CFF0000A0FF0000B4FF0000BCFF000084
:1024C000C4FF0000DCFF0000F4FF000018FF000064
:1024D000540A0100780A01008C0A0100A00A0100D8
:1024E000B40A0100C80A01004C0B010094F82C3218
:1024F000042B00F02186062B0CBF834983498448B6
:10250000FEF746FA83498248FEF734FA94F8C4117C
:102510007F480BF01FFD80497D48FEF739FA7F495F
:102520007B48FEF727FA94F8351279480BF012FD34
:1025300079497748FEF72CFA79497548FEF71AFA77
:1025400094F8361272480BF005FD73497048FEF797
:102550001FFA74496E48FEF70DFA00230A2294F818
:1025600030126B480BF0B6FC6B496948FEF710FA65
:102570006D496748FEF7FEF900230A2294F83112EC
:1025800063480BF0A7FC64496148FEF701FA67490C
:102590005F48FEF7EFF900230A2294F832125C48F4
:1025A0000BF098FC5C495A48FEF7F2F9604958482C
:1025B000FEF7E0F900230A2294F8331254480BF096
:1025C00089FC55495248FEF7E3F95A495048FEF74D
:1025D000D1F994F8341272E094F82C32082B00F000
:1025E0008C850A2B00F0AE85072B03D15249484851
:1025F000FEF7CEF947494648FEF7BCF994F8C411F6
:1026000043480BF0A7FC44494148FEF7C1F94B4948
:102610003F48FEF7AFF994F87B123D480BF09AFC67
:102620003D493B48FEF7B4F945493948FEF7A2F960
:1026300000230A2294F8791235480BF04BFC3649F6
:102640003348FEF7A5F93F493148FEF793F90023D7
:102650000A2294F878122E480BF03CFC2E492C48A4
:10266000FEF796F994F82C520A2D7FF40AAF3649FA
:102670002748FEF77FF994F8311225482A460023AF
:102680000BF028FC24492248FEF782F9F9E694F879
:102690002C320C3B052B00F28884DFE813F0340564
:1026A0008204480543053E05390528491848FEF7C8
:1026B0006FF918491648FEF75DF994F8C4111448EB
:1026C0000BF048FC14491248FEF762F9D9E620499C
:1026D000ECE72049EAE720490D48FEF759F90D4992
:1026E0000B48FEF747F994F8C41109480BF032FC87
:1026F00009490748FEF74CF918490548FEF73AF929
:1027000094F83E13B4E600BF2C0001005000010015
:102710009087FF1F7400010074FF00008C0001000F
:10272000A0000100B4000100C8000100D8000100B1
:10273000E8000100F8000100100101007C01010027
:102740008C0101009C010100AC010100100301009B
:1027500034030100580301007C030100A0030100C1
:1027600097499848FEF714F997499648FEF702F9F9
:1027700094F8C41193480BF0EDFB94499148FEF78F
:1027800007F993498F48FEF7F5F800230A2294F8D9
:102790003F138C480BF09EFB8C498A48FEF7F8F8F3
:1027A0008C498848FEF7E6F800230A2294F8401383
:1027B00084480BF08FFB85498248FEF7E9F886498B
:1027C0008048FEF7D7F800230A2294F841137D4889
:1027D0000BF080FB7D497B48FEF7DAF87F497948AA
:1027E000FEF7C8F800230A2294F8421375480BF04C
:1027F00071FB76497348FEF7CBF879497148FEF7CB
:10280000B9F800230A2294F846136E480BF062FBD5
:102810006E496C48FEF7BCF872496A48FEF7AAF8A0
:1028200000230A2294F8431366480BF053FB6749D0
:102830006448FEF7ADF86C496248FEF79BF8002348
:102840000A2294F84F135F480BF044FB5F495D4840
:10285000FEF79EF865495B48FEF78CF894F8501334
:1028600006E663495748FEF793F857495548FEF77F
:1028700081F894F8C41153480BF06CFB534951484C
:10288000FEF786F85B494F48FEF774F800230A22EA
:1028900094F847134B480BF01DFB4C494948FEF791
:1028A00077F855494748FEF765F800230A2294F85F
:1028B0004D1344480BF00EFB44494248FEF768F8BC
:1028C0004E494048FEF756F800230A2294F8401378
:1028D0003C480BF0FFFA3D493A48FEF759F84849A1
:1028E0003848FEF747F800230A2294F84913354880
:1028F0000BF0F0FA35493348FEF74AF841493148C0
:10290000FEF738F800230A2294F842132D480BF002
:10291000E1FA2E492B48FEF73BF83B492948FEF7E0
:1029200029F800230A2294F84A1326480BF0D2FA19
:1029300026492448FEF72CF834492248FEF71AF8B5
:1029400000230A2294F841131E480BF0C3FA1F49D2
:102950001C48FEF71DF82E491A48FEF70BF8002315
:102960000A2294F84B1317480BF0B4FA174915488C
:10297000FEF70EF827491348FDF7FCFF00230A2253
:1029800094F846130F480BF0A5FA10490D48FDF7CF
:10299000FFFF21490B48FDF7EDFF00230A2294F8C1
:1029A0004C1308480BF096FA08490648FDF7F0FF6B
:1029B0001A490448FDF7DEFF94F8431358E500BFB9
:1029C000880401009087FF1F7400010074FF00005D
:1029D000AC040100C0040100D4040100E8040100BB
:1029E000FC04010010050100240501003805010068
:1029F0004C050100700501008405010098050100E7
:102A0000AC050100C0050100D4050100E805010086
:102A1000FC05010010060100240601003806010033
:102A2000AF49B048FDF7B4FFAF49AE48FDF7A2FF8C
:102A300094F85433012B00F05683C0F08983022BA5
:102A400007D1AA49A748FDF795FFA949A548FDF771
:102A50009FFFA849A348FDF78DFF00230A2294F8A1
:102A60005113A0480BF036FAA1499E48FDF790FF9C
:102A7000A1499C48FDF77EFF00230A2294F85D13CC
:102A800098480BF027FA9A499648FDF781FF9B4931
:102A90009448FDF76FFF00230A2294F85C179148D1
:102AA0000BF018FA92498F48FDF772FF94498D4850
:102AB000FDF760FF00230A22D4F8581389480BF071
:102AC00009FA8B498748FDF763FF8E498548FDF772
:102AD00051FF94F8C711F2E58B498248FDF758FF82
:102AE0008A498048FDF746FFB4F83C137D480BF057
:102AF00031FA7F497B48FDF74BFF85497948FDF75F
:102B000039FF00230A2294F85E1776480BF0E2F9A9
:102B100077497448FDF73CFF7E497248FDF72AFF6C
:102B200000230A2294F832126E480BF0D3F9704950
:102B30006C48FDF72DFF78496A48FDF71BFF00231D
:102B40000A2294F8311267480BF0C4F968496548C5
:102B5000FDF71EFF71496348FDF70CFF94F833122F
:102B600086E46F495F48FDF713FF6E495D48FDF746
:102B700001FF94F8C4115B480BF0ECF95C4959482B
:102B8000FDF706FF68495748FDF7F4FEB4F86017F3
:102B900054480BF0DFF956495248FDF7F9FE6349F6
:102BA0005048FDF7E7FEB4F862174E480BF0D2F933
:102BB0004F494C48FDF7ECFE5D494A48FDF7DAFE07
:102BC000B4F8641747480BF0C5F949494548FDF783
:102BD000DFFE58494348FDF7CDFE94F8671747E4F8
:102BE00055494048FDF7D4FE54493E48FDF7C2FE22
:102BF00000230A2294F832123A480BF06BF93C4950
:102C00003848FDF7C5FE4E493648FDF7B3FE0023B0
:102C10000A2294F83A1233480BF05CF934493148EF
:102C2000FDF7B6FE47492F48FDF7A4FE00230A2210
:102C300094F831122B480BF04DF92D492948FDF736
:102C4000A7FE41492748FDF795FE00230A2294F884
:102C5000791224480BF03EF925492248FDF798FEE9
:102C60003A492048FDF786FE00230A2294F83812DC
:102C70001C480BF02FF91E491A48FDF789FE34490C
:102C80001848FDF777FE94F8771218E53149154892
:102C9000FDF77EFE30491348FDF76CFE00230A2243
:102CA00094F869170F480BF015F911490D48FDF715
:102CB0006FFE2A490B48FDF75DFE00230A2294F8B7
:102CC0006A1708480BF006F909490648FDF760FE47
:102CD00023490448FDF74EFE94F82A12EFE400BFA2
:102CE000B80301009087FF1FDC030100F00301001F
:102CF00074FF00000C040100240401003C040100E6
:102D000054040100700401004C060100700601002B
:102D1000880601009C060100B4060100CC060100F3
:102D2000E40601007400010008070100200701000B
:102D3000380701004C07010060070100840701000B
:102D40009C070100B4070100CC070100E407010063
:102D5000F8070100100801003408010044080100D0
:102D600060080100AF49B048FDF712FEAF49AE4818
:102D7000FDF700FE94F82A12AB480BF0EBF8AC49D3
:102D8000A948FDF705FEAB49A748FDF7F3FD002371
:102D90000A2294F82E18A4480BF09CF8A449A248E3
:102DA000FDF7F6FDA449A048FDF7E4FD00230A2243
:102DB00094F83D189C480BF08DF89D499A48FDF712
:102DC000E7FD9E499848FDF7D5FDB4F830189648C0
:102DD0000BF0C0F896499448FDF7DAFD98499248FF
:102DE000FDF7C8FD94F83E38012B00F08181C0F05A
:102DF000B181022B03D193498B48FDF7BBFD8C4970
:102E00008948FDF7C5FD90498748FDF7B3FDB4F843
:102E10002C1854E48D498448FDF7BAFD8C4982484A
:102E2000FDF7A8FD94F8C4117F480BF093F8804992
:102E30007D48FDF7ADFD87497B48FDF79BFD0023ED
:102E40000A2294F83F1878480BF044F878497648FD
:102E5000FDF79EFD80497448FDF78CFD00230A2292
:102E600094F8401870480BF035F871496E48FDF73A
:102E70008FFD7A496C48FDF77DFD94F841186A484A
:102E80000BF068F86A496848FDF782FD74496648A6
:102E9000FDF770FD94F8421811E472496248FDF79D
:102EA00077FD6B496048FDF765FD94F8C4115E48F5
:102EB0000BF050F85E495C48FDF76AFD6A495A48D4
:102EC000FDF758FD00230A2294F84C1856480BF0E1
:102ED00001F857495448FDF75BFD64495248FDF736
:102EE00049FD00230A2294F84D184F480AF0F2FFDA
:102EF0004F494D48FDF74CFD5D494B48FDF73AFD04
:102F000000230A2294F84E1847480AF0E3FF484984
:102F10004548FDF73DFD57494348FDF72BFD00238C
:102F20000A2294F8511840480AF0D4FF40493E481C
:102F3000FDF72EFD50493C48FDF71CFD94F8521852
:102F4000FFF796BA4D493848FDF722FD4C493648FF
:102F5000FDF710FD00230A2294F8591832480AF0B0
:102F6000B9FF33493048FDF713FD46492E48FDF7B8
:102F700001FD94F85A18FFF77BBA43492A48FDF738
:102F800007FD42492848FDF703FD3F492648FDF764
:102F9000FFFCFFF776BA3E492348FDF7F9FCFFF73F
:102FA00065B93C492048FDF7F3FC3B491E48FDF755
:102FB000E1FC00230A2294F87C121B480AF08AFFE5
:102FC0001B491948FDF7E4FC34491748FDF7D2FCCA
:102FD00000230A2294F87E1213480AF07BFF14495A
:102FE0001148FDF7D5FC94F81853002D5CD02C49FE
:102FF0000D48FDF7BFFC94F818130B480AF0AAFF20
:103000000B490948FDF7C4FC94F82C32103B012B06
:103010003FF637AA23490448FDF7ACFC94F81B138C
:10302000FFF726BA780801009087FF1F9C0801006F
:1030300074FF0000B4080100CC080100E40801009E
:10304000F80801000C0901001C0901002C0901000D
:1030500074000100500901006809010084090100A1
:10306000A0090100B8090100DC090100F409010010
:103070000C0A0100240A01003C0A0100DC0A0100DC
:10308000000B0100140B0100B0000100280B01002F
:103090003CFF0000300201009C020100B002010070
:1030A000EC020100FC0201002D492E48FDF762FCF4
:1030B0002B460A2294F87D122A480AF00BFF2A496F
:1030C0002848FDF765FC29492648FDF753FC94F88C
:1030D0007F1224482B460A220AF0FCFE224921488E
:1030E000FDF756FC83E722491E48FDF751FCB0E48A
:1030F00020491C48FDF73EFC81E61F491948FDF7B1
:1031000047FCFFF777BA1D491648FDF741FC4CE72D
:103110001B491448FDF73CFC47E71A491148FDF7E5
:1031200037FC42E718490F48FDF732FC3DE71749E5
:103130000C48FDF72DFC38E715490A48FDF728FC37
:10314000FFF7E0B913490748FDF722FCFFF752BA31
:10315000114977E411490348FDF70CFC4FE600BF25
:10316000C40201009087FF1F74FF0000D802010015
:103170000004010014090100340101000C020100E7
:10318000E8010100C40101007802010054020100BD
:103190000800010058010100F8030100FC030100D0
:1031A0002DE9F04F8DB03421054609904648474C33
:1031B0000AF07CFC46480AF07DFE332145480AF0BF
:1031C00075FC43480AF076FE332143480AF06EFC52
:1031D0003F480AF06FFE4148414A0388117803EBEB
:1031E000432203EB820303F5585319339BB203EBDD
:1031F0001322D2B212FB01F21212038054F8228081
:1032000085F82922002758F82730DBB20137FF2B39
:10321000BFB2F8D1D8F80030099A08974FEA13697D
:1032200002F5FC72C3F3072BC3F3074A4FF0FF33D9
:10323000079206930024CE4658F8045F0798C5F31A
:1032400007274FEA241CC5F30746ECB2F9B2C5F3D1
:1032500007650491E9B205915FFA8CF10391089931
:103260000F290AAA4FEA14135FFA86F90CD80699B7
:103270008C4507DC0F2905D00131C9B28B4203917F
:1032800038BF0B4659B206910BA9009103998DF8EE
:1032900028B08DF829A08DF82AE08DF82C708DF8D3
:1032A0002D608DF82E5008F05DFBFF2CDDF810B07E
:1032B000DDF814E0CA46BFD1099B93F82902FEF756
:1032C000AFFC0DB0BDE8F08F700B0100B01601002F
:1032D0009087FF1FA80B0100DC0B01008887FF1FF0
:1032E0005887FF1F244B254A1B7800211170072B9C
:1032F00009D8DFE803F0131C252E34043A0A204BCA
:103300001B8880F83232FEF799BF1D4B1B880033B3
:1033100018BF012380F83432FEF790BF184B1B888A
:10332000003318BF012380F8C431FEF787BF144B68
:103330001B88003318BF012380F83532FEF77EBFAB
:103340000F4B1B88003318BF012380F83632FEF77D
:1033500075BF0B4B1B8880F83032FEF76FBF084BF0
:103360001B8880F83132FEF769BF054B1B8880F857
:103370003332FEF763BF00BF8C9EFF1F2596FF1FF1
:103380002695FF1F2DE9F04F90F82E3289B00446A4
:10339000002B40F09D80D44E80F82D32338803EB13
:1033A000432003EB800000F55850193080B200EB49
:1033B000402500EB850505F558551935ADB205EBEF
:1033C000452305EB830303F55853193303EB4322DD
:1033D00003EB820303F5585319339BB203EB4321EC
:1033E00003EB810101F55851193189B201EB4122FA
:1033F00001EB820202F55852193292B202EB422ED0
:1034000002EB8E0E0EF5585E0EF1190E1FFA8EFEAF
:103410000EEB4E2C0EEB8C0C0CF5585C0CF1190CD1
:103420001FFA8CFC03EB13270CEB4C280CEB8808E1
:1034300001EB1121FFB202EB12220EEB1E2E07EB65
:10344000870708F55858C9B2D3B201EB4101CEF352
:10345000C01208F119084FEA272E1FFA88F88F11B9
:1034600000EB10200EF1010103EB430305EB1525E2
:103470001B11C0F3C019C5F3C01507F108000132D4
:103480000CEB1C2C84F8301208EB182103F12007F8
:10349000D2B2CCF3C01384F83652C1F3C01184F811
:1034A00031020F25012084F8359284F8327284F8B5
:1034B0003322A6F8008084F8C41184F8343284F8EA
:1034C0002E0284F82A0284F8C351002B40F0778141
:1034D000864B1B78002B40F07D8194F83432D3B1B9
:1034E000834B94F82912002203F1270084F82F223D
:1034F00001E083420FD013F8012F8A42F9D194F8EA
:1035000033327C4AA2FB0323DB080133002284F818
:10351000333284F83422962194F83222204608F07F
:10352000B3FA94F83512002940F0EC8094F8367222
:1035300094F83032002F00F0AC81002B00F0738241
:103540006D4894F82F22DFF8B4910390DFF8B0B102
:103550000F460DF11C0A04F5E47804F1E1055DE085
:1035600094F831123B440B44D9F800100491FF2B1E
:10357000049998BF1B024FF48C7000FB01F198BFB7
:103580009BB203FB01F31B0C5804C3F3CA0103D520
:10359000C1F5FF61073189B2080A039E365C3BF82A
:1035A0001000C1F3460106FB010189B21E0448BFA9
:1035B00049420EB294F8281294F8C2310091504654
:1035C000414608F0C1FAA6F5004396229BB202FBE1
:1035D00003F31B0C03EB4303E118E25C9DF81C00B2
:1035E00082FA50F2E2549DF81D304A7882FA53F282
:1035F0004A708B789DF81E2083FA52F38B7094F8F2
:103600002F1294F8332294F8303201370A44FFB273
:10361000D2B2BB4284F82F2240F2058294F8C41142
:1036200000299DD194F831123B440B44D9F8001085
:103630000591FF2B059998BF1B024FF48C7000FB7E
:1036400001F198BF9BB203FB01F31B0C5804C3F3B9
:10365000CA0103D5C1F5FF61073189B2080A039E8B
:10366000365C3BF81000C1F3460106FB010189B24C
:103670001E0448BF49420EB294F8281294F8C23191
:1036800000915046414608F05FFAA6F500439BB210
:1036900003EB8303C3EB03131B0C03EB4303E1189E
:1036A000E25C9DF81C0082FA50F2E2549DF81D3055
:1036B0004A7882FA53F24A708B789DF81E2083FA7A
:1036C00052F38B7022462346197882F8BF1159783D
:1036D00082F8C011997882F8C11103339D42A2F19A
:1036E0000302F1D18BE700BF8887FF1F2596FF1FDC
:1036F0005F87FF1FCDCCCCCC541801009CB1FF1FBD
:103700001C11010094F83662002E67D094F8303214
:10371000002B00F0888100250DF11C0A04F5E478E7
:103720004FF4FA7639E006FB05F3002900F0B58185
:103730009522002194F83102FCF7BCFE94F828127F
:1037400094F8C23194F82F22009107464146504622
:1037500008F0FAF907EB4703E118E25C9DF81C005A
:1037600082FA50F2E2544A789DF81D3082FA53F200
:103770004A708B789DF81E2083FA52F38B7094F870
:103780002F1294F8333294F830220135EDB20B4405
:10379000AA4284F82F3240F2468194F8C53194F859
:1037A000C411002BBFD1002900F0B8811946952221
:1037B00006FB05F394F83102FCF7BEFEBEE702EB10
:1037C000820202FA00F384F83332D04B1B78002BCC
:1037D0003FF483AE2046FFF785FD7EE694F8301275
:1037E000002900F020810DF11C0A04F5E47804F1B1
:1037F000E1053CE094F8C43194F831023144002BE7
:1038000000F014810023084495221946FCF752FE6B
:1038100094F8281294F8C23194F82F2200910746A8
:103820004146504608F090F907EB4703E118E25C87
:103830009DF81C0082FA50F2E2544A789DF81D303F
:1038400082FA53F24A708B789DF81E2083FA52F365
:103850008B7094F82F2294F8333294F8301201369A
:10386000F6B21344B14284F82F3240F2DC8094F86F
:10387000C531002BBED194F8310294F8C4213144F3
:103880000844002A00F0858119469522FCF754FE71
:10389000BEE7002B00F0C7809D4B94F82F22DFF885
:1038A00074920393DFF870B204F5E4784FF48C7AE5
:1038B00004F1E10557E0D9F800300693069B94F82F
:1038C00031120AFB03F3090203FB01F3790301EB55
:1038D000134399B24804C1F3CA0303D5C3F5FF6388
:1038E00007339BB2180A039E365C3BF81000C3F303
:1038F000460306FB03039BB20E0448BF5B4294F8E9
:1039000028121EB205A894F8C2310091414608F071
:103910001BF9A6F5004396229BB202FB03F31B0C96
:1039200003EB4303E118E25C9DF8140082FA50F2C5
:10393000E2549DF815304A7882FA53F24A708B7837
:103940009DF8162083FA52F38B7094F82F2294F886
:10395000333294F8301201371A44FFB2D2B2B9426E
:1039600084F82F225FD994F8C431002BA3D1D9F861
:1039700000300793079994F831320AFB01F11B02DA
:1039800003FB01F3790301EB134399B24804C1F33C
:10399000CA0303D5C3F5FF6307339BB2180A039E1E
:1039A000365C3BF81000C3F3460306FB030309042F
:1039B0009BB248BF5B4294F828121EB205A894F847
:1039C000C2310091414608F0BFF8A6F500439BB212
:1039D00003EB8303C3EB03131B0C03EB4303E1185B
:1039E000E25C9DF8140082FA50F2E2549DF8153022
:1039F0004A7882FA53F24A708B789DF8162083FA3F
:103A000052F38B7022462346197882F8BF115978F9
:103A100082F8C011997882F8C1110333AB42A2F148
:103A20000302F1D191E709B0BDE8F08F08444A22C2
:103A30001946FCF73FFD94F8281294F8C23194F827
:103A40002F22009107464146504608F07DF807EBCB
:103A50004703E118E25C9DF81C0082FA50F2E25440
:103A60009DF81D304A7882FA53F24A708B789DF89F
:103A70001E2083FA52F38B7022462346197882F86F
:103A8000BF11597882F8C011997882F8C1110333B7
:103A9000AB42A2F10302F1D1DBE64A2294F83102F3
:103AA000FCF708FD94F8281294F8C23194F82F22FC
:103AB000009107464146504608F046F807EB470399
:103AC000E118E25C9DF81C0082FA50F2E2549DF885
:103AD0001D304A7882FA53F24A708B789DF81E2086
:103AE00083FA52F38B7004F1E100234622461978E1
:103AF00082F8BF11597882F8C011997882F8C11103
:103B000003338342A2F10302F1D138E62596FF1F69
:103B1000541801009CB1FF1F1C11010006FB05F3A6
:103B20004A2294F83102FCF707FD94F8281294F821
:103B3000C23194F82F22009107464146504608F0C2
:103B400003F807EB4703E118E25C9DF81C0082FADA
:103B500050F2E2549DF81D304A7882FA53F24A70CE
:103B60008B789DF81E2083FA52F38B7004F1E100EC
:103B700023462246197882F8BF11597882F8C0117D
:103B8000997882F8C11103338342A2F10302F1D183
:103B9000F5E5134611464A22FCF7CEFC94F82812AC
:103BA00094F8C23194F82F220091074641465046BE
:103BB00007F0CAFF07EB4703E118E25C9DF81C0021
:103BC00082FA50F2E2549DF81D304A7882FA53F29C
:103BD0004A708B789DF81E2083FA52F38B70224630
:103BE0002346197882F8BF11597882F8C011997864
:103BF00082F8C1110333AB42A2F10302F1D128E6EE
:103C00002DE9F04F90F82E328DB00446002B40F095
:103C10009D80C64E80F82D32338803EB432003EBA2
:103C2000800000F55850193080B200EB402500EBC1
:103C3000850505F558551935ADB205EB452305EB5E
:103C4000830303F55853193303EB432203EB820339
:103C500003F5585319339BB203EB432103EB810166
:103C600001F55851193189B201EB412201EB820271
:103C700002F55852193292B202EB422E02EB8E0E2E
:103C80000EF5585E0EF1190E1FFA8EFE0EEB4E2C3D
:103C90000EEB8C0C0CF5585C0CF1190C1FFA8CFC1B
:103CA00003EB13270CEB4C280CEB880801EB1121DC
:103CB000FFB202EB12220EEB1E2E07EB870708F570
:103CC0005858C9B2D3B201EB4101CEF3C01208F18A
:103CD00019084FEA272E1FFA88F88F1100EB1020E1
:103CE0000EF1010103EB430305EB15251B11C0F396
:103CF000C019C5F3C01507F1080001320CEB1C2CEC
:103D000084F8301208EB182103F12007D2B2CCF36B
:103D1000C01384F83652C1F3C01184F831020F2564
:103D2000012084F8359284F8327284F83322A6F8A0
:103D3000008084F8C41184F8343284F82E0284F8A8
:103D40002A0284F8C351002B40F0B382784B1B78D1
:103D5000002B40F0B98294F8343213B1002384F878
:103D60002F32962194F83222204607F08DFE94F8E7
:103D7000C57194F83012002F40F0AF81002900F097
:103D800078836C4B029394F82F22DFF8AC81DFF834
:103D9000ACB10BAB04F5E47903934FF0260A94F829
:103DA0003102BEB28B19D8F8001007910344FF2BE3
:103DB000079998BF1B024FF48C7098BF9BB200FB11
:103DC00001F103FB01F3C3F30E43A3F580439BB260
:103DD0005D04C3F3CA0103D5C1F5FF61073189B2A0
:103DE0004FEA112EC1F3460002991BF80E5031F82C
:103DF0001E1005FB001189B218044CBF4D420DB2D4
:103E000094F8281294F8C2310398009148BF2DB25B
:103E1000494607F099FEA5F500439BB20AFB03F360
:103E20001B0C25339BB203EB4303E118E25C9DF8C6
:103E30002C0082FA50F2E2549DF82D304A7882FA32
:103E400053F24A708B789DF82E2083FA52F38B70D0
:103E500094F8312294F8303216441E44D8F80030D9
:103E60000693FF2E069B98BF36024FF48C7298BFC4
:103E7000B6B202FB03F306FB03F3C3F30E4303F5F1
:103E800080435904C3F3CA0203D5C2F5FF62073267
:103E900092B2100AC2F34601029A1BF8005032F89F
:103EA0001020039805FB01221E0492B248BF554220
:103EB00094F8281294F8C23154BF15B22DB294F878
:103EC0002F220091494607F03FFEA5F500439BB223
:103ED0000AFB03F31B0C03EB4303E118E25C9DF8C0
:103EE0002C0082FA50F2E2549DF82D304A7882FA82
:103EF00053F24A708B789DF82E2083FA52F38B7020
:103F000094F82F1294F8332294F8303201370A448F
:103F1000FFB2D2B2BB4284F82F2219463FF63FAF20
:103F200094F8C421002A00F0B08109E08887FF1FBF
:103F30002596FF1F1C1101009CB1FF1F54180100A2
:103F400094F8C571002F40F0CB81002B00F0C280A7
:103F500094F82F224FF48C7A94F8311201330B44E9
:103F6000BEB2D8F800100B9133449BB2FF2B0B99D3
:103F70009CBF1B029BB20AFB01F103FB01F3C3F3DD
:103F80000E43A3F580439BB25D04C3F3CA0103D57E
:103F9000C1F5FF61073189B2C1F3460E080A0299E3
:103FA0001BF8005031F8100094F8281205FB0E059C
:103FB000ADB2180448BF6D4294F8C231009109A80F
:103FC00049462DB207F0C0FDA5F5004326229BB25D
:103FD00002FB03F31B0C70339BB203EB4303E118AA
:103FE000E25C9DF8240082FA50F2E2549DF82530FC
:103FF0004A7882FA53F24A708B789DF8262083FA29
:1040000052F38B7094F8312294F830321344013318
:104010001E44D8F800300A93B6B2FF2E0A9A9CBF0D
:104020003602B6B20AFB02F206FB02F2C2F30E42FD
:1040300002F580425104C2F3CA0303D5C3F5FF63FE
:1040400007339BB2180AC3F34601029B1BF80050CA
:1040500033F8103005FB013312049BB248BF5B42BA
:1040600094F8281294F82F221DB209A894F8C231AE
:104070000091494607F068FDA5F500439BB203EBAC
:10408000C30203EB82031B0C4B339BB203EB4303D2
:10409000E118E25C9DF8240082FA50F2E2549DF8A7
:1040A00025304A7882FA53F24A708B789DF82620A0
:1040B00083FA52F38B7094F82F1294F8332294F809
:1040C000303201370A44FFB2D2B2BB4284F82F2209
:1040D0003FF642AF0DB0BDE8F08F002900F0C98176
:1040E0007B4B029394F82F22DFF8EC81DFF8ECB1E0
:1040F0000BAB04F5E479002703934FF0260A94F8FC
:104100003102BEB28B19D8F8001005910344FF2B81
:10411000059998BF1B024FF48C7098BF9BB200FBAF
:1041200001F103FB01F3C3F30E4303F580435D0488
:10413000C3F3CA0103D5C1F5FF61073189B24FEA64
:10414000112EC1F3460002991BF80E5031F81E10D3
:1041500005FB001189B218044CBF4D420DB294F812
:10416000281294F8C2310398009148BF2DB24946F5
:1041700007F0EAFCA5F500439BB20AFB03F31B0C16
:1041800025339BB203EB4303E118E25C9DF82C005E
:1041900082FA50F2E2549DF82D304A7882FA53F2B6
:1041A0004A708B789DF82E2083FA52F38B7094F826
:1041B000312294F8303216441E44D8F8003004936B
:1041C000FF2E049B98BF36024FF48C7298BFB6B294
:1041D00002FB03F306FB03F3C3F30E43A3F5804393
:1041E0009BB25904C3F3CA0203D5C2F5FF6207327A
:1041F00092B2100AC2F34601029A1BF8005032F83C
:104200001020039805FB01221E0492B248BF5542BC
:1042100094F8281294F8C23154BF15B22DB294F814
:104220002F220091494607F08FFCA5F500439BB271
:104230000AFB03F31B0C03EB4303E118E25C9DF85C
:104240002C0082FA50F2E2549DF82D304A7882FA1E
:1042500053F24A708B789DF82E2083FA52F38B70BC
:1042600094F82F1294F8332294F8303201370A442C
:10427000FFB2D2B2BB4284F82F2219463FF63FAFBD
:1042800094F8C421002A7FF45BAE04F1E1012346D7
:10429000227883F8BF21627883F8C021A27883F85E
:1042A000C1210334A142A3F10303F1D10DB0BDE854
:1042B000F08F02EB820202FA00F384F83332054BEE
:1042C0001B78002B3FF447AD2046FFF70BF842E583
:1042D0001C1101002596FF1F9CB1FF1F54180100FF
:1042E000002B3FF4F7AE94F82F2200274FF48C7A7E
:1042F00094F8311201330B44BEB2D8F80010099182
:1043000033449BB2FF2B09999CBF1B029BB20AFB53
:1043100001F103FB01F3C3F30E4303F580435D0496
:10432000C3F3CA0103D5C1F5FF61073189B2C1F3F7
:10433000460E080A02991BF8005031F8100094F854
:10434000281205FB0E05ADB2180448BF6D4294F863
:10435000C231039800912DB2494607F0F5FBA5F54F
:10436000004326229BB202FB03F31B0C70339BB26B
:1043700003EB4303E118E25C9DF82C0082FA50F253
:10438000E2549DF82D304A7882FA53F24A708B78C5
:104390009DF82E2083FA52F38B7094F8312294F812
:1043A0003032134401331E44D8F800300893B6B2BB
:1043B000FF2E089B9CBF3602B6B20AFB03F306FB36
:1043C00003F3C3F30E43A3F580439BB25904C3F335
:1043D000CA0203D5C2F5FF62073292B20298110AEF
:1043E000C2F346021BF8015030F81110039805FB88
:1043F00002151E04ADB248BF6D422DB294F82812CA
:1044000094F8C23194F82F220091A5F50045494651
:10441000ADB207F099FB05EBC50305EB83031B0C5D
:104420004B339BB203EB4303E118E25C9DF82C0095
:1044300082FA50F2E2549DF82D304A7882FA53F213
:104440004A708B789DF82E2083FA52F38B7094F883
:104450002F1294F8332294F8303201370A44FFB215
:10446000D2B2BB4284F82F223FF642AF0DB0BDE876
:10447000F08F94F8C431002B3FF407AF2AE600BF59
:104480002DE9F04F90F82E3285B00546002B40F014
:104490009E80A44E80F82D32338803EB432003EB3B
:1044A000800000F55850193080B200EB402400EB3A
:1044B000840404F558541934A4B204EB442304EBE7
:1044C000830303F55853193303EB432203EB8203B1
:1044D00003F5585319339BB203EB432103EB8101DE
:1044E00001F55851193189B201EB412201EB8202E9
:1044F00002F55852193292B202EB422E02EB8E0EA6
:104500000EF5585E0EF1190E1FFA8EFE0EEB4E2CB4
:104510000EEB8C0C0CF5585C0CF1190C1FFA8CFC92
:1045200003EB13270CEB4C280CEB880801EB112153
:10453000FFB202EB122207EB870708F55858C9B201
:10454000D3B201EB41014FEA27290EEB1E2E08F1F1
:1045500019088F1103EB4303CEF3C01E1FFA88F82E
:1045600000EB102009F1010104EB14241A11C4F32B
:10457000C0140EF101030CEB1C2CC0F3C01E85F817
:10458000301207F1080008EB182102F12007DBB216
:10459000CCF3C01285F83642C1F3C01185F8310260
:1045A0000F24012085F835E285F8327285F8333220
:1045B000A6F8008085F8C41185F8342285F82E020B
:1045C00085F82A0285F8C341002A40F09C80564BAA
:1045D0001B78002B40F0A18095F8343213B10023F2
:1045E00085F82F3295F832229621284607F04CFAAA
:1045F00095F83032002B72D095F82F22DFF830B1C9
:10460000DFF830A105F5E47800214FF48C791846E5
:10461000DBF800300393039C95F8313209FB04F476
:104620001B0203FB04F34FEA134E4C1C4B261EF4F3
:10463000804F96FBF0F011FB00F614FB00F1B6B2D0
:10464000CEF3CA0089B203D0C0F5FF60073080B254
:104650004FEA102C354F1AF80C3037F81CC0C0F355
:10466000460003FB00C083B21EF4004F18BF5B423C
:10467000F0431BB20144A3F500439BB289B201FB96
:10468000033195F8280295F8C231009006EB1146E7
:1046900002A84146B6B207F057FA06EB4603E918FE
:1046A000EA5C9DF8080082FA50F2EA549DF809305D
:1046B0004A7882FA53F24A708B789DF80A2083FA7E
:1046C00052F38B7095F82F3295F8332295F830021B
:1046D0001A44E1B2D2B2884285F82F2298D805F167
:1046E000E1012B461A7885F8BF215A7885F8C02158
:1046F0009A7885F8C12103339942A5F10305F1D1D8
:1047000005B0BDE8F08F03EB8303834085F83332B7
:10471000054B1B78002B3FF45FAF2846FEF7E2FD08
:104720005AE700BF8887FF1F2596FF1F1C11010055
:104730009CB1FF1F541801001A4B1B4A1B78002123
:104740001170042B08D8DFE803F00F1E03270900BF
:10475000164B1B8880F87932FDF770BD134B1B8810
:1047600080F83132FDF76ABD104B1B88002B14BF57
:104770000123002380F8C43114BF96234B23A0F8F3
:104780003C33FDF75BBD094B1B88003318BF012389
:1047900080F87B32FDF752BD044B1B8880F87832DD
:1047A000FDF74CBD8C9EFF1F2596FF1F2695FF1F12
:1047B00090F82E322DE9F0410446002B5CD1694877
:1047C00084F82A32038803EB432203EB820303F5C8
:1047D000585319339BB203EB432203EB820202F5D9
:1047E0005852193292B202EB422102EB810101F5DB
:1047F0005851193189B201EB412601EB860606F5C5
:10480000585603EB1323DBB21936B6B203EBC307DA
:1048100006EB162503EB4703EDB21B1205EB8505EE
:1048200001334FF0010E01EB1121ED11DBB2C1F3A9
:10483000C0170680033507260F207345E9B284F8B8
:10484000C47184F82EE284F87BE284F82D6284F847
:10485000C30100F0858002EB1222D2B202EB4202C9
:1048600012127244D2B284F8793284F8782284F831
:1048700031122046FDF7E2FC3B4B1B78002B6BD13D
:1048800094F8C53143BB94F87A2294F878321A44EC
:1048900094F87B32D2B284F87A224BBB94F8C431BC
:1048A000002B51D194F879324B21204607F03AF889
:1048B000204604F1E1012346027883F8BF214278C3
:1048C00083F8C021827883F8C12103308842A3F1A4
:1048D0000303F1D1BDE8F08194F87A3294F878229C
:1048E0009A1A94F87B32D2B284F87A22002BD5D06F
:1048F00094F879322521204607F014F804F16F0569
:10490000234621462246107881F8DE00507881F84F
:10491000DF00907881F8E0000332AA42A1F10301A0
:10492000F1D104F1E1012046027883F8BF214278F9
:1049300083F8C021827883F8C12103308842A3F133
:104940000303F1D1BDE8F08194F879322046962135
:10495000BDE8F04106F0E6BF2046FFF7EDFE8FE729
:104960001A4680E78887FF1F2596FF1F90F82E3292
:104970002DE9F0410446002B5CD1714884F82A32BD
:10498000038803EB432203EB820303F558531933E7
:104990009BB203EB432203EB820202F55852193219
:1049A00092B202EB422102EB810101F5585119311B
:1049B00089B201EB412601EB860606F5585603EB5A
:1049C0001323DBB21936B6B203EBC30706EB162589
:1049D00003EB4703EDB21B1205EB850501334FF0E6
:1049E000010E01EB1121ED11DBB2C1F3C0170680FE
:1049F000033507260F207345E9B284F8C47184F8A3
:104A00002EE284F87BE284F82D6284F8C30100F082
:104A1000948002EB1222D2B202EB420212127244D2
:104A2000D2B284F8793284F8782284F831122046A0
:104A3000FDF704FC434B1B78002B7AD194F8C53169
:104A40007BBB1946052294F8310294F87852FBF7A3
:104A50008BFE94F87A322B44184494F87B32C2B21D
:104A600084F87A228BBB94F8C431002B59D194F886
:104A700079324B21204606F055FF204604F1E10132
:104A800023461A7880F8BF215A7880F8C0219A7896
:104A900080F8C12103338B42A0F10300F1D1BDE8BE
:104AA000F08100231946052294F8310294F87852D7
:104AB000FBF75AFE94F87A325B1B181A94F87B3293
:104AC000C2B284F87A22002BCDD094F87932252115
:104AD000204606F027FF04F16F05234621462246B3
:104AE000107881F8DE00507881F8DF00907881F846
:104AF000E0000332AA42A1F10301F1D104F1E10186
:104B00002046027883F8BF21427883F8C02182785A
:104B100083F8C12103308842A3F10303F1D1BDE83A
:104B2000F08194F8793220469621BDE8F04106F0F4
:104B3000F9BE2046FFF700FE80E71A4671E700BF86
:104B40008887FF1F2596FF1FF0B590F82C429DF82F
:104B500018609DF81CE00C250127103C80F82D52B0
:104B6000BC424FF00F0580F8C35180F82E729DF8BB
:104B700014503DD900234B2480F87C5280F87E628B
:104B800080F8181380F8192380F81BE380F82A3284
:104B900080F8173380F816431F4C238803EB432219
:104BA00003EB820303F5585319339BB203EB432203
:104BB00003EB820202F55852193292B203EB13232F
:104BC00002EB1221DBB2C9B203EB430301EB41015B
:104BD0000A3D0A3EC3EBC303C1EBC10105EB23232E
:104BE00006EB212180F87D32228080F87F12F0BD13
:104BF00080F82A7280F87C5280F87E6280F8181360
:104C000080F8192380F81BE312B1252280F81723BE
:104C100080F81633C0E700BF8887FF1F194B1A4A78
:104C20001B7800211170052B08D8DFE803F00F1561
:104C30001B032109154B1B8880F87F32FDF7FEBA54
:104C4000124B1B8880F81B33FDF7F8BA0F4B1B88FB
:104C500080F87C32FDF7F2BA0C4B1B8880F87E326C
:104C6000FDF7ECBA094B1B8880F87D32FDF7E6BAF8
:104C7000064B1B88003318BF012380F81833FDF75B
:104C8000DDBA00BF8C9EFF1F2596FF1F2695FF1FD4
:104C90002DE9F04390F82E32C54D87B00446002B25
:104CA00000F01082C34B1B78002B40F0078294F871
:104CB0001633002B00F0BA8294F87E122A8801EB9A
:104CC00081014F0003F27F2E97FBF3F70237FFB20B
:104CD000A64404F27F2602EB422102EB810202F598
:104CE0005852193292B202EB122116F8010FC9B2D2
:104CF00011FB07F1A0EB112121EAE171B6453170FA
:104D0000E9D12A80DF1E012F16DD03F51F7003F2A3
:104D10007E2EDFF8A4C22044A64404F52078017852
:104D200010F8016D01EB46018CFB0196A6EBE171D9
:104D300040450EF8011DF2D102EB422102EB810247
:104D400002F55852193292B202EB122194F87C62A9
:104D50002A80C9B28E42964826D902EB422102EB44
:104D6000810202F55852193292B202EB422602EB4E
:104D7000860606F558561936B6B206EB162102EB32
:104D80001222C9B2D2B201EB410EC2EBC20204EB55
:104D90002222C1EB4E1109120680603992F880027E
:104DA00080FA51F082F8800294F818C3BCF1000F29
:104DB0007AD1002B00F02F8294F87F122A8801EB21
:104DC00081014E0003F2CA2E96FBF3F60236F6B2CC
:104DD000A64404F2CA2002EB422102EB810202F552
:104DE0005852193292B202EB122110F8018FC9B257
:104DF00011FB06F1A8EB112121EAE1717045017068
:104E0000E9D12A80012F16DD03F2C72003F2C9275A
:104E1000DFF8A4E12044274404F2CB28017810F8FD
:104E2000016D01EB46018EFB0196A6EBE171804519
:104E300007F8011DF2D102EB422102EB810202F5DB
:104E40005852193292B202EB122194F87D622A80F4
:104E5000C9B28E42564827D902EB422102EB8102A9
:104E600002F55852193292B202EB422502EB850547
:104E700005F55855193502EB1222ADB2D2B205EB49
:104E80001521C2EBC202C9B204EB222201EB41069A
:104E9000C1EB461192F8CB620580091260393046A9
:104EA00080FA51F082F8CB0294F8C521002A5ED135
:104EB000002B00F0D38004F27F279046B94605AE60
:104EC000013BC8EB030505EB450519F8011F30460A
:104ED00006F018FE9DF81430635525449DF81630F1
:104EE0009DF815206A70AB7094F8163308F101082C
:104EF0004345E5DC94F819230AB394F8C521002A48
:104F000040F049819046002B00F08A8108EB0305B0
:104F100017F8011F304606F0F5FD05EB45039DF837
:104F20001420E25423449DF815109DF81620597062
:104F30009A7094F8163308F101084345E6DC94F8BA
:104F40001823002A3AD004F1E1012346227883F89D
:104F5000BF21627883F8C021A27883F8C12103348D
:104F6000A142A3F10303F1D107B0BDE8F083002B08
:104F700000F0538104F27F27B94625464FF0000820
:104F800005AE19F8011F304606F0BCFD9DF816303D
:104F90009DF814109DF8152029706A70AB7094F874
:104FA000163308F10108434505F10305E9DCA1E7E3
:104FB0008887FF1F2596FF1F5655555594F8C52124
:104FC000002A56D0002BCFD004F2CA27B946254676
:104FD0004FF0000805AE19F8011F304606F092FDAB
:104FE0009DF816309DF814109DF8152085F8BF1116
:104FF00085F8C02185F8C13194F8163308F101080D
:105000004345A5F10305E6DC94F81923002AABD04B
:1050100094F8C521002A00F0DD80002BA4D025469D
:105020004FF0000817F8011F304606F06BFD9DF8A1
:1050300016309DF814109DF8152085F8E11085F8BC
:10504000E22085F8E33094F8163308F1010843456F
:1050500005F10305E6DC07B0BDE8F08394F81933E9
:10506000002B40F0DD80BCF1000F7FF46CAF94F8B2
:105070001633002B3FF478AF04F2CA27B9464FF03D
:10508000000805AE94F8175319F8011F4B35454435
:1050900005EB4505304606F035FD9DF814306355A7
:1050A00025449DF816309DF815206A70AB7094F871
:1050B000163308F101084345E4DCA5E72046FFF775
:1050C000ADFDF4E52B8803EB432103EB810101F5F2
:1050D0005851193189B201EB412201EB820202F5EC
:1050E0005852193292B202EB422E02EB8E0E0EF59E
:1050F000585E0EF1190E1FFA8EFE0EEB4E260EEBC9
:10510000860606F558561936B6B206EB462306EB68
:10511000830303F5585319339BB203EB432703EB87
:10512000870706EB16260EEB1E2E07F5585703EBE6
:105130001323F6B25FFA8EFE1937DBB2C6EB061602
:10514000BFB2B6110EEB8E0CC3EB03130EEB4C0E7D
:105150009B1106F1320C07EB17263C334FEA2E2E3B
:10516000C6F381165FFA83F85FFA8CFC01360EF104
:10517000140301EB112102EB1222CDF800C0CDF88F
:1051800004800296C1F3C011C2F3C012DBB22F80BB
:10519000FFF7DAFC86E5002B42D025464FF00008E9
:1051A00017F8011F304606F0ADFC9DF816309DF84B
:1051B00014109DF8152085F8DE1085F8DF2085F89D
:1051C000E03094F8163308F101084345A5F10305D2
:1051D000E6DCB4E69046002B3FF4C6AE4B33C8EB9A
:1051E000030505EB450517F8011F304606F08AFC5C
:1051F0009DF81430635525449DF816309DF8152010
:105200006A70AB7094F8163308F101084345E5DC89
:1052100007B0BDE8F0832A88F4E594F819333BB170
:1052200094F81833002B7FF48EAE9DE62A8869E54A
:10523000BCF1000F7FF487AE94F81633C2E600BFCE
:105240002DE9F04F90F82E32D04D87B00446002B58
:1052500000F0DA81CE4B1B78002B40F0428294F8AC
:1052600016C36346BCF1000F00F03F8294F87E1233
:105270002A8801EB81014F000CF27F2E97FBFCF78F
:105280000237FFB2A64404F27F2602EB422102EB72
:10529000810202F55852193292B202EB122116F82D
:1052A000010FC9B211FB07F1A0EB112121EAE17155
:1052B000B6453170E9D194F818632A80002E00F0C9
:1052C0006B81ACF10307012F4FF001091ADD0CF5DA
:1052D0001F700CF27E26DFF8BC822044264404F5C1
:1052E000207E017810F801AD01EB4A0188FB01BA7C
:1052F000AAEBE171864506F8011DF2D1B9F1000F64
:1053000000F02C8102EB422102EB810202F558529F
:10531000193292B202EB122094F87C622A80C0B259
:1053200086429A4928D902EB422002EB800202F51C
:105330005852193292B202EB422602EB860606F56B
:105340005856193602EB1222B6B2D2B206EB16202C
:10535000C2EBC202C0B204EB222200EB40070E8077
:10536000C0EB471092F880620012A0F16001304655
:1053700080FA51F082F88002B9F1000F12D12A8828
:1053800094F87D62814902EB422002EB800202F533
:105390005852193292B202EB1220C0B286422A80D1
:1053A00000F2AF80BCF1000F00F0A48104F27F276F
:1053B00000260DF11409C3F14B039D1905EB4505BA
:1053C00017F8011F484606F09DFB9DF81430635501
:1053D00025449DF816309DF815206A70AB7094F83E
:1053E00016330136B342E6DC94F81863002E75D10B
:1053F00004F2CA27002B00F083814A339D1B05EB82
:10540000450517F8011F484606F07CFB9DF814304F
:10541000635525449DF816309DF815206A70AB70D1
:1054200094F816330136B342E7DC4B2B47D00DF12D
:10543000140904F5E47B2746264600254FF0010AAF
:1054400094F81A23CDF800A0C5EB052898FBF3F3D8
:105450001A44D2B2FF235946484606F075FB9DF820
:1054600014109DF815209DF8163031707270B370CD
:1054700094F81A3394F8162398FBF2F808EB030219
:10548000D2B2FF235946CDF800A0484606F05CFB97
:105490009DF815209DF816309DF8141087F8C0214E
:1054A00087F8BF1187F8C13194F816330135C3F17D
:1054B0004B02AA4206F10306A7F10307C0DC94F8E9
:1054C000C531002B40F0968094F81A3394F81B23D2
:1054D0009B1A84F81A3307B0BDE8F08F214604F117
:1054E000E1052246107881F8BF01507881F8C001AB
:1054F000907881F8C10103329542A1F10301F1D105
:1055000093E702EB422002EB800202F55852193277
:1055100092B202EB422502EB850505F55855193587
:1055200002EB1222ADB2D2B205EB1520C2EBC202E1
:10553000C0B204EB222200EB4006C0EB461092F80A
:10554000CB620D8001126039304680FA51F082F84A
:10555000CB02BCF1000F7FF429AFCFE00CF2C726DD
:105560000CF2C92EDFF82C802644A644317816F8B8
:10557000010D01EB400188FB01A0013FA0EBE171AF
:10558000012F0EF8011DF1D1BCE600BF8887FF1F77
:105590002596FF1F5655555594F87F1201EB810152
:1055A0004FEA410E9EFBFCFE0EF1020E5FFA8EFEEC
:1055B00004F2CA2702EB422102EB810202F55852A3
:1055C000193292B202EB122117F8010FC9B211FB86
:1055D0000EF1A0EB1121013621EAE1716645397027
:1055E000E8DB2A80ACF10307012F4FF000093FF7F9
:1055F0006EAE87E694F81A2394F81B33134484F8AC
:105600001A3307B0BDE8F08F2B8803EB432103EB7F
:10561000810101F55851193189B201EB412201EBA9
:10562000820202F55852193292B202EB422E02EB7C
:105630008E0E0EF5585E0EF1190E1FFA8EFE0EEB51
:105640004E260EEB860606F558561936B6B206EB10
:10565000462306EB830303F5585319339BB203EB40
:10566000432703EB870706EB16260EEB1E2E07F5E6
:10567000585703EB1323F6B25FFA8EFE1937DBB2ED
:10568000C6EB0616BFB2B6110EEB8E0CC3EB0313BE
:105690000EEB4C0E9B1106F1320C07EB17263C3338
:1056A0004FEA2E2EC6F381165FFA8CFC5FFA83F860
:1056B00001EB11210EF1140302EB12220136CDF899
:1056C00000C0CDF804800296DBB2C1F3C011C2F372
:1056D000C0122F80FFF738FA0B4B1B78002B3FF4DA
:1056E000BEAD2046FFF79AFAB9E594F818234AB1FF
:1056F0002A88E6E5B9F1000F7FF4F0AE0DF1140948
:10570000002396E62A886DE72596FF1F0E4B0F4A69
:105710001B78002111703BB1012B03D10C4B1B886E
:1057200080F83E33FCF78ABD094B1B88002B14BF61
:105730000123002380F8C43114BF96234B23A0F823
:105740003C33FCF77BBD00BF8C9EFF1F2596FF1FDF
:105750002695FF1FF0B590F82E324B4E85B00446CB
:105760008BBB338803EB432203EB820303F55853CF
:1057700019339BB203EB432103EB810101F558512F
:10578000193189B201EB1122D2B2C2EB021212120C
:1057900003EB132301200632C3F3C01315270F2593
:1057A0003180D2B284F8C43184F82E0284F82A02FF
:1057B00084F82D7284F8C351002B5CD14B23A4F8DC
:1057C0003C3384F83E23314B1B78002B57D194F89F
:1057D0003E232046962106F057F93288B4F83C5310
:1057E00002EB422302EB830202F5585319339BB2BA
:1057F00003EB432703EB870707F558571937BFB269
:1058000007EB172203FB05F301211D0C009103A8F0
:1058100004F5E471D2B2FF23378006F095F905EB69
:105820004503E118E25C9DF80C0082FA50F2E25464
:105830009DF80D304A7882FA53F24A708B789DF8C1
:105840000E2083FA52F38B7094F8C4318BB9204642
:1058500004F1E10123461A7880F8BF215A7880F8D4
:10586000C0219A7880F8C12103338B42A0F1030054
:10587000F1D105B0F0BD9623A4F83C33A1E7204652
:10588000FFF744FFA3E700BF8887FF1F2596FF1F90
:10589000244B254A1B7800211170092B0AD8DFE818
:1058A00003F0101E23282D3237053C0B1F4B1B889D
:1058B00080F84F33FCF7C2BC1C4B1B8880F8453383
:1058C000F8E71A4B1B88002B14BF0123002380F834
:1058D000C43114BF96234B23A0F83C33EAE7134BA3
:1058E0001B8880F83F33E5E7104B1B8880F8403376
:1058F000E0E70E4B1B8880F84133DBE70B4B1B883E
:1059000080F84233D6E7094B1B8880F84633D1E74D
:10591000064B1B8880F84333CCE7044B1B8880F888
:105920005033C7E78C9EFF1F2596FF1F2695FF1F4C
:105930002DE9F04F90F82E3285B00446002B40F050
:10594000BE80DFF82CC3BCF8003003EB432603EB2A
:10595000860606F558561936B6B206EB462106EB12
:10596000810101F55851193189B201EB412501EB53
:10597000850505F558551935ADB205EB452305EB01
:10598000830303F5585319339BB203EB432703EB0F
:10599000870707F558571937BFB207EB472007EBC2
:1059A000800000F55850193080B200EB402200EB27
:1059B000820202F55852193292B202EB422E02EBE9
:1059C0008E0E0EF5585E0EF1190E1FFA8EFE0EEBBE
:1059D0004E280EEB880808F5585803EB132301EB0B
:1059E000112102EB122208F119081FFA88F8DBB224
:1059F000C9B2D2B208EB182902EB820203EB83038F
:105A000001EB41014FEAA21A03EB83035FFA89F22B
:105A100000EB1020091205EB15259B110131C5F390
:105A2000421502EB820206EB162607EB1727C0B2DF
:105A300003F16409ACF800800AF11403C6F3C01640
:105A4000C7F3811700EB80000EEB1E2E5FFA81FA80
:105A50004FF01608691DC2F3C71C01250F2284F8F8
:105A6000C4615FFA89F90137C0F30720DBB25FFA3E
:105A70008EFE84F82E5284F82A5284F82D8284F8FF
:105A8000C321002E40F0E8804B22A4F83C23764D41
:105A900084F83FA3A5FB032501EB9502002184F8C0
:105AA000419384F8427384F8460384F8433384F8BE
:105AB0004FE384F850C384F8402384F845136B4BBC
:105AC0001B78002B40F0CC8094F8451394F83F33BA
:105AD00094F8C5210B44DBB284F8453384F8443391
