:1000000000800020BD0100002D2D0000E52C000027
:10001000E52C0000E52C0000E52C0000E52C00009C
:10002000E52C0000E52C0000E52C00002D2D000043
:100030002D2D0000E52C0000594100005D4200001C
:100040002D2D00002D2D00002D2D00002D2D000048
:100050002D2D00002D2D00002D2D00002D2D000038
:100060002D2D00002D2D00002D2D00002D2D000028
:100070002D2D00002D2D00002D2D00002D2D000018
:100080002D2D00002D2D00002D2D00002D2D000008
:100090002D2D00002D2D00002D2D00002D2D0000F8
:1000A0002D2D00002D2D00002D2D00002D2D0000E8
:1000B0002D2D00002D2D00002D2D00002D2D0000D8
:1000C0002D2D00002D2D00002D2D00002D2D0000C8
:1000D0002D2D00002D2D00002D2D00002D2D0000B8
:1000E0002D2D00002D2D00002D2D00002D2D0000A8
:1000F0002D2D0000654400002D2D000091450000CD
:100100002D2D0000BD4600002D2D00002D2D0000DE
:100110002D2D00002D2D00002D2D00002D2D000077
:100120002D2D00002D2D00002D2D00002D2D000067
:100130002D2D00002D2D00002D2D00002D2D000057
:100140002D2D00002D2D00002D2D00002D2D000047
:100150002D2D00002D2D00002D2D00002D2D000037
:100160002D2D0000753100002D2D00002D2D0000DB
:100170002D2D00002D2D00002D2D00002D2D000017
:100180002D2D00002D2D00002D2D00002D2D000007
:100190002D2D00002D2D00002D2D00002D2D0000F7
:1001A0002D2D00002D2D00002D2D00002D2D0000E7
:1001B0002D2D00002D2D00002D2D0000564B4CF252
:1001C000205210B51A804DF628121A8000BF00BFC9
:1001D00002F0B0FD514B4FF010621A60504A9A6025
:1001E000504ADA60504A136813F4807304D14F49BF
:1001F0000B604FF4A85313604D4B1A78110703D5C9
:100200001A7842F008021A704A4B4B492A221A7097
:100210004A4A4B4B8B4204D252F8040F43F8040B6A
:10022000F8E7484B484900228B4202D243F8042B9E
:10023000FAE74649464A002352F8230041F82300D2
:1002400001336F2BF8D1434B434A802103F8011B44
:100250009342FBD1414B3D4A1A60414B8A221A70AE
:10026000A3F5805324225A70A0221A709A7992071B
:10027000FCD59A79D406FCD43A4A937903F00C035E
:10028000082B384BF9D103221A7140225A719A79FE
:100290009006FCD5334A9179324B4906FBD5324A58
:1002A000324911600221516020221A709A7902F0BD
:1002B0000C020C2AFAD12E4B2E4A1A602E4B2F4AD2
:1002C0001A6000225A60072243F8042C2C4AC3F813
:1002D0000C2D62B602F004FE144B1B68DA0705D53C
:1002E000284802F075FD284B284A1A60284B1B78D5
:1002F0005B0609D5244C254B22689A4204D121483B
:1003000002F066FD0023236004F08CFA02F018FD71
:1003100003F0ACFFFEE700BF0E2005403080044034
:10032000823F04000100002B10D0034014D0034092
:1003300002D0074000E007400C8CFF1FA0690000BE
:100340002087FF1F0C8CFF1F1096FF1F0082FF1FCE
:100350000000000000E400E05FE400E008ED00E0E1
:100360000050064000400640448004400000030165
:1003700004800440C010050014E000E0FF76010096
:1003800000002020C173285E1CE00340A5C3945ADE
:1003900000F00740FFFFFFFFFFFFFFFFFFFFFFFF32
:1003A000FFFFFFFFFFFFFFFFFFFFFFFFFFFFFFFF5D
:1003B000FFFFFFFFFFFFFFFFFFFFFFFFFFFFFFFF4D
:1003C000FFFFFFFFFFFFFFFFFFFFFFFFFFFFFFFF3D
:1003D000FFFFFFFFFFFFFFFFFFFFFFFFFFFFFFFF2D
:1003E000FFFFFFFFFFFFFFFFFFFFFFFFFFFFFFFF1D
:1003F000FFFFFFFFFFFFFFFFFFFFFFFFFFFFFFFF0D
:10040000FFFFFFFFFFFFFFFFFFFFFFFFDEF9FFFF23
:1004100010B5054C237833B9044B13B10448AFF33E
:1004200000800123237010BD0C8CFF1F0000000012
:10043000A4690000084B10B51BB108490848AFF388
:1004400000800848036803B910BD074B002BFBD0A0
:10045000BDE81040184700BF00000000108CFF1FCF
:10046000A46900000C8CFF1F000000004069704769
:10047000002070474268017B13780B43137070476C
:100480004268017B137823EA01031370704700BFB1
:1004900010B5012104460E2002F0ACFC072001211A
:1004A00002F0A8FCA06958B10368074A5B68934250
:1004B00007D14268017B137823EA0103137010BD52
:1004C00010BDBDE81040184781040000F0B58BB0A6
:1004D000002305688DF804308DF805308DF806305E
:1004E0002E68374A8DF8083096428DF809308DF81D
:1004F0000A305FD1827C04910446012A01A805914B
:100500008DF81E308DF81F308DF82030039015D0F7
:100510008DF81D308DF81C308DF81B308DF81A3099
:100520008DF819308DF818300023AA698DF8213024
:100530002046099303A990470BB0F0BD214A1378D8
:10054000013303F0070313F0010F14BF80210021D2
:1005500013709A0744BF41F04001C9B25B0748BF1E
:1005600041F0200110310022C9B20DF11B030DF141
:100570001E074FF4807EAAB19EFBF2F2D2B2501C4D
:10058000C0B200FB01152D121870EEB205B1013E8C
:1005900003F8036C00B11A7001339F4208D0DA7877
:1005A000002AE9D11A7003F8032C01339F42F6D1D7
:1005B0002568B9E70A4602AB01A9B0470BB0F0BD08
:1005C0008D060000288CFF1FF0B5857C1C785E78B6
:1005D0009B7889B0012D0191029203928DF816400B
:1005E0008DF817608DF8183017D000238DF815306E
:1005F0008DF814308DF813308DF812308DF81130DD
:100600008DF810300368002203219B698DF81910C2
:10061000079201A9984709B0F0BD1B4A137801332E
:1006200003F0070313F0010F137014BF80220022A0
:10063000990744BF42F04002D2B25B0748BF42F084
:1006400020021032D2B20DF113030DF116074FF450
:10065000807EACB19EFBF4F4E4B2611CC9B201FB34
:1006600002252D121970EEB205B1013E03F8036C9C
:1006700001B11C700133BB42C4D0DC78002CE9D13D
:100680001C7003F8034CF5E7288CFF1FF0B5857C40
:100690001C785E789B7889B0012D019102920392BB
:1006A0008DF816408DF817608DF8183016D000239D
:1006B0008DF815308DF814308DF813308DF8123018
:1006C0008DF811308DF810300268002392698DF892
:1006D0001930079301A9904709B0F0BD1B4A137860
:1006E000013303F0070313F0010F137014BF8022CE
:1006F0000022990744BF42F04002D2B25B0748BFD4
:1007000042F020021032D2B20DF113030DF11607A0
:100710004FF4807EACB19EFBF4F4E4B2611CC9B22C
:1007200001FB02252D121970EEB205B1013E03F84E
:10073000036C01B11C700133BB42C5D0DC78002CC6
:10074000E9D11C7003F8034CF5E700BF288CFF1FAC
:100750002DE9F04F85B00390806950B10368524A8B
:100760001B68934240F07F824268007B137803430A
:1007700013704E484E4A022404230460136000BFE5
:1007800003600460136000BF03600460136000BF77
:1007900003600460136000BF03600460136000BF67
:1007A00003600460136000BF03600460136000BF57
:1007B00003600460136000BF03600460136000BF47
:1007C00003600460136000BF03600460136000BF37
:1007D00003600460136000BF03600460136000BF27
:1007E00003600460136000BF03600460136000BF17
:1007F00003600460136000BF03600460136000BF07
:1008000003600460136000BF03600460136000BFF6
:1008100003600460136000BF03600460136000BFE6
:1008200003600460136000BF03600460136000BFD6
:1008300003600460136000BF03600460136000BFC6
:1008400003600460136000BF03600460136000BFB6
:1008500003600460136000BF03600460136000BFA6
:1008600003600460136000BF03600460136000BF96
:1008700003600460136000BFD1F808800360B8F122
:10088000000F40F34E810E68CDF80480254696F89F
:1008900002E0BEF1000F0DD091F80EC08EFA5CFEA2
:1008A0005FFA8EFE06E000BF75040000C8F00F403E
:1008B000C4F00F4091F814C015600CFB0EEECEF39F
:1008C000072E4EF47F4E136000BF03601560136067
:1008D00000BF03601560136000BF03601560136004
:1008E00000BF03601560136000BF036015601360F4
:1008F00000BF03601560136000BF036015601360E4
:1009000000BF1EF0800F03605FFA8EFC14BF1460FE
:100910000460136000BF1CF0400F036014BF14603C
:100920000460136000BF1CF0200F036014BF14604C
:100930000460136000BF1CF0100F036014BF14604C
:100940000460136000BF1CF0080F036014BF146044
:100950000460136000BF1CF0040F036014BF146038
:100960000460136000BF1CF0020F036014BF14602A
:100970000460136000BF1CF0010F036014BF14601B
:100980000460136000BF036096F801C0BCF1000F63
:1009900005D091F80DE08CFA5EFC5FFA8CFC91F8C2
:1009A000138096F800E008FB0CCC0CF47F4CBEF1F1
:1009B000000F05D091F80C808EFA58FE5FFA8EFE7B
:1009C00091F8128008FB0EEE4CEA1E2E4FEA2E2CF8
:1009D0001CF0800F14BF146004605FFA8CF8136081
:1009E00000BF18F0400F036014BF14600460136070
:1009F00000BF18F0200F036014BF14600460136080
:100A000000BF18F0100F036014BF1460046013607F
:100A100000BF18F0080F036014BF14600460136077
:100A200000BF18F0040F036014BF1460046013606B
:100A300000BF18F0020F036014BF1460046013605D
:100A400000BF18F0010F036014BF1460046013604E
:100A500000BF1EF0800F03605FFA8EF814BF1460B1
:100A60000460136000BF18F0400F036014BF1460EF
:100A70000460136000BF18F0200F036014BF1460FF
:100A80000460136000BF18F0100F036014BF1460FF
:100A90000460136000BF18F0080F036014BF1460F7
:100AA0000460136000BF18F0040F036014BF1460EB
:100AB0000460136000BF18F0020F036014BF1460DD
:100AC0000460136000BF18F0010F036014BF1460CE
:100AD0000460136000BF03608F7B0297019F91F851
:100AE00011E091F80C8091F80DA091F80FB091F8F9
:100AF00010C091F91590013F0197029FC7EB0E0EB0
:100B0000019F8F60C8EB0B08CAEB0C0C4E44002F02
:100B100081F80C8081F80DC081F80EE00E603FF77F
:100B2000B6AE4C68524A5349002CB8BF1F3464110A
:100B30000220042308600B6000BF136008600B6094
:100B400000BF136008600B6000BF136008600B609B
:100B500000BF136008600B6000BF136008600B608B
:100B600000BF136008600B6000BF136008600B607B
:100B700000BF136010600B6000BF136010600B605B
:100B800000BF136010600B6000BF136010600B604B
:100B900000BF136010600B6000BF136010600B603B
:100BA00000BF136010600B6000BF136010600B602B
:100BB00000BF136010600B6000BF136010600B601B
:100BC00000BF136010600B6000BF136010600B600B
:100BD00000BF136010600B6000BF136010600B60FB
:100BE00000BF136010600B6000BF136010600B60EB
:100BF00000BF136010600B6000BF136010600B60DB
:100C000000BF136010600B6000BF136010600B60CA
:100C100000BF136010600B6000BF136010600B60BA
:100C200000BF136010600B6000BF136010600B60AA
:100C300000BF013C651C13607FF47CAF039B986987
:100C400050B103680C4A5B68934208D14268017B4B
:100C5000137823EA0103137005B0BDE8F08F05B0E7
:100C6000BDE8F04F184701919847019981E500BF11
:100C7000C8F00F40C4F00F408104000010B50021FF
:100C80000446914803F0F6F8904803F0F7FA16216D
:100C90008F4803F0EFF88D4803F0F0FA16218D48E5
:100CA00003F0E8F894F82C32002B00F09F80012B21
:100CB00000F001811621884803F0DCF800230A22A5
:100CC00094F8C211814803F0E9FA804803F0D6FA9B
:100CD0001621824803F0CEF800230A2294F8C311AB
:100CE0007A4803F0DBFA794803F0C8FA16217C4809
:100CF00003F0C0F894F82612744803F00FFB734811
:100D000003F0BCFA1621774803F0B4F894F82712E0
:100D10006E4803F003FB6D4803F0B0FA16217248E9
:100D200003F0A8F894F82812684803F0F7FA674827
:100D300003F0A4FA0E216D4803F09CF800230A2268
:100D400094F82912614803F0A9FA604803F096FA72
:100D50001621674803F08EF894F82B125B4803F0D5
:100D6000DDFA5A4803F08AFA94F82A32012B00F08F
:100D70009F8043D3022B30D15E48192103F07AF8CB
:100D8000524803F07BFA0B215B4803F073F8002311
:100D90000A2294F835124D4803F080FA4B4803F0CC
:100DA0006DFA0B21554803F065F800230A2294F8E8
:100DB0003412464803F072FA444803F05FFA0B21FC
:100DC0004F4803F057F894F83312404800230A22A2
:100DD00003F064FA3D4803F051FA16213C4803F051
:100DE00049F83A48BDE8104003F048BA07214548A1
:100DF00003F040F8354803F041FA5BE7162142481A
:100E000003F038F8314803F039FA0F213F4803F076
:100E100031F800230A2294F82D122C4803F03EFAF0
:100E20002A4803F02BFA0F21394803F023F8002356
:100E30000A2294F82E12254803F030FA234803F0D2
:100E40001DFA0F21334803F015F800230A2294F805
:100E50002F121E4803F022FA1C4803F00FFA0F214C
:100E60002D4803F007F800230A2294F8301217489F
:100E700003F014FA154803F001FA0F21274802F095
:100E8000F9FF00230A2294F83112104803F006FA01
:100E90000E4803F0F3F90F21214802F0EBFF94F81C
:100EA00032120A4803F03AFA084803F0E7F994E7E7
:100EB00013211C4862E704211B4802F0DBFF0348B2
:100EC00003F0DCF9F6E600BF685A00002C87FF1F2C
:100ED000485800006058000088580000A0580000E2
:100EE000B8580000D0580000E85800000059000031
:100EF00010590000D8590000B4590000C059000032
:100F0000CC590000785800002859000040590000D2
:100F100050590000605900007059000080590000CD
:100F200090590000A0590000805800002DE9F04FB2
:100F3000604B614900278BB083F82C7251F8273041
:100F40005D4ADBB20137FF2BBFB2F7D113680797B9
:100F50004FEA1368C3F3072BC3F307494FF0FF337E
:100F6000924606930024C6465AF8045F5348C5F3D8
:100F70000727C5F30746F9B24FEA241C0491F1B2E2
:100F800005915FFA8CF103910799ECB20F29C5F333
:100F9000076509AA4FEA14135FFA85F80CD8069979
:100FA0008C4507DC0F2905D00131C9B28B42039172
:100FB00038BF0B4659B2069108A9009103998DF8E4
:100FC00024B08DF825908DF826E08DF820708DF8EE
:100FD00021608DF8225000F0C9FFFF2CDDF810B021
:100FE000DDF81490C646BFD13549002751F82730A7
:100FF000334ADBB20137FF2BBFB2F7D11368079733
:10100000C3F30749C3F3072B4FEA13684FF0FF33CD
:10101000CE4606930024914659F8045F254BC5F34C
:101020000727C5F30746F9B24FEA241C0491F1B231
:1010300005915FFA8CF103910799ECB20F29C5F382
:10104000076503F5FA7009AA4FEA14135FFA85FAE7
:101050000CD806998C4507DC0F2905D00131C9B29F
:101060008B42039138BF0B4659B2069108A90091F3
:1010700003998DF824B08DF825E08DF826808DF841
:1010800020708DF821608DF8225000F06FFFFF2C4A
:10109000DDF810B0DDF814E0D046BDD1094A0121D9
:1010A00082F82C12034A002382F82A320BB0BDE8E2
:1010B000F08F00BFA090FF1F006400006492FF1F2C
:1010C00088640000548CFF1F13481449038803EB05
:1010D000432203EB820303F5585319339BB203EB0E
:1010E0001322D2B2F0B402EB420212120C4F038070
:1010F0000C48BB5C0C4E0D4D0D4C81F8292204228E
:10110000012781F82A320270002333702B70277078
:1011100081F82B32F0BC70472487FF1F548CFF1FCF
:101120002087FF1F9690FF1FA88EFF1F4C8CFF1F6C
:101130009C8EFF1F2DE9F04FDFF800A2DFF800B210
:10114000734C744F85B055460AF5E1785E463246D9
:1011500029463B78DFF8BC9103A8033500F0C8FFAF
:101160009DF80C109DF80D209DF80E30217045451E
:101170006270A37006F1030604F10304E7D1664E22
:101180003368DB0740F1A680644D654C2B68039300
:1011900094E80600039B5B1A9A420CD83B782A68B5
:1011A00002920133029A2260DBB23B70FF2B06D021
:1011B00005B0BDE8F08F99F80030FF2BF8D1594900
:1011C000594B5A4A0020087003F5E17512F8034C98
:1011D00012F8020C12F8011C03F8034C03F8020C7D
:1011E00003F8011C0333AB4202F10302EED1504D70
:1011F0009BF8C2318AF8C2310FCD4E4C9BF8C371B7
:101200008AF8C3710FC40FCD0FC495E80F0005F124
:10121000100684E80F000FCE10340FC40FCE0FC499
:1012200096E80F009BF824C29BF825E29BF82672F3
:101230009BF8276284E80F009BF828129BF829325C
:101240009BF82A228AF824C2A5F5F2708AF825E2D2
:101250008AF826728AF827628AF828128AF82932D0
:101260008AF82A229BF82B629BF82D529BF82E427B
:101270009BF82F129BF830C29BF831E28AF82B6260
:1012800000239BF832728AF82D529BF833628AF859
:101290002E429BF834529BF835428AF82F126A4648
:1012A00096218AF830C28AF831E28AF832728AF8D6
:1012B00033628AF834528AF835428AF82C328DF833
:1012C00000308DF801308DF8023000F01FFE05B0BF
:1012D000BDE8F08F304601F035FD104D58B9104C87
:1012E0002B68039394E80600039B5B1A9342BFF4B8
:1012F00055AF3B785AE7104B2A681B78084C01928F
:10130000019A22609B003046636001F021FDE7E70F
:10131000D48EFF1F4C8CFF1FD08EFF1F5093FF1FDA
:10132000A08EFF1F9C8EFF1FA390FF1F578CFF1FD7
:10133000188EFF1F6492FF1F9690FF1FA090FF1F43
:10134000548CFF1F2DE9F84F184D9DF828809DF80B
:101350002C709DF83060044689461548112192464C
:101360009B4602F087FD284602F088FF01210020FD
:1013700084F82A0284F82B1284F8261284F82D921D
:1013800084F82EA284F82FB284F8308284F8317267
:1013900084F832621421074802F06CFD284602F0FE
:1013A0006DFF2046BDE8F84FFFF768BC2C87FF1F94
:1013B000F4590000085A00002DE9F04F90F82B1264
:1013C0008BB00646002900F0E38096F8323213B164
:1013D000002386F82D3296F830229621304600F010
:1013E00057FE96F82E32002B00F0CF8006F1E10474
:1013F00096F82D22DFF854B2DFF854A205940027A6
:1014000006F5E2784FF48C795AE096F82F123B44B7
:101410000B44DBF800100891FF2B08999CBF1B02BE
:101420009BB209FB01F103FB01F3190C4D04C1F35D
:10143000CA0303D5C3F5FF6307339BB2180A814C77
:101440001AF8005034F81000C3F3460305FB0303F9
:101450000C049BB248BF5B4296F825121DB207A848
:1014600096F8C2310091414600F050FEA5F50043C8
:1014700096229BB202FB03F31B0C03EB4303F11810
:10148000F25C9DF81C0082FA50F2F2549DF81D3077
:101490004A7882FA53F24A708B789DF81E2083FABC
:1014A00052F38B7096F82D1296F8312296F82E3260
:1014B00001370A44FFB2D2B2BB4286F82D2264D96A
:1014C00096F827120029A0D196F82F123B440B441E
:1014D000DBF800100991FF2B09999CBF1B029BB2FE
:1014E00009FB01F103FB01F3190C4804C1F3CA0322
:1014F00003D5C3F5FF6307339BB2180A514C1AF8A2
:10150000005034F81000C3F3460305FB030309043D
:101510009BB248BF5B4296F825121DB207A896F809
:10152000C2310091414600F0F1FDA5F500439BB2A8
:1015300003EB8303C3EB03131B0C03EB4303F1180F
:10154000F25C9DF81C0082FA50F2F2549DF81D30B6
:101550004A7882FA53F24A708B789DF81E2083FAFB
:1015600052F3059C8B7032463346197882F8BF11CE
:10157000597882F8C011997882F8C11103339C42DE
:10158000A2F10302F1D105948CE70BB0BDE8F08F16
:101590002D4D2B8803EB432203EB820202F55852B8
:1015A000193292B202EB422402EB840404F558543F
:1015B0001934A4B204EB442304EB830303F558531A
:1015C00019339BB203EB432703EB870707F5585703
:1015D000193703EB1323BFB2DBB207EB472E03EB44
:1015E000830307EB8E0E04EB142403EB830302EB5F
:1015F000122C0EF5585EE2B29C115FFA8CFC0EF1D3
:10160000190E743C1FFA8EFE02EB4202E4B20CEBA0
:101610004C0C07EB172700944FEAEC1C93110EEBD0
:101620001E24C7F342170CF101020137C4F3C014A2
:10163000083302940197D2B2DBB2A5F800E0FFF7BD
:1016400081FEC2E62C4F00002487FF1F5093FF1F2E
:10165000985700002DE9F041114D04468846114885
:10166000182117461E4602F005FC284602F006FE29
:101670000120002184F82B0284F8261284F82A82A3
:1016800084F8347284F833621B21074802F0F2FBBD
:10169000284602F0F3FD2046BDE8F041FFF7EEBA20
:1016A0002C87FF1F205A00003C5A000090F82B3274
:1016B00070B50446002B3AD094F828321BBB94F83E
:1016C000352294F833321A4494F82732D2B284F88F
:1016D000352223BB94F834324B21204600F026FCFF
:1016E000204604F1E10123461A7880F8BF215A7898
:1016F00080F8C0219A7880F8C12103338B42A0F191
:101700000300F1D170BD94F8353294F833229A1A5F
:1017100094F82732D2B284F83522002BDAD094F82C
:10172000343220469621BDE8704000F0FFBB134DD7
:101730002B8803EB432203EB820303F55853193341
:101740009BB203EB432603EB860606F55856193683
:10175000B6B206EB162203EB1323D2B2DBB202EBD6
:101760008202C3EB031311121A1201324B1CDBB2BB
:10177000D2B201212E80FFF76DFF9DE72487FF1F66
:1017800090F82B3270B50446002B3ED094F82832E6
:1017900093BB94F8352294F833321A44D2B284F8C9
:1017A000352294F834322521204600F0BFFB04F1A5
:1017B0006F05224621462346187881F8DE005878C6
:1017C00081F8DF00987881F8E0000333AB42A1F1A3
:1017D0000301F1D104F1E1002346197882F8BF1129
:1017E000597882F8C011997882F8C1110333834285
:1017F000A2F10302F1D170BD94F8353294F833228E
:101800009A1AD2B284F83522CBE7134D2B8803EB1A
:10181000432203EB820303F5585319339BB203EBC6
:10182000432603EB860606F558561936B6B206EB84
:10183000162203EB1323D2B2DBB202EB8202C3EB1C
:10184000031311121A1201324B1CDBB2D2B2022165
:101850002E80FFF7FFFE99E72487FF1F90F82A32BA
:10186000012B07D004D3022B01D1FFF789BF7047AA
:10187000FFF7A2BDFFF71ABF70B540F6B83182B0CE
:10188000634800F0C5FF4FF46141614800F0BCFFC0
:1018900001215F4800F092FF50B110215D4802F035
:1018A000E9FA5B480A2100F077FF594800F0AAFFE7
:1018B00001220021564801F057F840F2DC51564809
:1018C00002F034FD0821554802F0D4FA524802F0E3
:1018D000D5FC4FF47A7001F0B5FA5148036813F063
:1018E000010471D04F4C50495048514DFF26002300
:1018F000962200F093FCB022F023204601A9267026
:101900008DF805208DF806308DF8046000F0C6FCD7
:1019100040F6B831052000F033FF4FF49753022012
:101920002B8001F061F92B880021034420462B8095
:1019300000F0C6FD2178204600F0E8FC2046322168
:1019400000F046FD002501AA962137488DF8046075
:101950008DF805508DF8065000F0D8FA2046FA218F
:1019600000F036FD01AA96212F488DF806608DF80B
:1019700004508DF8055000F0C9FA2046FA2100F015
:1019800027FD802301AA962127488DF805308DF880
:1019900004508DF8065000F0B9FA2046FA2100F004
:1019A00017FD2946204600F08BFD2046FA2100F065
:1019B0000FFDFFF7BBFA0E211E4802F05BFA164836
:1019C00002F05CFC02B070BD01F0BCF9002889D0C7
:1019D0001949164B08685C60FF2201255C619C6018
:1019E0009D741A735A739A73DA731A745A7460B1C5
:1019F000124A116801B18B60136000221049084837
:101A00009A61196001F0A4F96CE70B60F0E700BF80
:101A10000093FF1F585A00002C87FF1F6C5A0000CC
:101A20002C8CFF1FD892FF1FD48EFF1F308CFF1FFE
:101A30002487FF1F785A0000E892FF1FF892FF1FCB
:101A4000944900002DE9F04F7B4C7C4E9DB002F094
:101A50005FFF238832681844D707208040F1AC81AB
:101A6000774F784D3B680C930C9A77482B886988A0
:101A7000A0FB0202C3EB92139BB2994209D83B68C8
:101A80000B930B9B704AA2FB03239B092B80FFF750
:101A90001BFB6E4E3368DD0740F1A4813B686C4D43
:101AA0000F930F9A68482B886988A0FB0202C3EB4A
:101AB00092139BB2994240F2ED80664B0693664DBD
:101AC0002B68D80740F171813B68644C129394E80D
:101AD0000600129B5B1A934209D33B68604911933D
:101AE000119B2360A1F13000182200F06FFB5D4EC6
:101AF0005D495E4D3368069A91F8C311DFF8908115
:101B000092F8C3212970D90788F8002055D5584C80
:101B10003B68159394E80300159B1B1A99425DD905
:101B2000544E3368DA0765D53B68534C189394E8F4
:101B30000600189B514E5B1A934269D33B6817937A
:101B40003378179A22604C4A002B5CD1414B4C4AA7
:101B500003F5E1751C7858789978147003339D4229
:101B60005070917002F10302F4D1464D2B68DB07EF
:101B700057D53B68444C1B931B9A33482388618894
:101B8000A0FB0202C3EB92139BB299420ED83B68B2
:101B90001A931A9B2C4A2F48A2FB03239B092380EC
:101BA000FFF76CF83378002B40F025813748017837
:101BB00000F0ACFB1DB0BDE8F08F304601F0C2F87C
:101BC000002840F027812A4C3B68159394E80600D2
:101BD000159B5B1A9342A3D398F800203B6814939B
:101BE000149B244E626023601A48FFF737FE336867
:101BF000DA0799D4304601F0A5F8002840F01681A4
:101C00001D4C3B6892E72B7817485360FFF726FE80
:101C10003378002B9AD01B4DFFF78CFA2B68DB072B
:101C2000A7D4284601F08EF8002840F01981164C00
:101C30003B681B93A0E700BF2487FF1FBC8EFF1FDC
:101C40005093FF1FAC8EFF1FD34D6210C08EFF1F3D
:101C5000508CFF1FA090FF1FC48EFF1FB08EFF1F70
:101C60009492FF1F9C90FF1F548CFF1FCC8EFF1F70
:101C7000948EFF1F9890FF1F8C8EFF1F9C8EFF1F5E
:101C8000D48EFF1FC88EFF1FB88EFF1FD892FF1F74
:101C9000CD8EFF1F3B680E93794A7A490E9B0691C1
:101CA000A2FB032391F826229B092B80002A3FF4F4
:101CB00006AF2388744A7548127803EB432103EB7F
:101CC000810303F5585319339BB203EB1321C9B2B7
:101CD00011FB02F2121223806A4B50F8229083F813
:101CE00024224FF0000859F82830DBB208F101082F
:101CF000FF2B1FFA88F8F6D1D9F80030CDF82080F4
:101D0000C3F3074A4FF0FF32C3F3072B00241B0E27
:101D100007920493C846D6462546099758F8043FCB
:101D20005B48C3F307644FEA251CE1B205915FFAF3
:101D30008CF103910899C3F30727C3F30746DDB27B
:101D40000F291BAA4FEA15135FFA87FA5FFA86F983
:101D50000CD807998C4507DC0F2905D00131C9B291
:101D60008B42039138BF0B4659B207911AA90091D3
:101D70008DF86DE003999DF810E08DF86CB08DF84A
:101D80006EE08DF868708DF869608DF86A4000F03B
:101D9000EDF8059B0493FF2DD346CE46BED13D4DB5
:101DA000099F2B68D8073FF58FAE284600F0CAFF81
:101DB00028BB394C3B6889E6304600F0C3FF374FFB
:101DC00000283FF44EAE3B680A932D4A0A9B344DDF
:101DD000A2FB03239B09142230462B806A8000F06B
:101DE000B7FF3FE6304600F0ADFF002829D12D4D6A
:101DF0003B680F9355E62C48FEF740FFD6E63B685C
:101E0000254C1093109B236032232846636000F01A
:101E10009FFFCFE73B681393244C139A98F8003048
:101E200022603046636000F093FFCDE63B68169376
:101E30001F4C169A2B7822603046636000F088FFB2
:101E4000DFE63B680D930D9B0D4A164DA2FB032365
:101E50009B091E2230462B806A8000F079FFC7E77D
:101E60003B681993199B064A124CA2FB03239B095A
:101E7000052228462380628000F06AFFD8E600BF72
:101E8000D34D6210A090FF1F2387FF1F1456000040
:101E90009492FF1FC48EFF1FB08EFF1F5093FF1F31
:101EA000AC8EFF1F508CFF1F548CFF1F948EFF1FA2
:101EB0008C8EFF1FB88EFF1F30B4124A124BFF25C5
:101EC0000A240121002082F8C25183F8C25182F80D
:101ED000C34183F8C34182F8251282F8261282F8A2
:101EE000281283F8251283F8261283F8281282F824
:101EF000270282F82B0283F8270283F82B0230BCDA
:101F0000704700BFA090FF1F548CFF1F00290BDDFE
:101F100001EB4101014413780370537843709378C7
:101F2000837003308842F6D1704700BF70B582B02D
:101F3000FF25F02400298DF804208DF806508DF837
:101F4000054010DD01EB41011E46044645182146BF
:101F500001A800F0D7FA9DF8042003343244AC42C3
:101F60008DF80420F3D102B070BD00BF2DE9F04F11
:101F70008B42099E52D396F800E01578777896F850
:101F80000280547892F802C0C1EB030BC5EB0E0E31
:101F9000C4EB070ACCEB08061FFA8BF24FEACE1E01
:101FA0004FEACA1AF601B2B30FFA82FB9EFBFBFEA0
:101FB0009AFBFBFA4FEA4E0E4FEA4A0A96FBFBFBEE
:101FC00099424FEA4B0B1FFA8EFE1FFA8AFA1FFA4C
:101FD0008BFB4FEA05254FEA04244FEA0C2218D860
:101FE00001EB41070131C61989B24FEA25294FEAB1
:101FF00024284FEA222C754454445A448B4200F85A
:102000000790ADB286F80180A4B286F802C092B201
:10201000E6D2BDE8F08F4FF0010BC7E7894635786F
:1020200092F800E07478577896F802C092F802802F
:102030001570194686F800E04B465470777082F8A8
:1020400002C086F802809FE709B330B44D1EADB2DE
:10205000D2430135D2B205EB450505440132441C9B
:1020600014F8013C02FB03F31B1204F8013C417815
:10207000837802FB01F102FB03F309121B1241708A
:1020800083700330854204F10304E9D130BC70470A
:10209000FFF7DABF22B3FF2A23D0F0B404780E781A
:1020A000437895B2A719D24306FB0576D2B204FB5A
:1020B0000264C4F3072404704C7886781F1904FB6B
:1020C000057403FB0243C3F3072343708B78F118B5
:1020D00003FB051506FB0252F0BCC2F30722827017
:1020E00070470B7803704B7843708B788370704720
:1020F00038B50D7805704D78457089788170044643
:1021000011461A46FFF7C6FF204638BD2DE9F043B9
:10211000141104EB440512F00F020D449DF81C60ED
:1021200000D0E6B92C786978AA78FF2B12D0002B62
:1021300043D00133DBB21CB103FB0444C4F30724D6
:1021400019B103FB0111C1F307211AB103FB0222EC
:10215000C2F30722047041708270BDE8F0830F2C37
:102160002E7895F80190AF7800D0E91C120182F02A
:10217000FF056C1C91F800C091F801E091F8028015
:1021800004FB06F6511C04FB09F504FB07F4C4F339
:102190000724C6F3072701FB08F201FB0CF6C5F381
:1021A000072501FB0EFE04EB222207EB262605EB9A
:1021B0002E21F4B2C9B2D2B2B7E71A4619461C466C
:1021C000047041708270BDE8F08300BFF0B5013942
:1021D000441E00252F3001E084421ED014F8013F38
:1021E00011F8016FB342F7D003F1010704D2FBB23B
:1021F000237001350E78EDB25F1E9E42FFB205F1ED
:10220000010E08D227700E78BE4238BF023B5FFA3B
:102210008EF538BF23709542DED3F0BDF8B51E1E93
:1022200003680446CCBF02EB420500250F469B68BD
:10223000D8BF164698477A19236862605B690A4AD4
:102240006661934201D12046F8BD20469847002898
:10225000F9D0064A064B516893FBF0F0884238BF2C
:10226000084650602046F8BD71040000D892FF1F58
:1022700040420F00084B10B51C685CB16368002138
:10228000184623B1626902EB420202F0F3FAA46835
:10229000002CF3D110BD00BFE892FF1F074B1B6855
:1022A00053B110B408784A788C789C7318735A73B9
:1022B0009B68002BF6D110BC704700BFE892FF1F4F
:1022C00070B40F4C2268531C8A4283B0236013DB26
:1022D0000C4D0D4A2968019101992D6800951668E9
:1022E000009D15604FF47A720025891B02FB03F3F1
:1022F0002560B3FBF1F3438003B070BC704700BFAF
:10230000EC92FF1F5093FF1FF492FF1F2DE9F04F37
:1023100043682D4C83B006468946002B4BD100F014
:102320006FFDF36820601BB14846B168984781464D
:10233000264B1C680025002C36D07388A77C61686A
:102340006269632B236898BFA574D3F804808DF865
:1023500004508DF805508DF80650B9F1000F1CD0CF
:1023600004F10B030DF1040E04F10E0C13F801BF80
:10237000BBF1000F0DD093F803A00AF101000BFB95
:102380000000BAF1000F04D009FB00F0000C8EF839
:10239000000063450EF1010EE8D1204601ABC047B5
:1023A000A774A468002CC8D130461921FFF788FF14
:1023B00003B0BDE8F08F00F023FD22687368801A37
:1023C0009842AAD3ABE700BFF092FF1FE892FF1F2D
:1023D000F0B50A4D83B02B680093009F04460E466B
:1023E00021782046FFF792FF01F0B8FF2B68019398
:1023F000019BDB1BB342F3D303B0F0BD5093FF1F2F
:102400002DE9F04F43682C4C83B006468A4691462E
:10241000002B49D100F0F4FCF36820601BB1484662
:10242000B16898478146254B1C680025002C34D0A4
:102430007388A77C6269632B236898BFA574D3F85F
:1024400000808DF804508DF805508DF80650B9F1D4
:10245000000F1AD004F10B0301A804F10E0E13F8BB
:1024600001BFBBF1000F0CD093F803C00CF10101C8
:102470000BFB0111BCF1000F03D009FB01F1090CAA
:102480000170734500F10100E9D1204601AB5146CE
:10249000C047A774A468002CCAD130461921FFF7A1
:1024A0000FFF03B0BDE8F08F00F0AAFC226873684C
:1024B000801A9842ACD3ADE7F092FF1FE892FF1F5D
:1024C00010B5044682B051B100231A4601A98DF817
:1024D00004308DF805308DF80630FFF791FF204667
:1024E000FFF7C8FE02B010BD00207047044B002269
:1024F000FF204FF0FF31187099605A80DA60704702
:10250000D892FF1FF0B4047846788278E00000F09B
:10251000F80000EB800303EB031303442506C3F329
:1025200007235FD404F0400505F0FF0704F0200402
:10253000002D46D104F0FF00002C6CD05533DDB2E5
:10254000AB243B46FF2E1CD0002E79D01CB106FBDD
:102550000444C4F307241DB106FB0555C5F3072544
:102560001BB106FB0333C3F30723F043C0B200FBE8
:102570000000C0F30720044405440344E4B2EDB274
:10258000DBB2FF2A18D012FB02F0003218BF012282
:1025900002EB102212F0FF0256D01CB102FB0444E1
:1025A000C4F307241DB102FB0555C5F307251BB174
:1025B00002FB0333C3F307230C704D708B70F0BC28
:1025C000704704F0FF075CBB00EBC00400EB440065
:1025D00000EBC0000412563BC4F1AB04DDB2E4B220
:1025E0003B46AFE704F0400707F0FF05E7B904F00A
:1025F000200707F0FF04002F36D100EBC00300EBEB
:10260000430000EBC000C0F30720C0F1AB0555301C
:10261000EDB2C3B296E7DC43E4B21D46034691E750
:102620000024DD43EDB28DE704F0200404F0FF0543
:1026300094B903F15504E4B2C3F1AB03DBB281E713
:10264000FF231D461C469CE71546144613460C7096
:102650004D708B70F0BC7047A3F15604E4B20025B6
:10266000C3F15503DBB26DE7D8431C46C3B269E73B
:10267000F0B561B301F1FF3E1FFA8EFE0EEB4E0E78
:1026800000220EF1060E8644C31C1546144613F8AC
:10269000037C13F8020C13F8016C033373453C44BC
:1026A00005443244F3D104EB840402EB8202C5EB0F
:1026B000C500C4F31713C2EB0212C5EBC004120A23
:1026C00003EB142401EB810110190844F0BD0C4602
:1026D0000A46F7E72DE9F043254B1C6885B007460D
:1026E00088469CB1DFF894907D2507E0606981B24F
:1026F0003046FFF7BDFFA468054444B194E84800A4
:102700001B694B45F2D020469847F0E77D2505FB35
:1027100007F52D0A174B45451B7810D223B3164AEF
:10272000012152F833208DF80C109DF80C1013780D
:10273000384623EA0103137005B0BDE8F08308FBB7
:1027400007F7B7FBF5F0C7B273B10B4A012152F896
:1027500033208DF80C109DF80C10137838460B437D
:10276000137005B0BDE8F083384605B0BDE8F083CE
:10277000E892FF1FFC92FF1FEC6700006D04000051
:10278000034B044ADA6001FB00F19960704700BF17
:10279000D892FF1FD5260000074882B00368019336
:1027A000019A114401E0994204D303680093009B0D
:1027B0009A42F8D902B070475093FF1F10B4104AE4
:1027C00085B0A1B9136800934168009B591A31295B
:1027D0000DD813680293029C04F13203591A01E0E8
:1027E000994204D313680193019B9C42F8D9136862
:1027F0000393039B4360012005B010BC704700BFEA
:102800005093FF1F704700BF4FF47A7000F01ABB5F
:1028100000234364436071B1074882B003680193A9
:10282000019A114401E0994204D303680093009B8C
:102830009A42F8D902B070475093FF1F30B5134C3D
:1028400085B023680393039B43600D46104806211F
:1028500001F010FB00230A2229460E4801F01EFD5C
:1028600006210D4801F006FB0A4801F007FD236828
:102870000293029A02F1320101E0994204D32368E3
:102880000193019B9A42F8D905B030BD5093FF1FC8
:10289000686700002C87FF1F7067000038B5037E53
:1028A0000BB9632038BD0D46044601F0B9FA10F0AB
:1028B000FF0F01D1652038BD01F0B2FA10F0FF0F13
:1028C000F8D001F071FAC0B2A0F158031E2BF3D872
:1028D00001A252F823F000BF61290000B9280000CE
:1028E000B9280000B9280000B9280000B928000064
:1028F000B9280000B9280000B9280000B928000054
:10290000B928000055290000B9280000B9280000A6
:10291000B9280000B9280000A3280000B928000049
:10292000B9280000B9280000B9280000B928000023
:10293000B9280000B9280000B9280000A328000029
:10294000B9280000B9280000B9280000B928000003
:10295000A528000020462946FFF770FF632038BDF8
:1029600000232376632038BD70B5054682B0164635
:10297000C9B101230D4C037600212846FFF78EFFD5
:10298000632810D023680193019A511C2368009397
:10299000009B9A42F0D89942F8D200212846FFF7CE
:1029A0007DFF6328EED12E7602B070BD5093FF1FDD
:1029B000034B00229A60DA601A615A61704700BFC7
:1029C0000093FF1F374A384913681B06FCD40B6875
:1029D00013F08003F8D172B634490A78002A5FD028
:1029E000334A3448F0B4344C176806682568D46814
:1029F0000C303E44143200681268304F35442C4489
:102A000020440244C2F34E022D4E2E482E4D2F4C30
:102A100042F400423A60376806682D682C4A246800
:102A20000C303E44006812682A4F35442C44204440
:102A30000244C2F34E02284E2848294D294C42F444
:102A400000423A60376806682D68274A24680C30CF
:102A50003E4400681268254F35442C44204402440B
:102A6000C2F34E02224E2348234D244C42F400422E
:102A70003A60376806682D68214A24680C303E4465
:102A80000068126835442C4420440244C2F34E02CC
:102A90001C4842F4004202600B7062B6F0BC704702
:102AA00062B6704724B0034024B00B404993FF1F27
:102AB00038B003403CB0034040B003402CB003406A
:102AC00058B003405CB0034060B0034064B00340C2
:102AD0006CB0034030B0034038B00B403CB00B400A
:102AE00040B00B4044B00B404CB00B402CB00B40FE
:102AF00058B00B405CB00B4060B00B4064B00B4072
:102B00006CB00B4030B00B4030B42948294A2A4BF6
:102B10002A4D6024E121047011701B78284C082B89
:102B200030D00A2B2748284937D00C2B0CBF352230
:102B30003D2212232A60236002600B60234B24494C
:102B40001B78244ABBB101230B601360224B23493D
:102B50001B78234A012B26D9042B0FD9082B1ED909
:102B6000102B94BF862387230B6013601D4B01221B
:102B70001A7030BC70470B601360E7E784230B606A
:102B80001360F3E700F58E200F490830012213236C
:102B90002A60236002600B60D0E73922F7E78523C3
:102BA0000B601360E2E780230B601360DEE700BF79
:102BB00000400740014007402687FF1F08B0034040
:102BC0000CB0034008B00B400CB00B404C93FF1FFF
:102BD00020B0034020B00B402787FF1F24B00340E4
:102BE00024B00B404993FF1F28282FD8334B2DE9E1
:102BF000F0411E5CFF2E2BD0314B1B78002B2AD1CD
:102C000032062CD472B62F4D2F4C2F46012326604E
:102C10002B7062B672B623681B060CD43B781BB9C6
:102C2000F4E72B78002BF1D062B601F097FB72B677
:102C300023681806F5D5254B1B6800222A7062B65A
:102C4000234A107843FA00F0BDE8F0810020704775
:102C50000020BDE8F081FFF7B5FE3206D2D572B68E
:102C60001C4DDFF87C801C4C06F04007FFB206F0DC
:102C70003F06D8F80030DFB123F01003C8F8003069
:102C800001232660134A2B7062B672B623681906B8
:102C90000CD413781BB9ECE72B78002BE9D062B683
:102CA00001F05CFB72B623681B06F5D50B4BC3E73E
:102CB00043F01003C8F80030E2E700BFC06700002F
:102CC0004993FF1F4B93FF1F00B0034010B0034018
:102CD0004893FF1F4A93FF1F00B00B4010B00B40FA
:102CE0000CB00B4008B5104C08E0236859050DD412
:102CF00023681A050FD42368DB0411D42368580312
:102D0000F3D500F037FA23685905F1D501F0AAFB95
:102D100023681A05EFD501F03BFC2368DB04EDD5F1
:102D200001F0CCFCEAE700BF3480044008B5FFF7AF
:102D3000D9FF00BF014B10221A80704700200540C8
:102D4000704700BF0078B0FA80F04009704700BFBC
:102D500001230370704700BF1C4A02EBC003012926
:102D60005B6811D004291BD052F83000002280F893
:102D7000802229B1022920D0032922D01A6070476D
:102D80004FF480721A60704752F830004FF4A2720C
:102D900080F880121A601A6822F020021A607047C8
:102DA00052F830104FF4A272012081F880021A60AC
:102DB0001A6842F020021A60704740F203121A604B
:102DC00070474FF481721A60704700BFEC670000D3
:102DD00030B4054B054D064C002210211A602A60C4
:102DE0002060196030BC704714D0034004D0034009
:102DF00000D00340212801D8FFF7AEBF704700BFC5
:102E000072B60C490C4B0D4A1B680868126862B612
:102E1000520102D5322B88BF01300949C3F5BB33BB
:102E20004FF47A72FF33A1FB031302FB00F000EBB7
:102E3000931070475093FF1F18E000E004ED00E08E
:102E4000ABAAAAAA2DE9F843054672B6204F214B3A
:102E5000214A1B683C68126862B6520102D5322BC7
:102E600088BF013495B3C3F5BB331C4EDFF86490C3
:102E7000DFF86480FF334FF47A72A6FB031302FB82
:102E800004F404EB931472B6D9F800103A68D8F839
:102E900000E062B6C1F5BB33FF33A6FB03031EF0AF
:102EA000806FC4EB93134FF47A7002D0322988BF3D
:102EB000013200FB0233B3F57A7F04D3013D05D024
:102EC00004F57A74DFE701F049FADCE7BDE8F8833E
:102ED0005093FF1F18E000E004ED00E0ABAAAAAA9F
:102EE000F8B52D4B2D49DFF8D0E0DFF8D0C02C4EDF
:102EF0002C4D2D4C2D4A2E4F4FF4000018604FF0F2
:102F0000807018604FF0007018604FF0806018609B
:102F10004FF0006018600020086028234BF6FF7116
:102F2000CCF80010CEF80030336013602B602360C3
:102F30003B60B3629362092245F8242CC4F8D80F91
:102F400005F57F65C7F8D41F07F5FF2707F5FA6772
:102F5000C6F8F83F2B6006F5FF26C4F8D42F05F518
:102F6000FD2504F5FF24386006F2F476114831603F
:102F700005F5FF6504F5FD642B6023600260FFF733
:102F8000C3FD1920FFF75EFF00F05CFE40F2131056
:102F9000BDE8F840FFF756BF08E100E004800340B9
:102FA00014800340248003402C8003401C80034095
:102FB0003480034000800B400C80034008800340B5
:102FC000431E032B14D872B60A4951F8230068B186
:102FD00070B4094C058834F81320466841F8236022
:102FE000521B24F8132062B670BC704762B670475B
:102FF00000207047AC93FF1FFC95FF1F013803288A
:103000000BD872B6074B53F8203043B100205B68F1
:103010000130002BFBD162B6704700207047184684
:10302000F9E700BF0094FF1F30B472B62B4A137843
:103030001D0706D52A4B196A002936D0996A00293E
:1030400041D053781C0706D5254B196C00293ED07A
:10305000996C002939D09378190705D5204B196E42
:10306000002936D0996E89B1D3781B0707D51C4B40
:10307000D3F880207AB3D3F8882011213AB162B610
:10308000184B00221A7030BC00F068BE0D21154CA0
:10309000154D227843F8315003EBC1030830013A53
:1030A0005860227062B630BC704704220D4C0F4D40
:1030B000217843F8325003EBC20308304A1E5860AF
:1030C000227062B6EFE70521E1E70921DFE7082278
:1030D000ECE70C22EAE71022E8E700BF28690000CD
:1030E0000080FF1F2994FF1FC80040008800400097
:1030F000431E032B1DD81B4A400140F0100030B482
:10310000104472B6184CE25C032A1BD8DFE802F0C8
:103110000212151703220D88E25410F0080F14BF95
:10312000C823882343EA054308310360416062B63F
:1031300030BC704708300222EDE70522EBE708308B
:103140000422E8E7094A52F8230038B1084A52F845
:103150002300416042F8231062B6E9E742F82310E9
:10316000034AF7E70080FF1F3894FF1F0094FF1FFA
:103170001094FF1F2DE9F04FDFF80CB3DFF80CA31C
:1031800087B044E0AB4F4FEA930807EBC809013E14
:10319000D9F8042003F00803F6B2A2F1080003F006
:1031A000FF04002B40F0028157F838301B0C99B215
:1031B00022F8081C002B00F0F0809F4B22F8064CF0
:1031C00042F8044C53F82620002A00F0C5829B4D9B
:1031D00055F8263058609A4C45F8260034F81630D9
:1031E000194424F8161000F099FD002800F0AD8273
:1031F000944A954B19F0080F00F1080018BF1346C8
:10320000C9F8040047F8383008238BF800309BF8E1
:103210000040E4B261071AD58C4B1B78A3B18C49EE
:103220000A7802F0FF0322B1013BDBB20B7003B955
:1032300000BE88490A7802F0FF032AB1013BDBB2E5
:103240000B70002B00F0578204238BF8003004F041
:10325000080303F0FF02002B00F0CC809AF8003046
:10326000DBB21E098ED19C08DFF8C89159F83420D2
:1032700009EBC401C2F38302013A49680C2A00F247
:103280008880DFE802F07C7C868686868686478694
:10329000868607000868704D4A68704F704E286037
:1032A00081B240F28160674B6A604FF0010E0022EC
:1032B000814249F834303A60C9F81020C9F8182022
:1032C00086F800E05B4C00F2E380B1F5D06F80F04F
:1032D0004683B1F5817F00F0FC8200F28D82802967
:1032E00000F07783822940F0FA82A98801F07F01FB
:1032F000042900F2F4825B485B4C89000844227088
:1033000062700278930740F1588484F800E04FF02F
:10331000020E42E3514F3A6832B3544B504E544977
:10332000188834780D784028864645F0020828BF72
:103330004FF0400E002C84F001043470CEEB0000FE
:103340000CBF8824C82409EBC80680B285F00105AB
:1033500044EA0E447260188049F8384072440D7097
:10336000002800F045813A603B4B1A88B2F5A06F07
:103370000FD100219A7859703E4B1A7009E0364AF5
:10338000108842F22102904200F037812D4A49F81C
:103390003420394A0123137036E72A4A2A4B19F0A0
:1033A000080F18BF134647F838302DE700F0D6FC59
:1033B000324A334952F82630002B00F0D181586848
:1033C0008C5D42F8260003F10802C9F80420032CA2
:1033D00005D8DFE804F02C02292602228A551A8833
:1033E00019F0080F0CBF8823C82343EA024347F8AB
:1033F000383009E7E00700F18181210600F1F28110
:10340000A20706D51F4A204913780220DBB21370A9
:103410000870E30602D51C4B10221A7007B0BDE8F5
:10342000F08F04228A55DAE705228A55D7E703226E
:103430008A55D4E70080FF1FAC93FF1F5893FF1FEE
:10344000FC95FF1FC8004000880040003494FF1F17
:10345000BD93FF1F3C94FF1F2094FF1F5493FF1F39
:10346000BC93FF1FC02007402C94FF1F6893FF1FD1
:103470002894FF1F98200740942007400094FF1FC6
:103480003894FF1F88200740802007409020074085
:1034900042F22100814200F02A8100F2D880B1F589
:1034A000086F00F07682B1F5106F40F01882226A42
:1034B000B349A8780870120600F13A83D9F8282099
:1034C000B049130600F10C83D9F83020AD49150638
:1034D00000F10183D9F83820AA49140600F1F682D8
:1034E000D9F84020A749100600F14A83D9F84820AE
:1034F000A449120600F13F83D9F85020A1491306D0
:1035000000F13483D9F858209E49150600F129832B
:10351000D9F860209B49140600F11E83D9F8682071
:103520009849100600F11383D9F8702095491206C6
:1035300000F10883D9F878209249130600F1FD8242
:10354000D9F880208F49150600F13183D9F88820F9
:103550008C49140600F12583D9F89020894910067A
:1035600000F11983D9F898208649120600F10D83DD
:103570008548864A864901908648874D874C04973E
:1035800000230596029580460F4616461D46039475
:10359000306828B1446800F0E1FB2046002CF9D1E6
:1035A00000233360029B38681A46002342F8253016
:1035B00028B1446800F0D2FB2046002CF9D100224B
:1035C0003A60019A98F800301146002241F8042B25
:1035D000039A0191023B4FF0000122F81510032BD2
:1035E00000F22B81DFE813F0700125017001250145
:1035F000BEF1400F18BF0022B5E6694A0D78487841
:10360000157050708D78C8789570D07010680D79ED
:10361000157186284D7989795571917100F09B81DA
:103620006049614E0A78307882F00105002842F046
:1036300002020D700CBF8821C82149F8321009EB35
:10364000C20280F001000021307051609EE642F21B
:103650002120814240F0CB81544B554C5549A878EC
:103660001D682560CDF804E00870002002908046B7
:10367000844604464B490D7845F0020E09EBCE0313
:103680000393019B002B039B5C600CBF8824C82420
:1036900044EA080385F0010449F83E3032700C70AA
:1036A000DFF8E0E0404BDFF8FC80002840F01E81AE
:1036B000BCF1400F1BD144F0020C09EBCC03029C7F
:1036C000DFF8C0E05C60002A40F02681020442F08E
:1036D00088029DF804304EF83C20044433700D708D
:1036E0002346402803D10020334A3B601080334AF0
:1036F000012313704DE600F09DFCA5E5214B2F48FA
:1037000028491A614FF0020E80F800E02C4F0A7031
:103710002C49196099602C4E2C4D2D4C9A610D212D
:103720003970FF213170DFF8B8E029702270294D1F
:10373000294A8EF800109F27012406F8047C5D605A
:103740000470DA6007B0BDE8F08F244A47F838000B
:1037500013780133137057E543F826000E4D3AE510
:103760008B5D032B00F2F08001A252F823F000BF22
:1037700009320000093200002D380000273800000F
:103780003494FF1F0080FF1F1094FF1FAC93FF1F96
:103790000094FF1F3894FF1F5893FF1FFC95FF1FD5
:1037A0000496FF1F2894FF1FBC93FF1F5093FF1F19
:1037B0000C96FF1F4C94FF1F6893FF1F9420074037
:1037C000C020074088004000882007408020074034
:1037D000982007406C93FF1FC093FF1F2994FF1F81
:1037E0008C200740C149C24B80220D2008701A70FE
:1037F000A2077FF50EAE05E640F20232914240F09C
:10380000EE80A98801F07F01042968D86A88002A1F
:1038100065D1B648CDF804E089000844017841F04C
:103820000201017021E701238B55EDE400238B5544
:10383000EAE44FF0010388F800300135042D06F169
:10384000040607F1040708F101087FF4A1AEA94CB2
:10385000A94B2278A94D049F059E002129701A705A
:10386000130700F105816278A549DFF8A0820A708C
:1038700010074FF00001C9F83010C9F8381000F1F6
:10388000E080A049A2780A700021C9F85010C9F858
:1038900058101107DFF8748200F10181E2789A492B
:1038A0009A4C0A7000211207C9F87010C9F87810F4
:1038B00000F1B08033780193002183F00102C9F850
:1038C0009010C9F89810D0E64FF0000388F8003047
:1038D000B3E7A98801F07F01042940F28D80834A73
:1038E0000F2313708A4A0123137052E540287FF694
:1038F000E2AE44F002040EEBC401029E4E60BAB187
:103900009DF80410834A19703346403888F80050F7
:1039100040334EF83420E7E69DF80430337002045B
:10392000029B0D7042F0C80203444EF83C20D8E6DA
:103930009DF804101970029B774A88F800504038AF
:1039400040334EF83420CFE619F0080F0CBF0223A5
:1039500003238B5558E4714A0F21117060E6704AB9
:103960005468002CBBD06888B5F804E003E00C3242
:103970005468002CB3D013888342F8D15388734520
:10398000F5D1000A03280CBF94F800E0B2F808E073
:1039900003E0644A644C12782270E888704580F035
:1039A0003F8162490D784028844645F0020E28BFC9
:1039B0004FF0400C04EB0C0309EBCE020293012301
:1039C0005460CCEB00004FEA0C4800220193C8245D
:1039D0005EE6554C4FF0020E22706270DDE7B1F5E5
:1039E000A06F7FF47CAF0123002201933DE642F2F9
:1039F00021329142F7D072E76A88002A7FF46FAFD4
:103A00003A48CDF804E089000844017821F0020129
:103A100001702AE600F082F9002800F0EF800830FB
:103A20003D4AC4F88400C4F8802000F077F90028EB
:103A300000F0DE800830374AC9F88C00C9F88820C9
:103A400038E700F06BF9002800F0C0800830324AF7
:103A5000C8F84400C8F8402000F060F9002800F0E1
:103A6000AF8008302B4AC9F84C00C9F8482008E755
:103A700000F054F9002800F0CD800830264AC9F83B
:103A80002400C9F8202000F049F9002800F0BC808B
:103A90000830204AC9F82C00C9F82820E3E600F0D5
:103AA0003DF9002800F09E8008301B4AC8F86400E9
:103AB000C8F8602000F032F9002800F08D8008304E
:103AC000144AC9F86C00C9F86820E7E6C86B0838E2
:103AD00000F044F904E5486B083800F03FF9F9E4D8
:103AE000C86A083800F03AF9EEE400BFC020074089
:103AF0008020074028690000C42007402994FF1F48
:103B0000C8200740CC200740D02007400080FF1F7E
:103B100094200740C800400088004000BD93FF1F6C
:103B20002C6900003494FF1F2C94FF1F2894FF1F62
:103B3000606A083800F012F9C0E4C86F083800F075
:103B40000DF9FDE4486F083800F008F9F2E4C86E9A
:103B5000083800F003F9E7E4486E083800F0FEF892
:103B6000DCE4C86D083800F0F9F8D1E4486D083895
:103B700000F0F4F8C6E4C86C083800F0EFF8BBE4D5
:103B8000486C083800F0EAF8B0E4D1F89C00083836
:103B900000F0E4F8ECE4D1F89400083800F0DEF826
:103BA000E0E4D1F88C00083800F0D8F8D4E4D1F87B
:103BB0008400083800F0D2F8C8E44FF0020EECE6BA
:103BC0002A78C9F8480001322A705AE62A78C8F8DB
:103BD000400001322A703FE72A78C9F868000132B4
:103BE0002A705BE62A78C8F8600001322A7061E723
:103BF0002A78C9F8880001322A705BE62A78C4F86E
:103C0000800001322A7010E72A78C9F828000132B2
:103C10002A7028E62A78C9F8200001322A7032E793
:103C2000BEF1400FF44628BF4FF0400C04EB0C03EC
:103C300002930123CCEB0E004FEA0C4800220193C3
:103C400018E500BFF8B500F0A5FD294B29482A4C1E
:103C50002A4F2B4DDFF8BCC0DFF8BCE0294E002214
:103C60001A605A609A60DA601A615A619A61DA6180
:103C70001A625A629A62DA621A635A639A63DA6360
:103C80001A645A649A64DA641A655A659A65DA6540
:103C90001A665A669A66DA661A675A679A67DA6720
:103CA000C3F880200168C3F8842041F480210160BA
:103CB000C3F307212170C3F30740134938701B0E6B
:103CC0002B70FF238CF80030104D8EF80030104818
:103CD0000B700123337084F8642070264FF4007455
:103CE000102207F82C3C2E70046081F8F820F8BDF3
:103CF0000080FF1F348004409C200740B020074014
:103D0000B4200740942007401020074049E400E019
:103D100008E100E0802007408820074072B60D4887
:103D20000268B2FA82F30B2B10DC4FF00041D9404D
:103D300022EA0102026062B6074803EBC303DB001C
:103D4000C2180021C15010465160704762B6002071
:103D5000704700BF2887FF1FBC83FF1F0D4B0E4A13
:103D6000C31AA2FB03231B090B2B0CD80B4A127896
:103D700052B972B60A484FF00041026821FA03F3C3
:103D80001A43026062B67047064A1278002AF0D0E1
:103D9000FFF74AB9BC83FF1F398EE3382994FF1F10
:103DA0002887FF1F3494FF1F38B50F4D286878B15E
:103DB00043880288C118013393420C7A02D24380AF
:103DC000204638BDFFF7CAFF002320462B6038BDD0
:103DD000064B1B782BB10320FFF7F2F82860002870
:103DE000E6D14FF0FF3038BD4894FF1F3494FF1FD9
:103DF00010B5094C206818B143881844007A10BDEA
:103E0000064B1B782BB10320FFF7DAF8206000285F
:103E1000F2D14FF0FF3010BD4894FF1F3494FF1FC4
:103E2000044B054A1B6890881BB11A885B88D31A1B
:103E3000184470474894FF1FFC95FF1F0B4B1B78DD
:103E40009BB110B50A4C206848B1FFF787FF0023EB
:103E500003202360FFF7B4F830B1FFF77FFF0320A2
:103E6000FFF7AEF80028F8D110BD70473494FF1F5B
:103E70004894FF1F2DE9F04FDFF8F89083B001223E
:103E800089F80020019169B3DFF8EC80364F019E7C
:103E90008346D8F80000B0B3344D4488C4F14001E3
:103EA000B14228BF314604EB010E00221FFA8EFEFC
:103EB0002A70761AA0F802E000F1080251B1013C24
:103EC000224459441BF8014B02F8014F8B45F9D1AC
:103ED000B0F802E0BEF13F0F0BD8254A0521117062
:103EE000002ED6D10198002389F8003003B0BDE838
:103EF000F08F4022028001460420FFF7F9F80022EB
:103F0000C8F80020E9E73A782AB3184D4AF2F924B4
:103F10004FF0010A07E0013C16D02A78A2B900F060
:103F20001DFA3A78BAB10420FFF768F80728F2D8EA
:103F300089F800A0FFF7F2FEC8F800000028ACD115
:103F40000C4B013C1870E8D101234FF0FF302B706F
:103F500003B0BDE8F08F00234FF0FF3089F8003048
:103F600003B0BDE8F08F00BF3494FF1F4494FF1FDF
:103F70003C94FF1F3D94FF1F4094FF1F00B583B08A
:103F800002AB012103F8010D1846FFF773FF03B0E0
:103F90005DF804FB38B50E4D0E4C286801232370E4
:103FA00028B1408800232370C0F1400038BD0A4B7F
:103FB0001B7813B90020207038BD0420FFF71EF8CD
:103FC0000728F7D8FFF7AAFE28600028E9D1F1E713
:103FD0004094FF1F3D94FF1F3494FF1FF8B5114B11
:103FE0001B788BB1104E114D346801272F7064B1CE
:103FF0000F4A638800271770214623800420FFF7AB
:1040000077F8376000232B70F8BDFFF787FE084B69
:1040100028B1014604201C70FFF76AF8F2E71F7010
:10402000F0E700BF3494FF1F4094FF1F3D94FF1F33
:104030003C94FF1F38B50E4B1B7873B90D4C2168AB
:1040400061B103F0FF054B880B800420FFF750F8A7
:10405000256038BD084B01221A7038BDFFF75EFE9F
:104060000028F7D00146BDE838400420FFF740B8EB
:104070003D94FF1F4094FF1F3C94FF1F10B4EFF3CB
:10408000108272B6437F33B9017F012907D003291B
:104090000FD00123437702B962B610BC7047124CAF
:1040A0002168A1B1114943610B68836108605861BF
:1040B000EFE70F4C216881B10E4943610B688361C2
:1040C000086058610C4B4FF080511960E1E7074BD5
:1040D0004161816120601860DBE7064B41618161CD
:1040E00020601860EEE700BF6094FF1F5C94FF1F24
:1040F0005094FF1F5494FF1F04ED00E010B4047FA0
:104100004160022CC26002D010BCFFF7B7BF8368C9
:1041100010BC184770B5EFF3108272B60C4C2068D3
:1041200080B10C4E00254369236073B19D6102B9D3
:1041300062B6457783689847EFF3108272B62068BD
:104140000028F0D102B962B670BD3360EFE700BF5E
:104150005094FF1F5494FF1FFFF7DCBF184A30B480
:104160001468002C27D0036821688B420ED2CB1A2A
:1041700000218460C1602360E06010600223037549
:1041800030BC704711688B42144608D3A2685B1A92
:104190000360002AF6D18260C460A060EEE7D268B6
:1041A000C2608460E060C568CB1A0222A860236008
:1041B000027530BC70478460C4601060DEE700BFE9
:1041C0005894FF1FF8B5224E34682CB32368002B97
:1041D0003AD1204F1D4604E03468ECB12368002B2F
:1041E00032D1A36803B1DD602069336003682575AF
:1041F0001B68BB4221D1037F4560022BC46020D0E5
:10420000FFF73CFF6368002BE6D023602046FFF7F2
:10421000A5FF3468002CE1D1EFF3108372B60E4A8B
:1042200000211068116003B962B628B18468FFF7F5
:1042300095FF20460028F9D1F8BD22460021984775
:10424000E0E783689847DDE7013B2360E4E700BFD0
:104250005894FF1FFD4000006894FF1F024A136836
:1042600001331360FFF7AEBF5093FF1F08B5FDF792
:1042700003FBFDF7E7FB00F071F8FAE700B5064A2B
:10428000036812885B6883B001A9ADF8042002229C
:10429000984703B05DF804FBFC680000F0B50746E2
:1042A0008BB0002A33D0012A08BF0A2251B321243F
:1042B00000E0F4B2B1FBF2F502FB1511C8B2092916
:1042C00000F1300198BFC8B20AA988BF3730214435
:1042D00088BFC0B201F8240C661E2946002DE8D123
:1042E00033B1013CE4B20AAB23442D2203F8242C61
:1042F0003B6801AA11195B683846C4F1220298474D
:104300000BB0F0BD30228DF825202124E8E70368AA
:10431000C9B21B6898470BB0F0BD00BF0029BABFF7
:1043200049422D2300230A22FFF7B8BF816070475E
:10433000FFF784BDFFF75CBDFFF736BDFFF770BD2B
:10434000FFF74CBEFFF726BE08461146FFF792BDA9
:104350000846FFF713BE00BF704700BF38B5224CB8
:10436000237803B138BD01232370FFF759FD70BBDB
:1043700000F068F840BB00F0FBF810BB00F08EF9CD
:10438000E0B900232370EFF30583002BEAD1EFF3AC
:10439000108172B6154B1868E0B1154C2278CAB975
:1043A00045691D6001232370C5B1AA6101B962B6D8
:1043B00000254577836898472570D3E700F030FAE9
:1043C000DFE700F02BFAD9E700F026FAD3E7FFF792
:1043D000C3FFCDE70029C5D162B638BD054B1D60CE
:1043E0000029E5D1E3E700BF6C94FF1F6094FF1F35
:1043F0006494FF1F5C94FF1FF0B44D1E2E460024F2
:1044000000E00134B0FBF2F302FB1300092800F1D5
:1044100030078ABF3730F8B2C0B206F8010F18462D
:10442000002BEED10A1953704CB1107815F8016FBA
:1044300028700133E01A834202F80169F5DB08466F
:10444000F0BC7047054A064B10781B78C0B2DBB24F
:10445000984238BF4030C01A704700BF7494FF1FA5
:104460007594FF1FF0B4384B1A7912F0300F2CD02E
:1044700072B6997D01F0FF0200293DD062B6334F3C
:10448000334938780D78334E1C46C0B2EDB2431C28
:10449000402BE17928BF0023AB4202F1FF32C9B2C1
:1044A0001CBFF154184612F0FF02F0D12A4B1B68D2
:1044B000C2B23A704BB1A84236BFC5F14005401BAD
:1044C00040192728C4BF01221A701F49CA78D2B2E6
:1044D000150616D452060DD51B4B1B795B0609D564
:1044E0001E4B1F491B6800220A7003B11A70164B3D
:1044F0003C22DA70F0BC70474022D9795A7462B617
:10450000E3E70B791C06E5D5164B174E1C7833787C
:10451000E4B2DBB29C420ED0144D01E0A3420AD0BB
:104520000133402B28BF00230879E85CC0B2C87172
:10453000087D0728F2D9DBB2034933700B791806DE
:1045400044BF7C23CB70C5E700A006407494FF1FD6
:104550007594FF1FB894FF1F7094FF1FFC94FF1FFA
:10456000F894FF1F0095FF1FF994FF1F7894FF1F19
:10457000054A064B10781B78C0B2DBB2984238BFB0
:104580004030C01A704700BF7495FF1F0995FF1F88
:10459000F0B4384B1A7912F0300F2CD072B6997DE6
:1045A00001F0FF0200293DD062B6334F334938781D
:1045B0000D78334E1C46C0B2EDB2431C402BE1795E
:1045C00028BF0023AB4202F1FF32C9B21CBFF15435
:1045D000184612F0FF02F0D12A4B1B68C2B23A70A3
:1045E0004BB1A84236BFC5F14005401B40192728F2
:1045F000C4BF01221A701F49CA78D2B2150616D458
:1046000052060DD51B4B1B795B0609D51E4B1F4966
:104610001B6800220A7003B11A70164B3C22DA7034
:10462000F0BC70474022D9795A7462B6E3E70B793F
:104630001C06E5D5164B174E1C783378E4B2DBB276
:104640009C420ED0144D01E0A3420AD00133282B26
:1046500028BF00230879E85CC0B2C871087D07282C
:10466000F2D9DBB2034933700B79180644BF7C23BF
:10467000CB70C5E700B006407495FF1F0995FF1F7A
:104680003495FF1F0495FF1F7895FF1F0895FF1FA6
:104690007C95FF1F7595FF1F0C95FF1F054A064B64
:1046A00010781B78C0B2DBB2984238BF4030C01AD5
:1046B000704700BF8495FF1F8595FF1F30B42B4BBB
:1046C0001A7994061FD52A48DA79037829490133E3
:1046D0003F2B0978C8BF00238B42D2B203D0264CAF
:1046E000D9B2E2540170254A116861B1244A1278A6
:1046F000D2B2934236BFC2F140029B1A9B18272BBD
:10470000C4BF01230B70194AD378DBB2180611D449
:104710005A060DD5154B1B795B0609D5194B1A495D
:104720001B6800220A7003B11A70104B2C22DA7039
:1047300030BC704711790906EAD5144910480C7845
:104740000178C9B28C420DD04A1C272A84BF0021AF
:104750000A460F4D054C98BFD1B2AA5CD2B2E271A5
:104760000170D5E76C21D170D2E700BF00C00640D0
:104770008495FF1F8595FF1FB095FF1F8095FF1F34
:10478000F195FF1FF495FF1FF095FF1FF895FF1F90
:104790008895FF1F70B584B072B6194B194D1A4831
:1047A000702241260F2480211A702E701A46047040
:1047B000197013781B06FCD5144B186862B6144B9D
:1047C000144C984298BF00EB800001A998BF4000AC
:1047D0000A22FFF711FE01A92046002311F8012B40
:1047E00001333AB10A2B20F8022FF7D11623237098
:1047F00004B070BD5B00DBB2237004B070BD00BFBD
:10480000000002400700024006000240080002408B
:104810007F969800C887FF1F704700BF704700BF92
:10482000704700BF70B50F4E0F4D761BB61018BF06
:10483000002405D0013455F8043B9847A642F9D12D
:104840000A4E0B4D761B02F09BF8B61018BF0024E1
:1048500006D0013455F8043B9847A642F9D170BD03
:1048600070BD00BF8C6900008C690000A069000069
:104870008C69000070B4840746D0541E002A41D0D1
:10488000CDB2034602E0621EE4B3144603F8015BB6
:104890009A07F8D1032C2ED9CDB245EA05250F2C65
:1048A00045EA054519D903F110022646103E0F2EA0
:1048B00042F8105C42F80C5C42F8085C42F8045C78
:1048C00002F11002F2D8A4F1100222F00F0204F05B
:1048D0000F041032032C13440DD91E462246043A0D
:1048E000032A46F8045BFAD8221F22F0030204329E
:1048F000134404F003042CB1C9B21C4403F8011B97
:10490000A342FBD170BC704714460346C2E700BF08
:1049100010B40C4B0C4C19680C4AD1F8A830D1F8E3
:10492000AC0004FB03F402FB0040A3FB022303449E
:10493000013243F10003C1E92A2323F0004010BCF7
:10494000704700BF088CFF1F2DF451582D7F954CE8
:10495000024B13B10248FDF7C7BD704700000000CD
:104960006549000038B5074D074C2C1BA41005D035
:10497000013C55F8043D9847002CF9D1BDE838407A
:1049800002F00EB80000000000000000000000006F
:10499000000000008D060000C90500009104000021
:1049A000CD0400006D0400007104000051070000F8
:1049B00000010209040102090801020A0D01020BAB
:1049C0001101020B1501030D1A01030F1E01031043
:1049D00023010412270104132B01041530010517CC
:1049E0003401051B390106203D010726410109312B
:1049F00046010B3D4A0111504F01176753011F87B4
:104A000057022AAC5C0430BE600936D2650B37D63B
:104A1000690D3ADD6D103CDB72133ED8761842D238
:104A20007B1E45C97F2346B4832746A28840549005
:104A30008C6161809194797B95D2927799B87A5CF8
:104A40009E9F6445A2854421A76E2A0BAB9835062C
:104A5000AFCB4103B4DE6305B8F28E07BDDE7A0545
:104A6000C1CB6903C5D04901CAD23001CEDE2D01C8
:104A7000D3EA2A01D7961701DB560A01E023030186
:104A8000E4090101E9040101ED010101F101010164
:104A9000F6010101FA010101FF0101010042BAC062
:104AA0002B0116474F02688E7542BAC09302688E7A
:104AB000BA011647E002688EFF041B1C00010500C6
:104AC0001320170126A137013FE5900142278E4AA6
:104AD000FF01040100D032017F921B2DFF610CB257
:104AE0000008000401080004020C00080310000C78
:104AF0000414000C0514001006180010071C001404
:104B0000091C00140A2000180B2400180C24001C97
:104B10000D28001C0E2C00200F300024103400241F
:104B200011380028123C002C143C002C1540003099
:104B30001644003417480034184C0038194C043817
:104B40001A50043C1B54043C1C5804401D5C044493
:104B50001E6008481F60084C205C0850215808540B
:104B60002254085C2354086024500868254C086CC3
:104B700026480870274808782844087C294008847B
:104B80002A3C08882B3C08902C3808942D3408982F
:104B90002E3008A02F3004A4302C04AC312804B0EF
:104BA000322404B4332404BC342004C0351C04C8AB
:104BB000361804CC371804D4381404D8391004DC5F
:104BC0003A0C04E43B0C04E83C0804F03D0404F413
:104BD0003E0000FC3F0004F840000CF4410014F0DB
:104BE00042001CEC430024E844002CE4450034E07F
:104BF00046003CDC470044D848004CD4490054D01F
:104C00004A005CCC4B0064C84C006CC44D0074C0BE
:104C10004E007CBC4F0084B850008CB4510094B05E
:104C200052009CAC5300A4A85400ACA45500B4A0FE
:104C30005600BC9C5700C4985800CC945900D4909E
:104C40005A00DC8C5B00E4885C00EC845D00E87C4E
:104C50005E00E0785F00DC706000D8686100D060C2
:104C60006200C85C6300C0586400B8506500AC4C7A
:104C70006600A44467009C406800943869008C3446
:104C80006A00802C6B0078286C0070206D00681C16
:104C90006E005C146F00541070004C0871004000EE
:104CA00072003C007300380074003400750030005E
:104CB00076002C007700280078002400790420007A
:104CC0007A041C007B0418007C0414007D0410008E
:104CD0007E040C007F0408008004040081080004A6
:104CE000820C00088310000C8414000C8514001042
:104CF00086180010871C00148820001489200018D2
:104D00008A2400188B28001C8C2C00208D30002455
:104D10008E3404248F38042891380428923C042CC3
:104D20009340043094440430954404349648043449
:104D3000974C0438985004389950043C9A54043CD9
:104D40009B5804409C5C04449D6008489E60084C4D
:104D50009F680848A0700844A17C0840A284083CD1
:104D6000A3900834A4980830A5A4082CA6AC082861
:104D7000A7B40424A8C00420A9C8041CAAD40414FD
:104D8000ABDC0410ACE8040CADF00408AEFC000091
:104D9000AFFC0800B0FC1400B1FC1C00B2FC280001
:104DA000B3FC3000B4FC3C00B5FC4400B6FC500041
:104DB000B7FC5800B8FC6400B9FC6C00BAFC780081
:104DC000BBFC8400BCFC8C00BDFC9800BEFCA000B9
:104DD000BFFCAC00C0FCB400C1FCC000C2FCC800F9
:104DE000C3FCD400C4FCDC00C5FCE800C6FCF00039
:104DF000C7FCFC00C8FCF000C9FCE800CAFCDC00F1
:104E0000CBFCD000CCFCC400CDFCBC00CEFCB00080
:104E1000CFFCA400D0FC9800D1FC9000D2FC840010
:104E2000D3FC7800D4FC7000D5FC6400D6FC58009C
:104E3000D7FC4C00D8FC4400D9FC3800DAFC2C002C
:104E4000DBFC2000DCFC1800DDFC0C00DEFC0000BC
:104E5000DFF40004E0EC0008E1E0000CE2D8001010
:104E6000E3CC0018E4C4001CE5B80020E6B004243C
:104E7000E7A80428E89C042CE9940430EA88043864
:104E8000EB80043CEC740440ED6C0444EE60084C90
:104E9000EF5C0848F0540844F1500840F2480838E4
:104EA000F3440434F43C0430F538042CF630042880
:104EB000F72C0420F824041CF9200418FA18041410
:104EC000FB140010FC0C0008FD000000FE040004B0
:104ED000FF04000400FFFFFF1E01901D47E5F60CD4
:104EE00077FF0108A5B801CBD6031CFAFF0000002C
:104EF00000000000250219014C0F73057F4FD501FA
:104F0000807ED32F82BCD1F79990B6CDCC3B75FA79
:104F1000FF0125C000000000540A11FF54001100D9
:104F2000A90AFF0CA90A0000FFFF110C0000F918E4
:104F3000FB301C47825A6D6A4176897D0000000073
:104F40000201010105010101070101010A0101013D
:104F50000C0101010F010101110101011401010105
:104F600016010101190101011B0101011E010101CD
:104F7000200102012301020125010201280203028E
:104F80002A0203022D0203022F0304033203040347
:104F900035040504370405043A0505053C060606F4
:104FA0003F0606064107070744080708460908099F
:104FB0004909080A4B0A080B4E0B090D500C090E43
:104FC000530D090F550E0A10580E0A1185110E3394
:104FD00088100E348A0F0E378D0E0E398F0D0E3D50
:104FE000920C0E3F950C0E42970A0D459A0A0D48F9
:104FF0009C090D4B9F080D4EA1070E52A40710549B
:10500000A6071158A907135BAB07155FAE07166219
:10501000B0071966B3061B69B5061D6DB80620708A
:10502000BA072575BD082A78BF092F7DC20A3680C8
:10503000C40B3B84C70C4289C90E498CCC105091DB
:10504000CE125795D0145F99D316679ED5186FA2CC
:10505000D81B77A8DA1E80ACDD208AB0DF2393B698
:10506000E2279CBAE42AA6C0E72EB0C5E934B6C947
:10507000EB3ABBCFEE41C1D4F049C7DBF250CDDFF4
:10508000F55AD5E6F764DBEBFA6DE1F2FC78E7F769
:10509000FF84EDFF0000127B3F004B1D7F00B2013B
:1050A000BF1B3001FFA701020001012E1C4F88BE6B
:1050B000351051B8494F88BE634BC9E97C060C676F
:1050C0009E4BC9E9BA546D6CC61051B8E84F88BE02
:1050D000FF01012E00715B93489D584E59D0552118
:1050E0006BFF1D0B8D891F27FF3B2159000000001E
:1050F0000201010104010101070101010A0101018D
:105100000C0101010F010101110101011401010153
:1051100016010101190101011B0101011E0102011A
:1051200020010201230103012501030128010401DB
:105130002A0105012D0105012F0106013201070198
:105140003401080137010801390109023C010A0252
:105150003E010B0341010C0443010D0546010E07FE
:10516000480110074B0111084D01120850011308A6
:1051700052011509550116095701180982013A080B
:1051800085013C0787013F078A0142068D014506DC
:105190008F01470592014A0594014E04970150047E
:1051A000990154039C0156039E015A02A1015C021D
:1051B000A3016001A6016301A8016701AB016901B8
:1051C000AD026D01B0027001B3037501B503770143
:1051D000B8047C01BA058001BD058301BF068801C2
:1051E000C2078B01C4099001C70A9301C90B98013A
:1051F000CC0D9C01CE0FA101D111A401D313A901A3
:10520000D616AD01D918B201DB1BB801DE1FBB01F8
:10521000E023C101E327C501E52CCB01E831CF0133
:10522000EA36D501ED3CD901EF43DF01F24AE30153
:10523000F452E901F75BED01F964F401FC6EF80149
:10524000FF79FF00000F60874E28574A66535022AF
:105250007271471D7F963F198F3C4F42B60F608792
:10526000DF0F6087FF0F6087000000003F0000FF36
:105270007FFF0000BFFFFF00FFFFFFFF00E5010110
:105280003DF2043F65FF0CFF7FF951FC99FF0BEBEA
:10529000C1F40544FFE80105004300470245014110
:1052A0000548013B074A01350A4D01300C4E012BE0
:1052B0000F500126115301221456011D16580119D1
:1052C000195B01161B5E01121E61010F2062010CA9
:1052D0002365010A25680107286B01052A6E010470
:1052E0002D7101022F75010132780101357901011B
:1052F000377D01013A8001013C8403013F870501AC
:10530000418B0801448E0C0146900E01499010011A
:105310004B9211014E9413015094160153961701AC
:1053200055981A0183AF580185B15D0188B36301B7
:105330008AB368018DB66C018FB8720192B877019B
:1053400094BA7D0197BC83019ABC8A019CBE9001EE
:105350009FC09701A1C09D01A4C2A401A6C5AB0135
:10536000A9C7B201ABC7BA01AEC9C101B0CBC9026E
:10537000B3CBD102B5C9D502B8C5D702BABED702E0
:10538000BDB8D902BFB3DB02C2ADDB02C4A7DD02E8
:10539000C7A1DF02C99DDF02CC98E102CF92E302F0
:1053A000D18EE502D489E502D684E703D97EE903EC
:1053B000DB79E903DE76EB03E071ED03E36DED03EA
:1053C000E568EF03E865F103EA61F103ED5CF403DE
:1053D000EF58F603F254F804F450F804F74EFA04C8
:1053E000F94AFC04FC47FC04FF43FF0400000000F2
:1053F00063E3010182F9C75F9BE30101FF00000045
:10540000001A01013343040154760E01688998346F
:10541000707141017A85953B7C899834877141018F
:105420008E8B9A2EA3710D01CC370301F911010166
:10543000FF110101004B01DD1EFC49FF30A900F204
:10544000770095F2AA2B00F2CEFC49FFE84E0CD66D
:10545000FF0095F200000000400000FFC800FFFFC1
:10546000FFFFFFFF00000000020101010501010133
:10547000070101010A0101010C0101010F010101F4
:1054800011010101140101011601010119010101BC
:105490001B0101011E010101200102012301020182
:1054A00025010202280203022A0203022D0203033D
:1054B0002F030403320304043503040537040505F0
:1054C0003A0405063C0405073F05060741050608A2
:1054D000440507094605070A4906080B4B06080C50
:1054E0004E06080D5006090E5306090F5506091001
:1054F000830734308507393388073F348A074334BC
:105500008D0745328F07483092074A2E94074E2B5D
:10551000970650299A0654259C0657229F065A1F23
:10552000A1065D1CA4056019A6056416A9056712ED
:10553000AB056B0FAE056D0DB005720AB3047507B0
:10554000B5047905B8057C05BA078004BD09830454
:10555000BF0C8804C2108B04C4149003C7199303B2
:10556000C91E9803CC269D03CF2EA102D137A602D7
:10557000D443A902D650AF02D95FB201DB71B801A2
:10558000DE85BB01E09DC101E3B8C501E5C2B801FC
:10559000E8C7A801EACE9801EDD28701EFD97701DB
:1055A000F2DE6701F4E55801F7EA4901F9F23B013F
:1055B000FCF72F01FFFF24010000FFFF3F2A37FF08
:1055C0007FFF00FFBF2A00FFFF0000FF002B0399B1
:1055D0003F6404677FBC0542BFA10B73FF8714B60D
:1055E00000649C99330163896501445468238EA843
:1055F000B2003F75FF010A0A000000004214042DAA
:10560000847914FFB4B349FFE4FFA4FFF1FFCFFF97
:10561000FFFFFFFFF8570000085800003466000045
:105620002C5B00007C5200009C5A0000E0550000FA
:10563000C45C0000F04E0000BC4A0000145F000093
:10564000085D0000885C000090660000D4500000F7
:10565000CC550000B45A0000B05B0000105B0000A5
:105660000064000088640000385C00000054000002
:10567000A85C0000885A000034670000205D00002C
:10568000506400007063000034540000705D00003E
:10569000EC530000C0630000B45700002C58000019
:1056A000E45B0000D45C0000D44E0000345D0000D8
:1056B000C46400002C640000D44A00003C65000073
:1056C000144F0000C0650000685200005C630000D9
:1056D00048650000E04A0000305F0000885E00007E
:1056E000A4640000AC660000405B0000405D000068
:1056F000245C000094500000DC650000646400003D
:10570000C45A000018650000F8550000F45A000063
:105710008C5D00003C4F00003063000064540000CA
:10572000EC50000098520000A05B0000545C0000A8
:1057300088570000685E0000985B0000685C00000D
:10574000DC630000A4630000FC5E0000486600000B
:105750009C4A0000E46300004C630000085C000009
:10576000A8500000B049000044520000B8550000A5
:1057700028670000A057000054540000785C000027
:1057800060660000D057000000FF9C007F00C3123D
:10579000D8010027FF01002731302C261F170E04E7
:1057A00000711C913FEA00D97F0ABDC6BF133E7C41
:1057B000FF09183300000C003D99EF707F000C00CA
:1057C000A56AEF02C4A7E547E56AEF02FF000C00F7
:1057D00000C950AD19AB399B326823734B5E216E03
:1057E000647F78AC7D4D8DA9A07455B2AA141B734B
:1057F000C84B1549FF2C092A00C201015E011D1288
:105800008439831CFF7101010004011F1F3701103F
:105810003FC503075F3B02117F0602229F27062137
:10582000BF700D20DF380923FF1606260000000890
:105830002D00002D4F070CFF772A37FF9E070CFF26
:10584000D100002DFF0000083D3D3D3D3D3D3D3D6B
:105850003D3D3D3D3D3D3D3D3D3D3D3D3D3D0000F2
:105860004C45442041727261793A2020202020204A
:10587000202020202020000043555252454E540045
:105880004E455854000000004272696768746E65A6
:1058900073733A2020202020202020202020000088
:1058A00064656C61795F74696D653A202020202001
:1058B00020202020202000007573655F70616C65DA
:1058C0007474653A20202020202020202020000011
:1058D0007573655F66756C6C5F72616E67653A20A3
:1058E0002020202020200000746869735F646972A2
:1058F0003A202020202020202020202020200000CE
:105900006D6F64655F6E756D6265723A2020000090
:105910006D6F64655F696E697469616C697A6564ED
:105920003A202020202000003D3D3D4A5547474C6D
:1059300045205641524941424C45533D3D3D0000B2
:10594000696E6465783A20202020202020202000E5
:105950006E756D646F74733A202020202020200023
:10596000626561743A202020202020202020200021
:10597000666164653A20202020202020202020001D
:10598000646966663A202020202020202020200004
:10599000696E6465785F72657365743A20202000D3
:1059A0003D3D3D5241494E424F57204D41524348A3
:1059B0003D3D3D00696E6465783A2020202020003E
:1059C000646966663A20202020202000726F743AB5
:1059D00020202020202020003D3D3D5241494E42C4
:1059E0004F57204D415243482053504C49543D3D60
:1059F0003D0000004A5547474C4520494E49542038
:105A0000424547494E0000004A5547474C4520490A
:105A10004E495420434F4D504C4554450000000022
:105A20005241494E424F57204D4152434820494E22
:105A3000495420424547494E000000005241494E1A
:105A4000424F57204D4152434820494E495420432C
:105A50004F4D504C45544500564D4450565F317C97
:105A6000315F564D4450560A0000000044454255EF
:105A700047204F4E00000000534554555020434FDF
:105A80004D504C45544500FF000000003F2A002DBA
:105A90007FFF00FFBFFF002DFFFF00000028C7C5EC
:105AA000320A989B60016F78602B7FA28B0A496F46
:105AB000FF0122470061FF01652F8501B20D2B0117
:105AC000FF020A01000000FF0F00008B6F00008B37
:105AD0007F0000FF8F00008B9F87CEFAAF87CEFA42
