:1000000000800020BD010000951D00004D1D000076
:100010004D1D00004D1D00004D1D00004D1D000038
:100020004D1D00004D1D00004D1D0000951D0000E0
:10003000951D00004D1D0000C1310000C5320000BB
:10004000951D0000951D0000951D0000951D0000E8
:10005000951D0000951D0000951D0000951D0000D8
:10006000951D0000951D0000951D0000951D0000C8
:10007000951D0000951D0000951D0000951D0000B8
:10008000951D0000951D0000951D0000951D0000A8
:10009000951D0000951D0000951D0000951D000098
:1000A000951D0000951D0000951D0000951D000088
:1000B000951D0000951D0000951D0000951D000078
:1000C000951D0000951D0000951D0000951D000068
:1000D000951D0000951D0000951D0000951D000058
:1000E000951D0000951D0000951D0000951D000048
:1000F000951D0000BD340000951D0000E93500008D
:10010000951D000015370000951D0000951D00008D
:10011000951D0000951D0000951D0000951D000017
:10012000951D0000951D0000951D0000951D000007
:10013000951D0000951D0000951D0000951D0000F7
:10014000951D0000951D0000951D0000951D0000E7
:10015000951D0000951D0000951D0000951D0000D7
:10016000951D0000DD210000951D0000951D00007B
:10017000951D0000951D0000951D0000951D0000B7
:10018000951D0000951D0000951D0000951D0000A7
:10019000951D0000951D0000951D0000951D000097
:1001A000951D0000951D0000951D0000951D000087
:1001B000951D0000951D0000951D0000564B4CF24A
:1001C000205210B51A804DF628121A8000BF00BFC9
:1001D00001F0E4FD514B4FF010621A60504A9A60F2
:1001E000504ADA60504A136813F4807304D14F49BF
:1001F0000B604FF4A85313604D4B1A78110703D5C9
:100200001A7842F008021A704A4B4B492A221A7097
:100210004A4A4B4B8B4204D252F8040F43F8040B6A
:10022000F8E7484B484900228B4202D243F8042B9E
:10023000FAE74649464A002352F8230041F82300D2
:1002400001336F2BF8D1434B434A802103F8011B44
:100250009342FBD1414B3D4A1A60414B8A221A70AE
:10026000A3F5805324225A70A0221A709A7992071B
:10027000FCD59A79D406FCD43A4A937903F00C035E
:10028000082B384BF9D103221A7140225A719A79FE
:100290009006FCD5334A9179324B4906FBD5324A58
:1002A000324911600221516020221A709A7902F0BD
:1002B0000C020C2AFAD12E4B2E4A1A602E4B2F4AD2
:1002C0001A6000225A60072243F8042C2C4AC3F813
:1002D0000C2D62B601F038FE144B1B68DA0705D509
:1002E000284801F0A9FD284B284A1A60284B1B78A2
:1002F0005B0609D5244C254B22689A4204D121483B
:1003000001F09AFD0023236003F0B8FA01F04CFDE0
:1003100002F0E0FFFEE700BF0E2005403080044001
:10032000823F04000100002B10D0034014D0034092
:1003300002D0074000E007400C8CFF1F0C3D00007E
:100340002087FF1F0C8CFF1FF895FF1F0082FF1FE7
:100350000000000000E400E05FE400E008ED00E0E1
:100360000050064000400640448004400000030165
:1003700004800440C010050014E000E0FF76010096
:100380000000202039D4215E1CE00340A5C3945A0C
:1003900000F00740FFFFFFFFFFFFFFFFFFFFFFFF32
:1003A000FFFFFFFFFFFFFFFFFFFFFFFFFFFFFFFF5D
:1003B000FFFFFFFFFFFFFFFFFFFFFFFFFFFFFFFF4D
:1003C000FFFFFFFFFFFFFFFFFFFFFFFFFFFFFFFF3D
:1003D000FFFFFFFFFFFFFFFFFFFFFFFFFFFFFFFF2D
:1003E000FFFFFFFFFFFFFFFFFFFFFFFFFFFFFFFF1D
:1003F000FFFFFFFFFFFFFFFFFFFFFFFFFFFFFFFF0D
:10040000FFFFFFFFFFFFFFFFFFFFFFFFDEF9FFFF23
:1004100010B5054C237833B9044B13B10448AFF33E
:1004200000800123237010BD0C8CFF1F0000000012
:10043000103D0000084B10B51BB108490848AFF348
:1004400000800848036803B910BD074B002BFBD0A0
:10045000BDE81040184700BF00000000108CFF1FCF
:10046000103D00000C8CFF1F000000004069704729
:10047000002070474268017B13780B43137070476C
:100480004268017B137823EA01031370704700BFB1
:1004900008B50121072001F0E1FC01210E2001F047
:1004A000DDFC0B4A1368D90405D40A490A4843F411
:1004B00080531360C860074A136843F00043136019
:1004C000136823F4804323F00103136008BD00BFC9
:1004D0003C80044000C0024001000138F0B58BB000
:1004E000002305688DF804308DF805308DF806304E
:1004F0002E68374A8DF8083096428DF809308DF80D
:100500000A305FD1827C04910446012A01A805913A
:100510008DF81E308DF81F308DF82030039015D0E7
:100520008DF81D308DF81C308DF81B308DF81A3089
:100530008DF819308DF818300023AA698DF8213014
:100540002046099303A990470BB0F0BD214A1378C8
:10055000013303F0070313F0010F14BF80210021C2
:1005600013709A0744BF41F04001C9B25B0748BF0E
:1005700041F0200110310022C9B20DF11B030DF131
:100580001E074FF4807EAAB19EFBF2F2D2B2501C3D
:10059000C0B200FB01152D121870EEB205B1013E7C
:1005A00003F8036C00B11A7001339F4208D0DA7867
:1005B000002AE9D11A7003F8032C01339F42F6D1C7
:1005C0002568B9E70A4602AB01A9B0470BB0F0BDF8
:1005D000E1080000288CFF1F7D4B7E4A2DE9F04F7B
:1005E000DF68C7611B697C4E036233687B4D4362E1
:1005F0002B687B4C83622368C362804680691368E2
:10060000C8F8303083B050B10368764A1B68934213
:1006100040F053814268007B1378034313706C4BA6
:10062000DA68B2F1605F00F02B81694B1A685504FB
:1006300000F1308142F4804040F001004FF06055FD
:100640004FF0F0441860DD601C611A60624B614D30
:10065000634C624E5E484FF410721A604FF4A273FE
:1006600033602A6023600C7DCD7C91F812B0C26AA1
:10067000574B5704FBD472B64FF080525A63DA6A74
:1006800042F00042DA6262B6DA6A51485604FBD49C
:1006900072B64FF080534363C36A43F00043C362B2
:1006A00062B68B68002B5ADD0346681C0746601C47
:1006B00004460A68CDF804800BF1010B1846A246E7
:1006C0008C691519145DAE786A780AFB06F60BFB87
:1006D00004F4C6F3072607FB02F2241246F47F4611
:1006E0001512DA6A5204FCD472B646F080524263A4
:1006F000C26A42F00042C26262B62A0292B2224349
:1007000094B2DA6A5204FCD472B644F08052426366
:10071000C26A42F00042C26262B68C68009491F9EB
:1007200015200C6891F80C904E7B8D7B91F80FE0B2
:1007300091F8108091F811C02244009C0A60013C9D
:10074000C9EB0E0EC6EB0806C5EB0C05002C81F8B4
:100750000CE04E738D738C60B2DCDDF80480486869
:100760001B4A0028B8BF1F3040111146FF24D36A2E
:100770005E04FCD472B64C63CB6A43F00043CB6298
:1007800062B6D36A13F48043FBD172B64B63CB6A73
:1007900043F00043CB6262B6D36A13F48043FBD1CB
:1007A00072B64B63CB6A43F00043CB6262B6D36A46
:1007B00013F48043FBD172B64B63CB6A43F0004322
:1007C000CB6262B610F1FF30D1D2014A13E000BF14
:1007D00000C0024004C0044008C0044018B00440F7
:1007E00014B0044075040000D36A43F00043D362A0
:1007F000002362B643B972B6D36A13F4704FF3D1D3
:10080000012362B6002BF6D02F49CB6A2E4A002B6B
:10081000FBDAD36A2D4ED8F818002D4D2D4C2E49F9
:1008200043F01043D3624FF4A2733360D8F828200A
:100830002A602360D8F82C300B6050B10368274A37
:100840005B6893423DD14268017B137823EA010340
:1008500013701D4BD8F81C20D968D8F820008A42A4
:100860001FD0194B19684C0422D441F4804444F041
:1008700001041C60DA601861196003B0BDE8F08FF4
:100880001B69B3F1F04F3FF4E1AE0F4B1A6855040A
:100890007FF5D0AE4FF060504FF0F042D8601A6153
:1008A000D4E61B699842E8D0074B19684C04DCD5A4
:1008B000DA60186103B0BDE8F08F009198470099A5
:1008C000ADE69847C5E700BF00C0024008C004403D
:1008D00018B0044004C0044014B004408104000077
:1008E000F0B5857C1C785E789B7889B0012D0191EC
:1008F000029203928DF816408DF817608DF818302B
:1009000016D000238DF815308DF814308DF8133083
:100910008DF812308DF811308DF8103002680023F8
:1009200092698DF81930079301A9904709B0F0BD7D
:100930001B4A1378013303F0070313F0010F137000
:1009400014BF80220022990744BF42F04002D2B275
:100950005B0748BF42F020021032D2B20DF1130300
:100960000DF116074FF4807EACB19EFBF4F4E4B2B7
:10097000611CC9B201FB02252D121970EEB205B13E
:10098000013E03F8036C01B11C700133BB42C5D0BA
:10099000DC78002CE9D11C7003F8034CF5E700BFAC
:1009A000288CFF1FF0B5857C1C785E789B7889B019
:1009B000012D0191029203928DF816408DF8176077
:1009C0008DF8183017D000238DF815308DF81430BD
:1009D0008DF813308DF812308DF811308DF81030FD
:1009E0000368002203219B698DF81910079201A961
:1009F000984709B0F0BD1B4A1378013303F0070391
:100A000013F0010F137014BF80220022990744BF16
:100A100042F04002D2B25B0748BF42F020021032DF
:100A2000D2B20DF113030DF116074FF4807EACB175
:100A30009EFBF4F4E4B2611CC9B201FB02252D1245
:100A40001970EEB205B1013E03F8036C01B11C70E0
:100A50000133BB42C4D0DC78002CE9D11C7003F810
:100A6000034CF5E7288CFF1F2DE9F04F90F82A2260
:100A700089B00646002A00F0E48090F830E290F851
:100A80002E22BEF1000F02D0002386F82B329621D1
:100A9000304600F0E7FB96F82C32002B00F0CE80B9
:100AA00006F1E10496F82B22DFF860B2DFF860A2CD
:100AB0000394002706F5E2784FF48C795AE096F813
:100AC0002D123B440B44DBF800100691FF2B0699D6
:100AD0009CBF1B029BB209FB01F103FB01F31B0C42
:100AE0005D04C3F3CA0103D5C1F5FF61073189B2C3
:100AF000080A844C1AF8005034F81000C1F346017B
:100B000005FB01011C0489B248BF49420DB296F8A9
:100B1000241296F8C231009105A8414600F0E0FB8E
:100B2000A5F500439AB2972303FB02F31B0C03EBDA
:100B30004303F118F25C9DF8140082FA50F2F2546B
:100B40009DF815304A7882FA53F24A708B789DF8F6
:100B5000162083FA52F38B7096F82B1296F82F22F8
:100B600096F82C3201370A44FFB2D2B2BB4286F863
:100B70002B2263D996F826120029A0D196F82D12BF
:100B80003B440B44DBF800100791FF2B07999CBFF7
:100B90001B029BB209FB01F103FB01F3190C480492
:100BA000C1F3CA0303D5C3F5FF6307339BB2180A29
:100BB000544C1AF8005034F81000C3F3460305FBF8
:100BC000030309049BB248BF5B4296F824121DB28E
:100BD00005A896F8C2310091414600F081FBA5F5C9
:100BE00000434C229BB202FB03F31B0C03EB4303B9
:100BF000F118F25C9DF8140082FA50F2F2549DF85C
:100C000015304A7882FA53F24A708B789DF8162094
:100C100083FA52F3039C8B7032463346197882F87C
:100C2000DE10597882F8DF10997882F8E0100333EB
:100C30009C42A2F10302F1D103948DE709B0BDE813
:100C4000F08F314980F829220B8880F82B2203EBA2
:100C5000432203EB820202F55852193292B202EBA0
:100C6000422002EB800000F55850193080B200EBB2
:100C7000402300EB830303F5585319339BB203EB76
:100C8000432503EB850505F558551935ADB205EB40
:100C9000452703EB132305EB870702EB1224DBB296
:100CA00000EB102003EB830307F55857E4B2C2B200
:100CB00003EB8303193704EB440402EB4200BFB299
:100CC0009A11E41105EB15258311743A601CC5F3E4
:100CD000421507EB172E0833D2B2CEF3C01E6C1CA0
:100CE00086F82C02012086F82D3286F82E220F80FD
:100CF00086F830E286F82F4286F82A0286F8250226
:100D0000BFE600BF083A00002087FF1F3893FF1F8F
:100D1000183A0000F0B540F6B8318FB08D4800F0B9
:100D2000ABFD4FF461418B4800F0A2FD01218948E1
:100D300000F078FD002840F0FE8001220021854867
:100D400000F046FE40F2DC51834802F01BFB4FF4FA
:100D50007A7001F0ABF80821804802F0BFF87E48B5
:100D600002F0C0FA7E48036813F0010400F0C1806D
:100D70007C4E7D497D487E4C0023962200F038FB56
:100D8000B025FF23F022304602A98DF80A203370E7
:100D90008DF808308DF8095000F06AFB40F6B83144
:100DA000052000F021FD0A21724802F097F86A48F8
:100DB00002F098FA4FF497530220238000F048FF86
:100DC00025880023054401AA02A8102102AF25802E
:100DD0008DF804308DF805308DF8063000F00EFAED
:100DE0000FCF654C654D0FC40FCF0FC497E80F00B0
:100DF000A4F5F27784E80F00A4F5DA743B4655F8C1
:100E0000042F83F8F621110C120A83F8F41183F8E9
:100E1000F5210333A342F2D10A2300241D215848AF
:100E200087F8C33187F8294202F058F84A4802F09F
:100E300059FA21464B4800F02DFC3178494800F022
:100E40004FFB0521474800F0ADFBFF2502AA962184
:100E500045488DF809408DF80A408DF8085000F09B
:100E6000CDF931783F4800F03BFB4FF4FA713D4833
:100E700000F098FB02AA96213B488DF80A508DF8A5
:100E800008408DF8094000F0B9F93178354800F094
:100E900027FB4FF4FA71334800F084FB802302AA49
:100EA000962131488DF809308DF808408DF80A40B8
:100EB00000F0A4F931782B4800F012FB4FF4FA71DE
:100EC000284800F06FFB2146264800F0E3FB31780C
:100ED000244800F005FB4FF4FA71224800F062FB51
:100EE0000E21284801F0FAFF1B4802F0FBF90FB071
:100EF000F0BD00F05BFF00283FF43AAF22491B4BE6
:100F000008685C60FF2201255C619C609D741A7317
:100F10005A739A73DA731A745A74C0B11B4A1168FF
:100F200001B18B601360002219490D489A61196064
:100F300000F042FF1CE71021164801F0CFFF0A2104
:100F4000044800F05DFC034800F090FCF5E60B60FF
:100F5000E4E700BFE892FF1F2887FF1F343A000034
:100F60002C8CFF1FC092FF1FF090FF1F308CFF1FC3
:100F70002087FF1F403A00007090FF1F783A000062
:100F80004C3A00006C3A0000D092FF1FE092FF1F25
:100F9000EC390000203A00002DE9F0478CB002F057
:100FA000E3FC794A794E1388316818441080C807E9
:100FB0007ED5774C774D2368059395E80600059B11
:100FC0005B1A9A4240F28480DFF8F491724FDFF8A6
:100FD000DC81724ED9F8003097F8C311DFF8E4A134
:100FE00098F8C3213170D9078AF8002036D56C4DA6
:100FF0002368089395E80300089B1B1A8B423DD297
:10100000DFF8C481D8F80030DB0749D52368654D87
:101010000B9395E806000B9B5B1A9342624B6CD3D3
:1010200022680A921A780A9929605E49002A5AD1E0
:101030005E4B5F4A03F5E1751C7858789978147017
:101040000333AB425070917002F10302F4D159485E
:10105000017800F045FA0CB0BDE8F087484600F092
:10106000A5FE002879D14E4D2368089308992B6876
:101070006A68CB1A9342C3D39AF80020216807917B
:10108000079998F8293285E80600002BB8D1DFF8D7
:1010900038814648FFF7E8FCD8F80030DB07B5D4C4
:1010A000404600F083FE002863D13E4D2368AFE741
:1010B000304600F07BFE364C364D002843D1236885
:1010C000059395E80600059B5B1A9342FFF47CAFFD
:1010D000236839490493049B2B60A1F13000182246
:1010E00000F05EF970E797F82922307848603AB945
:1010F00029480193FFF7B8FC019B1B78002B97D080
:101100002E4B1B78002BA2D1284D234E284CDFF804
:10111000BC8005F5E1773246294698F8003002A8F0
:10112000033500F0CFF89DF808109DF809209DF8D0
:101130000A302170BD426270A37006F1030604F10B
:101140000304E8D183E723680393039B2B603223D6
:1011500030466B6000F030FEB1E723680693104D17
:10116000069A9AF800302A6048466B6000F024FE28
:101170007AE7236809930B4D099A33782A60404631
:101180006B6000F019FE91E72087FF1FE090FF1FC2
:101190003893FF1FA48EFF1F648CFF1FE490FF1F76
:1011A000E890FF1F988EFF1FA08EFF1FAC8EFF1FC1
:1011B000F090FF1FC092FF1FA090FF1FA18EFF1F86
:1011C000B492FF1FB892FF1FBC92FF1FB292FF1F85
:1011D0000849094A0023012081F8240282F82402E8
:1011E00081F8263281F82A3282F8263282F82A32B1
:1011F000704700BFAC8EFF1F648CFF1F00290BDD02
:1012000001EB4101014413780370537843709378E4
:10121000837003308842F6D1704700BF09B330B401
:101220004D1EADB2D2430135D2B205EB45050544A2
:101230000132441C14F8013C02FB03F31B1204F8B6
:10124000013C4178837802FB01F102FB03F30912B0
:101250001B12417083700330854204F10304E9D10D
:1012600030BC7047FFF7DABF22B3FF2A23D0F0B4B7
:1012700004780E78437895B2A719D24306FB057619
:10128000D2B204FB0264C4F3072404704C7886785D
:101290001F1904FB057403FB0243C3F307234370C8
:1012A0008B78F11803FB051506FB0252F0BCC2F364
:1012B0000722827070470B7803704B7843708B78ED
:1012C0008370704738B50D7805704D784570897812
:1012D0008170044611461A46FFF7C6FF204638BD06
:1012E0002DE9F043141104EB440512F00F020D44F4
:1012F0009DF81C6000D0E6B92C786978AA78FF2B9D
:1013000012D0002B43D00133DBB21CB103FB0444E9
:10131000C4F3072419B103FB0111C1F307211AB16A
:1013200003FB0222C2F30722047041708270BDE801
:10133000F0830F2C2E7895F80190AF7800D0E91C3F
:10134000120182F0FF056C1C91F800C091F801E0D9
:1013500091F8028004FB06F6511C04FB09F504FB1E
:1013600007F4C4F30724C6F3072701FB08F201FBC7
:101370000CF6C5F3072501FB0EFE04EB222207EB5A
:10138000262605EB2E21F4B2C9B2D2B2B7E71A462F
:1013900019461C46047041708270BDE8F08300BF9E
:1013A000F0B50139441E00252F3001E084421ED0E3
:1013B00014F8013F11F8016FB342F7D003F10107B0
:1013C00004D2FBB2237001350E78EDB25F1E9E424F
:1013D000FFB205F1010E08D227700E78BE4238BF69
:1013E000023B5FFA8EF538BF23709542DED3F0BD25
:1013F000F8B51E1E03680446CCBF02EB420500256B
:101400000F469B68D8BF164698477A1923686260D2
:101410005B690A4A6661934201D12046F8BD2046C5
:1014200098470028F9D0064A064B516893FBF0F024
:10143000884238BF084650602046F8BD710400005D
:10144000C092FF1F40420F00084B10B51C685CB1F2
:1014500063680021184623B1626902EB420202F080
:1014600035FAA468002CF3D110BD00BFD092FF1F45
:10147000074B1B6853B110B408784A788C789C737A
:1014800018735A739B68002BF6D110BC704700BFCD
:10149000D092FF1F70B40F4C2268531C8A4283B055
:1014A000236013DB0C4D0D4A2968019101992D68C9
:1014B00000951668009D15604FF47A720025891B0F
:1014C00002FB03F32560B3FBF1F3438003B070BC70
:1014D000704700BFD492FF1F3893FF1FDC92FF1F9D
:1014E0002DE9F04F43682D4C83B006468946002B0A
:1014F0004BD100F0B9FCF36820601BB14846B168DD
:1015000098478146264B1C680025002C36D07388EE
:10151000A77C61686269632B236898BFA574D3F8C0
:1015200004808DF804508DF805508DF80650B9F1FF
:10153000000F1CD004F10B030DF1040E04F10E0C8E
:1015400013F801BFBBF1000F0DD093F803A00AF10F
:1015500001000BFB0000BAF1000F04D009FB00F002
:10156000000C8EF8000063450EF1010EE8D1204614
:1015700001ABC047A774A468002CC8D1304619211C
:10158000FFF788FF03B0BDE8F08F00F06DFC226824
:101590007368801A9842AAD3ABE700BFD892FF1FA6
:1015A000D092FF1FF0B50A4D83B02B680093009FC7
:1015B00004460E4621782046FFF792FF01F0FAFE1E
:1015C0002B680193019BDB1BB342F3D303B0F0BD47
:1015D0003893FF1F2DE9F04F43682C4C83B006462B
:1015E0008A469146002B49D100F03EFCF36820600A
:1015F0001BB14846B16898478146254B1C680025B9
:10160000002C34D07388A77C6269632B236898BF51
:10161000A574D3F800808DF804508DF805508DF82E
:101620000650B9F1000F1AD004F10B0301A804F120
:101630000E0E13F801BFBBF1000F0CD093F803C0DE
:101640000CF101010BFB0111BCF1000F03D009FBF0
:1016500001F1090C0170734500F10100E9D1204648
:1016600001AB5146C047A774A468002CCAD13046CC
:101670001921FFF70FFF03B0BDE8F08F00F0F4FB76
:1016800022687368801A9842ACD3ADE7D892FF1FE6
:10169000D092FF1F10B5044682B051B100231A4604
:1016A00001A98DF804308DF805308DF80630FFF76C
:1016B00091FF2046FFF7C8FE02B010BD0020704722
:1016C000044B0022FF204FF0FF31187099605A80C0
:1016D000DA607047C092FF1FF0B561B301F1FF3EC1
:1016E0001FFA8EFE0EEB4E0E00220EF1060E864401
:1016F000C31C1546144613F8037C13F8020C13F8A8
:10170000016C033373453C4405443244F3D104EB8C
:10171000840402EB8202C5EBC500C4F31713C2EBCD
:101720000212C5EBC004120A03EB142401EB810181
:1017300010190844F0BD0C460A46F7E72DE9F043BE
:10174000254B1C6885B0074688469CB1DFF894900D
:101750007D2507E0606981B23046FFF7BDFFA468D0
:10176000054444B194E848001B694B45F2D020463B
:101770009847F0E77D2505FB07F52D0A174B4545F2
:101780001B7810D223B3164A012152F833208DF86A
:101790000C109DF80C101378384623EA01031370DF
:1017A00005B0BDE8F08308FB07F7B7FBF5F0C7B25B
:1017B00073B10B4A012152F833208DF80C109DF8BB
:1017C0000C10137838460B43137005B0BDE8F08356
:1017D000384605B0BDE8F083D092FF1FE492FF1FAA
:1017E000583B00006D040000034B044ADA6001FB23
:1017F00000F19960704700BFC092FF1F3D170000C5
:10180000074882B003680193019A114401E09942AC
:1018100004D303680093009B9A42F8D902B0704742
:101820003893FF1F10B4104A85B0A1B91368009314
:101830004168009B591A31290DD813680293029C04
:1018400004F13203591A01E0994204D31368019359
:10185000019B9C42F8D913680393039B43600120CA
:1018600005B010BC704700BF3893FF1F704700BF22
:101870004FF47A7000F01ABB00234364436071B1E7
:10188000074882B003680193019A114401E099422C
:1018900004D303680093009B9A42F8D902B07047C2
:1018A0003893FF1F30B5134C85B023680393039B17
:1018B00043600D461048062101F010FB00230A2268
:1018C00029460E4801F01EFD06210D4801F006FBD9
:1018D0000A4801F007FD23680293029A02F13201DF
:1018E00001E0994204D323680193019B9A42F8D9FD
:1018F00005B030BD3893FF1FD43A00002887FF1F82
:10190000DC3A000038B5037E0BB9632038BD0D46C4
:10191000044601F0B9FA10F0FF0F01D1652038BD7F
:1019200001F0B2FA10F0FF0FF8D001F071FAC0B276
:10193000A0F158031E2BF3D801A252F823F000BFE8
:10194000C919000021190000211900002119000007
:10195000211900002119000021190000211900009F
:10196000211900002119000021190000BD190000F3
:10197000211900002119000021190000211900007F
:101980000B19000021190000211900002119000085
:10199000211900002119000021190000211900005F
:1019A000211900000B190000211900002119000065
:1019B00021190000211900000D19000020462946B8
:1019C000FFF770FF632038BD00232376632038BD06
:1019D00070B5054682B01646C9B101230D4C037699
:1019E00000212846FFF78EFF632810D0236801935B
:1019F000019A511C23680093009B9A42F0D89942A7
:101A0000F8D200212846FFF77DFF6328EED12E761D
:101A100002B070BD3893FF1F034B00229A60DA605A
:101A20001A615A61704700BFE892FF1F374A384970
:101A300013681B06FCD40B6813F08003F8D172B650
:101A400034490A78002A5FD0334A3448F0B4344C21
:101A5000176806682568D4680C303E441432006864
:101A60001268304F35442C4420440244C2F34E02E5
:101A70002D4E2E482E4D2F4C42F400423A603768CE
:101A800006682D682C4A24680C303E4400681268B1
:101A90002A4F35442C4420440244C2F34E02284EBF
:101AA0002848294D294C42F400423A6037680668BC
:101AB0002D68274A24680C303E4400681268254F80
:101AC00035442C4420440244C2F34E02224E2348A3
:101AD000234D244C42F400423A60376806682D6872
:101AE000214A24680C303E440068126835442C4476
:101AF00020440244C2F34E021C4842F400420260F9
:101B00000B7062B6F0BC704762B6704724B00340F9
:101B100024B00B403193FF1F38B003403CB003406A
:101B200040B003402CB0034058B003405CB00340C9
:101B300060B0034064B003406CB0034030B0034079
:101B400038B00B403CB00B4040B00B4044B00B40B1
:101B50004CB00B402CB00B4058B00B405CB00B406D
:101B600060B00B4064B00B406CB00B4030B00B4029
:101B700030B42948294A2A4B2A4D6024E1210470B7
:101B800011701B78284C082B30D00A2B2748284985
:101B900037D00C2B0CBF35223D2212232A60236044
:101BA00002600B60234B24491B78244ABBB10123FC
:101BB0000B601360224B23491B78234A012B26D943
:101BC000042B0FD9082B1ED9102B94BF86238723F3
:101BD0000B6013601D4B01221A7030BC70470B6004
:101BE0001360E7E784230B601360F3E700F58E20B2
:101BF0000F490830012213232A60236002600B6022
:101C0000D0E73922F7E785230B601360E2E78023F2
:101C10000B601360DEE700BF004007400140074053
:101C20002287FF1F08B003400CB0034008B00B40F0
:101C30000CB00B403493FF1F20B0034020B00B408A
:101C40002387FF1F24B0034024B00B403193FF1FB4
:101C500028282FD8334B2DE9F0411E5CFF2E2BD0C6
:101C6000314B1B78002B2AD132062CD472B62F4D63
:101C70002F4C2F46012326602B7062B672B6236864
:101C80001B060CD43B781BB9F4E72B78002BF1D062
:101C900062B601F08FFB72B623681806F5D5254BA6
:101CA0001B6800222A7062B6234A107843FA00F0BB
:101CB000BDE8F081002070470020BDE8F081FFF70B
:101CC000B5FE3206D2D572B61C4DDFF87C801C4CB6
:101CD00006F04007FFB206F03F06D8F80030DFB14B
:101CE00023F01003C8F8003001232660134A2B703C
:101CF00062B672B6236819060CD413781BB9ECE7E8
:101D00002B78002BE9D062B601F054FB72B6236841
:101D10001B06F5D50B4BC3E743F01003C8F80030A2
:101D2000E2E700BF2C3B00003193FF1F3393FF1FFE
:101D300000B0034010B003403093FF1F3293FF1FE9
:101D400000B00B4010B00B400CB00B4008B5104C6D
:101D500008E0236859050DD423681A050FD42368B9
:101D6000DB0411D423685803F3D500F037FA236855
:101D70005905F1D501F0A2FB23681A05EFD501F052
:101D800033FC2368DB04EDD501F0C4FCEAE700BFB7
:101D90003480044008B5FFF7D9FF00BF014B102283
:101DA0001A80704700200540704700BF0078B0FAE5
:101DB00080F04009704700BF01230370704700BFE7
:101DC0001C4A02EBC00301295B6811D004291BD017
:101DD00052F83000002280F8802229B1022920D058
:101DE000032922D01A6070474FF480721A6070473E
:101DF00052F830004FF4A27280F880121A601A680C
:101E000022F020021A60704752F830104FF4A2728C
:101E1000012081F880021A601A6842F020021A60DC
:101E2000704740F203121A6070474FF481721A60D3
:101E3000704700BF583B000030B4054B054D064CC1
:101E4000002210211A602A602060196030BC70479F
:101E500014D0034004D0034000D00340212801D80F
:101E6000FFF7AEBF704700BF72B60C490C4B0D4A6E
:101E70001B680868126862B6520102D5322B88BF0F
:101E800001300949C3F5BB334FF47A72FF33A1FB2C
:101E9000031302FB00F000EB931070473893FF1F11
:101EA00018E000E004ED00E0ABAAAAAA2DE9F8438F
:101EB000054672B6204F214B214A1B683C681268C8
:101EC00062B6520102D5322B88BF013495B3C3F5F7
:101ED000BB331C4EDFF86490DFF86480FF334FF4AF
:101EE0007A72A6FB031302FB04F404EB931472B69C
:101EF000D9F800103A68D8F800E062B6C1F5BB33F3
:101F0000FF33A6FB03031EF0806FC4EB93134FF463
:101F10007A7002D0322988BF013200FB0233B3F558
:101F20007A7F04D3013D05D004F57A74DFE701F030
:101F300041FADCE7BDE8F8833893FF1F18E000E0C2
:101F400004ED00E0ABAAAAAAF8B52D4B2D49DFF8A5
:101F5000D0E0DFF8D0C02C4E2C4D2D4C2D4A2E4F0A
:101F60004FF4000018604FF0807018604FF0007060
:101F700018604FF0806018604FF00060186000201B
:101F8000086028234BF6FF71CCF80010CEF8003023
:101F9000336013602B6023603B60B362936209225D
:101FA00045F8242CC4F8D80F05F57F65C7F8D41F71
:101FB00007F5FF2707F5FA67C6F8F83F2B6006F527
:101FC000FF26C4F8D42F05F5FD2504F5FF2438605D
:101FD00006F2F4761148316005F5FF6504F5FD64FD
:101FE0002B6023600260FFF7C3FD1920FFF75EFF3F
:101FF00000F05CFE40F21310BDE8F840FFF756BF5A
:1020000008E100E004800340148003402480034082
:102010002C8003401C8003403480034000800B4030
:102020000C80034008800340431E032B14D872B673
:102030000A4951F8230068B170B4094C058834F896
:102040001320466841F82360521B24F8132062B61F
:1020500070BC704762B67047002070479493FF1FB2
:10206000E495FF1F013803280BD872B6074B53F8CD
:10207000203043B100205B680130002BFBD162B6F9
:102080007047002070471846F9E700BFE893FF1F2C
:1020900030B472B62B4A13781D0706D52A4B196A3D
:1020A000002936D0996A002941D053781C0706D5FB
:1020B000254B196C00293ED0996C002939D09378B2
:1020C000190705D5204B196E002936D0996E89B1B4
:1020D000D3781B0707D51C4BD3F880207AB3D3F8ED
:1020E000882011213AB162B6184B00221A7030BC18
:1020F00000F068BE0D21154C154D227843F8315083
:1021000003EBC1030830013A5860227062B630BC5C
:10211000704704220D4C0F4D217843F8325003EBE9
:10212000C20308304A1E5860227062B6EFE70521EC
:10213000E1E70921DFE70822ECE70C22EAE71022B9
:10214000E8E700BF943C00000080FF1F1194FF1FD0
:10215000C800400088004000431E032B1DD81B4AC6
:10216000400140F0100030B4104472B6184CE25CEC
:10217000032A1BD8DFE802F00212151703220D888C
:10218000E25410F0080F14BFC823882343EA054324
:1021900008310360416062B630BC704708300222EB
:1021A000EDE70522EBE708300422E8E7094A52F898
:1021B000230038B1084A52F82300416042F8231046
:1021C00062B6E9E742F82310034AF7E70080FF1FF1
:1021D0002094FF1FE893FF1FF893FF1F2DE9F04F96
:1021E000DFF80CB3DFF80CA387B044E0AB4F4FEA45
:1021F000930807EBC809013ED9F8042003F008034F
:10220000F6B2A2F1080003F0FF04002B40F00281B7
:1022100057F838301B0C99B222F8081C002B00F03C
:10222000F0809F4B22F8064C42F8044C53F82620CD
:10223000002A00F0C5829B4D55F8263058609A4C14
:1022400045F8260034F81630194424F8161000F02A
:1022500099FD002800F0AD82944A954B19F0080FC3
:1022600000F1080018BF1346C9F8040047F83830D9
:1022700008238BF800309BF80040E4B261071AD5C0
:102280008C4B1B78A3B18C490A7802F0FF0322B172
:10229000013BDBB20B7003B900BE88490A7802F03B
:1022A000FF032AB1013BDBB20B70002B00F0578219
:1022B00004238BF8003004F0080303F0FF02002B26
:1022C00000F0CC809AF80030DBB21E098ED19C0859
:1022D000DFF8C89159F8342009EBC401C2F3830236
:1022E000013A49680C2A00F28880DFE802F07C7C21
:1022F0008686868686864786868607000868704DAD
:102300004A68704F704E286081B240F28160674B1E
:102310006A604FF0010E0022814249F834303A6081
:10232000C9F81020C9F8182086F800E05B4C00F2CC
:10233000E380B1F5D06F80F04683B1F5817F00F086
:10234000FC8200F28D82802900F07783822940F0A0
:10235000FA82A98801F07F01042900F2F4825B4827
:102360005B4C89000844227062700278930740F148
:10237000588484F800E04FF0020E42E3514F3A686F
:1023800032B3544B504E5449188834780D78402855
:10239000864645F0020828BF4FF0400E002C84F01E
:1023A00001043470CEEB00000CBF8824C82409EB74
:1023B000C80680B285F0010544EA0E4472601880B8
:1023C00049F8384072440D70002800F045813A60A9
:1023D0003B4B1A88B2F5A06F0FD100219A78597043
:1023E0003E4B1A7009E0364A108842F221029042B0
:1023F00000F037812D4A49F83420394A01231370FF
:1024000036E72A4A2A4B19F0080F18BF134647F837
:1024100038302DE700F0D6FC324A334952F82630E6
:10242000002B00F0D18158688C5D42F8260003F142
:102430000802C9F80420032C05D8DFE804F02C02B8
:10244000292602228A551A8819F0080F0CBF882302
:10245000C82343EA024347F8383009E7E00700F1B0
:102460008181210600F1F281A20706D51F4A204989
:1024700013780220DBB213700870E30602D51C4B00
:1024800010221A7007B0BDE8F08F04228A55DAE7EF
:1024900005228A55D7E703228A55D4E70080FF1F1B
:1024A0009493FF1F4093FF1FE495FF1FC800400057
:1024B000880040001C94FF1FA593FF1F2494FF1F5A
:1024C0000894FF1F3C93FF1FA493FF1FC0200740E9
:1024D0001494FF1F5093FF1F1094FF1F9820074074
:1024E00094200740E893FF1F2094FF1F8820074097
:1024F000802007409020074042F22100814200F0F6
:102500002A8100F2D880B1F5086F00F07682B1F52B
:10251000106F40F01882226AB349A878087012063A
:1025200000F13A83D9F82820B049130600F10C8352
:10253000D9F83020AD49150600F10183D9F83820CB
:10254000AA49140600F1F682D9F84020A7491006DE
:1025500000F14A83D9F84820A449120600F13F83CC
:10256000D9F85020A149130600F13483D9F8582036
:102570009E49150600F12983D9F860209B4914066D
:1025800000F11E83D9F868209849100600F11383E2
:10259000D9F870209549120600F10883D9F87820FF
:1025A0009249130600F1FD82D9F880208F49150663
:1025B00000F13183D9F888208C49140600F1258375
:1025C000D9F890208949100600F11983D9F898208C
:1025D0008649120600F10D838548864A8649019096
:1025E0008648874D874C04970023059602958046C0
:1025F0000F4616461D460394306828B1446800F023
:10260000E1FB2046002CF9D100233360029B38689F
:102610001A46002342F8253028B1446800F0D2FB66
:102620002046002CF9D100223A60019A98F8003037
:102630001146002241F8042B039A0191023B4FF00E
:10264000000122F81510032B00F22B81DFE813F0B4
:102650007001250170012501BEF1400F18BF002255
:10266000B5E6694A0D784878157050708D78C8784D
:102670009570D07010680D79157186284D7989791B
:102680005571917100F09B816049614E0A783078F4
:1026900082F00105002842F002020D700CBF882173
:1026A000C82149F8321009EBC20280F00100002174
:1026B000307051609EE642F22120814240F0CB8191
:1026C000544B554C5549A8781D682560CDF804E059
:1026D0000870002002908046844604464B490D78DD
:1026E00045F0020E09EBCE030393019B002B039BE5
:1026F0005C600CBF8824C82444EA080385F0010408
:1027000049F83E3032700C70DFF8E0E0404BDFF803
:10271000FC80002840F01E81BCF1400F1BD144F02A
:10272000020C09EBCC03029CDFF8C0E05C60002ADD
:1027300040F02681020442F088029DF804304EF8F1
:102740003C20044433700D702346402803D1002000
:10275000334A3B601080334A012313704DE600F08A
:102760009DFCA5E5214B2F4828491A614FF0020E28
:1027700080F800E02C4F0A702C49196099602C4EAB
:102780002C4D2D4C9A610D213970FF213170DFF8ED
:10279000B8E029702270294D294A8EF800109F2731
:1027A000012406F8047C5D600470DA6007B0BDE8BF
:1027B000F08F244A47F8380013780133137057E537
:1027C00043F826000E4D3AE58B5D032B00F2F080B6
:1027D00001A252F823F000BF712200007122000014
:1027E000952800008F2800001C94FF1F0080FF1F09
:1027F000F893FF1F9493FF1FE893FF1F2094FF1F80
:102800004093FF1FE495FF1FEC95FF1F1094FF1FDF
:10281000A493FF1F3893FF1FF495FF1F3494FF1FED
:102820005093FF1F94200740C020074088004000BD
:102830008820074080200740982007405493FF1FBE
:10284000A893FF1F1194FF1F8C200740C149C24B62
:1028500080220D2008701A70A2077FF50EAE05E6E3
:1028600040F20232914240F0EE80A98801F07F01EF
:10287000042968D86A88002A65D1B648CDF804E0F2
:1028800089000844017841F00201017021E7012329
:102890008B55EDE400238B55EAE44FF0010388F8F3
:1028A00000300135042D06F1040607F1040708F194
:1028B00001087FF4A1AEA94CA94B2278A94D049F31
:1028C000059E002129701A70130700F105816278B6
:1028D000A549DFF8A0820A7010074FF00001C9F87F
:1028E0003010C9F8381000F1E080A049A2780A70D1
:1028F0000021C9F85010C9F858101107DFF8748288
:1029000000F10181E2789A499A4C0A70002112077D
:10291000C9F87010C9F8781000F1B08033780193CD
:10292000002183F00102C9F89010C9F89810D0E690
:102930004FF0000388F80030B3E7A98801F07F0169
:10294000042940F28D80834A0F2313708A4A0123A1
:10295000137052E540287FF6E2AE44F002040EEB1D
:10296000C401029E4E60BAB19DF80410834A1970EA
:102970003346403888F8005040334EF83420E7E6BC
:102980009DF8043033700204029B0D7042F0C802BF
:1029900003444EF83C20D8E69DF804101970029BC1
:1029A000774A88F80050403840334EF83420CFE65C
:1029B00019F0080F0CBF022303238B5558E4714A0A
:1029C0000F21117060E6704A5468002CBBD06888F3
:1029D000B5F804E003E00C325468002CB3D013883F
:1029E0008342F8D153887345F5D1000A03280CBF00
:1029F00094F800E0B2F808E003E0644A644C12780E
:102A00002270E888704580F03F8162490D78402847
:102A1000844645F0020E28BF4FF0400C04EB0C0337
:102A200009EBCE02029301235460CCEB00004FEA85
:102A30000C4800220193C8245EE6554C4FF0020E6C
:102A400022706270DDE7B1F5A06F7FF47CAF0123E7
:102A5000002201933DE642F221329142F7D072E723
:102A60006A88002A7FF46FAF3A48CDF804E0890005
:102A70000844017821F0020101702AE600F082F991
:102A8000002800F0EF8008303D4AC4F88400C4F804
:102A9000802000F077F9002800F0DE800830374A07
:102AA000C9F88C00C9F8882038E700F06BF90028D5
:102AB00000F0C0800830324AC8F84400C8F840200E
:102AC00000F060F9002800F0AF8008302B4AC9F808
:102AD0004C00C9F8482008E700F054F9002800F03D
:102AE000CD800830264AC9F82400C9F8202000F01B
:102AF00049F9002800F0BC800830204AC9F82C00B1
:102B0000C9F82820E3E600F03DF9002800F09E8097
:102B100008301B4AC8F86400C8F8602000F032F999
:102B2000002800F08D800830144AC9F86C00C9F8FC
:102B30006820E7E6C86B083800F044F904E5486B04
:102B4000083800F03FF9F9E4C86A083800F03AF9AB
:102B5000EEE400BFC020074080200740943C000006
:102B6000C42007401194FF1FC8200740CC20074015
:102B7000D02007400080FF1F94200740C80040007D
:102B800088004000A593FF1F983C00001C94FF1F85
:102B90001494FF1F1094FF1F606A083800F012F9A8
:102BA000C0E4C86F083800F00DF9FDE4486F08383C
:102BB00000F008F9F2E4C86E083800F003F9E7E421
:102BC000486E083800F0FEF8DCE4C86D083800F004
:102BD000F9F8D1E4486D083800F0F4F8C6E4C86CA0
:102BE000083800F0EFF8BBE4486C083800F0EAF869
:102BF000B0E4D1F89C00083800F0E4F8ECE4D1F837
:102C00009400083800F0DEF8E0E4D1F88C000838D1
:102C100000F0D8F8D4E4D1F88400083800F0D2F8F5
:102C2000C8E44FF0020EECE62A78C9F848000132F9
:102C30002A705AE62A78C8F8400001322A703FE725
:102C40002A78C9F8680001322A705BE62A78C8F849
:102C5000600001322A7061E72A78C9F888000132E1
:102C60002A705BE62A78C4F8800001322A7010E7E7
:102C70002A78C9F8280001322A7028E62A78C9F88B
:102C8000200001322A7032E7BEF1400FF44628BF1F
:102C90004FF0400C04EB0C0302930123CCEB0E002D
:102CA0004FEA0C480022019318E500BFF8B500F088
:102CB0009DFD294B29482A4C2A4F2B4DDFF8BCC0DB
:102CC000DFF8BCE0294E00221A605A609A60DA6090
:102CD0001A615A619A61DA611A625A629A62DA6218
:102CE0001A635A639A63DA631A645A649A64DA64F8
:102CF0001A655A659A65DA651A665A669A66DA66D8
:102D00001A675A679A67DA67C3F880200168C3F8C0
:102D1000842041F480210160C3F307212170C3F3B3
:102D20000740134938701B0E2B70FF238CF80030BE
:102D3000104D8EF8003010480B700123337084F86A
:102D4000642070264FF40074102207F82C3C2E707B
:102D5000046081F8F820F8BD0080FF1F3480044033
:102D60009C200740B0200740B42007409420074033
:102D70001020074049E400E008E100E0802007401F
:102D80008820074072B60D480268B2FA82F30B2B16
:102D900010DC4FF00041D94022EA0102026062B625
:102DA000074803EBC303DB00C2180021C1501046E3
:102DB0005160704762B60020704700BF2487FF1F34
:102DC000BC83FF1F0D4B0E4AC31AA2FB03231B0932
:102DD0000B2B0CD80B4A127852B972B60A484FF036
:102DE0000041026821FA03F31A43026062B6704799
:102DF000064A1278002AF0D0FFF74AB9BC83FF1FB9
:102E0000398EE3381194FF1F2487FF1F1C94FF1F86
:102E100038B50F4D286878B143880288C11801334E
:102E200093420C7A02D24380204638BDFFF7CAFF96
:102E3000002320462B6038BD064B1B782BB10320A6
:102E4000FFF7F2F828600028E6D14FF0FF3038BDD8
:102E50003094FF1F1C94FF1F10B5094C206818B157
:102E600043881844007A10BD064B1B782BB1032011
:102E7000FFF7DAF820600028F2D14FF0FF3010BDE4
:102E80003094FF1F1C94FF1F044B054A1B68908859
:102E90001BB11A885B88D31A184470473094FF1FFF
:102EA000E495FF1F0B4B1B789BB110B50A4C2068B3
:102EB00048B1FFF787FF002303202360FFF7B4F832
:102EC00030B1FFF77FFF0320FFF7AEF80028F8D1FD
:102ED00010BD70471C94FF1F3094FF1F2DE9F04F69
:102EE000DFF8F89083B0012289F80020019169B3DE
:102EF000DFF8EC80364F019E8346D8F80000B0B36F
:102F0000344D4488C4F14001B14228BF314604EB3E
:102F1000010E00221FFA8EFE2A70761AA0F802E037
:102F200000F1080251B1013C224459441BF8014B05
:102F300002F8014F8B45F9D1B0F802E0BEF13F0F26
:102F40000BD8254A05211170002ED6D101980023F7
:102F500089F8003003B0BDE8F08F402202800146BE
:102F60000420FFF7F9F80022C8F80020E9E73A78D2
:102F70002AB3184D4AF2F9244FF0010A07E0013C48
:102F800016D02A78A2B900F015FA3A78BAB104201E
:102F9000FFF768F80728F2D889F800A0FFF7F2FEDB
:102FA000C8F800000028ACD10C4B013C1870E8D1E7
:102FB00001234FF0FF302B7003B0BDE8F08F0023EA
:102FC0004FF0FF3089F8003003B0BDE8F08F00BF4C
:102FD0001C94FF1F2C94FF1F2494FF1F2594FF1F98
:102FE0002894FF1F00B583B002AB012103F8010D47
:102FF0001846FFF773FF03B05DF804FB38B50E4DBC
:103000000E4C28680123237028B1408800232370C8
:10301000C0F1400038BD0A4B1B7813B90020207066
:1030200038BD0420FFF71EF80728F7D8FFF7AAFEDF
:1030300028600028E9D1F1E72894FF1F2594FF1F9D
:103040001C94FF1FF8B5114B1B788BB1104E114D1E
:10305000346801272F7064B10F4A63880027177006
:10306000214623800420FFF777F8376000232B7078
:10307000F8BDFFF787FE084B28B1014604201C70FD
:10308000FFF76AF8F2E71F70F0E700BF1C94FF1F1C
:103090002894FF1F2594FF1F2494FF1F38B50E4B63
:1030A0001B7873B90D4C216861B103F0FF054B88A3
:1030B0000B800420FFF750F8256038BD084B012233
:1030C0001A7038BDFFF75EFE0028F7D00146BDE854
:1030D00038400420FFF740B82594FF1F2894FF1FB5
:1030E0002494FF1F10B4EFF3108272B6437F33B9FC
:1030F000017F012907D003290FD00123437702B9AB
:1031000062B610BC7047124C2168A1B111494361ED
:103110000B68836108605861EFE70F4C216881B14B
:103120000E4943610B688361086058610C4B4FF096
:1031300080511960E1E7074B4161816120601860AF
:10314000DBE7064B4161816120601860EEE700BF5C
:103150004894FF1F4494FF1F3894FF1F3C94FF1FA7
:1031600004ED00E010B4047F4160022CC26002D084
:1031700010BCFFF7B7BF836810BC184770B5EFF3FA
:10318000108272B60C4C206880B10C4E0025436949
:10319000236073B19D6102B962B645778368984731
:1031A000EFF3108272B620680028F0D102B962B63F
:1031B00070BD3360EFE700BF3894FF1F3C94FF1FE2
:1031C000FFF7DCBF184A30B41468002C27D003681E
:1031D00021688B420ED2CB1A00218460C16023602B
:1031E000E06010600223037530BC704711688B42A9
:1031F000144608D3A2685B1A0360002AF6D18260E5
:10320000C460A060EEE7D268C2608460E060C56818
:10321000CB1A0222A8602360027530BC704784601C
:10322000C4601060DEE700BF4094FF1FF8B5224E77
:1032300034682CB32368002B3AD1204F1D4604E09C
:103240003468ECB12368002B32D1A36803B1DD6090
:1032500020693360036825751B68BB4221D1037F59
:103260004560022BC46020D0FFF73CFF6368002B51
:10327000E6D023602046FFF7A5FF3468002CE1D19B
:10328000EFF3108372B60E4A00211068116003B983
:1032900062B628B18468FFF795FF20460028F9D16F
:1032A000F8BD224600219847E0E783689847DDE7AC
:1032B000013B2360E4E700BF4094FF1F653100003D
:1032C0005094FF1F024A136801331360FFF7AEBF2B
:1032D0003893FF1F08B5FDF71DFDFDF75DFE00F0FB
:1032E00069F8FAE700B5064A036812885B6883B09C
:1032F00001A9ADF804200222984703B05DF804FB51
:10330000683C0000F0B507468BB0002A33D0012A94
:1033100008BF0A2251B3212400E0F4B2B1FBF2F558
:1033200002FB1511C8B2092900F1300198BFC8B2DB
:103330000AA988BF3730214488BFC0B201F8240CE5
:10334000661E2946002DE8D133B1013CE4B20AAB38
:1033500023442D2203F8242C3B6801AA11195B6831
:103360003846C4F1220298470BB0F0BD30228DF8E8
:1033700025202124E8E70368C9B21B6898470BB0F1
:10338000F0BD00BF81607047FFF78CBDFFF764BDE3
:10339000FFF73EBDFFF778BDFFF754BEFFF72EBE27
:1033A00008461146FFF79ABD0846FFF71BBE00BF4F
:1033B000704700BF38B5224C237803B138BD0123D4
:1033C0002370FFF761FD70BB00F068F840BB00F0B0
:1033D000FBF810BB00F08EF9E0B900232370EFF387
:1033E0000583002BEAD1EFF3108172B6154B1868F4
:1033F000E0B1154C2278CAB945691D6001232370DC
:10340000C5B1AA6101B962B60025457783689847BE
:103410002570D3E700F030FADFE700F02BFAD9E7A8
:1034200000F026FAD3E7FFF7C3FFCDE70029C5D1A7
:1034300062B638BD054B1D600029E5D1E3E700BF4A
:103440005494FF1F4894FF1F4C94FF1F4494FF1F88
:10345000F0B44D1E2E46002400E00134B0FBF2F320
:1034600002FB1300092800F130078ABF3730F8B299
:10347000C0B206F8010F1846002BEED10A1953709E
:103480004CB1107815F8016F28700133E01A8342AF
:1034900002F80169F5DB0846F0BC7047054A064BA7
:1034A00010781B78C0B2DBB2984238BF4030C01AE7
:1034B000704700BF5C94FF1F5D94FF1FF0B4384B52
:1034C0001A7912F0300F2CD072B6997D01F0FF02FC
:1034D00000293DD062B6334F334938780D78334EEA
:1034E0001C46C0B2EDB2431C402BE17928BF00233B
:1034F000AB4202F1FF32C9B21CBFF154184612F0C0
:10350000FF02F0D12A4B1B68C2B23A704BB1A842FD
:1035100036BFC5F14005401B40192728C4BF012212
:103520001A701F49CA78D2B2150616D452060DD5A4
:103530001B4B1B795B0609D51E4B1F491B680022DC
:103540000A7003B11A70164B3C22DA70F0BC704757
:103550004022D9795A7462B6E3E70B791C06E5D5A7
:10356000164B174E1C783378E4B2DBB29C420ED077
:10357000144D01E0A3420AD00133402B28BF0023A1
:103580000879E85CC0B2C871087D0728F2D9DBB2BF
:10359000034933700B79180644BF7C23CB70C5E711
:1035A00000A006405C94FF1F5D94FF1FA094FF1FC6
:1035B0005894FF1FE494FF1FE094FF1FE894FF1F3F
:1035C000E194FF1F6094FF1F054A064B10781B789B
:1035D000C0B2DBB2984238BF4030C01A704700BF5B
:1035E0005C95FF1FF194FF1FF0B4384B1A7912F06D
:1035F000300F2CD072B6997D01F0FF0200293DD02A
:1036000062B6334F334938780D78334E1C46C0B21A
:10361000EDB2431C402BE17928BF0023AB4202F1FD
:10362000FF32C9B21CBFF154184612F0FF02F0D1AC
:103630002A4B1B68C2B23A704BB1A84236BFC5F1E3
:103640004005401B40192728C4BF01221A701F499A
:10365000CA78D2B2150616D452060DD51B4B1B796B
:103660005B0609D51E4B1F491B6800220A7003B177
:103670001A70164B3C22DA70F0BC70474022D979A0
:103680005A7462B6E3E70B791C06E5D5164B174E64
:103690001C783378E4B2DBB29C420ED0144D01E0CA
:1036A000A3420AD00133282B28BF00230879E85C05
:1036B000C0B2C871087D0728F2D9DBB20349337064
:1036C0000B79180644BF7C23CB70C5E700B00640D9
:1036D0005C95FF1FF194FF1F1C95FF1FEC94FF1FCB
:1036E0006095FF1FF094FF1F6495FF1F5D95FF1FFE
:1036F000F494FF1F054A064B10781B78C0B2DBB26A
:10370000984238BF4030C01A704700BF6C95FF1F09
:103710006D95FF1F30B42B4B1A7994061FD52A489C
:10372000DA790378294901333F2B0978C8BF002390
:103730008B42D2B203D0264CD9B2E2540170254A52
:10374000116861B1244A1278D2B2934236BFC2F1F5
:1037500040029B1A9B18272BC4BF01230B70194AE8
:10376000D378DBB2180611D45A060DD5154B1B7948
:103770005B0609D5194B1A491B6800220A7003B170
:103780001A70104B2C22DA7030BC70471179090680
:10379000EAD5144910480C780178C9B28C420DD092
:1037A0004A1C272A84BF00210A460F4D054C98BFAA
:1037B000D1B2AA5CD2B2E2710170D5E76C21D170AE
:1037C000D2E700BF00C006406C95FF1F6D95FF1F3C
:1037D0009895FF1F6895FF1FD995FF1FDC95FF1F68
:1037E000D895FF1FE095FF1F7095FF1F70B584B03F
:1037F00072B6194B194D1A48702241260F248021A8
:103800001A702E701A460470197013781B06FCD5B6
:10381000144B186862B6144B144C984298BF00EBD6
:10382000800001A998BF40000A22FFF711FE01A9FC
:103830002046002311F8012B01333AB10A2B20F85E
:10384000022FF7D11623237004B070BD5B00DBB2EA
:10385000237004B070BD00BF0000024007000240AA
:1038600006000240080002407F969800C487FF1FB0
:10387000704700BF704700BF704700BF70B50F4E64
:103880000F4D761BB61018BF002405D0013455F833
:10389000043B9847A642F9D10A4E0B4D761B00F027
:1038A00025FAB61018BF002406D0013455F8043BA1
:1038B0009847A642F9D170BD70BD00BFF83C00002A
:1038C000F83C00000C3D0000F83C000070B4840798
:1038D00046D0541E002A41D0CDB2034602E0621EFB
:1038E000E4B3144603F8015B9A07F8D1032C2ED9F0
:1038F000CDB245EA05250F2C45EA054519D903F156
:1039000010022646103E0F2E42F8105C42F80C5C66
:1039100042F8085C42F8045C02F11002F2D8A4F10B
:10392000100222F00F0204F00F041032032C134493
:103930000DD91E462246043A032A46F8045BFAD8FB
:10394000221F22F003020432134404F003042CB1BA
:10395000C9B21C4403F8011BA342FBD170BC7047E1
:1039600014460346C2E700BF10B40C4B0C4C196858
:103970000C4AD1F8A830D1F8AC0004FB03F402FBE8
:103980000040A3FB02230344013243F10003C1E9D9
:103990002A2323F0004010BC704700BF088CFF1F93
:1039A0002DF451582D7F954C024B13B10248FDF771
:1039B00085BE704700000000BD39000038B5074DD6
:1039C000074C2C1BA41005D0013C55F8043D98472A
:1039D000002CF9D1BDE8384000F098B90000000093
:1039E000000000000000000000000000E1080000EE
:1039F000A509000091040000DD0400006D04000032
:103A000071040000D90500000000F918FB301C47C4
:103A1000825A6D6A4176897D31302C261F170E043B
:103A2000564D4450565F317C315F564D4450560AD6
:103A3000000000004445425547204F4E0000000062
:103A40004C45447320414444454400004355525280
:103A5000454E545F4C454420415252415920494EF5
:103A6000495449414C495A45440000005345545576
:103A70005020434F4D504C45544500FF0000FF007F
:103A8000002AD5000055AB00007FAB0000ABAB00B7
:103A900000D5560000FF00002AD5000055AB0000FD
:103AA000AA560000FF000000D5002A00AB00550018
:103AB00081007F005500AB002B00D500564D4450CF
:103AC000455F00003A323A003A0000005F564D442C
:103AD00050450000564D4450435F00005F564D4432
:103AE000504300004572726F723A20417474656DE4
:103AF000707420746F207365742061207265616436
:103B00002D6F6E6C79207661726961626C65206FD1
:103B10007220646174612074797065206E6F742006
:103B2000737570706F727465640D0A00050E080974
:103B30000D0C06070F0400130393050E08090D0C66
:103B400006070F04FFFFC585848687C4FFFF0013A7
:103B500003931A9217FFFFFF4008FE4340A0044062
:103B60004408FE4344A004400018FE4300C0044043
:103B70003000FE43309004403400FE433490044053
:103B80001C18FE431CC004401018FE4310C0044023
:103B90000818FE4308C004400C18FE430CC0044043
:103BA0000C10FE430CB004401010FE4310B0044053
:103BB0001810FE4318B004401C10FE431CB0044013
:103BC0001410FE4314B004400418FE4304C0044023
:103BD0000010FE4300B004400008FE4300A0044073
:103BE0000408FE4304A004400C08FE430CA004405B
:103BF0000808FE4308A004401418FE4314C0044003
:103C00001818FE4318C004400410FE4304B00440DA
:103C10000810FE4308B004401400FE431490044012
:103C20004C08FE434CA004400420FE4304D0044052
:103C30002410FE4324B004402010FE4320B0044072
:103C40002810FE4328B004402C10FE432CB0044042
:103C50000020FE4300D004404808FE4348A0044032
:103C60001000FE43109004400D0AFFFF000000000A
:103C700000000000A9330000A13300009D330000C4
:103C80009933000095330000913300008D3300001C
:103C90008933000000151915000100003887FF1F47
:103CA00012000000000200006487FF1F43000000B4
:103CB00000030000C087FF1F00000000010309048B
:103CC0004C87FF1F0000000002030904A887FF1FA4
:103CD0000000000003030904C487FF1F0000000068
:103CE000000000000000000000000000F8B500BF68
:103CF000F8BC08BC9E467047A93900003504000096
:0C3D0000D1110000C1160000191A0000CB
:043D0C00F8B500BF47
:103D100039050A04FFFFFFFF743C000000000000AB
:103D2000E803000000000000120110010200004042
:103D3000C016830475020102030100001803540039
:103D4000650065006E00730079006400750069000D
:103D50006E006F0009024300020100C03209040036
:103D600000010202010005240010010524010101E7
:103D70000424020605240600010705820310004002
:103D800009040100020A00000007050302400000C8
:103D9000070584024000000016035500530042004E
:103DA0002000530065007200690061006C00000093
:103DB000040309040C0300000000000000000000E0
:103DC00000000000000000000000000000000000F3
:103DD00000000000CC8AFF1F348BFF1F9C8BFF1F4D
:103DE00000000000000000000000000000000000D3
:103DF00000000000000000000000000000000000C3
:103E000000000000000000000000000000000000B2
:103E100000000000000000000000000000000000A2
:103E20000000000000000000000000000000000092
:103E30000000000000000000000000000000000082
:103E40000000000000000000000000000000000072
:103E50000000000000000000000000000000000062
:103E60000000000000000000000000000000000052
:103E70000000000000000000010000000000000041
:103E80000E33CDAB34126DE6ECDE05000B00000006
:103E90000000000000000000000000000000000022
:103EA0000000000000000000000000000000000012
:103EB0000000000000000000000000000000000002
:103EC00000000000000000000000000000000000F2
:0C41F0000000000000000000E087FF1F3E
:00000001FF
