:1000000000800020BD010000B1C3000069C30000F2
:1000100069C3000069C3000069C3000069C3000030
:1000200069C3000069C3000069C30000B1C30000D8
:10003000B1C3000069C30000DDD70000E1D80000B3
:10004000B1C30000B1C30000B1C30000B1C30000E0
:10005000B1C30000B1C30000B1C30000B1C30000D0
:10006000B1C30000B1C30000B1C30000B1C30000C0
:10007000B1C30000B1C30000B1C30000B1C30000B0
:10008000B1C30000B1C30000B1C30000B1C30000A0
:10009000B1C30000B1C30000B1C30000B1C3000090
:1000A000B1C30000B1C30000B1C30000B1C3000080
:1000B000B1C30000B1C30000B1C30000B1C3000070
:1000C000B1C30000B1C30000B1C30000B1C3000060
:1000D000B1C30000B1C30000B1C30000B1C3000050
:1000E000B1C30000B1C30000B1C30000B1C3000040
:1000F000B1C3000039DC0000B1C3000065DD0000C1
:10010000B1C3000091DE0000B1C30000B1C3000024
:10011000B1C30000B1C30000B1C30000B1C300000F
:10012000B1C30000B1C30000B1C30000B1C30000FF
:10013000B1C30000B1C30000B1C30000B1C30000EF
:10014000B1C30000B1C30000B1C30000B1C30000DF
:10015000B1C30000B1C30000B1C30000B1C30000CF
:10016000B1C30000F9C70000B1C30000B1C3000073
:10017000B1C30000B1C30000B1C30000B1C30000AF
:10018000B1C30000B1C30000B1C30000B1C300009F
:10019000B1C30000B1C30000B1C30000B1C300008F
:1001A000B1C30000B1C30000B1C30000B1C300007F
:1001B000B1C30000B1C30000B1C30000564B4CF204
:1001C000205210B51A804DF628121A8000BF00BFC9
:1001D0000CF0F2F8514B4FF010621A60504A9A60DE
:1001E000504ADA60504A136813F4807304D14F49BF
:1001F0000B604FF4A85313604D4B1A78110703D5C9
:100200001A7842F008021A704A4B4B492A221A7097
:100210004A4A4B4B8B4204D252F8040F43F8040B6A
:10022000F8E7484B484900228B4202D243F8042B9E
:10023000FAE74649464A002352F8230041F82300D2
:1002400001336F2BF8D1434B434A802103F8011B44
:100250009342FBD1414B3D4A1A60414B8A221A70AE
:10026000A3F5805324225A70A0221A709A7992071B
:10027000FCD59A79D406FCD43A4A937903F00C035E
:10028000082B384BF9D103221A7140225A719A79FE
:100290009006FCD5334A9179324B4906FBD5324A58
:1002A000324911600221516020221A709A7902F0BD
:1002B0000C020C2AFAD12E4B2E4A1A602E4B2F4AD2
:1002C0001A6000225A60072243F8042C2C4AC3F813
:1002D0000C2D62B60CF046F9144B1B68DA0705D5F5
:1002E00028480CF0B7F8284B284A1A60284B1B788E
:1002F0005B0609D5244C254B22689A4204D121483B
:100300000CF0A8F8002323600EF0AAFD0CF05AF8B8
:100310000DF0EEFAFEE700BF0E20054030800440ED
:10032000823F04000100002B10D0034014D0034092
:1003300002D0074000E00740748CFF1F3C240100FE
:100340002087FF1F748CFF1F50B4FF1F0082FF1F08
:100350000000000000E400E05FE400E008ED00E0E1
:100360000050064000400640448004400000030165
:1003700004800440C010050014E000E0FF76010096
:10038000000020209928445E1CE00340A5C3945A35
:1003900000F00740FFFFFFFFFFFFFFFFFFFFFFFF32
:1003A000FFFFFFFFFFFFFFFFFFFFFFFFFFFFFFFF5D
:1003B000FFFFFFFFFFFFFFFFFFFFFFFFFFFFFFFF4D
:1003C000FFFFFFFFFFFFFFFFFFFFFFFFFFFFFFFF3D
:1003D000FFFFFFFFFFFFFFFFFFFFFFFFFFFFFFFF2D
:1003E000FFFFFFFFFFFFFFFFFFFFFFFFFFFFFFFF1D
:1003F000FFFFFFFFFFFFFFFFFFFFFFFFFFFFFFFF0D
:10040000FFFFFFFFFFFFFFFFFFFFFFFFDEF9FFFF23
:1004100010B5054C237833B9044B13B10448AFF33E
:1004200000800123237010BD748CFF1F00000000AA
:1004300040240100084B10B51BB108490848AFF330
:1004400000800848036803B910BD074B002BFBD0A0
:10045000BDE81040184700BF00000000788CFF1F67
:1004600040240100748CFF1F0000000040697047A9
:10047000002070474268017B13780B43137070476C
:100480004268017B137823EA01031370704700BFB1
:10049000F0B4034600F16F070246014691F8DB60B5
:1004A00091F8DC5091F8DD4081F8DE6081F8DF5092
:1004B00081F8E04092F8E46092F8E55092F8E64066
:1004C00082F8E16082F8E25082F8E3400332BA42F7
:1004D000A1F10301E2D1C21C6F38157854789178EC
:1004E00002F8035C02F8024C02F8011C93F8BC51BC
:1004F00093F8BD4193F8BE1183F8BF5183F8C04112
:1005000083F8C111033B834202F10302E5D1F0BC41
:10051000704700BF8039091110B44B0044788278CD
:10052000C9B2DBB2611AD31A21EAE17123EAE3739B
:100530004170837010BC704770B41D4C83B0246848
:100540000194019DFF2898BF00024FF48C74A5EB25
:10055000030304FB03F398BF80B200FB03F0C0F376
:100560000E4000F580404404C0F3CA0303D5C3F530
:10057000FF6307339BB21D0A0E4E0F4C765D34F8B5
:100580001540C3F3460506FB054300049BB24ABF72
:100590005C421CB224B2521AA4F5004492B2A3B237
:1005A00002FB033301EB134080B203B070BC704711
:1005B0008CB1FF1FF8110100C00A010070B41E4C7D
:1005C00083B024680194019DFF2898BF00024FF476
:1005D0008C74A5EB030304FB03F398BF80B200FB0C
:1005E00003F0C0F30E40A0F5804080B24404C0F395
:1005F000CA0303D5C3F5FF6307339BB21D0A0F4E31
:100600000F4C765D34F81540C3F3460506FB0543F1
:1006100000049BB24ABF5C421CB224B2521AA4F539
:10062000004492B2A3B202FB033301EB134080B249
:1006300003B070BC704700BF8CB1FF1FF811010000
:10064000C00A010070B4184B83B01B680193019E6F
:100650004FF48C7303FB06F600FB06F0060C7004E7
:10066000C6F3CA0303D5C3F5FF6307339BB2180A69
:100670000E4D0F4C245C35F81000C3F3460504FB07
:1006800005043304A4B248BF644224B2531AA4F54B
:1006900000449AB2A3B202FB033301EB134080B2D1
:1006A00003B070BC704700BF8CB1FF1FC00A0100CF
:1006B000F811010010B5012104460E200BF0DCFEFC
:1006C000072001210BF0D8FEA06958B10368074A42
:1006D0005B68934207D14268017B137823EA0103E8
:1006E000137010BD10BDBDE8104018478104000014
:1006F000F0B58BB0002305688DF804308DF8053017
:100700008DF806302E68374A8DF8083096428DF8FD
:1007100009308DF80A305FD1827C04910446012AA9
:1007200001A805918DF81E308DF81F308DF820300E
:10073000039015D08DF81D308DF81C308DF81B30CE
:100740008DF81A308DF819308DF818300023AA6909
:100750008DF821302046099303A990470BB0F0BDD6
:10076000214A1378013303F0070313F0010F14BF7C
:100770008021002113709A0744BF41F04001C9B2A3
:100780005B0748BF41F0200110310022C9B20DF1D2
:100790001B030DF11E074FF4807EAAB19EFBF2F2FF
:1007A000D2B2501CC0B200FB01152D121870EEB26F
:1007B00005B1013E03F8036C00B11A7001339F428A
:1007C00008D0DA78002AE9D11A7003F8032C013333
:1007D0009F42F6D12568B9E70A4602AB01A9B047A6
:1007E0000BB0F0BDED070000908CFF1FF0B5857CCD
:1007F0001C785E789B7889B0012D0191029203925A
:100800008DF816408DF817608DF8183016D000233B
:100810008DF815308DF814308DF813308DF81230B6
:100820008DF811308DF810300268002392698DF830
:100830001930079301A9904709B0F0BD1B4A1378FE
:10084000013303F0070313F0010F137014BF80226C
:100850000022990744BF42F04002D2B25B0748BF72
:1008600042F020021032D2B20DF113030DF116073F
:100870004FF4807EACB19EFBF4F4E4B2611CC9B2CB
:1008800001FB02252D121970EEB205B1013E03F8ED
:10089000036C01B11C700133BB42C5D0DC78002C65
:1008A000E9D11C7003F8034CF5E700BF908CFF1FE3
:1008B000F0B5857C1C785E789B7889B0012D01911C
:1008C000029203928DF816408DF817608DF818305B
:1008D00017D000238DF815308DF814308DF81330B3
:1008E0008DF812308DF811308DF810300368002229
:1008F00003219B698DF81910079201A9984709B047
:10090000F0BD1B4A1378013303F0070313F0010F06
:10091000137014BF80220022990744BF42F04002A6
:10092000D2B25B0748BF42F020021032D2B20DF1C2
:1009300013030DF116074FF4807EACB19EFBF4F467
:10094000E4B2611CC9B201FB02252D121970EEB28E
:1009500005B1013E03F8036C01B11C700133BB42C9
:10096000C4D0DC78002CE9D11C7003F8034CF5E707
:10097000908CFF1F70B5044608460D460EF080FBB4
:1009800023680246294620465B68BDE87040184748
:1009900038B5044608460D460EF072FB2368024641
:1009A00029465B6820469847054620460CF0A8FF7C
:1009B000284438BD2DE9F04F0D7805704D7845700D
:1009C000897881701178C170517801719278427183
:1009D0001A7882715A78C2719B78DDF824A003726C
:1009E0009AF800B080F809B00DF12C0898E8005191
:1009F000DDF828900E9F0F9E109D1199129A159B5D
:100A00009AF801B080F80AB09AF802A080F80BA01A
:100A100099F800A080F80CA099F801A080F80DA02A
:100A200099F8029080F80E9098F8009080F80F9056
:100A300098F8019080F8109098F8028080F8118062
:100A40009CF8008080F812809CF8018080F8138068
:100A50009CF802C080F814C09EF800C080F815C051
:100A60009EF801C080F816C09EF802E080F817E0FA
:100A700097F800E080F818E097F801E080F819E0B6
:100A8000BF7887763778C77677780777B6784677EE
:100A90002E7886776E78C677AD7880F820500D78FE
:100AA00080F821504D7880F82250897880F8231002
:100AB000117880F82410517880F82510927880F809
:100AC0002620139A127880F82720139A527880F8FB
:100AD0002820139A927880F82920149A127880F8A6
:100AE0002A20149A527880F82B20149A927880F851
:100AF0002C201A7880F82D205A7880F82E209B78A8
:100B000080F82F30BDE8F08F2DE9F04F8BB0002733
:100B1000069051F82730DBB20137FF2BBFB2F8D176
:100B20000B6807974FEA1368C3F3072BC3F3074912
:100B30004FF0FF33C64600240593884658F8045FFB
:100B40000698C5F307274FEA241CC5F30746ECB205
:100B5000F9B2C5F307650391E9B204915FFA8CF12C
:100B6000029107990F2908AA4FEA14135FFA86FA2F
:100B70000CD805998C4507DC0F2905D00131C9B285
:100B80008B42029138BF0B4659B2059109A90091D9
:100B900002998DF820B08DF821908DF822E08DF823
:100BA00024708DF825608DF826500AF001FCFF2C8A
:100BB000DDF810E0DDF80CB0D146BFD106980BB0DF
:100BC000BDE8F08F484B1B78002B00F08B802DE99F
:100BD000F04F9BB000F5FC730A930023434A079340
:100BE000DFF80C91099000F2272308920B9300275D
:100BF00059F82730DBB20137FF2BBFB2F8D1D9F853
:100C0000003006974FF0FF32C3F3074A0592C3F353
:100C1000072B4FEA13680024D64659F8045FC5F342
:100C200007464FEA241CC5F30727ECB2F1B2C5F31F
:100C300007650391E9B204915FFA8CF1029106997C
:100C40000F290CAA0EA84FEA14135FFA87FA0CD8E2
:100C500005998C4507DC0F2905D00131C9B28B42BB
:100C6000029138BF0B4659B205910DA90091029926
:100C70008DF830B08DF831E08DF832808DF8347019
:100C80008DF835608DF836500AF092FBFF2CD34674
:100C9000DDF80CE0DDF81080BFD10A9B0EAA93426C
:100CA00018D0099B0B9C03F2F71301E0A34211D06B
:100CB00012F8011B13F8010F8842F7D00A4B079A6C
:100CC0001B7801329342079209DD089B53F8049F79
:100CD00008938CE7099B9DF81C2083F829221BB000
:100CE000BDE8F08F704700BF5887FF1F5410010008
:100CF000F81B01002DE9F041424D82B001AA002409
:100D0000284696218DF804408DF805408DF8064060
:100D10000AF01EFB3C4985F8C64105F5E470FFF773
:100D2000F3FE3A4905F5FC70FFF7EEFE2846FFF7A3
:100D300049FF374B374A187885F82C02234601E0E3
:100D4000212B08D012F8011F8142DCB203F101030C
:100D5000F6D185F82B42304EDFF8D0802F4F00249B
:100D600001AA304696218DF804408DF805408DF893
:100D700006400AF0EDFA012306F5E470284986F8EA
:100D8000C631FFF7C1FE274906F5FC70FFF7BCFE30
:100D900095F82B3286F82B323046FFF713FF01AA65
:100DA000404696218DF804408DF805408DF80640A8
:100DB0000AF0CEFA022308F5E4701B4988F8C63120
:100DC000FFF7A2FE08F5FC701749FFF79DFE01AA88
:100DD000384696218DF804408DF805408DF8064080
:100DE0000AF0B6FA032307F5E4700F4987F8C63115
:100DF000FFF78AFE07F5FC700B49FFF785FE02B08E
:100E0000BDE8F081F4A6FF1F442001009C160100FC
:100E10005187FF1F2787FF1FB88CFF1F989EFF1F5A
:100E2000141E0100D41D0100BC1E01002896FF1FE6
:100E300010B5122182B03448344C0CF05DFB344BB9
:100E4000204619780CF0ACFD20460CF059FD11211C
:100E500030480CF051FB304B204619780CF0A0FDC7
:100E600020460CF04DFD15212C480CF045FB2C4B79
:100E7000204619780CF094FD20460CF041FD10211D
:100E800028480CF039FB284B204619880CF088FDC7
:100E900020460CF035FD142124480CF02DFB244B8A
:100EA000204619880CF07CFD20460CF029FD0F210E
:100EB00020480CF021FB204B204619880CF070FDD7
:100EC00002211E480CF018FB1D4B0A2219782046FF
:100ED00000230CF025FD01211A480CF00DFB2046E3
:100EE0000CF00EFD0E2118480CF006FB174B1B688A
:100EF0000193019900230A2220460CF011FD20469F
:100F00000CF0FEFC02B010BDC8F200009087FF1F7D
:100F10008787FF1FDCF200005287FF1FF0F20000FE
:100F20002287FF1F08F300002087FF1F1CF300002B
:100F3000B48CFF1F34F300002296FF1F44F300001F
:100F40007D95FF1F48F300004CF300008CB1FF1F9C
:100F50001E491F480B8803EB432203EB820303F572
:100F6000585319339BB203EB432203EB820202F581
:100F7000585203EB13231932DBB292B203EB430353
:100F8000F0B41B1202EB1227124E134DF35C134CFC
:100F90000A80FFB207EB870701223F120337934213
:100FA0002F70237002700CD006D3022B02D10C4B91
:100FB00000221A70F0BC70470A4B00221A70F0BC75
:100FC0007047074B4A221A70F0BC70478887FF1F92
:100FD0002095FF1F2487FF1F859EFF1F3495FF1F4D
:100FE0005C95FF1FB68CFF1FF8B5CA1C0446C31CD6
:100FF0000D4600F2C51012F8031C03F8031C12F88A
:10100000021C03F8021C12F8011C03F8011C033334
:10101000984202F10302EED195F8C23184F8C23150
:1010200095F8C33184F8C33195F8C73195F8C401F8
:1010300095F8C51195F8C62184F8C62184F8C73102
:1010400084F8C40184F8C511302205F5E47104F573
:10105000E4700DF02DFF302205F5FC7104F5FC70F5
:101060000DF026FF95F8283284F8283295F82932B9
:1010700084F8293295F82A3284F82A3295F82B32EE
:1010800084F82B3295F82C1295F82D2295F82E32F3
:1010900084F82E3284F82C1284F82D2295F82F3201
:1010A00084F82F3295F8303284F8303295F83132A6
:1010B00084F8313295F8323284F8323295F833328E
:1010C00084F8333295F8352295F8363295F8341293
:1010D00084F8341284F8352284F8363295F83732A1
:1010E00084F8373295F8383284F8383295F8393246
:1010F00084F8393295F83A3284F83A3205F23E22D1
:1011000004F23E2304F27A2012F8031C03F8031CB5
:1011100012F8021C03F8021C12F8011C03F8011C4F
:101120000333984202F10302EED195F8773284F846
:10113000773295F8783284F8783295F8793284F8F5
:10114000793295F87A3284F87A3295F87B3284F8DD
:101150007B3295F87C3284F87C3295F87D3284F8C5
:101160007D3295F87E3284F87E3295F87F3284F8AD
:101170007F3205F27F2204F5207304F2CB2012F8AF
:10118000011F03F8011B8342F9D105F2CA2204F2C0
:10119000163012F8011F03F8011B8342F9D195F8AC
:1011A000163384F8163395F8173384F8173395F807
:1011B000182395F8193384F8193384F8182395F80F
:1011C0001A3384F81A3395F81B3384F81B33B5F8B7
:1011D0001C13B5F81E23B5F82033A4F82033A4F867
:1011E0001C13A4F81E2395F8223384F8223395F8B3
:1011F000233384F8233395F8243384F8243395F883
:10120000253384F8253395F8263384F8263395F86A
:10121000273384F82733B5F82833A4F82833B5F8F2
:101220002A03B5F82C13B5F82E23B5F83033B5F8EA
:101230003273B5F83463A4F82A03B5F83603A4F87A
:101240002C13B5F83813A4F82E23B5F83A23A4F8D4
:101250003033B5F83C33A4F83C33A4F83813A4F881
:101260003A23A4F83273A4F83463A4F8360395F84B
:101270003E3384F83E3395F83F3384F83F3395F896
:10128000403384F8403395F8413384F8413395F87E
:10129000423384F8423395F8433384F8433395F866
:1012A000443384F8443395F8453384F8453395F84E
:1012B000463384F8463395F8473384F8473395F836
:1012C000483384F8483395F8493384F8493395F81E
:1012D0004A3384F84A3395F84B3384F84B3395F806
:1012E0004C3384F84C3395F84D3384F84D3395F8EE
:1012F0004E3384F84E3395F84F3384F84F3395F8D6
:10130000503384F8503395F8513384F8513395F8BD
:10131000523384F8523395F8533384F8533395F8A5
:101320005413D5F8582395F85C3384F85C3384F86B
:101330005413C4F8582395F85D3384F85D3304F5ED
:10134000587205F5577104F58A6351F8040F42F895
:10135000040B9342F9D105F24C4204F5A86052F80F
:10136000041F43F8041B8342F9D105F23F5204F2F3
:101370007C5012F8011F03F8011B8342F9D105F5D7
:10138000AF6104F26C6251F8040F43F8040B9A4207
:10139000F9D1134604F25C7005F5CD6252F8041FD2
:1013A00043F8041B9842F9D195F85C3784F85C3710
:1013B00095F85D3784F85D3795F85E3784F85E37C9
:1013C000B5F86017B5F86227B5F86437A4F8643744
:1013D000A4F86017A4F8622795F8663784F8663792
:1013E00095F8673784F8673795F8683784F8683771
:1013F00095F8693784F8693795F86A3784F86A3759
:1014000005F5ED6104F26C7304F28C7251F8040F6F
:1014100043F8040B9A42F9D105F5F16104F2AC737B
:1014200051F8040F42F8040B9342F9D105F5F56227
:1014300004F2CC7052F8041F43F8041B8342F9D124
:1014400005F5F96204F2EC7052F8041F43F8041B2E
:101450008342F9D105F5FD6204F60C0052F8041F31
:1014600043F8041B8342F9D105F6080204F62C0068
:1014700052F8041F43F8041B8342F9D1B5F82C3805
:10148000A4F82C3895F82E3884F82E38B5F8301892
:10149000D5F83428D5F83838C4F83838A4F83018D6
:1014A000C4F8342895F83C3884F83C3895F83D3831
:1014B00084F83D3895F83E3884F83E3895F83F3842
:1014C00084F83F3895F8403884F8403895F841085A
:1014D000D5F8483895F84218D5F84428C4F8442877
:1014E00084F8410884F84218C4F8483895F84C3814
:1014F00084F84C3895F84D3884F84D3895F84E38C6
:1015000084F84E3895F84F3884F84F3895F85038AD
:1015100084F8503895F8513884F8513895F8523895
:1015200084F8523895F8533884F8533895F854387D
:1015300084F8543895F8553884F855382046F8BD65
:1015400030B51D4D1D4C83B00023284601AA9621BD
:1015500023708DF804308DF805308DF8063009F0D1
:10156000F7FE28461649FFF73FFD95F8C7313BB116
:10157000144C15492046FFF737FD022384F8C63185
:10158000002401AA96210E488DF804408DF80540EC
:101590008DF8064009F0DCFE01AA96210A488DF874
:1015A00004408DF805408DF8064009F0D1FE85F81D
:1015B000C64103B030BD00BFF4A6FF1F2095FF1F3A
:1015C000B88CFF1F2896FF1F989EFF1F2DE9F04340
:1015D0002F4D304E304C314F85B005F5E178324615
:1015E00029463B78DFF8B49003A8033509F0A2FF41
:1015F0009DF80C109DF80D209DF80E30217045458A
:101600006270A37006F1030604F10304E7D1244ECF
:101610003368DB071FD5234D234C2B68039394E8D5
:101620000600039B5B1A93420CD33B782A68029214
:101630000133029A2260DBB23B70FF2B06D005B06B
:10164000BDE8F08399F80030FF2BF8D1FFF778FF61
:1016500005B0BDE8F08330460AF0B6FE114D50B932
:10166000114C2B68039394E80600039B5B1A93428A
:10167000DBD23B78E1E70D4B2A681B780A4C0192DC
:10168000019A22609B00304663600AF0A3FEE8E7FF
:10169000F4A6FF1FB88CFF1F4CAFFF1FB68CFF1FB7
:1016A0001496FF1F8CB1FF1F2495FF1F859EFF1FFF
:1016B0002DE9F04F944E96F800C01FFA8CF385B0D8
:1016C000002B00F01E8103F1FF3B1FFA8BFB8F48BC
:1016D0008F490BF1010B0BEB4B0B834402460D467C
:1016E0000C46177892F801A092F802902770033206
:1016F00090F8BF8190F8C0E190F8C17184F801A022
:101700005A4584F80290A0F1030081F8BF8181F866
:10171000C0E181F8C17104F10304A1F10301E0D13A
:101720004A2B27D87B48C3F1950203EB430102EB18
:10173000420200EB010800EB020E01336F1810F8B3
:1017400001B005F801B0AC189BB298F801A098F868
:1017500002909EF801B010F802809EF8021087F8FF
:1017600001A04B2B87F8029005F8028084F801B0A5
:10177000A170D8D10CF1FF3A0AEB4A0A802405EB9C
:101780000A0B5946234603A802AA00278DF80940F0
:101790008DF80A408DF8087009F0CCFE96F80080AC
:1017A0009DF80C309DF80D209DF80E0005F80A30CC
:1017B000C8F1960808EB480805EB08094946234696
:1017C0008BF801208BF8020002AA03A88DF808709C
:1017D0008DF809408DF80A4009F0ACFE32789DF88A
:1017E0000C1005F80810C2F195019DF80D0089F85C
:1017F000010002EB420C01EB41019DF80E3089F82B
:10180000023005EB0C0E6818FF23492A05F80C304E
:10181000DFF8FC808EF801308EF80230DFF8E890B7
:101820006B54437083702ED93B4F3B68DB0717D551
:101830003A4D3B4C2B68039394E80600039B5B1ADC
:101840009342337806D32A680292013B029A2260BF
:10185000DBB233700BB9FFF773FE05B0BDE8F08F54
:1018600038460AF0B1FD2D4D0028E2D02D4B2A68F4
:101870001B782B4C0192019A22609B0038466360D2
:101880000AF0A8FDD6E7551C05EB450508EB050A4F
:101890005146234602AA03A88DF808708DF8094026
:1018A0008DF80A4009F046FE99F800308DF808706E
:1018B000C3F1940707EB470708EB07099DF80CC035
:1018C0009DF80DE09DF80EB008F805C002AA234669
:1018D000494603A88AF801E08AF802B08DF8094069
:1018E0008DF80A4009F026FE9DF80C109DF80D2099
:1018F0009DF80E3008F8071089F8012089F80230A9
:1019000092E7034D0EE700BF5C95FF1FF4A6FF1F93
:101910004CAFFF1FB88CFF1F1896FF1F8CB1FF1F25
:101920003895FF1F859EFF1F2DE9F04FA24B1D78B4
:10193000ABB285B0002B00F0308103F1FF3B1FFA02
:101940008BFB9E489E490BF1010B0BEB4B0B834429
:1019500002460C460E4692F800E092F801A092F87A
:10196000029086F800E0033290F8BF8190F8C0C181
:1019700090F8C1E186F801A05A4586F80290A0F1DE
:10198000030081F8BF8181F8C0C181F8C1E106F18F
:101990000306A1F10301DED14A2B28D88948C3F1FF
:1019A000950203EB430102EB420200EB010800EB5E
:1019B000020C013304EB010E10F801B004F801B081
:1019C000A6189BB298F801A098F802909CF801B074
:1019D00010F802809CF802108EF801A04B2B8EF8B4
:1019E000029004F8028086F801B0B170D7D1002DC2
:1019F00040F08F800DF10C0A0DF1080B6E4B1B7837
:101A0000C3F1950000EB40005A1C03EB430304EBC9
:101A1000030E251802EB4202802604EB020917464A
:101A2000FF22E2544FF000088EF801208EF80220C9
:101A30003346225449466A70AA7050465A468DF879
:101A400009608DF80A608DF8088009F073FD5A4B23
:101A50009DF80C101D789DF80DE08DF80880C5F1FB
:101A6000940505EB450504EB050833468DF8096040
:101A70008DF80A609DF80E60E1555A465046414681
:101A800089F801E089F8026009F054FD4E4B9DF899
:101A90000C001B689DF80D109DF80E206055DB07AB
:101AA000454888F8011088F8022020D5474D484C59
:101AB0002B68039394E80600039B5B1A93420ED3B2
:101AC0003D4B2A681B780292029A226001333A4AFF
:101AD000DBB213704A2B05D005B0BDE8F08F037858
:101AE0004A2BF9D1FFF72CFD05B0BDE8F08F364841
:101AF000364D0AF069FC002851D1354C2B68039310
:101B000094E80600039B5B1A9342D9D22A4B1B78B8
:101B1000E0E7013D05EB4505802604EB05090DF1E5
:101B20000C0A0DF1080B4FF00008494633465046A9
:101B30005A468DF808808DF809608DF80A6009F022
:101B4000F9FC1D4B9DF80C201B789DF80DC09DF8ED
:101B50000EE08DF80880C3F1960303EB430304EB1A
:101B6000030862551F46414633465A46504689F897
:101B700001C089F802E08DF809608DF80A6009F06B
:101B8000D9FC9DF80C109DF80D209DF80E30E15504
:101B900088F8012088F8023030E7094CFEE60D4B4A
:101BA0002A681B780A4C0192019A22609B00064821
:101BB00063600AF00FFCA1E75C95FF1FB88CFF1F64
:101BC0004CAFFF1FF4A6FF1F1C96FF1F8CB1FF1F19
:101BD000889EFF1F859EFF1F012806D003D3022881
:101BE00001D1FFF7A1BEFFF7F1BCFFF761BD00BF58
:101BF00010B51021044694480BF07EFC21460023CA
:101C00000A2292480BF08CFE022191480BF074FCE2
:101C10005C2C00F28182DFE814F07A027502700217
:101C20006B02660261025C02570252024D024802D8
:101C300043023E02390234022F022A022502200208
:101C40001B02160211020C0207020202FD01F8013A
:101C5000F301EE01E901E401DF01DA01D501D00170
:101C6000CB01C601C101BC01B701B201AD01A801A0
:101C7000A3019E01990194018F018A0185018001D0
:101C80007B01760171016C01670111010C010701F3
:101C90000201FD00F800F300EE00E900E400DF00BF
:101CA000DA00D500D000CB00C600C100BC00B700F0
:101CB000B200AD00A800A3009E00990094008F0020
:101CC0008A00850080007B00760071006C00670050
:101CD00062005D005F495D48FEF75AFE10BD5E4937
:101CE0005A48FEF755FE10BD5C495848FEF750FEB5
:101CF00010BD5B495548FEF74BFE10BD594953488E
:101D0000FEF746FE10BD58495048FEF741FE10BD93
:101D100056494E48FEF73CFE10BD55494B48FEF76C
:101D200037FE10BD53494948FEF732FE10BD5249F7
:101D30004648FEF72DFE10BD50494448FEF728FEE8
:101D400010BD4F494148FEF723FE10BD4D493F48A5
:101D5000FEF71EFE10BD4C493C48FEF719FE10BDB3
:101D60004A493A48FEF714FE10BD49493748FEF784
:101D70000FFE10BD47493548FEF70AFE10BD464923
:101D80003248FEF705FE10BD44493048FEF700FE1C
:101D900010BD43492D48FEF7FBFD10BD41492B48BE
:101DA000FEF7F6FD10BD40492848FEF7F1FD10BDD5
:101DB0003E492648FEF7ECFD10BD3D492348FEF79D
:101DC000E7FD10BD3B492148FEF7E2FD10BD3A4951
:101DD0001E48FEF7DDFD10BD38491C48FEF7D8FD52
:101DE00010BD37491948FEF7D3FD10BD35491748D6
:101DF000FEF7CEFD10BD34491448FEF7C9FD10BDF5
:101E000032491248FEF7C4FD10BD31490F48FEF7B4
:101E1000BFFD10BD2F490D48FEF7BAFD10BD2E497C
:101E20000A48FEF7B5FD10BD2C490848FEF7B0FD85
:101E300010BD2B490548FEF7ABFD10BD29490348ED
:101E4000FEF7A6FD10BD00BF5CF300009087FF1FEA
:101E500070F3000004F90000F8F80000E8F8000052
:101E6000D8F80000C4F80000ACF8000094F80000B6
:101E700084F800006CF8000060F8000054F80000DE
:101E80003CF8000030F8000024F8000018F80000CA
:101E90000CF80000FCF70000F0F70000DCF7000091
:101EA000D0F70000C0F70000B4F70000A8F700006A
:101EB000A0F700008CF700007CF7000068F7000036
:101EC0005CF7000050F7000044F7000034F7000012
:101ED00020F7000014F7000004F70000F8F60000F7
:101EE000E8F60000DCF600008E498F48FEF750FD52
:101EF00010BD8E498C48FEF74BFD10BD8C498A48B9
:101F0000FEF746FD10BD8B498748FEF741FD10BD29
:101F100089498548FEF73CFD10BD88498248FEF797
:101F200037FD10BD86498048FEF732FD10BD85495A
:101F30007D48FEF72DFD10BD83497B48FEF728FD47
:101F400010BD82497848FEF723FD10BD80497648D0
:101F5000FEF71EFD10BD7F497348FEF719FD10BD49
:101F60007D497148FEF714FD10BD7C496E48FEF7AF
:101F70000FFD10BD7A496C48FEF70AFD10BD794986
:101F80006948FEF705FD10BD77496748FEF700FD7B
:101F900010BD76496448FEF7FBFC10BD74496248E9
:101FA000FEF7F6FC10BD73495F48FEF7F1FC10BD6B
:101FB00071495D48FEF7ECFC10BD70495A48FEF7C8
:101FC000E7FC10BD6E495848FEF7E2FC10BD6D49B4
:101FD0005548FEF7DDFC10BD6B495348FEF7D8FCB1
:101FE00010BD6A495048FEF7D3FC10BD68494E4801
:101FF000FEF7CEFC10BD67494B48FEF7C9FC10BD8B
:1020000065494948FEF7C4FC10BD64494648FEF7DF
:10201000BFFC10BD62494448FEF7BAFC10BD6149DF
:102020004148FEF7B5FC10BD5F493F48FEF7B0FCE4
:1020300010BD5E493C48FEF7ABFC10BD5C493A4818
:10204000FEF7A6FC10BD5B493748FEF7A1FC10BDAA
:1020500059493548FEF79CFC10BD58493248FEF7F7
:1020600097FC10BD56493048FEF792FC10BD55490B
:102070002D48FEF78DFC10BD53492B48FEF788FC18
:1020800010BD52492848FEF783FC10BD5049264830
:10209000FEF77EFC10BD4F492348FEF779FC10BDCA
:1020A0004D492148FEF774FC10BD4C491E48FEF70F
:1020B0006FFC10BD4A491C48FEF76AFC10BD494937
:1020C0001948FEF765FC10BD47491748FEF760FC4C
:1020D00010BD46491448FEF75BFC10BD4449124848
:1020E000FEF756FC10BD43490F48FEF751FC10BDEA
:1020F00041490D48FEF74CFC10BD40490A48FEF727
:1021000047FC10BD3E490848FEF742FC10BD3D4962
:102110000548FEF73DFC10BD3B490348FEF738FC7F
:1021200010BD00BFC8F600009087FF1FB8F6000082
:10213000ACF60000A0F6000094F6000080F6000067
:1021400074F6000068F600005CF6000044F600003B
:102150003CF60000D4F6000030F6000024F6000043
:1021600010F60000FCF50000ECF50000E0F50000C2
:10217000D4F50000C8F50000BCF50000B0F5000083
:10218000A4F5000098F500008CF5000080F5000033
:1021900074F5000068F5000058F5000044F50000F3
:1021A00028F5000010F50000F4F40000E4F400004D
:1021B000D4F40000C0F40000B0F40000A8F4000063
:1021C000A0F4000088F4000078F4000070F400002F
:1021D00060F4000050F4000040F400002CF4000013
:1021E00018F4000004F40000ECF30000D4F3000045
:1021F000C4F30000B0F300009CF300008CF3000077
:1022000080F3000074F300001CF9000038B50021D1
:1022100004468E480BF070F98D480BF071FB2221BB
:102220008C480BF069F98A480BF06AFB94F8C631C8
:10223000002B00F0AE80012B00F04E861321864863
:102240000BF05AF9854B824819780A2200230BF0CB
:1022500067FB032182480BF04FF97D480BF050FBE0
:10226000132180480BF048F90A22002394F8C31187
:1022700077480BF055FB032179480BF03DF9744882
:102280000BF03EFB112178480BF036F994F8C5119C
:102290006F480BF085FB032171480BF02DF96C485A
:1022A0000BF02EFB112171480BF026F994F828321F
:1022B000012B0BBF0B2107216D486E480BF01CF959
:1022C00014216D480BF018F900230A2294F82B1200
:1022D0005F480BF025FB032161480BF00DF95C48CA
:1022E0000BF00EFB152165480BF006F994F82E1241
:1022F00057480BF055FB032159480BF0FDF85448A3
:102300000BF0FEFA11215E480BF0F6F894F82A1251
:102310004F480BF045FB032151480BF0EDF84C48BA
:102320000BF0EEFA94F82A3273BB222149480BF0E5
:10233000E3F847480BF0E4FA94F82D32202B00F232
:10234000BD85DFE813F0AF00BB05BB05BB05BB05D2
:10235000BB052901BB05BB05BB05BB057B01BB0557
:10236000BB05BB05BB05BB058901B8053C043E04A4
:1023700056040905940125026A02BB05A902FF0261
:102380002803C30306042B0094F82902FFF730FC4E
:10239000CBE73C492E48FEF7FBFA4FE73A492C4879
:1023A000FEF7F6FA39492A48FEF7E4FA00230A2232
:1023B00094F8551826480BF0B3FA29492448FEF73B
:1023C000E7FA33492248FEF7D5FA00230A2294F8A7
:1023D00051181F480BF0A4FA21491D48FEF7D8FAFE
:1023E0002C491B48FEF7C6FA00230A2294F852181B
:1023F00017480BF095FA1A491548FEF7C9FA26490D
:102400001348FEF7B7FA00230A2294F8531810482D
:102410000BF086FA12490E48FEF7BAFA1F490C482B
:10242000FEF7A8FA94F85418094800230A220BF082
:1024300077FA0B490648FEF7ABFA232118480BF050
:102440005BF80348BDE838400BF05ABAD0FA0000F8
:102450009087FF1F34F90000A0F900002387FF1FB9
:10246000B4F90000B8F90000CCF90000E0F9000070
:10247000F4F9000000FA000008FA000020FA000059
:1024800038FA000058F90000440401006804010013
:102490007C04010090040100A4040100B8040100C0
:1024A000F004010094F82C329F48042B0CBF9F4984
:1024B0009F49FEF76DFA9F499B48FEF75BFA94F837
:1024C000C41199480BF06CFA9B499748FEF760FAE3
:1024D0009A499548FEF74EFA94F8351292480BF057
:1024E0005FFA95499048FEF753FA95498E48FEF7F2
:1024F00041FA94F836128C480BF052FA8E498A4809
:10250000FEF746FA8F498848FEF734FA00230A227C
:1025100094F8301284480BF003FA87498248FEF79A
:1025200037FA89498048FEF725FA00230A2294F8F1
:1025300031127D480BF0F4F97F497B48FEF728FA09
:1025400082497948FEF716FA00230A2294F83212DB
:1025500075480BF0E5F978497348FEF719FA7C499C
:102560007148FEF707FA00230A2294F833126E48E6
:102570000BF0D6F970496C48FEF70AFA75496A48BB
:10258000FEF7F8F994F8341267480BF009FA6A4933
:102590006548FEF7FDF950E794F82C32072B00F060
:1025A0000585092B00F02C85062B03D16A495E486E
:1025B000FEF7EEF95F495C48FEF7DCF994F8C411C8
:1025C00059480BF0EDF95C495748FEF7E1F96349CA
:1025D0005548FEF7CFF994F87B1253480BF0E0F919
:1025E00055495148FEF7D4F95D494F48FEF7C2F905
:1025F00000230A2294F879124B480BF091F94E49C6
:102600004948FEF7C5F957494748FEF7B3F9002393
:102610000A2294F8781244480BF082F9464942485D
:10262000FEF7B6F994F82C32092B7FF406AF4E4929
:102630003D48FEF79FF994F83112F5E694F82C32F4
:102640000B3B052B00F25284DFE813F0D0044C045E
:10265000CB04C604C104BC0444493348FEF798F9CE
:1026600034493148FEF786F994F8C4118CE74049A3
:102670002D48FEF78DF93F492B48FEF77BF994F87A
:102680005433012B00F09884C0F0C084022B07D192
:1026900039492548FEF76EF927492348FEF778F9AE
:1026A00036492148FEF766F900230A2294F85113AF
:1026B0001D480BF035F920491B48FEF769F93049F0
:1026C0001948FEF757F900230A2294F85D131648BB
:1026D0000BF026F918491448FEF75AF9294912480F
:1026E000FEF748F900230A2294F85C170E480BF015
:1026F00017F911490C48FEF74BF923490A48FEF730
:1027000039F900230A22D4F8581307480BF008F9C6
:1027100009490548FEF73CF91C490348FEF72AF928
:1027200094F8C71130E700BF9087FF1F4CFA0000F4
:1027300070FA000094FA0000B4F90000ACFA00004E
:10274000C0FA0000D4FA0000E8FA0000F8FA00002D
:1027500008FB000018FB000030FB00009CFB0000A1
:10276000ACFB0000BCFB0000CCFB000030FD000017
:10277000D8FD0000FCFD000010FE00002CFE000053
:1027800044FE00005CFE000074FE000090FE0000AD
:10279000AD49AE48FEF7FCF8AD49AC48FEF7EAF8A3
:1027A000B4F83C13A9480BF0FBF8AA49A748FEF778
:1027B000EFF8A949A548FEF7DDF800230A2294F8AE
:1027C0005E17A2480BF0ACF8A249A048FEF7E0F86B
:1027D000A2499E48FEF7CEF800230A2294F832124E
:1027E0009A480BF09DF89B499848FEF7D1F89C4910
:1027F0009648FEF7BFF800230A2294F83112934856
:102800000BF08EF893499148FEF7C2F895498F482E
:10281000FEF7B0F894F8331206E693498B48FEF7BA
:10282000B7F892498948FEF7A5F894F8C41187488B
:102830000BF0B6F887498548FEF7AAF88C4983481B
:10284000FEF798F8B4F8601780480BF0A9F88149B2
:102850007E48FEF79DF887497C48FEF78BF8B4F870
:1028600062177A480BF09CF87A497848FEF790F89E
:1028700081497648FEF77EF8B4F8641773480BF088
:102880008FF874497148FEF783F87C496F48FEF76A
:1028900071F894F86717C7E579496C48FEF778F83E
:1028A00078496A48FEF766F800230A2294F8321243
:1028B00066480BF035F867496448FEF769F87249D5
:1028C0006248FEF757F800230A2294F83A125F484C
:1028D0000BF026F85F495D48FEF75AF86B495B48F4
:1028E000FEF748F800230A2294F8311257480BF0FB
:1028F00017F858495548FEF74BF865495348FEF715
:1029000039F800230A2294F8791250480BF008F89D
:1029100050494E48FEF73CF85E494C48FEF72AF80D
:1029200000230A2294F8381248480AF0F9FF49496E
:102930004648FEF72DF858494448FEF71BF894F82E
:10294000771221E655494148FEF722F854493F489D
:10295000FEF710F800230A2294F869173B480AF0A2
:10296000DFFF3C493948FEF713F84E493748FEF778
:1029700001F800230A2294F86A1734480AF0D0FFBD
:1029800034493248FEF704F847493048FDF7F2FF72
:1029900094F82A12F8E545492C48FDF7F9FF444917
:1029A0002A48FDF7E7FF94F82A1228480AF0F8FFB2
:1029B00028492648FDF7ECFF3E492448FDF7DAFF99
:1029C00000230A2294F82E1820480AF0A9FF214972
:1029D0001E48FDF7DDFF38491C48FDF7CBFF0023FB
:1029E0000A2294F83D1819480AF09AFF1949174825
:1029F000FDF7CEFF31491548FDF7BCFFB4F830189C
:102A000012480AF0CDFF13491048FDF7C1FF2C49C9
:102A10000E48FDF7AFFF94F83E38012B00F0C1825D
:102A2000C0F0E982022B03D126490848FDF7A2FF36
:102A300008490648FDF7ACFF23490448FDF79AFF13
:102A4000B4F82C18A0E500BF6C0001009087FF1FB0
:102A500090000100B4F90000A8000100BC000100D2
:102A6000D4000100EC0001000401010094FA000010
:102A70002801010040010100580101006C01010022
:102A800080010100A4010100BC010100D40101008A
:102A9000EC010100040201001802010030020100F3
:102AA000540201006402010080020100980201004A
:102AB000BC020100D4020100EC0201000403010089
:102AC000180301002C0301003C0301008A498B48D4
:102AD000FDF75EFF8A498948FDF74CFF94F8C41161
:102AE00086480AF05DFF87498448FDF751FF864913
:102AF0008248FDF73FFF00230A2294F83F187F48E1
:102B00000AF00EFF7F497D48FDF742FF7F497B4871
:102B1000FDF730FF00230A2294F8401877480AF0A6
:102B2000FFFE78497548FDF733FF79497348FDF793
:102B300021FF94F8411871480AF032FF71496F483B
:102B4000FDF726FF73496D48FDF714FF94F842180E
:102B50001AE571496948FDF71BFF69496748FDF7A8
:102B600009FF94F8C41165480AF01AFF65496348E3
:102B7000FDF70EFF69496148FDF7FCFE00230A22BC
:102B800094F84C185D480AF0CBFE5E495B48FDF7AF
:102B9000FFFE63495948FDF7EDFE00230A2294F831
:102BA0004D1856480AF0BCFE56495448FDF7F0FE51
:102BB0005C495248FDF7DEFE94F84E1834E45A4959
:102BC0004BE55A494D48FDF7E3FE4D494B48FDF7AB
:102BD000D1FE94F8C41149480AF0E2FE4949474839
:102BE000FDF7D6FE52494548FDF7C4FE94F83E1362
:102BF0001AE450494148FDF7CBFE41493F48FDF7F3
:102C0000B9FE94F8C4113D480AF0CAFE3D493B485C
:102C1000FDF7BEFE48493948FDF7ACFE00230A2205
:102C200094F83F1335480AF07BFE36493348FDF7E8
:102C3000AFFE42493148FDF79DFE00230A2294F879
:102C400040132E480AF06CFE2E492C48FDF7A0FEDA
:102C50003B492A48FDF78EFE00230A2294F84113CF
:102C600026480AF05DFE27492448FDF791FE112110
:102C700034480AF041FC00230A2294F842131F480A
:102C80000AF04EFE1F491D48FDF782FE2E491B48E3
:102C9000FDF770FE00230A2294F8461317480AF045
:102CA0003FFE18491548FDF773FE28491348FDF704
:102CB00061FE00230A2294F8431310480AF030FE04
:102CC00010490E48FDF764FE21490C48FDF752FEFD
:102CD00000230A2294F84F1308480AF021FE0949FC
:102CE0000648FDF755FE1B490448FDF743FE94F8DE
:102CF0005013FFF799BB00BF4C0301009087FF1FE3
:102D000094FA0000B4F90000700301008803010088
:102D1000A4030100C0030100D8030100FC0301006B
:102D2000140401002C04010078FD00009CFD00004B
:102D3000C0FD0000A8FE0000CCFE0000E0FE000088
:102D4000F4FE000008FF00001CFF000030FF000040
:102D500044FF000058FF0000AE49AF48FDF718FEE1
:102D6000AE49AD48FDF706FE94F8C411AA480AF032
:102D700017FEAB49A848FDF70BFEAA49A648FDF788
:102D8000F9FD00230A2294F84713A3480AF0C8FD6E
:102D9000A349A148FDF7FCFDA3499F48FDF7EAFDC3
:102DA00000230A2294F84D139B480AF0B9FD9C4970
:102DB0009948FDF7EDFD9D499748FDF7DBFD0023A0
:102DC0000A2294F8401394480AF0AAFD94499248C4
:102DD000FDF7DEFD96499048FDF7CCFD00230A2261
:102DE00094F849138C480AF09BFD8D498A48FDF7F9
:102DF000CFFD90498848FDF7BDFD00230A2294F8D5
:102E0000421385480AF08CFD85498348FDF7C0FDD3
:102E100089498148FDF7AEFD00230A2294F84A1340
:102E20007D480AF07DFD7E497B48FDF7B1FD834971
:102E30007948FDF79FFD00230A2294F84113764854
:102E40000AF06EFD76497448FDF7A2FD7C49724890
:102E5000FDF790FD00230A2294F84B136E480AF008
:102E60005FFD6F496C48FDF793FD76496A48FDF7B1
:102E700081FD00230A2294F8461367480AF050FDAA
:102E800067496548FDF784FD6F496348FDF772FDAA
:102E900000230A2294F84C135F480AF041FD604970
:102EA0005D48FDF775FD69495B48FDF763FD94F8E2
:102EB0004313FFF7B9BA6649FFF7CFBB65495648D8
:102EC000FDF766FD64495448FDF762FD61495248CB
:102ED000FDF75EFDFFF7B1BA60494F48FDF758FDB9
:102EE000FFF7ACB95E494C48FDF752FD5D494A48D1
:102EF000FDF740FD00230A2294F87C1246480AF0B0
:102F00000FFD47494448FDF743FD57494248FDF747
:102F100031FD00230A2294F87E123F480AF000FD9A
:102F20003F493D48FDF734FD94F81853D5B14F495A
:102F30003948FDF71FFD94F8181337480AF030FDA3
:102F400037493548FDF724FD94F82C320F3B012B0F
:102F50003FF673AA46493048FDF70CFD94F81B1361
:102F6000FFF762BA43492C48FDF704FD2B460A22BD
:102F700094F87D1228480AF0D3FC29492648FDF729
:102F800007FD3D492448FDF7F5FC94F87F122248DF
:102F90002B460A220AF0C4FC21491F48FDF7F8FC21
:102FA000C5E736491C48FDF7E5FC41E534491A48B8
:102FB000FDF7EEFCFFF7FEBA32491748FDF7E8FCD3
:102FC000FFF76EBB30491448FDF7E2FC8EE72F494E
:102FD0001148FDF7DDFC89E72D490F48FDF7D8FCC6
:102FE00084E72C490C48FDF7D3FC7FE72A490A48BF
:102FF000FDF7CEFC7AE729490748FDF7BBFC17E54A
:1030000027490548FDF7C4FCFFF7D4BA2549FFF767
:1030100040BB00BF6CFF00009087FF1F94FA0000C8
:10302000B4F9000090FF0000A4FF0000B8FF00000A
:10303000CCFF0000E0FF0000F4FF000008000100EA
:103040001C00010030000100440001005800010094
:1030500054FD0000D0FA0000CC0401007CF900000F
:1030600050FC0000BCFC0000D0FC00000CFD000087
:103070001CFD0000E4FC0000F8FC0000340301002B
:1030800054FB000020FE000008FC0000E4FB0000F0
:1030900098FC000074FC00002CFC00001CFE0000EA
:1030A00078FB000018FE00002DE9F04F8DB03421B0
:1030B000054609904648474C0AF01EFA46480AF071
:1030C0001FFC332145480AF017FA43480AF018FC60
:1030D000332143480AF010FA3F480AF011FC4148F6
:1030E000414A0388117803EB432203EB820303F583
:1030F000585319339BB203EB1322D2B212FB01F2E5
:103100001212038054F8228085F82922002758F8EB
:103110002730DBB20137FF2BBFB2F8D1D8F800302F
:10312000099A08974FEA136902F5FC72C3F3072B5B
:10313000C3F3074A4FF0FF33079206930024CE46AD
:1031400058F8045F0798C5F307274FEA241CC5F316
:103150000746ECB2F9B2C5F307650491E9B20591EF
:103160005FFA8CF1039108990F290AAA4FEA141308
:103170005FFA86F90CD806998C4507DC0F2905D033
:103180000131C9B28B42039138BF0B4659B2069147
:103190000BA9009103998DF828B08DF829A08DF81E
:1031A0002AE08DF82C708DF82D608DF82E5008F0E7
:1031B000FFF8FF2CDDF810B0DDF814E0CA46BFD1EF
:1031C000099B93F82902FEF713FD0DB0BDE8F08FBF
:1031D00014050100541001009087FF1F4C050100E9
:1031E000800501008887FF1F5887FF1F244B254A51
:1031F0001B7800211170072B09D8DFE803F0131C9E
:10320000252E34043A0A204B1B8880F83232FEF710
:10321000FDBF1D4B1B88003318BF012380F83432DB
:10322000FEF7F4BF184B1B88003318BF012380F84A
:10323000C431FEF7EBBF144B1B88003318BF0123CA
:1032400080F83532FEF7E2BF0F4B1B88003318BF02
:10325000012380F83632FEF7D9BF0B4B1B8880F86C
:103260003032FEF7D3BF084B1B8880F83132FEF7AF
:10327000CDBF054B1B8880F83332FEF7C7BF00BFB8
:10328000849EFF1F2196FF1F2295FF1F2DE9F04FFF
:1032900090F82E3289B00446002B40F09D80D44E29
:1032A00080F82D32338803EB432003EB800000F5D8
:1032B0005850193080B200EB402500EB850505F52C
:1032C00058551935ADB205EB452305EB830303F5DE
:1032D0005853193303EB432203EB820303F558538E
:1032E00019339BB203EB432103EB810101F55851E4
:1032F000193189B201EB412201EB820202F55852E9
:10330000193292B202EB422E02EB8E0E0EF5585E8F
:103310000EF1190E1FFA8EFE0EEB4E2C0EEB8C0CDE
:103320000CF5585C0CF1190C1FFA8CFC03EB1327FD
:103330000CEB4C280CEB880801EB1121FFB202EBDF
:1033400012220EEB1E2E07EB870708F55858C9B25C
:10335000D3B201EB4101CEF3C01208F119084FEAD4
:10336000272E1FFA88F88F1100EB10200EF10101B3
:1033700003EB430305EB15251B11C0F3C019C5F37F
:10338000C01507F1080001320CEB1C2C84F8301238
:1033900008EB182103F12007D2B2CCF3C01384F854
:1033A0003652C1F3C01184F831020F25012084F890
:1033B000359284F8327284F83322A6F8008084F8BB
:1033C000C41184F8343284F82E0284F82A0284F876
:1033D000C351002B40F07781864B1B78002B40F0C7
:1033E0007D8194F83432D3B1834B94F829120022B2
:1033F00003F1270084F82F2201E083420FD013F855
:10340000012F8A42F9D194F833327C4AA2FB03237C
:10341000DB080133002284F8333284F83422962109
:1034200094F83222204608F055F894F83512002915
:1034300040F0EC8094F8367294F83032002F00F0AF
:10344000AC81002B00F073826D4894F82F22DFF8D6
:10345000B4910390DFF8B0B10F460DF11C0A04F5EA
:10346000E47804F1E1055DE094F831123B440B444B
:10347000D9F800100491FF2B049998BF1B024FF458
:103480008C7000FB01F198BF9BB203FB01F31B0C96
:103490005804C3F3CA0103D5C1F5FF61073189B2EE
:1034A000080A039E365C3BF81000C1F3460106FB98
:1034B000010189B21E0448BF49420EB294F8281295
:1034C00094F8C23100915046414608F063F8A6F5E1
:1034D000004396229BB202FB03F31B0C03EB430356
:1034E000E118E25C9DF81C0082FA50F2E2549DF86B
:1034F0001D304A7882FA53F24A708B789DF81E206C
:1035000083FA52F38B7094F82F1294F8332294F8C4
:10351000303201370A44FFB2D2B2BB4284F82F22C4
:1035200040F2058294F8C41100299DD194F831121B
:103530003B440B44D9F800100591FF2B059998BF27
:103540001B024FF48C7000FB01F198BF9BB203FB90
:1035500001F31B0C5804C3F3CA0103D5C1F5FF6185
:10356000073189B2080A039E365C3BF81000C1F3AC
:10357000460106FB010189B21E0448BF49420EB252
:1035800094F8281294F8C23100915046414608F050
:1035900001F8A6F500439BB203EB8303C3EB0313CF
:1035A0001B0C03EB4303E118E25C9DF81C0082FA5C
:1035B00050F2E2549DF81D304A7882FA53F24A7074
:1035C0008B789DF81E2083FA52F38B702246234697
:1035D000197882F8BF11597882F8C011997882F869
:1035E000C11103339D42A2F10302F1D18BE700BF69
:1035F0008887FF1F2196FF1F5F87FF1FCDCCCCCC94
:10360000F81101008CB1FF1FC00A010094F8366266
:10361000002E67D094F83032002B00F0888100250E
:103620000DF11C0A04F5E4784FF4FA7639E006FB54
:1036300005F3002900F0B5819522002194F83102AC
:10364000FCF77AFF94F8281294F8C23194F82F22EC
:10365000009107464146504607F09CFF07EB4703A1
:10366000E118E25C9DF81C0082FA50F2E2544A78BC
:103670009DF81D3082FA53F24A708B789DF81E2017
:1036800083FA52F38B7094F82F1294F8333294F833
:1036900030220135EDB20B44AA4284F82F3240F2B9
:1036A000468194F8C53194F8C411002BBFD100298C
:1036B00000F0B8811946952206FB05F394F8310213
:1036C000FCF77CFFBEE702EB820202FA00F384F80B
:1036D0003332D04B1B78002B3FF483AE2046FFF7EC
:1036E00085FD7EE694F83012002900F020810DF16E
:1036F0001C0A04F5E47804F1E1053CE094F8C431D7
:1037000094F831023144002B00F014810023084466
:1037100095221946FCF710FF94F8281294F8C2314C
:1037200094F82F22009107464146504607F032FF99
:1037300007EB4703E118E25C9DF81C0082FA50F2A7
:10374000E2544A789DF81D3082FA53F24A708B7821
:103750009DF81E2083FA52F38B7094F82F2294F870
:10376000333294F830120136F6B21344B14284F881
:103770002F3240F2DC8094F8C531002BBED194F892
:10378000310294F8C42131440844002A00F08581B4
:1037900019469522FCF712FFBEE7002B00F0C78008
:1037A0009D4B94F82F22DFF874920393DFF870B2E8
:1037B00004F5E4784FF48C7A04F1E10557E0D9F888
:1037C00000300693069B94F831120AFB03F30902BA
:1037D00003FB01F3790301EB134399B24804C1F3EE
:1037E000CA0303D5C3F5FF6307339BB2180A039ED0
:1037F000365C3BF81000C3F3460306FB03039BB2A1
:103800000E0448BF5B4294F828121EB205A894F833
:10381000C2310091414607F0BDFEA6F50043962255
:103820009BB202FB03F31B0C03EB4303E118E25CC6
:103830009DF8140082FA50F2E2549DF815304A784F
:1038400082FA53F24A708B789DF8162083FA52F36D
:103850008B7094F82F2294F8333294F83012013799
:103860001A44FFB2D2B2B94284F82F225FD994F839
:10387000C431002BA3D1D9F800300793079994F8ED
:1038800031320AFB01F11B0203FB01F3790301EB67
:10389000134399B24804C1F3CA0303D5C3F5FF63C8
:1038A00007339BB2180A039E365C3BF81000C3F343
:1038B000460306FB030309049BB248BF5B4294F82E
:1038C00028121EB205A894F8C2310091414607F0B3
:1038D00061FEA6F500439BB203EB8303C3EB031326
:1038E0001B0C03EB4303E118E25C9DF8140082FA21
:1038F00050F2E2549DF815304A7882FA53F24A7039
:103900008B789DF8162083FA52F38B70224623465B
:10391000197882F8BF11597882F8C011997882F825
:10392000C1110333AB42A2F10302F1D191E709B017
:10393000BDE8F08F08444A221946FCF7FDFD94F8D3
:10394000281294F8C23194F82F220091074641467C
:10395000504607F01FFE07EB4703E118E25C9DF8B5
:103960001C0082FA50F2E2549DF81D304A7882FA27
:1039700053F24A708B789DF81E2083FA52F38B70B5
:1039800022462346197882F8BF11597882F8C0116F
:10399000997882F8C1110333AB42A2F10302F1D14D
:1039A000DBE64A2294F83102FCF7C6FD94F82812AF
:1039B00094F8C23194F82F220091074641465046B0
:1039C00007F0E8FD07EB4703E118E25C9DF81C00F7
:1039D00082FA50F2E2549DF81D304A7882FA53F28E
:1039E0004A708B789DF81E2083FA52F38B7004F195
:1039F000E10023462246197882F8BF11597882F8EF
:103A0000C011997882F8C11103338342A2F10302F5
:103A1000F1D138E62196FF1FF81101008CB1FF1F8C
:103A2000C00A010006FB05F34A2294F83102FCF7B4
:103A3000C5FD94F8281294F8C23194F82F22009111
:103A400007464146504607F0A5FD07EB4703E1183E
:103A5000E25C9DF81C0082FA50F2E2549DF81D30A1
:103A60004A7882FA53F24A708B789DF81E2083FAC6
:103A700052F38B7004F1E10023462246197882F854
:103A8000BF11597882F8C011997882F8C1110333B7
:103A90008342A2F10302F1D1F5E5134611464A2211
:103AA000FCF78CFD94F8281294F8C23194F82F2278
:103AB000009107464146504607F06CFD07EB47036F
:103AC000E118E25C9DF81C0082FA50F2E2549DF885
:103AD0001D304A7882FA53F24A708B789DF81E2086
:103AE00083FA52F38B7022462346197882F8BF116D
:103AF000597882F8C011997882F8C1110333AB422A
:103B0000A2F10302F1D128E62DE9F04F90F82E3210
:103B10008DB00446002B40F09D80C54E80F82D32BC
:103B2000338803EB432003EB800000F55850193035
:103B300080B200EB402500EB850505F55855193599
:103B4000ADB205EB452305EB830303F55853193359
:103B500003EB432203EB820303F5585319339BB263
:103B600003EB432103EB810101F55851193189B26F
:103B700001EB412201EB820202F55852193292B256
:103B800002EB422E02EB8E0E0EF5585E0EF1190E70
:103B90001FFA8EFE0EEB4E2C0EEB8C0C0CF5585CC7
:103BA0000CF1190C1FFA8CFC03EB13270CEB4C28BF
:103BB0000CEB880801EB1121FFB202EB12220EEB95
:103BC0001E2E07EB870708F55858C9B2D3B201EB90
:103BD0004101CEF3C01208F119084FEA272E1FFA4F
:103BE00088F88F1100EB10200EF1010103EB430365
:103BF00005EB15251B11C0F3C019C5F3C01507F15E
:103C0000080001320CEB1C2C84F8301208EB182150
:103C100003F12007D2B2CCF3C01384F83652C1F3BB
:103C2000C01184F831020F25012084F8359284F800
:103C3000327284F83322A6F8008084F8C41184F824
:103C4000343284F82E0284F82A0284F8C351002BFF
:103C500040F09082774B1B78002B40F0968294F8CE
:103C6000343213B1002384F82F3294F83222962193
:103C7000204607F02FFC94F8C57194F83022002FED
:103C800040F09981002A00F050836B4BDFF8ACB113
:103C9000DFF8ACA1039304F5E4780DF12C09BEB272
:103CA0009319039A94F83112126807920B44FF2B70
:103CB000079A98BF1B024FF48C7198BF9BB201FB0F
:103CC00002F203FB02F3C3F30E43A3F580439BB25E
:103CD0005D04C3F3CA0203D5C2F5FF62073292B294
:103CE000100AC2F346011BF800503AF8102005FBF9
:103CF0000122180492B248BF554294F8281294F851
:103D0000C23154BF15B22DB294F82F22009148460B
:103D1000414607F03FFCA5F5004326229BB202FB7B
:103D200003F31B0C25339BB203EB4303E118E25C66
:103D30009DF82C0082FA50F2E2549DF82D304A781A
:103D400082FA53F24A708B789DF82E2083FA52F350
:103D50008B7094F8312294F8303216441E44039B41
:103D60001B680693FF2E069A98BF36024FF48C7399
:103D700098BFB6B203FB02F206FB02F2C2F30E4298
:103D800002F580425104C2F3CA0303D5C3F5FF63B1
:103D900007339BB2180AC3F346011BF800503AF8E8
:103DA000103005FB013316049BB248BF5B4294F808
:103DB000281294F82F221DB2484694F8C23100917F
:103DC000414607F0E7FBA5F5004326229BB202FB24
:103DD00003F31B0C03EB4303E118E25C9DF82C009A
:103DE00082FA50F2E2549DF82D304A7882FA53F26A
:103DF0004A708B789DF82E2083FA52F38B7094F8DA
:103E000030320137FFB2BB421A463FF648AF94F852
:103E1000C421002A00F09A8194F8C571002F40F067
:103E2000C1814FF48C79002B00F0C2800AE000BF02
:103E30008887FF1F2196FF1F8CB1FF1FF81101001B
:103E4000C00A010094F8312201331344039ABEB230
:103E500012680B9233449BB2FF2B0B9A9CBF1B0240
:103E60009BB209FB02F203FB02F3C3F30E43A3F57B
:103E700080439BB25D04C3F3CA0203D5C2F5FF625F
:103E8000073292B2110AC2F346021BF801503AF807
:103E9000111005FB02151804ADB294F8281294F81D
:103EA000C23194F82F22009148BF6D42414609A8C3
:103EB0002DB207F06FFBA5F5004326229BB202FB53
:103EC00003F31B0C70339BB203EB4303E118E25C7A
:103ED0009DF8240082FA50F2E2549DF825304A7889
:103EE00082FA53F24A708B789DF8262083FA52F3B7
:103EF0008B7094F8312294F83032134401331E440D
:103F0000039B1B680A93B6B2FF2E0A9A9CBF360227
:103F1000B6B209FB02F206FB02F2C2F30E4202F550
:103F200080425104C2F3CA0303D5C3F5FF630733CC
:103F30009BB2180AC3F346011BF800503AF8103040
:103F400005FB013312049BB248BF5B4294F8281270
:103F500094F82F221DB209A894F8C231009141466D
:103F600007F018FBA5F500439BB203EBC30203EB7C
:103F700082031B0C4B339BB203EB4303E118E25C5F
:103F80009DF8240082FA50F2E2549DF825304A78D8
:103F900082FA53F24A708B789DF8262083FA52F306
:103FA0008B70013794F83032FFB2BB423FF64AAF14
:103FB0000DB0BDE8F08F002A00F0B781754BDFF837
:103FC000DCB1DFF8DCA1039304F5E47800270DF100
:103FD0002C09BEB29319039A94F831121268059213
:103FE0000B44FF2B059A98BF1B024FF48C7198BFAE
:103FF0009BB201FB02F203FB02F3C3F30E4303F592
:1040000080435D04C3F3CA0203D5C2F5FF620732E1
:1040100092B2100AC2F346011BF800503AF8102081
:1040200005FB0122180492B248BF554294F82812A9
:1040300094F8C23154BF15B22DB294F82F220091DA
:104040004846414607F0A6FAA5F5004326229BB252
:1040500002FB03F31B0C25339BB203EB4303E11874
:10406000E25C9DF82C0082FA50F2E2549DF82D306B
:104070004A7882FA53F24A708B789DF82E2083FAA0
:1040800052F38B7094F8312294F8303216441E4467
:10409000039B1B680493FF2E049B98BF36024FF4CA
:1040A0008C7298BFB6B202FB03F306FB03F3C3F3B3
:1040B0000E43A3F580439BB25904C3F3CA0203D550
:1040C000C2F5FF62073292B2100AC2F346011BF832
:1040D00000503AF8102005FB01221E0492B248BF9E
:1040E000524294F8281294F8C23115B2484694F816
:1040F0002F220091414607F04DFAA5F500432622F4
:104100009BB202FB03F31B0C03EB4303E118E25CDD
:104110009DF82C0082FA50F2E2549DF82D304A7836
:1041200082FA53F24A708B789DF82E2083FA52F36C
:104130008B7094F830320137FFB2BB421A463FF61B
:1041400048AF94F8C421002A7FF466AE04F1E1017F
:104150002346227883F8BF21627883F8C021A278B1
:1041600083F8C1210334A142A3F10303F1D10DB0BF
:10417000BDE8F08F02EB820202FA00F384F83332DA
:10418000054B1B78002B3FF46AAD2046FFF72EF855
:1041900065E500BF8CB1FF1F2196FF1FF8110100DC
:1041A000C00A0100002B3FF403AF002794F831222E
:1041B00001331344039ABEB21268099233449BB28E
:1041C000FF2B099A98BF1B024FF48C7198BF9BB2CA
:1041D00001FB02F203FB02F3C3F30E4303F580433A
:1041E0005D04C3F3CA0203D5C2F5FF62073292B27F
:1041F000110AC2F346021BF801503AF8111005FBF0
:1042000002151804ADB294F8281294F8C23194F84B
:104210002F22009148BF6D42414648462DB207F01B
:10422000B9F9A5F5004326229BB202FB03F31B0C50
:1042300070339BB203EB4303E118E25C9DF82C0062
:1042400082FA50F2E2549DF82D304A7882FA53F205
:104250004A708B789DF82E2083FA52F38B7094F875
:10426000312294F83032134401331E44039B1B68FF
:104270000893B6B2FF2E089B98BF36024FF48C729B
:1042800098BFB6B202FB03F306FB03F3C3F30E437E
:10429000A3F580439BB25904C3F3CA0203D5C2F508
:1042A000FF62073292B2110AC2F346021BF80150B4
:1042B0003AF8111005FB02151E04ADB294F828124D
:1042C00094F8C23194F82F22009148BF6D424146C4
:1042D00048462DB207F05EF9A5F500439BB203EB0B
:1042E000C30203EB82031B0C4B339BB203EB430370
:1042F000E118E25C9DF82C0082FA50F2E2549DF83D
:104300002D304A7882FA53F24A708B789DF82E202D
:1043100083FA52F38B70013794F83032FFB2BB420C
:104320003FF644AF0DB0BDE8F08F94F8C431002BD8
:104330003FF40CAF3CE600BF1A4B1B4A1B78002130
:104340001170042B08D8DFE803F00F1E03270900C3
:10435000164B1B8880F87932FDF758BF134B1B882A
:1043600080F83132FDF752BF104B1B88002B14BF71
:104370000123002380F8C43114BF96234B23A0F8F7
:104380003C33FDF743BF094B1B88003318BF0123A3
:1043900080F87B32FDF73ABF044B1B8880F87832F7
:1043A000FDF734BF849EFF1F2196FF1F2295FF1F3C
:1043B00090F82E322DE9F0410446002B5CD169487B
:1043C00084F82A32038803EB432203EB820303F5CC
:1043D000585319339BB203EB432203EB820202F5DD
:1043E0005852193292B202EB422102EB810101F5DF
:1043F0005851193189B201EB412601EB860606F5C9
:10440000585603EB1323DBB21936B6B203EBC307DE
:1044100006EB162503EB4703EDB21B1205EB8505F2
:1044200001334FF0010E01EB1121ED11DBB2C1F3AD
:10443000C0170680033506260F207345E9B284F8BD
:10444000C47184F82EE284F87BE284F82D6284F84B
:10445000C30100F0858002EB1222D2B202EB4202CD
:1044600012127244D2B284F8793284F8782284F835
:1044700031122046FDF7CAFE3B4B1B78002B6BD157
:1044800094F8C53143BB94F87A2294F878321A44F0
:1044900094F87B32D2B284F87A224BBB94F8C431C0
:1044A000002B51D194F879324B21204606F060FF61
:1044B000204604F1E1012346027883F8BF214278C7
:1044C00083F8C021827883F8C12103308842A3F1A8
:1044D0000303F1D1BDE8F08194F87A3294F87822A0
:1044E0009A1A94F87B32D2B284F87A22002BD5D073
:1044F00094F879322521204606F03AFF04F16F0541
:10450000234621462246107881F8DE00507881F853
:10451000DF00907881F8E0000332AA42A1F10301A4
:10452000F1D104F1E1012046027883F8BF214278FD
:1045300083F8C021827883F8C12103308842A3F137
:104540000303F1D1BDE8F08194F879322046962139
:10455000BDE8F04106F00CBF2046FFF7EDFE8FE707
:104560001A4680E78887FF1F2196FF1FF0B590F855
:104570002E3283B00446002B5CD19C4884F82A324A
:10458000038803EB432203EB820303F558531933EB
:104590009BB203EB432203EB820202F5585219321D
:1045A00092B202EB422102EB810101F5585119311F
:1045B00089B201EB412601EB860606F5585603EB5E
:1045C0001323DBB21936B6B203EBC30706EB16258D
:1045D00003EB4703EDB21B1205EB850501334FF0EA
:1045E000010E01EB1121ED11DBB2C1F3C017068002
:1045F000033506260F207345E9B284F8C47184F8A8
:104600002EE284F87BE284F82D6284F8C30100F086
:10461000EB8002EB1222D2B202EB4202121272447F
:10462000D2B284F8793284F8782284F831122046A4
:10463000FDF7ECFD6E4B1B78002B40F0C98094F821
:10464000C5316C4A002B61D112680092009994F830
:10465000313294F878524FF48C7202FB01F21B0253
:1046600003FB02F31B0ED9B2480600F1A98001F04A
:104670003F0201F00F006049121152008E18895C50
:10468000727812FB00F001EB2011CAB2190648BF84
:10469000524252B294F87A32803AD2B22B4402EBB0
:1046A000420203EBE21294F87B32D2B284F87A220F
:1046B000002B60D094F879322521204606F058FE70
:1046C00004F16F05234621462246107881F8DE006A
:1046D000507881F8DF00907881F8E0000332AA4238
:1046E000A1F10301F1D104F1E10120461A7880F82B
:1046F000BF215A7880F8C0219A7880F8C12103330D
:104700008B42A0F10300F1D103B0F0BD1268019219
:10471000019994F8313294F878524FF48C7202FB7C
:1047200001F21B0203FB02F31B0ED9B24A063FD46F
:1047300001F03F0201F00F002F49121152008E18B4
:10474000895C727812FB00F001EB2011CAB21B06E3
:1047500048BF524252B294F87A32803AD2B25B1BCE
:1047600002EB4202A3EBE21294F87B32D2B284F85D
:104770007A22002B9ED194F8C4316BBB94F8793225
:104780004B21204606F0F4FD204604F1E1012346CA
:104790001A7880F8BF215A7880F8C0219A7880F87A
:1047A000C12103339942A0F10300F1D103B0F0BD60
:1047B000C943CAB202F00F00013002F03F02BBE76A
:1047C000C943CAB202F00F00013002F03F0252E7C3
:1047D0002046FFF7B1FD32E794F879322046962162
:1047E00006F0C6FD03B0F0BD1A461AE78887FF1F22
:1047F0002196FF1F8CB1FF1F600C0100F0B590F8EF
:104800002C429DF818609DF81CE00B2501270F3CF9
:1048100080F82D52BC424FF00F0580F8C35180F84C
:104820002E729DF814503DD900234B2480F87C5201
:1048300080F87E6280F8181380F8192380F81BE353
:1048400080F82A3280F8173380F816431F4C2388EB
:1048500003EB432203EB820303F5585319339BB256
:1048600003EB432203EB820202F55852193292B253
:1048700003EB132302EB1221DBB2C9B203EB4303B8
:1048800001EB41010A3D0A3EC3EBC303C1EBC10189
:1048900005EB232306EB212180F87D32228080F86E
:1048A0007F12F0BD80F82A7280F87C5280F87E6218
:1048B00080F8181380F8192380F81BE312B1252221
:1048C00080F8172380F81633C0E700BF8887FF1FE2
:1048D000194B1A4A1B7800211170052B08D8DFE804
:1048E00003F00F151B032109154B1B8880F87F323D
:1048F000FDF78CBC124B1B8880F81B33FDF786BC80
:104900000F4B1B8880F87C32FDF780BC0C4B1B885A
:1049100080F87E32FDF77ABC094B1B8880F87D3227
:10492000FDF774BC064B1B88003318BF012380F8C9
:104930001833FDF76BBC00BF849EFF1F2196FF1F3D
:104940002295FF1F2DE9F04390F82E32C54D87B018
:104950000446002B00F01082C34B1B78002B40F064
:10496000078294F81633002B00F0BA8294F87E1276
:104970002A8801EB81014F0003F27F2E97FBF3F7AA
:104980000237FFB2A64404F27F2602EB422102EB7B
:10499000810202F55852193292B202EB122116F836
:1049A000010FC9B211FB07F1A0EB112121EAE1715E
:1049B000B6453170E9D12A80DF1E012F16DD03F5DF
:1049C0001F7003F27E2EDFF8A4C22044A64404F533
:1049D0002078017810F8016D01EB46018CFB0196FF
:1049E000A6EBE17140450EF8011DF2D102EB422128
:1049F00002EB810202F55852193292B202EB1221F7
:104A000094F87C622A80C9B28E42964826D902EB7D
:104A1000422102EB810202F55852193292B202EBA6
:104A2000422602EB860606F558561936B6B206EB54
:104A3000162102EB1222C9B2D2B201EB410EC2EB37
:104A4000C20204EB2222C1EB4E110912068060392A
:104A500092F8800280FA51F082F8800294F818C32C
:104A6000BCF1000F7AD1002B00F02F8294F87F1256
:104A70002A8801EB81014E0003F2CA2E96FBF3F661
:104A80000236F6B2A64404F2CA2002EB422102EB3F
:104A9000810202F55852193292B202EB122110F83B
:104AA000018FC9B211FB06F1A8EB112121EAE171D6
:104AB00070450170E9D12A80012F16DD03F2C7206D
:104AC00003F2C927DFF8A4E12044274404F2CB28ED
:104AD000017810F8016D01EB46018EFB0196A6EB03
:104AE000E171804507F8011DF2D102EB422102EB92
:104AF000810202F55852193292B202EB122194F857
:104B00007D622A80C9B28E42564827D902EB4221E3
:104B100002EB810202F55852193292B202EB4225A1
:104B200002EB850505F55855193502EB1222ADB299
:104B3000D2B205EB1521C2EBC202C9B204EB2222AC
:104B400001EB4106C1EB461192F8CB6205800912D8
:104B50006039304680FA51F082F8CB0294F8C521D2
:104B6000002A5ED1002B00F0D38004F27F2790460C
:104B7000B94605AE013BC8EB030505EB450519F841
:104B8000011F304606F0E4FC9DF8143063552544BF
:104B90009DF816309DF815206A70AB7094F81633A6
:104BA00008F101084345E5DC94F819230AB394F8A9
:104BB000C521002A40F049819046002B00F08A81EF
:104BC00008EB030517F8011F304606F0C1FC05EBA2
:104BD00045039DF81420E25423449DF815109DF8D8
:104BE000162059709A7094F8163308F1010843455D
:104BF000E6DC94F81823002A3AD004F1E1012346B8
:104C0000227883F8BF21627883F8C021A27883F8E4
:104C1000C1210334A142A3F10303F1D107B0BDE8E0
:104C2000F083002B00F0538104F27F27B94625461C
:104C30004FF0000805AE19F8011F304606F088FC59
:104C40009DF816309DF814109DF8152029706A7093
:104C5000AB7094F8163308F10108434505F10305DC
:104C6000E9DCA1E78887FF1F2196FF1F56555555A0
:104C700094F8C521002A56D0002BCFD004F2CA27C1
:104C8000B94625464FF0000805AE19F8011F304619
:104C900006F05EFC9DF816309DF814109DF8152066
:104CA00085F8BF1185F8C02185F8C13194F8163315
:104CB00008F101084345A5F10305E6DC94F8192342
:104CC000002AABD094F8C521002A00F0DD80002B2B
:104CD000A4D025464FF0000817F8011F304606F013
:104CE00037FC9DF816309DF814109DF8152085F8B6
:104CF000E11085F8E22085F8E33094F8163308F1E6
:104D00000108434505F10305E6DC07B0BDE8F08383
:104D100094F81933002B40F0DD80BCF1000F7FF4D4
:104D20006CAF94F81633002B3FF478AF04F2CA2727
:104D3000B9464FF0000805AE94F8175319F8011F53
:104D40004B35454405EB4505304606F001FC9DF822
:104D50001430635525449DF816309DF815206A706F
:104D6000AB7094F8163308F101084345E4DCA5E77D
:104D70002046FFF7ADFDF4E52B8803EB432103EB61
:104D8000810101F55851193189B201EB412201EB42
:104D9000820202F55852193292B202EB422E02EB15
:104DA0008E0E0EF5585E0EF1190E1FFA8EFE0EEBEA
:104DB0004E260EEB860606F558561936B6B206EBA9
:104DC000462306EB830303F5585319339BB203EBD9
:104DD000432703EB870706EB16260EEB1E2E07F57F
:104DE000585703EB1323F6B25FFA8EFE1937DBB286
:104DF000C6EB0616BFB2B6110EEB8E0CC3EB031357
:104E00000EEB4C0E9B1106F1320C07EB17263C33D0
:104E10004FEA2E2EC6F381165FFA83F85FFA8CFCF8
:104E200001360EF1140301EB112102EB1222CDF831
:104E300000C0CDF804800296C1F3C011C2F3C012C5
:104E4000DBB22F80FFF7DAFC86E5002B42D0254647
:104E50004FF0000817F8011F304606F079FB9DF867
:104E600016309DF814109DF8152085F8DE1085F891
:104E7000DF2085F8E03094F8163308F10108434547
:104E8000A5F10305E6DCB4E69046002B3FF4C6AE80
:104E90004B33C8EB030505EB450517F8011F3046FA
:104EA00006F056FB9DF81430635525449DF81630E6
:104EB0009DF815206A70AB7094F8163308F101085C
:104EC0004345E5DC07B0BDE8F0832A88F4E594F8B3
:104ED00019333BB194F81833002B7FF48EAE9DE666
:104EE0002A8869E5BCF1000F7FF487AE94F8163389
:104EF000C2E600BF2DE9F04F90F82E32D04D87B0BA
:104F00000446002B00F0DA81CE4B1B78002B40F0DA
:104F1000428294F816C36346BCF1000F00F03F8252
:104F200094F87E122A8801EB81014F000CF27F2E4B
:104F300097FBFCF70237FFB2A64404F27F2602EB90
:104F4000422102EB810202F55852193292B202EB71
:104F5000122116F8010FC9B211FB07F1A0EB1121C4
:104F600021EAE171B6453170E9D194F818632A80DD
:104F7000002E00F06B81ACF10307012F4FF0010907
:104F80001ADD0CF51F700CF27E26DFF8BC8220447F
:104F9000264404F5207E017810F801AD01EB4A01AA
:104FA00088FB01BAAAEBE171864506F8011DF2D132
:104FB000B9F1000F00F02C8102EB422102EB8102DB
:104FC00002F55852193292B202EB122094F87C6228
:104FD0002A80C0B286429A4928D902EB422002EBCD
:104FE000800202F55852193292B202EB422602EBCD
:104FF000860606F55856193602EB1222B6B2D2B220
:1050000006EB1620C2EBC202C0B204EB222200EB78
:1050100040070E80C0EB471092F880620012A0F1AA
:105020006001304680FA51F082F88002B9F1000F39
:1050300012D12A8894F87D62814902EB422002EB6A
:10504000800202F55852193292B202EB1220C0B21D
:1050500086422A8000F2AF80BCF1000F00F0A481EC
:1050600004F27F2700260DF11409C3F14B039D19AB
:1050700005EB450517F8011F484606F069FA9DF84B
:105080001430635525449DF816309DF815206A703C
:10509000AB7094F816330136B342E6DC94F818632B
:1050A000002E75D104F2CA27002B00F083814A3309
:1050B0009D1B05EB450517F8011F484606F048FA09
:1050C0009DF81430635525449DF816309DF8152041
:1050D0006A70AB7094F816330136B342E7DC4B2BA1
:1050E00047D00DF1140904F5E47B27462646002538
:1050F0004FF0010A94F81A23CDF800A0C5EB05285B
:1051000098FBF3F31A44D2B2FF235946484606F0FF
:1051100041FA9DF814109DF815209DF81630317055
:105120007270B37094F81A3394F8162398FBF2F85F
:1051300008EB0302D2B2FF235946CDF800A048463F
:1051400006F028FA9DF815209DF816309DF81410E9
:1051500087F8C02187F8BF1187F8C13194F816335A
:105160000135C3F14B02AA4206F10306A7F103077A
:10517000C0DC94F8C531002B40F0968094F81A33C7
:1051800094F81B239B1A84F81A3307B0BDE8F08FFC
:10519000214604F1E1052246107881F8BF015078DC
:1051A00081F8C001907881F8C10103329542A1F1E4
:1051B0000301F1D193E702EB422002EB800202F5FA
:1051C0005852193292B202EB422502EB850505F5E1
:1051D0005855193502EB1222ADB2D2B205EB1520AB
:1051E000C2EBC202C0B204EB222200EB4006C0EBCD
:1051F000461092F8CB620D8001126039304680FA79
:1052000051F082F8CB02BCF1000F7FF429AFCFE060
:105210000CF2C7260CF2C92EDFF82C802644A644D7
:10522000317816F8010D01EB400188FB01A0013F28
:10523000A0EBE171012F0EF8011DF1D1BCE600BF1A
:105240008887FF1F2196FF1F5655555594F87F12EA
:1052500001EB81014FEA410E9EFBFCFE0EF1020EB6
:105260005FFA8EFE04F2CA2702EB422102EB8102B2
:1052700002F55852193292B202EB122117F8010FBF
:10528000C9B211FB0EF1A0EB1121013621EAE17147
:1052900066453970E8DB2A80ACF10307012F4FF037
:1052A00000093FF76EAE87E694F81A2394F81B3393
:1052B000134484F81A3307B0BDE8F08F2B8803EB52
:1052C000432103EB810101F55851193189B201EBFA
:1052D000412201EB820202F55852193292B202EBDE
:1052E000422E02EB8E0E0EF5585E0EF1190E1FFACD
:1052F0008EFE0EEB4E260EEB860606F55856193638
:10530000B6B206EB462306EB830303F55853193375
:105310009BB203EB432703EB870706EB16260EEB46
:105320001E2E07F5585703EB1323F6B25FFA8EFED5
:105330001937DBB2C6EB0616BFB2B6110EEB8E0CF8
:10534000C3EB03130EEB4C0E9B1106F1320C07EB73
:1053500017263C334FEA2E2EC6F381165FFA8CFCDB
:105360005FFA83F801EB11210EF1140302EB122214
:105370000136CDF800C0CDF804800296DBB2C1F34F
:10538000C011C2F3C0122F80FFF738FA0B4B1B7805
:10539000002B3FF4BEAD2046FFF79AFAB9E594F82A
:1053A00018234AB12A88E6E5B9F1000F7FF4F0AE80
:1053B0000DF11409002396E62A886DE72196FF1F58
:1053C0000E4B0F4A1B78002111703BB1012B03D10A
:1053D0000C4B1B8880F83E33FCF718BF094B1B8829
:1053E000002B14BF0123002380F8C43114BF96237F
:1053F0004B23A0F83C33FCF709BF00BF849EFF1F7E
:105400002196FF1F2295FF1FF0B590F82E324B4ECC
:1054100085B004468BBB338803EB432203EB820346
:1054200003F5585319339BB203EB432103EB81017E
:1054300001F55851193189B201EB1122D2B2C2EBF8
:105440000212121203EB132301200632C3F3C0131E
:1054500014270F253180D2B284F8C43184F82E028B
:1054600084F82A0284F82D7284F8C351002B5CD191
:105470004B23A4F83C3384F83E23314B1B78002B9C
:1054800057D194F83E232046962106F023F832881F
:10549000B4F83C5302EB422302EB830202F558536B
:1054A00019339BB203EB432703EB870707F55857E4
:1054B0001937BFB207EB172203FB05F301211D0CBF
:1054C000009103A804F5E471D2B2FF23378006F0FF
:1054D00061F805EB4503E118E25C9DF80C0082FAE7
:1054E00050F2E2549DF80D304A7882FA53F24A7035
:1054F0008B789DF80E2083FA52F38B7094F8C431A8
:105500008BB9204604F1E10123461A7880F8BF21C7
:105510005A7880F8C0219A7880F8C12103338B42F1
:10552000A0F10300F1D105B0F0BD9623A4F83C33FF
:10553000A1E72046FFF744FFA3E700BF8887FF1FCE
:105540002196FF1F244B254A1B7800211170092B3F
:105550000AD8DFE803F0101E23282D3237053C0B54
:105560001F4B1B8880F84F33FCF750BE1C4B1B8829
:1055700080F84533F8E71A4B1B88002B14BF012332
:10558000002380F8C43114BF96234B23A0F83C338A
:10559000EAE7134B1B8880F83F33E5E7104B1B8885
:1055A00080F84033E0E70E4B1B8880F84133DBE79F
:1055B0000B4B1B8880F84233D6E7094B1B8880F8D9
:1055C0004633D1E7064B1B8880F84333CCE7044BC6
:1055D0001B8880F85033C7E7849EFF1F2196FF1F6A
:1055E0002295FF1F2DE9F04F90F82E3285B004462A
:1055F000002B40F0BE80DFF82CC3BCF8003003EB7A
:10560000432603EB860606F558561936B6B206EB66
:10561000462106EB810101F55851193189B201EBA0
:10562000412501EB850505F558551935ADB205EB5A
:10563000452305EB830303F5585319339BB203EB62
:10564000432703EB870707F558571937BFB207EB16
:10565000472007EB800000F55850193080B200EB6E
:10566000402200EB820202F55852193292B202EB4C
:10567000422E02EB8E0E0EF5585E0EF1190E1FFA39
:105680008EFE0EEB4E280EEB880808F5585803EBFB
:10569000132301EB112102EB122208F119081FFA62
:1056A00088F8DBB2C9B2D2B208EB182902EB820249
:1056B00003EB830301EB41014FEAA21A03EB8303DF
:1056C0005FFA89F200EB1020091205EB15259B11FA
:1056D0000131C5F3421502EB820206EB162607EBF9
:1056E0001727C0B203F16409ACF800800AF1140373
:1056F000C6F3C016C7F3811700EB80000EEB1E2E19
:105700005FFA81FA4FF01508691DC2F3C71C012525
:105710000F2284F8C4615FFA89F90137C0F30720CA
:10572000DBB25FFA8EFE84F82E5284F82A5284F897
:105730002D8284F8C321002E40F0E8804B22A4F88B
:105740003C23764D84F83FA3A5FB032501EB95028E
:10575000002184F8419384F8427384F8460384F866
:10576000433384F84FE384F850C384F8402384F82B
:1057700045136B4B1B78002B40F0CC8094F84513FD
:1057800094F83F3394F8C5210B44DBB284F84533D9
:1057900084F84433002A00F0B18094F8462394F84A
:1057A0004033134484F84633B4F83C33002B00F004
:1057B0008E8004F5E4792546671C00264FF0FF082B
:1057C0005CE00029BCBFD243D2B25200D2B2531C1B
:1057D00003FB02F2121202FB03F31B1202EB420262
:1057E000A2EB430292B2D30554BF5FFA82FB4FF0A3
:1057F000FF0BC0EB0B0B5FFA8BFB94F8502394F874
:105800004F338DF80E20294603A88DF80C308DF803
:105810000D8006F0BDF894F8443394F83F2394F8D3
:105820002812009102FB0A32D2B25B46494603A815
:1058300005F0B0FE17F8013C9DF80C2083FA52F3F6
:1058400007F8013C6A789DF80D3082FA53F26A70CD
:10585000AB789DF80E2083FA52F3AB7094F84413A2
:1058600094F84233B4F83C2301360B44B24205F1BC
:10587000030507F1030784F8443328DD94F8433324
:1058800094F846235FFA86FA03FB0A22D2B251B299
:105890000029BABFD343DBB213465B00DBB2581C0E
:1058A00000FB03F31B1203FB00F0001203EB4303A6
:1058B000A3EB40039BB2D80594F8410354BFDBB27D
:1058C000FF239842FFF47DAF4FF0000B95E794F86B
:1058D000C43183B904F1E1012346227883F8BF2162
:1058E000627883F8C021A27883F8C1210334A142F1
:1058F000A3F10303F1D105B0BDE8F08F94F846336E
:1059000094F840239B1A84F846334DE79622A4F876
:105910003C2316E72046FFF715FE2FE7CDCCCCCC75
:105920002196FF1F8887FF1F10B50F4B0F4A1B786A
:10593000002182B0044611708BB90D4A0D481288BF
:105940008DF80430521A18BF012284F8C72196211D
:1059500001AA8DF805308DF8063005F0F9FC2046D7
:10596000FCF754FC02B010BD849EFF1F2196FF1F60
:105970002295FF1F2896FF1F70B5044682B01B4D6D
:10598000022006F073FC2B88184400EB402300EB48
:10599000830043F21963184480B200EB102200EB3D
:1059A000402100EB8100D2B2034402EB82029BB2A1
:1059B0009211002603EB13211B3284F8512384F843
:1059C000521384F8546384F8536384F85C6320466C
:1059D00001AA96212B808DF804608DF805608DF862
:1059E000066005F0B5FC02B070BD00BF8887FF1FE0
:1059F0002DE9F04F90F85C3387B00290002B00F057
:105A0000898090F851330393064618465D4B1B88F6
:105A100003EB432403EB840404F558541934A4B273
:105A200004EB1423DBB203EB830903EBC9094FEA50
:105A3000292909F1140901235FFA89F986F85433F9
:105A400086F85D9308F0A8FF06F5577B06F5AF6A68
:105A50005B4606F24C4806F23F57D346019006F5E6
:105A6000CD6600259A4604EB442304EB830404F539
:105A700058541934A4B2732303FB04F0000C019BA7
:105A80004AF8043F0A3080B208F086FF3E4909F028
:105A90008FF804EB442304EB830303F558531933C5
:105AA0009BB203EB432403EB840404F558541934EC
:105AB000A4B204EB1421C9B201EB810103EB13235F
:105AC0000912C3F3C0130A3148F8040F07F8013F65
:105AD000C8B208F061FF0135EBB22C4A4BF8040F55
