:1000000000800020BD010000F99D0000B19D0000AE
:10001000B19D0000B19D0000B19D0000B19D0000A8
:10002000B19D0000B19D0000B19D0000F99D000050
:10003000F99D0000B19D000025B2000029B3000029
:10004000F99D0000F99D0000F99D0000F99D000058
:10005000F99D0000F99D0000F99D0000F99D000048
:10006000F99D0000F99D0000F99D0000F99D000038
:10007000F99D0000F99D0000F99D0000F99D000028
:10008000F99D0000F99D0000F99D0000F99D000018
:10009000F99D0000F99D0000F99D0000F99D000008
:1000A000F99D0000F99D0000F99D0000F99D0000F8
:1000B000F99D0000F99D0000F99D0000F99D0000E8
:1000C000F99D0000F99D0000F99D0000F99D0000D8
:1000D000F99D0000F99D0000F99D0000F99D0000C8
:1000E000F99D0000F99D0000F99D0000F99D0000B8
:1000F000F99D000081B60000F99D0000ADB7000039
:10010000F99D0000D9B80000F99D0000F99D00009C
:10011000F99D0000F99D0000F99D0000F99D000087
:10012000F99D0000F99D0000F99D0000F99D000077
:10013000F99D0000F99D0000F99D0000F99D000067
:10014000F99D0000F99D0000F99D0000F99D000057
:10015000F99D0000F99D0000F99D0000F99D000047
:10016000F99D000041A20000F99D0000F99D0000EA
:10017000F99D0000F99D0000F99D0000F99D000027
:10018000F99D0000F99D0000F99D0000F99D000017
:10019000F99D0000F99D0000F99D0000F99D000007
:1001A000F99D0000F99D0000F99D0000F99D0000F7
:1001B000F99D0000F99D0000F99D0000564B4CF29E
:1001C000205210B51A804DF628121A8000BF00BFC9
:1001D00009F016FE514B4FF010621A60504A9A60B7
:1001E000504ADA60504A136813F4807304D14F49BF
:1001F0000B604FF4A85313604D4B1A78110703D5C9
:100200001A7842F008021A704A4B4B492A221A7097
:100210004A4A4B4B8B4204D252F8040F43F8040B6A
:10022000F8E7484B484900228B4202D243F8042B9E
:10023000FAE74649464A002352F8230041F82300D2
:1002400001336F2BF8D1434B434A802103F8011B44
:100250009342FBD1414B3D4A1A60414B8A221A70AE
:10026000A3F5805324225A70A0221A709A7992071B
:10027000FCD59A79D406FCD43A4A937903F00C035E
:10028000082B384BF9D103221A7140225A719A79FE
:100290009006FCD5334A9179324B4906FBD5324A58
:1002A000324911600221516020221A709A7902F0BD
:1002B0000C020C2AFAD12E4B2E4A1A602E4B2F4AD2
:1002C0001A6000225A60072243F8042C2C4AC3F813
:1002D0000C2D62B609F06AFE144B1B68DA0705D5CF
:1002E000284809F0DBFD284B284A1A60284B1B7868
:1002F0005B0609D5244C254B22689A4204D121483B
:1003000009F0CCFD002323600CF0CEFA09F07EFD4D
:100310000BF012F8FEE700BF0E20054030800440CD
:10032000823F04000100002B10D0034014D0034092
:1003300002D0074000E00740448CFF1F1CFB000078
:100340002087FF1F448CFF1F1CA3FF1F0082FF1F7D
:100350000000000000E400E05FE400E008ED00E0E1
:100360000050064000400640448004400000030165
:1003700004800440C010050014E000E0FF76010096
:100380000000202011023B5E1CE00340A5C3945AEC
:1003900000F00740FFFFFFFFFFFFFFFFFFFFFFFF32
:1003A000FFFFFFFFFFFFFFFFFFFFFFFFFFFFFFFF5D
:1003B000FFFFFFFFFFFFFFFFFFFFFFFFFFFFFFFF4D
:1003C000FFFFFFFFFFFFFFFFFFFFFFFFFFFFFFFF3D
:1003D000FFFFFFFFFFFFFFFFFFFFFFFFFFFFFFFF2D
:1003E000FFFFFFFFFFFFFFFFFFFFFFFFFFFFFFFF1D
:1003F000FFFFFFFFFFFFFFFFFFFFFFFFFFFFFFFF0D
:10040000FFFFFFFFFFFFFFFFFFFFFFFFDEF9FFFF23
:1004100010B5054C237833B9044B13B10448AFF33E
:1004200000800123237010BD448CFF1F00000000DA
:1004300020FB0000084B10B51BB108490848AFF37A
:1004400000800848036803B910BD074B002BFBD0A0
:10045000BDE81040184700BF00000000488CFF1F97
:1004600020FB0000448CFF1F000000004069704723
:10047000002070474268017B13780B43137070476C
:100480004268017B137823EA01031370704700BFB1
:1004900070B4184B83B01B680193019E4FF48C73AA
:1004A00003FB06F600FB06F0060C7004C6F3CA0355
:1004B00003D5C3F5FF6307339BB2180A0E4D0F4CEB
:1004C000245C35F81000C3F3460504FB050433042F
:1004D000A4B248BF644224B2531AA4F500449AB2AD
:1004E000A3B202FB033301EB134080B203B070BC34
:1004F000704700BF58A0FF1FB0DD0000E4E8000017
:1005000010B5012104460E2009F0DAFC0720012174
:1005100009F0D6FCA06958B10368074A5B689342AA
:1005200007D14268017B137823EA0103137010BDE1
:1005300010BDBDE81040184781040000F0B58BB035
:10054000002305688DF804308DF805308DF80630ED
:100550002E68374A8DF8083096428DF809308DF8AC
:100560000A305FD1827C04910446012A01A80591DA
:100570008DF81E308DF81F308DF82030039015D087
:100580008DF81D308DF81C308DF81B308DF81A3029
:100590008DF819308DF818300023AA698DF82130B4
:1005A0002046099303A990470BB0F0BD214A137868
:1005B000013303F0070313F0010F14BF8021002162
:1005C00013709A0744BF41F04001C9B25B0748BFAE
:1005D00041F0200110310022C9B20DF11B030DF1D1
:1005E0001E074FF4807EAAB19EFBF2F2D2B2501CDD
:1005F000C0B200FB01152D121870EEB205B1013E1C
:1006000003F8036C00B11A7001339F4208D0DA7806
:10061000002AE9D11A7003F8032C01339F42F6D166
:100620002568B9E70A4602AB01A9B0470BB0F0BD97
:10063000FD060000608CFF1FF0B5857C1C785E789D
:100640009B7889B0012D0191029203928DF816409A
:100650008DF817608DF8183017D000238DF81530FD
:100660008DF814308DF813308DF812308DF811306C
:100670008DF810300368002203219B698DF8191052
:10068000079201A9984709B0F0BD1B4A13780133BE
:1006900003F0070313F0010F137014BF8022002230
:1006A000990744BF42F04002D2B25B0748BF42F014
:1006B00020021032D2B20DF113030DF116074FF4E0
:1006C000807EACB19EFBF4F4E4B2611CC9B201FBC4
:1006D00002252D121970EEB205B1013E03F8036C2C
:1006E00001B11C700133BB42C4D0DC78002CE9D1CD
:1006F0001C7003F8034CF5E7608CFF1FF0B5857C98
:100700001C785E789B7889B0012D0191029203924A
:100710008DF816408DF817608DF8183016D000232C
:100720008DF815308DF814308DF813308DF81230A7
:100730008DF811308DF810300268002392698DF821
:100740001930079301A9904709B0F0BD1B4A1378EF
:10075000013303F0070313F0010F137014BF80225D
:100760000022990744BF42F04002D2B25B0748BF63
:1007700042F020021032D2B20DF113030DF1160730
:100780004FF4807EACB19EFBF4F4E4B2611CC9B2BC
:1007900001FB02252D121970EEB205B1013E03F8DE
:1007A000036C01B11C700133BB42C5D0DC78002C56
:1007B000E9D11C7003F8034CF5E700BF608CFF1F04
:1007C00070B5044608460D460CF01AF92368024637
:1007D000294620465B68BDE87040184738B5044696
:1007E00008460D460CF00CF92368024629465B6862
:1007F00020469847054620460AF0A6FD284438BD05
:100800002DE9F04F0D7805704D784570897881702D
:100810001178C17051780171927842711A788271A1
:100820005A78C2719B78DDF824A003729AF800B060
:1008300080F809B00DF12C0898E80051DDF82890F7
:100840000E9F0F9E109D1199129A159B9AF801B058
:1008500080F80AB09AF802A080F80BA099F800A0DE
:1008600080F80CA099F801A080F80DA099F80290EA
:1008700080F80E9098F8009080F80F9098F801900A
:1008800080F8109098F8028080F811809CF8008021
:1008900080F812809CF8018080F813809CF802C0D8
:1008A00080F814C09EF800C080F815C09EF801C002
:1008B00080F816C09EF802E080F817E097F800E094
:1008C00080F818E097F801E080F819E0BF788776A3
:1008D0003778C77677780777B67846772E78867731
:1008E0006E78C677AD7880F820500D7880F821506A
:1008F0004D7880F82250897880F82310117880F89C
:100900002410517880F82510927880F82620139AC8
:10091000127880F82720139A527880F82820139AAA
:10092000927880F82920149A127880F82A20149A54
:10093000527880F82B20149A927880F82C201A781C
:1009400080F82D205A7880F82E209B7880F82F3060
:10095000BDE8F08F2DE9F04F8BB00027069051F8DD
:100960002730DBB20137FF2BBFB2F8D10B680797F6
:100970004FEA1368C3F3072BC3F307494FF0FF3364
:10098000C64600240593884658F8045F0698C5F3C8
:1009900007274FEA241CC5F30746ECB2F9B2C5F3AA
:1009A00007650391E9B204915FFA8CF1029107990E
:1009B0000F2908AA4FEA14135FFA86FA0CD8059992
:1009C0008C4507DC0F2905D00131C9B28B42029159
:1009D00038BF0B4659B2059109A9009102998DF8CB
:1009E00020B08DF821908DF822E08DF824708DF8DC
:1009F00025608DF8265008F0FFF9FF2CDDF810E097
:100A0000DDF80CB0D146BFD106980BB0BDE8F08F31
:100A1000484B1B78002B00F08B802DE9F04F9BB0EA
:100A200000F2F7130A930023434A0793DFF80C916F
:100A3000099000F2262308920B93002759F82730DB
:100A4000DBB20137FF2BBFB2F8D1D9F800300697DF
:100A50004FF0FF32C3F3074A0592C3F3072B4FEA67
:100A600013680024D64659F8045FC5F307464FEAD9
:100A7000241CC5F30727ECB2F1B2C5F30765039157
:100A8000E9B204915FFA8CF1029106990F290CAA40
:100A90000EA84FEA14135FFA87FA0CD805998C4513
:100AA00007DC0F2905D00131C9B28B42029138BF52
:100AB0000B4659B205910DA9009102998DF830B0FD
:100AC0008DF831E08DF832808DF834708DF8356016
:100AD0008DF8365008F090F9FF2CD346DDF80CE085
:100AE000DDF81080BFD10A9B0EAA934218D0099B53
:100AF0000B9C03F5FB7301E0A34211D012F8011B1C
:100B000013F8010F8842F7D00A4B079A1B7801327D
:100B10009342079209DD089B53F8049F08938CE7E2
:100B2000099B9DF81C2083F828221BB0BDE8F08F9C
:100B3000704700BF4D87FF1F24E70000C4F6000088
:100B400030B5294D83B001AA0024284696218DF89E
:100B500004408DF805408DF8064008F01DF9234942
:100B600085F8C64105F2C710FFF7F4FE204905F2EB
:100B7000F710FFF7EFFE2846FFF74AFF1D4B1E4A0E
:100B8000187885F82B02234601E01C2B08D012F8B8
:100B9000011F8142DCB203F10103F6D185F82A423C
:100BA000164C01AA0023204696218DF804308DF8BA
:100BB00005308DF8063008F0EFF8012304F2C71075
:100BC0000F4984F8C631FFF7C5FE0E4904F2F7104D
:100BD000FFF7C0FE95F82A3284F82A322046FFF744
:100BE00017FF03B030BD00BFEC95FF1FF0F600000B
:100BF00068ED00004987FF1F2787FF1F888CFF1FB4
:100C0000A4F40000E4E6000010B5122182B02E48E2
:100C10002E4C0AF095F92E4B204619780AF0E4FB89
:100C200020460AF091FB11212A480AF089F92A4B43
:100C3000204619780AF0D8FB20460AF085FB1521DA
:100C400026480AF07DF9264B204619780AF0CCFB9D
:100C500020460AF079FB142122480AF071F9224B50
:100C6000204619880AF0C0FB20460AF06DFB0F21D0
:100C70001E480AF065F91E4B204619880AF0B4FB9D
:100C800002211C480AF05CF91B4B0A221978204605
:100C900000230AF069FB012118480AF051F92046A7
:100CA0000AF052FB0E2116480AF04AF9154B1B6850
:100CB0000193019900230A2220460AF055FB2046A1
:100CC0000AF042FB02B010BD34CC00006487FF1F65
:100CD0005887FF1F48CC00004C87FF1F5CCC0000EA
:100CE0002287FF1F74CC0000848CFF1F8CCC000077
:100CF000C695FF1F9CCC00002195FF1FA0CC0000D3
:100D0000A4CC000058A0FF1F1E491F480B8803EB0E
:100D1000432203EB820303F5585319339BB203EBD1
:100D2000432203EB820202F5585203EB13231932DC
:100D3000DBB292B203EB4303F0B41B1202EB1227B7
:100D4000124E134DF35C134C0A80FFB207EB87077A
:100D500001223F12033793422F70237002700CD090
:100D600006D3022B02D10C4B00221A70F0BC704744
:100D70000A4B00221A70F0BC7047074B4A221A70C7
:100D8000F0BC70475A87FF1FC494FF1F5087FF1F96
:100D9000D595FF1FD894FF1F0095FF1F868CFF1F5E
:100DA000F0B5EF4CEF4883B0002301AA96212370E1
:100DB0008DF804308DF805308DF8063007F0ECFF23
:100DC000E94BEA4A03F5E17512F8034C12F8020CFC
:100DD00012F8011C03F8034C03F8020C03F8011C81
:100DE00003339D4202F10302EED1E148DD4F90F85A
:100DF000C41190F8C52190F8C63190F8C25190F80E
:100E0000C34187F8C41187F8C52187F8C63187F830
:100E1000C25187F8C34100F2C71307F2C71200F2AC
:100E2000F7111D685C6815609D685460DC68D460CB
:100E300010338B42956002F11002F2D1CD4BCE4AB5
:100E400003F130011D685C6815609D685460DC68C2
:100E5000D46010338B42956002F11002F2D190F809
:100E6000272290F8283290F8295290F82A4290F8D8
:100E70002B1287F8272287F8283290F82C2290F836
:100E80002D3287F8295287F82A4290F82E5290F88E
:100E90002F4287F82B1287F82C2290F8301290F806
:100EA000312287F82D3290F8323287F82E5287F8A7
:100EB0002F4290F8335290F8344287F8301287F876
:100EC000312290F8351290F8362287F83232AB4B47
:100ED00087F8344287F8351287F8362287F833527C
:100EE000A74A90F8375290F8384290F8391287F8AC
:100EF000375203F13C0687F8384287F8391212F866
:100F0000035C12F8024C12F8011C03F8035C03F8AE
:100F1000024C03F8011C03339E4202F10302EED19E
:100F200090F8762290F8774290F8781287F8762237
:100F300090F87922934B87F8774287F8781290F8E7
:100F40007A4290F87B1287F8792290F87C2287F811
:100F50007A4287F87B1290F87D4290F87E1287F8EB
:100F60007C22894A87F87D4287F87E1203F14B0480
:100F700012F8011F03F8011BA342F9D1834903F1C1
:100F80004B0411F8012F03F8012BA342754AF8D145
:100F900090F8153390F8166390F8175390F81843AB
:100FA00090F8191382F8153390F81A3382F8166303
:100FB00082F81753B0F81C63B0F81E5382F8184338
:100FC00082F81913B0F8204390F8221382F81A33EC
:100FD00090F82333A2F81C63A2F81E5390F8246300
:100FE00090F82553A2F8204382F8221390F8264364
:100FF00090F8271382F82333B0F8283382F824635B
:1010000082F8255382F8264382F82713A2F8283362
:10101000B0F82A33A2F82A33B0F82C63B0F82E5374
:10102000B0F83043B0F83213B0F83433A2F82C6380
:10103000A2F82E53B0F83663B0F83853A2F8304314
:10104000A2F83213B0F83A43B0F83C13A2F83433A4
:1010500090F83E33A2F83663A2F8385390F83F6315
:1010600090F84053A2F83A43A2F83C1390F8414359
:1010700090F8421382F83E3390F8433382F83F638E
:1010800082F8405382F8414382F8421382F8433396
:1010900090F8443382F8443390F8456390F846530F
:1010A00090F8474390F8481390F8493382F8456325
:1010B00082F8465390F84A6390F84B5382F84743BE
:1010C00082F8481390F84C4390F84D1382F8493356
:1010D00090F84E3382F84A6382F84B5382F84C43BF
:1010E00090F8505390F8514382F84D1382F84E33E4
:1010F00090F8521390F8533390F84F6382F850539E
:1011000082F8514382F8521382F8533382F84F63C6
:101110001F4990F8546390F85D33D0F8585390F815
:101120005C4382F85D3382F85463C2F8585382F806
:101130005C4302F5587302F58A6251F8044F43F894
:10114000044B9342F9D1134A03F1F00452F8041FFF
:1011500043F8041BA342F9D10F4A03F13C041DE0FC
:10116000C494FF1FEC95FF1FEF95FF1F8B8CFF1F93
:10117000888CFF1F7F8EFF1FE397FF1F2998FF1F9B
:10118000C58EFF1F6B98FF1F068FFF1F518FFF1F1C
:10119000E48FFF1FD490FF1FC791FF1F12F8011F9C
:1011A00003F8011BA342F9D1434A03F1F00452F8BA
:1011B000041F43F8041BA342F9D1404A03F1F00491
:1011C00052F8041F43F8041BA3423D49F8D190F89C
:1011D0005C2790F85D6790F85E57B0F86047B0F80C
:1011E000623781F85C27B0F8642781F85D6781F881
:1011F0005E57A1F86047A1F86237A1F8642790F81C
:101200006A3790F8667790F8676790F8685790F8B3
:1012100069472C4A81F86A3781F8667781F86767F1
:1012200081F8685781F8694701F26C7301F28C719B
:1012300052F8040F43F8040B8B42F9D1224A03F110
:10124000200052F8041F43F8041B8342F9D11F4ABF
:1012500003F1200052F8041F43F8041B8342F9D124
:101260001B4A03F1200052F8041F43F8041B834279
:10127000F9D1184A03F1200052F8041F43F8041B67
:101280008342F9D1144A03F1200052F8041F43F8B5
:10129000041B83420A4CF8D1002501AA96210F486D
:1012A0008DF804508DF805508DF8065007F074FD48
:1012B00084F8C65103B0F0BD0092FF1FF092FF1FEB
:1012C000EC95FF1FF093FF1F1094FF1F3094FF1F3A
:1012D0005094FF1F7094FF1F9094FF1F888CFF1F76
:1012E0002DE9F0432F4D304E304C314F85B005F590
:1012F000E178324629463B78DFF8B49003A80335FD
:1013000007F03CFE9DF80C109DF80D209DF80E3066
:10131000217045456270A37006F1030604F10304D1
:10132000E7D1244E3368DB071FD5234D234C2B68B0
:10133000039394E80600039B5B1A93420CD33B781B
:101340002A6802920133029A2260DBB23B70FF2BC3
:1013500006D005B0BDE8F08399F80030FF2BF8D136
:10136000FFF71EFD05B0BDE8F083304608F050FDE4
:10137000114D50B9114C2B68039394E80600039B60
:101380005B1A9342DBD23B78E1E70D4B2A681B786E
:101390000A4C0192019A22609B003046636008F07B
:1013A0003DFDE8E7EC95FF1F888CFF1F189EFF1F8F
:1013B000868CFF1FBC95FF1F58A0FF1FC894FF1FFE
:1013C000D595FF1F2DE9F04F944E96F800C01FFAF7
:1013D0008CF385B0002B00F01E8103F1FF3B1FFA58
:1013E0008BFB8F488F490BF1010B0BEB4B0B8344AD
:1013F00002460D460C46177892F801A092F802902A
:101400002770033290F8BF8190F8C0E190F8C17165
:1014100084F801A05A4584F80290A0F1030081F8F5
:10142000BF8181F8C0E181F8C17104F10304A1F129
:101430000301E0D14A2B27D87B48C3F1950203EB87
:10144000430102EB420200EB010800EB020E013304
:101450006F1810F801B005F801B0AC189BB298F8FD
:1014600001A098F802909EF801B010F802809EF852
:10147000021087F801A04B2B87F8029005F8028034
:1014800084F801B0A170D8D10CF1FF3A0AEB4A0AF6
:10149000802405EB0A0B5946234603A802AA00271D
:1014A0008DF809408DF80A408DF8087007F066FD48
:1014B00096F800809DF80C309DF80D209DF80E00E8
:1014C00005F80A30C8F1960808EB480805EB08094A
:1014D000494623468BF801208BF8020002AA03A894
:1014E0008DF808708DF809408DF80A4007F046FD28
:1014F00032789DF80C1005F80810C2F195019DF89E
:101500000D0089F8010002EB420C01EB41019DF84E
:101510000E3089F8023005EB0C0E6818FF234A2ABA
:1015200005F80C30DFF8FC808EF801308EF80230C0
:10153000DFF8E8906B54437083702ED83B4F3B68C4
:10154000DB0717D53A4D3B4C2B68039394E8060014
:10155000039B5B1A9342337806D32A680292013BBD
:10156000029A2260DBB233700BB9FFF719FC05B0A9
:10157000BDE8F08F384608F04BFC2D4D0028E2D036
:101580002D4B2A681B782B4C0192019A22609B00FC
:101590003846636008F042FCD6E7551C05EB45056C
:1015A00008EB050A5146234602AA03A88DF80870E5
:1015B0008DF809408DF80A4007F0E0FC99F80030FA
:1015C0008DF80870C3F1940707EB470708EB07098C
:1015D0009DF80CC09DF80DE09DF80EB008F805C010
:1015E00002AA2346494603A88AF801E08AF802B015
:1015F0008DF809408DF80A4007F0C0FC9DF80C10EA
:101600009DF80D209DF80E3008F8071089F801208C
:1016100089F8023092E7034D0EE700BF0095FF1FE7
:10162000EC95FF1F189EFF1F888CFF1FB495FF1FAE
:1016300058A0FF1FDC94FF1FD595FF1F2DE9F04F29
:10164000A24B1D78ABB285B0002B00F0308103F1C6
:10165000FF3B1FFA8BFB9E489E490BF1010B0BEBE6
:101660004B0B834402460C460E4692F800E092F87B
:1016700001A092F8029086F800E0033290F8BF8152
:1016800090F8C0C190F8C1E186F801A05A4586F8EB
:101690000290A0F1030081F8BF8181F8C0C181F8F8
:1016A000C1E106F10306A1F10301DED14A2B28D8DE
:1016B0008948C3F1950203EB430102EB420200EBC0
:1016C000010800EB020C013304EB010E10F801B02D
:1016D00004F801B0A6189BB298F801A098F80290FF
:1016E0009CF801B010F802809CF802108EF801A05E
:1016F0004B2B8EF8029004F8028086F801B0B1708E
:10170000D7D1002D40F08F800DF10C0A0DF1080BA0
:101710006E4B1B78C3F1950000EB40005A1C03EBA5
:10172000430304EB030E251802EB4202802604EB70
:1017300002091746FF22E2544FF000088EF80120FC
:101740008EF802203346225449466A70AA705046E9
:101750005A468DF809608DF80A608DF8088007F008
:101760000DFC5A4B9DF80C101D789DF80DE08DF87E
:101770000880C5F1940505EB450504EB05083346E3
:101780008DF809608DF80A609DF80E60E1555A46A3
:101790005046414689F801E089F8026007F0EEFB07
:1017A0004E4B9DF80C001B689DF80D109DF80E2007
:1017B0006055DB07454888F8011088F8022020D5DD
:1017C000474D484C2B68039394E80600039B5B1A33
:1017D00093420ED33D4B2A681B780292029A2260F4
:1017E00001333A4ADBB213704A2B05D005B0BDE88D
:1017F000F08F03784A2BF9D1FFF7D2FA05B0BDE894
:10180000F08F3648364D08F003FB002851D1354C97
:101810002B68039394E80600039B5B1A9342D9D28A
:101820002A4B1B78E0E7013D05EB4505802604EBDC
:1018300005090DF10C0A0DF1080B4FF0000849469F
:10184000334650465A468DF808808DF809608DF869
:101850000A6007F093FB1D4B9DF80C201B789DF848
:101860000DC09DF80EE08DF80880C3F1960303EBE0
:10187000430304EB030862551F46414633465A466C
:10188000504689F801C089F802E08DF809608DF8AA
:101890000A6007F073FB9DF80C109DF80D209DF871
:1018A0000E30E15588F8012088F8023030E7094C05
:1018B000FEE60D4B2A681B780A4C0192019A2260C1
:1018C0009B000648636008F0A9FAA1E70095FF1F96
:1018D000888CFF1F189EFF1FEC95FF1FC095FF1FF0
:1018E00058A0FF1FD895FF1FD595FF1F012806D0D0
:1018F00003D3022801D1FFF7A1BEFFF7F1BCFFF728
:1019000061BD00BF10B510210446944809F018FBD2
:10191000214600230A22924809F026FD022191481F
:1019200009F00EFB5C2C00F28182DFE814F07A02F1
:10193000750270026B02660261025C02570252027B
:101940004D02480243023E02390234022F022A02AB
:10195000250220021B02160211020C0207020202DB
:10196000FD01F801F301EE01E901E401DF01DA0113
:10197000D501D001CB01C601C101BC01B701B20143
:10198000AD01A801A3019E01990194018F018A0173
:10199000850180017B01760171016C0167011101F4
:1019A0000C0107010201FD00F800F300EE00E90060
:1019B000E400DF00DA00D500D000CB00C600C10093
:1019C000BC00B700B200AD00A800A3009E009900C3
:1019D00094008F008A00850080007B0076007100F3
:1019E0006C00670062005D005F495D48FEF7F6FE2F
:1019F00010BD5E495A48FEF7F1FE10BD5C495848DB
:101A0000FEF7ECFE10BD5B495548FEF7E7FE10BD42
:101A100059495348FEF7E2FE10BD58495048FEF7B9
:101A2000DDFE10BD56494E48FEF7D8FE10BD5549A3
:101A30004B48FEF7D3FE10BD53494948FEF7CEFE92
:101A400010BD52494648FEF7C9FE10BD50494448F2
:101A5000FEF7C4FE10BD4F494148FEF7BFFE10BD62
:101A60004D493F48FEF7BAFE10BD4C493C48FEF7D1
:101A7000B5FE10BD4A493A48FEF7B0FE10BD4949CF
:101A80003748FEF7ABFE10BD47493548FEF7A6FEC6
:101A900010BD46493248FEF7A1FE10BD444930480A
:101AA000FEF79CFE10BD43492D48FEF797FE10BD82
:101AB00041492B48FEF792FE10BD40492848FEF7E9
:101AC0008DFE10BD3E492648FEF788FE10BD3D49FB
:101AD0002348FEF783FE10BD3B492148FEF77EFEFA
:101AE00010BD3A491E48FEF779FE10BD38491C4822
:101AF000FEF774FE10BD37491948FEF76FFE10BDA2
:101B000035491748FEF76AFE10BD34491448FEF700
:101B100065FE10BD32491248FEF760FE10BD314926
:101B20000F48FEF75BFE10BD2F490D48FEF756FE2D
:101B300010BD2E490A48FEF751FE10BD2C49084839
:101B4000FEF74CFE10BD2B490548FEF747FE10BDC1
:101B500029490348FEF742FE10BD00BFB4CC000087
:101B60006487FF1FC8CC00005CD2000050D2000088
:101B700040D2000030D200001CD2000004D200008D
:101B8000ECD10000DCD10000C4D10000B8D10000CD
:101B9000ACD1000094D1000088D100007CD10000BD
:101BA00070D1000064D1000054D1000048D1000081
:101BB00034D1000028D1000018D100000CD1000061
:101BC00000D10000F8D00000E4D00000D4D0000024
:101BD000C0D00000B4D00000A8D000009CD000000D
:101BE0008CD0000078D000006CD000005CD00000E9
:101BF00050D0000040D0000034D000008E498F4803
:101C0000FEF7ECFD10BD8E498C48FEF7E7FD10BDD8
:101C10008C498A48FEF7E2FD10BD8B498748FEF7E4
:101C2000DDFD10BD89498548FEF7D8FD10BD884906
:101C30008248FEF7D3FD10BD86498048FEF7CEFDF1
:101C400010BD85497D48FEF7C9FD10BD83497B481D
:101C5000FEF7C4FD10BD82497848FEF7BFFD10BDF8
:101C600080497648FEF7BAFD10BD7F497348FEF7FC
:101C7000B5FD10BD7D497148FEF7B0FD10BD7C4932
:101C80006E48FEF7ABFD10BD7A496C48FEF7A6FD25
:101C900010BD79496948FEF7A1FD10BD7749674835
:101CA000FEF79CFD10BD76496448FEF797FD10BD18
:101CB00074496248FEF792FD10BD73495F48FEF714
:101CC0008DFD10BD71495D48FEF788FD10BD70495E
:101CD0005A48FEF783FD10BD6E495848FEF77EFD59
:101CE00010BD6D495548FEF779FD10BD6B4953484D
:101CF000FEF774FD10BD6A495048FEF76FFD10BD38
:101D000068494E48FEF76AFD10BD67494B48FEF72B
:101D100065FD10BD65494948FEF760FD10BD644989
:101D20004648FEF75BFD10BD62494448FEF756FD8C
:101D300010BD61494148FEF751FD10BD5F493F4864
:101D4000FEF74CFD10BD5E493C48FEF747FD10BD57
:101D50005C493A48FEF742FD10BD5B493748FEF743
:101D60003DFD10BD59493548FEF738FD10BD5849B5
:101D70003248FEF733FD10BD56493048FEF72EFDC0
:101D800010BD55492D48FEF729FD10BD53492B487C
:101D9000FEF724FD10BD52492848FEF71FFD10BD77
:101DA00050492648FEF71AFD10BD4F492348FEF75B
:101DB00015FD10BD4D492148FEF710FD10BD4C49E1
:101DC0001E48FEF70BFD10BD4A491C48FEF706FDF4
:101DD00010BD49491948FEF701FD10BD4749174894
:101DE000FEF7FCFC10BD46491448FEF7F7FC10BD99
:101DF00044491248FEF7F2FC10BD43490F48FEF774
:101E0000EDFC10BD41490D48FEF7E8FC10BD40490E
:101E10000A48FEF7E3FC10BD3E490848FEF7DEFC29
:101E200010BD3D490548FEF7D9FC10BD3B490348AC
:101E3000FEF7D4FC10BD00BF20D000006487FF1F58
:101E400010D0000004D00000F8CF0000ECCF00005C
:101E5000D8CF0000CCCF0000C0CF0000B4CF00002E
:101E60009CCF000094CF00002CD0000088CF000051
:101E70007CCF000068CF000054CF000044CF0000AA
:101E800038CF00002CCF000020CF000014CF00007E
:101E900008CF0000FCCE0000F0CE0000E4CE000031
:101EA000D8CE0000CCCE0000C0CE0000B0CE0000E6
:101EB0009CCE000080CE000068CE00004CCE00001A
:101EC0003CCE00002CCE000018CE000008CE000052
:101ED00000CE0000F8CD0000E0CD0000D0CD000025
:101EE000C8CD0000B8CD0000A8CD000098CD0000FE
:101EF00084CD000070CD00005CCD000044CD00001A
:101F00002CCD00001CCD000008CD0000F4CC00005A
:101F1000E4CC0000D8CC0000CCCC000074D200008F
:101F200038B500210446AD4809F00AF8AC4809F07C
:101F30000BFA2221AB4809F003F8A94809F004FA8A
:101F400094F8C631002B00F09E80012B00F0B8847D
:101F5000022B00F0BB841321A34808F0F1FFA34B30
:101F60009F4819780A22002309F0FEF90321A048AE
:101F700008F0E6FF9A4809F0E7F913219D4808F0B8
:101F8000DFFF00230A2294F8C311954809F0ECF909
:101F90000321974808F0D4FF914809F0D5F91121A1
:101FA000954808F0CDFF94F8C5118D4809F01CFA4A
:101FB00003218F4808F0C4FF894809F0C5F91421AE
:101FC0008E4808F0BDFF00230A2294F82A128448A4
:101FD00009F0CAF90321864808F0B2FF804809F0E9
:101FE000B3F91521864808F0ABFF94F82D127C4810
:101FF00009F0FAF903217E4808F0A2FF784809F0B9
:10200000A3F911217F4808F09BFF94F82912744826
:1020100009F0EAF90321764808F092FF704809F0C8
:1020200093F994F829324BBB22216E4808F088FFBF
:102030006B4809F089F994F82C321B2B00F2338499
:10204000DFE813F05E003104310431043104000193
:1020500031043104310439013104310431043104D3
:10206000310431044801530155015701780124021C
:10207000D2021F039C033104DB03260094F82802DC
:10208000FFF740FCD0E760495548FEF7A7FB62E741
:102090005E495348FEF7A2FB5D495148FEF790FBAD
:1020A00000230A2294F869174D4809F05DF9504958
:1020B0004B48FEF793FB1821564808F041FF0023D8
:1020C0000A2294F86A17464809F04EF948494448EC
:1020D000FEF784FB50494248FEF772FB94F8291240
:1020E0003F4809F081F942493D48FEF777FB23213B
:1020F0004A4808F025FF3A48BDE8384009F024B9BD
:1021000047493748FEF76AFB46493548FEF758FB12
:1021100094F8C411324809F067F935493048FEF7A0
:102120005DFB41492E48FEF74BFB94F834122C48D6
:1021300009F05AF92E492A48FEF750FB3B49284836
:10214000FEF73EFB94F83512254809F04DF9284971
:102150002348FEF743FB36492148FEF731FB0023B5
:102160000A2294F82F121E4809F0FEF820491C4854
:10217000FEF734FB2F491A48FEF722FB00230A2200
:1021800094F83012164809F0EFF819491448FEF790
:1021900025FB29491248FEF713FB00230A2294F875
:1021A00031120F4809F0E0F811490D48FEF716FB0F
:1021B00022490B48FEF704FB00230A2294F832124E
:1021C000074809F0D1F80A490548FEF707FB1C4902
:1021D0000348FEF7F5FA94F8331281E700D40000C3
:1021E0006487FF1F8CD200001CD300002387FF1FD1
:1021F00030D3000034D3000048D300005CD300008B
:1022000074D300008CD30000B0D2000030DB00009B
:1022100054DB000064DB000080DB0000BCDB00005E
:10222000A0D30000C4D30000DCD30000F0D3000032
:1022300004D4000018D4000028D4000038D40000D2
:1022400048D4000094F87A32002B00F084837A4955
:102250007A48FEF7C3FA7A497848FEF7B1FA94F85B
:10226000C411764809F0C0F876497448FEF7B6FA0A
:1022700075497248FEF7A4FA94F87A126F4809F08B
:10228000B3F870496D48FEF7A9FA70496B48FEF73C
:1022900097FA00230A2294F87812684809F064F843
:1022A00068496648FEF79AFA69496448FEF788FA71
:1022B00094F8771234E094F82B32093B062B00F2A5
:1022C0000F83DFE813F08703820309037D0378039C
:1022D00073036E035F495948FEF780FA584957481F
:1022E000FEF76EFA94F8C411FAE65B49F3E75B492E
:1022F000F1E75B495148FEF771FA51494F48FEF743
:102300005FFA94F8C4114D4809F06EF84D494B48F6
:10231000FEF764FA53494948FEF752FA94F83E131F
:10232000464800230A2209F01FF846494348FEF7B1
:1023300055FADCE64C494148FEF750FA40493F481F
:10234000FEF73EFA94F8C4113C4809F04DF83D49B7
:102350003A48FEF743FA45493848FEF731FA002378
:102360000A2294F83F13354808F0FEFF35493348F8
:10237000FEF734FA3E493148FEF722FA00230A22DA
:1023800094F840132D4808F0EFFF2E492B48FEF734
:1023900025FA38492948FEF713FA00230A2294F84F
:1023A0004113264808F0E0FF26492448FEF716FAB4
:1023B00031492248FEF704FA00230A2294F8421316
:1023C0001E4808F0D1FF1F491C48FEF707FA2B49A9
:1023D0001A48FEF7F5F900230A2294F84613174825
:1023E00008F0C2FF17491548FEF7F8F924491348C9
:1023F000FEF7E6F900230A2294F843130F4808F089
:10240000B3FF10490D48FEF7E9F91E490B48FEF7E6
:10241000D7F900230A2294F84F13084808F0A4FFC4
:1024200008490648FEF7DAF917490448FEF7C8F9E3
:1024300094F8501374E700BF84D400006487FF1F32
:10244000C4D3000030D30000A8D40000B8D40000EA
:10245000C8D4000048D600006CD6000090D600001A
:10246000B4D60000D8D60000A8D70000CCD7000012
:10247000E0D70000F4D7000008D800001CD8000006
:1024800030D8000044D8000058D800009F49A04828
:10249000FEF7A4F99F499E48FEF792F994F8C411FB
:1024A0009B4808F0A1FF9C499948FEF797F99B4982
:1024B0009748FEF785F900230A2294F847139448B9
:1024C00008F052FF94499248FEF788F994499048E1
:1024D000FEF776F900230A2294F84D138C4808F091
:1024E00043FF8D498A48FEF779F98E498848FEF7FF
:1024F00067F900230A2294F84013854808F034FF56
:1025000085498348FEF76AF987498148FEF758F9FB
:1025100000230A2294F849137D4808F025FF7E49DC
:102520007B48FEF75BF981497948FEF749F90023BA
:102530000A2294F84213764808F016FF7649744848
:10254000FEF74CF97A497248FEF73AF900230A225D
:1025500094F84A136E4808F007FF6F496C48FEF77D
:102560003DF974496A48FEF72BF900230A2294F8D2
:102570004113674808F0F8FE67496548FEF72EF9F1
:102580006D496348FEF71CF900230A2294F84B13A7
:102590005F4808F0E9FE60495D48FEF71FF96749AA
:1025A0005B48FEF70DF900230A2294F846135848B9
:1025B00008F0DAFE58495648FEF710F960495448C9
:1025C000FEF7FEF800230A2294F84C13504808F056
:1025D000CBFE51494E48FEF701F95A494C48FEF7E7
:1025E000EFF894F843139BE657494948FEF7F6F88D
:1025F00056494748FEF7E4F894F85433012B00F0AD
:10260000EE81C0F0CC81022B07D151494048FEF742
:10261000D7F841493E48FEF7E1F84E493C48FEF7FD
:10262000CFF800230A2294F85113394808F09CFE91
:1026300039493748FEF7D2F847493548FEF7C0F820
:1026400000230A2294F85D13314808F08DFE3249C8
:102650002F48FEF7C3F841492D48FEF7B1F8002393
:102660000A2294F85C172A4808F07EFE2A49284876
:10267000FEF7B4F83A492648FEF7A2F8D4F8581302
:102680004EE638492248FEF7A9F837492048FEF7B8
:1026900097F8B4F83C131E4808F0A6FE1E491C48E3
:1026A000FEF79CF831491A48FEF78AF800230A22FF
:1026B00094F85E17164808F057FE17491448FEF7BD
:1026C0008DF82B491248FEF77BF800230A2294F874
:1026D00031120F4808F048FE0F490D48FEF77EF80A
:1026E00024490B48FEF76CF800230A2294F83012B4
:1026F000074808F039FE08490548FEF76FF81E49FB
:102700000348FEF75DF894F8321209E66CD8000031
:102710006487FF1FC4D3000030D3000090D80000AE
:10272000A4D80000B8D80000CCD80000E0D8000041
:10273000F4D8000008D900001CD9000030D90000EE
:1027400044D9000058D90000F0D6000014D700008A
:1027500028D7000044D700005CD7000074D70000E1
:102760008CD700006CD9000090D90000A8D90000D7
:10277000BCD90000D4D90000ECD900009A499B488C
:10278000FEF72CF89A499948FEF71AF894F8C41104
:10279000964808F029FE97499448FEF71FF8964995
:1027A0009248FEF70DF8B4F86017904808F01CFE48
:1027B00090498E48FEF712F890498C48FEF700F8D1
:1027C000B4F86217894808F00FFE8A498748FEF777
:1027D00005F88B498548FDF7F3FFB4F86417834883
:1027E00008F002FE83498148FDF7F8FF85497F48DC
:1027F000FDF7E6FF94F8671792E583497B48FDF7FC
:10280000EDFF82497948FDF7DBFF00230A2294F8A7
:102810003112764808F0A8FD76497448FDF7DEFFCE
:102820007B497248FDF7CCFF00230A2294F8391245
:102830006E4808F099FD6F496C48FDF7CFFF754968
:102840006A48FDF7BDFF00230A2294F8301267485A
:1028500008F08AFD67496548FDF7C0FF6E49634887
:10286000FDF7AEFF00230A2294F878125F4808F0C3
:102870007BFD60495D48FDF7B1FF68495B48FDF7A6
:102880009FFF00230A2294F83712584808F06CFD85
:1028900058495648FDF7A2FF61495448FDF790FF9B
:1028A00094F876121CE45F495048FDF797FF5E49A3
:1028B0004E48FDF793FF5B494C48FDF78FFF16E448
:1028C0005A494A48FDF78AFFFFF745BB5849474830
:1028D000FDF784FFFFF73FBB56494448FDF77EFFF5
:1028E00055494248FDF76CFF00230A2294F87B12F9
:1028F0003E4808F039FD3F493C48FDF76FFF4F491E
:102900003A48FDF75DFF00230A2294F87D1237480C
:1029100008F02AFD37493548FDF760FF94F8175352
:10292000F5B147493148FDF74BFF94F817132F488D
:1029300008F05AFD2F492D48FDF750FF94F82B322F
:102940000E3B012B3FF6D3AB3E492848FDF738FF3D
:1029500094F81A13E4E43C492448FDF73FFF7AE475
:102960003A492248FDF72CFF2B460A2294F87C12A4
:102970001E4808F0F9FC1F491C48FDF72FFF344999
:102980001A48FDF71DFF94F87E1218482B460A22BC
:1029900008F0EAFC17491548FDF720FFC1E72D496B
:1029A00034E62D491148FDF719FF99E72B490F48E7
:1029B000FDF714FF94E72A490C48FDF70FFF8FE756
:1029C00028490A48FDF70AFF8AE727490748FDF723
:1029D00005FF85E725490548FDF700FF80E7244905
:1029E0000248FDF7FBFE18E604DA00006487FF1FCB
:1029F000C4D3000030D3000028DA000040DA000021
:102A000058DA00006CDA000080DA0000A4DA000076
:102A1000BCDA0000D4DA0000ECDA000004DB0000CD
:102A200018DB000000D4000098DB0000D4D20000C6
:102A3000F8D2000068D50000D4D50000E8D5000029
:102A400024D6000034D6000060D40000FCD500007D
:102A500010D6000030D70000FCD40000D8D400000D
:102A6000B0D500008CD5000044D5000020D5000072
:102A700038D7000038B51C4D044634211B4808F0F7
:102A80005FFA284608F060FC3321194808F058FA2C
:102A9000284608F059FC3321164808F051FA284618
:102AA00008F052FC1448154A03881178144D03EBC2
:102AB000432203EB820303F5585319339BB203EB14
:102AC0001322D2B212FB01F21212038084F82822E0
:102AD00055F8221004F2F710FDF73CFF94F8280295
:102AE000BDE83840FEF70EBF6487FF1FE0DB000043
:102AF00018DC00004CDC00005A87FF1F4D87FF1FC9
:102B000024E70000244B254A1B7800211170072B75
:102B100009D8DFE803F0131C252E34043A0A204BB1
:102B20001B8880F83132FFF7FBB91D4B1B8800333F
:102B300018BF012380F83332FFF7F2B9184B1B8816
:102B4000003318BF012380F8C431FFF7E9B9144BF3
:102B50001B88003318BF012380F83432FFF7E0B937
:102B60000F4B1B88003318BF012380F83532FFF765
:102B7000D7B90B4B1B8880F82F32FFF7D1B9084B20
:102B80001B8880F83032FFF7CBB9054B1B8880F8E3
:102B90003232FFF7C5B900BFD495FF1FC595FF1F9F
:102BA000CC95FF1F2DE9F04F90F82D3291B00446DF
:102BB000002B40F09480D14E80F82C32338803EB08
:102BC000432003EB800000F55850193080B200EB31
:102BD000402500EB850505F558551935ADB205EBD7
:102BE000452305EB830303F55853193303EB4322C5
:102BF00003EB820303F5585319339BB203EB4321D4
:102C000003EB810101F55851193189B201EB4122E1
:102C100001EB820202F55852193292B202EB422EB7
:102C200002EB8E0E0EF5585E0EF1190E1FFA8EFE97
:102C30000EEB4E2C0EEB8C0C0CF5585C0CF1190CB9
:102C40001FFA8CFC03EB13270CEB4C280CEB8808C9
:102C500001EB1121FFB202EB122207EB870708F507
:102C60005858C9B2D3B201EB41013A1208F1190820
:102C70008F110EEB1E2E1FFA88F800EB1020013288
:102C800003EB43031B11CEF3C01105EB1525C0F375
:102C9000C01E0CEB1C2C07F1080084F82F2208EB57
:102CA000182203F12007C5F3C0150131CCF3C0137E
:102CB000C2F3C01284F83002012084F834E284F8B0
:102CC000355284F8317284F83212A6F8008084F804
:102CD000C42184F8333284F82D0284F82902884B09
:102CE0001B78002B40F0A88494F8333213B10023F2
:102CF00084F82E32962194F83122204606F00EF9FF
:102D000094F8341294F8357294F82F32002940F078
:102D1000DE80002F00F01F82002B00F0EF82794848
:102D200094F82E22DFF8E091DFF8E081029004F1C0
:102D3000E1050F460DF13C0A04F2C71B03955EE066
:102D400094F830123B440B44D9F800100491FF2B47
:102D5000049998BF1B024FF48C7098BF9BB200FB84
:102D600001F103FB01F31B0C5E04C3F3CA0103D59D
:102D7000C1F5FF61073189B2029D080AC1F346011E
:102D800018F8006035F8100006FB01011D0489B237
:102D900048BF49420EB294F8271294F8C23100910C
:102DA0005046594606F01AF9A6F5004396229BB202
:102DB00002FB03F31B0C03EB4303E118E25C9DF8F9
:102DC0003C0082FA50F2E2549DF83D304A7882FA93
:102DD00053F24A708B789DF83E2083FA52F38B7041
:102DE00094F82E1294F8322294F82F3201370A44C4
:102DF000FFB2D2B2BB4284F82E2240F27F8294F816
:102E0000C41100299CD194F830123B440B44D9F8EA
:102E100000100591FF2B059998BF1B024FF48C7091
:102E200000FB01F198BF9BB203FB01F31B0C58049C
:102E3000C3F3CA0103D5C1F5FF61073189B2080A9E
:102E4000029D18F8006035F81000C1F3460106FB3A
:102E500001011B0489B248BF49420EB294F82712FF
:102E600094F8C23100915046594606F0B7F8A6F5DD
:102E700000439BB203EB8303C3EB03131B0C03EB75
:102E80004303E118E25C9DF83C0082FA50F2E25400
:102E90009DF83D304A7882FA53F24A708B789DF85B
:102EA0003E2083FA52F3039D8B7022462346197805
:102EB00082F8BF11597882F8C011997882F8C1114F
:102EC00003339D42A2F10302F1D1039588E7002F5D
:102ED00000F0A780002B00F011820A4B94F82E22FC
:102EE000DFF82490DFF82480029304F1E105002745
:102EF0000DF13C0A04F2C71B03956EE05A87FF1FD1
:102F0000C595FF1FB0DD000058A0FF1FE4E80000DA
:102F100094F8C431002B00F05F82D9F80030089398
:102F2000089994F830324FF4FA7000FB17111B0225
:102F30004FF48C7000FB03F303FB01F3C3F30E4368
:102F400003F580435D04C3F3CA0103D5C1F5FF61F6
:102F5000073189B2029D080AC1F3460118F80060E2
:102F600035F8100006FB01061D04B6B294F82712CE
:102F700094F8C231009148BF76425946504636B265
:102F800006F02CF8A6F500439AB2962303FB02F351
:102F90001B0C03EB4303E118E25C9DF83C0082FA52
:102FA00050F2E2544A789DF83D3082FA53F24A706A
:102FB0008B789DF83E2083FA52F38B7094F82E2282
:102FC00094F8323294F82F1201371A44FFB2D2B279
:102FD000B94284F82E2240F2918194F8C531002B39
:102FE00096D194F8C431002B00F0C082D9F800309B
:102FF0000A930A9994F830324FF4FA7000FB1711D3
:103000001B024FF48C7000FB03F303FB01F3C3F3CB
:103010000E43A3F580439BB25E04C3F3CA0199D566
:1030200094E7002B00F06A81B64994F82E22DFF86D
:10303000D892DFF8D882029104F1E10504F2C71BAF
:103040004FF48C7A039563E094F8C411002900F0E2
:103050005F8194F830123B440B44D9F800100C9176
:10306000FF2B0C999CBF1B029BB20AFB01F103FBD7
:1030700001F3C3F30E4303F580435D04C3F3CA01B8
:1030800003D5C1F5FF61073189B2029D080AC1F37A
:10309000460118F8006035F8100006FB01061D0413
:1030A000B6B294F8271294F8C231009148BF764224
:1030B00059460BA836B205F091FFA6F500439622BB
:1030C0009BB202FB03F31B0C03EB4303E118E25C2E
:1030D0009DF82C0082FA50F2E2544A789DF82D3087
:1030E00082FA53F24A708B789DF82E2083FA52F3BD
:1030F0008B7094F82E1294F8322294F82F32013704
:103100000A44FFB2D2B2BB4284F82E2240F2F680CB
:1031100094F8C511002997D194F8C411002900F042
:10312000C08194F830123B440B44D9F800100E9142
:10313000FF2B0E999CBF1B029BB20AFB01F103FB04
:1031400001F3C3F30E43A3F580439BB25E04C3F3C4
:10315000CA019AD595E7002B00F0D080694B94F80E
:103160002E22DFF8A491DFF8A481029304F1E10597
:103170000DF13C0A04F2C71B03955AE0D9F8003060
:103180000693069B94F830124FF48C70090200FBF2
:1031900003F303FB01F3790301EB134399B24E04EC
:1031A000C1F3CA0303D5C3F5FF6307339BB2029D86
:1031B000180AC3F3460318F8006035F8100006FB40
:1031C00003030D049BB248BF5B4294F827121EB262
:1031D000504694F8C2310091594605F0FFFEA6F51D
:1031E000004396229BB202FB03F31B0C03EB430349
:1031F000E118E25C9DF83C0082FA50F2E2549DF83E
:103200003D304A7882FA53F24A708B789DF83E201E
:1032100083FA52F38B7094F82E2294F8323294F899
:103220002F1201371A44FFB2D2B2B94284F82E22CB
:1032300064D994F8C431002BA0D1D9F80030079399
:10324000079B94F830124FF48C7000FB03F30902D3
:1032500003FB01F3790301EB134399B24804C1F373
:10326000CA0303D5C3F5FF6307339BB2180A029D57
:1032700018F8006035F81000C3F3460306FB03039B
:103280009BB20E0448BF5B4294F827121EB2504610
:1032900094F8C2310091594605F0A0FEA6F500430E
:1032A0009BB203EB8303C3EB03131B0C03EB43033E
:1032B000E118E25C9DF83C0082FA50F2E2549DF87D
:1032C0003D304A7882FA53F24A708B789DF83E205E
:1032D00083FA52F3039D8B7022462346197882F8B5
:1032E000BF11597882F8C011997882F8C11103335F
:1032F000AB42A2F10302F1D103958CE711B0BDE816
:10330000F08F00BFB0DD000058A0FF1FE4E8000010
:1033100094F830123B440B44D9F800100D91FF2B68
:103320000D999CBF1B029BB20AFB01F103FB01F349
:10333000C3F30E4303F580435804C3F3CA0103D516
:10334000C1F5FF61073189B2080A029D18F80060D3
:1033500035F81000C1F3460106FB01061B04B6B2A6
:1033600094F8271294F8C231009148BF764259462A
:103370000BA836B205F032FEA6F500439BB203EB74
:103380008303C3EB03131B0C03EB4303E118E25C61
:103390009DF82C0082FA50F2E2549DF82D304A78C4
:1033A00082FA53F24A708B789DF82E2083FA52F3FA
:1033B000039D8B7022462346197882F8BF115978F5
:1033C00082F8C011997882F8C1110333AB42A2F19F
:1033D0000302F1D103958CE6D9F8003009930999DD
:1033E00094F830324FF4FA7000FB17111B024FF4BF
:1033F0008C7000FB03F303FB01F3C3F30E4303F5EF
:1034000080435804C3F3CA0103D5C1F5FF610731F6
:1034100089B2080A029D18F8006035F81000C1F35F
:10342000460106FB01061B04B6B294F8271294F875
:10343000C231009148BF76425946504636B205F037
:10344000CDFDA6F500439BB203EB8303C3EB03134F
:103450001B0C03EB4303E118E25C9DF83C0082FA8D
:1034600050F2E2549DF83D304A7882FA53F24A70A5
:103470008B789DF83E2083FA52F3039D8B70224691
:103480002346197882F8BF11597882F8C0119978CB
:1034900082F8C1110333AB42A2F10302F1D10395CB
:1034A0008CE594F830123B440B44D9F800100F918E
:1034B000FF2B0F999CBF1B029BB20AFB01F103FB80
:1034C00001F3C3F30E43A3F580439BB25804C3F347
:1034D000CA0103D5C1F5FF61073189B2080A029D0F
:1034E00018F8006035F81000C1F3460106FB01062C
:1034F0001B04B6B294F8271294F8C231009148BF69
:10350000764259460BA836B205F068FDA6F5004391
:103510009BB203EB8303C3EB03131B0C03EB4303CB
:10352000E118E25C9DF82C0082FA50F2E2549DF81A
:103530002D304A7882FA53F24A708B789DF82E200B
:1035400083FA52F3039D8B7022462346197882F842
:10355000BF11597882F8C011997882F8C1110333EC
:10356000AB42A2F10302F1D10395C2E5D9F80030D4
:103570000B9394F830120B9B4FF4FA7000FB173347
:1035800009024FF48C7000FB01F103FB01F3C3F35C
:103590000E43A3F580439BB25804C3F3CA0103D57D
:1035A000C1F5FF61073189B2080A029D18F8006071
:1035B00035F81000C1F3460106FB01061B04B6B244
:1035C00094F8271294F8C231009148BF76425946C8
:1035D000504636B205F002FDA6F500439BB203EB60
:1035E0008303C3EB03131B0C03EB4303E118E25CFF
:1035F0009DF83C0082FA50F2E2549DF83D304A7842
:1036000082FA53F24A708B789DF83E2083FA52F387
:10361000039D8B7022462346197882F8BF11597892
:1036200082F8C011997882F8C1110333AB42A2F13C
:103630000302F1D10395C1E42046FFF763FAFFF7D7
:1036400053BB00BF174B184A1B7800211170032B86
:103650000AD8DFE803F01702110B144B1B88003364
:1036600018BF012380F87A32FEF75ABC0F4B1B8833
:1036700080F87732FEF754BC0C4B1B8880F8783208
:10368000FEF74EBC094B1B88002B14BF01230023FF
:1036900080F8C43114BF96234B23A0F83C33FEF7C7
:1036A0003FBC00BFD495FF1FC595FF1FCC95FF1FE2
:1036B00090F82D322DE9F0410446002B46D15E48AA
:1036C00084F82932038803EB432203EB820303F5DA
:1036D000585319339BB203EB432203EB820202F5EA
:1036E0005852193292B203EB1323DBB202EB4221A0
:1036F00003EBC30502EB810103EB450301F55851D0
:1037000019311B1289B20133012601EB1125DBB2FD
:10371000C5F3C0150527B342018084F8C45184F86D
:103720002D6284F87A6284F82C7200F0838002EBB8
:103730001222D2B202EB420212123244D2B284F806
:10374000783284F877222046FEF7EAFB3B4B1B7861
:10375000002B6BD194F8C53143BB94F8792294F8CF
:1037600077321A4494F87A32D2B284F879224BBB79
:1037700094F8C431002B51D194F878324B21204673
:1037800005F01AFB204604F1E1012346027883F894
:10379000BF21427883F8C021827883F8C1210330A9
:1037A0008842A3F10303F1D1BDE8F08194F87932A6
:1037B00094F877229A1A94F87A32D2B284F879225D
:1037C000002BD5D094F878322521204605F0F4FA64
:1037D00004F16F05234621462246107881F8DE0069
:1037E000507881F8DF00907881F8E0000332AA4237
:1037F000A1F10301F1D104F1E1012046027883F83F
:10380000BF21427883F8C021827883F8C121033038
:103810008842A3F10303F1D1BDE8F08194F8783236
:1038200020469621BDE8F04105F0C6BA2046FFF7D4
:1038300009FF8FE71A4682E75A87FF1FC595FF1FCA
:10384000F0B590F82B429DF814609DF81CE001271C
:103850000E3C0925BC4280F82C5280F82D729DF850
:1038600018503FD9002380F87B6280F87D5280F8A1
:10387000171380F8182380F81AE380F82932002AF9
:103880003ED14B2380F8162380F815331F4C238834
:1038900003EB432203EB820303F5585319339BB226
:1038A00003EB432203EB820202F55852193292B223
:1038B00003EB132302EB1221DBB2C9B203EB430388
:1038C00001EB41010A3E0A3DC3EBC303C1EBC10159
:1038D00006EB232305EB212180F87C32228080F83F
:1038E0007E12F0BD80F8297280F87B6280F87D52EC
:1038F00080F8171380F8182380F81AE3002AC3D041
:10390000252380F8153380F81633BFE75A87FF1F49
:10391000194B1A4A1B7800211170052B08D8DFE8D3
:1039200003F00F151B032109154B1B8880F87E320D
:10393000FEF7F6BA124B1B8880F81A33FEF7F0BA7E
:103940000F4B1B8880F87B32FEF7EABA0C4B1B88C2
:1039500080F87D32FEF7E4BA094B1B8880F87C3290
:10396000FEF7DEBA064B1B88003318BF012380F830
:103970001733FEF7D5BA00BFD495FF1FC595FF1FBB
:10398000CC95FF1F2DE9F04790F82D32D04D86B031
:103990000446002B00F02982CE4B1B78002B40F010
:1039A000208294F81533002B00F0D18294F87D1218
:1039B0002A8801EB81014F0003F27E2E97FBF3F77B
:1039C0000237FFB2A64404F27E2602EB422102EB4C
:1039D000810202F55852193292B202EB122116F806
:1039E000010FC9B211FB07F1A0EB112121EAE1712E
:1039F000B6453170E9D194F817632A80002E00F0A3
:103A0000F580A3F1030EBEF1010F4FF0010C1ADD9A
:103A100003F27B2003F27D27DFF8BC922044274489
:103A200004F27F28017810F8016D01EB460189FB53
:103A300001A6A6EBE171804507F8011DF2D1BCF1AA
:103A4000000F00F0028102EB422102EB810202F53D
:103A50005852193292B202EB122194F87B622A80FA
:103A6000C9B28E429A4826D902EB422102EB81026A
:103A700002F55852193292B202EB422602EB860648
:103A800006F558561936B6B206EB162102EB12228D
:103A9000C9B2D2B201EB4107C2EBC20204EB22224F
:103AA000C1EB471109120680603992F87F0280FA53
:103AB00051F082F87F02BCF1000F12D12A8894F8ED
:103AC0007C62834902EB422002EB800202F55852ED
:103AD000193292B202EB1220C0B286422A8000F262
:103AE000CD8094F8C521002A5FD1002B00F02682FA
:103AF00004F27E279046B94605AE013BC8EB0305AC
:103B000005EB450519F8011F304605F045FA9DF80B
:103B10001430635525449DF816309DF815206A70C1
:103B2000AB7094F8153308F101084345E5DC94F8CF
:103B300018230AB394F8C521002A40F0BF819046AB
:103B4000002B00F0FE8108EB030517F8011F30463B
:103B500005F022FA05EB45039DF81420E2542344B6
:103B60009DF815109DF8162059709A7094F8153329
:103B700008F101084345E6DC94F81723002A00F019
:103B8000AD8004F1E10123461A7884F8BF215A7808
:103B900084F8C0219A7884F8C12103339942A4F1B2
:103BA0000304F1D106B0BDE8F087002B00F0EA80F5
:103BB00004F27E27B94625464FF0000805AE19F8F5
:103BC000011F304605F0E8F99DF816309DF81410F5
:103BD0009DF8152029706A70AB7094F8153308F1C0
:103BE0000108434505F10305E9DCA0E794F87E12DE
:103BF00001EB81014FEA410E9EFBF3FE0EF1020E36
:103C00005FFA8EFE04F2C92702EB422102EB810229
:103C100002F55852193292B202EB122117F8010F35
:103C2000C9B211FB0EF1A0EB1121013621EAE171BD
:103C30009E423970E8DB2A80A3F1030EBEF1010F2A
:103C40004FF0000C3FF7E4AEFDE603F2C62603F5A5
:103C50003277DFF8848026442744317816F8010D46
:103C600001EB400188FB01900EF1FF3EA0EBE171FA
:103C7000BEF1010F07F8011DEFD1E4E602EB42208F
:103C800002EB800202F55852193292B202EB422541
:103C900002EB850505F55855193502EB1222ADB238
:103CA000D2B205EB1520C2EBC202C0B204EB222255
:103CB00000EB4006C0EB461092F8CA620D8001127C
:103CC0006039304680FA51F082F8CA0209E700BF35
:103CD0005A87FF1FC595FF1F5655555594F8C521A6
:103CE000002A5AD1002B3FF45DAF04F2C927B94630
:103CF0004FF0000805AE94F8165319F8011F4B3524
:103D0000454405EB4505304605F046F99DF814306D
:103D1000635525449DF816309DF815206A70AB70E8
:103D200094F8153308F101084345E4DC94F81823AE
:103D3000002A3FF437AF94F8C521002A00F0DD8057
:103D4000002B3FF42FAF25464FF0000817F8011F56
:103D5000304605F021F99DF816309DF814109DF8B5
:103D6000152085F8E11085F8E22085F8E33094F815
:103D7000153308F10108434505F10305E6DC06B0FB
:103D8000BDE8F08794F81833002B40F0DA80BCF1DE
:103D9000000F7FF4F6AE94F81533002B3FF402AF1A
:103DA00004F2C927B94625464FF0000805AE19F8B8
:103DB000011F304605F0F0F89DF816309DF81410FC
:103DC0009DF8152085F8BF1185F8C02185F8C1310F
:103DD00094F8153308F101084345A5F10305E6DC25
:103DE000A4E72046FFF794FDDBE52B8803EB432196
:103DF00003EB810101F55851193189B201EB4122E0
:103E000001EB820202F55852193292B202EB422EB5
:103E100002EB8E0E0EF5585E0EF1190E1FFA8EFE95
:103E20000EEB4E260EEB860606F558561936B6B240
:103E300006EB462306EB830303F5585319339BB275
:103E400003EB432703EB870706EB16260EEB1E2E2C
:103E500007F5585703EB1323F6B25FFA8EFE1937B6
:103E6000DBB2C6EB0616BFB2B6110EEB8E0CC3EB7F
:103E700003130EEB4C0E9B1106F1320C07EB1726C9
:103E80003C334FEA2E2EC6F381165FFA83F85FFAB1
:103E90008CFC01360EF1140301EB112102EB12220E
:103EA000CDF800C0CDF804800296C1F3C011C2F372
:103EB000C012DBB22F80FFF7C3FC6DE5002B40D0B2
:103EC00025464FF0000817F8011F304605F064F84A
:103ED0009DF816309DF814109DF8152085F8DE1019
:103EE00085F8DF2085F8E03094F8153308F10108F3
:103EF0004345A5F10305E6DC3EE69046002B3FF482
:103F000051AE4B33C8EB030505EB450517F8011F10
:103F1000304605F041F89DF81430635525449DF86E
:103F200016309DF815206A70AB7094F8153308F1BF
:103F300001084345E5DC06B0BDE8F08794F8183386
:103F400063B194F81733002B7FF41BAE2AE694F884
:103F500017230AB12A8854E52A886DE6BCF1000FC0
:103F60007FF40FAE94F81533BCE600BF2DE9F04F97
:103F700090F82D32D04D87B00446002B00F0DA8146
:103F8000CE4B1B78002B40F0428294F815C3634659
:103F9000BCF1000F00F03F8294F87D122A8801EBFB
:103FA00081014F000CF27E2E97FBFCF70237FFB227
:103FB000A64404F27E2602EB422102EB810202F5C6
:103FC0005852193292B202EB122116F8010FC9B2FF
:103FD00011FB07F1A0EB112121EAE171B645317027
:103FE000E9D194F817632A80002E00F06B81ACF1C0
:103FF0000307012F4FF001091ADD0CF27B200CF2B0
:104000007D26DFF8BC822044264404F27F2E01780E
:1040100010F801AD01EB4A0188FB01BAAAEBE1718E
:10402000864506F8011DF2D1B9F1000F00F02C8190
:1040300002EB422102EB810202F55852193292B290
:1040400002EB122094F87B622A80C0B286429A4921
:1040500028D902EB422002EB800202F558521932B5
:1040600092B202EB422602EB860606F55856193646
:1040700002EB1222B6B2D2B206EB1620C2EBC2029B
:10408000C0B204EB222200EB40070E80C0EB4710C9
:1040900092F87F620012A0F16001304680FA51F080
:1040A00082F87F02B9F1000F12D12A8894F87C625D
:1040B000814902EB422002EB800202F5585219328C
:1040C00092B202EB1220C0B286422A8000F2AF8088
:1040D000BCF1000F00F0A48104F27E2700260DF150
:1040E0001409C3F14B039D1905EB450517F8011F92
:1040F000484604F051FF9DF81430635525449DF85F
:1041000016309DF815206A70AB7094F8153301369F
:10411000B342E6DC94F81763002E75D104F2C92788
:10412000002B00F083814A339D1B05EB450517F8F2
:10413000011F484604F030FF9DF8143063552544B4
:104140009DF816309DF815206A70AB7094F8153301
:104150000136B342E7DC4B2B47D00DF1140904F2D2
:10416000C71B2746264600254FF0010A94F819235D
:10417000CDF800A0C5EB052898FBF3F31A44D2B2A2
:10418000FF235946484604F029FF9DF814109DF876
:1041900015209DF8163031707270B37094F8193391
:1041A00094F8152398FBF2F808EB0302D2B2FF2330
:1041B0005946CDF800A0484604F010FF9DF81520A0
:1041C0009DF816309DF8141087F8C02187F8BF11AC
:1041D00087F8C13194F815330135C3F14B02AA4277
:1041E00006F10306A7F10307C0DC94F8C531002BE4
:1041F00040F0968094F8193394F81A239B1A84F8A7
:10420000193307B0BDE8F08F214604F1E1052246DD
:10421000107881F8BF01507881F8C001907881F85A
:10422000C10103329542A1F10301F1D193E702EB01
:10423000422002EB800202F55852193292B202EB90
:10424000422502EB850505F55855193502EB12227A
:10425000ADB2D2B205EB1520C2EBC202C0B204EB84
:10426000222200EB4006C0EB461092F8CA620D8095
:1042700001126039304680FA51F082F8CA02BCF16E
:10428000000F7FF429AFCFE00CF2C6260CF5327E8A
:10429000DFF82C802644A644317816F8010D01EB96
:1042A000400188FB01A0013FA0EBE171012F0EF856
:1042B000011DF1D1BCE600BF5A87FF1FC595FF1F46
:1042C0005655555594F87E1201EB81014FEA410E87
:1042D0009EFBFCFE0EF1020E5FFA8EFE04F2C92771
:1042E00002EB422102EB810202F55852193292B2DE
:1042F00002EB122117F8010FC9B211FB0EF1A0EB6E
:104300001121013621EAE17166453970E8DB2A8026
:10431000ACF10307012F4FF000093FF76EAE87E6BF
:1043200094F8192394F81A33134484F8193307B016
:10433000BDE8F08F2B8803EB432103EB810101F5EE
:104340005851193189B201EB412201EB820202F589
:104350005852193292B202EB422E02EB8E0E0EF53B
:10436000585E0EF1190E1FFA8EFE0EEB4E260EEB66
:10437000860606F558561936B6B206EB462306EB06
:10438000830303F5585319339BB203EB432703EB25
:10439000870706EB16260EEB1E2E07F5585703EB84
:1043A0001323F6B25FFA8EFE1937DBB2C6EB0616A0
:1043B000BFB2B6110EEB8E0CC3EB03130EEB4C0E1B
:1043C0009B1106F1320C07EB17263C334FEA2E2ED9
:1043D000C6F381165FFA8CFC5FFA83F801EB1121BA
:1043E0000EF1140302EB12220136CDF800C0CDF815
:1043F00004800296DBB2C1F3C011C2F3C0122F8059
:10440000FFF71EFA0B4B1B78002B3FF4BEAD204686
:10441000FFF77EFAB9E594F817234AB12A88E6E552
:10442000B9F1000F7FF4F0AE0DF11409002396E608
:104430002A886DE7C595FF1F0E4B0F4A1B78002198
:1044400011703BB1012B03D10C4B1B8880F83E331C
:10445000FDF766BD094B1B88002B14BF0123002309
:1044600080F8C43114BF96234B23A0F83C33FDF7EA
:1044700057BD00BFD495FF1FC595FF1FCC95FF1FEB
:10448000F0B590F82D32494E85B0044673BB3388A1
:1044900003EB432203EB820303F5585319339BB21A
:1044A00003EB432103EB810101F55851193189B226
:1044B00001EB1122D2B2C2EB0212121203EB132350
:1044C00001200632C3F3C01313253180D2B284F821
:1044D000C43184F82D0284F8290284F82C52002B70
:1044E0005CD14B23A4F83C3384F83E23304B1B783B
:1044F000002B57D194F83E232046962104F00EFD60
:104500003288B4F83C5302EB422302EB830202F5FB
:10451000585319339BB203EB432703EB870707F587
:1045200058571937BFB207EB172203FB05F30121D8
:104530001D0C009103A804F2C711D2B2FF233780EB
:1045400004F04CFD05EB4503E118E25C9DF80C001E
:1045500082FA50F2E2549DF80D304A7882FA53F212
:104560004A708B789DF80E2083FA52F38B7094F882
:10457000C4318BB9204604F1E10123461A7880F852
:10458000BF215A7880F8C0219A7880F8C12103337E
:104590008B42A0F10300F1D105B0F0BD9623A4F841
:1045A0003C33A1E72046FFF747FFA3E75A87FF1FE9
:1045B000C595FF1F244B254A1B7800211170092B3C
:1045C0000AD8DFE803F0101E23282D3237053C0BF4
:1045D0001F4B1B8880F84F33FDF7A2BC1C4B1B8878
:1045E00080F84533F8E71A4B1B88002B14BF0123D2
:1045F000002380F8C43114BF96234B23A0F83C332A
:10460000EAE7134B1B8880F83F33E5E7104B1B8824
:1046100080F84033E0E70E4B1B8880F84133DBE73E
:104620000B4B1B8880F84233D6E7094B1B8880F878
:104630004633D1E7064B1B8880F84333CCE7044B65
:104640001B8880F85033C7E7D495FF1FC595FF1F1F
:10465000CC95FF1F2DE9F04F90F82D3285B0044620
:10466000002B40F0BB80DFF828C3BCF8003003EB20
:10467000432603EB860606F558561936B6B206EB06
:10468000462106EB810101F55851193189B201EB40
:10469000412501EB850505F558551935ADB205EBFA
:1046A000452305EB830303F5585319339BB203EB02
:1046B000432703EB870707F558571937BFB207EBB6
:1046C000472007EB800000F55850193080B200EB0E
:1046D000402200EB820202F55852193292B202EBEC
:1046E000422E02EB8E0E0EF5585E0EF1190E1FFAD9
:1046F0008EFE0EEB4E280EEB880803EB132308F515
:10470000585801EB1121DBB202EB122208F1190813
:10471000C9B21FFA88F803EB8303D2B201EB41015F
:1047200008EB182902EB820203EB830300EB102055
:10473000091205EB15254FEAA21A9B115FFA89F2BF
:104740000131C5F3421506EB162607EB1727C0B259
:1047500003F16409ACF800800AF11403C6F3C01633
:10476000C7F3811700EB800002EB82020EEB1E2ED6
:104770005FFA81FA4FF01408691D012584F8C461BD
:104780005FFA89F90137C0F30720DBB2C2F3C71C17
:104790005FFA8EFE84F82D5284F8295284F82C8218
:1047A000002E40F0E8804B22A4F83C23764D84F89C
:1047B0003FA3A5FB032501EB9502002184F841935B
:1047C00084F8427384F8460384F8433384F84FE353
:1047D00084F850C384F8402384F845136B4B1B784E
:1047E000002B40F0CC8094F8451394F83F3394F8B4
:1047F000C5210B44DBB284F8453384F84433002AE6
:1048000000F0B18094F8462394F84033134484F8C0
:104810004633B4F83C33002B00F08E8004F2C71905
:104820002546671C00264FF0FF085CE00029BCBF4E
:10483000D243D2B25200D2B2531C03FB02F2121284
:1048400002FB03F31B1202EB4202A2EB430292B201
:10485000D30554BF5FFA82FB4FF0FF0BC0EB0B0B8D
:104860005FFA8BFB94F8502394F84F338DF80E20A9
:10487000294603A88DF80C308DF80D8004F0ACFDAE
:1048800094F8443394F83F2394F82712009102FBE4
:104890000A32D2B25B46494603A804F09FFB17F8E0
:1048A000013C9DF80C2083FA52F307F8013C6A782A
:1048B0009DF80D3082FA53F26A70AB789DF80E20A5
:1048C00083FA52F3AB7094F8441394F84233B4F87B
:1048D0003C2301360B44B24205F1030507F10307FF
:1048E00084F8443328DD94F8433394F846235FFA80
:1048F00086FA03FB0A22D2B251B20029BABFD343CF
:10490000DBB213465B00DBB2581C00FB03F31B1247
:1049100003FB00F0001203EB4303A3EB40039BB245
:10492000D80594F8410354BFDBB2FF239842FFF44B
:104930007DAF4FF0000B95E794F8C43183B904F1D3
:10494000E1012346227883F8BF21627883F8C021F1
:10495000A27883F8C1210334A142A3F10303F1D16A
:1049600005B0BDE8F08F94F8463394F840239B1AC5
:1049700084F846334DE79622A4F83C2316E72046F8
:10498000FFF718FE2FE700BFCDCCCCCCC595FF1F9D
:104990005A87FF1F70B5044682B01B4D022005F0F8
:1049A00089F92B88184400EB402300EB830043F285
:1049B0001963184480B200EB102200EB402100EB99
:1049C0008100D2B2034402EB82029BB29211002614
:1049D00003EB13211B3284F8512384F8521384F81B
:1049E000546384F8536384F85C63204601AA9621DB
:1049F0002B808DF804608DF805608DF8066004F05A
:104A0000CBF902B070BD00BF5A87FF1F2DE9F04FF0
:104A100090F85C3387B00290002B00F0898090F80A
:104A200051330393064618465D4B1B8803EB432422
:104A300003EB840404F558541934A4B204EB142392
:104A4000DBB203EB830903EBC9094FEA292909F11A
:104A5000140901235FFA89F986F8543386F85D93C7
:104A600007F0BEFC06F5577B06F5AF6A5B4606F21B
:104A70004C4806F23F57D346019006F5CD66002517
:104A80009A4604EB442304EB830404F55854193488
:104A9000A4B2732303FB04F0000C019B4AF8043F0B
:104AA0000A3080B207F09CFC3E4907F0A5FD04EBFC
:104AB000442304EB830303F5585319339BB203EBF0
:104AC000432403EB840404F558541934A4B204EBD2
:104AD0001421C9B201EB810103EB13230912C3F3C3
:104AE000C0130A3148F8040F07F8013FC8B207F0B5
:104AF00077FC0135EBB22C4A4BF8040F994546F888
:104B0000042FBED8039A029E254FC2F1950102EBF5
:104B1000420301EB4101F5187018FF223C80F2546A
:104B20006A70AA7072544270827007B0BDE8F08F4C
:104B3000029D95F8533395F8511395F852238DF84B
:104B400014200533DBB201EB410185F853332944CE
:104B500005A8FF248DF816308DF8154004F03CFCB4
:104B600095F8511395F8523395F853238DF8143076
:104B7000C1F1950101EB410105A829448DF81540CB
:104B80008DF8162004F028FC95F85333FF2BCCD178
:104B9000029A012382F85C3307B0BDE8F08F00BFB2
:104BA0005A87FF1F0000C84200007F432DE9F047ED
:104BB000654B054682B01A78962104F0AFF995F856
:104BC0005D43002685F85C67002C7ED0DFF890916D
:104BD0004FF0FF083BE0D4F86013504607F050FB5D
:104BE00007460021384607F0F1FD5849002868D1F2
:104BF000384607F009FE00B1544FC4F860735146BF
:104C0000D9F8000007F044FC4FF06E51C4F850048E
:104C1000D4F87C0507F03CFC01464FF07E5007F0CD
:104C20002DFBD4F86C1607F033FCC4F86C0607F0C3
:104C30001BFE95F85C37C0B2834206F1010695F879
:104C40005D3338BF85F85C07F6B2B3423BD905EB5C
:104C50008604D4F8600307F0E1FD0746D4F86C063B
:104C600007F002FE95F852338DF8020001A968465C
:104C70008DF800308DF8018004F0AEFB07EB4700A3
:104C800029182B5C9DF8042083FA52F32B549DF8CD
:104C900005304A7882FA53F24A708B789DF80620E4
:104CA00083FA52F3AA198B7092F84035D4F850A4C5
:104CB000002B90D1D4F86003514607F0DFFA074685
:104CC0008FE7002799E795F85C472A4605F1E10050
:104CD0002B46197882F8BF11597882F8C01199785B
:104CE00082F8C11103338342A2F10302F1D144BB24
:104CF00001AA962128468DF804408DF805408DF8CC
:104D0000064004F049F81248124C038824681249FE
:104D1000124A019403EB43240988128803EB8403AD
:104D200003F558530A4419339BB292B20199038098
:104D300003FB02F301EB13430222C5F8583385F855
:104D4000542302B0BDE8F0874887FF1F000094425B
:104D50005A87FF1F58A0FF1F2487FF1F4A87FF1F86
:104D60005487FF1F10B590F82D3282B0044603BB64
:104D700001201621022284F8293284F82D0284F8B9
:104D80002C1284F85423002301AA962120468DF882
:104D900004308DF805308DF8063003F0FDFF0F4A22
:104DA000D4F8583312680192019A9A4212D202B092
:104DB00010BD90F85433012B04D007D2FFF726FE24
:104DC00002B010BDFFF7F2FE02B010BD022BDAD028
:104DD00002B010BD2046FFF7DDFDE8E758A0FF1F39
:104DE000184B194A1B7800211170042B0DD8DFE8ED
:104DF00003F003141A200E00144B1B78092B1ED944
:104E0000412BA8BF4123A0F83C33FDF789B80F4BD5
:104E10001B8880F83232FDF783B80C4B1B8880F872
:104E20005E37FDF77DB8094B1B8880F83132FDF7FE
:104E300077B8064B1B8880F83032FDF771B80A232B
:104E4000E1E700BFD495FF1FC595FF1FCC95FF1F5D
:104E50002DE9F04390F82D6287B00446002E00F053
:104E6000F780BA4B1B78002B40F05D81B4F83C13FF
:104E700004F2C71711B3264600254FF0010894F835
:104E80005D37CDF80080C5EB052292FBF1F21A44A4
:104E9000D2B2FF23394605A804F0A0F89DF81410FB
:104EA0009DF815209DF8163031707270B370B4F80B
:104EB0003C130135A94206F10306E0DC94F8C53144
:104EC000002B00F0BD8094F85D2794F85E37134402
:104ED00084F85D374A2900F32A8101EB4102A318C7
:104EE00004F1E10594F8311258781E7893F802E045
:104EF000C943C9B24A1C02FB00F102FB06F602FBE1
:104F00000EF2301209121212187059709A7003338F
:104F1000AB42E7D1B4F83C13DFF8448294F8303266
:104F2000D8F80020059205984FF48C7202FB00F22D
:104F30001B0203FB02F2C2F30E42A2F5804292B2C0
:104F40005004C2F3CA0303D5C3F5FF6307339BB212
:104F5000180ADFF810E27E4E365C3EF81000C3F30C
:104F6000460306FB030312049EB248BF764236B2E4
:104F7000C1F14A03A6F500469BB2B6B203FB066632
:104F800094F8270294F8C23194F82E22009001EB95
:104F9000164604A83946B6B204F020F806EB4603DC
:104FA000E118E25C9DF8100082FA50F2E2549DF89C
:104FB00011304A7882FA53F24A708B789DF81220A9
:104FC00083FA52F3634F8B703B68DB071BD5624E4D
:104FD000D8F80030049396E80600049B5B1A9A42C6
:104FE00021D923461A7884F8BF215A7884F8C02141
:104FF0009A7884F8C12103339D42A4F10304F1D1CE
:1050000007B0BDE8F083384604F002FF002840F006
:105010009180514ED8F80030049396E80600049B26
:105020005B1A9342DDD3D8F8001094F82E2294F83E
:105030003232039103993160134484F82E32D0E761
:1050400094F85D3794F85E279B1A84F85D3741E742
:10505000424F3B8803EB432203EB820303F5585393
:1050600019339BB203EB432203EB820202F5585241
:10507000193292B202EB422E02EB8E0E0EF5585E02
:105080000EF1190E1FFA8EFE03EB132302EB122210
:1050900046213220DDB20EEB1E28A7F800E05FFAB1
:1050A00082F906F05FFA3B8884F8300203EB432074
:1050B00003EB800005EB450305EB83031B125FFA4E
:1050C00088F800F55850C3F13903DBB2193008EB0A
:1050D000480880B2C8EB0818A4F83C331B4B84F88E
:1050E000C46109EB89024FEAE81100EB102E15129A
:1050F000CEF3C40E01F11E021B7884F83122691C24
:1051000017220EF101054FF0010E84F85E1738806A
:1051100084F8325284F82DE284F829E284F82C22B3
:10512000002B3FF4A3AE2046FFF75AFE9EE604F1A3
:10513000E105F1E6D8F80030074E0293029B336098
:1051400032233846736004F069FE63E7C595FF1F9C
:10515000E4E80000B895FF1FD094FF1F5A87FF1F97
:1051600058A0FF1FB0DD00002A4B2B4A1B780021FE
:1051700011700B2B0BD8DFE803F0111F24292E33FD
:10518000383D4206470C254B1B8880F84633FCF718
:10519000C7BE224B1B8880F84333F8E71F4B1B88A0
:1051A000002B14BF0123002380F8C43114BF9623C1
:1051B0004B23A0F83C33EAE7184B1B8880F84733B1
:1051C000E5E7164B1B8880F84D33E0E7134B1B884F
:1051D00080F84033DBE7114B1B8880F84933D6E772
:1051E0000E4B1B8880F84233D1E70C4B1B8880F8AC
:1051F0004A33CCE7094B1B8880F84133C7E7074B9C
:105200001B8880F84B33C2E7044B1B8880F84C3373
:10521000BDE700BFD495FF1FC595FF1FCC95FF1FAD
:105220002DE9F04F90F82D3283B00446002B40F06A
:10523000CB80DFF8CCA380F82932BAF8003003EB3A
:10524000432603EB860606F558561936B6B206EB2A
:10525000462C06EB8C0C0CF5585C0CF1190C1FFA63
:105260008CFC0CEB4C2E0CEB8E0E0EF5585E0EF1FA
:10527000190E1FFA8EFE0EEB4E210EEB810101F589
:105280005851193189B201EB412701EB870707F526
:1052900058571937BFB207EB472507EB850505F5CA
:1052A00058551935ADB205EB452005EB800000F5EA
:1052B0005850193080B200EB402200EB820202F518
:1052C0005852193292B202EB422302EB830303F5E8
:1052D000585319339BB203EB432903EB890909F5B2
:1052E000585909F119091FFA89F909EB192801EB35
:1052F000112102EB12225FFA88F803EB1323C9B2E3
:10530000D2B208EB4808DBB2C1EBC10105EB1525B1
:1053100000EB102002EB4202C8EBC80803EB43038A
:1053200012114FEA282806EB1626091207EB172759
:10533000EDB2C0B21B1102F1200BC6F3C01608F18A
:105340000C020CEB1C2C0EEB1E2E0339C7F381173D
:1053500005EB450500EB40002033AAF800904FF024
:1053600015084FF0010984F8C4615FFA8CFC5FFAFC
:105370008EFEC9B20137C5F30725C0F307205FFAD7
:105380008BFBD2B2DBB284F82D9284F82C82002EF3
:1053900040F02B814B26A4F83C63002684F847C3D9
:1053A00084F84DE384F8401384F8497384F8425339
:1053B00084F84A0384F841B384F84B3384F84323D8
:1053C00084F8466384F84C638C4B1B78002B40F0C8
:1053D000108194F8C531002B40F0F88094F8460312
:1053E00094F84C1394F8402394F8493302440B4446
:1053F00084F8462384F84C3394F847C394F8422346
:1054000094F84D0394F84A33B4F83C1394445FFA8B
:105410008CFC034484F847C384F84D33002900F022
:10542000BE8026460027FF258BE0002BBCBFC9436A
:10543000C9B24900C9B24B1C03FB01F1091201FBBF
:1054400003F31B1201EB4101A1EB430189B2CB0530
:1054500054BF5FFA81FE4FF0FF0EC8EB0E0E5FFAED
:105460008EFE94F84C3384F848E3803B0344DBB26F
:1054700059B20029BABFDA43D2B21A465200D2B2A8
:10548000501C00FB02F2121202FB00F0001202EBB1
:105490004202A2EB400292B2D00594F84B0354BFF3
:1054A000D2B2FF22904278D20029BCBFDB43DBB2EC
:1054B0005A00D2B2531C03FB02F2121202FB03F396
:1054C0001B1202EB4202A2EB430292B2D30554BF7D
:1054D000D3B2FF231B1ADBB284F84E33314601A846
:1054E0008DF804C08DF806E08DF8055003F074FFC8
:1054F00094F84E2394F84D338DF8022001A96846A4
:105500008DF800308DF8015003F066FF33789DF878
:10551000042083FA52F3337072789DF8053082FAD2
:1055200053F27270B3789DF8062083FA52F3B37089
:10553000B4F83C330137BB4206F103062FDD94F883
:1055400047C394F8430394F8461394F8418310FB3F
:1055500007F0C0B20144C9B24BB2002BBABFCA4374
:10556000D2B20A465200D2B202F1010E0EFB02F292
:10557000121202FB0EFE4FEA2E2E02EB4202A2EBAB
:105580004E0292B212F4807F0CBFD2B2FF2290453D
:10559000FFF44BAF4FF0000E63E700239CE794F855
:1055A000C43183B904F1E10123461A7884F8BF219C
:1055B0005A7884F8C0219A7884F8C12103338B4249
:1055C000A4F10304F1D103B0BDE8F08F94F84623B1
:1055D00094F84C3394F8400394F84913121A5B1A68
:1055E00084F8462384F84C3306E79626A4F83C63F7
:1055F000D3E62046FFF7B8FDEBE600BFC595FF1FD9
:105600005A87FF1F194B1A4A1B7800211170042B6F
:1056100008D8DFE803F00F1E03240900154B1B8890
:10562000A0F86237FCF77CBC124B1B8880F8673708
:10563000FCF776BC0F4B1B88002B14BF0123002303
:1056400080F8C43114BF96234B23A0F83C33FCF7F9
:1056500067BC084B1B88A0F86037FCF761BC054BA2
:105660001B88A0F86437FCF75BBC00BFD495FF1F14
:10567000C595FF1FCC95FF1F2DE9F04390F82D3203
:1056800085B00446002B64D1754D2B8803EB43266F
:1056900003EB860606F558561936B6B206EB4622D7
:1056A00006EB820202F55852193292B202EB422303
:1056B00002EB830303F5585319339BB203EB4327E3
:1056C00003EB870707F5585719371FFA87FE0EEBCC
:1056D0004E200EEB800000F55850193080B200EBE0
:1056E0001021C9B24BF6687707FB0EF7C2EB021226
:1056F000C3EB0313C1EBC10106EB1626C2F3CF3295
:10570000C3F3CF3389113F0C2880C6F3C01601259F
:105710000A320A33203107F57A774FF0180E84F8F1
:10572000C46192B29BB2C9B2B8B284F82D5284F867
:10573000295284F82CE2002E40F089804B25A4F8F1
:105740003C53A4F86027A4F86237A4F8640784F8EF
:105750006717444B1B78002B7DD1B4F83C337BB3E7
:10576000DFF80C9104F2C718254600260127B4F88B
:105770006007B4F8641710FB06F080B2014489B2E8
:1057800003F0D2FFA9FB003200EBD21202F0FF02BD
:105790000097FF2384F86627414603A803F01EFC08
:1057A0009DF80E309DF80C109DF80D2029706A7040
:1057B000AB70B4F83C330136B34205F10305D6DCD7
:1057C000294B1B68039303984FF42F2303FB00F02E
:1057D000000EC3B2590635D5DB43D9B201F00F0331
:1057E0005A1C01F03F010B1120495B00CD18CB5C26
:1057F000697811FB02F203EB2213DBB2020648BF09
:105800005B425BB2803BB4F8642794F8C411C3F3E5
:10581000811301331344A4F8643781B904F1E10121
:1058200023461A7884F8BF215A7884F8C0219A78E0
:1058300084F8C12103339942A4F10304F1D105B0E6
:10584000BDE8F08303F03F0103F00F02CBE796259C
:10585000A4F83C5375E72046FFF7D4FE7DE700BF70
:105860005A87FF1FC595FF1F58A0FF1F38DF000094
:1058700081808080F0B590F82D3285B00446002BF1
:1058800064D17B4D2B8803EB432603EB860606F59C
:1058900058561936B6B206EB462206EB820202F5DE
:1058A0005852193292B202EB422302EB830303F502
:1058B000585319339BB203EB432703EB870707F5D4
:1058C000585719371FFA87FE0EEB4E200EEB80005B
:1058D00000F55850193080B200EB1021C9B24BF6D8
:1058E000687707FB0EF7C2EB0212C3EB0313C1EBA1
:1058F000C10106EB1626C2F3CF32C3F3CF338911B1
:105900003F0C2880C6F3C01601250A320A33203125
:1059100007F57A774FF0180E84F8C46192B29BB203
:10592000C9B2B8B284F82D5284F8295284F82CE216
:10593000002E40F094804B25A4F83C53A4F8602737
:10594000A4F86237A4F8640784F86717494B1B78FA
:10595000002B40F0888094F867279621204603F0BA
:10596000DDFAB4F86237B4F86417B4F86007194484
:1059700089B203F0D9FE404AB4F83C33A2FB0015CB
:1059800000EBD510FE2B00F0FF055FDC03FB055399
:105990001D12EDB201232A46009304F2C711FF2322
:1059A00003A805EB450503F019FB9DF80C30635582
:1059B00025449DF80D109DF80E20304B6970AA709B
:1059C0001B68039303994FF42F2303FB01F1090E86
:1059D000CBB2580635D5DB43DAB202F00F03013300
:1059E00002F03F022648121152008518825C687846
:1059F00010FB03F302EB2313DBB20A0648BF5B4242
:105A00005BB2803BB4F8642794F8C411C3F38113EC
:105A100001331344A4F8643789B9204604F1E10145
:105A200023461A7880F8BF215A7880F8C0219A78E6
:105A300080F8C12103339942A0F10300F1D105B0F0
:105A4000F0BD03F03F0203F00F03CBE703FB05F3C8
:105A500082FB03251D44DB17C3EBE51599E796256B
:105A6000A4F83C536AE72046FFF7CCFD73E700BF7C
:105A70005A87FF1FC595FF1F8180808058A0FF1F98
:105A800038DF00002DE9F04F074687B0B0F83C033F
:105A90009DF840B0BDF84450029100286ED05B08DC
:105AA00003F1140A0AF10103DFF8D890DFF8D88077
:105AB000039314460026FA35ADB26A04C5F3CA034F
:105AC00003D5C3F5FF6307339BB2190AC3F346023C
:105AD00019F8010038F8113000FB02339BB228049A
