:1000000000800020BD0100004DB1000005B10000DE
:1000100005B1000005B1000005B1000005B1000008
:1000200005B1000005B1000005B100004DB10000B0
:100030004DB1000005B1000079C500007DC600008B
:100040004DB100004DB100004DB100004DB10000B8
:100050004DB100004DB100004DB100004DB10000A8
:100060004DB100004DB100004DB100004DB1000098
:100070004DB100004DB100004DB100004DB1000088
:100080004DB100004DB100004DB100004DB1000078
:100090004DB100004DB100004DB100004DB1000068
:1000A0004DB100004DB100004DB100004DB1000058
:1000B0004DB100004DB100004DB100004DB1000048
:1000C0004DB100004DB100004DB100004DB1000038
:1000D0004DB100004DB100004DB100004DB1000028
:1000E0004DB100004DB100004DB100004DB1000018
:1000F0004DB10000D5C900004DB1000001CB00009A
:100100004DB100002DCC00004DB100004DB10000FC
:100110004DB100004DB100004DB100004DB10000E7
:100120004DB100004DB100004DB100004DB10000D7
:100130004DB100004DB100004DB100004DB10000C7
:100140004DB100004DB100004DB100004DB10000B7
:100150004DB100004DB100004DB100004DB10000A7
:100160004DB1000095B500004DB100004DB100004B
:100170004DB100004DB100004DB100004DB1000087
:100180004DB100004DB100004DB100004DB1000077
:100190004DB100004DB100004DB100004DB1000067
:1001A0004DB100004DB100004DB100004DB1000057
:1001B0004DB100004DB100004DB10000564B4CF266
:1001C000205210B51A804DF628121A8000BF00BFC9
:1001D0000AF0C0FF514B4FF010621A60504A9A600B
:1001E000504ADA60504A136813F4807304D14F49BF
:1001F0000B604FF4A85313604D4B1A78110703D5C9
:100200001A7842F008021A704A4B4B492A221A7097
:100210004A4A4B4B8B4204D252F8040F43F8040B6A
:10022000F8E7484B484900228B4202D243F8042B9E
:10023000FAE74649464A002352F8230041F82300D2
:1002400001336F2BF8D1434B434A802103F8011B44
:100250009342FBD1414B3D4A1A60414B8A221A70AE
:10026000A3F5805324225A70A0221A709A7992071B
:10027000FCD59A79D406FCD43A4A937903F00C035E
:10028000082B384BF9D103221A7140225A719A79FE
:100290009006FCD5334A9179324B4906FBD5324A58
:1002A000324911600221516020221A709A7902F0BD
:1002B0000C020C2AFAD12E4B2E4A1A602E4B2F4AD2
:1002C0001A6000225A60072243F8042C2C4AC3F813
:1002D0000C2D62B60BF014F8144B1B68DA0705D529
:1002E00028480AF085FF284B284A1A60284B1B78BB
:1002F0005B0609D5244C254B22689A4204D121483B
:100300000AF076FF002323600DF078FC0AF028FF46
:100310000CF0BCF9FEE700BF0E2005403080044021
:10032000823F04000100002B10D0034014D0034092
:1003300002D0074000E007406C8CFF1F4C0F01000B
:100340002087FF1F6C8CFF1FB0ABFF1F0082FF1FB9
:100350000000000000E400E05FE400E008ED00E0E1
:100360000050064000400640448004400000030165
:1003700004800440C010050014E000E0FF76010096
:1003800000002020D1543C5E1CE00340A5C3945AD9
:1003900000F00740FFFFFFFFFFFFFFFFFFFFFFFF32
:1003A000FFFFFFFFFFFFFFFFFFFFFFFFFFFFFFFF5D
:1003B000FFFFFFFFFFFFFFFFFFFFFFFFFFFFFFFF4D
:1003C000FFFFFFFFFFFFFFFFFFFFFFFFFFFFFFFF3D
:1003D000FFFFFFFFFFFFFFFFFFFFFFFFFFFFFFFF2D
:1003E000FFFFFFFFFFFFFFFFFFFFFFFFFFFFFFFF1D
:1003F000FFFFFFFFFFFFFFFFFFFFFFFFFFFFFFFF0D
:10040000FFFFFFFFFFFFFFFFFFFFFFFFDEF9FFFF23
:1004100010B5054C237833B9044B13B10448AFF33E
:1004200000800123237010BD6C8CFF1F00000000B2
:10043000500F0100084B10B51BB108490848AFF335
:1004400000800848036803B910BD074B002BFBD0A0
:10045000BDE81040184700BF00000000708CFF1F6F
:10046000500F01006C8CFF1F0000000040697047B6
:10047000002070474268017B13780B43137070476C
:100480004268017B137823EA01031370704700BFB1
:1004900070B41D4C83B024680194019DFF2898BF5F
:1004A00000024FF48C74A5EB030304FB03F398BF25
:1004B00080B200FB03F0C0F30E4000F5804044041E
:1004C000C0F3CA0303D5C3F5FF6307339BB21D0A0C
:1004D0000E4E0F4C765D34F81540C3F3460506FB0F
:1004E000054300049BB24ABF5C421CB224B2521ABC
:1004F000A4F5004492B2A3B202FB033301EB134014
:1005000080B203B070BC7047ECA8FF1F4CFD000028
:10051000BCF5000070B41E4C83B024680194019DAA
:10052000FF2898BF00024FF48C74A5EB030304FB73
:1005300003F398BF80B200FB03F0C0F30E40A0F5B8
:10054000804080B24404C0F3CA0303D5C3F5FF63FF
:1005500007339BB21D0A0F4E0F4C765D34F81540E1
:10056000C3F3460506FB054300049BB24ABF5C4249
:100570001CB224B2521AA4F5004492B2A3B202FBF8
:10058000033301EB134080B203B070BC704700BF6F
:10059000ECA8FF1F4CFD0000BCF5000010B50121C8
:1005A00004460E200AF036FE072001210AF032FE32
:1005B000A06958B10368074A5B68934207D1426853
:1005C000017B137823EA0103137010BD10BDBDE851
:1005D0001040184781040000F0B58BB00023056877
:1005E0008DF804308DF805308DF806302E68374AC6
:1005F0008DF8083096428DF809308DF80A305FD1B9
:10060000827C04910446012A01A805918DF81E30D0
:100610008DF81F308DF82030039015D08DF81D30E7
:100620008DF81C308DF81B308DF81A308DF819308C
:100630008DF818300023AA698DF8213020460993DF
:1006400003A990470BB0F0BD214A1378013303F0A2
:10065000070313F0010F14BF8021002113709A07C4
:1006600044BF41F04001C9B25B0748BF41F02001DF
:1006700010310022C9B20DF11B030DF11E074FF41A
:10068000807EAAB19EFBF2F2D2B2501CC0B200FB37
:1006900001152D121870EEB205B1013E03F8036C7E
:1006A00000B11A7001339F4208D0DA78002AE9D1EC
:1006B0001A7003F8032C01339F42F6D12568B9E77D
:1006C0000A4602AB01A9B0470BB0F0BD9907000084
:1006D000888CFF1FF0B5857C1C785E789B7889B08C
:1006E000012D0191029203928DF816408DF817604A
:1006F0008DF8183017D000238DF815308DF8143090
:100700008DF813308DF812308DF811308DF81030CF
:100710000368002203219B698DF81910079201A933
:10072000984709B0F0BD1B4A1378013303F0070363
:1007300013F0010F137014BF80220022990744BFE9
:1007400042F04002D2B25B0748BF42F020021032B2
:10075000D2B20DF113030DF116074FF4807EACB148
:100760009EFBF4F4E4B2611CC9B201FB02252D1218
:100770001970EEB205B1013E03F8036C01B11C70B3
:100780000133BB42C4D0DC78002CE9D11C7003F8E3
:10079000034CF5E7888CFF1FF0B5857C1C785E78EC
:1007A0009B7889B0012D0191029203928DF8164039
:1007B0008DF817608DF8183016D000238DF815309D
:1007C0008DF814308DF813308DF812308DF811300B
:1007D0008DF810300268002392698DF81930079364
:1007E00001A9904709B0F0BD1B4A1378013303F00B
:1007F000070313F0010F137014BF80220022990722
:1008000044BF42F04002D2B25B0748BF42F0200230
:100810001032D2B20DF113030DF116074FF4807EA2
:10082000ACB19EFBF4F4E4B2611CC9B201FB022539
:100830002D121970EEB205B1013E03F8036C01B13F
:100840001C700133BB42C5D0DC78002CE9D11C7090
:1008500003F8034CF5E700BF888CFF1F70B5044612
:1008600008460D460DF06CFA2368024629462046DC
:100870005B68BDE87040184738B5044608460D4629
:100880000DF05EFA2368024629465B6820469847C9
:10089000054620460BF002FF284438BD2DE9F04FF5
:1008A0000D7805704D784570897881701178C17028
:1008B00051780171927842711A7882715A78C271B6
:1008C0009B78DDF824A003729AF800B080F809B094
:1008D0000DF12C0898E80051DDF828900E9F0F9E2E
:1008E000109D1199129A159B9AF801B080F80AB0E0
:1008F0009AF802A080F80BA099F800A080F80CA04C
:1009000099F801A080F80DA099F8029080F80E9057
:1009100098F8009080F80F9098F8019080F8109067
:1009200098F8028080F811809CF8008080F812808E
:100930009CF8018080F813809CF802C080F814C0F5
:100940009EF800C080F815C09EF801C080F816C05F
:100950009EF802E080F817E097F800E080F818E0D1
:1009600097F801E080F819E0BF7887763778C77686
:1009700077780777B67846772E7886776E78C67759
:10098000AD7880F820500D7880F821504D7880F8AF
:100990002250897880F82310117880F8241051783B
:1009A00080F82510927880F82620139A127880F823
:1009B0002720139A527880F82820139A927880F88A
:1009C0002920149A127880F82A20149A527880F8F4
:1009D0002B20149A927880F82C201A7880F82D20F9
:1009E0005A7880F82E209B7880F82F30BDE8F08F61
:1009F0002DE9F04F8BB00027069051F82730DBB27D
:100A00000137FF2BBFB2F8D10B6807974FEA136885
:100A1000C3F3072BC3F307494FF0FF33C646002447
:100A20000593884658F8045F0698C5F307274FEAF0
:100A3000241CC5F30746ECB2F9B2C5F30765039170
:100A4000E9B204915FFA8CF1029107990F2908AA83
:100A50004FEA14135FFA86FA0CD805998C4507DC27
:100A60000F2905D00131C9B28B42029138BF0B4624
:100A700059B2059109A9009102998DF820B08DF81D
:100A800021908DF822E08DF824708DF825608DF886
:100A9000265009F05BFBFF2CDDF810E0DDF80CB010
:100AA000D146BFD106980BB0BDE8F08F484B1B78FC
:100AB000002B00F08B802DE9F04F9BB000F5FC730C
:100AC0000A930023434A0793DFF80C91099000F240
:100AD000272308920B93002759F82730DBB2013700
:100AE000FF2BBFB2F8D1D9F8003006974FF0FF3294
:100AF000C3F3074A0592C3F3072B4FEA1368002498
:100B0000D64659F8045FC5F307464FEA241CC5F3DF
:100B10000727ECB2F1B2C5F307650391E9B204917E
:100B20005FFA8CF1029106990F290CAA0EA84FEAE0
:100B300014135FFA87FA0CD805998C4507DC0F2946
:100B400005D00131C9B28B42029138BF0B4659B270
:100B500005910DA9009102998DF830B08DF831E022
:100B60008DF832808DF834708DF835608DF8365000
:100B700009F0ECFAFF2CD346DDF80CE0DDF810802C
:100B8000BFD10A9B0EAA934218D0099B0B9C03F27B
:100B9000F71301E0A34211D012F8011B13F8010F63
:100BA0008842F7D00A4B079A1B780132934207928A
:100BB00009DD089B53F8049F08938CE7099B9DF877
:100BC0001C2083F829221BB0BDE8F08F704700BFBE
:100BD0005087FF1F8CFB000018070100F0B5354D52
:100BE00083B001AA0024284696218DF804408DF890
:100BF00005408DF8064009F079FA2F4985F8C6417D
:100C000005F5E470FFF7F4FE2C4905F5FC70FFF7DD
:100C1000EFFE2846FFF74AFF294B2A4A187885F845
:100C20002C02234601E01E2B08D012F8011F81423E
:100C3000DCB203F10103F6D185F82B42224E234F9B
:100C4000002401AA304696218DF804408DF8054015
:100C50008DF8064009F04AFA012306F5E4701C49B4
:100C600086F8C631FFF7C4FE1A4906F5FC70FFF797
:100C7000BFFE95F82B3286F82B323046FFF716FF71
:100C800001AA384696218DF804408DF805408DF86C
:100C9000064009F02BFA022307F5E4700E4987F8A5
:100CA000C631FFF7A5FE07F5FC700B49FFF7A0FE64
:100CB00003B0F0BD6C9EFF1F540B0100F00101005A
:100CC0004987FF1F2387FF1FB08CFF1F0896FF1F58
:100CD000F40801004CFB0000B409010010B512211A
:100CE00082B02E482E4C0BF0D5FA2E4B20461978A8
:100CF0000BF024FD20460BF0D1FC11212A480BF00B
:100D0000C9FA2A4B204619780BF018FD20460BF043
:100D1000C5FC152126480BF0BDFA264B2046197854
:100D20000BF00CFD20460BF0B9FC142122480BF00F
:100D3000B1FA224B204619880BF000FD20460BF03B
:100D4000ADFC0F211E480BF0A5FA1E4B204619885A
:100D50000BF0F4FC02211C480BF09CFA1B4B0A22FE
:100D60001978204600230BF0A9FC012118480BF04C
:100D700091FA20460BF092FC0E2116480BF08AFAED
:100D8000154B1B680193019900230A2220460BF0A2
:100D900095FC20460BF082FC02B010BD74DF000011
:100DA0008C87FF1F8387FF1F88DF00004A87FF1F94
:100DB0009CDF00002287FF1FB4DF0000AC8CFF1F08
:100DC000CCDF00000496FF1FDCDF00005D95FF1FF5
:100DD000E0DF0000E4DF0000ECA8FF1F1E491F4811
:100DE0000B8803EB432203EB820303F558531933BB
:100DF0009BB203EB432203EB820202F5585203EB52
:100E000013231932DBB292B203EB4303F0B41B128B
:100E100002EB1227124E134DF35C134C0A80FFB203
:100E200007EB870701223F12033793422F7023708D
:100E300002700CD006D3022B02D10C4B00221A7088
:100E4000F0BC70470A4B00221A70F0BC7047074B89
:100E50004A221A70F0BC70478487FF1F0095FF1F5D
:100E60005487FF1F559EFF1F1495FF1F3C95FF1FC2
:100E7000AE8CFF1FF0B5EC4CEC4883B0002301AA08
:100E8000962123708DF804308DF805308DF80630EA
:100E900009F02CF9E64BE74A03F5E17512F8034C2B
:100EA00012F8020C12F8011C03F8034C03F8020CB0
:100EB00003F8011C03339D4202F10302EED1DE4C24
:100EC000DA4E94F8C23186F8C23104F5E4770FCFD8
:100ED00006F5E4750FC50FCF0FC597E80F0094F81E
:100EE000C3E194F8C47186F8C3E186F8C47194F83C
:100EF000C5E194F8C67186F8C5E186F8C67194F824
:100F0000C7E186F8C7E104F5FC7785E80F000FCF4D
:100F100006F5FC750FC50FCF0FC597E80F0094F8C5
:100F200029E294F828C294F82A7285E80F0086F81E
:100F300029E286F828C286F82A7294F82B2294F8BF
:100F40002C3294F82DE294F82E7294F82F5294F8E3
:100F5000300294F8311286F82B2286F82C3294F85D
:100F6000322294F8333286F82DE286F82E7294F805
:100F700034E294F8357286F82F5286F8300294F8ED
:100F8000365294F8370286F8311286F8322294F8F5
:100F9000381294F8392286F8333294F83A3286F8C7
:100FA000357286F8392286F83A3286F834E286F8C5
:100FB000365286F8370286F8381206F23E2304F2DB
:100FC0003E2206F27A2712F8035C12F8020C12F89D
:100FD000011C03F8035C03F8020C03F8011C033343
:100FE0009F4202F10302EED194F8772294F878023E
:100FF00094F8791286F8772294F87A228F4B86F843
:10100000780286F8791294F87B0294F87C1286F8BC
:101010007A2294F87D2286F87B0286F87C1294F876
:101020007E0294F87F1286F87D22854A86F87E0239
:1010300086F87F1203F14B0012F8011F03F8011B21
:101040008342F9D17F4903F14B0011F8012F03F8D6
:10105000012B8342754AF8D194F8163394F817633C
:1010600094F8185394F8190394F81A1382F8163365
:1010700094F81B3382F8176382F81853B4F81C6392
:10108000B4F81E5382F8190382F81A13B4F8200337
:1010900094F8221382F81B3394F82333A2F81C63CC
:1010A000A2F81E5394F8246394F82553A2F8200361
:1010B00082F8221394F8260394F8271382F8233336
:1010C000B4F8283382F8246382F8255382F8260383
:1010D00082F82713A2F82833B4F82A33A2F82A3367
:1010E000B4F82C63B4F82E53B4F83003B4F83213C8
:1010F000B4F83433A2F82C63A2F82E53B4F8366354
:10110000B4F83853A2F83003A2F83213B4F83A0313
:10111000B4F83C13A2F8343394F83E33A2F83663A3
:10112000A2F8385394F83F6394F84053A2F83A0376
:10113000A2F83C1394F8410394F8421382F83E332A
:1011400094F8433382F83F6382F8405382F84103B6
:1011500082F8421382F8433394F8443382F84433DC
:1011600094F8456394F8465394F8470394F8481369
:1011700094F8493382F8456382F8465394F84A63F9
:1011800094F84B5382F8470382F8481394F84C03C1
:1011900094F84D1382F8493394F84E3382F84A6339
:1011A00082F84B5382F84C0394F8505394F851034F
:1011B00082F84D1382F84E3394F8521394F8533357
:1011C00094F84F6382F8505382F8510382F8521317
:1011D00082F8533382F84F631B4994F8546394F8B0
:1011E0005D33D4F8585394F85C0382F85D3382F889
:1011F0005463C2F8585382F85C0302F5587302F541
:101200008A6251F8040F43F8040B9342F9D10F4A54
:1012100003F1F00052F8041F43F8041B8342F9D194
:101220000B4A03F13C0015E00095FF1F6C9EFF1F69
:101230006F9EFF1FB38CFF1FB08CFF1FECA0FF1F22
:101240002F8FFF1F7A8FFF1F0C90FF1FFC90FF1F37
:10125000EF91FF1F12F8011F03F8011B8342F9D120
:101260005A4A03F1F00052F8041F43F8041B83426A
:10127000F9D1574A03F1F00052F8041F43F8041B58
:1012800083425449F8D194F85C3794F85D2794F878
:101290005E67B4F86057B4F8620781F85C3781F88C
:1012A0005D27B4F8643794F8662781F85E67A1F883
:1012B0006057A1F86207A1F8643781F8662794F8AF
:1012C0006A3794F8676794F8685794F86907424A50
:1012D00081F86A3781F8676781F8685781F869078C
:1012E00001F26C7301F28C7152F8040F43F8040B95
:1012F0008B42F9D1394A03F1200052F8041F43F818
:10130000041B8342F9D1364A03F1200052F8041F2E
:1013100043F8041B8342F9D1324A03F1200052F80A
:10132000041F43F8041B8342F9D12F4A03F1200024
:1013300052F8041F43F8041B8342F9D12B4A03F1EE
:10134000200052F8041F43F8041B8342214DF8D1BA
:10135000B4F82C0894F82E38D4F83428D4F8381877
:10136000A5F82C0894F83C08B4F8307894F83D6857
:1013700085F82E38C5F8342894F83E38C5F8381862
:10138000002485F83C0801AA9621194885F83E38C2
:10139000A5F8307885F83D688DF804408DF8054053
:1013A0008DF8064008F0A2FE124B85F8C6411B7866
:1013B00053B901AA962110488DF804308DF80530F4
:1013C0008DF8063008F092FE03B0F0BD2892FF1FA2
:1013D0001893FF1F6C9EFF1F1894FF1F3894FF1F68
:1013E0005894FF1F7894FF1F9894FF1FB894FF1F15
:1013F000B08CFF1F0296FF1F0896FF1F2DE9F043D8
:101400002F4D304E304C314F85B005F5E1783246E6
:1014100029463B78DFF8B49003A8033508F058FF5D
:101420009DF80C109DF80D209DF80E30217045455B
:101430006270A37006F1030604F10304E7D1244EA1
:101440003368DB071FD5234D234C2B68039394E8A7
:101450000600039B5B1A93420CD33B782A680292E6
:101460000133029A2260DBB23B70FF2B06D005B03D
:10147000BDE8F08399F80030FF2BF8D1FFF7FAFCB4
:1014800005B0BDE8F083304609F06CFE114D50B94F
:10149000114C2B68039394E80600039B5B1A93425C
:1014A000DBD23B78E1E70D4B2A681B780A4C0192AE
:1014B000019A22609B003046636009F059FEE8E71C
:1014C0006C9EFF1FB08CFF1FACA6FF1FAE8CFF1FD2
:1014D000F495FF1FECA8FF1F0495FF1F559EFF1FEB
:1014E0002DE9F04F944E96F800C01FFA8CF385B0AA
:1014F000002B00F01E8103F1FF3B1FFA8BFB8F488E
:101500008F490BF1010B0BEB4B0B834402460D464D
:101510000C46177892F801A092F8029027700332D7
:1015200090F8BF8190F8C0E190F8C17184F801A0F3
:101530005A4584F80290A0F1030081F8BF8181F838
:10154000C0E181F8C17104F10304A1F10301E0D10C
:101550004A2B27D87B48C3F1950203EB430102EBEA
:10156000420200EB010800EB020E01336F1810F885
:1015700001B005F801B0AC189BB298F801A098F83A
:1015800002909EF801B010F802809EF8021087F8D1
:1015900001A04B2B87F8029005F8028084F801B077
:1015A000A170D8D10CF1FF3A0AEB4A0A802405EB6E
:1015B0000A0B5946234603A802AA00278DF80940C2
:1015C0008DF80A408DF8087008F082FE96F80080C9
:1015D0009DF80C309DF80D209DF80E0005F80A309E
:1015E000C8F1960808EB480805EB08094946234668
:1015F0008BF801208BF8020002AA03A88DF808706E
:101600008DF809408DF80A4008F062FE32789DF8A6
:101610000C1005F80810C2F195019DF80D0089F82D
:10162000010002EB420C01EB41019DF80E3089F8FC
:10163000023005EB0C0E6818FF234A2A05F80C301F
:10164000DFF8FC808EF801308EF80230DFF8E89089
:101650006B54437083702ED83B4F3B68DB0717D524
:101660003A4D3B4C2B68039394E80600039B5B1AAE
:101670009342337806D32A680292013B029A226091
:10168000DBB233700BB9FFF7F5FB05B0BDE8F08FA7
:10169000384609F067FD2D4D0028E2D02D4B2A6811
:1016A0001B782B4C0192019A22609B0038466360A4
:1016B00009F05EFDD6E7551C05EB450508EB050A6C
:1016C0005146234602AA03A88DF808708DF80940F8
:1016D0008DF80A4008F0FCFD99F800308DF808708C
:1016E000C3F1940707EB470708EB07099DF80CC007
:1016F0009DF80DE09DF80EB008F805C002AA23463B
:10170000494603A88AF801E08AF802B08DF809403A
:101710008DF80A4008F0DCFD9DF80C109DF80D20B6
:101720009DF80E3008F8071089F8012089F802307A
:1017300092E7034D0EE700BF3C95FF1F6C9EFF1F15
:10174000ACA6FF1FB08CFF1FF895FF1FECA8FF1F72
:101750001895FF1F559EFF1F2DE9F04FA24B1D78D6
:10176000ABB285B0002B00F0308103F1FF3B1FFAD4
:101770008BFB9E489E490BF1010B0BEB4B0B8344FB
:1017800002460C460E4692F800E092F801A092F84C
:10179000029086F800E0033290F8BF8190F8C0C153
:1017A00090F8C1E186F801A05A4586F80290A0F1B0
:1017B000030081F8BF8181F8C0C181F8C1E106F161
:1017C0000306A1F10301DED14A2B28D88948C3F1D1
:1017D000950203EB430102EB420200EB010800EB30
:1017E000020C013304EB010E10F801B004F801B053
:1017F000A6189BB298F801A098F802909CF801B046
:1018000010F802809CF802108EF801A04B2B8EF885
:10181000029004F8028086F801B0B170D7D1002D93
:1018200040F08F800DF10C0A0DF1080B6E4B1B7808
:10183000C3F1950000EB40005A1C03EB430304EB9B
:10184000030E251802EB4202802604EB020917461C
:10185000FF22E2544FF000088EF801208EF802209B
:101860003346225449466A70AA7050465A468DF84B
:1018700009608DF80A608DF8088008F029FD5A4B40
:101880009DF80C101D789DF80DE08DF80880C5F1CD
:10189000940505EB450504EB050833468DF8096012
:1018A0008DF80A609DF80E60E1555A465046414653
:1018B00089F801E089F8026008F00AFD4E4B9DF8B6
:1018C0000C001B689DF80D109DF80E206055DB077D
:1018D000454888F8011088F8022020D5474D484C2B
:1018E0002B68039394E80600039B5B1A93420ED384
:1018F0003D4B2A681B780292029A226001333A4AD1
:10190000DBB213704A2B05D005B0BDE8F08F037829
:101910004A2BF9D1FFF7AEFA05B0BDE8F08F364893
:10192000364D09F01FFC002851D1354C2B6803932C
:1019300094E80600039B5B1A9342D9D22A4B1B788A
:10194000E0E7013D05EB4505802604EB05090DF1B7
:101950000C0A0DF1080B4FF000084946334650467B
:101960005A468DF808808DF809608DF80A6008F0F5
:10197000AFFC1D4B9DF80C201B789DF80DC09DF809
:101980000EE08DF80880C3F1960303EB430304EBEC
:10199000030862551F46414633465A46504689F869
:1019A00001C089F802E08DF809608DF80A6008F03E
:1019B0008FFC9DF80C109DF80D209DF80E30E15520
:1019C00088F8012088F8023030E7094CFEE60D4B1C
:1019D0002A681B780A4C0192019A22609B000648F3
:1019E000636009F0C5FBA1E73C95FF1FB08CFF1FAA
:1019F000ACA6FF1F6C9EFF1FFC95FF1FECA8FF1FEE
:101A0000589EFF1F559EFF1F012806D003D30228B2
:101A100001D1FFF7A1BEFFF7F1BCFFF761BD00BF29
:101A200010B51021044694480AF034FC21460023E6
:101A30000A2292480AF042FE022191480AF02AFC4A
:101A40005C2C00F28182DFE814F07A0275027002E9
:101A50006B02660261025C02570252024D024802AA
:101A600043023E02390234022F022A0225022002DA
:101A70001B02160211020C0207020202FD01F8010C
:101A8000F301EE01E901E401DF01DA01D501D00142
:101A9000CB01C601C101BC01B701B201AD01A80172
:101AA000A3019E01990194018F018A0185018001A2
:101AB0007B01760171016C01670111010C010701C5
:101AC0000201FD00F800F300EE00E900E400DF0091
:101AD000DA00D500D000CB00C600C100BC00B700C2
:101AE000B200AD00A800A3009E00990094008F00F2
:101AF0008A00850080007B00760071006C00670022
:101B000062005D005F495D48FEF7B6FE10BD5E49AC
:101B10005A48FEF7B1FE10BD5C495848FEF7ACFECE
:101B200010BD5B495548FEF7A7FE10BD5949534803
:101B3000FEF7A2FE10BD58495048FEF79DFE10BDAD
:101B400056494E48FEF798FE10BD55494B48FEF7E2
:101B500093FE10BD53494948FEF78EFE10BD524911
:101B60004648FEF789FE10BD50494448FEF784FE02
:101B700010BD4F494148FEF77FFE10BD4D493F481B
:101B8000FEF77AFE10BD4C493C48FEF775FE10BDCD
:101B90004A493A48FEF770FE10BD49493748FEF7FA
:101BA0006BFE10BD47493548FEF766FE10BD46493D
:101BB0003248FEF761FE10BD44493048FEF75CFE36
:101BC00010BD43492D48FEF757FE10BD41492B4833
:101BD000FEF752FE10BD40492848FEF74DFE10BDED
:101BE0003E492648FEF748FE10BD3D492348FEF712
:101BF00043FE10BD3B492148FEF73EFE10BD3A4969
:101C00001E48FEF739FE10BD38491C48FEF734FE69
:101C100010BD37491948FEF72FFE10BD354917484A
:101C2000FEF72AFE10BD34491448FEF725FE10BD0C
:101C300032491248FEF720FE10BD31490F48FEF729
:101C40001BFE10BD2F490D48FEF716FE10BD2E4994
:101C50000A48FEF711FE10BD2C490848FEF70CFE9D
:101C600010BD2B490548FEF707FE10BD2949034862
:101C7000FEF702FE10BD00BFF4DF00008C87FF1FDF
:101C800008E000009CE5000090E5000080E5000011
:101C900070E500005CE5000044E500002CE5000074
:101CA0001CE5000004E50000F8E40000ECE400009E
:101CB000D4E40000C8E40000BCE40000B0E400008C
:101CC000A4E4000094E4000088E4000074E4000050
:101CD00068E4000058E400004CE4000040E4000028
:101CE00038E4000024E4000014E4000000E40000F4
:101CF000F4E30000E8E30000DCE30000CCE30000D4
:101D0000B8E30000ACE300009CE3000090E30000B7
:101D100080E3000074E300008E498F48FEF7ACFDBD
:101D200010BD8E498C48FEF7A7FD10BD8C498A482E
:101D3000FEF7A2FD10BD8B498748FEF79DFD10BD43
:101D400089498548FEF798FD10BD88498248FEF70D
:101D500093FD10BD86498048FEF78EFD10BD854974
:101D60007D48FEF789FD10BD83497B48FEF784FD61
:101D700010BD82497848FEF77FFD10BD8049764846
:101D8000FEF77AFD10BD7F497348FEF775FD10BD63
:101D90007D497148FEF770FD10BD7C496E48FEF725
:101DA0006BFD10BD7A496C48FEF766FD10BD7949A0
:101DB0006948FEF761FD10BD77496748FEF75CFD95
:101DC00010BD76496448FEF757FD10BD744962485E
:101DD000FEF752FD10BD73495F48FEF74DFD10BD83
:101DE00071495D48FEF748FD10BD70495A48FEF73D
:101DF00043FD10BD6E495848FEF73EFD10BD6D49CC
:101E00005548FEF739FD10BD6B495348FEF734FDC8
:101E100010BD6A495048FEF72FFD10BD68494E4875
:101E2000FEF72AFD10BD67494B48FEF725FD10BDA2
:101E300065494948FEF720FD10BD64494648FEF754
:101E40001BFD10BD62494448FEF716FD10BD6149F7
:101E50004148FEF711FD10BD5F493F48FEF70CFDFC
:101E600010BD5E493C48FEF707FD10BD5C493A488D
:101E7000FEF702FD10BD5B493748FEF7FDFC10BDC3
:101E800059493548FEF7F8FC10BD58493248FEF76D
:101E9000F3FC10BD56493048FEF7EEFC10BD554925
:101EA0002D48FEF7E9FC10BD53492B48FEF7E4FC32
:101EB00010BD52492848FEF7DFFC10BD50492648A6
:101EC000FEF7DAFC10BD4F492348FEF7D5FC10BDE4
:101ED0004D492148FEF7D0FC10BD4C491E48FEF785
:101EE000CBFC10BD4A491C48FEF7C6FC10BD494951
:101EF0001948FEF7C1FC10BD47491748FEF7BCFC66
:101F000010BD46491448FEF7B7FC10BD44491248BD
:101F1000FEF7B2FC10BD43490F48FEF7ADFC10BD03
:101F200041490D48FEF7A8FC10BD40490A48FEF79C
:101F3000A3FC10BD3E490848FEF79EFC10BD3D497C
:101F40000548FEF799FC10BD3B490348FEF794FC99
:101F500010BD00BF60E300008C87FF1F50E300004E
:101F600044E3000038E300002CE3000018E3000025
:101F70000CE3000000E30000F4E20000DCE20000FB
:101F8000D4E200006CE30000C8E20000BCE2000004
:101F9000A8E2000094E2000084E2000078E2000081
:101FA0006CE2000060E2000054E2000048E2000041
:101FB0003CE2000030E2000024E2000018E20000F1
:101FC0000CE2000000E20000F0E10000DCE10000B3
:101FD000C0E10000A8E100008CE100007CE100000D
:101FE0006CE1000058E1000048E1000040E1000021
:101FF00038E1000020E1000010E1000008E10000ED
:10200000F8E00000E8E00000D8E00000C4E00000D4
:10201000B0E000009CE0000084E000006CE0000004
:102020005CE0000048E0000034E0000024E0000034
:1020300018E000000CE00000B4E5000038B5002115
:10204000044689480AF026F988480AF027FB22212D
:1020500087480AF01FF985480AF020FB94F8C6313A
:10206000002B00F0A080012B00F01885022B00F05F
:10207000638513217F480AF00DF97F4B7B4819785F
:102080000A2200230AF01AFB03217C480AF002F915
:1020900076480AF003FB132179480AF0FBF8002385
:1020A0000A2294F8C31171480AF008FB032173480F
:1020B0000AF0F0F86D480AF0F1FA112171480AF0BF
:1020C000E9F894F8C51169480AF038FB03216B4818
:1020D0000AF0E0F865480AF0E1FA14216A480AF0CB
:1020E000D9F800230A2294F82B1260480AF0E6FA85
:1020F000032162480AF0CEF85C480AF0CFFA1521B5
:1021000062480AF0C7F894F82E1258480AF016FBF5
:1021100003215A480AF0BEF854480AF0BFFA1121C8
:102120005B480AF0B7F894F82A1250480AF006FB08
:10213000032152480AF0AEF84C480AF0AFFA94F87E
:102140002A325BBB22214A480AF0A4F847480AF029
:10215000A5FA94F82D321D2B00F29384DFE813F0DA
:10216000AC00910491049104910491042E01910416
:1021700091049104670191049104910491049104E4
:1021800091047601810183018501D201530232035A
:102190008E03D3039104120468042B0094F82902DF
:1021A000FFF73EFCCEE722213A480AF073F82F48A9
:1021B0000AF074FA5DE738492C48FEF75DFB3749B1
:1021C0002A48FEF74BFB94F82A1228480AF0B6FA80
:1021D0002A492648FEF750FB31492448FEF73EFBCA
:1021E00000230A2294F82E1820480AF067FA23499F
:1021F0001E48FEF741FB2B491C48FEF72FFB00232E
:102200000A2294F83D1819480AF058FA1B49174851
:10221000FEF732FB24491548FEF720FBB4F83018CE
:1022200012480AF08BFA15491048FEF725FB1F49A2
:102230000E48FEF713FB94F83E38012B00F0E584BE
:10224000C0F00E85022B03D119490848FEF706FBA2
:102250000A490648FEF710FB16490448FEF7FEFA45
:10226000B4F82C189AE000BF64E700008C87FF1FC9
:10227000CCE500005CE600002387FF1F70E600004D
:1022800074E6000088E600009CE60000B4E600006A
:10229000CCE60000F0E5000014EF000038EF00008D
:1022A00050EF000068EF000080EF000094EF0000A6
:1022B000A8EF0000B8EF000094F82C327B48042B04
:1022C0000CBF7B497B49FEF7D7FA7B497748FEF77D
:1022D000C5FA94F8C41175480AF030FA7749734882
:1022E000FEF7CAFA76497148FEF7B8FA94F8351243
:1022F0006E480AF023FA71496C48FEF7BDFA71493D
:102300006A48FEF7ABFA94F8361268480AF016FAF3
:102310006A496648FEF7B0FA6B496448FEF79EFAD0
:1023200000230A2294F8301260480AF0C7F9634982
:102330005E48FEF7A1FA65495C48FEF78FFA002374
:102340000A2294F8311259480AF0B8F95B49574803
:10235000FEF792FA5E495548FEF780FA00230A22FA
:1023600094F8321251480AF0A9F954494F48FEF73F
:1023700083FA58494D48FEF771FA00230A2294F86F
:1023800033124A480AF09AF94C494848FEF774FA61
:1023900051494648FEF762FA94F8341243480AF06D
:1023A000CDF946494148FEF767FA23214B4809F029
:1023B00071FF3E48BDE838400AF070B994F87B32AE
:1023C000002B00F0FE8346493848FEF755FA3A499B
:1023D0003648FEF743FA94F8C41134480AF0AEF9CF
:1023E00036493248FEF748FA3E493048FEF736FA99
:1023F00094F87B122D480AF0A1F930492B48FEF7DA
:102400003BFA39492948FEF729FA00230A2294F8B1
:10241000791226480AF052F928492448FEF72CFA86
:1024200032492248FEF71AFA94F8781234E094F808
:102430002C320A3B062B00F28983DFE813F0FB0302
:10244000F60383030A0405040004F103284917482E
:10245000FEF712FA18491548FEF700FA94F8C4116D
:102460009CE72449F3E72449F1E724490F48FEF7A4
:1024700003FA11490D48FEF7F1F994F8C4110B481D
:102480000AF05CF90D490948FEF7F6F91C490748BE
:10249000FEF7E4F994F83E13044800230A220AF0F8
:1024A0000DF906490148FEF7E7F97EE78C87FF1F23
:1024B000E0E6000004E7000028E7000070E6000006
:1024C00040E7000054E7000068E700007CE70000F8
:1024D0008CE700009CE70000ACE70000ECEF000098
:1024E000E8E700000CE800001CE800002CE8000011
:1024F000ACE90000D0E90000F4E9000018EA0000AF
:102500003CEA000097499848FEF7B6F99749964883
:10251000FEF7A4F994F8C41193480AF00FF994490E
:102520009148FEF7A9F993498F48FEF797F90023E0
:102530000A2294F83F138C480AF0C0F88C498A4864
:10254000FEF79AF98C498848FEF788F900230A2299
:1025500094F8401384480AF0B1F885498248FEF7A0
:102560008BF986498048FEF779F900230A2294F80E
:1025700041137D480AF0A2F87D497B48FEF77CF9BB
:102580007F497948FEF76AF900230A2294F842133A
:1025900075480AF093F876497348FEF76DF9794962
:1025A0007148FEF75BF900230A2294F846136E483F
:1025B0000AF084F86E496C48FEF75EF972496A4881
:1025C000FEF74CF900230A2294F8431366480AF0F8
:1025D00075F867496448FEF74FF96C496248FEF7A1
:1025E0003DF900230A2294F84F135F480AF066F879
:1025F0005F495D48FEF740F965495B48FEF72EF9F3
:1026000094F8501348E763495748FEF735F957499E
:102610005548FEF723F994F8C41153480AF08EF890
:1026200053495148FEF728F95B494F48FEF716F920
:1026300000230A2294F847134B480AF03FF84C490C
:102640004948FEF719F955494748FEF707F90023AD
:102650000A2294F84D1344480AF030F8444942489D
:10266000FEF70AF94E494048FEF7F8F800230A221F
:1026700094F840133C480AF021F83D493A48FEF7E7
:10268000FBF848493848FEF7E9F800230A2294F895
:10269000491335480AF012F835493348FEF7ECF88B
:1026A00041493148FEF7DAF800230A2294F8421330
:1026B0002D480AF003F82E492B48FEF7DDF83B4978
:1026C0002948FEF7CBF800230A2294F84A1326483B
:1026D00009F0F4FF26492448FEF7CEF83449224891
:1026E000FEF7BCF800230A2294F841131E4809F0B3
:1026F000E5FF1F491C48FEF7BFF82E491A48FEF7B0
:10270000ADF800230A2294F84B13174809F0D6FFBE
:1027100017491548FEF7B0F827491348FEF79EF809
:1027200000230A2294F846130F4809F0C7FF104906
:102730000D48FEF7A1F821490B48FEF78FF800235A
:102740000A2294F84C13084809F0B8FF08490648D3
:10275000FEF792F81A490448FEF780F894F84313FC
:102760009AE600BF24EB00008C87FF1F28E70000DB
:1027700070E6000048EB00005CEB000070EB00002E
:1027800084EB000098EB0000ACEB0000C0EB000015
:10279000D4EB0000E8EB00000CEC000020EC0000A3
:1027A00034EC000048EC00005CEC000070EC000031
:1027B00084EC000098EC0000ACEC0000C0EC0000E1
:1027C000D4EC0000B849B948FEF756F8B849B74804
:1027D000FEF744F894F85433012B00F01C82C0F04B
:1027E0003D82022B07D1B349B048FEF737F8B24912
:1027F000AE48FEF741F8B149AC48FEF72FF8002388
:102800000A2294F85113A94809F058FFAA49A74889
:10281000FEF732F8AA49A548FEF720F800230A225D
:1028200094F85D13A14809F049FFA3499F48FEF7BA
:1028300023F8A4499D48FEF711F800230A2294F8D2
:102840005C179A4809F03AFF9B499848FEF714F83C
:102850009D499648FEF702F800230A22D4F858133F
:10286000924809F02BFF94499048FEF705F89749E4
:102870008E48FDF7F3FF94F8C7118FE594498B4814
:10288000FDF7FAFF93498948FDF7E8FFB4F83C13D8
:10289000864809F053FF88498448FDF7EDFF8E49CB
:1028A0008248FDF7DBFF00230A2294F85E177F4879
:1028B00009F004FF80497D48FDF7DEFF87497B482A
:1028C000FDF7CCFF00230A2294F83212774809F072
:1028D000F5FE79497548FDF7CFFF81497348FDF74B
:1028E000BDFF00230A2294F83112704809F0E6FE79
:1028F00071496E48FDF7C0FF7A496C48FDF7AEFF9D
:1029000094F83312C8E578496848FDF7B5FF774970
:102910006648FDF7A3FF94F8C411644809F00EFF60
:1029200065496248FDF7A8FF71496048FDF796FFC9
:10293000B4F860175D4809F001FF5F495B48FDF797
:102940009BFF6C495948FDF789FFB4F86217574857
:1029500009F0F4FE58495548FDF78EFF6649534883
:10296000FDF77CFFB4F86417504809F0E7FE5249C0
:102970004E48FDF781FF61494C48FDF76FFF94F821
:10298000671789E55E494948FDF776FF5D49474885
:10299000FDF764FF00230A2294F83212434809F03D
:1029A0008DFE45494148FDF767FF57493F48FDF710
:1029B00055FF00230A2294F83A123C4809F07EFEA3
:1029C0003D493A48FDF758FF50493848FDF746FF62
:1029D00000230A2294F83112344809F06FFE364978
:1029E0003248FDF749FF4A493048FDF737FF0023D9
:1029F0000A2294F879122D4809F060FE2E492B48DE
:102A0000FDF73AFF43492948FDF728FF00230A2232
:102A100094F83812254809F051FE27492348FDF75C
:102A20002BFF3D492148FDF719FF94F87712B5E4D3
:102A30003A491E48FDF720FF39491C48FDF70EFFB3
:102A400000230A2294F86917184809F037FE1A493A
:102A50001648FDF711FF33491448FDF7FFFE002328
:102A60000A2294F86A17114809F028FE12490F4803
:102A7000FDF702FF2C490D48FDF7F0FE94F82A12ED
:102A80008CE42A490948FDF7F7FE29490748FDF774
:102A9000F3FE26490548FDF7EFFE86E42549034885
:102AA000FDF7EAFEFFF7E5BA54EA00008C87FF1F46
:102AB00078EA00008CEA000070E60000A8EA000056
:102AC000C0EA0000D8EA0000F0EA00000CEB0000C9
:102AD000E8EC00000CED000024ED000038ED0000F3
:102AE00050ED000068ED000080ED000028E70000D8
:102AF000A4ED0000BCED0000D4ED0000E8ED000006
:102B0000FCED000020EE000038EE000050EE00006A
:102B100068EE000080EE000094EE0000ACEE0000D5
:102B2000D0EE0000E0EE0000FCEE000064E70000E4
:102B3000C8EF000014E600004C494D48FDF79CFE2C
:102B4000FFF797BA4B494A48FDF796FE4A4948486D
:102B5000FDF784FE00230A2294F87C12444809F011
:102B6000ADFD46494248FDF787FE45494048FDF71F
:102B700075FE00230A2294F87E123D4809F09EFD5E
:102B80003E493B48FDF778FE94F81853F5B13D49AE
:102B90003748FDF763FE94F81813354809F0CEFD69
:102BA00036493348FDF768FE94F82C320F3B012B71
:102BB0003FF6FBAB34492E48FDF750FE94F81B134B
:102BC0006AE432492A48FDF757FE00E430492848B4
:102BD000FDF744FE2B460A2294F87D12244809F0A2
:102BE0006DFD26492248FDF747FE2A492048FDF79A
:102BF00035FE94F87F121E482B460A2209F05EFD2E
:102C00001E491B48FDF738FEC1E723491848FDF768
:102C100025FEFFF71DBB21491548FDF72DFEEAE50E
:102C20001F491348FDF728FE90E71E491048FDF79D
:102C300023FE8BE71C490E48FDF71EFE86E71B4965
:102C40000B48FDF719FE81E719490948FDF714FE05
:102C50007CE718490648FDF70FFE77E71649C3E5FC
:102C600016490348FDF7FAFDFFF7F2BA38E600000F
:102C70008C87FF1FCCE8000038E9000070E60000F8
:102C80004CE9000088E9000098E90000C4E7000072
:102C900060E9000074E90000B0EF00009CEA000069
:102CA00060E80000A8E8000084E800003CE80000BC
:102CB00014E90000F0E8000094EA000098EA00003F
:102CC0002DE9F04F8DB03421054609904648474C18
:102CD00009F0E0FA464809F0E1FC3321454809F0E3
:102CE000D9FA434809F0DAFC3321434809F0D2FA13
:102CF0003F4809F0D3FC4148414A0388117803EB6F
:102D0000432203EB820303F5585319339BB203EBC1
:102D10001322D2B212FB01F21212038054F8228065
:102D200085F82922002758F82730DBB20137FF2B1E
:102D3000BFB2F8D1D8F80030099A08974FEA136962
:102D400002F5FC72C3F3072BC3F3074A4FF0FF33BE
:102D5000079206930024CE4658F8045F0798C5F3FF
:102D600007274FEA241CC5F30746ECB2F9B2C5F3B6
:102D700007650491E9B205915FFA8CF10391089916
:102D80000F290AAA4FEA14135FFA86F90CD806999C
:102D90008C4507DC0F2905D00131C9B28B42039164
:102DA00038BF0B4659B206910BA9009103998DF8D3
:102DB00028B08DF829A08DF82AE08DF82C708DF8B8
:102DC0002D608DF82E5007F0C1F9FF2CDDF810B002
:102DD000DDF814E0CA46BFD1099B93F82902FEF73B
:102DE0001FFE0DB0BDE8F08F10F000008CFB00005E
:102DF0008C87FF1F48F000007CF000008487FF1FD5
:102E00005087FF1F244B254A1B7800211170072B88
:102E100009D8DFE803F0131C252E34043A0A204BAE
:102E20001B8880F83232FFF709B91D4B1B8800332D
:102E300018BF012380F83432FFF700B9184B1B8804
:102E4000003318BF012380F8C431FFF7F7B8144BE3
:102E50001B88003318BF012380F83532FFF7EEB826
:102E60000F4B1B88003318BF012380F83632FFF761
:102E7000E5B80B4B1B8880F83032FFF7DFB8084B02
:102E80001B8880F83132FFF7D9B8054B1B8880F8D2
:102E90003332FFF7D3B800BF549EFF1F0196FF1FC8
:102EA0004C9EFF1F2DE9F04F90F82E328BB0044658
:102EB000002B40F09D80D74E80F82D32338803EBF5
:102EC000432003EB800000F55850193080B200EB2E
:102ED000402500EB850505F558551935ADB205EBD4
:102EE000452305EB830303F55853193303EB4322C2
:102EF00003EB820303F5585319339BB203EB4321D1
:102F000003EB810101F55851193189B201EB4122DE
:102F100001EB820202F55852193292B202EB422EB4
:102F200002EB8E0E0EF5585E0EF1190E1FFA8EFE94
:102F30000EEB4E2C0EEB8C0C0CF5585C0CF1190CB6
:102F40001FFA8CFC03EB13270CEB4C280CEB8808C6
:102F500001EB1121FFB202EB12220EEB1E2E07EB4A
:102F6000870708F55858C9B2D3B201EB4101CEF337
:102F7000C01208F119084FEA272E1FFA88F88F119E
:102F800000EB10200EF1010103EB430305EB1525C7
:102F90001B11C0F3C019C5F3C01507F108000132B9
:102FA0000CEB1C2C84F8301208EB182103F12007DD
:102FB000D2B2CCF3C01384F83652C1F3C01184F8F6
:102FC00031020F25012084F8359284F8327284F89A
:102FD0003322A6F8008084F8C41184F8343284F8CF
:102FE0002E0284F82A0284F8C351002B40F0BB81E2
:102FF000894B1B78002B40F0C18194F83432D3B157
:10300000864B94F82912002203F1270084F82F221E
:1030100001E083420FD013F8012F8A42F9D194F8CE
:1030200033327F4AA2FB0323DB080133002284F8FA
:10303000333284F83422962194F83222204607F065
:1030400017F994F83512002940F0F28094F83632DE
:10305000002B00F0F28194F83032002B00F0D08287
:10306000704894F82F22DFF8C0A1DFF8C0910290D9
:1030700004F1E1058B460DF1240804F5E47703958E
:1030800060E094F831125B440B44DAF800100591CB
:10309000FF2B059998BF1B024FF48C7000FB01F1C8
:1030A00098BF9BB203FB01F31B0C5804C3F3CA0186
:1030B00003D5C1F5FF61073189B2080A029D19F8ED
:1030C000006035F81000C1F3460106FB01011B0446
:1030D00089B248BF49420EB294F8281294F8C2311E
:1030E00000914046394607F023F9A6F500439622A1
:1030F0009BB202FB03F31B0C03EB4303E118E25CFE
:103100009DF8240082FA50F2E2549DF825304A7866
:1031100082FA53F24A708B789DF8262083FA52F394
:103120008B7094F82F1294F8332294F830320BF10C
:10313000010B0A445FFA8BFBD2B25B4584F82F2265
:1031400040F25E8294F8C41100299AD194F83112A9
:103150005B440B44DAF800100691FF2B069998BFE8
:103160001B024FF48C7098BF9BB200FB01F103FB74
:1031700001F31B0C5E04C3F3CA0103D5C1F5FF6163
:10318000073189B2029D080AC1F3460119F80060AF
:1031900035F8100006FB01011D0489B248BF494201
:1031A0000EB294F8281294F8C23100914046394684
:1031B00007F0BEF8A6F500439BB203EB8303C3EB15
:1031C00003131B0C03EB4303E118E25C9DF824009E
:1031D00082FA50F2E2549DF825304A7882FA53F28E
:1031E0004A708B789DF8262083FA52F3039D8B70EA
:1031F00022462346197882F8BF11597882F8C01107
:10320000997882F8C11103339D42A2F10302F1D1F2
:10321000039586E78487FF1F0196FF1F5B87FF1FCB
:10322000CDCCCCCCBCF50000ECA8FF1F4CFD0000C1
:1032300094F83662002E00F0A58094F83032002B0E
:1032400000F0DE81DFF82892DFF82882864E002524
:1032500004F5E47765E0002900F00C82D9F800302D
:10326000099394F8312209984FF48C714FF4FA7352
:10327000120203FB150301FB02F203FB02F2C2F38D
:103280000E4202F580425104C2F3CA0303D5C3F5CE
:10329000FF6307339BB2190AC3F3460318F801A072
:1032A00036F811100AFB031A1FFA8AFA130494F86D
:1032B000281294F8C23194F82F22009148BFCAF125
:1032C000000A0FFA8AFA394608A807F031F8AAF579
:1032D00000439AB2962303FB02F31B0C03EB430358
:1032E000E118E25C9DF8200082FA50F2E2544A783C
:1032F0009DF8213082FA53F24A708B789DF8222093
:1033000083FA52F38B7094F82F1294F8333294F8B6
:1033100030220135EDB20B44AA4284F82F3240F23C
:103320006F8194F8C52194F8C411002A93D14FF409
:10333000FA73002900F0DB81114603FB05F39522A7
:1033400094F83102FDF7E6F894F8281294F8C231A7
:1033500094F82F2200918246394608A806F0E8FF2B
:103360000AEB4A03BCE702EB820202FA00F384F89C
:1033700033323E4B1B78002B3FF43FAE2046FFF725
:1033800041FD3AE694F83012002900F039810DF140
:10339000240804F5E47704F1E1053CE094F8C43135
:1033A00094F831023144002B00F02D8100230844B1
:1033B00095221946FDF76CF894F8281294F8C2315A
:1033C00094F82F22009181463946404606F0B0FF1E
:1033D00009EB4903E118E25C9DF8240082FA50F2FF
:1033E000E2544A789DF8253082FA53F24A708B787D
:1033F0009DF8262083FA52F38B7094F82F2294F8CC
:10340000333294F830120136F6B21344B14284F8E4
:103410002F3240F2F58094F8C531002BBED194F8DC
:10342000310294F8C42131440844002A00F09A8102
:1034300019469522FDF76EF8BEE794F83022002A6F
:1034400000F0DE80084994F82F22DFF824A0DFF88E
:103450002490029104F1E1059B460DF1240804F546
:10346000E477039566E000BFBCF500000196FF1FFE
:10347000ECA8FF1F4CFD0000DAF800300793079B13
:1034800094F831124FF48C7000FB03F3090203FB34
:1034900001F34FEA4B3101EB134399B24804C1F3F6
:1034A000CA0303D5C3F5FF6307339BB2180A029D15
:1034B00019F8006035F81000C3F3460306FB030358
:1034C0009BB20E0448BF5B4294F828121EB24046DD
:1034D00094F8C2310091394606F02AFFA6F5004360
:1034E00096229BB202FB03F31B0C03EB4303E11890
:1034F000E25C9DF8240082FA50F2E2549DF82530F7
:103500004A7882FA53F24A708B789DF8262083FA23
:1035100052F38B7094F82F2294F8333294F83012CF
:103520000BF1010B1A445FFA8BFBD2B2594584F8B8
:103530002F2265D994F8C431002B9DD1DAF80030E0
:103540000893089B94F831124FF48C70090200FB29
:1035500003F303FB01F34FEA4B3101EB134399B241
:103560004D04C1F3CA0303D5C3F5FF6307339BB210
:10357000180A029D19F8006035F81000C3F34603DD
:1035800006FB03039BB2080448BF5B4294F8281271
:103590001EB2404694F8C2310091394606F0C8FE8A
:1035A000A6F500439BB203EB8303C3EB03131B0C91
:1035B00003EB4303E118E25C9DF8240082FA50F229
:1035C000E2549DF825304A7882FA53F24A708B789B
:1035D0009DF8262083FA52F3039D8B7022462346E2
:1035E000197882F8BF11597882F8C011997882F859
:1035F000C1110333AB42A2F10302F1D1039589E774
:103600000BB0BDE8F08F08444A221946FCF740FF92
:1036100094F8281294F8C23194F82F220091814630
:103620003946404606F084FE09EB4903E118E25CA6
:103630009DF8240082FA50F2E2549DF825304A7831
:1036400082FA53F24A708B789DF8262083FA52F35F
:103650008B7022462346197882F8BF11597882F878
:10366000C011997882F8C1110333AB42A2F1030271
:10367000F1D1C2E64FF4FA7303FB05F34A2294F842
:103680003102FCF705FF94F8281294F8C23194F83F
:103690002F2200918246394608A806F049FE0AEB1F
:1036A0004A03E118E25C9DF8200082FA50F2E254ED
:1036B0009DF821304A7882FA53F24A708B789DF84F
:1036C000222083FA52F38B7004F1E1002346224654
:1036D000197882F8BF11597882F8C011997882F868
:1036E000C11103338342A2F10302F1D10BE603FBC4
:1036F00005F34A2294F83102FCF70CFF94F82812E3
:1037000094F8C23194F82F2200918246394608A8D5
:1037100006F00EFE0AEB4A03E118E25C9DF8200079
:1037200082FA50F2E2549DF821304A7882FA53F23C
:103730004A708B789DF8222083FA52F38B7004F143
:10374000E10023462246197882F8BF11597882F8A1
:10375000C011997882F8C11103338342A2F10302A8
:10376000F1D1D0E5134611464A22FCF7D3FE94F876
:10377000281294F8C23194F82F22009181463946DC
:10378000404606F0D5FD09EB4903E118E25C9DF8DF
:10379000240082FA50F2E2549DF825304A7882FAE9
:1037A00053F24A708B789DF8262083FA52F38B707F
:1037B00022462346197882F8BF11597882F8C01141
:1037C000997882F8C1110333AB42A2F10302F1D11F
:1037D00013E600BF2DE9F04F90F82E328DB004466D
:1037E000002B40F09D80C54E80F82D32338803EBCE
:1037F000432003EB800000F55850193080B200EBF5
:10380000402500EB850505F558551935ADB205EB9A
:10381000452305EB830303F55853193303EB432288
:1038200003EB820303F5585319339BB203EB432197
:1038300003EB810101F55851193189B201EB4122A5
:1038400001EB820202F55852193292B202EB422E7B
:1038500002EB8E0E0EF5585E0EF1190E1FFA8EFE5B
:103860000EEB4E2C0EEB8C0C0CF5585C0CF1190C7D
:103870001FFA8CFC03EB13270CEB4C280CEB88088D
:1038800001EB1121FFB202EB12220EEB1E2E07EB11
:10389000870708F55858C9B2D3B201EB4101CEF3FE
:1038A000C01208F119084FEA272E1FFA88F88F1165
:1038B00000EB10200EF1010103EB430305EB15258E
:1038C0001B11C0F3C019C5F3C01507F10800013280
:1038D0000CEB1C2C84F8301208EB182103F12007A4
:1038E000D2B2CCF3C01384F83652C1F3C01184F8BD
:1038F00031020F25012084F8359284F8327284F861
:103900003322A6F8008084F8C41184F8343284F895
:103910002E0284F82A0284F8C351002B40F09082D2
:10392000774B1B78002B40F0968294F8343213B119
:10393000002384F82F3294F832229621204606F094
:1039400097FC94F8C57194F83022002F40F09981CB
:10395000002A00F050836B4BDFF8ACB1DFF8ACA16C
:10396000039304F5E4780DF12C09BEB29319039A80
:1039700094F83112126807920B44FF2B079A98BFF4
:103980001B024FF48C7198BF9BB201FB02F203FB48
:1039900002F3C3F30E43A3F580439BB25D04C3F36C
:1039A000CA0203D5C2F5FF62073292B2100AC2F30F
:1039B00046011BF800503AF8102005FB01221804BC
:1039C00092B248BF554294F8281294F8C23154BFBD
:1039D00015B22DB294F82F2200914846414606F0C8
:1039E000A7FCA5F5004326229BB202FB03F31B0CA8
:1039F00025339BB203EB4303E118E25C9DF82C00F6
:103A000082FA50F2E2549DF82D304A7882FA53F24D
:103A10004A708B789DF82E2083FA52F38B7094F8BD
:103A2000312294F8303216441E44039B1B680693DF
:103A3000FF2E069A98BF36024FF48C7398BFB6B229
:103A400003FB02F206FB02F2C2F30E4202F58042D1
:103A50005104C2F3CA0303D5C3F5FF6307339BB216
:103A6000180AC3F346011BF800503AF8103005FB62
:103A7000013316049BB248BF5B4294F8281294F8B5
:103A80002F221DB2484694F8C2310091414606F0FB
:103A90004FFCA5F5004326229BB202FB03F31B0C4F
:103AA00003EB4303E118E25C9DF82C0082FA50F22C
:103AB000E2549DF82D304A7882FA53F24A708B789E
:103AC0009DF82E2083FA52F38B7094F83032013730
:103AD000FFB2BB421A463FF648AF94F8C421002A11
:103AE00000F09A8194F8C571002F40F0C1814FF425
:103AF0008C79002B00F0C2800AE000BF8487FF1F92
:103B00000196FF1FECA8FF1F4CFD0000BCF5000054
:103B100094F8312201331344039ABEB212680B9217
:103B200033449BB2FF2B0B9A9CBF1B029BB209FB39
:103B300002F203FB02F3C3F30E43A3F580439BB2EF
:103B40005D04C3F3CA0203D5C2F5FF62073292B225
:103B5000110AC2F346021BF801503AF8111005FB96
:103B600002151804ADB294F8281294F8C23194F8F2
:103B70002F22009148BF6D42414609A82DB206F0A0
:103B8000D7FBA5F5004326229BB202FB03F31B0CD7
:103B900070339BB203EB4303E118E25C9DF8240011
:103BA00082FA50F2E2549DF825304A7882FA53F2B4
:103BB0004A708B789DF8262083FA52F38B7094F824
:103BC000312294F83032134401331E44039B1B68A6
:103BD0000A93B6B2FF2E0A9A9CBF3602B6B209FB10
:103BE00002F206FB02F2C2F30E4202F580425104D9
:103BF000C2F3CA0303D5C3F5FF6307339BB2180AA8
:103C0000C3F346011BF800503AF8103005FB0133AE
:103C100012049BB248BF5B4294F8281294F82F22FA
:103C20001DB209A894F8C2310091414606F080FB0C
:103C3000A5F500439BB203EBC30203EB82031B0C0D
:103C40004B339BB203EB4303E118E25C9DF8240085
:103C500082FA50F2E2549DF825304A7882FA53F203
:103C60004A708B789DF8262083FA52F38B700137C7
:103C700094F83032FFB2BB423FF64AAF0DB0BDE818
:103C8000F08F002A00F0B781754BDFF8DCB1DFF868
:103C9000DCA1039304F5E47800270DF12C09BEB2F2
:103CA0009319039A94F83112126805920B44FF2B72
:103CB000059A98BF1B024FF48C7198BF9BB201FB11
:103CC00002F203FB02F3C3F30E4303F580435D04EA
:103CD000C3F3CA0203D5C2F5FF62073292B2100ADB
:103CE000C2F346011BF800503AF8102005FB0122F0
:103CF000180492B248BF554294F8281294F8C23181
:103D000054BF15B22DB294F82F2200914846414677
:103D100006F00EFBA5F5004326229BB202FB03F33F
:103D20001B0C25339BB203EB4303E118E25C9DF8C7
:103D30002C0082FA50F2E2549DF82D304A7882FA33
:103D400053F24A708B789DF82E2083FA52F38B70D1
:103D500094F8312294F8303216441E44039B1B68B9
:103D60000493FF2E049B98BF36024FF48C7298BFC9
:103D7000B6B202FB03F306FB03F3C3F30E43A3F552
:103D800080439BB25904C3F3CA0203D5C2F5FF6254
:103D9000073292B2100AC2F346011BF800503AF8FB
:103DA000102005FB01221E0492B248BF524294F833
:103DB000281294F8C23115B2484694F82F22009187
:103DC000414606F0B5FAA5F5004326229BB202FB58
:103DD00003F31B0C03EB4303E118E25C9DF82C009A
:103DE00082FA50F2E2549DF82D304A7882FA53F26A
:103DF0004A708B789DF82E2083FA52F38B7094F8DA
:103E000030320137FFB2BB421A463FF648AF94F852
:103E1000C421002A7FF466AE04F1E1012346227832
:103E200083F8BF21627883F8C021A27883F8C1218A
:103E30000334A142A3F10303F1D10DB0BDE8F08F2B
:103E400002EB820202FA00F384F83332054B1B784E
:103E5000002B3FF46AAD2046FEF7D4FF65E500BFB6
:103E6000ECA8FF1F0196FF1F4CFD0000BCF50000F1
:103E7000002B3FF403AF002794F8312201331344A1
:103E8000039ABEB21268099233449BB2FF2B099A7F
:103E900098BF1B024FF48C7198BF9BB201FB02F2DA
:103EA00003FB02F3C3F30E4303F580435D04C3F346
:103EB000CA0203D5C2F5FF62073292B2110AC2F3F9
:103EC00046021BF801503AF8111005FB02151804C0
:103ED000ADB294F8281294F8C23194F82F220091D0
:103EE00048BF6D42414648462DB206F021FAA5F57D
:103EF000004326229BB202FB03F31B0C70339BB2E0
:103F000003EB4303E118E25C9DF82C0082FA50F2C7
:103F1000E2549DF82D304A7882FA53F24A708B7839
:103F20009DF82E2083FA52F38B7094F8312294F886
:103F30003032134401331E44039B1B680893B6B20E
:103F4000FF2E089B98BF36024FF48C7298BFB6B212
:103F500002FB03F306FB03F3C3F30E43A3F5804315
:103F60009BB25904C3F3CA0203D5C2F5FF620732FC
:103F700092B2110AC2F346021BF801503AF811102E
:103F800005FB02151E04ADB294F8281294F8C23154
:103F900094F82F22009148BF6D42414648462DB209
:103FA00006F0C6F9A5F500439BB203EBC30203EB91
:103FB00082031B0C4B339BB203EB4303E118E25C1F
:103FC0009DF82C0082FA50F2E2549DF82D304A7888
:103FD00082FA53F24A708B789DF82E2083FA52F3BE
:103FE0008B70013794F83032FFB2BB423FF644AFDA
:103FF0000DB0BDE8F08F94F8C431002B3FF40CAF46
:104000003CE600BF174B184A1B7800211170032BA8
:104010000AD8DFE803F01702110B144B1B8800339A
:1040200018BF012380F87B32FEF708B80F4B1B88BE
:1040300080F87832FEF702B80C4B1B8880F8793292
:10404000FDF7FCBF094B1B88002B14BF0123002385
:1040500080F8C43114BF96234B23A0F83C33FDF7FE
:10406000EDBF00BF549EFF1F0196FF1F4C9EFF1F18
:1040700090F82E322DE9F0410446002B4AD16048D9
:1040800084F82A32038803EB432203EB820303F50F
:10409000585319339BB203EB432203EB820202F520
:1040A0005852193292B203EB1323DBB202EB4221D6
:1040B00003EBC30502EB810103EB450301F5585106
:1040C00019311B1289B20133012601EB1125DBB234
:1040D000C5F3C01506270180B3424FF00F0184F8E5
:1040E000C45184F82E6284F87B6284F82D7284F8BF
:1040F000C31100F0838002EB1222D2B202EB420223
:1041000012123244D2B284F8793284F878222046EE
:10411000FDF794FF3B4B1B78002B6BD194F8C53116
:1041200043BB94F87A2294F878321A4494F87B329C
:10413000D2B284F87A224BBB94F8C431002B51D10F
:1041400094F879324B21204605F0E0FF204604F137
:10415000E1012346027883F8BF21427883F8C02129
:10416000827883F8C12103308842A3F10303F1D19F
:10417000BDE8F08194F87A3294F878229A1A94F88B
:104180007B32D2B284F87A22002BD5D094F87932DF
:104190002521204605F0BAFF04F16F05234621468C
:1041A0002246107881F8DE00507881F8DF009078A0
:1041B00081F8E0000332AA42A1F10301F1D104F138
:1041C000E1012046027883F8BF21427883F8C021BC
:1041D000827883F8C12103308842A3F10303F1D12F
:1041E000BDE8F08194F8793220469621BDE8F0418F
:1041F00005F08CBF2046FFF705FF8FE71A4682E7E0
:104200008487FF1F0196FF1FF0B590F82C429DF8A0
:1042100018609DF81CE00A2501270F3C80F82D52FC
:10422000BC424FF00F0580F8C35180F82E729DF804
:1042300014503DD900234B2480F87C5280F87E62D4
:1042400080F8181380F8192380F81BE380F82A32CD
:1042500080F8173380F816431F4C238803EB432262
:1042600003EB820303F5585319339BB203EB43224C
:1042700003EB820202F55852193292B203EB132378
:1042800002EB1221DBB2C9B203EB430301EB4101A4
:104290000A3D0A3EC3EBC303C1EBC10105EB232377
:1042A00006EB212180F87D32228080F87F12F0BD5C
:1042B00080F82A7280F87C5280F87E6280F81813A9
:1042C00080F8192380F81BE312B1252280F8172308
:1042D00080F81633C0E700BF8487FF1F194B1A4AC6
:1042E0001B7800211170052B08D8DFE803F00F15AB
:1042F0001B032109154B1B8880F87F32FDF79EBEFA
:10430000124B1B8880F81B33FDF798BE0F4B1B88A0
:1043100080F87C32FDF792BE0C4B1B8880F87E3211
:10432000FDF78CBE094B1B8880F87D32FDF786BEF9
:10433000064B1B88003318BF012380F81833FDF7A4
:104340007DBE00BF549EFF1F0196FF1F4C9EFF1FA6
:104350002DE9F04790F82E32D04D86B00446002B60
:1043600000F02982CE4B1B78002B40F0208294F87D
:104370001633002B00F0D18294F87E122A8801EBCC
:1043800081014F0003F27F2E97FBF3F70237FFB254
:10439000A64404F27F2602EB422102EB810202F5E1
:1043A0005852193292B202EB122116F8010FC9B21B
:1043B00011FB07F1A0EB112121EAE171B645317043
:1043C000E9D194F818632A80002E00F0F580A3F15B
:1043D000030EBEF1010F4FF0010C1ADD03F51F7043
:1043E00003F27E27DFF8BC922044274404F52078AE
:1043F000017810F8016D01EB460189FB01A6A6EBDF
:10440000E171804507F8011DF2D1BCF1000F00F009
:10441000028102EB422102EB810202F5585219326D
:1044200092B202EB122194F87C622A80C9B28E42C9
:104430009A4826D902EB422102EB810202F558523A
:10444000193292B202EB422602EB860606F5585666
:104450001936B6B206EB162102EB1222C9B2D2B25D
:1044600001EB4107C2EBC20204EB2222C1EB471170
:1044700009120680603992F8800280FA51F082F8C1
:104480008002BCF1000F12D12A8894F87D62834922
:1044900002EB422002EB800202F55852193292B22E
:1044A00002EB1220C0B286422A8000F2CD8094F83E
:1044B000C521002A5FD1002B00F0268204F27F275D
:1044C0009046B94605AE013BC8EB030505EB450533
:1044D00019F8011F304605F009FF9DF814306355A7
:1044E00025449DF816309DF815206A70AB7094F83D
:1044F000163308F101084345E5DC94F819230AB3A3
:1045000094F8C521002A40F0BF819046002B00F0AE
:10451000FE8108EB030517F8011F304605F0E6FEA3
:1045200005EB45039DF81420E25423449DF8151033
:104530009DF8162059709A7094F8163308F1010806
:104540004345E6DC94F81823002A00F0AD8004F11E
:10455000E10123461A7884F8BF215A7884F8C021F3
:104560009A7884F8C12103339942A4F10304F1D16C
:1045700006B0BDE8F087002B00F0EA8004F27F2748
:10458000B94625464FF0000805AE19F8011F304620
:1045900005F0ACFE9DF816309DF814109DF815201E
:1045A00029706A70AB7094F8163308F1010843451E
:1045B00005F10305E9DCA0E794F87F1201EB810126
:1045C0004FEA410E9EFBF3FE0EF1020E5FFA8EFEE5
:1045D00004F2CA2702EB422102EB810202F5585293
:1045E000193292B202EB122117F8010FC9B211FB76
:1045F0000EF1A0EB1121013621EAE1719E423970E2
:10460000E8DB2A80A3F1030EBEF1010F4FF0000C8E
:104610003FF7E4AEFDE603F2C72603F2C927DFF851
:10462000848026442744317816F8010D01EB4001BF
:1046300088FB01900EF1FF3EA0EBE171BEF1010F8E
:1046400007F8011DEFD1E4E602EB422002EB800205
:1046500002F55852193292B202EB422502EB85055F
:1046600005F55855193502EB1222ADB2D2B205EB61
:104670001520C2EBC202C0B204EB222200EB4006BE
:10468000C0EB461092F8CB620D80011260393046C3
:1046900080FA51F082F8CB0209E700BF8487FF1F40
:1046A0000196FF1F5655555594F8C521002A5AD139
:1046B000002B3FF45DAF04F2CA27B9464FF0000863
:1046C00005AE94F8175319F8011F4B35454405EB17
:1046D0004505304605F00AFE9DF814306355254423
:1046E0009DF816309DF815206A70AB7094F816335B
:1046F00008F101084345E4DC94F81923002A3FF44B
:1047000037AF94F8C521002A00F0DD80002B3FF47C
:104710002FAF25464FF0000817F8011F304605F06F
:10472000E5FD9DF816309DF814109DF8152085F8CC
:10473000E11085F8E22085F8E33094F8163308F1AB
:104740000108434505F10305E6DC06B0BDE8F08746
:1047500094F81933002B40F0DA80BCF1000F7FF49D
:10476000F6AE94F81633002B3FF402AF04F2CA27DA
:10477000B94625464FF0000805AE19F8011F30462E
:1047800005F0B4FD9DF816309DF814109DF8152025
:1047900085F8BF1185F8C02185F8C13194F816332A
:1047A00008F101084345A5F10305E6DCA4E720462E
:1047B000FFF794FDDBE52B8803EB432103EB81013D
:1047C00001F55851193189B201EB412201EB820206
:1047D00002F55852193292B202EB422E02EB8E0EC3
:1047E0000EF5585E0EF1190E1FFA8EFE0EEB4E26D8
:1047F0000EEB860606F558561936B6B206EB46237A
:1048000006EB830303F5585319339BB203EB43279D
:1048100003EB870706EB16260EEB1E2E07F55857FF
:1048200003EB1323F6B25FFA8EFE1937DBB2C6EB49
:104830000616BFB2B6110EEB8E0CC3EB03130EEBD4
:104840004C0E9B1106F1320C07EB17263C334FEA56
:104850002E2EC6F381165FFA83F85FFA8CFC0136C0
:104860000EF1140301EB112102EB1222CDF800C06E
:10487000CDF804800296C1F3C011C2F3C012DBB2BE
:104880002F80FFF7C1FC6DE5002B40D025464FF08F
:10489000000817F8011F304605F028FD9DF8163076
:1048A0009DF814109DF8152085F8DE1085F8DF209E
:1048B00085F8E03094F8163308F101084345A5F176
:1048C0000305E6DC3EE69046002B3FF451AE4B3349
:1048D000C8EB030505EB450517F8011F304605F049
:1048E00005FD9DF81430635525449DF816309DF85C
:1048F00015206A70AB7094F8163308F1010843452F
:10490000E5DC06B0BDE8F08794F8193363B194F89C
:104910001833002B7FF41BAE2AE694F818230AB153
:104920002A8854E52A886DE6BCF1000F7FF40FAEAB
:1049300094F81633BCE600BF2DE9F04F90F82E3204
:10494000D04D87B00446002B00F0DA81CE4B1B78A7
:10495000002B40F0428294F816C36346BCF1000F6E
:1049600000F03F8294F87E122A8801EB81014F000B
:104970000CF27F2E97FBFCF70237FFB2A64404F23D
:104980007F2602EB422102EB810202F558521932D6
:1049900092B202EB122116F8010FC9B211FB07F116
:1049A000A0EB112121EAE171B6453170E9D194F80B
:1049B00018632A80002E00F06B81ACF10307012FF1
:1049C0004FF001091ADD0CF51F700CF27E26DFF89E
:1049D000BC822044264404F5207E017810F801AD05
:1049E00001EB4A0188FB01BAAAEBE171864506F8A2
:1049F000011DF2D1B9F1000F00F02C8102EB422130
:104A000002EB810202F55852193292B202EB1220E7
:104A100094F87C622A80C0B286429A4928D902EB77
:104A2000422002EB800202F55852193292B202EB98
:104A3000422602EB860606F55856193602EB12227C
:104A4000B6B2D2B206EB1620C2EBC202C0B204EB81
:104A5000222200EB40070E80C0EB471092F88062E4
:104A60000012A0F16001304680FA51F082F8800215
:104A7000B9F1000F12D12A8894F87D62814902EBC6
:104A8000422002EB800202F55852193292B202EB38
:104A90001220C0B286422A8000F2AF80BCF1000F23
:104AA00000F0A48104F27F2700260DF11409C3F160
:104AB0004B039D1905EB450517F8011F484605F006
:104AC00015FC9DF81430635525449DF816309DF86B
:104AD00015206A70AB7094F816330136B342E6DCE9
:104AE00094F81863002E75D104F2CA27002B00F049
:104AF00083814A339D1B05EB450517F8011F484686
:104B000005F0F4FB9DF81430635525449DF81630EC
:104B10009DF815206A70AB7094F816330136B342D5
:104B2000E7DC4B2B47D00DF1140904F5E47B274655
:104B3000264600254FF0010A94F81A23CDF800A06C
:104B4000C5EB052898FBF3F31A44D2B2FF2359466C
:104B5000484605F0EDFB9DF814109DF815209DF8D2
:104B6000163031707270B37094F81A3394F81623BB
:104B700098FBF2F808EB0302D2B2FF235946CDF8B6
:104B800000A0484605F0D4FB9DF815209DF816308E
:104B90009DF8141087F8C02187F8BF1187F8C1313C
:104BA00094F816330135C3F14B02AA4206F103060D
:104BB000A7F10307C0DC94F8C531002B40F09680C4
:104BC00094F81A3394F81B239B1A84F81A3307B00D
:104BD000BDE8F08F214604F1E1052246107881F806
:104BE000BF01507881F8C001907881F8C10103328B
:104BF0009542A1F10301F1D193E702EB422002EBD0
:104C0000800202F55852193292B202EB422502EBB1
:104C1000850505F55855193502EB1222ADB2D2B211
:104C200005EB1520C2EBC202C0B204EB222200EB5E
:104C30004006C0EB461092F8CB620D80011260393D
:104C4000304680FA51F082F8CB02BCF1000F7FF4BD
:104C500029AFCFE00CF2C7260CF2C92EDFF82C806A
:104C60002644A644317816F8010D01EB400188FB7B
:104C700001A0013FA0EBE171012F0EF8011DF1D160
:104C8000BCE600BF8487FF1F0196FF1F5655555590
:104C900094F87F1201EB81014FEA410E9EFBFCFE6E
:104CA0000EF1020E5FFA8EFE04F2CA2702EB4221D9
:104CB00002EB810202F55852193292B202EB122134
:104CC00017F8010FC9B211FB0EF1A0EB112101364B
:104CD00021EAE17166453970E8DB2A80ACF103070F
:104CE000012F4FF000093FF76EAE87E694F81A23C4
:104CF00094F81B33134484F81A3307B0BDE8F08FDF
:104D00002B8803EB432103EB810101F55851193145
:104D100089B201EB412201EB820202F558521932AD
:104D200092B202EB422E02EB8E0E0EF5585E0EF1A1
:104D3000190E1FFA8EFE0EEB4E260EEB860606F5BA
:104D400058561936B6B206EB462306EB830303F535
:104D5000585319339BB203EB432703EB870706EB4A
:104D600016260EEB1E2E07F5585703EB1323F6B24B
:104D70005FFA8EFE1937DBB2C6EB0616BFB2B6116C
:104D80000EEB8E0CC3EB03130EEB4C0E9B1106F1D6
:104D9000320C07EB17263C334FEA2E2EC6F3811652
:104DA0005FFA8CFC5FFA83F801EB11210EF114031A
:104DB00002EB12220136CDF800C0CDF80480029635
:104DC000DBB2C1F3C011C2F3C0122F80FFF71CFA8F
:104DD0000B4B1B78002B3FF4BEAD2046FFF77EFA4D
:104DE000B9E594F818234AB12A88E6E5B9F1000F2D
:104DF0007FF4F0AE0DF11409002396E62A886DE7E2
:104E00000196FF1F0E4B0F4A1B78002111703BB11A
:104E1000012B03D10C4B1B8880F83E33FDF70EB9F4
:104E2000094B1B88002B14BF0123002380F8C431D9
:104E300014BF96234B23A0F83C33FDF7FFB800BF07
:104E4000549EFF1F0196FF1F4C9EFF1FF0B590F868
:104E50002E324B4E85B004468BBB338803EB432286
:104E600003EB820303F5585319339BB203EB432141
:104E700003EB810101F55851193189B201EB11227F
:104E8000D2B2C2EB0212121203EB1323012006323C
:104E9000C3F3C01314270F253180D2B284F8C43174
:104EA00084F82E0284F82A0284F82D7284F8C35103
:104EB000002B5CD14B23A4F83C3384F83E23314BC8
:104EC0001B78002B57D194F83E232046962105F0FD
:104ED000CFF93288B4F83C5302EB422302EB830251
:104EE00002F5585319339BB203EB432703EB8707B3
:104EF00007F558571937BFB207EB172203FB05F325
:104F000001211D0C009103A804F5E471D2B2FF2326
:104F1000378005F00DFA05EB4503E118E25C9DF8DA
:104F20000C0082FA50F2E2549DF80D304A7882FA71
:104F300053F24A708B789DF80E2083FA52F38B70EF
:104F400094F8C4318BB9204604F1E10123461A7864
:104F500080F8BF215A7880F8C0219A7880F8C12162
:104F600003338B42A0F10300F1D105B0F0BD9623CD
:104F7000A4F83C33A1E72046FFF744FFA3E700BFB6
:104F80008487FF1F0196FF1F244B254A1B780021B1
:104F90001170092B0AD8DFE803F0101E23282D32E8
:104FA00037053C0B1F4B1B8880F84F33FDF746B885
:104FB0001C4B1B8880F84533F8E71A4B1B88002BE5
:104FC00014BF0123002380F8C43114BF96234B2360
:104FD000A0F83C33EAE7134B1B8880F83F33E5E742
:104FE000104B1B8880F84033E0E70E4B1B8880F89D
:104FF0004133DBE70B4B1B8880F84233D6E7094B84
:105000001B8880F84633D1E7064B1B8880F8433372
:10501000CCE7044B1B8880F85033C7E7549EFF1F32
:105020000196FF1F4C9EFF1F2DE9F04F90F82E3286
:1050300085B00446002B40F0BE80DFF82CC3BCF8DE
:10504000003003EB432603EB860606F55856193667
:10505000B6B206EB462106EB810101F55851193134
:1050600089B201EB412501EB850505F55855193548
:10507000ADB205EB452305EB830303F55853193314
:105080009BB203EB432703EB870707F55857193704
:10509000BFB207EB472007EB800000F558501930EE
:1050A00080B200EB402200EB820202F55852193226
:1050B00092B202EB422E02EB8E0E0EF5585E0EF10E
:1050C000190E1FFA8EFE0EEB4E280EEB880808F51F
:1050D000585803EB132301EB112102EB122208F1C4
:1050E00019081FFA88F8DBB2C9B2D2B208EB182946
:1050F00002EB820203EB830301EB41014FEAA21AA8
:1051000003EB83035FFA89F200EB1020091205EB31
:1051100015259B110131C5F3421502EB820206EB06
:10512000162607EB1727C0B203F16409ACF800801C
:105130000AF11403C6F3C016C7F3811700EB800011
:105140000EEB1E2E5FFA81FA4FF01508691DC2F3AF
:10515000C71C01250F2284F8C4615FFA89F9013761
:10516000C0F30720DBB25FFA8EFE84F82E5284F87B
:105170002A5284F82D8284F8C321002E40F0E88062
:105180004B22A4F83C23764D84F83FA3A5FB0325CE
:1051900001EB9502002184F8419384F8427384F86E
:1051A000460384F8433384F84FE384F850C384F80B
:1051B000402384F845136B4B1B78002B40F0CC80C8
:1051C00094F8451394F83F3394F8C5210B44DBB2AF
:1051D00084F8453384F84433002A00F0B18094F811
:1051E000462394F84033134484F84633B4F83C33F0
:1051F000002B00F08E8004F5E4792546671C00261C
:105200004FF0FF085CE00029BCBFD243D2B252008D
:10521000D2B2531C03FB02F2121202FB03F31B1265
:1052200002EB4202A2EB430292B2D30554BF5FFAF3
:1052300082FB4FF0FF0BC0EB0B0B5FFA8BFB94F87C
:10524000502394F84F338DF80E20294603A88DF88B
:105250000C308DF80D8005F069FA94F8443394F819
:105260003F2394F82812009102FB0A32D2B25B4627
:10527000494603A805F05CF817F8013C9DF80C209E
:1052800083FA52F307F8013C6A789DF80D3082FAF0
:1052900053F26A70AB789DF80E2083FA52F3AB702C
:1052A00094F8441394F84233B4F83C2301360B4489
:1052B000B24205F1030507F1030784F8443328DD02
:1052C00094F8433394F846235FFA86FA03FB0A22E4
:1052D000D2B251B20029BABFD343DBB213465B004E
:1052E000DBB2581C00FB03F31B1203FB00F000129F
:1052F00003EB4303A3EB40039BB2D80594F84103AF
:1053000054BFDBB2FF239842FFF47DAF4FF0000B98
:1053100095E794F8C43183B904F1E101234622787A
:1053200083F8BF21627883F8C021A27883F8C12175
:105330000334A142A3F10303F1D105B0BDE8F08F1E
:1053400094F8463394F840239B1A84F846334DE78B
:105350009622A4F83C2316E72046FFF715FE2FE718
:10536000CDCCCCCC0196FF1F8487FF1F70B50446BF
:1053700082B01B4D022005F047FE2B88184400EB3D
:10538000402300EB830043F21963184480B200EB22
:10539000102200EB402100EB8100D2B2034402EB6B
:1053A00082029BB29211002603EB13211B3284F878
:1053B000512384F8521384F8546384F8536384F8B7
:1053C0005C63204601AA96212B808DF804608DF83D
:1053D00005608DF8066004F089FE02B070BD00BF64
:1053E0008487FF1F2DE9F04F90F85C3387B002905F
:1053F000002B00F0898090F851330393064618463D
:105400005D4B1B8803EB432403EB840404F55854E1
:105410001934A4B204EB1423DBB203EB830903EBCE
:10542000C9094FEA292909F1140901235FFA89F909
:1054300086F8543386F85D9308F07CF906F5577BBF
:1054400006F5AF6A5B4606F24C4806F23F57D34674
:10545000019006F5CD6600259A4604EB442304EB43
:10546000830404F558541934A4B2732303FB04F0E5
:10547000000C019B4AF8043F0A3080B208F05AF948
:105480003E4908F063FA04EB442304EB830303F57D
:10549000585319339BB203EB432403EB840404F504
:1054A00058541934A4B204EB1421C9B201EB8101A0
:1054B00003EB13230912C3F3C0130A3148F8040F96
:1054C00007F8013FC8B208F035F90135EBB22C4AB4
:1054D0004BF8040F994546F8042FBED8039A029E54
:1054E000254FC2F1950102EB420301EB4101F51892
:1054F0007018FF223C80F2546A70AA707254427095
:10550000827007B0BDE8F08F029D95F8533395F88F
:10551000511395F852238DF814200533DBB201EBBB
:10552000410185F85333294405A8FF248DF816302E
:105530008DF8154005F0FAF895F8511395F85233A7
:1055400095F853238DF81430C1F1950101EB410119
:1055500005A829448DF815408DF8162005F0E6F8C9
:1055600095F85333FF2BCCD1029A012382F85C3398
:1055700007B0BDE8F08F00BF8487FF1F0000C8425E
:1055800000007F432DE9F047654B054682B01A784D
:10559000962104F06DFE95F85D43002685F85C6762
:1055A000002C7ED0DFF890914FF0FF083BE0D4F85C
:1055B0006013504608F00EF807460021384608F000
:1055C000AFFA5849002868D1384608F0C7FA00B148
:1055D000544FC4F860735146D9F8000008F002F93E
:1055E0004FF06E51C4F85004D4F87C0508F0FAF876
:1055F00001464FF07E5007F0EBFFD4F86C1608F030
:10560000F1F8C4F86C0608F0D9FA95F85C37C0B226
:10561000834206F1010695F85D3338BF85F85C07D3
:10562000F6B2B3423BD905EB8604D4F8600308F028
:105630009FFA0746D4F86C0608F0C0FA95F8523382
:105640008DF8020001A968468DF800308DF80180C0
:1056500005F06CF807EB470029182B5C9DF8042037
:1056600083FA52F32B549DF805304A7882FA53F2AC
:105670004A708B789DF8062083FA52F3AA198B7032
:1056800092F84035D4F850A4002B90D1D4F86003A0
:10569000514607F09DFF07468FE7002799E795F8E9
:1056A0005C472A4605F1E1002B46197882F8BF11C4
:1056B000597882F8C011997882F8C1110333834276
:1056C000A2F10302F1D144BB01AA962128468DF82C
:1056D00004408DF805408DF8064004F007FD12489F
:1056E000124C038824681249124A019403EB4324A4
:1056F0000988128803EB840303F558530A441933CD
:105700009BB292B20199038003FB02F301EB1343B6
:105710000222C5F8583385F8542302B0BDE8F0875B
:105720004887FF1F000094428487FF1FECA8FF1FDB
:105730004E87FF1F4C87FF1F5887FF1F10B590F83B
:105740005433012B82B01CD017D3022B13D100236A
:1057500001AA962104468DF804308DF805308DF8A5
:10576000063004F0C3FC0B4AD4F858331268019297
:10577000019A9A4209D202B010BDFFF733FE02B07F
:1057800010BDFFF7FFFE02B010BD2046FFF7EEFD93
:10579000F1E700BFECA8FF1FF8B590F82E320446E1
:1057A000A3B1344D344B1A782AB1344A127800210F
:1057B0001970002A33D02046FFF7C0FF94F8C73194
:1057C0002C4900222A70002B31D1F8BD2C4980F8D9
:1057D0002A320B8803EB432203EB820303F5585371
:1057E00019339BB203EB13220F25C2F3C01201271A
:1057F0001726022084F8C3510B8084F8C72184F84F
:105800002E7284F82D6284F854031A4D002AC9D0F0
:105810002B78002BC6D11B4B83F85403C2E71A4BDD
:105820001B885B1A18BF012384F8C731C3E7012323
:1058300014480B70FFF782FF124B204603F5E17509
:10584000013414F8012C197882FA51F204F8012C71
:1058500041785A7881FA52F141708278997882FAC7
:1058600051F20333AB42827004F1030400F10300F0
:10587000E7D1F8BD0296FF1F0196FF1F549EFF1F40
:105880008487FF1F0896FF1F4C9EFF1F184B194A65
:105890001B7800211170042B0DD8DFE803F00314EE
:1058A0001A200E00144B1B78092B1ED9412BA8BFC0
:1058B0004123A0F83C33FCF7C1BB0F4B1B8880F899
:1058C0003332FCF7BBBB0C4B1B8880F85E37FCF710
:1058D000B5BB094B1B8880F83232FCF7AFBB064BD7
:1058E0001B8880F83132FCF7A9BB0A23E1E700BF2F
:1058F000549EFF1F0196FF1F4C9EFF1F2DE9F04392
:1059000090F82E6287B00446002E00F0F780BC4B62
:105910001B78002B40F06181B4F83C1304F5E47768
:1059200011B3264600254FF0010894F85D37CDF8F5
:105930000080C5EB052292FBF1F21A44D2B2FF239C
:10594000394605A804F0F4FC9DF814109DF81520C4
:105950009DF8163031707270B370B4F83C13013595
:10596000A94206F10306E0DC94F8C531002B00F0F3
:10597000BD8094F85D2794F85E37134484F85D3752
:105980004A2900F32E8101EB4102A31804F1E1053D
:1059900094F8321258781E7893F802E0C943C9B2DD
:1059A0004A1C02FB00F102FB06F602FB0EF230126B
:1059B00009121212187059709A700333AB42E7D172
:1059C000B4F83C13DFF84C8294F83132D8F8002058
:1059D000059205984FF48C7202FB00F21B0203FB48
:1059E00002F2C2F30E42A2F5804292B25004C2F318
:1059F000CA0303D5C3F5FF6307339BB2180ADFF868
:105A000018E2804E365C3EF81000C3F3460306FBF6
:105A1000030312049EB248BF764236B2C1F14A0374
:105A2000A6F500469BB2B6B203FB066694F82802C0
:105A300094F8C23194F82F22009001EB164604A886
:105A40003946B6B204F074FC06EB4603E118E25C9A
:105A50009DF8100082FA50F2E2549DF811304A7815
:105A600082FA53F24A708B789DF8122083FA52F32F
:105A7000654F8B703B68DB071BD5644ED8F8003050
:105A8000049396E80600049B5B1A9A4221D92346A8
:105A90001A7884F8BF215A7884F8C0219A7884F85B
:105AA000C12103339D42A4F10304F1D107B0BDE845
:105AB000F083384605F056FB002840F09580534EA1
:105AC000D8F80030049396E80600049B5B1A9342D2
:105AD000DDD3D8F8001094F82F2294F833320391D4
