:1000000000800020BD01000081B8000039B8000068
:1000100039B8000039B8000039B8000039B800001C
:1000200039B8000039B8000039B8000081B80000C4
:1000300081B8000039B80000ADCC0000B1CD00009F
:1000400081B8000081B8000081B8000081B80000CC
:1000500081B8000081B8000081B8000081B80000BC
:1000600081B8000081B8000081B8000081B80000AC
:1000700081B8000081B8000081B8000081B800009C
:1000800081B8000081B8000081B8000081B800008C
:1000900081B8000081B8000081B8000081B800007C
:1000A00081B8000081B8000081B8000081B800006C
:1000B00081B8000081B8000081B8000081B800005C
:1000C00081B8000081B8000081B8000081B800004C
:1000D00081B8000081B8000081B8000081B800003C
:1000E00081B8000081B8000081B8000081B800002C
:1000F00081B8000009D1000081B8000035D20000AD
:1001000081B8000061D3000081B8000081B8000010
:1001100081B8000081B8000081B8000081B80000FB
:1001200081B8000081B8000081B8000081B80000EB
:1001300081B8000081B8000081B8000081B80000DB
:1001400081B8000081B8000081B8000081B80000CB
:1001500081B8000081B8000081B8000081B80000BB
:1001600081B80000C9BC000081B8000081B800005F
:1001700081B8000081B8000081B8000081B800009B
:1001800081B8000081B8000081B8000081B800008B
:1001900081B8000081B8000081B8000081B800007B
:1001A00081B8000081B8000081B8000081B800006B
:1001B00081B8000081B8000081B80000564B4CF2B5
:1001C000205210B51A804DF628121A8000BF00BFC9
:1001D0000BF05AFB514B4FF010621A60504A9A6074
:1001E000504ADA60504A136813F4807304D14F49BF
:1001F0000B604FF4A85313604D4B1A78110703D5C9
:100200001A7842F008021A704A4B4B492A221A7097
:100210004A4A4B4B8B4204D252F8040F43F8040B6A
:10022000F8E7484B484900228B4202D243F8042B9E
:10023000FAE74649464A002352F8230041F82300D2
:1002400001336F2BF8D1434B434A802103F8011B44
:100250009342FBD1414B3D4A1A60414B8A221A70AE
:10026000A3F5805324225A70A0221A709A7992071B
:10027000FCD59A79D406FCD43A4A937903F00C035E
:10028000082B384BF9D103221A7140225A719A79FE
:100290009006FCD5334A9179324B4906FBD5324A58
:1002A000324911600221516020221A709A7902F0BD
:1002B0000C020C2AFAD12E4B2E4A1A602E4B2F4AD2
:1002C0001A6000225A60072243F8042C2C4AC3F813
:1002D0000C2D62B60BF0AEFB144B1B68DA0705D58C
:1002E00028480BF01FFB284B284A1A60284B1B7824
:1002F0005B0609D5244C254B22689A4204D121483B
:100300000BF010FB002323600EF012F80BF0C2FA82
:100310000CF056FDFEE700BF0E2005403080044083
:10032000823F04000100002B10D0034014D0034092
:1003300002D0074000E007406C8CFF1FF41601005C
:100340002087FF1F6C8CFF1FBCABFF1F0082FF1FAD
:100350000000000000E400E05FE400E008ED00E0E1
:100360000050064000400640448004400000030165
:1003700004800440C010050014E000E0FF76010096
:1003800000002020A9C23D5E1CE00340A5C3945A92
:1003900000F00740FFFFFFFFFFFFFFFFFFFFFFFF32
:1003A000FFFFFFFFFFFFFFFFFFFFFFFFFFFFFFFF5D
:1003B000FFFFFFFFFFFFFFFFFFFFFFFFFFFFFFFF4D
:1003C000FFFFFFFFFFFFFFFFFFFFFFFFFFFFFFFF3D
:1003D000FFFFFFFFFFFFFFFFFFFFFFFFFFFFFFFF2D
:1003E000FFFFFFFFFFFFFFFFFFFFFFFFFFFFFFFF1D
:1003F000FFFFFFFFFFFFFFFFFFFFFFFFFFFFFFFF0D
:10040000FFFFFFFFFFFFFFFFFFFFFFFFDEF9FFFF23
:1004100010B5054C237833B9044B13B10448AFF33E
:1004200000800123237010BD6C8CFF1F00000000B2
:10043000F8160100084B10B51BB108490848AFF386
:1004400000800848036803B910BD074B002BFBD0A0
:10045000BDE81040184700BF00000000708CFF1F6F
:10046000F81601006C8CFF1F000000004069704707
:10047000002070474268017B13780B43137070476C
:100480004268017B137823EA01031370704700BFB1
:100490008039091110B44B0044788278C9B2DBB2BC
:1004A000611AD31A21EAE17123EAE3734170837080
:1004B00010BC704770B41D4C83B024680194019D3A
:1004C000FF2898BF00024FF48C74A5EB030304FBD4
:1004D00003F398BF80B200FB03F0C0F30E4000F5B9
:1004E00080404404C0F3CA0303D5C3F5FF63073358
:1004F0009BB21D0A0E4E0F4C765D34F81540C3F3C7
:10050000460506FB054300049BB24ABF5C421CB291
:1005100024B2521AA4F5004492B2A3B202FB0333F0
:1005200001EB134080B203B070BC7047F8A8FF1F06
:10053000F404010064FD000070B41E4C83B0246814
:100540000194019DFF2898BF00024FF48C74A5EB25
:10055000030304FB03F398BF80B200FB03F0C0F376
:100560000E40A0F5804080B24404C0F3CA0303D516
:10057000C3F5FF6307339BB21D0A0F4E0F4C765D28
:1005800034F81540C3F3460506FB054300049BB24F
:100590004ABF5C421CB224B2521AA4F5004492B283
:1005A000A3B202FB033301EB134080B203B070BC73
:1005B000704700BFF8A8FF1FF404010064FD0000AD
:1005C00010B5012104460E200BF0BEF907200121D1
:1005D0000BF0BAF9A06958B10368074A5B68934207
:1005E00007D14268017B137823EA0103137010BD21
:1005F00010BDBDE81040184781040000F0B58BB075
:10060000002305688DF804308DF805308DF806302C
:100610002E68374A8DF8083096428DF809308DF8EB
:100620000A305FD1827C04910446012A01A8059119
:100630008DF81E308DF81F308DF82030039015D0C6
:100640008DF81D308DF81C308DF81B308DF81A3068
:100650008DF819308DF818300023AA698DF82130F3
:100660002046099303A990470BB0F0BD214A1378A7
:10067000013303F0070313F0010F14BF80210021A1
:1006800013709A0744BF41F04001C9B25B0748BFED
:1006900041F0200110310022C9B20DF11B030DF110
:1006A0001E074FF4807EAAB19EFBF2F2D2B2501C1C
:1006B000C0B200FB01152D121870EEB205B1013E5B
:1006C00003F8036C00B11A7001339F4208D0DA7846
:1006D000002AE9D11A7003F8032C01339F42F6D1A6
:1006E0002568B9E70A4602AB01A9B0470BB0F0BDD7
:1006F000BD070000888CFF1FF0B5857C1C785E78F4
:100700009B7889B0012D0191029203928DF81640D9
:100710008DF817608DF8183017D000238DF815303C
:100720008DF814308DF813308DF812308DF81130AB
:100730008DF810300368002203219B698DF8191091
:10074000079201A9984709B0F0BD1B4A13780133FD
:1007500003F0070313F0010F137014BF802200226F
:10076000990744BF42F04002D2B25B0748BF42F053
:1007700020021032D2B20DF113030DF116074FF41F
:10078000807EACB19EFBF4F4E4B2611CC9B201FB03
:1007900002252D121970EEB205B1013E03F8036C6B
:1007A00001B11C700133BB42C4D0DC78002CE9D10C
:1007B0001C7003F8034CF5E7888CFF1FF0B5857CAF
:1007C0001C785E789B7889B0012D0191029203928A
:1007D0008DF816408DF817608DF8183016D000236C
:1007E0008DF815308DF814308DF813308DF81230E7
:1007F0008DF811308DF810300268002392698DF861
:100800001930079301A9904709B0F0BD1B4A13782E
:10081000013303F0070313F0010F137014BF80229C
:100820000022990744BF42F04002D2B25B0748BFA2
:1008300042F020021032D2B20DF113030DF116076F
:100840004FF4807EACB19EFBF4F4E4B2611CC9B2FB
:1008500001FB02252D121970EEB205B1013E03F81D
:10086000036C01B11C700133BB42C5D0DC78002C95
:10087000E9D11C7003F8034CF5E700BF888CFF1F1B
:1008800070B5044608460D460DF0FAFD2368024691
:10089000294620465B68BDE87040184738B50446D5
:1008A00008460D460DF0ECFD2368024629465B68BC
:1008B00020469847054620460CF08AFA284438BD61
:1008C0002DE9F04F0D7805704D784570897881706D
:1008D0001178C17051780171927842711A788271E1
:1008E0005A78C2719B78DDF824A003729AF800B0A0
:1008F00080F809B00DF12C0898E80051DDF8289037
:100900000E9F0F9E109D1199129A159B9AF801B097
:1009100080F80AB09AF802A080F80BA099F800A01D
:1009200080F80CA099F801A080F80DA099F8029029
:1009300080F80E9098F8009080F80F9098F8019049
:1009400080F8109098F8028080F811809CF8008060
:1009500080F812809CF8018080F813809CF802C017
:1009600080F814C09EF800C080F815C09EF801C041
:1009700080F816C09EF802E080F817E097F800E0D3
:1009800080F818E097F801E080F819E0BF788776E2
:100990003778C77677780777B67846772E78867770
:1009A0006E78C677AD7880F820500D7880F82150A9
:1009B0004D7880F82250897880F82310117880F8DB
:1009C0002410517880F82510927880F82620139A08
:1009D000127880F82720139A527880F82820139AEA
:1009E000927880F82920149A127880F82A20149A94
:1009F000527880F82B20149A927880F82C201A785C
:100A000080F82D205A7880F82E209B7880F82F309F
:100A1000BDE8F08F2DE9F04F8BB00027069051F81C
:100A20002730DBB20137FF2BBFB2F8D10B68079735
:100A30004FEA1368C3F3072BC3F307494FF0FF33A3
:100A4000C64600240593884658F8045F0698C5F307
:100A500007274FEA241CC5F30746ECB2F9B2C5F3E9
:100A600007650391E9B204915FFA8CF1029107994D
:100A70000F2908AA4FEA14135FFA86FA0CD80599D1
:100A80008C4507DC0F2905D00131C9B28B42029198
:100A900038BF0B4659B2059109A9009102998DF80A
:100AA00020B08DF821908DF822E08DF824708DF81B
:100AB00025608DF8265009F0E3FEFF2CDDF810E0EC
:100AC000DDF80CB0D146BFD106980BB0BDE8F08F71
:100AD000484B1B78002B00F08B802DE9F04F9BB02A
:100AE00000F5FC730A930023434A0793DFF80C9147
:100AF000099000F2272308920B93002759F827301A
:100B0000DBB20137FF2BBFB2F8D1D9F8003006971E
:100B10004FF0FF32C3F3074A0592C3F3072B4FEAA6
:100B200013680024D64659F8045FC5F307464FEA18
:100B3000241CC5F30727ECB2F1B2C5F30765039196
:100B4000E9B204915FFA8CF1029106990F290CAA7F
:100B50000EA84FEA14135FFA87FA0CD805998C4552
:100B600007DC0F2905D00131C9B28B42029138BF91
:100B70000B4659B205910DA9009102998DF830B03C
:100B80008DF831E08DF832808DF834708DF8356055
:100B90008DF8365009F074FEFF2CD346DDF80CE0DA
:100BA000DDF81080BFD10A9B0EAA934218D0099B92
:100BB0000B9C03F2F71301E0A34211D012F8011BC2
:100BC00013F8010F8842F7D00A4B079A1B780132BD
:100BD0009342079209DD089B53F8049F08938CE722
:100BE000099B9DF81C2083F829221BB0BDE8F08FDB
:100BF000704700BF5087FF1F34030100C00E010083
:100C00002DE9F04F8BB009AA00248B488DF82440C1
:100C100096218DF825408DF8264009F001FE864B7F
:100C2000864983F8C64103F5E470FFF7F3FE824B73
:100C3000834903F5FC70FFF7EDFE7F48FFF748FF9F
:100C4000804B814A18787C4B83F82C02234601E0C4
:100C50001E2B09D012F8011F8142DCB203F10103FF
:100C6000F6D1754B83F82B42784C0027962120460D
:100C700009AA8DF824708DF825708DF8267009F07A
:100C8000CFFD0123724984F8C63151F82730704AEC
:100C9000DBB20137FF2BBFB2F7D1136807974FEADA
:100CA0001368C3F3072BC3F307494FF0FF33C6465E
:100CB00006930024904658F8045F6648C5F307275A
:100CC000C5F30746F9B24FEA241C0491F1B205912D
:100CD0005FFA8CF103910799ECB20F29C5F3076510
:100CE00008AA4FEA14135FFA85FA0CD806998C45C6
:100CF00007DC0F2905D00131C9B28B42039138BFFF
:100D00000B4659B2069109A9009103998DF820B0BC
:100D10008DF821908DF822E08DF824708DF82560F3
:100D20008DF8265009F0ACFDFF2CDDF810B0DDF891
:100D30001490D646BFD14849002751F82730464A7B
:100D4000DBB20137FF2BBFB2F7D1136807974FEA29
:100D50001368C3F3072BC3F307494FF0FF33C646AD
:100D600006930024904658F8045F384BC5F30727D4
:100D7000C5F30746F9B24FEA241C0491F1B205917C
:100D80005FFA8CF103910799ECB20F29C5F307655F
:100D900003F5FC7008AA4FEA14135FFA85FA0CD821
:100DA00006998C4507DC0F2905D00131C9B28B4269
:100DB000039138BF0B4659B2069109A900910399D6
:100DC0008DF820B08DF821908DF822E08DF82470F8
:100DD0008DF825608DF8265009F052FDFF2CDDF8C6
:100DE00010B0DDF81490D646BDD1184A124B1B4CFA
:100DF00093F82B3282F82B321046FFF769FE00235E
:100E000009AA204696218DF824308DF825308DF8DA
:100E1000263009F005FD022304F5E470104984F83A
:100E2000C631FFF7F7FD04F5FC700D49FFF7F2FD41
:100E30000BB0BDE8F08F00BF749EFF1FFC120100D5
:100E4000980901004987FF1F2387FF1FB08CFF1FF0
:100E50009C100100788EFF1FF40201000C96FF1F0A
:100E60005C11010010B5122182B02E482E4C0BF0FF
:100E7000ABFD2E4B204619780BF0FAFF20460BF005
:100E8000A7FF11212A480BF09FFD2A4B2046197815
:100E90000BF0EEFF20460BF09BFF152126480BF0D0
:100EA00093FD264B204619780BF0E2FF20460BF00D
:100EB0008FFF142122480BF087FD224B2046198812
:100EC0000BF0D6FF20460BF083FF0F211E480BF0DE
:100ED0007BFD1E4B204619880BF0CAFF02211C48DF
:100EE0000BF072FD1B4B0A221978204600230BF0F1
:100EF0007FFF012118480BF067FD20460BF068FFCB
:100F00000E2116480BF060FD154B1B6801930199EB
:100F100000230A2220460BF06BFF20460BF058FFFF
:100F200002B010BDB4E600008C87FF1F8387FF1F4F
:100F3000C8E600004A87FF1FDCE600002287FF1F8B
:100F4000F4E60000AC8CFF1F0CE700000896FF1FC2
:100F50001CE700006195FF1F20E7000024E7000068
:100F6000F8A8FF1F1E491F480B8803EB432203EB21
:100F7000820303F5585319339BB203EB432203EB6F
:100F8000820202F5585203EB13231932DBB292B2FC
:100F900003EB4303F0B41B1202EB1227124E134D66
:100FA000F35C134C0A80FFB207EB870701223F1264
:100FB000033793422F70237002700CD006D3022B9C
:100FC00002D10C4B00221A70F0BC70470A4B002271
:100FD0001A70F0BC7047074B4A221A70F0BC704779
:100FE0008487FF1F0495FF1F5487FF1F5D9EFF1F0F
:100FF0001895FF1F4095FF1FAE8CFF1FF0B5EC4CFE
:10100000EC4883B0002301AA962123708DF80430A8
:101010008DF805308DF8063009F002FCE64BE74A02
:1010200003F5E17512F8034C12F8020C12F8011CDA
:1010300003F8034C03F8020C03F8011C03339D4230
:1010400002F10302EED1DE4CDA4E94F8C23186F89A
:10105000C23104F5E4770FCF06F5E4750FC50FCF65
:101060000FC597E80F0094F8C3E194F8C47186F8AF
:10107000C3E186F8C47194F8C5E194F8C67186F8A6
:10108000C5E186F8C67194F8C7E186F8C7E104F5B2
:10109000FC7785E80F000FCF06F5FC750FC50FCF65
:1010A0000FC597E80F0094F829E294F828C294F845
:1010B0002A7285E80F0086F829E286F828C286F8A9
:1010C0002A7294F82B2294F82C3294F82DE294F89A
:1010D0002E7294F82F5294F8300294F8311286F858
:1010E0002B2286F82C3294F8322294F8333286F888
:1010F0002DE286F82E7294F834E294F8357286F870
:101100002F5286F8300294F8365294F8370286F857
:10111000311286F8322294F8381294F8392286F87F
:10112000333294F83A3286F8357286F8392286F8E6
:101130003A3286F834E286F8365286F8370286F874
:10114000381206F23E2304F23E2206F27A2712F803
:10115000035C12F8020C12F8011C03F8035C03F89C
:10116000020C03F8011C03339F4202F10302EED18B
:1011700094F8772294F8780294F8791286F8772216
:1011800094F87A228F4B86F8780286F8791294F8D0
:101190007B0294F87C1286F87A2294F87D2286F8F5
:1011A0007B0286F87C1294F87E0294F87F1286F80F
:1011B0007D22854A86F87E0286F87F1203F14B0075
:1011C00012F8011F03F8011B8342F9D17F4903F193
:1011D0004B0011F8012F03F8012B8342754AF8D117
:1011E00094F8163394F8176394F8185394F8190385
:1011F00094F81A1382F8163394F81B3382F81763A5
:1012000082F81853B4F81C63B4F81E5382F819031B
:1012100082F81A13B4F8200394F8221382F81B33CF
:1012200094F82333A2F81C63A2F81E5394F82463A5
:1012300094F82553A2F8200382F8221394F8260389
:1012400094F8271382F82333B4F8283382F8246300
:1012500082F8255382F8260382F82713A2F8283350
:10126000B4F82A33A2F82A33B4F82C63B4F82E5316
:10127000B4F83003B4F83213B4F83433A2F82C6362
:10128000A2F82E53B4F83663B4F83853A2F83003FA
:10129000A2F83213B4F83A03B4F83C13A2F834338A
:1012A00094F83E33A2F83663A2F8385394F83F63BB
:1012B00094F84053A2F83A03A2F83C1394F841037F
:1012C00094F8421382F83E3394F8433382F83F6334
:1012D00082F8405382F8410382F8421382F8433384
:1012E00094F8443382F8443394F8456394F84653B1
:1012F00094F8470394F8481394F8493382F8456307
:1013000082F8465394F84A6394F84B5382F84703A3
:1013100082F8481394F84C0394F84D1382F849333B
:1013200094F84E3382F84A6382F84B5382F84C03A8
:1013300094F8505394F8510382F84D1382F84E33C9
:1013400094F8521394F8533394F84F6382F850533F
:1013500082F8510382F8521382F8533382F84F63B4
:101360001B4994F8546394F85D33D4F8585394F8B7
:101370005C0382F85D3382F85463C2F8585382F8F4
:101380005C0302F5587302F58A6251F8040F43F8C2
:10139000040B9342F9D10F4A03F1F00052F8041FF5
:1013A00043F8041B8342F9D10B4A03F13C0015E0DA
:1013B0000495FF1F749EFF1F779EFF1FB38CFF1FB6
:1013C000B08CFF1FF4A0FF1F2F8FFF1F7A8FFF1F0E
:1013D0000C90FF1FFC90FF1FEF91FF1F12F8011FE1
:1013E00003F8011B8342F9D1624A03F1F00052F87D
:1013F000041F43F8041B8342F9D15F4A03F1F00054
:1014000052F8041F43F8041B83425C49F8D194F856
:101410005C3794F85D2794F85E67B4F86057B4F8C9
:10142000620781F85C3781F85D27B4F8643794F877
:10143000662781F85E67A1F86057A1F86207A1F8F6
:10144000643781F8662794F86A3794F8676794F8E8
:10145000685794F869074A4A81F86A3781F86767DC
:1014600081F8685781F8690701F26C7301F28C7199
:1014700052F8040F43F8040B8B42F9D1414A03F1AF
:10148000200052F8041F43F8041B8342F9D13E4A5E
:1014900003F1200052F8041F43F8041B8342F9D1E2
:1014A0003A4A03F1200052F8041F43F8041B834218
:1014B000F9D1374A03F1200052F8041F43F8041B06
:1014C0008342F9D1334A03F1200052F8041F43F854
:1014D000041B8342294DF8D1B4F82C38B4F83028D5
:1014E000D4F83418D4F8380894F82E68A5F82C38B5
:1014F000A5F8302894F83C3894F83E28C5F83418FC
:10150000C5F8380894F83F1894F8400894F83D78E6
:1015100085F82E6885F83C3894F8416894F842388C
:1015200085F83E28002485F83F1885F8400801AA70
:101530009621194885F8423885F83D7885F8416844
:101540008DF804408DF805408DF8064009F068F9E3
:10155000124B85F8C6411B7853B901AA9621104851
:101560008DF804308DF805308DF8063009F058F903
:1015700003B0F0BD2892FF1F1893FF1F749EFF1F3A
:101580001894FF1F3894FF1F5894FF1F7894FF1F73
:101590009894FF1FB894FF1FB08CFF1F0696FF1F83
:1015A0000C96FF1F2DE9F0432F4D304E304C314F3C
:1015B00085B005F5E178324629463B78DFF8B490EE
:1015C00003A8033509F01EFA9DF80C109DF80D20B4
:1015D0009DF80E30217045456270A37006F1030638
:1015E00004F10304E7D1244E3368DB071FD5234DF4
:1015F000234C2B68039394E80600039B5B1A9342E9
:101600000CD33B782A6802920133029A2260DBB243
:101610003B70FF2B06D005B0BDE8F08399F8003091
:10162000FF2BF8D1FFF7EAFC05B0BDE8F0833046A8
:101630000AF032F9114D50B9114C2B68039394E81C
:101640000600039B5B1A9342DBD23B78E1E70D4B2C
:101650002A681B780A4C0192019A22609B0030464E
:1016600063600AF01FF9E8E7749EFF1FB08CFF1F4C
:10167000B8A6FF1FAE8CFF1FF895FF1FF8A8FF1F2D
:101680000895FF1F5D9EFF1F2DE9F04F944E96F8C1
:1016900000C01FFA8CF385B0002B00F01E8103F10F
:1016A000FF3B1FFA8BFB8F488F490BF1010B0BEBB4
:1016B0004B0B834402460D460C46177892F801A066
:1016C00092F802902770033290F8BF8190F8C0E141
:1016D00090F8C17184F801A05A4584F80290A0F1F5
:1016E000030081F8BF8181F8C0E181F8C17104F184
:1016F0000304A1F10301E0D14A2B27D87B48C3F1B1
:10170000950203EB430102EB420200EB010800EB00
:10171000020E01336F1810F801B005F801B0AC18D3
:101720009BB298F801A098F802909EF801B010F8CA
:1017300002809EF8021087F801A04B2B87F80290D8
:1017400005F8028084F801B0A170D8D10CF1FF3AFD
:101750000AEB4A0A802405EB0A0B5946234603A8E4
:1017600002AA00278DF809408DF80A408DF808700C
:1017700009F048F996F800809DF80C309DF80D208E
:101780009DF80E0005F80A30C8F1960808EB4808E5
:1017900005EB0809494623468BF801208BF8020027
:1017A00002AA03A88DF808708DF809408DF80A4048
:1017B00009F028F932789DF80C1005F80810C2F1EC
:1017C00095019DF80D0089F8010002EB420C01EB38
:1017D00041019DF80E3089F8023005EB0C0E6818B7
:1017E000FF234A2A05F80C30DFF8FC808EF8013020
:1017F0008EF80230DFF8E8906B54437083702ED877
:101800003B4F3B68DB0717D53A4D3B4C2B680393A6
:1018100094E80600039B5B1A9342337806D32A6848
:101820000292013B029A2260DBB233700BB9FFF7E0
:10183000E5FB05B0BDE8F08F38460AF02DF82D4DD8
:101840000028E2D02D4B2A681B782B4C0192019A7C
:1018500022609B00384663600AF024F8D6E7551CE6
:1018600005EB450508EB050A5146234602AA03A8E5
:101870008DF808708DF809408DF80A4009F0C2F81B
:1018800099F800308DF80870C3F1940707EB47070B
:1018900008EB07099DF80CC09DF80DE09DF80EB00F
:1018A00008F805C002AA2346494603A88AF801E0C1
:1018B0008AF802B08DF809408DF80A4009F0A2F8C4
:1018C0009DF80C109DF80D209DF80E3008F80710BB
:1018D00089F8012089F8023092E7034D0EE700BF36
:1018E0004095FF1F749EFF1FB8A6FF1FB08CFF1FFF
:1018F000FC95FF1FF8A8FF1F1C95FF1F5D9EFF1F93
:101900002DE9F04FA24B1D78ABB285B0002B00F053
:10191000308103F1FF3B1FFA8BFB9E489E490BF180
:10192000010B0BEB4B0B834402460C460E4692F820
:1019300000E092F801A092F8029086F800E00332ED
:1019400090F8BF8190F8C0C190F8C1E186F801A07D
:101950005A4586F80290A0F1030081F8BF8181F812
:10196000C0C181F8C1E106F10306A1F10301DED196
:101970004A2B28D88948C3F1950203EB430102EBB7
:10198000420200EB010800EB020C013304EB010EF4
:1019900010F801B004F801B0A6189BB298F801A0A5
:1019A00098F802909CF801B010F802809CF80210A0
:1019B0008EF801A04B2B8EF8029004F8028086F876
:1019C00001B0B170D7D1002D40F08F800DF10C0A1D
:1019D0000DF1080B6E4B1B78C3F1950000EB400036
:1019E0005A1C03EB430304EB030E251802EB4202DF
:1019F000802604EB02091746FF22E2544FF000084C
:101A00008EF801208EF802203346225449466A702F
:101A1000AA7050465A468DF809608DF80A608DF814
:101A2000088008F0EFFF5A4B9DF80C101D789DF8C8
:101A30000DE08DF80880C5F1940505EB450504EB34
:101A4000050833468DF809608DF80A609DF80E6030
:101A5000E1555A465046414689F801E089F802604E
:101A600008F0D0FF4E4B9DF80C001B689DF80D1040
:101A70009DF80E206055DB07454888F8011088F86E
:101A8000022020D5474D484C2B68039394E806006C
:101A9000039B5B1A93420ED33D4B2A681B7802923C
:101AA000029A226001333A4ADBB213704A2B05D006
:101AB00005B0BDE8F08F03784A2BF9D1FFF79EFA05
:101AC00005B0BDE8F08F3648364D09F0E5FE002838
:101AD00051D1354C2B68039394E80600039B5B1AA5
:101AE0009342D9D22A4B1B78E0E7013D05EB45052F
:101AF000802604EB05090DF10C0A0DF1080B4FF0DF
:101B000000084946334650465A468DF808808DF8FD
:101B100009608DF80A6008F075FF1D4B9DF80C20D8
:101B20001B789DF80DC09DF80EE08DF80880C3F17C
:101B3000960303EB430304EB030862551F4641463B
:101B400033465A46504689F801C089F802E08DF8BC
:101B500009608DF80A6008F055FF9DF80C109DF89B
:101B60000D209DF80E30E15588F8012088F80230EC
:101B700030E7094CFEE60D4B2A681B780A4C0192AF
:101B8000019A22609B000648636009F08BFEA1E782
:101B90004095FF1FB08CFF1FB8A6FF1F749EFF1F4C
:101BA0000096FF1FF8A8FF1F609EFF1F5D9EFF1F8E
:101BB000012806D003D3022801D1FFF7A1BEFFF709
:101BC000F1BCFFF761BD00BF10B510210446944879
:101BD0000AF0FAFE214600230A2292480BF008F987
:101BE000022191480AF0F0FE5C2C00F28182DFE8CD
:101BF00014F07A02750270026B02660261025C02E6
:101C0000570252024D02480243023E023902340298
:101C10002F022A02250220021B02160211020C02C8
:101C200007020202FD01F801F301EE01E901E401FE
:101C3000DF01DA01D501D001CB01C601C101BC0130
:101C4000B701B201AD01A801A3019E019901940160
:101C50008F018A01850180017B01760171016C0190
:101C6000670111010C0107010201FD00F800F300FA
:101C7000EE00E900E400DF00DA00D500D000CB0080
:101C8000C600C100BC00B700B200AD00A800A300B0
:101C90009E00990094008F008A00850080007B00E0
:101CA000760071006C00670062005D005F495D486E
:101CB000FEF7F4FD10BD5E495A48FEF7EFFD10BD7A
:101CC0005C495848FEF7EAFD10BD5B495548FEF7F0
:101CD000E5FD10BD59495348FEF7E0FD10BD5849D8
:101CE0005048FEF7DBFD10BD56494E48FEF7D6FDC5
:101CF00010BD55494B48FEF7D1FD10BD5349494829
:101D0000FEF7CCFD10BD52494648FEF7C7FD10BD99
:101D100050494448FEF7C2FD10BD4F494148FEF707
:101D2000BDFD10BD4D493F48FEF7B8FD10BD4C4903
:101D30003C48FEF7B3FD10BD4A493A48FEF7AEFDF8
:101D400010BD49493748FEF7A9FD10BD4749354840
:101D5000FEF7A4FD10BD46493248FEF79FFD10BDB9
:101D600044493048FEF79AFD10BD43492D48FEF71F
:101D700095FD10BD41492B48FEF790FD10BD40492F
:101D80002848FEF78BFD10BD3E492648FEF786FD2C
:101D900010BD3D492348FEF781FD10BD3B49214858
:101DA000FEF77CFD10BD3A491E48FEF777FD10BDD9
:101DB00038491C48FEF772FD10BD37491948FEF737
:101DC0006DFD10BD35491748FEF768FD10BD34495B
:101DD0001448FEF763FD10BD32491248FEF75EFD60
:101DE00010BD31490F48FEF759FD10BD2F490D4870
:101DF000FEF754FD10BD2E490A48FEF74FFD10BDF9
:101E00002C490848FEF74AFD10BD2B490548FEF74E
:101E100045FD10BD29490348FEF740FD10BD00BF38
:101E200034E700008C87FF1F48E70000DCEC00006F
:101E3000D0EC0000C0EC0000B0EC00009CEC000016
:101E400084EC00006CEC00005CEC000044EC000052
:101E500038EC00002CEC000014EC000008EC000052
:101E6000FCEB0000F0EB0000E4EB0000D4EB000022
:101E7000C8EB0000B4EB0000A8EB000098EB0000FA
:101E80008CEB000080EB000078EB000064EB0000BE
:101E900054EB000040EB000034EB000028EB0000A6
:101EA0001CEB00000CEB0000F8EA0000ECEA00007C
:101EB000DCEA0000D0EA0000C0EA0000B4EA00005A
:101EC0008E498F48FEF7EAFC10BD8E498C48FEF71C
:101ED000E5FC10BD8C498A48FEF7E0FC10BD8B493B
:101EE0008748FEF7DBFC10BD89498548FEF7D6FC24
:101EF00010BD88498248FEF7D1FC10BD8649804854
:101F0000FEF7CCFC10BD85497D48FEF7C7FC10BD2F
:101F100083497B48FEF7C2FC10BD82497848FEF732
:101F2000BDFC10BD80497648FEF7B8FC10BD7F4966
:101F30007348FEF7B3FC10BD7D497148FEF7AEFC57
:101F400010BD7C496E48FEF7A9FC10BD7A496C486B
:101F5000FEF7A4FC10BD79496948FEF79FFC10BD4F
:101F600077496748FEF79AFC10BD76496448FEF74A
:101F700095FC10BD74496248FEF790FC10BD734992
:101F80005F48FEF78BFC10BD71495D48FEF786FC8B
:101F900010BD70495A48FEF781FC10BD6E49584883
:101FA000FEF77CFC10BD6D495548FEF777FC10BD6F
:101FB0006B495348FEF772FC10BD6A495048FEF762
:101FC0006DFC10BD68494E48FEF768FC10BD6749BE
:101FD0004B48FEF763FC10BD65494948FEF75EFCBF
:101FE00010BD64494648FEF759FC10BD624944489B
:101FF000FEF754FC10BD61494148FEF74FFC10BD8F
:102000005F493F48FEF74AFC10BD5E493C48FEF779
:1020100045FC10BD5C493A48FEF740FC10BD5B49E9
:102020003748FEF73BFC10BD59493548FEF736FCF2
:1020300010BD58493248FEF731FC10BD56493048B2
:10204000FEF72CFC10BD55492D48FEF727FC10BDAE
:1020500053492B48FEF722FC10BD52492848FEF791
:102060001DFC10BD50492648FEF718FC10BD4F4915
:102070002348FEF713FC10BD4D492148FEF70EFC26
:1020800010BD4C491E48FEF709FC10BD4A491C48CA
:10209000FEF704FC10BD49491948FEF7FFFB10BDCF
:1020A00047491748FEF7FAFB10BD46491448FEF7AA
:1020B000F5FB10BD44491248FEF7F0FB10BD434943
:1020C0000F48FEF7EBFB10BD41490D48FEF7E6FB5C
:1020D00010BD40490A48FEF7E1FB10BD3E490848E3
:1020E000FEF7DCFB10BD3D490548FEF7D7FB10BDF0
:1020F0003B490348FEF7D2FB10BD00BFA0EA000039
:102100008C87FF1F90EA000084EA000078EA000054
:102110006CEA000058EA00004CEA000040EA0000C7
:1021200034EA00001CEA000014EA0000ACEA0000F7
:1021300008EA0000FCE90000E8E90000D4E900003A
:10214000C4E90000B8E90000ACE90000A0E9000023
:1021500094E9000088E900007CE9000070E90000D3
:1021600064E9000058E900004CE9000040E9000083
:1021700030E900001CE9000000E90000E8E8000088
:10218000CCE80000BCE80000ACE8000098E80000E3
:1021900088E8000080E8000078E8000060E80000BF
:1021A00050E8000048E8000038E8000028E8000097
:1021B00018E8000004E80000F0E70000DCE7000099
:1021C000C4E70000ACE700009CE7000088E70000DF
:1021D00074E7000064E7000058E700004CE70000E7
:1021E000F4EC000038B50021044684480AF0ECFB0A
:1021F00083480AF0EDFD222182480AF0E5FB804881
:102200000AF0E6FD94F8C631002B00F0A080012B07
:1022100000F07285022B00F0758513217A480AF0D0
:10222000D3FB7A4B764819780A2200230AF0E0FDA6
:10223000032177480AF0C8FB71480AF0C9FD132151
:1022400074480AF0C1FB00230A2294F8C3116C48B9
:102250000AF0CEFD03216E480AF0B6FB68480AF08A
:10226000B7FD11216C480AF0AFFB94F8C511644822
:102270000AF0FEFD032166480AF0A6FB60480AF05A
:10228000A7FD142165480AF09FFB00230A2294F859
:102290002B125B480AF0ACFD03215D480AF094FB69
:1022A00057480AF095FD15215D480AF08DFB94F81A
:1022B0002E1253480AF0DCFD032155480AF084FB36
:1022C0004F480AF085FD112156480AF07DFB94F82D
:1022D0002A124B480AF0CCFD03214D480AF074FB4A
:1022E00047480AF075FD94F82A325BBB2221454825
:1022F0000AF06AFB42480AF06BFD94F82D321D2B60
:1023000000F2EC84DFE813F0A000EA04EA04EA0437
:10231000EA04EA041301EA04EA04EA044C01EA04C8
:10232000EA04EA04EA04EA045A0188016501670143
:102330008A014802F6025203D203EA041104670438
:102340009104280094F82902FFF73EFCCEE73649B5
:102350002B48FEF7A3FA60E734492948FEF79EFAB6
:1023600033492748FEF78CFA94F8C41124480AF040
:102370007FFD27492248FEF791FA2E492048FEF7B3
:102380007FFA00230A2294F83F181D480AF030FD16
:102390001F491B48FEF782FA27491948FEF770FAD1
:1023A00000230A2294F8401815480AF021FD184924
:1023B0001348FEF773FA21491148FEF761FA94F8C1
:1023C00041180F480AF054FD11490D48FEF766FA0E
:1023D0001B490B48FEF754FA94F8421808480AF0D3
:1023E00047FD0B490648FEF759FA232115480AF024
:1023F000EBFA0348BDE838400AF0EABCA4EE00005E
:102400008C87FF1F0CED00009CED00002387FF1F51
:10241000B0ED0000B4ED0000C8ED0000DCED000000
:10242000F4ED00000CEE000030ED0000E4F60000DA
:1024300068EE000008F7000020F700003CF70000FD
:1024400058F7000094F7000094F82C32B448042B9D
:102450000CBFB449B449FEF721FAB449B048FEF7BD
:102460000FFA94F8C411AE480AF002FDB049AC4826
:10247000FEF714FAAF49AA48FEF702FA94F83512AB
:10248000A7480AF0F5FCAA49A548FEF707FAAA49A9
:10249000A348FEF7F5F994F83612A1480AF0E8FCD3
:1024A000A3499F48FEF7FAF9A4499D48FEF7E8F9C9
:1024B00000230A2294F8301299480AF099FC9C49AA
:1024C0009748FEF7EBF99E499548FEF7D9F90023A6
:1024D0000A2294F8311292480AF08AFC94499048F2
:1024E000FEF7DCF997498E48FEF7CAF900230A2265
:1024F00094F832128A480AF07BFC8D498848FEF72E
:10250000CDF991498648FEF7BBF900230A2294F8D9
:10251000331283480AF06CFC85498148FEF7BEF906
:102520008A497F48FEF7ACF994F8341256E794F8DC
:102530007B32002B00F0748485497948FEF7AEF9B0
:102540007A497748FEF79CF994F8C41174480AF068
:102550008FFC77497248FEF7A1F97E497048FEF773
:102560008FF994F87B126E480AF082FC70496C482F
:10257000FEF794F978496A48FEF782F900230A22A7
:1025800094F8791266480AF033FC69496448FEF70A
:1025900085F972496248FEF773F994F8781231E0D0
:1025A00094F82C320A3B052B00F2B683DFE813F0D7
:1025B0007B04B003760471046C04670468495848CE
:1025C000FEF76CF959495648FEF75AF994F8C411C8
:1025D00004E76449F3E764495148FEF75FF953495A
:1025E0004F48FEF74DF994F8C4114D480AF040FCED
:1025F0004F494B48FEF752F95C494948FEF740F90C
:1026000094F83E13464800230A220AF0F1FB484999
:102610004348FEF743F9E8E65549D0E755494048B5
:10262000FEF73CF941493E48FEF72AF994F8C411F7
:102630003B480AF01DFC3E493948FEF72FF94E4948
:102640003748FEF71DF900230A2294F83F13344857
:102650000AF0CEFB36493248FEF720F947493048A8
:10266000FEF70EF900230A2294F840132C480AF0D2
:10267000BFFB2F492A48FEF711F941492848FEF7C8
:10268000FFF800230A2294F8411325480AF0B0FB12
:1026900027492348FEF702F93A492148FEF7F0F8A6
:1026A00000230A2294F842131D480AF0A1FB204996
:1026B0001B48FEF7F3F834491948FEF7E1F8002308
:1026C0000A2294F8461316480AF092FB1849144857
:1026D000FEF7E4F82D491248FEF7D2F800230A224B
:1026E00094F843130E480AF083FB11490C48FEF797
:1026F000D5F827490A48FEF7C3F800230A2294F8C0
:102700004F1307480AF074FB09490548FEF7C6F85D
:1027100020490348FEF7B4F894F8501372E700BF5D
:102720008C87FF1F20EE000044EE000068EE0000E2
:10273000B0ED000080EE000094EE0000A8EE000076
:10274000BCEE0000CCEE0000DCEE0000ECEE000081
:1027500028EF00004CEF00005CEF00006CEF000081
:10276000C8F0000010F1000034F1000058F1000042
:10277000ECF0000040F2000064F2000078F200008B
:102780008CF20000A0F20000B4F20000C8F20000D9
:10279000DCF20000F0F20000A749A848FEF77EF83E
:1027A000A749A648FEF76CF894F8C411A3480AF0AC
:1027B0005FFBA449A148FEF771F8A3499F48FEF7C3
:1027C0005FF800230A2294F847139C480AF010FB94
:1027D0009C499A48FEF762F89C499848FEF750F8E1
:1027E00000230A2294F84D1394480AF001FB9549FE
:1027F0009248FEF753F896499048FEF741F80023B7
:102800000A2294F840138D480AF0F2FA8D498B4859
:10281000FEF744F88F498948FEF732F800230A2270
:1028200094F8491385480AF0E3FA86498348FEF78D
:1028300035F889498148FEF723F800230A2294F8E5
:1028400042137E480AF0D4FA7E497C48FEF726F807
:1028500082497A48FEF714F800230A2294F84A13B2
:1028600076480AF0C5FA77497448FEF717F87C49AC
:102870007248FEF705F800230A2294F841136F48C6
:102880000AF0B6FA6F496D48FEF708F875496B48CB
:10289000FDF7F6FF00230A2294F84B1367480AF06D
:1028A000A7FA68496548FDF7F9FF6F496348FDF7E6
:1028B000E7FF00230A2294F8461360480AF098FACA
:1028C00060495E48FDF7EAFF68495C48FDF7D8FFBC
:1028D00000230A2294F84C1358480AF089FA5949FF
:1028E0005648FDF7DBFF62495448FDF7C9FF94F8ED
:1028F000431387E65F495148FDF7D0FF5E494F48D3
:10290000FDF7BEFF94F85433012B00F0AE82C0F007
:10291000D482022B07D159494848FDF7B1FF4949F4
:102920004648FDF7BBFF56494448FDF7A9FF002381
:102930000A2294F8511341480AF05AFA41493F4893
:10294000FDF7ACFF4F493D48FDF79AFF00230A22EF
:1029500094F85D1339480AF04BFA3A493748FDF7C5
:102960009DFF49493548FDF78BFF00230A2294F863
:102970005C1732480AF03CFA32493048FDF78EFFC6
:1029800042492E48FDF77CFF00230A22D4F8581351
:102990002A480AF02DFA2B492848FDF77FFF3C49C9
:1029A0002648FDF76DFF94F8C71117E5394923480C
:1029B000FDF774FF38492148FDF762FFB4F83C1376
:1029C0001E480AF055FA1F491C48FDF767FF3349B6
:1029D0001A48FDF755FF00230A2294F85E1717489E
:1029E0000AF006FA17491548FDF758FF2C49134815
:1029F000FDF746FF00230A2294F832120F480AF02E
:102A0000F7F910490D48FDF749FF26490B48FDF736
:102A100037FF00230A2294F8311208480AF0E8F937
:102A200008490648FDF73AFF1F490448FDF728FF0B
:102A300094F83312E6E500BF04F300008C87FF1F13
:102A400068EE0000B0ED000028F300003CF3000049
:102A500050F3000064F3000078F300008CF30000F2
:102A6000A0F30000B4F30000C8F30000DCF30000A2
:102A7000F0F3000070F1000094F10000A8F10000F4
:102A8000C4F10000DCF10000F4F100000CF20000E1
:102A900028F2000004F4000028F4000040F40000D4
:102AA00054F400006CF4000084F40000B849B94804
:102AB000FDF7F4FEB849B748FDF7E2FE94F8C411FB
:102AC000B4480AF0D5F9B549B248FDF7E7FEB44974
:102AD000B048FDF7D5FEB4F86017AE480AF0C8F963
:102AE000AE49AC48FDF7DAFEAE49AA48FDF7C8FE8C
:102AF000B4F86217A7480AF0BBF9A849A548FDF742
:102B0000CDFEA949A348FDF7BBFEB4F86417A14860
:102B10000AF0AEF9A1499F48FDF7C0FEA3499D48C0
:102B2000FDF7AEFE94F867176CE5A1499948FDF7EB
:102B3000B5FEA0499748FDF7A3FE00230A2294F8AA
:102B4000321294480AF054F994499248FDF7A6FECF
:102B500099499048FDF794FE00230A2294F83A120E
:102B60008C480AF045F98D498A48FDF797FE93494C
:102B70008848FDF785FE00230A2294F83112854823
:102B80000AF036F985498348FDF788FE8C4981486B
:102B9000FDF776FE00230A2294F879127D480AF0A8
:102BA00027F97E497B48FDF779FE86497948FDF78C
:102BB00067FE00230A2294F8381276480AF018F9C2
:102BC00076497448FDF76AFE7F497248FDF758FE62
:102BD00094F8771202E47D496E48FDF75FFE7C4968
:102BE0006C48FDF74DFE00230A2294F869176948E6
:102BF0000AF0FEF869496748FDF750FE75496548D7
:102C0000FDF73EFE00230A2294F86A1761480AF095
:102C1000EFF862495F48FDF741FE6F495D48FDF7F7
:102C20002FFE94F82A12FFF7D9BB6C495948FDF7DB
:102C300035FE6B495748FDF723FE94F82A12554894
:102C40000AF016F955495348FDF728FE65495148E1
:102C5000FDF716FE00230A2294F82E184D480AF0BC
:102C6000C7F84E494B48FDF719FE5F494948FDF743
:102C700007FE00230A2294F83D1846480AF0B8F8E7
:102C800046494448FDF70AFE58494248FDF7F8FD19
:102C9000B4F830183F480AF0EBF840493D48FDF7DA
:102CA000FDFD53493B48FDF7EBFD94F83E38012B01
:102CB00000F0E080C0F0FC80022B03D14D49354884
:102CC000FDF7DEFD35493348FDF7E8FD4A49314857
:102CD000FDF7D6FDB4F82C18FFF780BB47492D4807
:102CE000FDF7DCFD46492B48FDF7D8FD434929484F
:102CF000FDF7D4FDFFF779BB42492648FDF7CEFD2D
:102D0000FFF78BBA40492348FDF7C8FDFFF785BAA6
:102D10003E492048FDF7C2FD3D491E48FDF7B0FD84
:102D200000230A2294F87C121A480AF061F81B4921
:102D30001848FDF7B3FD37491648FDF7A1FD0023FC
:102D40000A2294F87E1213480AF052F813491148E7
:102D5000FDF7A4FD94F81853002D67D02E490D48B7
:102D6000FDF78EFD94F818130A480AF081F80B4914
:102D70000848FDF793FD94F82C320E3B012B3FF6EB
:102D800034AB26490348FDF77BFD94F81B1339E467
:102D90009CF400008C87FF1F68EE0000B0ED00007F
:102DA000C0F40000D8F40000F0F4000004F50000C6
:102DB00018F500003CF5000054F500006CF500002B
:102DC00084F500009CF50000B0F50000C8F5000097
:102DD000ECF50000FCF5000018F6000030F60000ED
:102DE00054F600006CF6000084F600009CF600002B
:102DF000B0F60000C4F60000D4F60000A4EE000017
:102E000070F7000054ED000078ED0000E8EF0000DE
:102E100054F0000068F00000A4F00000B4F00000DE
:102E200027492848FDF73AFDFFF78ABB2649254880
:102E3000FDF726FD2B460A2294F87D12214809F061
:102E4000D7FF22491F48FDF729FD21491D48FDF7FD
:102E500017FD94F87F121B482B460A2209F0C8FF81
:102E60001A491848FDF71AFD78E71A491548FDF781
:102E700015FD58E518491348FDF702FD22E71749EB
:102E80001048FDF70BFD47E715490E48FDF706FD15
:102E900042E714490B48FDF701FD3DE71249094897
:102EA000FDF7FCFC38E711490648FDF7F7FC33E76E
:102EB0000F490448FDF7E4FC04E70E492CE500BF88
:102EC00004EF00008C87FF1F7CF00000B0ED0000D5
:102ED00090F00000B8F10000CCF60000A0EF000078
:102EE0007CEF000030F000000CF00000C4EF0000A8
:102EF000B4F10000B0F100002DE9F04F8DB03421A5
:102F0000054609904648474C09F05EFD464809F0E1
:102F10005FFF3321454809F057FD434809F058FF4A
:102F20003321434809F050FD3F4809F051FF414823
:102F3000414A0388117803EB432203EB820303F534
:102F4000585319339BB203EB1322D2B212FB01F296
:102F50001212038054F8228085F82922002758F89D
:102F60002730DBB20137FF2BBFB2F8D1D8F80030E1
:102F7000099A08974FEA136902F5FC72C3F3072B0D
:102F8000C3F3074A4FF0FF33079206930024CE465F
:102F900058F8045F0798C5F307274FEA241CC5F3C8
:102FA0000746ECB2F9B2C5F307650491E9B20591A1
:102FB0005FFA8CF1039108990F290AAA4FEA1413BA
:102FC0005FFA86F90CD806998C4507DC0F2905D0E5
:102FD0000131C9B28B42039138BF0B4659B20691F9
:102FE0000BA9009103998DF828B08DF829A08DF8D0
:102FF0002AE08DF82C708DF82D608DF82E5007F09A
:103000003FFCFF2CDDF810B0DDF814E0CA46BFD15C
:10301000099B93F82902FEF7D7FD0DB0BDE8F08FAC
:10302000B8F70000340301008C87FF1FF0F70000A1
:1030300024F800008487FF1F5087FF1F244B254A78
:103040001B7800211170072B09D8DFE803F0131C4F
:10305000252E34043A0A204B1B8880F83232FFF7C1
:10306000C1B81D4B1B88003318BF012380F83432D0
:10307000FFF7B8B8184B1B88003318BF012380F83E
:10308000C431FFF7AFB8144B1B88003318BF0123BE
:1030900080F83532FFF7A6B80F4B1B88003318BFF6
:1030A000012380F83632FFF79DB80B4B1B8880F860
:1030B0003032FFF797B8084B1B8880F83132FFF7A2
:1030C00091B8054B1B8880F83332FFF78BB800BFEF
:1030D0005C9EFF1F0596FF1F549EFF1F2DE9F04FBA
:1030E00090F82E3289B00446002B40F09D80D44EDB
:1030F00080F82D32338803EB432003EB800000F58A
:103100005850193080B200EB402500EB850505F5DD
:1031100058551935ADB205EB452305EB830303F58F
:103120005853193303EB432203EB820303F558533F
:1031300019339BB203EB432103EB810101F5585195
:10314000193189B201EB412201EB820202F558529A
:10315000193292B202EB422E02EB8E0E0EF5585E41
:103160000EF1190E1FFA8EFE0EEB4E2C0EEB8C0C90
:103170000CF5585C0CF1190C1FFA8CFC03EB1327AF
:103180000CEB4C280CEB880801EB1121FFB202EB91
:1031900012220EEB1E2E07EB870708F55858C9B20E
:1031A000D3B201EB4101CEF3C01208F119084FEA86
:1031B000272E1FFA88F88F1100EB10200EF1010165
:1031C00003EB430305EB15251B11C0F3C019C5F331
:1031D000C01507F1080001320CEB1C2C84F83012EA
:1031E00008EB182103F12007D2B2CCF3C01384F806
:1031F0003652C1F3C01184F831020F25012084F842
:10320000359284F8327284F83322A6F8008084F86C
:10321000C41184F8343284F82E0284F82A0284F827
:10322000C351002B40F07781864B1B78002B40F078
:103230007D8194F83432D3B1834B94F82912002263
:1032400003F1270084F82F2201E083420FD013F806
:10325000012F8A42F9D194F833327C4AA2FB03232E
:10326000DB080133002284F8333284F834229621BB
:1032700094F83222204607F095FB94F83512002985
:1032800040F0EC8094F8367294F83032002F00F061
:10329000AC81002B00F073826D4894F82F22DFF888
:1032A000B4910390DFF8B0B10F460DF11C0A04F59C
:1032B000E47804F1E1055DE094F831123B440B44FD
:1032C000D9F800100491FF2B049998BF1B024FF40A
:1032D0008C7000FB01F198BF9BB203FB01F31B0C48
:1032E0005804C3F3CA0103D5C1F5FF61073189B2A0
:1032F000080A039E365C3BF81000C1F3460106FB4A
:10330000010189B21E0448BF49420EB294F8281246
:1033100094F8C23100915046414607F0A3FBA6F550
:10332000004396229BB202FB03F31B0C03EB430307
:10333000E118E25C9DF81C0082FA50F2E2549DF81C
:103340001D304A7882FA53F24A708B789DF81E201D
:1033500083FA52F38B7094F82F1294F8332294F876
:10336000303201370A44FFB2D2B2BB4284F82F2276
:1033700040F2058294F8C41100299DD194F83112CD
:103380003B440B44D9F800100591FF2B059998BFD9
:103390001B024FF48C7000FB01F198BF9BB203FB42
:1033A00001F31B0C5804C3F3CA0103D5C1F5FF6137
:1033B000073189B2080A039E365C3BF81000C1F35E
:1033C000460106FB010189B21E0448BF49420EB204
:1033D00094F8281294F8C23100915046414607F003
:1033E00041FBA6F500439BB203EB8303C3EB03133E
:1033F0001B0C03EB4303E118E25C9DF81C0082FA0E
:1034000050F2E2549DF81D304A7882FA53F24A7025
:103410008B789DF81E2083FA52F38B702246234648
:10342000197882F8BF11597882F8C011997882F81A
:10343000C11103339D42A2F10302F1D18BE700BF1A
:103440008487FF1F0596FF1F5B87FF1FCDCCCCCC69
:10345000F4040100F8A8FF1F64FD000094F8366230
:10346000002E67D094F83032002B00F088810025C0
:103470000DF11C0A04F5E4784FF4FA7639E006FB06
:1034800005F3002900F0B5819522002194F831025E
:10349000FDF710F894F8281294F8C23194F82F220E
:1034A000009107464146504607F0DCFA07EB470318
:1034B000E118E25C9DF81C0082FA50F2E2544A786E
:1034C0009DF81D3082FA53F24A708B789DF81E20C9
:1034D00083FA52F38B7094F82F1294F8333294F8E5
:1034E00030220135EDB20B44AA4284F82F3240F26B
:1034F000468194F8C53194F8C411002BBFD100293E
:1035000000F0B8811946952206FB05F394F83102C4
:10351000FDF712F8BEE702EB820202FA00F384F82C
:103520003332D04B1B78002B3FF483AE2046FFF79D
:1035300085FD7EE694F83012002900F020810DF11F
:103540001C0A04F5E47804F1E1053CE094F8C43188
:1035500094F831023144002B00F014810023084418
:1035600095221946FCF7A6FF94F8281294F8C23168
:1035700094F82F22009107464146504607F072FA10
:1035800007EB4703E118E25C9DF81C0082FA50F259
:10359000E2544A789DF81D3082FA53F24A708B78D3
:1035A0009DF81E2083FA52F38B7094F82F2294F822
:1035B000333294F830120136F6B21344B14284F833
:1035C0002F3240F2DC8094F8C531002BBED194F844
:1035D000310294F8C42131440844002A00F0858166
:1035E00019469522FCF7A8FFBEE7002B00F0C78024
:1035F0009D4B94F82F22DFF874920393DFF870B29A
:1036000004F5E4784FF48C7A04F1E10557E0D9F839
:1036100000300693069B94F831120AFB03F309026B
:1036200003FB01F3790301EB134399B24804C1F39F
:10363000CA0303D5C3F5FF6307339BB2180A039E81
:10364000365C3BF81000C3F3460306FB03039BB252
:103650000E0448BF5B4294F828121EB205A894F8E5
:10366000C2310091414607F0FDF9A6F500439622CC
:103670009BB202FB03F31B0C03EB4303E118E25C78
:103680009DF8140082FA50F2E2549DF815304A7801
:1036900082FA53F24A708B789DF8162083FA52F31F
:1036A0008B7094F82F2294F8333294F8301201374B
:1036B0001A44FFB2D2B2B94284F82F225FD994F8EB
:1036C000C431002BA3D1D9F800300793079994F89F
:1036D00031320AFB01F11B0203FB01F3790301EB19
:1036E000134399B24804C1F3CA0303D5C3F5FF637A
:1036F00007339BB2180A039E365C3BF81000C3F3F5
:10370000460306FB030309049BB248BF5B4294F8DF
:1037100028121EB205A894F8C2310091414607F064
:10372000A1F9A6F500439BB203EB8303C3EB03139C
:103730001B0C03EB4303E118E25C9DF8140082FAD2
:1037400050F2E2549DF815304A7882FA53F24A70EA
:103750008B789DF8162083FA52F38B70224623460D
:10376000197882F8BF11597882F8C011997882F8D7
:10377000C1110333AB42A2F10302F1D191E709B0C9
:10378000BDE8F08F08444A221946FCF793FE94F8EE
:10379000281294F8C23194F82F220091074641462E
:1037A000504607F05FF907EB4703E118E25C9DF82C
:1037B0001C0082FA50F2E2549DF81D304A7882FAD9
:1037C00053F24A708B789DF81E2083FA52F38B7067
:1037D00022462346197882F8BF11597882F8C01121
:1037E000997882F8C1110333AB42A2F10302F1D1FF
:1037F000DBE64A2294F83102FCF75CFE94F82812CA
:1038000094F8C23194F82F22009107464146504661
:1038100007F028F907EB4703E118E25C9DF81C006C
:1038200082FA50F2E2549DF81D304A7882FA53F23F
:103830004A708B789DF81E2083FA52F38B7004F146
:10384000E10023462246197882F8BF11597882F8A0
:10385000C011997882F8C11103338342A2F10302A7
:10386000F1D138E60596FF1FF4040100F8A8FF1F08
:1038700064FD000006FB05F34A2294F83102FCF7D0
:103880005BFE94F8281294F8C23194F82F2200912C
:1038900007464146504607F0E5F807EB4703E118B5
:1038A000E25C9DF81C0082FA50F2E2549DF81D3053
:1038B0004A7882FA53F24A708B789DF81E2083FA78
:1038C00052F38B7004F1E10023462246197882F806
:1038D000BF11597882F8C011997882F8C111033369
:1038E0008342A2F10302F1D1F5E5134611464A22C3
:1038F000FCF722FE94F8281294F8C23194F82F2293
:10390000009107464146504607F0ACF807EB4703E5
:10391000E118E25C9DF81C0082FA50F2E2549DF836
:103920001D304A7882FA53F24A708B789DF81E2037
:1039300083FA52F38B7022462346197882F8BF111E
:10394000597882F8C011997882F8C1110333AB42DB
:10395000A2F10302F1D128E62DE9F04F90F82E32C2
:103960008DB00446002B40F09D80C54E80F82D326E
:10397000338803EB432003EB800000F558501930E7
:1039800080B200EB402500EB850505F5585519354B
:10399000ADB205EB452305EB830303F5585319330B
:1039A00003EB432203EB820303F5585319339BB215
:1039B00003EB432103EB810101F55851193189B221
:1039C00001EB412201EB820202F55852193292B208
:1039D00002EB422E02EB8E0E0EF5585E0EF1190E22
:1039E0001FFA8EFE0EEB4E2C0EEB8C0C0CF5585C79
:1039F0000CF1190C1FFA8CFC03EB13270CEB4C2871
:103A00000CEB880801EB1121FFB202EB12220EEB46
:103A10001E2E07EB870708F55858C9B2D3B201EB41
:103A20004101CEF3C01208F119084FEA272E1FFA00
:103A300088F88F1100EB10200EF1010103EB430316
:103A400005EB15251B11C0F3C019C5F3C01507F10F
:103A5000080001320CEB1C2C84F8301208EB182102
:103A600003F12007D2B2CCF3C01384F83652C1F36D
:103A7000C01184F831020F25012084F8359284F8B2
:103A8000327284F83322A6F8008084F8C41184F8D6
:103A9000343284F82E0284F82A0284F8C351002BB1
:103AA00040F09082774B1B78002B40F0968294F880
:103AB000343213B1002384F82F3294F83222962145
:103AC000204606F06FFF94F8C57194F83022002F5D
:103AD00040F09981002A00F050836B4BDFF8ACB1C5
:103AE000DFF8ACA1039304F5E4780DF12C09BEB224
:103AF0009319039A94F83112126807920B44FF2B22
:103B0000079A98BF1B024FF48C7198BF9BB201FBC0
:103B100002F203FB02F3C3F30E43A3F580439BB20F
:103B20005D04C3F3CA0203D5C2F5FF62073292B245
:103B3000100AC2F346011BF800503AF8102005FBAA
:103B40000122180492B248BF554294F8281294F802
:103B5000C23154BF15B22DB294F82F2200914846BD
:103B6000414606F07FFFA5F5004326229BB202FBEB
:103B700003F31B0C25339BB203EB4303E118E25C18
:103B80009DF82C0082FA50F2E2549DF82D304A78CC
:103B900082FA53F24A708B789DF82E2083FA52F302
:103BA0008B7094F8312294F8303216441E44039BF3
:103BB0001B680693FF2E069A98BF36024FF48C734B
:103BC00098BFB6B203FB02F206FB02F2C2F30E424A
:103BD00002F580425104C2F3CA0303D5C3F5FF6363
:103BE00007339BB2180AC3F346011BF800503AF89A
:103BF000103005FB013316049BB248BF5B4294F8BA
:103C0000281294F82F221DB2484694F8C231009130
:103C1000414606F027FFA5F5004326229BB202FB92
:103C200003F31B0C03EB4303E118E25C9DF82C004B
:103C300082FA50F2E2549DF82D304A7882FA53F21B
:103C40004A708B789DF82E2083FA52F38B7094F88B
:103C500030320137FFB2BB421A463FF648AF94F804
:103C6000C421002A00F09A8194F8C571002F40F019
:103C7000C1814FF48C79002B00F0C2800AE000BFB4
:103C80008487FF1F0596FF1FF8A8FF1FF40401009B
:103C900064FD000094F8312201331344039ABEB24C
:103CA00012680B9233449BB2FF2B0B9A9CBF1B02F2
:103CB0009BB209FB02F203FB02F3C3F30E43A3F52D
:103CC00080439BB25D04C3F3CA0203D5C2F5FF6211
:103CD000073292B2110AC2F346021BF801503AF8B9
:103CE000111005FB02151804ADB294F8281294F8CF
:103CF000C23194F82F22009148BF6D42414609A875
:103D00002DB206F0AFFEA5F5004326229BB202FBC2
:103D100003F31B0C70339BB203EB4303E118E25C2B
:103D20009DF8240082FA50F2E2549DF825304A783A
:103D300082FA53F24A708B789DF8262083FA52F368
:103D40008B7094F8312294F83032134401331E44BE
:103D5000039B1B680A93B6B2FF2E0A9A9CBF3602D9
:103D6000B6B209FB02F206FB02F2C2F30E4202F502
:103D700080425104C2F3CA0303D5C3F5FF6307337E
:103D80009BB2180AC3F346011BF800503AF81030F2
:103D900005FB013312049BB248BF5B4294F8281222
:103DA00094F82F221DB209A894F8C231009141461F
:103DB00006F058FEA5F500439BB203EBC30203EBEC
:103DC00082031B0C4B339BB203EB4303E118E25C11
:103DD0009DF8240082FA50F2E2549DF825304A788A
:103DE00082FA53F24A708B789DF8262083FA52F3B8
:103DF0008B70013794F83032FFB2BB423FF64AAFC6
:103E00000DB0BDE8F08F002A00F0B781754BDFF8E8
:103E1000DCB1DFF8DCA1039304F5E47800270DF1B1
:103E20002C09BEB29319039A94F8311212680592C4
:103E30000B44FF2B059A98BF1B024FF48C7198BF5F
:103E40009BB201FB02F203FB02F3C3F30E4303F543
:103E500080435D04C3F3CA0203D5C2F5FF62073293
:103E600092B2100AC2F346011BF800503AF8102033
:103E700005FB0122180492B248BF554294F828125B
:103E800094F8C23154BF15B22DB294F82F2200918C
:103E90004846414606F0E6FDA5F5004326229BB2C2
:103EA00002FB03F31B0C25339BB203EB4303E11826
:103EB000E25C9DF82C0082FA50F2E2549DF82D301D
:103EC0004A7882FA53F24A708B789DF82E2083FA52
:103ED00052F38B7094F8312294F8303216441E4419
:103EE000039B1B680493FF2E049B98BF36024FF47C
:103EF0008C7298BFB6B202FB03F306FB03F3C3F365
:103F00000E43A3F580439BB25904C3F3CA0203D501
:103F1000C2F5FF62073292B2100AC2F346011BF8E3
:103F200000503AF8102005FB01221E0492B248BF4F
:103F3000524294F8281294F8C23115B2484694F8C7
:103F40002F220091414606F08DFDA5F50043262263
:103F50009BB202FB03F31B0C03EB4303E118E25C8F
:103F60009DF82C0082FA50F2E2549DF82D304A78E8
:103F700082FA53F24A708B789DF82E2083FA52F31E
:103F80008B7094F830320137FFB2BB421A463FF6CD
:103F900048AF94F8C421002A7FF466AE04F1E10131
:103FA0002346227883F8BF21627883F8C021A27863
:103FB00083F8C1210334A142A3F10303F1D10DB071
:103FC000BDE8F08F02EB820202FA00F384F833328C
:103FD000054B1B78002B3FF46AAD2046FFF72EF807
:103FE00065E500BFF8A8FF1F0596FF1FF404010058
:103FF00064FD0000002B3FF403AF002794F831224A
:1040000001331344039ABEB21268099233449BB23F
:10401000FF2B099A98BF1B024FF48C7198BF9BB27B
:1040200001FB02F203FB02F3C3F30E4303F58043EB
:104030005D04C3F3CA0203D5C2F5FF62073292B230
:10404000110AC2F346021BF801503AF8111005FBA1
:1040500002151804ADB294F8281294F8C23194F8FD
:104060002F22009148BF6D42414648462DB206F0CE
:10407000F9FCA5F5004326229BB202FB03F31B0CBF
:1040800070339BB203EB4303E118E25C9DF82C0014
:1040900082FA50F2E2549DF82D304A7882FA53F2B7
:1040A0004A708B789DF82E2083FA52F38B7094F827
:1040B000312294F83032134401331E44039B1B68B1
:1040C0000893B6B2FF2E089B98BF36024FF48C724D
:1040D00098BFB6B202FB03F306FB03F3C3F30E4330
:1040E000A3F580439BB25904C3F3CA0203D5C2F5BA
:1040F000FF62073292B2110AC2F346021BF8015066
:104100003AF8111005FB02151E04ADB294F82812FE
:1041100094F8C23194F82F22009148BF6D42414675
:1041200048462DB206F09EFCA5F500439BB203EB7A
:10413000C30203EB82031B0C4B339BB203EB430321
:10414000E118E25C9DF82C0082FA50F2E2549DF8EE
:104150002D304A7882FA53F24A708B789DF82E20DF
:1041600083FA52F38B70013794F83032FFB2BB42BE
:104170003FF644AF0DB0BDE8F08F94F8C431002B8A
:104180003FF40CAF3CE600BF174B184A1B780021E8
:104190001170032B0AD8DFE803F01702110B144B40
:1041A0001B88003318BF012380F87B32FEF71AB852
:1041B0000F4B1B8880F87832FEF714B80C4B1B8825
:1041C00080F87932FEF70EB8094B1B88002B14BF1C
:1041D0000123002380F8C43114BF96234B23A0F899
:1041E0003C33FDF7FFBF00BF5C9EFF1F0596FF1F1E
:1041F000549EFF1F90F82E322DE9F0410446002B0B
:104200004AD1604884F82A32038803EB432203EB47
:10421000820303F5585319339BB203EB432203EB9C
:10422000820202F55852193292B203EB1323DBB229
:1042300002EB422103EBC30502EB810103EB4503D3
:1042400001F5585119311B1289B20133012601EBD6
:104250001125DBB2C5F3C01506270180B3424FF02C
:104260000F0184F8C45184F82E6284F87B6284F8CC
:104270002D7284F8C31100F0838002EB1222D2B2B7
:1042800002EB420212123244D2B284F8793284F83C
:1042900078222046FDF7A6FF3B4B1B78002B6BD105
:1042A00094F8C53143BB94F87A2294F878321A44D2
:1042B00094F87B32D2B284F87A224BBB94F8C431A2
:1042C000002B51D194F879324B21204606F0B8FAF0
:1042D000204604F1E1012346027883F8BF214278A9
:1042E00083F8C021827883F8C12103308842A3F18A
:1042F0000303F1D1BDE8F08194F87A3294F8782282
:104300009A1A94F87B32D2B284F87A22002BD5D054
:1043100094F879322521204606F092FA04F16F05CF
:10432000234621462246107881F8DE00507881F835
:10433000DF00907881F8E0000332AA42A1F1030186
:10434000F1D104F1E1012046027883F8BF214278DF
:1043500083F8C021827883F8C12103308842A3F119
:104360000303F1D1BDE8F08194F87932204696211B
:10437000BDE8F04106F064BA2046FFF705FF8FE77D
:104380001A4682E78487FF1F0596FF1FF0B590F855
:104390002C429DF818609DF81CE00A2501270E3C70
:1043A00080F82D52BC424FF00F0580F8C35180F8C1
:1043B0002E729DF814503DD900234B2480F87C5276
:1043C00080F87E6280F8181380F8192380F81BE3C8
:1043D00080F82A3280F8173380F816431F4C238860
:1043E00003EB432203EB820303F5585319339BB2CB
:1043F00003EB432203EB820202F55852193292B2C8
:1044000003EB132302EB1221DBB2C9B203EB43032C
:1044100001EB41010A3D0A3EC3EBC303C1EBC101FD
:1044200005EB232306EB212180F87D32228080F8E2
:104430007F12F0BD80F82A7280F87C5280F87E628C
:1044400080F8181380F8192380F81BE312B1252295
:1044500080F8172380F81633C0E700BF8487FF1F5A
:10446000194B1A4A1B7800211170052B08D8DFE878
:1044700003F00F151B032109154B1B8880F87F32B1
:10448000FDF7B0BE124B1B8880F81B33FDF7AABEA8
:104490000F4B1B8880F87C32FDF7A4BE0C4B1B88A9
:1044A00080F87E32FDF79EBE094B1B8880F87D3276
:1044B000FDF798BE064B1B88003318BF012380F818
:1044C0001833FDF78FBE00BF5C9EFF1F0596FF1FD0
:1044D000549EFF1F2DE9F04790F82E32D04D86B044
:1044E0000446002B00F02982CE4B1B78002B40F0B5
:1044F000208294F81633002B00F0D18294F87E12BB
:104500002A8801EB81014F0003F27F2E97FBF3F71E
:104510000237FFB2A64404F27F2602EB422102EBEF
:10452000810202F55852193292B202EB122116F8AA
:10453000010FC9B211FB07F1A0EB112121EAE171D2
:10454000B6453170E9D194F818632A80002E00F046
:10455000F580A3F1030EBEF1010F4FF0010C1ADD3F
:1045600003F51F7003F27E27DFF8BC922044274436
:1045700004F52078017810F8016D01EB460189FB04
:1045800001A6A6EBE171804507F8011DF2D1BCF14F
:10459000000F00F0028102EB422102EB810202F5E2
:1045A0005852193292B202EB122194F87C622A809E
:1045B000C9B28E429A4826D902EB422102EB81020F
:1045C00002F55852193292B202EB422602EB8606ED
:1045D00006F558561936B6B206EB162102EB122232
:1045E000C9B2D2B201EB4107C2EBC20204EB2222F4
:1045F000C1EB471109120680603992F8800280FAF7
:1046000051F082F88002BCF1000F12D12A8894F890
:104610007D62834902EB422002EB800202F5585290
:10462000193292B202EB1220C0B286422A8000F206
:10463000CD8094F8C521002A5FD1002B00F026829E
:1046400004F27F279046B94605AE013BC8EB03054F
:1046500005EB450519F8011F304606F0E1F99DF814
:104660001430635525449DF816309DF815206A7066
:10467000AB7094F8163308F101084345E5DC94F873
:1046800019230AB394F8C521002A40F0BF8190464F
:10469000002B00F0FE8108EB030517F8011F3046E0
:1046A00006F0BEF905EB45039DF81420E2542344BF
:1046B0009DF815109DF8162059709A7094F81633CD
:1046C00008F101084345E6DC94F81823002A00F0BD
:1046D000AD8004F1E10123461A7884F8BF215A78AD
:1046E00084F8C0219A7884F8C12103339942A4F157
:1046F0000304F1D106B0BDE8F087002B00F0EA809A
:1047000004F27F27B94625464FF0000805AE19F898
:10471000011F304606F084F99DF816309DF81410FC
:104720009DF8152029706A70AB7094F8163308F163
:104730000108434505F10305E9DCA0E794F87F1281
:1047400001EB81014FEA410E9EFBF3FE0EF1020EDA
:104750005FFA8EFE04F2CA2702EB422102EB8102CD
:1047600002F55852193292B202EB122117F8010FDA
:10477000C9B211FB0EF1A0EB1121013621EAE17162
:104780009E423970E8DB2A80A3F1030EBEF1010FCF
:104790004FF0000C3FF7E4AEFDE603F2C72603F24C
:1047A000C927DFF8848026442744317816F8010DA4
:1047B00001EB400188FB01900EF1FF3EA0EBE1719F
:1047C000BEF1010F07F8011DEFD1E4E602EB422034
:1047D00002EB800202F55852193292B202EB4225E6
:1047E00002EB850505F55855193502EB1222ADB2DD
:1047F000D2B205EB1520C2EBC202C0B204EB2222FA
:1048000000EB4006C0EB461092F8CB620D8001121F
:104810006039304680FA51F082F8CB0209E700BFD8
:104820008487FF1F0596FF1F5655555594F8C521DF
:10483000002A5AD1002B3FF45DAF04F2CA27B946D3
:104840004FF0000805AE94F8175319F8011F4B35C7
:10485000454405EB4505304606F0E2F89DF8143076
:10486000635525449DF816309DF815206A70AB708D
:1048700094F8163308F101084345E4DC94F8192351
:10488000002A3FF437AF94F8C521002A00F0DD80FC
:10489000002B3FF42FAF25464FF0000817F8011FFB
:1048A000304606F0BDF89DF816309DF814109DF8BE
:1048B000152085F8E11085F8E22085F8E33094F8BA
:1048C000163308F10108434505F10305E6DC06B09F
:1048D000BDE8F08794F81933002B40F0DA80BCF182
:1048E000000F7FF4F6AE94F81633002B3FF402AFBE
:1048F00004F2CA27B94625464FF0000805AE19F85C
:10490000011F304606F08CF89DF816309DF8141003
:104910009DF8152085F8BF1185F8C02185F8C131B3
:1049200094F8163308F101084345A5F10305E6DCC8
:10493000A4E72046FFF794FDDBE52B8803EB43213A
:1049400003EB810101F55851193189B201EB412284
:1049500001EB820202F55852193292B202EB422E5A
:1049600002EB8E0E0EF5585E0EF1190E1FFA8EFE3A
:104970000EEB4E260EEB860606F558561936B6B2E5
:1049800006EB462306EB830303F5585319339BB21A
:1049900003EB432703EB870706EB16260EEB1E2ED1
:1049A00007F5585703EB1323F6B25FFA8EFE19375B
:1049B000DBB2C6EB0616BFB2B6110EEB8E0CC3EB24
:1049C00003130EEB4C0E9B1106F1320C07EB17266E
:1049D0003C334FEA2E2EC6F381165FFA83F85FFA56
:1049E0008CFC01360EF1140301EB112102EB1222B3
:1049F000CDF800C0CDF804800296C1F3C011C2F317
:104A0000C012DBB22F80FFF7C1FC6DE5002B40D058
:104A100025464FF0000817F8011F304606F000F851
:104A20009DF816309DF814109DF8152085F8DE10BD
:104A300085F8DF2085F8E03094F8163308F1010896
:104A40004345A5F10305E6DC3EE69046002B3FF426
:104A500051AE4B33C8EB030505EB450517F8011FB5
:104A6000304605F0DDFF9DF81430635525449DF870
:104A700016309DF815206A70AB7094F8163308F163
:104A800001084345E5DC06B0BDE8F08794F819332A
:104A900063B194F81833002B7FF41BAE2AE694F828
:104AA00018230AB12A8854E52A886DE6BCF1000F64
:104AB0007FF40FAE94F81633BCE600BF2DE9F04F3B
:104AC00090F82E32D04D87B00446002B00F0DA81EA
:104AD000CE4B1B78002B40F0428294F816C36346FD
:104AE000BCF1000F00F03F8294F87E122A8801EB9F
:104AF00081014F000CF27F2E97FBFCF70237FFB2CB
:104B0000A64404F27F2602EB422102EB810202F569
:104B10005852193292B202EB122116F8010FC9B2A3
:104B200011FB07F1A0EB112121EAE171B6453170CB
:104B3000E9D194F818632A80002E00F06B81ACF163
:104B40000307012F4FF001091ADD0CF51F700CF25D
:104B50007E26DFF8BC822044264404F5207E0178BE
:104B600010F801AD01EB4A0188FB01BAAAEBE17133
:104B7000864506F8011DF2D1B9F1000F00F02C8135
:104B800002EB422102EB810202F55852193292B235
:104B900002EB122094F87C622A80C0B286429A49C5
:104BA00028D902EB422002EB800202F5585219325A
:104BB00092B202EB422602EB860606F558561936EB
:104BC00002EB1222B6B2D2B206EB1620C2EBC20240
:104BD000C0B204EB222200EB40070E80C0EB47106E
:104BE00092F880620012A0F16001304680FA51F024
:104BF00082F88002B9F1000F12D12A8894F87D6200
:104C0000814902EB422002EB800202F55852193230
:104C100092B202EB1220C0B286422A8000F2AF802C
:104C2000BCF1000F00F0A48104F27F2700260DF1F3
:104C30001409C3F14B039D1905EB450517F8011F36
:104C4000484605F0EDFE9DF81430635525449DF867
:104C500016309DF815206A70AB7094F81633013643
:104C6000B342E6DC94F81863002E75D104F2CA272B
:104C7000002B00F083814A339D1B05EB450517F897
:104C8000011F484605F0CCFE9DF8143063552544BD
:104C90009DF816309DF815206A70AB7094F81633A5
:104CA0000136B342E7DC4B2B47D00DF1140904F574
:104CB000E47B2746264600254FF0010A94F81A2384
:104CC000CDF800A0C5EB052898FBF3F31A44D2B247
:104CD000FF235946484605F0C5FE9DF814109DF87F
:104CE00015209DF8163031707270B37094F81A3335
:104CF00094F8162398FBF2F808EB0302D2B2FF23D4
:104D00005946CDF800A0484605F0ACFE9DF81520A8
:104D10009DF816309DF8141087F8C02187F8BF1150
:104D200087F8C13194F816330135C3F14B02AA421A
:104D300006F10306A7F10307C0DC94F8C531002B88
:104D400040F0968094F81A3394F81B239B1A84F849
:104D50001A3307B0BDE8F08F214604F1E105224681
:104D6000107881F8BF01507881F8C001907881F8FF
:104D7000C10103329542A1F10301F1D193E702EBA6
:104D8000422002EB800202F55852193292B202EB35
:104D9000422502EB850505F55855193502EB12221F
:104DA000ADB2D2B205EB1520C2EBC202C0B204EB29
:104DB000222200EB4006C0EB461092F8CB620D8039
:104DC00001126039304680FA51F082F8CB02BCF112
:104DD000000F7FF429AFCFE00CF2C7260CF2C92EEA
:104DE000DFF82C802644A644317816F8010D01EB3B
:104DF000400188FB01A0013FA0EBE171012F0EF8FB
:104E0000011DF1D1BCE600BF8487FF1F0596FF1F7F
:104E10005655555594F87F1201EB81014FEA410E2A
:104E20009EFBFCFE0EF1020E5FFA8EFE04F2CA2714
:104E300002EB422102EB810202F55852193292B282
:104E400002EB122117F8010FC9B211FB0EF1A0EB12
:104E50001121013621EAE17166453970E8DB2A80CB
:104E6000ACF10307012F4FF000093FF76EAE87E664
:104E700094F81A2394F81B33134484F81A3307B0B8
:104E8000BDE8F08F2B8803EB432103EB810101F593
:104E90005851193189B201EB412201EB820202F52E
:104EA0005852193292B202EB422E02EB8E0E0EF5E0
:104EB000585E0EF1190E1FFA8EFE0EEB4E260EEB0B
:104EC000860606F558561936B6B206EB462306EBAB
:104ED000830303F5585319339BB203EB432703EBCA
:104EE000870706EB16260EEB1E2E07F5585703EB29
:104EF0001323F6B25FFA8EFE1937DBB2C6EB061645
:104F0000BFB2B6110EEB8E0CC3EB03130EEB4C0EBF
:104F10009B1106F1320C07EB17263C334FEA2E2E7D
:104F2000C6F381165FFA8CFC5FFA83F801EB11215E
:104F30000EF1140302EB12220136CDF800C0CDF8B9
:104F400004800296DBB2C1F3C011C2F3C0122F80FD
:104F5000FFF71CFA0B4B1B78002B3FF4BEAD20462D
:104F6000FFF77EFAB9E594F818234AB12A88E6E5F6
:104F7000B9F1000F7FF4F0AE0DF11409002396E6AD
:104F80002A886DE70596FF1F0E4B0F4A1B780021FC
:104F900011703BB1012B03D10C4B1B8880F83E33C1
:104FA000FDF720B9094B1B88002B14BF01230023F8
:104FB00080F8C43114BF96234B23A0F83C33FDF78F
:104FC00011B900BF5C9EFF1F0596FF1F549EFF1F77
:104FD000F0B590F82E324B4E85B004468BBB33882B
:104FE00003EB432203EB820303F5585319339BB2BF
:104FF00003EB432103EB810101F55851193189B2CB
:1050000001EB1122D2B2C2EB0212121203EB1323F4
:1050100001200632C3F3C01313270F253180D2B20B
:1050200084F8C43184F82E0284F82A0284F82D72A0
:1050300084F8C351002B5CD14B23A4F83C3384F893
:105040003E23314B1B78002B57D194F83E2320464A
:10505000962105F0A7FC3288B4F83C5302EB4223BA
:1050600002EB830202F5585319339BB203EB43273B
:1050700003EB870707F558571937BFB207EB17221D
:1050800003FB05F301211D0C009103A804F5E47155
:10509000D2B2FF23378005F0E5FC05EB4503E118AC
:1050A000E25C9DF80C0082FA50F2E2549DF80D305B
:1050B0004A7882FA53F24A708B789DF80E2083FA70
:1050C00052F38B7094F8C4318BB9204604F1E1019E
:1050D00023461A7880F8BF215A7880F8C0219A7840
:1050E00080F8C12103338B42A0F10300F1D105B058
:1050F000F0BD9623A4F83C33A1E72046FFF744FF18
:10510000A3E700BF8487FF1F0596FF1F244B254A96
:105110001B7800211170092B0AD8DFE803F0101E5C
:1051200023282D3237053C0B1F4B1B8880F84F334B
:10513000FDF758B81C4B1B8880F84533F8E71A4B2D
:105140001B88002B14BF0123002380F8C43114BF37
:1051500096234B23A0F83C33EAE7134B1B8880F8D7
:105160003F33E5E7104B1B8880F84033E0E70E4BF8
:105170001B8880F84133DBE70B4B1B8880F84233F8
:10518000D6E7094B1B8880F84633D1E7064B1B88CE
:1051900080F84333CCE7044B1B8880F85033C7E7D3
:1051A0005C9EFF1F0596FF1F549EFF1F2DE9F04FC9
:1051B00090F82E3285B00446002B40F0BE80DFF818
:1051C0002CC3BCF8003003EB432603EB860606F540
:1051D00058561936B6B206EB462106EB810101F5A9
:1051E0005851193189B201EB412501EB850505F5CF
:1051F00058551935ADB205EB452305EB830303F58F
:10520000585319339BB203EB432703EB870707F58A
:1052100058571937BFB207EB472007EB800000F55E
:105220005850193080B200EB402200EB820202F5A8
:105230005852193292B202EB422E02EB8E0E0EF54C
:10524000585E0EF1190E1FFA8EFE0EEB4E280EEB75
:10525000880808F5585803EB132301EB112102EBE2
:10526000122208F119081FFA88F8DBB2C9B2D2B2CB
:1052700008EB182902EB820203EB830301EB4101E7
:105280004FEAA21A03EB83035FFA89F200EB1020C6
:10529000091205EB15259B110131C5F3421502EBEF
:1052A000820206EB162607EB1727C0B203F164094A
:1052B000ACF800800AF11403C6F3C016C7F38117D7
:1052C00000EB80000EEB1E2E5FFA81FA4FF01408FF
:1052D000691DC2F3C71C01250F2284F8C4615FFA5F
:1052E00089F90137C0F30720DBB25FFA8EFE84F83C
:1052F0002E5284F82A5284F82D8284F8C321002E7D
:1053000040F0E8804B22A4F83C23764D84F83FA37C
:10531000A5FB032501EB9502002184F8419384F855
:10532000427384F8460384F8433384F84FE384F8E7
:1053300050C384F8402384F845136B4B1B78002B33
:1053400040F0CC8094F8451394F83F3394F8C5218D
:105350000B44DBB284F8453384F84433002A00F070
:10536000B18094F8462394F84033134484F84633CC
:10537000B4F83C33002B00F08E8004F5E479254628
:10538000671C00264FF0FF085CE00029BCBFD24339
:10539000D2B25200D2B2531C03FB02F2121202FB31
:1053A00003F31B1202EB4202A2EB430292B2D305BB
:1053B00054BF5FFA82FB4FF0FF0BC0EB0B0B5FFAA1
:1053C0008BFB94F8502394F84F338DF80E20294628
:1053D00003A88DF80C308DF80D8005F041FD94F890
:1053E000443394F83F2394F82812009102FB0A32C8
:1053F000D2B25B46494603A805F034FB17F8013CDE
:105400009DF80C2083FA52F307F8013C6A789DF866
:105410000D3082FA53F26A70AB789DF80E2083FA51
:1054200052F3AB7094F8441394F84233B4F83C232D
:1054300001360B44B24205F1030507F1030784F876
:10544000443328DD94F8433394F846235FFA86FA10
:1054500003FB0A22D2B251B20029BABFD343DBB256
:1054600013465B00DBB2581C00FB03F31B1203FB6B
:1054700000F0001203EB4303A3EB40039BB2D805FB
:1054800094F8410354BFDBB2FF239842FFF47DAF91
:105490004FF0000B95E794F8C43183B904F1E101B2
:1054A0002346227883F8BF21627883F8C021A2784E
:1054B00083F8C1210334A142A3F10303F1D105B064
:1054C000BDE8F08F94F8463394F840239B1A84F893
:1054D00046334DE79622A4F83C2316E72046FFF713
:1054E00015FE2FE7CDCCCCCC0596FF1F8487FF1F80
:1054F000074B084A1B780021117033B9064B1B88F3
:105500005B1A18BF012380F8C731FCF76BBE00BFE0
:105510005C9EFF1F0596FF1F549EFF1F70B504463B
:1055200082B01B4D022006F009F92B88184400EBCD
:10553000402300EB830043F21963184480B200EB70
:10554000102200EB402100EB8100D2B2034402EBB9
:1055500082029BB29211002603EB13211B3284F8C6
:10556000512384F8521384F8546384F8536384F805
:105570005C63204601AA96212B808DF804608DF88B
:1055800005608DF8066005F04BF902B070BD00BFF4
:105590008487FF1F2DE9F04F90F85C3387B00290AD
:1055A000002B00F0898090F851330393064618468B
:1055B0005D4B1B8803EB432403EB840404F5585430
:1055C0001934A4B204EB1423DBB203EB830903EB1D
:1055D000C9094FEA292909F1140901235FFA89F958
:1055E00086F8543386F85D9308F03EFC06F5577B49
:1055F00006F5AF6A5B4606F24C4806F23F57D346C3
:10560000019006F5CD6600259A4604EB442304EB91
:10561000830404F558541934A4B2732303FB04F033
:10562000000C019B4AF8043F0A3080B208F01CFCD1
:105630003E4908F025FD04EB442304EB830303F506
:10564000585319339BB203EB432403EB840404F552
:1056500058541934A4B204EB1421C9B201EB8101EE
:1056600003EB13230912C3F3C0130A3148F8040FE4
:1056700007F8013FC8B208F0F7FB0135EBB22C4A3E
:105680004BF8040F994546F8042FBED8039A029EA2
:10569000254FC2F1950102EB420301EB4101F518E0
:1056A0007018FF223C80F2546A70AA7072544270E3
:1056B000827007B0BDE8F08F029D95F8533395F8DE
:1056C000511395F852238DF814200533DBB201EB0A
:1056D000410185F85333294405A8FF248DF816307D
:1056E0008DF8154005F0BCFB95F8511395F8523331
:1056F00095F853238DF81430C1F1950101EB410168
:1057000005A829448DF815408DF8162005F0A8FB52
:1057100095F85333FF2BCCD1029A012382F85C33E6
:1057200007B0BDE8F08F00BF8487FF1F0000C842AC
:1057300000007F432DE9F047654B054682B01A789B
:10574000962105F02FF995F85D43002685F85C67F2
:10575000002C7ED0DFF890914FF0FF083BE0D4F8AA
:105760006013504608F0D0FA07460021384608F08A
:1057700071FD5849002868D1384608F089FD00B10C
:10578000544FC4F860735146D9F8000008F0C4FBC8
:105790004FF06E51C4F85004D4F87C0508F0BCFBFF
:1057A00001464FF07E5008F0ADFAD4F86C1608F0C0
:1057B000B3FBC4F86C0608F09BFD95F85C37C0B2EB
:1057C000834206F1010695F85D3338BF85F85C0722
:1057D000F6B2B3423BD905EB8604D4F8600308F077
:1057E00061FD0746D4F86C0608F082FD95F8523347
:1057F0008DF8020001A968468DF800308DF801800F
:1058000005F02EFB07EB470029182B5C9DF80420C0
:1058100083FA52F32B549DF805304A7882FA53F2FA
:105820004A708B789DF8062083FA52F3AA198B7080
:1058300092F84035D4F850A4002B90D1D4F86003EE
:10584000514608F05FFA07468FE7002799E795F879
:105850005C472A4605F1E1002B46197882F8BF1112
:10586000597882F8C011997882F8C11103338342C4
:10587000A2F10302F1D144BB01AA962128468DF87A
:1058800004408DF805408DF8064004F0C9FF124829
:10589000124C038824681249124A019403EB4324F2
:1058A0000988128803EB840303F558530A4419331B
:1058B0009BB292B20199038003FB02F301EB134305
:1058C0000222C5F8583385F8542302B0BDE8F087AA
:1058D0004887FF1F000094428487FF1FF8A8FF1F1E
:1058E0004E87FF1F4C87FF1F5887FF1F10B590F88A
:1058F0005433012B82B01CD017D3022B13D10023B9
:1059000001AA962104468DF804308DF805308DF8F3
:10591000063004F085FF0B4AD4F858331268019220
:10592000019A9A4209D202B010BDFFF733FE02B0CD
:1059300010BDFFF7FFFE02B010BD2046FFF7EEFDE1
:10594000F1E700BFF8A8FF1FF8B590F82E32044623
:1059500073B12F4D2F4B1B78002B55D12046FFF7ED
:10596000C5FF94F8C7312A4900222A704BBBF8BD05
:10597000294980F82A320B8803EB432203EB820388
:1059800003F5585319339BB203EB13220F25C2F3CF
:10599000C01201271626022084F8C3510B8084F818
:1059A000C72184F82E7284F82D6284F85403184DB0
:1059B000002ACFD02B78002BCCD1184B83F854037E
:1059C000C8E7012315480B70FFF790FF134B2046E3
:1059D00003F5E175013414F8012C197882FA51F2BB
:1059E00004F8012C41785A7881FA52F1417082789A
:1059F000997882FA51F20333AB42827004F10304C6
:105A000000F10300E7D1F8BD2046FFF771FDA5E7DF
:105A10000696FF1F0596FF1F8487FF1F0C96FF1F2A
:105A2000184B194A1B7800211170042B0DD8DFE8A0
:105A300003F003141A200E00144B1B78092B1ED9F7
:105A4000412BA8BF4123A0F83C33FCF7CBBB0F4B45
:105A50001B8880F83332FCF7C5BB0C4B1B8880F8E1
:105A60005E37FCF7BFBB094B1B8880F83232FCF76E
:105A7000B9BB064B1B8880F83132FCF7B3BB0A2355
:105A8000E1E700BF5C9EFF1F0596FF1F549EFF1FAE
:105A90002DE9F04390F82E6287B00446002E00F006
:105AA000F780BC4B1B78002B40F06181B4F83C13AD
:105AB00004F5E47711B3264600254FF0010894F869
:105AC0005D37CDF80080C5EB052292FBF1F21A4458
:105AD000D2B2FF23394605A804F0C4FF9DF8141084
