:1000000000800020BD010000BDB2000075B20000FC
:1000100075B2000075B2000075B2000075B2000044
:1000200075B2000075B2000075B20000BDB20000EC
:10003000BDB2000075B20000E9C60000EDC70000C7
:10004000BDB20000BDB20000BDB20000BDB20000F4
:10005000BDB20000BDB20000BDB20000BDB20000E4
:10006000BDB20000BDB20000BDB20000BDB20000D4
:10007000BDB20000BDB20000BDB20000BDB20000C4
:10008000BDB20000BDB20000BDB20000BDB20000B4
:10009000BDB20000BDB20000BDB20000BDB20000A4
:1000A000BDB20000BDB20000BDB20000BDB2000094
:1000B000BDB20000BDB20000BDB20000BDB2000084
:1000C000BDB20000BDB20000BDB20000BDB2000074
:1000D000BDB20000BDB20000BDB20000BDB2000064
:1000E000BDB20000BDB20000BDB20000BDB2000054
:1000F000BDB20000C1CA0000BDB20000EDCB0000DF
:10010000BDB2000019CD0000BDB20000BDB20000BC
:10011000BDB20000BDB20000BDB20000BDB2000023
:10012000BDB20000BDB20000BDB20000BDB2000013
:10013000BDB20000BDB20000BDB20000BDB2000003
:10014000BDB20000BDB20000BDB20000BDB20000F3
:10015000BDB20000BDB20000BDB20000BDB20000E3
:10016000BDB2000005B70000BDB20000BDB2000086
:10017000BDB20000BDB20000BDB20000BDB20000C3
:10018000BDB20000BDB20000BDB20000BDB20000B3
:10019000BDB20000BDB20000BDB20000BDB20000A3
:1001A000BDB20000BDB20000BDB20000BDB2000093
:1001B000BDB20000BDB20000BDB20000564B4CF213
:1001C000205210B51A804DF628121A8000BF00BFC9
:1001D0000BF078F8514B4FF010621A60504A9A6059
:1001E000504ADA60504A136813F4807304D14F49BF
:1001F0000B604FF4A85313604D4B1A78110703D5C9
:100200001A7842F008021A704A4B4B492A221A7097
:100210004A4A4B4B8B4204D252F8040F43F8040B6A
:10022000F8E7484B484900228B4202D243F8042B9E
:10023000FAE74649464A002352F8230041F82300D2
:1002400001336F2BF8D1434B434A802103F8011B44
:100250009342FBD1414B3D4A1A60414B8A221A70AE
:10026000A3F5805324225A70A0221A709A7992071B
:10027000FCD59A79D406FCD43A4A937903F00C035E
:10028000082B384BF9D103221A7140225A719A79FE
:100290009006FCD5334A9179324B4906FBD5324A58
:1002A000324911600221516020221A709A7902F0BD
:1002B0000C020C2AFAD12E4B2E4A1A602E4B2F4AD2
:1002C0001A6000225A60072243F8042C2C4AC3F813
:1002D0000C2D62B60BF0CCF8144B1B68DA0705D571
:1002E00028480BF03DF8284B284A1A60284B1B7809
:1002F0005B0609D5244C254B22689A4204D121483B
:100300000BF02EF8002323600DF0EEFC0AF0E0FF66
:100310000CF074FAFEE700BF0E2005403080044068
:10032000823F04000100002B10D0034014D0034092
:1003300002D0074000E007404088FF1F9C100100EA
:100340001C87FF1F4088FF1FA8AFFF1F0082FF1FF1
:100350000000000000E400E05FE400E008ED00E0E1
:100360000050064000400640448004400000030165
:1003700004800440C010050014E000E0FF76010096
:10038000000020209B996F5E1CE00340A5C3945A97
:1003900000F00740FFFFFFFFFFFFFFFFFFFFFFFF32
:1003A000FFFFFFFFFFFFFFFFFFFFFFFFFFFFFFFF5D
:1003B000FFFFFFFFFFFFFFFFFFFFFFFFFFFFFFFF4D
:1003C000FFFFFFFFFFFFFFFFFFFFFFFFFFFFFFFF3D
:1003D000FFFFFFFFFFFFFFFFFFFFFFFFFFFFFFFF2D
:1003E000FFFFFFFFFFFFFFFFFFFFFFFFFFFFFFFF1D
:1003F000FFFFFFFFFFFFFFFFFFFFFFFFFFFFFFFF0D
:10040000FFFFFFFFFFFFFFFFFFFFFFFFDEF9FFFF23
:1004100010B5054C237833B9044B13B10448AFF33E
:1004200000800123237010BD4088FF1F00000000E2
:10043000A0100100084B10B51BB108490848AFF3E4
:1004400000800848036803B910BD074B002BFBD0A0
:10045000BDE81040184700BF000000004488FF1F9F
:10046000A01001004088FF1F000000004069704795
:10047000002070474268017B13780B43137070476C
:100480004268017B137823EA01031370704700BFB1
:1004900030B40E4D90F831422B8890F8301203EBB7
:1004A000432203EB820303F5585319339BB203EB4A
:1004B00013222B80D3B203EB4303221D01EBE31382
:1004C00080F8312280F8303230BC70478487FF1FBB
:1004D0008039091110B44B0044788278C9B2DBB27C
:1004E000611AD31A21EAE17123EAE3734170837040
:1004F00010BC704770B41D4C83B024680194019DFA
:10050000FF2898BF00024FF48C74A5EB030304FB93
:1005100003F398BF80B200FB03F0C0F30E4000F578
:1005200080404404C0F3CA0303D5C3F5FF63073317
:100530009BB21D0A0E4E0F4C765D34F81540C3F386
:10054000460506FB054300049BB24ABF5C421CB251
:1005500024B2521AA4F5004492B2A3B202FB0333B0
:1005600001EB134080B203B070BC7047E8ACFF1FD2
:1005700030ED00006CE5000070B41E4C83B02468C0
:100580000194019DFF2898BF00024FF48C74A5EBE5
:10059000030304FB03F398BF80B200FB03F0C0F336
:1005A0000E40A0F5804080B24404C0F3CA0303D5D6
:1005B000C3F5FF6307339BB21D0A0F4E0F4C765DE8
:1005C00034F81540C3F3460506FB054300049BB20F
:1005D0004ABF5C421CB224B2521AA4F5004492B243
:1005E000A3B202FB033301EB134080B203B070BC33
:1005F000704700BFE8ACFF1F30ED00006CE5000065
:10060000F0B41B4C82B024680194FF28019E98BF6F
:1006100000024FF48C7498BF80B204FB06F600FB16
:1006200006F603EB1646B6B27004C6F3CA0403D549
:10063000C4F5FF640734A4B2200A0E4D0E4B2F5CA4
:1006400033F81030C4F3460507FB0534A4B2330475
:1006500048BF644224B2521AA4F5004492B2A3B235
:1006600002FB033301EB134080B202B0F0BC7047D1
:10067000E8ACFF1F30ED00006CE5000070B4184BD3
:1006800083B01B680193019E4FF48C7303FB06F645
:1006900000FB06F0060C7004C6F3CA0303D5C3F5CD
:1006A000FF6307339BB2180A0E4D0F4C245C35F8DC
:1006B0001000C3F3460504FB05043304A4B248BF8D
:1006C000644224B2531AA4F500449AB2A3B202FBC6
:1006D000033301EB134080B203B070BC704700BF1E
:1006E000E8ACFF1F6CE5000030ED000010B5012103
:1006F00004460E200AF046FE072001210AF042FEC1
:10070000A06958B10368074A5B68934207D1426801
:10071000017B137823EA0103137010BD10BDBDE8FF
:100720001040184781040000F0B58BB00023056825
:100730008DF804308DF805308DF806302E68374A74
:100740008DF8083096428DF809308DF80A305FD167
:10075000827C04910446012A01A805918DF81E307F
:100760008DF81F308DF82030039015D08DF81D3096
:100770008DF81C308DF81B308DF81A308DF819303B
:100780008DF818300023AA698DF82130204609938E
:1007900003A990470BB0F0BD214A1378013303F051
:1007A000070313F0010F14BF8021002113709A0773
:1007B00044BF41F04001C9B25B0748BF41F020018E
:1007C00010310022C9B20DF11B030DF11E074FF4C9
:1007D000807EAAB19EFBF2F2D2B2501CC0B200FBE6
:1007E00001152D121870EEB205B1013E03F8036C2D
:1007F00000B11A7001339F4208D0DA78002AE9D19B
:100800001A7003F8032C01339F42F6D12568B9E72B
:100810000A4602AB01A9B0470BB0F0BD25080000A5
:100820005C88FF1FF0B5857C1C785E789B7889B06A
:10083000012D0191029203928DF816408DF81760F8
:100840008DF8183016D000238DF815308DF814303F
:100850008DF813308DF812308DF811308DF810307E
:100860000268002392698DF81930079301A9904717
:1008700009B0F0BD1B4A1378013303F0070313F0EE
:10088000010F137014BF80220022990744BF42F069
:100890004002D2B25B0748BF42F020021032D2B20F
:1008A0000DF113030DF116074FF4807EACB19EFBE2
:1008B000F4F4E4B2611CC9B201FB02252D121970D7
:1008C000EEB205B1013E03F8036C01B11C700133B7
:1008D000BB42C5D0DC78002CE9D11C7003F8034C76
:1008E000F5E700BF5C88FF1FF0B5857C1C785E785B
:1008F0009B7889B0012D0191029203928DF81640E8
:100900008DF817608DF8183017D000238DF815304A
:100910008DF814308DF813308DF812308DF81130B9
:100920008DF810300368002203219B698DF819109F
:10093000079201A9984709B0F0BD1B4A137801330B
:1009400003F0070313F0010F137014BF802200227D
:10095000990744BF42F04002D2B25B0748BF42F061
:1009600020021032D2B20DF113030DF116074FF42D
:10097000807EACB19EFBF4F4E4B2611CC9B201FB11
:1009800002252D121970EEB205B1013E03F8036C79
:1009900001B11C700133BB42C4D0DC78002CE9D11A
:1009A0001C7003F8034CF5E75C88FF1F70B5044624
:1009B00008460D460DF084FA236802462946204673
:1009C0005B68BDE87040184738B5044608460D46D8
:1009D0000DF076FA2368024629465B682046984760
:1009E000054620460BF012FF284438BD2DE9F04F94
:1009F0000D7805704D784570897881701178C170D7
:100A000051780171927842711A7882715A78C27164
:100A10009B78DDF824A003729AF800B080F809B042
:100A20000DF12C0898E80051DDF828900E9F0F9EDC
:100A3000109D1199129A159B9AF801B080F80AB08E
:100A40009AF802A080F80BA099F800A080F80CA0FA
:100A500099F801A080F80DA099F8029080F80E9006
:100A600098F8009080F80F9098F8019080F8109016
:100A700098F8028080F811809CF8008080F812803D
:100A80009CF8018080F813809CF802C080F814C0A4
:100A90009EF800C080F815C09EF801C080F816C00E
:100AA0009EF802E080F817E097F800E080F818E080
:100AB00097F801E080F819E0BF7887763778C77635
:100AC00077780777B67846772E7886776E78C67708
:100AD000AD7880F820500D7880F821504D7880F85E
:100AE0002250897880F82310117880F824105178EA
:100AF00080F82510927880F82620139A127880F8D2
:100B00002720139A527880F82820139A927880F838
:100B10002920149A127880F82A20149A527880F8A2
:100B20002B20149A927880F82C201A7880F82D20A7
:100B30005A7880F82E209B7880F82F30BDE8F08F0F
:100B40002DE9F04F8BB00027069051F82730DBB22B
:100B50000137FF2BBFB2F8D10B6807974FEA136834
:100B6000C3F3072BC3F307494FF0FF33C6460024F6
:100B70000593884658F8045F0698C5F307274FEA9F
:100B8000241CC5F30746ECB2F9B2C5F3076503911F
:100B9000E9B204915FFA8CF1029107990F2908AA32
:100BA0004FEA14135FFA86FA0CD805998C4507DCD6
:100BB0000F2905D00131C9B28B42029138BF0B46D3
:100BC00059B2059109A9009102998DF820B08DF8CC
:100BD00021908DF822E08DF824708DF825608DF835
:100BE000265009F06BFBFF2CDDF810E0DDF80CB0AF
:100BF000D146BFD106980BB0BDE8F08F484B1B78AB
:100C0000002B00F08B802DE9F04F9BB000F5FC73BA
:100C10000A930023434A0793DFF80C91099000F2EE
:100C2000272308920B93002759F82730DBB20137AE
:100C3000FF2BBFB2F8D1D9F8003006974FF0FF3242
:100C4000C3F3074A0592C3F3072B4FEA1368002446
:100C5000D64659F8045FC5F307464FEA241CC5F38E
:100C60000727ECB2F1B2C5F307650391E9B204912D
:100C70005FFA8CF1029106990F290CAA0EA84FEA8F
:100C800014135FFA87FA0CD805998C4507DC0F29F5
:100C900005D00131C9B28B42029138BF0B4659B21F
:100CA00005910DA9009102998DF830B08DF831E0D1
:100CB0008DF832808DF834708DF835608DF83650AF
:100CC00009F0FCFAFF2CD346DDF80CE0DDF81080CB
:100CD000BFD10A9B0EAA934218D0099B0B9C03F22A
:100CE000F71301E0A34211D012F8011B13F8010F12
:100CF0008842F7D00A4B079A1B7801329342079239
:100D000009DD089B53F8049F08938CE7099B9DF825
:100D10001C2083F829221BB0BDE8F08F704700BF6C
:100D20005087FF1F18EB0000C80801002DE9F041B3
:100D3000424D82B001AA0024284696218DF8044035
:100D40008DF805408DF8064009F088FA3C4985F891
:100D5000C64105F5E470FFF7F3FE3A4905F5FC706E
:100D6000FFF7EEFE2846FFF749FF374B374A187862
:100D700085F82C02234601E01D2B08D012F8011F34
:100D80008142DCB203F10103F6D185F82B42304EEB
:100D9000DFF8D0802F4F002401AA304696218DF82D
:100DA00004408DF805408DF8064009F057FA0123FC
:100DB00006F5E470284986F8C631FFF7C1FE2749D9
:100DC00006F5FC70FFF7BCFE95F82B3286F82B3247
:100DD0003046FFF713FF01AA404696218DF80440E4
:100DE0008DF805408DF8064009F038FA022308F521
:100DF000E4701B4988F8C631FFF7A2FE08F5FC70C5
:100E00001749FFF79DFE01AA384696218DF8044048
:100E10008DF805408DF8064009F020FA032307F508
:100E2000E4700F4987F8C631FFF78AFE07F5FC70BA
:100E30000B49FFF785FE02B0BDE8F0816CA2FF1FF1
:100E4000A40C01008CEC00004987FF1F2387FF1FC3
:100E50008488FF1F2C9AFF1FA80A0100680A01005E
:100E60001C0B0100D891FF1F10B5122182B034482D
:100E7000344C0BF0C7FA344B204619780BF016FDB2
:100E800020460BF0C3FC112130480BF0BBFA304B6D
:100E9000204619780BF00AFD20460BF0B7FC15210F
:100EA0002C480BF0AFFA2C4B204619780BF0FEFCC7
:100EB00020460BF0ABFC112128480BF0A3FA284B7D
:100EC000204619880BF0F2FC20460BF09FFC142101
:100ED00024480BF097FA244B204619880BF0E6FCC7
:100EE00020460BF093FC0F2120480BF08BFA204B8F
:100EF000204619880BF0DAFC02211E480BF082FA1A
:100F00001D4B0A221978204600230BF08FFC01218B
:100F10001A480BF077FA20460BF078FC0E2118489F
:100F20000BF070FA174B1B680193019900230A22FA
:100F300020460BF07BFC20460BF068FC02B010BD95
:100F4000FCF100008C87FF1F8387FF1F10F2000059
:100F50004A87FF1F24F200005887FF1F3CF2000061
:100F60001C87FF1F50F200008088FF1F68F20000FE
:100F7000D291FF1F78F200003191FF1F7CF2000038
:100F800080F20000E8ACFF1F1E491F480B8803EBEE
:100F9000432203EB820303F5585319339BB203EB4F
:100FA000432203EB820202F5585203EB132319325A
:100FB000DBB292B203EB4303F0B41B1202EB122735
:100FC000124E134DF35C134C0A80FFB207EB8707F8
:100FD00001223F12033793422F70237002700CD00E
:100FE00006D3022B02D10C4B00221A70F0BC7047C2
:100FF0000A4B00221A70F0BC7047074B4A221A7045
:10100000F0BC70478487FF1FD090FF1F2087FF1F11
:10101000199AFF1FDC90FF1F0C91FF1F8288FF1F92
:10102000F8B5CA1C0446C31C0D4600F2C51012F8E0
:10103000031C03F8031C12F8021C03F8021C12F82C
:10104000011C03F8011C0333984202F10302EED1A4
:1010500095F8C23184F8C23195F8C33184F8C331B0
:1010600095F8C73195F8C40195F8C51195F8C621D2
:1010700084F8C62184F8C73184F8C40184F8C51106
:10108000302205F5E47104F5E4700CF055FE3022D1
:1010900005F5FC7104F5FC700CF04EFE95F8283255
:1010A00084F8283295F8293284F8293295F82A32C2
:1010B00084F82A3295F82B3284F82B3295F82C12CA
:1010C00095F82D2295F82E3284F82E3284F82C12C1
:1010D00084F82D2295F82F3284F82F3295F830328B
:1010E00084F8303295F8313284F8313295F8323262
:1010F00084F8323295F8333284F8333295F8352259
:1011000095F8363295F8341284F8341284F8352282
:1011100084F8363295F8373284F8373295F8383219
:1011200084F8383295F8393284F8393295F83A3201
:1011300084F83A3205F23E2204F23E2304F27A2089
:1011400012F8031C03F8031C12F8021C03F8021C1B
:1011500012F8011C03F8011C0333984202F1030248
:10116000EED195F8773284F8773295F8783284F8B2
:10117000783295F8793284F8793295F87A3284F8B1
:101180007A3295F87B3284F87B3295F87C3284F899
:101190007C3295F87D3284F87D3295F87E3284F881
:1011A0007E3295F87F3284F87F3205F27F2204F593
:1011B000207304F2CB2012F8011F03F8011B8342B5
:1011C000F9D105F2CA2204F2163012F8011F03F811
:1011D000011B8342F9D195F81603B5F81813B5F839
:1011E0001A23B5F81C33A4F81C3384F81603A4F8AA
:1011F0001813A4F81A2395F81E3384F81E3395F8B3
:101200001F3384F81F3395F8203384F8203395F882
:10121000213384F8213395F8223384F8223395F86A
:10122000233384F82333B5F82803B5F82A13B5F827
:101230002C23B5F82E33B5F82473B5F82663A4F83B
:101240002663A4F82803A4F82A13A4F82C23A4F8EE
:101250002E33A4F82473B5F83063B5F83413B5F819
:101260003623B5F83833B5F83203A4F83203A4F8BE
:101270003413A4F83623A4F83063A4F8383395F86F
:101280003A3384F83A3395F83B3384F83B3395F896
:101290003C3384F83C3395F83D3384F83D3395F87E
:1012A0003E3384F83E3395F83F3384F83F3395F866
:1012B000403384F8403395F8413384F8413395F84E
:1012C000423384F8423395F8433384F8433395F836
:1012D000443384F8443395F8453384F8453395F81E
:1012E000463384F8463395F8473384F8473395F806
:1012F000483384F8483395F8493384F8493395F8EE
:101300004A3384F84A3395F84B3384F84B3395F8D5
:101310004C3384F84C3395F84D3384F84D3395F8BD
:101320004E3384F84E3395F84F3384F84F3395F8A5
:101330005013D5F8542395F8583384F8583384F86B
:101340005013C4F8542395F8593384F8593304F5ED
:10135000577205F5567104F24C4351F8040F42F8E8
:10136000040B9342F9D105F5896204F23C5052F81E
:10137000041F43F8041B8342F9D105F23B5204F5E4
:10138000AF6012F8011F03F8011B8342F9D105F287
:10139000745104F5CD6251F8040F43F8040B9A42DE
:1013A000F9D1134604F5EB6005F2646252F8041FAC
:1013B00043F8041B9842F9D195F8583784F8583708
:1013C000B5F85A17B5F85C27B5F85E37A4F85E375C
:1013D000A4F85A17A4F85C2795F8603784F86037AA
:1013E00095F8613784F8613795F8623784F8623789
:1013F00095F8633784F8633795F8643784F8643771
:1014000005F2647104F5ED6304F5F16251F8040F1F
:1014100043F8040B9A42F9D105F2847104F5F5639F
:1014200051F8040F42F8040B9342F9D105F2A4726B
:1014300004F5F96052F8041F43F8041B8342F9D104
:1014400005F2C47204F5FD6052F8041F43F8041B52
:101450008342F9D105F2E47204F6080052F8041F41
:1014600043F8041B8342F9D105F6040204F6280070
:1014700052F8041F43F8041B8342F9D195F8283829
:1014800084F8283895F8293884F8293895F82A08F6
:10149000D5F8303895F82B18D5F82C28C4F82C2816
:1014A00084F82A0884F82B18C4F8303895F83438B2
:1014B00084F8343895F8353884F8353895F8363866
:1014C00084F8363895F8373884F8373895F838384E
:1014D00084F8383895F8393884F8393895F83A3836
:1014E00084F83A382046F8BD30B51D4D1D4C83B008
:1014F0000023284601AA962123708DF804308DF828
:1015000005308DF8063008F0A9FE28461649FFF789
:1015100087FD95F8C7313BB1144C15492046FFF7BC
:101520007FFD022384F8C631002401AA96210E48CB
:101530008DF804408DF805408DF8064008F08EFEC9
:1015400001AA96210A488DF804408DF805408DF8CF
:10155000064008F083FE85F8C64103B030BD00BFE9
:101560006CA2FF1FD090FF1F8488FF1FD891FF1F20
:101570002C9AFF1F2DE9F0432F4D304E304C314F48
:1015800085B005F5E178324629463B78DFF8B4901E
:1015900003A8033508F054FF9DF80C109DF80D20AA
:1015A0009DF80E30217045456270A37006F1030668
:1015B00004F10304E7D1244E3368DB071FD5234D24
:1015C000234C2B68039394E80600039B5B1A934219
:1015D0000CD33B782A6802920133029A2260DBB274
:1015E0003B70FF2B06D005B0BDE8F08399F80030C2
:1015F000FF2BF8D1FFF778FF05B0BDE8F083304648
:1016000009F068FE114D50B9114C2B68039394E812
:101610000600039B5B1A9342DBD23B78E1E70D4B5C
:101620002A681B780A4C0192019A22609B0030467E
:10163000636009F055FEE8E76CA2FF1F8488FF1F76
:10164000A8AAFF1F8288FF1FC491FF1FE8ACFF1FDD
:10165000D490FF1F199AFF1F2DE9F04F944E96F872
:1016600000C01FFA8CF385B0002B00F01E8103F13F
:10167000FF3B1FFA8BFB8F488F490BF1010B0BEBE4
:101680004B0B834402460D460C46177892F801A096
:1016900092F802902770033290F8BF8190F8C0E171
:1016A00090F8C17184F801A05A4584F80290A0F125
:1016B000030081F8BF8181F8C0E181F8C17104F1B4
:1016C0000304A1F10301E0D14A2B27D87B48C3F1E1
:1016D000950203EB430102EB420200EB010800EB31
:1016E000020E01336F1810F801B005F801B0AC1804
:1016F0009BB298F801A098F802909EF801B010F8FB
:1017000002809EF8021087F801A04B2B87F8029008
:1017100005F8028084F801B0A170D8D10CF1FF3A2D
:101720000AEB4A0A802405EB0A0B5946234603A814
:1017300002AA00278DF809408DF80A408DF808703C
:1017400008F07EFE96F800809DF80C309DF80D2084
:101750009DF80E0005F80A30C8F1960808EB480815
:1017600005EB0809494623468BF801208BF8020057
:1017700002AA03A88DF808708DF809408DF80A4078
:1017800008F05EFE32789DF80C1005F80810C2F1E2
:1017900095019DF80D0089F8010002EB420C01EB68
:1017A00041019DF80E3089F8023005EB0C0E6818E7
:1017B000FF23492A05F80C30DFF8FC808EF8013051
:1017C0008EF80230DFF8E8906B54437083702ED9A6
:1017D0003B4F3B68DB0717D53A4D3B4C2B680393D7
:1017E00094E80600039B5B1A9342337806D32A6879
:1017F0000292013B029A2260DBB233700BB9FFF711
:1018000073FE05B0BDE8F08F384609F063FD2D4D3D
:101810000028E2D02D4B2A681B782B4C0192019AAC
:1018200022609B003846636009F05AFDD6E7551CDC
:1018300005EB450508EB050A5146234602AA03A815
:101840008DF808708DF809408DF80A4008F0F8FD11
:1018500099F800308DF80870C3F1940707EB47073B
:1018600008EB07099DF80CC09DF80DE09DF80EB03F
:1018700008F805C002AA2346494603A88AF801E0F1
:101880008AF802B08DF809408DF80A4008F0D8FDBA
:101890009DF80C109DF80D209DF80E3008F80710EB
:1018A00089F8012089F8023092E7034D0EE700BF66
:1018B0000C91FF1F6CA2FF1FA8AAFF1F8488FF1FA7
:1018C000C891FF1FE8ACFF1FE090FF1F199AFF1F90
:1018D0002DE9F04FA24B1D78ABB285B0002B00F084
:1018E000308103F1FF3B1FFA8BFB9E489E490BF1B1
:1018F000010B0BEB4B0B834402460C460E4692F851
:1019000000E092F801A092F8029086F800E003321D
:1019100090F8BF8190F8C0C190F8C1E186F801A0AD
:101920005A4586F80290A0F1030081F8BF8181F842
:10193000C0C181F8C1E106F10306A1F10301DED1C6
:101940004A2B28D88948C3F1950203EB430102EBE7
:10195000420200EB010800EB020C013304EB010E24
:1019600010F801B004F801B0A6189BB298F801A0D5
:1019700098F802909CF801B010F802809CF80210D0
:101980008EF801A04B2B8EF8029004F8028086F8A6
:1019900001B0B170D7D1002D40F08F800DF10C0A4D
:1019A0000DF1080B6E4B1B78C3F1950000EB400066
:1019B0005A1C03EB430304EB030E251802EB42020F
:1019C000802604EB02091746FF22E2544FF000087C
:1019D0008EF801208EF802203346225449466A7060
:1019E000AA7050465A468DF809608DF80A608DF845
:1019F000088008F025FD5A4B9DF80C101D789DF8C5
:101A00000DE08DF80880C5F1940505EB450504EB64
:101A1000050833468DF809608DF80A609DF80E6060
:101A2000E1555A465046414689F801E089F802607E
:101A300008F006FD4E4B9DF80C001B689DF80D103C
:101A40009DF80E206055DB07454888F8011088F89E
:101A5000022020D5474D484C2B68039394E806009C
:101A6000039B5B1A93420ED33D4B2A681B7802926C
:101A7000029A226001333A4ADBB213704A2B05D036
:101A800005B0BDE8F08F03784A2BF9D1FFF72CFDA4
:101A900005B0BDE8F08F3648364D09F01BFC002834
:101AA00051D1354C2B68039394E80600039B5B1AD5
:101AB0009342D9D22A4B1B78E0E7013D05EB45055F
:101AC000802604EB05090DF10C0A0DF1080B4FF00F
:101AD00000084946334650465A468DF808808DF82E
:101AE00009608DF80A6008F0ABFC1D4B9DF80C20D6
:101AF0001B789DF80DC09DF80EE08DF80880C3F1AD
:101B0000960303EB430304EB030862551F4641466B
:101B100033465A46504689F801C089F802E08DF8EC
:101B200009608DF80A6008F08BFC9DF80C109DF898
:101B30000D209DF80E30E15588F8012088F802301C
:101B400030E7094CFEE60D4B2A681B780A4C0192DF
:101B5000019A22609B000648636009F0C1FBA1E77F
:101B60000C91FF1F8488FF1FA8AAFF1F6CA2FF1FF4
:101B7000CC91FF1FE8ACFF1F1C9AFF1F199AFF1F93
:101B8000012806D003D3022801D1FFF7A1BEFFF739
:101B9000F1BCFFF761BD00BF10B5102104469448A9
:101BA0000AF030FC214600230A2292480AF03EFE49
:101BB000022191480AF026FC5C2C00F28182DFE8C9
:101BC00014F07A02750270026B02660261025C0216
:101BD000570252024D02480243023E0239023402C9
:101BE0002F022A02250220021B02160211020C02F9
:101BF00007020202FD01F801F301EE01E901E4012F
:101C0000DF01DA01D501D001CB01C601C101BC0160
:101C1000B701B201AD01A801A3019E019901940190
:101C20008F018A01850180017B01760171016C01C0
:101C3000670111010C0107010201FD00F800F3002A
:101C4000EE00E900E400DF00DA00D500D000CB00B0
:101C5000C600C100BC00B700B200AD00A800A300E0
:101C60009E00990094008F008A00850080007B0010
:101C7000760071006C00670062005D005F495D489E
:101C8000FEF7A2FE10BD5E495A48FEF79DFE10BD4C
:101C90005C495848FEF798FE10BD5B495548FEF771
:101CA00093FE10BD59495348FEF78EFE10BD5849AA
:101CB0005048FEF789FE10BD56494E48FEF784FE97
:101CC00010BD55494B48FEF77FFE10BD53494948AA
:101CD000FEF77AFE10BD52494648FEF775FE10BD6C
:101CE00050494448FEF770FE10BD4F494148FEF789
:101CF0006BFE10BD4D493F48FEF766FE10BD4C49D6
:101D00003C48FEF761FE10BD4A493A48FEF75CFECA
:101D100010BD49493748FEF757FE10BD47493548C1
:101D2000FEF752FE10BD46493248FEF74DFE10BD8B
:101D300044493048FEF748FE10BD43492D48FEF7A0
:101D400043FE10BD41492B48FEF73EFE10BD404901
:101D50002848FEF739FE10BD3E492648FEF734FEFE
:101D600010BD3D492348FEF72FFE10BD3B492148D9
:101D7000FEF72AFE10BD3A491E48FEF725FE10BDAB
:101D800038491C48FEF720FE10BD37491948FEF7B8
:101D90001BFE10BD35491748FEF716FE10BD34492D
:101DA0001448FEF711FE10BD32491248FEF70CFE32
:101DB00010BD31490F48FEF707FE10BD2F490D48F1
:101DC000FEF702FE10BD2E490A48FEF7FDFD10BDCC
:101DD0002C490848FEF7F8FD10BD2B490548FEF7D1
:101DE000F3FD10BD29490348FEF7EEFD10BD00BF0D
:101DF00090F200008C87FF1FA4F2000038F800006A
:101E00002CF800001CF800000CF80000F8F70000A7
:101E1000E0F70000C8F70000B8F70000A0F70000E6
:101E200094F7000088F7000070F7000064F70000E6
:101E300058F700004CF7000040F7000030F70000B2
:101E400024F7000010F7000004F70000F4F600008B
:101E5000E8F60000DCF60000D4F60000C0F6000052
:101E6000B0F600009CF6000090F6000084F600003A
:101E700078F6000068F6000054F6000048F600000E
:101E800038F600002CF600001CF6000010F60000EA
:101E90008E498F48FEF798FD10BD8E498C48FEF79D
:101EA00093FD10BD8C498A48FEF78EFD10BD8B490D
:101EB0008748FEF789FD10BD89498548FEF784FDF6
:101EC00010BD88498248FEF77FFD10BD86498048D5
:101ED000FEF77AFD10BD85497D48FEF775FD10BD02
:101EE00083497B48FEF770FD10BD82497848FEF7B4
:101EF0006BFD10BD80497648FEF766FD10BD7F4939
:101F00007348FEF761FD10BD7D497148FEF75CFD29
:101F100010BD7C496E48FEF757FD10BD7A496C48EC
:101F2000FEF752FD10BD79496948FEF74DFD10BD21
:101F300077496748FEF748FD10BD76496448FEF7CB
:101F400043FD10BD74496248FEF73EFD10BD734964
:101F50005F48FEF739FD10BD71495D48FEF734FD5D
:101F600010BD70495A48FEF72FFD10BD6E49584804
:101F7000FEF72AFD10BD6D495548FEF725FD10BD41
:101F80006B495348FEF720FD10BD6A495048FEF7E3
:101F90001BFD10BD68494E48FEF716FD10BD674990
:101FA0004B48FEF711FD10BD65494948FEF70CFD91
:101FB00010BD64494648FEF707FD10BD624944481C
:101FC000FEF702FD10BD61494148FEF7FDFC10BD62
:101FD0005F493F48FEF7F8FC10BD5E493C48FEF7FC
:101FE000F3FC10BD5C493A48FEF7EEFC10BD5B49BE
:101FF0003748FEF7E9FC10BD59493548FEF7E4FCC7
:1020000010BD58493248FEF7DFFC10BD5649304834
:10201000FEF7DAFC10BD55492D48FEF7D5FC10BD82
:1020200053492B48FEF7D0FC10BD52492848FEF713
:10203000CBFC10BD50492648FEF7C6FC10BD4F49E9
:102040002348FEF7C1FC10BD4D492148FEF7BCFCFA
:1020500010BD4C491E48FEF7B7FC10BD4A491C484C
:10206000FEF7B2FC10BD49491948FEF7ADFC10BDA2
:1020700047491748FEF7A8FC10BD46491448FEF72B
:10208000A3FC10BD44491248FEF79EFC10BD434915
:102090000F48FEF799FC10BD41490D48FEF794FC2E
:1020A00010BD40490A48FEF78FFC10BD3E49084864
:1020B000FEF78AFC10BD3D490548FEF785FC10BDC2
:1020C0003B490348FEF780FC10BD00BFFCF5000053
:1020D0008C87FF1FECF50000E0F50000D4F5000050
:1020E000C8F50000B4F50000A8F500009CF500005C
:1020F00090F5000078F5000070F5000008F600008B
:1021000064F5000058F5000044F5000030F50000CB
:1021100020F5000014F5000008F50000FCF40000B4
:10212000F0F40000E4F40000D8F40000CCF4000067
:10213000C0F40000B4F40000A8F400009CF4000017
:102140008CF4000078F400005CF4000044F400001B
:1021500028F4000018F4000008F40000F4F3000074
:10216000E4F30000DCF30000D4F30000BCF3000053
:10217000ACF30000A4F3000094F3000084F300002B
:1021800074F3000060F300004CF3000038F300002B
:1021900020F3000008F30000F8F20000E4F2000071
:1021A000D0F20000C0F20000B4F20000A8F200007B
:1021B00050F8000038B50021044698480AF022F98A
:1021C00097480AF023FB222196480AF01BF994480D
:1021D0000AF01CFB94F8C631002B00F0AF80012BF5
:1021E00000F04D85132190480AF00CF98F4B8C4874
:1021F00019780A2200230AF019FB03218C480AF0FF
:1022000001F987480AF002FB13218A480AF0FAF81C
:1022100000230A2294F8C31181480AF007FB032126
:1022200083480AF0EFF87E480AF0F0FA112182485C
:102230000AF0E8F894F8C51179480AF037FB032151
:102240007B480AF0DFF876480AF0E0FA11217B4873
:102250000AF0D8F894F82832012B74D00721784876
:102260000AF0D0F8032172480AF0CCF86C480AF062
:10227000CDFA142173480AF0C5F800230A2294F815
:102280002B1267480AF0D2FA032169480AF0BAF81B
:1022900063480AF0BBFA15216B480AF0B3F894F8CA
:1022A0002E125F480AF002FB032161480AF0AAF8E7
:1022B0005B480AF0ABFA112164480AF0A3F894F8DD
:1022C0002A1257480AF0F2FA032159480AF09AF8FC
:1022D00053480AF09BFA94F82A3253BB2221514802
:1022E0000AF090F84E480AF091FA94F82D321C2B1F
:1022F00000F2B784DFE813F0C000B504B504B504FC
:10230000B504B504B5043D01B504B504B504B50480
:102310009801B504B504B504A401AF01B101B3013E
:10232000F80179025803B403B504F30349047204B5
:102330002C0094F82902FFF72FFCCFE744493848D6
:10234000FEF742FB4EE743493548FEF72FFB89E78E
:1023500041493348FEF738FB40493148FEF726FB38
:1023600094F8C4112E480AF0A1FA31492C48FEF71E
:102370002BFB3B492A48FEF719FB00230A2294F85D
:10238000341827480AF052FA29492548FEF71CFB61
:1023900034492348FEF70AFB00230A2294F8351833
:1023A0001F480AF043FA22491D48FEF70DFB2E494B
:1023B0001B48FEF7FBFA00230A2294F83618184847
:1023C0000AF034FA1A491648FEF7FEFA274914486B
:1023D000FEF7ECFA00230A2294F8391810480AF0A4
:1023E00025FA13490E48FEF7EFFA21490C48FEF78B
:1023F000DDFA94F83A180A4800230A220AF016FA7D
:102400000B490748FEF7E0FA23211A4809F0FAFFC2
:102410000348BDE838400AF0F9B900BF24FA0000CB
:102420008C87FF1F68F80000D4F800001E87FF1F8C
:10243000E8F80000ECF8000000F9000014F90000D2
:1024400030F9000038F9000050F9000068F9000088
:102450008CF8000028F9000084010100E8F9000070
:10246000A8010100C0010100D8010100F001010034
:10247000080201004402010094F82C32042B00F001
:10248000B984062B0CBF824982498348FEF79CFA27
:1024900082498148FEF78AFA94F8C4117E480AF00E
:1024A00005FA7F497C48FEF78FFA7E497A48FEF7A5
:1024B0007DFA94F8351278480AF0F8F978497648A8
:1024C000FEF782FA78497448FEF770FA94F83612EB
:1024D00071480AF0EBF972496F48FEF775FA7349D3
:1024E0006D48FEF763FA00230A2294F830126A4816
:1024F0000AF09CF96A496848FEF766FA6C49664832
:10250000FEF754FA00230A2294F8311262480AF0C6
:102510008DF963496048FEF757FA66495E48FEF751
:1025200045FA00230A2294F832125B480AF07EF939
:102530005B495948FEF748FA5F495748FEF736FAB3
:1025400000230A2294F8331253480AF06FF95449D1
:102550005148FEF739FA59494F48FEF727FA94F8DF
:1025600034124D480AF0A2F94D494B48FEF72CFAB7
:102570004AE794F82C32082B00F01A840A2B00F05A
:102580003384072B03D14E494348FEF71DFA4349D4
:102590004148FEF70BFA94F8C4113F480AF086F957
:1025A0003F493D48FEF710FA46493B48FEF7FEF921
:1025B00094F87B1238480AF079F939493648FEF721
:1025C00003FA41493448FEF7F1F900230A2294F84E
:1025D000791231480AF02AF931492F48FEF7F4F907
:1025E0003A492D48FEF7E2F900230A2294F87812BE
:1025F00029480AF01BF92A492748FEF7E5F994F81B
:102600002C520A2D7FF400AF31492348FEF7CEF952
:1026100094F8311220482A4600230AF007F920498D
:102620001D48FEF7D1F9EFE694F82C320C3B032B52
:1026300000F27683DFE813F0D1037003CC03C70305
:1026400024491548FEF7C0F914491348FEF7AEF9BE
:1026500094F8C41185E72049F3E72049F1E72049C0
:102660000D48FEF7B1F90D490B48FEF79FF994F8B4
:10267000C41109480AF01AF909490748FEF7A4F9F4
:1026800018490548FEF792F994F83A13B3E600BFEB
:10269000A0F90000C4F900008C87FF1FE8F90000D2
:1026A000E8F8000000FA000014FA000028FA000020
:1026B0003CFA00004CFA00005CFA00006CFA0000E2
:1026C00084FA0000F0FA000000FB000010FB00009C
:1026D00020FB000028FC00004CFC000070FC000007
:1026E00094FC0000B8FC000097499848FEF76CF98C
:1026F00097499648FEF75AF994F8C41193480AF09E
:10270000D5F894499148FEF75FF993498F48FEF751
:102710004DF900230A2294F83B138C480AF086F8FE
:102720008C498A48FEF750F98C498848FEF73EF9F3
:1027300000230A2294F83C1384480AF077F885496C
:102740008248FEF741F986498048FEF72FF90023B9
:102750000A2294F83D137D480AF068F87D497B48C9
:10276000FEF732F97F497948FEF720F900230A2263
:1027700094F83E1375480AF059F876497348FEF705
:1027800023F979497148FEF711F900230A2294F8D8
:1027900042136E480AF04AF86E496C48FEF714F985
:1027A00072496A48FEF702F900230A2294F83F139F
:1027B00066480AF03BF867496448FEF705F96C493A
:1027C0006248FEF7F3F800230A2294F84B135F489F
:1027D0000AF02CF85F495D48FEF7F6F865495B485A
:1027E000FEF7E4F894F84C1305E663495748FEF702
:1027F000EBF857495548FEF7D9F894F8C4115348F7
:102800000AF054F853495148FEF7DEF85B494F4847
:10281000FEF7CCF800230A2294F843134B480AF041
:1028200005F84C494948FEF7CFF855494748FEF7A7
:10283000BDF800230A2294F84913444809F0F6FF32
:1028400044494248FEF7C0F84E494048FEF7AEF80A
:1028500000230A2294F83C133C4809F0E7FF3D4965
:102860003A48FEF7B1F848493848FEF79FF8002388
:102870000A2294F84513354809F0D8FF3549334802
:10288000FEF7A2F841493148FEF790F800230A22EA
:1028900094F83E132D4809F0C9FF2E492B48FEF746
:1028A00093F83B492948FEF781F800230A2294F85F
:1028B0004613264809F0BAFF26492448FEF784F853
:1028C00034492248FEF772F800230A2294F83D1397
:1028D0001E4809F0ABFF1F491C48FEF775F82E494A
:1028E0001A48FEF763F800230A2294F847131748A2
:1028F00009F09CFF17491548FEF766F82749134869
:10290000FEF754F800230A2294F842130F4809F006
:102910008DFF10490D48FEF757F821490B48FEF787
:1029200045F800230A2294F84813084809F07EFF6E
:1029300008490648FEF748F81A490448FEF736F8F1
:1029400094F83F1357E500BFA0FD00008C87FF1FE0
:10295000E8F90000E8F80000C4FD0000D8FD000020
:10296000ECFD000000FE000014FE000028FE000048
:102970003CFE000050FE000064FE000088FE0000E7
:102980009CFE0000B0FE0000C4FE0000D8FE000067
:10299000ECFE000000FF000014FF000028FF000014
:1029A0003CFF000050FF0000B849B948FEF70CF8A2
:1029B000B849B748FDF7FAFF94F85033012B00F0FF
:1029C000FD81C0F00F82022B07D1B349B048FDF75B
:1029D000EDFFB249AE48FDF7F7FFB149AC48FDF74E
:1029E000E5FF00230A2294F84D13A94809F01EFFC1
:1029F000AA49A748FDF7E8FFAA49A548FDF7D6FF71
:102A000000230A2294F85913A14809F00FFFA349A3
:102A10009F48FDF7D9FFA4499D48FDF7C7FF002354
:102A20000A2294F858179A4809F000FF9B499848E1
:102A3000FDF7CAFF9D499648FDF7B8FF00230A221B
:102A4000D4F85413924809F0F1FE94499048FDF7E8
:102A5000BBFF97498E48FDF7A9FF94F8C71180E5A1
:102A600094498B48FDF7B0FF93498948FDF79EFFD5
:102A700094F8C411864809F019FF88498448FDF785
:102A8000A3FF8E498248FDF791FFB4F85A1780489A
:102A900009F00CFF81497E48FDF796FF88497C4884
:102AA000FDF784FFB4F85C17794809F0FFFE7B4915
:102AB0007748FDF789FF83497548FDF777FFB4F83C
:102AC0005E17734809F0F2FE74497148FDF77CFF08
:102AD0007D496F48FDF76AFF94F861178BE47B49E5
:102AE0006B48FDF771FF7A496948FDF75FFF0023E6
:102AF0000A2294F83212664809F098FE6749644841
:102B0000FDF762FF73496248FDF750FF00230A2278
:102B100094F83A125E4809F089FE60495C48FDF776
:102B200053FF6D495A48FDF741FF00230A2294F8EC
:102B30003112574809F07AFE58495548FDF744FFCD
:102B400066495348FDF732FF00230A2294F87912B0
:102B50004F4809F06BFE51494D48FDF735FF60497C
:102B60004B48FDF723FF00230A2294F83812484807
:102B700009F05CFE49494648FDF726FF594944489B
:102B8000FDF714FF94F87712EBE457494048FDF73E
:102B90001BFF56493E48FDF709FF00230A2294F81F
:102BA00063173B4809F042FE3C493948FDF70CFFEA
:102BB0004F493748FDF7FAFE00230A2294F86417BC
:102BC000334809F033FE35493148FDF7FDFE4949E8
:102BD0002F48FDF7EBFE94F82A12C2E446492C4830
:102BE000FDF7F2FE34492A48FDF7E0FE94F8C411DF
:102BF000274809F05BFE29492548FDF7E5FE3F49D6
:102C00002348FDF7D3FE00230A2294F82818204811
:102C100009F00CFE21491E48FDF7D6FE38491C4834
:102C2000FDF7C4FE00230A2294F82918184809F079
:102C3000FDFD1A491648FDF7C7FE32491448FDF755
:102C4000B5FE94F82A18124809F030FE13491048CE
:102C5000FDF7BAFE2C490E48FDF7A8FE94F82B1894
:102C60007FE42A490A48FDF7AFFE29490848FDF7E5
:102C7000ABFE26490648FDF7A7FEFFF7C5BB254971
:102C80000348FDF7A1FEFFF7ADBA00BFD0FC00007E
:102C90008C87FF1FF4FC000008FD0000E8F800002E
:102CA00024FD00003CFD000054FD00006CFD000010
:102CB00088FD000064FF0000E8F9000088FF0000C4
:102CC000A0FF0000B8FF0000CCFF0000E0FF000004
:102CD000040001001C000100340001004C00010050
:102CE000640001007800010090000100B4000100C0
:102CF000C4000100E0000100F80001001C01010017
:102D000034010100500101006C01010024FA0000AF
:102D100020020100B0F8000039493A48FDF754FE9E
:102D200039493848FDF742FE00230A2294F87C1204
:102D3000344809F07BFD35493248FDF745FE3449FA
:102D40003048FDF733FE00230A2294F87E122D4806
:102D500009F06CFD2D492B48FDF736FE94F816530B
:102D60003DB12C492748FDF721FE94F81613FFF7D3
:102D7000F8BB29492348FDF719FE2B460A2294F88F
:102D80007D12204809F052FD20491E48FDF71CFE27
:102D900022491C48FDF70AFE94F87F1219482B4679
:102DA0000A2209F043FD19491648FDF70DFED8E740
:102DB0001B491448FDF708FEFFF7E9BB1949114804
:102DC000FDF702FE09E618490E48FDF7FDFDA7E7ED
:102DD00016490C48FDF7F8FDA2E715490948FDF72B
:102DE000F3FD9DE71349F1E513490648FDF7ECFDB6
:102DF000FFF7CDBB11490348FDF7E6FDFFF748BBE0
:102E00005CFB00008C87FF1FC8FB0000E8F8000097
:102E1000DCFB000018FC0000F0FB000004FC0000DC
:102E2000A8FA000018FD0000A4FB000080FB0000D1
:102E300038FB000010FD0000CCFA00007CF9000017
:102E400038B51C4D044634211B4809F0DBFA2846EE
:102E500009F0DCFC3321194809F0D4FA284609F0BE
:102E6000D5FC3321164809F0CDFA284609F0CEFCEE
:102E70001448154A03881178144D03EB432203EBE1
:102E8000820303F5585319339BB203EB1322D2B2DA
:102E900012FB01F21212038084F8292255F8221045
:102EA00004F5FC70FDF74CFE94F82902BDE83840AB
:102EB000FEF772BE8C87FF1F68020100A0020100AE
:102EC000D40201008487FF1F5087FF1F18EB00000A
:102ED000244B254A1B7800211170072B09D8DFE805
:102EE00003F0131C252E34043A0A204B1B8880F86B
:102EF0003232FFF75FB91D4B1B88003318BF012327
:102F000080F83432FFF756B9184B1B88003318BFCE
:102F1000012380F8C431FFF74DB9144B1B880033EF
:102F200018BF012380F83532FFF744B90F4B1B88D7
:102F3000003318BF012380F83632FFF73BB90B4B43
:102F40001B8880F83032FFF735B9084B1B8880F8B2
:102F50003132FFF72FB9054B1B8880F83332FFF76A
:102F600029B900BF189AFF1FD191FF1FD290FF1FF0
:102F70002DE9F04790F82E3284B00446002B40F043
:102F8000A980CC4E80F82D32338803EB432003EB2D
:102F9000800000F55850193080B200EB402500EB5E
:102FA000850505F558551935ADB205EB452305EBFB
:102FB000830303F55853193303EB432203EB8203D6
:102FC00003F5585319339BB203EB432103EB810103
:102FD00001F55851193189B201EB412201EB82020E
:102FE00002F55852193292B202EB422E02EB8E0ECB
:102FF0000EF5585E0EF1190E1FFA8EFE0EEB4E2CDA
:103000000EEB8C0C0CF5585C0CF1190C1FFA8CFCB7
:1030100003EB13230CEB4C2802EB12220CEB880879
:10302000DFB201EB1121D3B207EB870708F558583F
:10303000C9B201EB810103EB43033A120EEB1E2EE2
:1030400008F119081FFA88F8C1F3C71701321911DE
:10305000CEF3C01E00EB102005EB1525C0F3C01009
:10306000C5F3C01520310EF101030CEB1C2C84F8C4
:10307000302208EB1822DBB2CCF3C01C84F83502F6
:1030800084F83652C2F3C01284F8321207F10A05EE
:1030900001210F2084F83332A6F8008084F8C4217F
:1030A00084F834C284F8315284F82E1284F82A123B
:1030B00084F8C301BCF1000F04D003EB83038B4001
:1030C00084F8333294F82C32062B00F00E83042B54
:1030D00000F01283784B1B78002B40F0028394F8A9
:1030E0003432D3B1754B94F82912002203F1270032
:1030F00084F82F2201E098420FD013F8012F8A4262
:10310000F9D194F833326E4AA2FB0323DB08013372
:10311000002284F8333284F8342294F83222962143
:10312000204607F05DF994F8356294F83632002EA7
:1031300040F0B08094F83022002B00F01581002A76
:1031400000F0EB81DFF88091DFF880815D4F04F5BE
:10315000E4755FE094F8313232441344D9F800202A
:103160000392FF2B039998BF1B024FF48C7202FB52
:1031700001F298BF9BB203FB02F31B0C5904C3F38B
:10318000CA0203D5C2F5FF62073292B2110AC2F336
:10319000460218F8010037F8111000FB02121B0458
:1031A00092B248BF524294F8281294F8C2310FFAF2
:1031B00082FA02A894F82F220091294607F070F9AC
:1031C000AAF500439AB2962303FB02F31B0C03EB10
:1031D0004303E118E25C9DF8080082FA50F2E254E1
:1031E0009DF809304A7882FA53F24A708B789DF83C
:1031F0000A2083FA52F38B7094F82F1294F833322A
:1032000094F830220136F6B20B44B24284F82F32E1
:1032100040F2838194F8C431002B9BD194F83102A1
:103220003244194610444A22FDF7EAF994F828126C
:1032300094F8C23194F82F2200918246294602A8C0
:1032400007F02EF90AEB4A03E118E25C9DF808004A
:1032500082FA50F2E2549DF809304A7882FA53F229
:103260004A708B789DF80A2083FA52F38B702246BD
:1032700004F1E1002346197882F8BF11597882F8E9
:10328000C011997882F8C11103339842A2F1030268
:10329000F1D1B1E7002B00F0E78094F83032002B39
:1032A00000F03B81002704F5E47503AE4FF4FA7893
:1032B00048E000BF8487FF1FD191FF1F5B87FF1F7E
:1032C000CDCCCCCC6CE50000E8ACFF1F30ED0000AD
:1032D00008FB07F3002900F05A819522002194F899
:1032E0003102FDF707F994F8281294F8C23194F8E6
:1032F0002F22009181462946304607F0D1F809EB8C
:103300004903E118E25C9DF80C0082FA50F2E254A5
:103310004A789DF80D3082FA53F24A708B789DF806
:103320000E2083FA52F38B7094F82F1294F83332F4
:1033300094F830220137FFB20B44BA4284F82F329E
:1033400040F2EB8094F8C53194F8C411002BBFD142
:10335000002900F08B811946952208FB07F394F8A9
:103360003102FDF709F9BEE7002A00F0D680984641
:1033700004F5E47503AE04F1E10736E0952200217F
:1033800094F83102FDF73CF994F8281294F8C23110
:1033900094F82F22009181462946304607F080F8A4
:1033A00009EB4903E118E25C9DF80C0082FA50F247
:1033B000E2549DF80D304A7882FA53F24A708B78C5
:1033C0009DF80E2083FA52F38B7094F82F1294F824
:1033D000333294F8302208F101085FFA88F80B4480
:1033E000424584F82F3240F2988094F8C4114FEA95
:1033F000483303F460430029C0D14A2294F83102D3
:10340000FDF7FEF894F8281294F8C23194F82F22B0
:10341000009181462946304607F042F809EB4903FE
:10342000E118E25C9DF80C0082FA50F2E2549DF83B
:103430000D304A7882FA53F24A708B789DF80E204C
:1034400083FA52F38B7022462346197882F8BF1113
:10345000597882F8C011997882F8C1110333BB42C0
:10346000A2F10302F1D1B0E794F83022002A54D03F
:10347000984604F5E47503AE04F1E1073CE094F8E6
:10348000C43194F831024244002B49D00023104447
:1034900019469522FDF72EF894F8281294F8C231B7
:1034A00094F82F22009181462946304606F0F8FF15
:1034B00009EB4903E118E25C9DF80C0082FA50F236
:1034C000E2544A789DF80D3082FA53F24A708B78B4
:1034D0009DF80E2083FA52F38B7094F82F1294F813
:1034E000333294F8302208F101085FFA88F80B446F
:1034F000424584F82F3210D994F8C531002BBED143
:1035000094F8310294F8C41142441044002977D051
:1035100019469522FDF730F8BEE704B0BDE8F08704
:10352000194610444A22FCF7E5FF94F8281294F853
:10353000C23194F82F22009181462946304606F088
:10354000AFFF09EB4903E118E25C9DF80C0082FA39
:1035500050F2E2549DF80D304A7882FA53F24A70E4
:103560008B789DF80E2083FA52F38B702246234607
:10357000197882F8BF11597882F8C011997882F8C9
:10358000C11103339F42A2F10302F1D1A5E74A2200
:1035900094F83102FCF7AEFF94F8281294F8C23187
:1035A00094F82F22009181462946304606F078FF94
:1035B00009EB4903E118E25C9DF80C0082FA50F235
:1035C000E2549DF80D304A7882FA53F24A708B78B3
:1035D0009DF80E2083FA52F38B7004F1E10023462C
:1035E0002246197882F8BF11597882F8C01199786B
:1035F00082F8C11103339842A2F10302F1D193E69C
:103600000B464A22FCF7B8FF94F8281294F8C2310E
:1036100094F82F22009181462946304606F040FF5B
:1036200009EB4903E118E25C9DF80C0082FA50F2C4
:10363000E2549DF80D304A7882FA53F24A708B7842
:103640009DF80E2083FA52F38B7022462346197898
:1036500082F8BF11597882F8C011997882F8C111A7
:1036600003339F42A2F10302F1D136E708FB07F3CF
:103670004A2294F83102FCF77FFF94F8281294F85C
:10368000C23194F82F22009181462946304606F037
:1036900007FF09EB4903E118E25C9DF80C0082FA90
:1036A00050F2E2549DF80D304A7882FA53F24A7093
:1036B0008B789DF80E2083FA52F38B7004F1E100B1
:1036C00023462246197882F8BF11597882F8C01132
:1036D000997882F8C11103338342A2F10302F1D138
:1036E00022E62046FFF7F4FBF9E441370F2384F884
:1036F000317284F83032EDE42046FCF7C9FEE9E48B
:103700002DE9F04F90F82E328DB00446002B40F09A
:10371000A980CC4E80F82D32338803EB432003EB95
:10372000800000F55850193080B200EB402500EBC6
:10373000850505F558551935ADB205EB452305EB63
:10374000830303F55853193303EB432203EB82033E
:1037500003F5585319339BB203EB432103EB81016B
:1037600001F55851193189B201EB412201EB820276
:1037700002F55852193292B202EB422E02EB8E0E33
:103780000EF5585E0EF1190E1FFA8EFE0EEB4E2C42
:103790000EEB8C0C0CF5585C0CF1190C1FFA8CFC20
:1037A00003EB13270CEB4C2802EB12220CEB8808DE
:1037B00001EB1121FFB2D3B207EB870708F5585888
:1037C000C9B201EB810103EB43033A120EEB1E2E4B
:1037D00008F119081FFA88F8C1F3C7170132191147
:1037E000CEF3C01E00EB102005EB1525C0F3C01072
:1037F000C5F3C01520310EF101030CEB1C2C84F82D
:10380000302208EB1822DBB2CCF3C01C84F835025E
:1038100084F83652C2F3C01284F8321207F10A0556
:1038200001210F2084F83332A6F8008084F8C421E7
:1038300084F834C284F8315284F82E1284F82A12A3
:1038400084F8C301BCF1000F04D003EB83038B4069
:1038500084F8333294F82C32062B00F08A83042B40
:1038600000F08E83784B1B78002B40F0AE8294F8EA
:10387000343213B1002384F82F32962194F8322287
:10388000204606F0ADFD94F8C57194F83012002F73
:1038900040F0AF81002900F077836C4B029394F8DD
:1038A0002F22DFF8AC91DFF8ACB10BAB04F5E47874
:1038B00003934FF0260A94F83102BEB28B19D9F85F
:1038C000001007910344FF2B079998BF1B024FF488
:1038D0008C7098BF9BB200FB01F103FB01F3C3F3B3
:1038E0000E43A3F580439BB25D04C3F3CA0103D525
:1038F000C1F5FF61073189B24FEA112EC1F34600CD
:1039000002991BF80E5031F81E1005FB001189B208
:1039100018044CBF4D420DB294F8281294F8C231ED
:103920000398009148BF2DB2414606F0B9FDA5F5B8
:1039300000439BB20AFB03F31B0C25339BB203EB42
:103940004303E118E25C9DF82C0082FA50F2E25445
:103950009DF82D304A7882FA53F24A708B789DF8A0
:103960002E2083FA52F38B7094F8312294F830327F
:1039700016441E44D9F800300693FF2E069B98BFCC
:1039800036024FF48C7298BFB6B202FB03F306FB0B
:1039900003F3C3F30E4303F580435904C3F3CA0290
:1039A00003D5C2F5FF62073292B2100AC2F3460194
:1039B000029A1BF8005032F81020039805FB0122F0
:1039C0001E0492B248BF554294F8281294F8C231AE
:1039D00054BF15B22DB294F82F220091414606F043
:1039E0005FFDA5F500439BB20AFB03F31B0C03EB41
:1039F0004303E118E25C9DF82C0082FA50F2E25495
:103A00009DF82D304A7882FA53F24A708B789DF8EF
:103A10002E2083FA52F38B7094F82F1294F83322ED
:103A200094F8303201370A44FFB2D2B2BB4284F874
:103A30002F2219463FF63FAF94F8C421002A00F028
:103A4000B08109E08487FF1FD191FF1F6CE5000062
:103A5000E8ACFF1F30ED000094F8C571002F40F076
:103A6000BF81002B00F0C28094F82F224FF48C7A93
:103A700094F8311201330B44BEB2D9F800100B9107
:103A800033449BB2FF2B0B999CBF1B029BB20AFBDA
:103A900001F103FB01F3C3F30E43A3F580439BB293
:103AA0005D04C3F3CA0103D5C1F5FF61073189B2D3
:103AB000C1F3460E080A02991BF8005031F81000B5
:103AC00094F8281205FB0E05ADB2180448BF6D42EC
:103AD00094F8C231009109A841462DB206F0E0FCED
:103AE000A5F5004326229BB202FB03F31B0C7033A7
:103AF0009BB203EB4303E118E25C9DF8240082FAD9
:103B000050F2E2549DF825304A7882FA53F24A7016
:103B10008B789DF8262083FA52F38B7094F831222B
:103B200094F83032134401331E44D9F800300A931C
:103B3000B6B2FF2E0A9A9CBF3602B6B20AFB02F258
:103B400006FB02F2C2F30E4202F580425104C2F3B8
:103B5000CA0303D5C3F5FF6307339BB2180AC3F347
:103B60004601029B1BF8005033F8103005FB01336F
:103B700012049BB248BF5B4294F8281294F82F229B
:103B80001DB209A894F8C2310091414606F088FCA4
:103B9000A5F500439BB203EBC30203EB82031B0CAE
:103BA0004B339BB203EB4303E118E25C9DF8240026
:103BB00082FA50F2E2549DF825304A7882FA53F2A4
:103BC0004A708B789DF8262083FA52F38B7094F814
:103BD0002F1294F8332294F8303201370A44FFB29E
:103BE000D2B2BB4284F82F223FF642AF0DB0BDE8FF
:103BF000F08F002900F0C881764B029394F82F22B1
:103C0000DFF8D491DFF8D4B10BAB04F5E4780027EA
:103C100003934FF0260A94F83102BEB28B19D9F8FB
:103C2000001005910344FF2B059998BF1B024FF428
:103C30008C7098BF9BB200FB01F103FB01F3C3F34F
:103C40000E4303F580435D04C3F3CA0103D5C1F5F8
:103C5000FF61073189B24FEA112EC1F34600029984
:103C60001BF80E5031F81E1005FB001189B2180424
:103C70004CBF4D420DB294F8281294F8C23103980B
:103C8000009148BF2DB2414606F00AFCA5F500435D
:103C90009BB20AFB03F31B0C25339BB203EB4303DC
:103CA000E118E25C9DF82C0082FA50F2E2549DF893
:103CB0002D304A7882FA53F24A708B789DF82E2084
:103CC00083FA52F38B7094F8312294F83032164410
:103CD0001E44D9F800300493FF2E049B98BF36028F
:103CE0004FF48C7298BFB6B202FB03F306FB03F3EA
:103CF000C3F30E43A3F580439BB25904C3F3CA0236
:103D000003D5C2F5FF62073292B2100AC2F3460130
:103D1000029A1BF8005032F81020039805FB01228C
:103D20001E0492B248BF554294F8281294F8C2314A
:103D300054BF15B22DB294F82F220091414606F0DF
:103D4000AFFBA5F500439BB20AFB03F31B0C03EB8F
:103D50004303E118E25C9DF82C0082FA50F2E25431
:103D60009DF82D304A7882FA53F24A708B789DF88C
:103D70002E2083FA52F38B7094F82F1294F833228A
:103D800094F8303201370A44FFB2D2B2BB4284F811
:103D90002F2219463FF63FAF94F8C421002A7FF442
:103DA0005BAE04F1E1012346227883F8BF216278FB
:103DB00083F8C021A27883F8C1210334A142A3F182
:103DC0000303F1D10DB0BDE8F08F2046FFF780F876
:103DD0004DE500BF6CE50000E8ACFF1F30ED0000D2
:103DE000002B3FF403AF94F82F2200274FF48C7A76
:103DF00094F8311201330B44BEB2D9F80010099186
:103E000033449BB2FF2B09999CBF1B029BB20AFB58
:103E100001F103FB01F3C3F30E4303F580435D049B
:103E2000C3F3CA0103D5C1F5FF61073189B2C1F3FC
:103E3000460E080A02991BF8005031F8100094F859
:103E4000281205FB0E05ADB2180448BF6D4294F868
:103E5000C231039800912DB2414606F021FBA5F531
:103E6000004326229BB202FB03F31B0C70339BB270
:103E700003EB4303E118E25C9DF82C0082FA50F258
:103E8000E2549DF82D304A7882FA53F24A708B78CA
:103E90009DF82E2083FA52F38B7094F8312294F817
:103EA0003032134401331E44D9F800300893B6B2BF
:103EB000FF2E089B9CBF3602B6B20AFB03F306FB3B
:103EC00003F3C3F30E43A3F580439BB25904C3F33A
:103ED000CA0203D5C2F5FF62073292B20298110AF4
:103EE000C2F346021BF8015030F81110039805FB8D
:103EF00002151E04ADB248BF6D422DB294F82812CF
:103F000094F8C23194F82F220091A5F5004541465E
:103F1000ADB206F0C5FA05EBC50305EB83031B0C38
:103F20004B339BB203EB4303E118E25C9DF82C009A
:103F300082FA50F2E2549DF82D304A7882FA53F218
:103F40004A708B789DF82E2083FA52F38B7094F888
:103F50002F1294F8332294F8303201370A44FFB21A
:103F6000D2B2BB4284F82F223FF642AF0DB0BDE87B
:103F7000F08F41370F2384F8317284F8303271E4C6
:103F80002046FCF785FA6DE494F8C431002B3FF429
:103F900008AF2BE62DE9F04F90F82E3289B0054698
:103FA000002B40F0A980BD4E80F82D32338803EB02
:103FB000432003EB800000F55850193080B200EB2D
:103FC000402400EB840404F558541934A4B204EBE3
:103FD000442304EB830303F55853193303EB4322C3
:103FE00003EB820303F5585319339BB203EB4321D0
:103FF00003EB810101F55851193189B201EB4122DE
:1040000001EB820202F55852193292B202EB422EB3
:1040100002EB8E0E0EF5585E0EF1190E1FFA8EFE93
:104020000EEB4E2C0EEB8C0C0CF5585C0CF1190CB5
:104030001FFA8CFC03EB13270CEB4C2802EB12222B
:104040000CEB880801EB1121FFB2D3B207EB870715
:1040500008F55858C9B201EB810103EB43033A124A
:104060000EEB1E2E08F119081FFA88F8C1F3C717C6
:1040700001321911CEF3C01E00EB102004EB142402
:10408000C0F3C010C4F3C01420310EF101030CEBD7
:104090001C2C85F8302208EB1822DBB2CCF3C01CB4
:1040A00085F8350285F83642C2F3C01285F832121F
:1040B00007F10A0401210F2085F83332A6F80080A9
:1040C00085F8C42185F834C285F8314285F82E126E
:1040D00085F82A1285F8C301BCF1000F04D003EB68
:1040E00083038B4085F8333295F82C32062B00F091
:1040F000BE80042B00F0C280694B1B78002B40F07F
:10410000B28095F83222674F9621284606F068F96A
:1041100095F83032002B74D0DFF898B1039705F58D
:10412000E47900224FF04B084FF48C7A95F8311265
:1041300098FBF3F390B210FB03F6541C084414FBF5
:1041400003F3FF2899B29CBF030298B2039B1B683C
:104150000793079B0AFB03F300FB03F34FEA134E9D
:104160001EF4804FB6B2CEF3CA0003D0C0F5FF6094
:10417000073080B24FEA102C4B4F1BF80C3037F849
:104180001CC0C0F3460003FB00C01EF4004F83B206
:1041900018BF5B42F0431BB20144A3F5004395F8FE
:1041A000330295F82FE29BB289B201FB033100FB89
:1041B00002E206EB114695F8281295F8C2310091FB
:1041C00006A84946B6B2D2B206F06AF906EB460333
:1041D000E918EA5C9DF8180082FA50F2EA549DF85A
:1041E00019304A7882FA53F24A708B789DF81A2077
:1041F00083FA52F38B7095F83032E2B2934295D83D
:10420000039F2A4605F1E1002B46197882F8BF1179
:10421000597882F8C011997882F8C1110333984215
:10422000A2F10302F1D1214E3368DB0714D53B68BC
:104230001F4C069394E80600069B5B1A934208D332
:104240003A6895F82F320592059A2260013385F875
:104250002F3209B0BDE8F08F304607F03BF888B93F
:10426000134C3B68E5E72846FEF732FE49E7413745
:104270000F2385F8317285F830323DE72846FCF788
:1042800007F939E73B680A4C0493049B23604FF419
:10429000FA733046636007F023F8E2E78487FF1F74
:1042A000D191FF1FE8ACFF1F6CE50000149AFF1FBF
:1042B000FC90FF1F30ED00001A4B1B4A1B780021B9
:1042C0001170042B08D8DFE803F00F1E0327090044
:1042D000164B1B8880F87932FDF76CBF134B1B8897
:1042E00080F83132FDF766BF104B1B88002B14BFDE
:1042F0000123002380F8C43114BF96234B23A0F878
:104300003833FDF757BF094B1B88003318BF012313
:1043100080F87B32FDF74EBF044B1B8880F8783263
:10432000FDF748BF189AFF1FD191FF1FD290FF1FC2
:1043300090F82E322DE9F0410446002B5CD16948FB
:1043400084F82A32038803EB432203EB820303F54C
:10435000585319339BB203EB432203EB820202F55D
:104360005852193292B202EB422102EB810101F55F
:104370005851193189B201EB412601EB860606F549
:10438000585603EB1323DBB21936B6B203EBC3075F
:1043900006EB162503EB4703EDB21B1205EB850573
:1043A00001334FF0010E01EB1121ED11DBB2C1F32E
:1043B000C0170680033507260F207345E9B284F83D
:1043C000C47184F82EE284F87BE284F82D6284F8CC
:1043D000C30100F0858002EB1222D2B202EB42024E
:1043E00012127244D2B284F8793284F8782284F8B6
:1043F00031122046FDF7DEFE3B4B1B78002B6BD1C4
:1044000094F8C53143BB94F87A2294F878321A4470
:1044100094F87B32D2B284F87A224BBB94F8C43140
:10442000002B51D194F879324B21204605F026FF1C
:10443000204604F1E1012346027883F8BF21427847
:1044400083F8C021827883F8C12103308842A3F128
:104450000303F1D1BDE8F08194F87A3294F8782220
:104460009A1A94F87B32D2B284F87A22002BD5D0F3
:1044700094F879322521204605F000FF04F16F05FC
:10448000234621462246107881F8DE00507881F8D4
:10449000DF00907881F8E0000332AA42A1F1030125
:1044A000F1D104F1E1012046027883F8BF2142787E
:1044B00083F8C021827883F8C12103308842A3F1B8
:1044C0000303F1D1BDE8F08194F8793220469621BA
:1044D000BDE8F04105F0D2BE2046FFF7EDFE8FE7C4
:1044E0001A4680E78487FF1FD191FF1FF0B590F82F
:1044F0002E3283B00446002B5CD19C4884F82A32CB
:10450000038803EB432203EB820303F5585319336B
:104510009BB203EB432203EB820202F5585219329D
:1045200092B202EB422102EB810101F5585119319F
:1045300089B201EB412601EB860606F5585603EBDE
:104540001323DBB21936B6B203EBC30706EB16250D
:1045500003EB4703EDB21B1205EB850501334FF06A
:10456000010E01EB1121ED11DBB2C1F3C017068082
:10457000033507260F207345E9B284F8C47184F827
:104580002EE284F87BE284F82D6284F8C30100F007
:10459000EB8002EB1222D2B202EB42021212724400
:1045A000D2B284F8793284F8782284F83112204625
:1045B000FDF700FE6E4B1B78002B40F0C98094F88D
:1045C000C5316C4A002B61D112680092009994F8B1
:1045D000313294F878524FF48C7202FB01F21B02D4
:1045E00003FB02F31B0ED9B2480600F1A98001F0CB
:1045F0003F0201F00F006049121152008E18895CD1
:10460000727812FB00F001EB2011CAB2190648BF04
:10461000524252B294F87A32803AD2B22B4402EB30
:10462000420203EBE21294F87B32D2B284F87A228F
:10463000002B60D094F879322521204605F01EFE2B
:1046400004F16F05234621462246107881F8DE00EA
:10465000507881F8DF00907881F8E0000332AA42B8
:10466000A1F10301F1D104F1E10120461A7880F8AB
:10467000BF215A7880F8C0219A7880F8C12103338D
:104680008B42A0F10300F1D103B0F0BD126801929A
:10469000019994F8313294F878524FF48C7202FBFD
:1046A00001F21B0203FB02F31B0ED9B24A063FD4F0
:1046B00001F03F0201F00F002F49121152008E1835
:1046C000895C727812FB00F001EB2011CAB21B0664
:1046D00048BF524252B294F87A32803AD2B25B1B4F
:1046E00002EB4202A3EBE21294F87B32D2B284F8DE
:1046F0007A22002B9ED194F8C4316BBB94F87932A6
:104700004B21204605F0BAFD204604F1E101234685
:104710001A7880F8BF215A7880F8C0219A7880F8FA
:10472000C12103339942A0F10300F1D103B0F0BDE0
:10473000C943CAB202F00F00013002F03F02BBE7EA
:10474000C943CAB202F00F00013002F03F0252E743
:104750002046FFF7B1FD32E794F8793220469621E2
:1047600005F08CFD03B0F0BD1A461AE78487FF1FE1
:10477000D191FF1FE8ACFF1F0CE70000F0B5204D02
:104780009DF814402A8880F87C3202EB422643F2DE
:10479000196702EB86023A4492B202EB422602EB20
:1047A00086063E44B6B202EB122206EB1627D2B2C0
:1047B000FFB202EB42020A3B07EB4707C2EBC20221
:1047C00003EB2222C7EBC707A4F10A0303EB272759
:1047D0004FF0010E80F8161380F87D220C210F2275
:1047E00000232E8080F87E4280F87F7280F82EE2CF
:1047F00080F82D1280F8C32180F82A32F0BD00BF66
:104800008487FF1F164B174A1B7800211170042B59
:1048100008D8DFE803F01218031E0900124B1B88AA
:1048200080F87D32FDF7C6BC0F4B1B88003318BFE4
:10483000012380F81633FDF7BDBC0B4B1B8880F8B5
:104840007C32FDF7B7BC084B1B8880F87E32FDF741
:10485000B1BC054B1B8880F87F32FDF7ABBC00BFB5
:10486000189AFF1FD191FF1FD290FF1F2DE9F0432F
:1048700090F82E32C14E85B00446002B00F08681A0
:10488000BF4B1B78002B40F0758194F87E22BD4908
:10489000338802EB8202520081FB021ED217C2EB68
:1048A000EE0E0EF1020E04F27F275FFA8EFE3846FE
:1048B00004F2CA2503EB432203EB820303F55853AA
:1048C00019339BB203EB132210F8011FD2B212FB73
:1048D0000EF2A1EB122222EAE27285420270E9D1C5
:1048E000DFF8A482338004F2C72104F2C92E04F554
:1048F000207C0A7811F8010D02EB400288FB02903F
:10490000A0EBE2728C450EF8012DF2D103EB4322AD
:1049100003EB820303F5585319339BB203EB1322C5
:1049200094F87C023380D2B29042944926D903EBAA
:10493000432203EB820303F5585319339BB203EB75
:10494000432203EB820202F55852193290B200EB77
:10495000102203EB1323D2B2DBB202EB420EC3EB05
:10496000C30304EB2323C2EB4E1212120880603AF9
:1049700093F8801281FA52F183F8801294F816337A
:10498000002B4FD194F87F227E49338802EB8202BC
:10499000520081FB021ED217C2EBEE0E0EF1020E88
:1049A0005FFA8EFE04F2153C284603EB432203EB2C
:1049B000820303F5585319339BB203EB132210F80B
:1049C000011FD2B212FB0EF2A1EB122222EAE27216
:1049D00084450270E9D1DFF8B081338004F21231EE
:1049E00004F5457E04F2CB2C0A7811F8010D02EB98
:1049F000400288FB0290A0EBE2728C450EF8012D7C
:104A0000F2D103EB432203EB820303F5585319332E
:104A10009BB203EB132294F87D023380D2B2904212
:104A200056497ED894F8C5312646002B47D004F16C
:104A3000E1090DF10C0817F8011F404605F00EFDC5
:104A40009DF80C109DF80D209DF80E30317072709D
:104A5000B3700336B145EED194F816339BB104F12F
:104A6000E1012346227883F8BF21627883F8C021D0
:104A7000A27883F8C1210334A142A3F10303F1D149
:104A800005B0BDE8F08394F8C5318BB3A4F1E1061D
:104A900015F8011F404605F0E1FC9DF80C109DF84B
:104AA0000D209DF80E3084F8BF1184F8C02184F8E1
:104AB000C131033CB442EBD105B0BDE8F083A4F1B1
:104AC000E1090DF10C0817F8011F404605F0C6FC7E
:104AD0009DF80C109DF80D209DF80E3086F8DE1024
:104AE00086F8DF2086F8E030033EB145EBD1B3E72E
:104AF00004F1E10615F8011F404605F0AFFC9DF8F2
:104B00000C109DF80D209DF80E3084F8E11084F80B
:104B1000E22084F8E3300334A642EBD105B0BDE8CF
:104B2000F08303EB432203EB820303F5585319335D
:104B30009BB203EB432003EB800000F55850193083
:104B400003EB132380B2DBB200EB1022C3EBC303F1
:104B5000D2B204EB232302EB4206C2EB461293F8D7
:104B6000CB6208801212603A314681FA52F183F822
:104B7000CB1257E72046FFF745FE86E68487FF1FE6
:104B8000D191FF1FB5814E1B56555555338803EB08
:104B9000432103EB810101F55851193189B201EB31
:104BA000412201EB820202F55852193292B202EB15
:104BB000422302EB830303F5585319339BB203EBF3
:104BC000432503EB850505F558551935ADB205EBC1
:104BD000152702EB1222D2B2FFB203EB132302EB32
:104BE000820EC7EB0717DBB202EB4E02BF11C3EB1D
:104BF00003133C379B111212FFB201EB1121323328
:104C000014320097C1F3C011DBB2D2B23580FFF786
:104C1000B5FD35E62DE9F04790F82E32D64E84B03A
:104C20000446002B00F0DF81D44B1B78002B40F0B2
:104C3000D68194F87E22D24F338887FB021717441F
:104C4000FF10023704F27F25FFB2284604F5297EC3
:104C500003EB432203EB820303F5585319339BB252
:104C600003EB132210F8011FD2B212FB07F2A1EBE3
:104C7000122222EAE27286450270E9D1DFF808C307
:104C8000338004F2A12104F2A32704F5207E0A78E0
:104C900011F8010D02EB40028CFB0280A0EBE272E6
:104CA0008E4507F8012DF2D103EB432203EB82037B
:104CB00003F5585319339BB203EB132294F87C028B
:104CC0003380D2B29042AC4927D903EB432203EBA5
:104CD000820303F5585319339BB203EB432003EBD4
:104CE000800000F55850193003EB132380B2DBB27B
:104CF00000EB1022C3EBC303D2B204EB232302EB7D
:104D00004207C2EB471293F8807208801212603A91
:104D1000394681FA52F183F8801294F81633002B49
:104D200050D194F87F22974F338802EB82025200D1
:104D300087FB02171744D217C2EB67170237FFB27F
:104D400004F2CA2004F2EF2E03EB432203EB8203AA
:104D500003F5585319339BB203EB132210F8011FCC
:104D6000D2B212FB07F2A1EB122222EAE2728645CE
:104D70000270E9D1DFF810C2338004F53B7104F210
:104D8000EE2704F2CB2E0A7811F8010D02EB400257
:104D90008CFB0280A0EBE2728E4507F8012DF2D168
:104DA00003EB432203EB820303F5585319339BB201
:104DB00003EB132294F87D023380D2B290426E4905
:104DC00000F2E48094F8C531002B3FD0A04604F1F6
:104DD0006F09274603AE15F8011F304605F03EFB6C
:104DE0009DF80C109DF80D209DF80E307A70BB7068
:104DF000397029783046033705F030FB9DF80C10E8
:104E00009DF80D209DF80E3088F8DE10B94588F821
:104E1000DF2088F8E030A8F10308DCD194F81633DD
:104E2000002B47D004F1E1012346227883F8BF210B
:104E3000627883F8C021A27883F8C1210334A142AB
:104E4000A3F10303F1D104B0BDE8F0879946A04671
:104E50002746AA4603AE1AF8011F304605F0FEFAAF
:104E60009DF80C109DF80D209DF80E3088F86D20EF
:104E700088F86E3088F86C1015F8011F304609F17B
:104E8000010905F0EBFA9DF80C109DF80D209DF836
:104E90000E3087F86F10B9F1250F87F8702087F86A
:104EA0007130A8F1030807F10307D4D194F8163341
:104EB000002BB7D194F8C57104F2CA286FB3254608
:104EC000C146252718F8011F304605F0C7FA9DF89E
:104ED0000C109DF80D209DF80E3084F8C02184F848
:104EE000C13184F8BF1119F8011F304605F0B6FA38
:104EF0009DF80C109DF80D209DF80E3085F8E110FE
:104F0000013F85F8E22085F8E330A4F1030405F1C0
:104F10000305D7D104B0BDE8F087C146254618F88F
:104F2000011F304605F09AFA9DF80C109DF80D20EF
:104F30009DF80E3085F8512185F8523185F85011D1
:104F400019F8011F3046013705F088FA9DF80C105A
:104F50009DF80D209DF80E3084F85011252F84F80F
:104F6000512184F8523105F10305A4F10304D6D18F
:104F700004B0BDE8F08700BF8487FF1FD191FF1FF9
:104F800089888888A7C867DD5655555503EB4322A5
:104F900003EB820303F5585319339BB203EB432011
:104FA00003EB800000F55850193003EB132380B257
:104FB000DBB200EB1022C3EBC303D2B204EB23231A
:104FC00002EB4206C2EB461293F8CB620880121243
:104FD000603A314681FA52F183F8CB12F2E620466C
:104FE000FFF710FC25E6338803EB432103EB810137
:104FF00001F55851193189B201EB412201EB8202CE
:1050000002F55852193292B202EB422302EB8303AB
:1050100003F5585319339BB203EB432503EB850586
:1050200005F558551935ADB205EB152702EB1222DF
:10503000D2B2FFB203EB132302EB820EC7EB0717CA
:10504000DBB202EB4E02BF11C3EB03133C379B11E3
:105050001212FFB201EB1121323314320097C1F367
:10506000C011DBB2D2B23580FFF788FBDCE500BFB0
:105070000E4B0F4A1B78002111703BB1012B03D15D
:105080000C4B1B8880F83A33FDF794B8094B1B880A
:10509000002B14BF0123002380F8C43114BF9623D2
:1050A0004B23A0F83833FDF785B800BF189AFF1FCF
:1050B000D191FF1FD290FF1FF0B590F82E324B4ECA
:1050C00085B004468BBB338803EB432203EB82039A
:1050D00003F5585319339BB203EB432103EB8101D2
:1050E00001F55851193189B201EB1122D2B2C2EB4C
:1050F0000212121203EB132301200632C3F3C01372
:1051000013270F253180D2B284F8C43184F82E02DF
:1051100084F82A0284F82D7284F8C351002B5CD1E4
:105120004B23A4F8383384F83A23314B1B78002BF7
:1051300057D194F83A232046962105F051F9328848
:10514000B4F8385302EB422302EB830202F55853C2
:1051500019339BB203EB432703EB870707F5585737
:105160001937BFB207EB172203FB05F301211D0C12
:10517000009103A804F5E471D2B2FF23378005F053
:105180008FF905EB4503E118E25C9DF80C0082FA0B
:1051900050F2E2549DF80D304A7882FA53F24A7088
:1051A0008B789DF80E2083FA52F38B7094F8C431FB
:1051B0008BB9204604F1E10123461A7880F8BF211B
:1051C0005A7880F8C0219A7880F8C12103338B4245
:1051D000A0F10300F1D105B0F0BD9623A4F8383357
:1051E000A1E72046FFF744FFA3E700BF8487FF1F26
:1051F000D191FF1F244B254A1B7800211170092BE8
:105200000AD8DFE803F0101E23282D3237053C0BA7
:105210001F4B1B8880F84B33FCF7CCBF1C4B1B8803
:1052200080F84133F8E71A4B1B88002B14BF012389
:10523000002380F8C43114BF96234B23A0F83833E1
:10524000EAE7134B1B8880F83B33E5E7104B1B88DC
:1052500080F83C33E0E70E4B1B8880F83D33DBE7FA
:105260000B4B1B8880F83E33D6E7094B1B8880F830
:105270004233D1E7064B1B8880F83F33CCE7044B21
:105280001B8880F84C33C7E7189AFF1FD191FF1F86
:10529000D290FF1F2DE9F04F90F82E3285B00446D2
:1052A000002B40F0BE80DFF82CC3BCF8003003EBCD
:1052B000432603EB860606F558561936B6B206EBBA
:1052C000462106EB810101F55851193189B201EBF4
:1052D000412501EB850505F558551935ADB205EBAE
:1052E000452305EB830303F5585319339BB203EBB6
:1052F000432703EB870707F558571937BFB207EB6A
:10530000472007EB800000F55850193080B200EBC1
:10531000402200EB820202F55852193292B202EB9F
:10532000422E02EB8E0E0EF5585E0EF1190E1FFA8C
:105330008EFE0EEB4E280EEB880808F5585803EB4E
:10534000132301EB112102EB122208F119081FFAB5
:1053500088F8DBB2C9B2D2B208EB182902EB82029C
:1053600003EB830301EB41014FEAA21A03EB830332
:105370005FFA89F200EB1020091205EB15259B114D
:105380000131C5F3421502EB820206EB162607EB4C
:105390001727C0B203F16409ACF800800AF11403C6
:1053A000C6F3C016C7F3811700EB80000EEB1E2E6C
:1053B0005FFA81FA4FF01408691DC2F3C71C01257A
:1053C0000F2284F8C4615FFA89F90137C0F307201E
:1053D000DBB25FFA8EFE84F82E5284F82A5284F8EB
:1053E0002D8284F8C321002E40F0E8804B22A4F8DF
:1053F0003823764D84F83BA3A5FB032501EB9502EA
:10540000002184F83D9384F83E7384F8420384F8C5
:105410003F3384F84BE384F84CC384F83C2384F88E
:1054200041136B4B1B78002B40F0CC8094F8411358
:1054300094F83B3394F8C5210B44DBB284F8413334
:1054400084F84033002A00F0B18094F8422394F8A5
:105450003C33134484F84233B4F83833002B00F063
:105460008E8004F5E4792546671C00264FF0FF087E
:105470005CE00029BCBFD243D2B25200D2B2531C6E
:1054800003FB02F2121202FB03F31B1202EB4202B5
:10549000A2EB430292B2D30554BF5FFA82FB4FF0F6
:1054A000FF0BC0EB0B0B5FFA8BFB94F84C2394F8CB
:1054B0004B338DF80E20294603A88DF80C308DF85B
:1054C0000D8005F0EBF994F8403394F83B2394F801
:1054D0002812009102FB0A32D2B25B46494603A869
:1054E00004F0DEFF17F8013C9DF80C2083FA52F31C
:1054F00007F8013C6A789DF80D3082FA53F26A7021
:10550000AB789DF80E2083FA52F3AB7094F84013F9
:1055100094F83E33B4F8382301360B44B24205F117
:10552000030507F1030784F8403328DD94F83F337F
:1055300094F842235FFA86FA03FB0A22D2B251B2F0
:105540000029BABFD343DBB213465B00DBB2581C61
:1055500000FB03F31B1203FB00F0001203EB4303F9
:10556000A3EB40039BB2D80594F83D0354BFDBB2D4
:10557000FF239842FFF47DAF4FF0000B95E794F8BE
:10558000C43183B904F1E1012346227883F8BF21B5
:10559000627883F8C021A27883F8C1210334A14244
:1055A000A3F10303F1D105B0BDE8F08F94F84233C5
:1055B00094F83C239B1A84F842334DE79622A4F8D2
:1055C000382316E72046FFF715FE2FE7CDCCCCCCCD
:1055D000D191FF1F8487FF1F10B50F4B0F4A1B7817
:1055E000002182B0044611708BB90D4A0D48128813
:1055F0008DF80430521A18BF012284F8C721962171
:1056000001AA8DF805308DF8063004F027FE2046FB
:10561000FCF7D0FD02B010BD189AFF1FD191FF1FFB
:10562000D290FF1FD891FF1F70B5044682B01B4D6A
:10563000022005F0A1FD2B88184400EB402300EB6D
:10564000830043F21963184480B200EB102200EB90
:10565000402100EB8100D2B2034402EB82029BB2F4
:105660009211002603EB13211B3284F84D2384F89A
:105670004E1384F8506384F84F6384F858632046CF
:1056800001AA96212B808DF804608DF805608DF8B5
:10569000066004F0E3FD02B070BD00BF8487FF1F09
:1056A0002DE9F04F90F8583387B00290002B00F0AE
:1056B000898090F84D330393064618465D4B1B884E
:1056C00003EB432403EB840404F558541934A4B2C7
:1056D00004EB1423DBB203EB830903EBC9094FEAA4
:1056E000292909F1140901235FFA89F986F8503351
:1056F00086F8599308F094F806F5567B06F2745A2A
:105700005B4606F5896806F23B57D346019006F2E0
:10571000646600259A4604EB442304EB830404F5F5
:1057200058541934A4B2732303FB04F0000C019BFA
:105730004AF8043F0A3080B208F072F83E4908F097
:105740007BF904EB442304EB830303F5585319332B
:105750009BB203EB432403EB840404F5585419343F
:10576000A4B204EB1421C9B201EB810103EB1323B2
:105770000912C3F3C0130A3148F8040F07F8013FB8
:10578000C8B208F04DF80135EBB22C4A4BF8040FC3
:10579000994546F8042FBED8039A029E254FC2F1C0
:1057A000950102EB420301EB4101F5187018FF224D
:1057B0003C80F2546A70AA7072544270827007B0D2
:1057C000BDE8F08F029D95F84F3395F84D1395F88D
:1057D0004E238DF814200533DBB201EB410185F82F
:1057E0004F33294405A8FF248DF816308DF8154055
:1057F00005F054F895F84D1395F84E3395F84F236E
:105800008DF81430C1F1950101EB410105A829443F
:105810008DF815408DF8162005F040F895F84F33B7
:10582000FF2BCCD1029A012382F8583307B0BDE890
:10583000F08F00BF8487FF1F0000C84200007F4335
:105840002DE9F047654B054682B01A78962104F0A1
:10585000C7FD95F85943002685F85867002C7ED07F
:10586000DFF890914FF0FF083BE0D4F85C1350460E
:1058700007F026FF07460021384608F0C7F95849C7
:10588000002868D1384608F0DFF900B1544FC4F859
:105890005C735146D9F8000008F01AF84FF06E51C9
:1058A000C4F84C04D4F8780508F012F801464FF01B
:1058B0007E5007F003FFD4F8681608F009F8C4F822
:1058C000680608F0F1F995F85837C0B2834206F13E
:1058D000010695F8593338BF85F85807F6B2B34238
:1058E0003BD905EB8604D4F85C0308F0B7F907460A
:1058F000D4F8680608F0D8F995F84E338DF8020010
:1059000001A968468DF800308DF8018004F0C6FFCB
:1059100007EB470029182B5C9DF8042083FA52F30B
:105920002B549DF805304A7882FA53F24A708B78EE
:105930009DF8062083FA52F3AA198B7092F83C3531
:10594000D4F84CA4002B90D1D4F85C03514607F056
:10595000B5FE07468FE7002799E795F858472A468E
:1059600005F1E1002B46197882F8BF11597882F8C9
:10597000C011997882F8C11103338342A2F1030266
:10598000F1D144BB01AA962128468DF804408DF838
:1059900005408DF8064004F061FC1248124C038863
:1059A00024681249124A019403EB4324098812889F
:1059B00003EB840303F558530A4419339BB292B2A4
:1059C0000199038003FB02F301EB13430222C5F8A4
:1059D000543385F8502302B0BDE8F0874887FF1F95
:1059E000000094428487FF1FE8ACFF1F4E87FF1F13
:1059F0004C87FF1F5487FF1F10B590F85033012BC1
:105A000082B01CD017D3022B13D1002301AA9621F8
:105A100004468DF804308DF805308DF8063004F01A
:105A20001DFC0B4AD4F8543312680192019A9A4231
:105A300009D202B010BDFFF733FE02B010BDFFF770
:105A4000FFFE02B010BD2046FFF7EEFDF1E700BFFC
:105A5000E8ACFF1FF8B590F82E320446FBB93E497A
:105A600080F82A320B8803EB432203EB820303F511
:105A7000585319339BB203EB1322C2F3C012012710
:105A800016260F2502200B8084F8C72184F82E7279
:105A900084F82D6284F8C35184F8500372B92F4BF7
:105AA0001B7893B92046FFF7A7FF94F8C73123B1BD
:105AB00094F8C6316BB1012B2CD0F8BD284B83F87C
:105AC0005003264B1B78002BECD02046FFF784FDBB
:105AD000E8E72448FFF790FF224B204603F5E175E5
