:1000000000800020BD01000019C40000D1C3000021
:10001000D1C30000D1C30000D1C30000D1C3000090
:10002000D1C30000D1C30000D1C3000019C4000037
:1000300019C40000D1C3000045D8000049D9000010
:1000400019C4000019C4000019C4000019C400003C
:1000500019C4000019C4000019C4000019C400002C
:1000600019C4000019C4000019C4000019C400001C
:1000700019C4000019C4000019C4000019C400000C
:1000800019C4000019C4000019C4000019C40000FC
:1000900019C4000019C4000019C4000019C40000EC
:1000A00019C4000019C4000019C4000019C40000DC
:1000B00019C4000019C4000019C4000019C40000CC
:1000C00019C4000019C4000019C4000019C40000BC
:1000D00019C4000019C4000019C4000019C40000AC
:1000E00019C4000019C4000019C4000019C400009C
:1000F00019C40000A1DC000019C40000CDDD00001F
:1001000019C40000F9DE000019C4000019C4000081
:1001100019C4000019C4000019C4000019C400006B
:1001200019C4000019C4000019C4000019C400005B
:1001300019C4000019C4000019C4000019C400004B
:1001400019C4000019C4000019C4000019C400003B
:1001500019C4000019C4000019C4000019C400002B
:1001600019C4000061C8000019C4000019C40000CF
:1001700019C4000019C4000019C4000019C400000B
:1001800019C4000019C4000019C4000019C40000FB
:1001900019C4000019C4000019C4000019C40000EB
:1001A00019C4000019C4000019C4000019C40000DB
:1001B00019C4000019C4000019C40000564B4CF2C9
:1001C000205210B51A804DF628121A8000BF00BFC9
:1001D0000CF026F9514B4FF010621A60504A9A60A9
:1001E000504ADA60504A136813F4807304D14F49BF
:1001F0000B604FF4A85313604D4B1A78110703D5C9
:100200001A7842F008021A704A4B4B492A221A7097
:100210004A4A4B4B8B4204D252F8040F43F8040B6A
:10022000F8E7484B484900228B4202D243F8042B9E
:10023000FAE74649464A002352F8230041F82300D2
:1002400001336F2BF8D1434B434A802103F8011B44
:100250009342FBD1414B3D4A1A60414B8A221A70AE
:10026000A3F5805324225A70A0221A709A7992071B
:10027000FCD59A79D406FCD43A4A937903F00C035E
:10028000082B384BF9D103221A7140225A719A79FE
:100290009006FCD5334A9179324B4906FBD5324A58
:1002A000324911600221516020221A709A7902F0BD
:1002B0000C020C2AFAD12E4B2E4A1A602E4B2F4AD2
:1002C0001A6000225A60072243F8042C2C4AC3F813
:1002D0000C2D62B60CF07AF9144B1B68DA0705D5C1
:1002E00028480CF0EBF8284B284A1A60284B1B785A
:1002F0005B0609D5244C254B22689A4204D121483B
:100300000CF0DCF8002323600EF0DEFD0CF08EF81C
:100310000DF022FBFEE700BF0E20054030800440B8
:10032000823F04000100002B10D0034014D0034092
:1003300002D0074000E007406C8CFF1F78240100CA
:100340002087FF1F6C8CFF1F48B4FF1F0082FF1F18
:100350000000000000E400E05FE400E008ED00E0E1
:100360000050064000400640448004400000030165
:1003700004800440C010050014E000E0FF76010096
:10038000000020207E60455E1CE00340A5C3945A17
:1003900000F00740FFFFFFFFFFFFFFFFFFFFFFFF32
:1003A000FFFFFFFFFFFFFFFFFFFFFFFFFFFFFFFF5D
:1003B000FFFFFFFFFFFFFFFFFFFFFFFFFFFFFFFF4D
:1003C000FFFFFFFFFFFFFFFFFFFFFFFFFFFFFFFF3D
:1003D000FFFFFFFFFFFFFFFFFFFFFFFFFFFFFFFF2D
:1003E000FFFFFFFFFFFFFFFFFFFFFFFFFFFFFFFF1D
:1003F000FFFFFFFFFFFFFFFFFFFFFFFFFFFFFFFF0D
:10040000FFFFFFFFFFFFFFFFFFFFFFFFDEF9FFFF23
:1004100010B5054C237833B9044B13B10448AFF33E
:1004200000800123237010BD6C8CFF1F00000000B2
:100430007C240100084B10B51BB108490848AFF3F4
:1004400000800848036803B910BD074B002BFBD0A0
:10045000BDE81040184700BF00000000708CFF1F6F
:100460007C2401006C8CFF1F000000004069704775
:10047000002070474268017B13780B43137070476C
:100480004268017B137823EA01031370704700BFB1
:100490008039091110B44B0044788278C9B2DBB2BC
:1004A000611AD31A21EAE17123EAE3734170837080
:1004B00010BC704770B41D4C83B024680194019D3A
:1004C000FF2898BF00024FF48C74A5EB030304FBD4
:1004D00003F398BF80B200FB03F0C0F30E4000F5B9
:1004E00080404404C0F3CA0303D5C3F5FF63073358
:1004F0009BB21D0A0E4E0F4C765D34F81540C3F3C7
:10050000460506FB054300049BB24ABF5C421CB291
:1005100024B2521AA4F5004492B2A3B202FB0333F0
:1005200001EB134080B203B070BC704784B1FF1F71
:1005300034120100FC0A010070B41E4C83B0246820
:100540000194019DFF2898BF00024FF48C74A5EB25
:10055000030304FB03F398BF80B200FB03F0C0F376
:100560000E40A0F5804080B24404C0F3CA0303D516
:10057000C3F5FF6307339BB21D0A0F4E0F4C765D28
:1005800034F81540C3F3460506FB054300049BB24F
:100590004ABF5C421CB224B2521AA4F5004492B283
:1005A000A3B202FB033301EB134080B203B070BC73
:1005B000704700BF84B1FF1F34120100FC0A010024
:1005C00070B4184B83B01B680193019E4FF48C7379
:1005D00003FB06F600FB06F0060C7004C6F3CA0324
:1005E00003D5C3F5FF6307339BB2180A0E4D0F4CBA
:1005F000245C35F81000C3F3460504FB05043304FE
:10060000A4B248BF644224B2531AA4F500449AB27B
:10061000A3B202FB033301EB134080B203B070BC02
:10062000704700BF84B1FF1FFC0A010034120100B3
:1006300010B5012104460E200BF052FF07200121C6
:100640000BF04EFFA06958B10368074A5B689342FC
:1006500007D14268017B137823EA0103137010BDB0
:1006600010BDBDE81040184781040000F0B58BB004
:10067000002305688DF804308DF805308DF80630BC
:100680002E68374A8DF8083096428DF809308DF87B
:100690000A305FD1827C04910446012A01A80591A9
:1006A0008DF81E308DF81F308DF82030039015D056
:1006B0008DF81D308DF81C308DF81B308DF81A30F8
:1006C0008DF819308DF818300023AA698DF8213083
:1006D0002046099303A990470BB0F0BD214A137837
:1006E000013303F0070313F0010F14BF8021002131
:1006F00013709A0744BF41F04001C9B25B0748BF7D
:1007000041F0200110310022C9B20DF11B030DF19F
:100710001E074FF4807EAAB19EFBF2F2D2B2501CAB
:10072000C0B200FB01152D121870EEB205B1013EEA
:1007300003F8036C00B11A7001339F4208D0DA78D5
:10074000002AE9D11A7003F8032C01339F42F6D135
:100750002568B9E70A4602AB01A9B0470BB0F0BD66
:1007600069070000888CFF1FF0B5857C1C785E78D7
:100770009B7889B0012D0191029203928DF8164069
:100780008DF817608DF8183016D000238DF81530CD
:100790008DF814308DF813308DF812308DF811303B
:1007A0008DF810300268002392698DF81930079394
:1007B00001A9904709B0F0BD1B4A1378013303F03B
:1007C000070313F0010F137014BF80220022990752
:1007D00044BF42F04002D2B25B0748BF42F0200261
:1007E0001032D2B20DF113030DF116074FF4807ED3
:1007F000ACB19EFBF4F4E4B2611CC9B201FB02256A
:100800002D121970EEB205B1013E03F8036C01B16F
:100810001C700133BB42C5D0DC78002CE9D11C70C0
:1008200003F8034CF5E700BF888CFF1FF0B5857C0B
:100830001C785E789B7889B0012D01910292039219
:100840008DF816408DF817608DF8183017D00023FA
:100850008DF815308DF814308DF813308DF8123076
:100860008DF811308DF810300368002203219B6948
:100870008DF81910079201A9984709B0F0BD1B4ADD
:100880001378013303F0070313F0010F137014BF43
:1008900080220022990744BF42F04002D2B25B0797
:1008A00048BF42F020021032D2B20DF113030DF115
:1008B00016074FF4807EACB19EFBF4F4E4B2611CE9
:1008C000C9B201FB02252D121970EEB205B1013E2D
:1008D00003F8036C01B11C700133BB42C4D0DC7857
:1008E000002CE9D11C7003F8034CF5E7888CFF1F3E
:1008F00070B5044608460D460EF0E2FB236802463A
:10090000294620465B68BDE87040184738B5044664
:1009100008460D460EF0D4FB2368024629465B6864
:1009200020469847054620460DF01EF8284438BD5D
:100930002DE9F04F0D7805704D78457089788170FC
:100940001178C17051780171927842711A78827170
:100950005A78C2719B78DDF824A003729AF800B02F
:1009600080F809B00DF12C0898E80051DDF82890C6
:100970000E9F0F9E109D1199129A159B9AF801B027
:1009800080F80AB09AF802A080F80BA099F800A0AD
:1009900080F80CA099F801A080F80DA099F80290B9
:1009A00080F80E9098F8009080F80F9098F80190D9
:1009B00080F8109098F8028080F811809CF80080F0
:1009C00080F812809CF8018080F813809CF802C0A7
:1009D00080F814C09EF800C080F815C09EF801C0D1
:1009E00080F816C09EF802E080F817E097F800E063
:1009F00080F818E097F801E080F819E0BF78877672
:100A00003778C77677780777B67846772E788677FF
:100A10006E78C677AD7880F820500D7880F8215038
:100A20004D7880F82250897880F82310117880F86A
:100A30002410517880F82510927880F82620139A97
:100A4000127880F82720139A527880F82820139A79
:100A5000927880F82920149A127880F82A20149A23
:100A6000527880F82B20149A927880F82C201A78EB
:100A700080F82D205A7880F82E209B7880F82F302F
:100A8000BDE8F08F2DE9F04F8BB00027069051F8AC
:100A90002730DBB20137FF2BBFB2F8D10B680797C5
:100AA0004FEA1368C3F3072BC3F307494FF0FF3333
:100AB000C64600240593884658F8045F0698C5F397
:100AC00007274FEA241CC5F30746ECB2F9B2C5F379
:100AD00007650391E9B204915FFA8CF102910799DD
:100AE0000F2908AA4FEA14135FFA86FA0CD8059961
:100AF0008C4507DC0F2905D00131C9B28B42029128
:100B000038BF0B4659B2059109A9009102998DF899
:100B100020B08DF821908DF822E08DF824708DF8AA
:100B200025608DF826500AF077FCFF2CDDF810E0E8
:100B3000DDF80CB0D146BFD106980BB0BDE8F08F00
:100B4000484B1B78002B00F08B802DE9F04F9BB0B9
:100B500000F5FC730A930023434A0793DFF80C91D6
:100B6000099000F2272308920B93002759F82730A9
:100B7000DBB20137FF2BBFB2F8D1D9F800300697AE
:100B80004FF0FF32C3F3074A0592C3F3072B4FEA36
:100B900013680024D64659F8045FC5F307464FEAA8
:100BA000241CC5F30727ECB2F1B2C5F30765039126
:100BB000E9B204915FFA8CF1029106990F290CAA0F
:100BC0000EA84FEA14135FFA87FA0CD805998C45E2
:100BD00007DC0F2905D00131C9B28B42029138BF21
:100BE0000B4659B205910DA9009102998DF830B0CC
:100BF0008DF831E08DF832808DF834708DF83560E5
:100C00008DF836500AF008FCFF2CD346DDF80CE0D6
:100C1000DDF81080BFD10A9B0EAA934218D0099B21
:100C20000B9C03F2F71301E0A34211D012F8011B51
:100C300013F8010F8842F7D00A4B079A1B7801324C
:100C40009342079209DD089B53F8049F08938CE7B1
:100C5000099B9DF81C2083F829221BB0BDE8F08F6A
:100C6000704700BF5487FF1F90100100341C010023
:100C70002DE9F041424D82B001AA00242846962178
:100C80008DF804408DF805408DF806400AF094FB7D
:100C90003C4985F8C64105F5E470FFF7F3FE3A4993
:100CA00005F5FC70FFF7EEFE2846FFF749FF374BCE
:100CB000374A187885F82C02234601E0202B08D00B
:100CC00012F8011F8142DCB203F10103F6D185F86D
:100CD0002B42304EDFF8D0802F4F002401AA30463F
:100CE00096218DF804408DF805408DF806400AF0F5
:100CF00063FB012306F5E470284986F8C631FFF747
:100D0000C1FE274906F5FC70FFF7BCFE95F82B32B3
:100D100086F82B323046FFF713FF01AA4046962192
:100D20008DF804408DF805408DF806400AF044FB2C
:100D3000022308F5E4701B4988F8C631FFF7A2FECC
:100D400008F5FC701749FFF79DFE01AA3846962169
:100D50008DF804408DF805408DF806400AF02CFB14
:100D6000032307F5E4700F4987F8C631FFF78AFEC1
:100D700007F5FC700B49FFF785FE02B0BDE8F08176
:100D8000ECA6FF1F80200100D81601004D87FF1F31
:100D90002787FF1FB08CFF1F909EFF1F501E010072
:100DA000101E0100F81E01002096FF1F10B5122131
:100DB00082B03448344C0CF0D3FB344B20461978C5
:100DC0000CF022FE20460CF0CFFD112130480CF033
:100DD000C7FB304B204619780CF016FE20460CF06D
:100DE000C3FD15212C480CF0BBFB2C4B2046197879
:100DF0000CF00AFE20460CF0B7FD112128480CF03B
:100E0000AFFB284B204619880CF0FEFD20460CF065
:100E1000ABFD142124480CF0A3FB244B2046198879
:100E20000CF0F2FD20460CF09FFD0F2120480CF045
:100E300097FB204B204619880CF0E6FD02211E4846
:100E40000CF08EFB1D4B0A221978204600230CF073
:100E50009BFD01211A480CF083FB20460CF084FD19
:100E60000E2118480CF07CFB174B1B68019301996D
:100E700000230A2220460CF087FD20460CF074FD6A
:100E800002B010BD08F300008C87FF1F8387FF1F8F
:100E90001CF300004E87FF1F30F300002287FF1F66
:100EA00048F300002087FF1F5CF30000AC8CFF1F9D
:100EB00074F300001A96FF1F84F300007595FF1F5E
:100EC00088F300008CF3000084B1FF1F1E491F4807
:100ED0000B8803EB432203EB820303F558531933CA
:100EE0009BB203EB432203EB820202F5585203EB61
:100EF00013231932DBB292B203EB4303F0B41B129B
:100F000002EB1227124E134DF35C134C0A80FFB212
:100F100007EB870701223F12033793422F7023709C
:100F200002700CD006D3022B02D10C4B00221A7097
:100F3000F0BC70470A4B00221A70F0BC7047074B98
:100F40004A221A70F0BC70478487FF1F1895FF1F54
:100F50002487FF1F7D9EFF1F2C95FF1F5495FF1FA9
:100F6000AE8CFF1FF8B5CA1C0446C31C0D4600F228
:100F7000C51012F8031C03F8031C12F8021C03F836
:100F8000021C12F8011C03F8011C0333984202F101
:100F90000302EED195F8C23184F8C23195F8C3311D
:100FA00084F8C33195F8C73195F8C40195F8C51197
:100FB00095F8C62184F8C62184F8C73184F8C401A5
:100FC00084F8C511302205F5E47104F5E4700DF0E4
:100FD000A3FF302205F5FC7104F5FC700DF09CFFB9
:100FE00095F8283284F8283295F8293284F8293285
:100FF00095F82A3284F82A3295F82B3284F82B326D
:1010000095F82C1295F82D2295F82E3284F82E3270
:1010100084F82C1284F82D2295F82F3284F82F3280
:1010200095F8303284F8303295F8313284F8313224
:1010300095F8323284F8323295F8333284F833320C
:1010400095F8352295F8363295F8341284F8341232
:1010500084F8352284F8363295F8373284F83732FE
:1010600095F8383284F8383295F8393284F83932C4
:1010700095F83A3284F83A3205F23E2204F23E23E1
:1010800004F27A2012F8031C03F8031C12F8021C65
:1010900003F8021C12F8011C03F8011C03339842E8
:1010A00002F10302EED195F8773284F8773295F8A1
:1010B000783284F8783295F8793284F8793295F874
:1010C0007A3284F87A3295F87B3284F87B3295F85C
:1010D0007C3284F87C3295F87D3284F87D3295F844
:1010E0007E3284F87E3295F87F3284F87F3205F2C2
:1010F0007F2204F5207304F2CB2012F8011F03F8BD
:10110000011B8342F9D105F2CA2204F2163012F80B
:10111000011F03F8011B8342F9D195F8163384F8B7
:10112000163395F8173384F8173395F8182395F884
:10113000193384F8193384F8182395F81A3384F88E
:101140001A3395F81B3384F81B33B5F81C13B5F824
:101150001E23B5F82033A4F82033A4F81C13A4F8F8
:101160001E2395F8223384F8223395F8233384F82C
:10117000233395F8243384F8243395F8253384F801
:10118000253395F8263384F8263395F8273384F8E9
:101190002733B5F82833A4F82833B5F82A03B5F86F
:1011A0002C13B5F82E23B5F83033B5F83273B5F8F3
:1011B0003463A4F82A03B5F83603A4F82C13B5F861
:1011C0003813A4F82E23B5F83A23A4F83033B5F831
:1011D0003C33A4F83C33A4F83813A4F83A23A4F819
:1011E0003273A4F83463A4F8360395F83E3384F8D8
:1011F0003E3395F83F3384F83F3395F8403384F815
:10120000403395F8413384F8413395F8423384F8FC
:10121000423395F8433384F8433395F8443384F8E4
:10122000443395F8453384F8453395F8463384F8CC
:10123000463395F8473384F8473395F8483384F8B4
:10124000483395F8493384F8493395F84A3384F89C
:101250004A3395F84B3384F84B3395F84C3384F884
:101260004C3395F84D3384F84D3395F84E3384F86C
:101270004E3395F84F3384F84F3395F8503384F854
:10128000503395F8513384F8513395F8523384F83C
:10129000523395F8533384F8533395F85413D5F8F3
:1012A000582395F85C3384F85C3384F85413C4F8FD
:1012B000582395F85D3384F85D3304F5587205F5CD
:1012C000577104F58A6351F8040F42F8040B9342F6
:1012D000F9D105F24C4204F5A86052F8041F43F816
:1012E000041B8342F9D105F23F5204F27C5012F8FC
:1012F000011F03F8011B8342F9D105F5AF6104F228
:101300006C6251F8040F43F8040B9A42F9D113466A
:1013100004F25C7005F5CD6252F8041F43F8041B1B
:101320009842F9D195F85C3784F85C3795F85D37C9
:1013300084F85D3795F85E3784F85E37B5F8601746
:10134000B5F86227B5F86437A4F86437A4F86017D5
:10135000A4F8622795F8663784F8663795F86737FA
:1013600084F8673795F8683784F8683795F86937EF
:1013700084F8693795F86A3784F86A3705F5ED61BE
:1013800004F26C7304F28C7251F8040F43F8040BEE
:101390009A42F9D105F5F16104F2AC7351F8040FEA
:1013A00042F8040B9342F9D105F5F56204F2CC70D2
:1013B00052F8041F43F8041B8342F9D105F5F96282
:1013C00004F2EC7052F8041F43F8041B8342F9D175
:1013D00005F5FD6204F60C0052F8041F43F8041BE7
:1013E0008342F9D105F6080204F62C0052F8041FD6
:1013F00043F8041B8342F9D1B5F82C38A4F82C38F3
:1014000095F82E3884F82E38B5F83018D5F83428E9
:10141000D5F83838C4F83838A4F83018C4F8342867
:1014200095F83C3884F83C3895F83D3884F83D38D8
:1014300095F83E3884F83E3895F83F3884F83F38C0
:1014400095F8403884F8403895F84108D5F8483880
:1014500095F84218D5F84428C4F8442884F841087F
:1014600084F84218C4F8483895F84C3884F84C3859
:1014700095F84D3884F84D3895F84E3884F84E3844
:1014800095F84F3884F84F3895F8503884F850382C
:1014900095F8513884F8513895F8523884F8523814
:1014A00095F8533884F8533895F8543884F85438FC
:1014B00095F8553884F8553895F8563884F85638E4
:1014C00095F8573884F857382046F8BD30B51D4D8B
:1014D0001D4C83B00023284601AA962123708DF865
:1014E00004308DF805308DF8063009F065FF284688
:1014F0001649FFF737FD95F8C7313BB1144C154934
:101500002046FFF72FFD022384F8C631002401AAEC
:1015100096210E488DF804408DF805408DF8064060
:1015200009F04AFF01AA96210A488DF804408DF877
:1015300005408DF8064009F03FFF85F8C64103B02D
:1015400030BD00BFECA6FF1F1895FF1FB08CFF1F1A
:101550002096FF1F909EFF1F2DE9F0432F4D304E28
:10156000304C314F85B005F5E178324629463B785D
:10157000DFF8B49003A803350AF010F89DF80C10BA
:101580009DF80D209DF80E30217045456270A370C6
:1015900006F1030604F10304E7D1244E3368DB07A8
:1015A0001FD5234D234C2B68039394E80600039B1F
:1015B0005B1A93420CD33B782A6802920133029A59
:1015C0002260DBB23B70FF2B06D005B0BDE8F08394
:1015D00099F80030FF2BF8D1FFF778FF05B0BDE890
:1015E000F08330460AF024FF114D50B9114C2B689E
:1015F000039394E80600039B5B1A9342DBD23B788B
:10160000E1E70D4B2A681B780A4C0192019A22608F
:101610009B00304663600AF011FFE8E7ECA6FF1F6D
:10162000B08CFF1F44AFFF1FAE8CFF1F0C96FF1F37
:1016300084B1FF1F1C95FF1F7D9EFF1F2DE9F04FFA
:10164000944E96F800C01FFA8CF385B0002B00F082
:101650001E8103F1FF3B1FFA8BFB8F488F490BF173
:10166000010B0BEB4B0B834402460D460C461778DF
:1016700092F801A092F802902770033290F8BF818F
:1016800090F8C0E190F8C17184F801A05A4584F83F
:101690000290A0F1030081F8BF8181F8C0E181F8D8
:1016A000C17104F10304A1F10301E0D14A2B27D851
:1016B0007B48C3F1950203EB430102EB420200EBCE
:1016C000010800EB020E01336F1810F801B005F8A5
:1016D00001B0AC189BB298F801A098F802909EF85F
:1016E00001B010F802809EF8021087F801A04B2B81
:1016F00087F8029005F8028084F801B0A170D8D173
:101700000CF1FF3A0AEB4A0A802405EB0A0B594612
:10171000234603A802AA00278DF809408DF80A4045
:101720008DF8087009F03AFF96F800809DF80C30AB
:101730009DF80D209DF80E0005F80A30C8F19608B6
:1017400008EB480805EB0809494623468BF80120B9
:101750008BF8020002AA03A88DF808708DF80940E2
:101760008DF80A4009F01AFF32789DF80C1005F840
:101770000810C2F195019DF80D0089F8010002EBF7
:10178000420C01EB41019DF80E3089F8023005EB67
:101790000C0E6818FF23492A05F80C30DFF8FC808E
:1017A0008EF801308EF80230DFF8E8906B54437009
:1017B00083702ED93B4F3B68DB0717D53A4D3B4C26
:1017C0002B68039394E80600039B5B1A93423378DB
:1017D00006D32A680292013B029A2260DBB2337080
:1017E0000BB9FFF773FE05B0BDE8F08F38460AF07D
:1017F0001FFE2D4D0028E2D02D4B2A681B782B4C64
:101800000192019A22609B00384663600AF016FE3E
:10181000D6E7551C05EB450508EB050A514623465E
:1018200002AA03A88DF808708DF809408DF80A40C7
:1018300009F0B4FE99F800308DF80870C3F19407F0
:1018400007EB470708EB07099DF80CC09DF80DE072
:101850009DF80EB008F805C002AA2346494603A821
:101860008AF801E08AF802B08DF809408DF80A4044
:1018700009F094FE9DF80C109DF80D209DF80E3097
:1018800008F8071089F8012089F8023092E7034D23
:101890000EE700BF5495FF1FECA6FF1F44AFFF1FCC
:1018A000B08CFF1F1096FF1F84B1FF1F3095FF1FE4
:1018B0007D9EFF1F2DE9F04FA24B1D78ABB285B086
:1018C000002B00F0308103F1FF3B1FFA8BFB9E4899
:1018D0009E490BF1010B0BEB4B0B834402460C466C
:1018E0000E4692F800E092F801A092F8029086F875
:1018F00000E0033290F8BF8190F8C0C190F8C1E1D8
:1019000086F801A05A4586F80290A0F1030081F8FC
:10191000BF8181F8C0C181F8C1E106F10306A1F1E0
:101920000301DED14A2B28D88948C3F1950203EB85
:10193000430102EB420200EB010800EB020C013311
:1019400004EB010E10F801B004F801B0A6189BB228
:1019500098F801A098F802909CF801B010F8028065
:101960009CF802108EF801A04B2B8EF8029004F820
:10197000028086F801B0B170D7D1002D40F08F8081
:101980000DF10C0A0DF1080B6E4B1B78C3F195009D
:1019900000EB40005A1C03EB430304EB030E251835
:1019A00002EB4202802604EB02091746FF22E254B2
:1019B0004FF000088EF801208EF8022033462254A2
:1019C00049466A70AA7050465A468DF809608DF8EB
:1019D0000A608DF8088009F0E1FD5A4B9DF80C1063
:1019E0001D789DF80DE08DF80880C5F1940505EB94
:1019F000450504EB050833468DF809608DF80A604B
:101A00009DF80E60E1555A465046414689F801E07E
:101A100089F8026009F0C2FD4E4B9DF80C001B686E
:101A20009DF80D109DF80E206055DB07454888F89D
:101A3000011088F8022020D5474D484C2B680393AD
:101A400094E80600039B5B1A93420ED33D4B2A6831
:101A50001B780292029A226001333A4ADBB2137079
:101A60004A2B05D005B0BDE8F08F03784A2BF9D199
:101A7000FFF72CFD05B0BDE8F08F3648364D0AF073
:101A8000D7FC002851D1354C2B68039394E806000D
:101A9000039B5B1A9342D9D22A4B1B78E0E7013DA6
:101AA00005EB4505802604EB05090DF10C0A0DF147
:101AB000080B4FF000084946334650465A468DF809
:101AC00008808DF809608DF80A6009F067FD1D4BEC
:101AD0009DF80C201B789DF80DC09DF80EE08DF848
:101AE0000880C3F1960303EB430304EB030862553C
:101AF0001F46414633465A46504689F801C089F888
:101B000002E08DF809608DF80A6009F047FD9DF844
:101B10000C109DF80D209DF80E30E15588F801203D
:101B200088F8023030E7094CFEE60D4B2A681B7836
:101B30000A4C0192019A22609B00064863600AF0F9
:101B40007DFCA1E75495FF1FB08CFF1F44AFFF1F22
:101B5000ECA6FF1F1496FF1F84B1FF1F809EFF1F7E
:101B60007D9EFF1F012806D003D3022801D1FFF775
:101B7000A1BEFFF7F1BCFFF761BD00BF10B510219A
:101B8000044694480BF0ECFC214600230A229248BC
:101B90000BF0FAFE022191480BF0E2FC5C2C00F203
:101BA0008182DFE814F07A02750270026B0266022D
:101BB00061025C02570252024D02480243023E0299
:101BC000390234022F022A02250220021B021602C9
:101BD00011020C0207020202FD01F801F301EE01FD
:101BE000E901E401DF01DA01D501D001CB01C60131
:101BF000C101BC01B701B201AD01A801A3019E0161
:101C0000990194018F018A01850180017B01760190
:101C100071016C01670111010C0107010201FD0056
:101C2000F800F300EE00E900E400DF00DA00D50080
:101C3000D000CB00C600C100BC00B700B200AD00B0
:101C4000A800A3009E00990094008F008A008500E0
:101C500080007B00760071006C00670062005D0010
:101C60005F495D48FEF752FE10BD5E495A48FEF7D7
:101C70004DFE10BD5C495848FEF748FE10BD5B495B
:101C80005548FEF743FE10BD59495348FEF73EFE46
:101C900010BD58495048FEF739FE10BD56494E4810
:101CA000FEF734FE10BD55494B48FEF72FFE10BD20
:101CB00053494948FEF72AFE10BD52494648FEF7EF
:101CC00025FE10BD50494448FEF720FE10BD4F4987
:101CD0004148FEF71BFE10BD4D493F48FEF716FE7A
:101CE00010BD4C493C48FEF711FE10BD4A493A4828
:101CF000FEF70CFE10BD49493748FEF707FE10BD40
:101D000047493548FEF702FE10BD46493248FEF706
:101D1000FDFD10BD44493048FEF7F8FD10BD4349B4
:101D20002D48FEF7F3FD10BD41492B48FEF7EEFDAF
:101D300010BD40492848FEF7E9FD10BD3E49264840
:101D4000FEF7E4FD10BD3D492348FEF7DFFD10BD61
:101D50003B492148FEF7DAFD10BD3A491E48FEF71F
:101D6000D5FD10BD38491C48FEF7D0FD10BD3749E0
:101D70001948FEF7CBFD10BD35491748FEF7C6FDE3
:101D800010BD34491448FEF7C1FD10BD3249124858
:101D9000FEF7BCFD10BD31490F48FEF7B7FD10BD81
:101DA0002F490D48FEF7B2FD10BD2E490A48FEF737
:101DB000ADFD10BD2C490848FEF7A8FD10BD2B490C
:101DC0000548FEF7A3FD10BD29490348FEF79EFD17
:101DD00010BD00BF9CF300008C87FF1FB0F3000014
:101DE00044F9000038F9000028F9000018F9000053
:101DF00004F90000ECF80000D4F80000C4F800007A
:101E0000ACF80000A0F8000094F800007CF8000096
:101E100070F8000064F8000058F800004CF800006A
:101E20003CF8000030F800001CF8000010F800003A
:101E300000F80000F4F70000E8F70000E0F7000009
:101E4000CCF70000BCF70000A8F700009CF70000EA
:101E500090F7000084F7000074F7000060F70000BE
:101E600054F7000044F7000038F7000028F700009E
:101E70001CF700008E498F48FEF748FD10BD8E49C3
:101E80008C48FEF743FD10BD8C498A48FEF73EFDA5
:101E900010BD8B498748FEF739FD10BD894985483B
:101EA000FEF734FD10BD88498248FEF72FFD10BDB6
:101EB00086498048FEF72AFD10BD85497D48FEF71A
:101EC00025FD10BD83497B48FEF720FD10BD8249EA
:101ED0007848FEF71BFD10BD80497648FEF716FDD9
:101EE00010BD7F497348FEF711FD10BD7D49714853
:101EF000FEF70CFD10BD7C496E48FEF707FD10BDD6
:101F00007A496C48FEF702FD10BD79496948FEF731
:101F1000FDFC10BD77496748FEF7F8FC10BD764917
:101F20006448FEF7F3FC10BD74496248FEF7EEFC0E
:101F300010BD73495F48FEF7E9FC10BD71495D486B
:101F4000FEF7E4FC10BD70495A48FEF7DFFC10BDF7
:101F50006E495848FEF7DAFC10BD6D495548FEF74A
:101F6000D5FC10BD6B495348FEF7D0FC10BD6A4943
:101F70005048FEF7CBFC10BD68494E48FEF7C6FC42
:101F800010BD67494B48FEF7C1FC10BD6549494883
:101F9000FEF7BCFC10BD64494648FEF7B7FC10BD17
:101FA00062494448FEF7B2FC10BD61494148FEF762
:101FB000ADFC10BD5F493F48FEF7A8FC10BD5E496F
:101FC0003C48FEF7A3FC10BD5C493A48FEF79EFC76
:101FD00010BD5B493748FEF799FC10BD594935489B
:101FE000FEF794FC10BD58493248FEF78FFC10BD37
:101FF00056493048FEF78AFC10BD55492D48FEF77A
:1020000085FC10BD53492B48FEF780FC10BD52499A
:102010002848FEF77BFC10BD50492648FEF776FCA9
:1020200010BD4F492348FEF771FC10BD4D492148B2
:10203000FEF76CFC10BD4C491E48FEF767FC10BD56
:102040004A491C48FEF762FC10BD49491948FEF791
:102050005DFC10BD47491748FEF758FC10BD4649C6
:102060001448FEF753FC10BD44491248FEF74EFCDD
:1020700010BD43490F48FEF749FC10BD41490D48CA
:10208000FEF744FC10BD40490A48FEF73FFC10BD76
:102090003E490848FEF73AFC10BD3D490548FEF7A9
:1020A00035FC10BD3B490348FEF730FC10BD00BFB6
:1020B00008F700008C87FF1FF8F60000ECF6000020
:1020C000E0F60000D4F60000C0F60000B4F6000010
:1020D000A8F600009CF6000084F600007CF60000E4
:1020E00014F7000070F6000064F6000050F60000DF
:1020F0003CF600002CF6000020F6000014F600006C
:1021000008F60000FCF50000F0F50000E4F5000022
:10211000D8F50000CCF50000C0F50000B4F50000D3
:10212000A8F5000098F5000084F5000068F50000AF
:1021300050F5000034F5000024F5000014F500000F
:1021400000F50000F0F40000E8F40000E0F4000006
:10215000C8F40000B8F40000B0F40000A0F40000DF
:1021600090F4000080F400006CF4000058F40000CB
:1021700044F400002CF4000014F4000004F4000007
:10218000F0F30000DCF30000CCF30000C0F300002B
:10219000B4F300005CF9000038B500210446934810
:1021A0000BF0DEF992480BF0DFFB222191480BF097
:1021B000D7F98F480BF0D8FB94F8C631002B00F00C
:1021C000B380012B00F0588613218B480BF0C8F91F
:1021D0008A4B874819780A2200230BF0D5FB03218C
:1021E00087480BF0BDF982480BF0BEFB13218548F0
:1021F0000BF0B6F900230A2294F8C3117C480BF0C7
:10220000C3FB03217E480BF0ABF979480BF0ACFB24
:1022100011217D480BF0A4F994F8C51174480BF016
:10222000F3FB032176480BF09BF971480BF09CFB04
:10223000112176480BF094F994F82832012B78D0CC
:10224000072173480BF08CF903216D480BF088F9D6
:1022500067480BF089FB14216E480BF081F90023CD
:102260000A2294F82B1262480BF08EFB032164487B
:102270000BF076F95E480BF077FB152166480BF002
:102280006FF994F82E125A480BF0BEFB03215C48FC
:102290000BF066F956480BF067FB11215F480BF015
:1022A0005FF994F82A1252480BF0AEFB0321544810
:1022B0000BF056F94E480BF057FB94F82A3273BBDB
:1022C00022214C480BF04CF949480BF04DFB94F897
:1022D0002D32202B00F2C285DFE813F0B400C005D8
:1022E000C005C005C005C0052E01C005C005C0055C
:1022F000C0058001C005C005C005C005C0058E0130
:10230000BD05410443045B040E0599012A026F02D6
:10231000C005AE0204032D03C8030B04300094F87B
:102320002902FFF72BFCCBE73D493148FEF7EEFAD7
:102330004AE73C492E48FEF7DBFA85E73A492C4844
:10234000FEF7E4FA39492A48FEF7D2FA00230A22B6
:1023500094F8571826480BF017FB29492448FEF734
:10236000D5FA33492248FEF7C3FA00230A2294F82B
:1023700053181F480BF008FB21491D48FEF7C6FA09
:102380002C491B48FEF7B4FA00230A2294F854188B
:1023900017480BF0F9FA1A491548FEF7B7FA26491B
:1023A0001348FEF7A5FA00230A2294F8551810489E
:1023B0000BF0EAFA12490E48FEF7A8FA1F490C483A
:1023C000FEF796FA94F85618094800230A220BF0F3
:1023D000DBFA0B490648FEF799FA232118480BF05F
:1023E000BFF80348BDE838400BF0BEBA0CFB000054
:1023F0008C87FF1F74F90000E0F900002387FF1F9E
:10240000F4F90000F8F900000CFA000020FA0000CE
:102410003CFA000044FA00005CFA000074FA000084
:1024200098F9000034FA000080040100A4040100BF
:10243000B8040100CC040100E0040100F404010030
:102440002C05010094F82C329F48042B0CBF9F49A7
:102450009F49FEF75BFA9F499B48FEF749FA94F8BB
:10246000C41199480BF0D0FA9B499748FEF74EFAF1
:102470009A499548FEF73CFA94F8351292480BF0C9
:10248000C3FA95499048FEF741FA95498E48FEF700
:102490002FFA94F836128C480BF0B6FA8E498A4817
:1024A000FEF734FA8F498848FEF722FA00230A2201
:1024B00094F8301284480BF067FA87498248FEF797
:1024C00025FA89498048FEF713FA00230A2294F876
:1024D00031127D480BF058FA7F497B48FEF716FA17
:1024E00082497948FEF704FA00230A2294F832124E
:1024F00075480BF049FA78497348FEF707FA7C49AA
:102500007148FEF7F5F900230A2294F833126E4859
:102510000BF03AFA70496C48FEF7F8F975496A48C9
:10252000FEF7E6F994F8341267480BF06DFA6A4941
:102530006548FEF7EBF950E794F82C32072B00F0D2
:102540000585092B00F02C85062B03D16A495E48CE
:10255000FEF7DCF95F495C48FEF7CAF994F8C4114C
:1025600059480BF051FA5C495748FEF7CFF96349D7
:102570005548FEF7BDF994F87B1253480BF044FA26
:1025800055495148FEF7C2F95D494F48FEF7B0F989
:1025900000230A2294F879124B480BF0F5F94E49C2
:1025A0004948FEF7B3F957494748FEF7A1F9002318
:1025B0000A2294F8781244480BF0E6F9464942485A
:1025C000FEF7A4F994F82C32092B7FF406AF4E499C
:1025D0003D48FEF78DF994F83112F5E694F82C3267
:1025E0000B3B052B00F25284DFE813F0D0044C04BF
:1025F000CB04C604C104BC0444493348FEF786F941
:1026000034493148FEF774F994F8C4118CE7404915
:102610002D48FEF77BF93F492B48FEF769F994F8FE
:102620005433012B00F09884C0F0C084022B07D1F2
:1026300039492548FEF75CF927492348FEF766F932
:1026400036492148FEF754F900230A2294F8511321
:102650001D480BF099F920491B48FEF757F93049FE
:102660001948FEF745F900230A2294F85D1316482D
:102670000BF08AF918491448FEF748F9294912481D
:10268000FEF736F900230A2294F85C170E480BF087
:102690007BF911490C48FEF739F923490A48FEF73E
:1026A00027F900230A22D4F8581307480BF06CF9D5
:1026B00009490548FEF72AF91C490348FEF718F9AD
:1026C00094F8C71130E700BF8C87FF1F88FA00001D
:1026D000ACFA0000D0FA0000F4F90000E8FA0000BB
:1026E000FCFA000010FB000024FB000034FB00009B
:1026F00044FB000054FB00006CFB0000D8FB000012
:10270000E8FB0000F8FB000008FC00006CFD000086
:1027100014FE000038FE00004CFE000068FE0000C1
:1027200080FE000098FE0000B0FE0000CCFE00001D
:10273000AD49AE48FEF7EAF8AD49AC48FEF7D8F827
:10274000B4F83C13A9480BF05FF9AA49A748FEF773
:10275000DDF8A949A548FEF7CBF800230A2294F832
:102760005E17A2480BF010F9A249A048FEF7CEF878
:10277000A2499E48FEF7BCF800230A2294F83212C0
:102780009A480BF001F99B499848FEF7BFF89C491D
:102790009648FEF7ADF800230A2294F831129348C8
:1027A0000BF0F2F893499148FEF7B0F895498F483D
:1027B000FEF79EF894F8331206E693498B48FEF72D
:1027C000A5F892498948FEF793F894F8C411874810
:1027D0000BF01AF987498548FEF798F88C49834829
:1027E000FEF786F8B4F8601780480BF00DF98149C0
:1027F0007E48FEF78BF887497C48FEF779F8B4F8F5
:1028000062177A480BF000F97A497848FEF77EF8AB
:1028100081497648FEF76CF8B4F8641773480BF0FA
:10282000F3F874497148FEF771F87C496F48FEF778
:102830005FF894F86717C7E579496C48FEF766F8C2
:1028400078496A48FEF754F800230A2294F83212B5
:1028500066480BF099F867496448FEF757F87249E3
:102860006248FEF745F800230A2294F83A125F48BE
:102870000BF08AF85F495D48FEF748F86B495B4802
:10288000FEF736F800230A2294F8311257480BF06D
:102890007BF858495548FEF739F865495348FEF723
:1028A00027F800230A2294F8791250480BF06CF8AC
:1028B00050494E48FEF72AF85E494C48FEF718F892
:1028C00000230A2294F8381248480BF05DF8494971
:1028D0004648FEF71BF858494448FEF709F894F8B3
:1028E000771221E655494148FEF710F854493F4810
:1028F000FDF7FEFF00230A2294F869173B480BF00E
:1029000043F83C493948FEF701F84E493748FDF78E
:10291000EFFF00230A2294F86A1734480BF034F8CA
:1029200034493248FDF7F2FF47493048FDF7E0FFF0
:1029300094F82A12F8E545492C48FDF7E7FF444989
:102940002A48FDF7D5FF94F82A1228480BF05CF8C6
:1029500028492648FDF7DAFF3E492448FDF7C8FF1D
:1029600000230A2294F82E1820480BF00DF8214974
:102970001E48FDF7CBFF38491C48FDF7B9FF00237F
:102980000A2294F83D1819480AF0FEFF1949174821
:10299000FDF7BCFF31491548FDF7AAFFB4F8301820
:1029A00012480BF031F813491048FDF7AFFF2C49DE
:1029B0000E48FDF79DFF94F83E38012B00F0C182D0
:1029C000C0F0E982022B03D126490848FDF790FFA9
:1029D00008490648FDF79AFF23490448FDF788FF98
:1029E000B4F82C18A0E500BFA80001008C87FF1FD9
:1029F000CC000100F4F90000E4000100F80001003F
:102A0000100101002801010040010100D0FA00007E
:102A1000640101007C01010094010100A801010092
:102A2000BC010100E0010100F801010010020100F9
:102A30002802010040020100540201006C02010062
:102A400090020100A0020100BC020100D4020100BA
:102A5000F8020100100301002803010040030100F7
:102A60005403010068030100780301008A498B4880
:102A7000FDF74CFF8A498948FDF73AFF94F8C411E5
:102A800086480AF0C1FF87498448FDF73FFF864921
:102A90008248FDF72DFF00230A2294F83F187F4853
:102AA0000AF072FF7F497D48FDF730FF7F497B4880
:102AB000FDF71EFF00230A2294F8401877480AF019
:102AC00063FF78497548FDF721FF79497348FDF7A1
:102AD0000FFF94F8411871480AF096FF71496F484A
:102AE000FDF714FF73496D48FDF702FF94F8421893
:102AF0001AE571496948FDF709FF69496748FDF71B
:102B0000F7FE94F8C41165480AF07EFF65496348F2
:102B1000FDF7FCFE69496148FDF7EAFE00230A2241
:102B200094F84C185D480AF02FFF5E495B48FDF7AA
:102B3000EDFE63495948FDF7DBFE00230A2294F8B5
:102B40004D1856480AF020FF56495448FDF7DEFE5E
:102B50005C495248FDF7CCFE94F84E1834E45A49CB
:102B60004BE55A494D48FDF7D1FE4D494B48FDF71D
:102B7000BFFE94F8C41149480AF046FF4949474846
:102B8000FDF7C4FE52494548FDF7B2FE94F83E13E6
:102B90001AE450494148FDF7B9FE41493F48FDF765
:102BA000A7FE94F8C4113D480AF02EFF3D493B486A
:102BB000FDF7ACFE48493948FDF79AFE00230A228A
:102BC00094F83F1335480AF0DFFE36493348FDF7E5
:102BD0009DFE42493148FDF78BFE00230A2294F8FE
:102BE00040132E480AF0D0FE2E492C48FDF78EFEE9
:102BF0003B492A48FDF77CFE00230A2294F8411342
:102C000026480AF0C1FE27492448FDF77FFE3549D2
:102C10002248FDF76DFE00230A2294F842131F4854
:102C20000AF0B2FE1F491D48FDF770FE2E491B48F1
:102C3000FDF75EFE00230A2294F8461317480AF0B7
:102C4000A3FE18491548FDF761FE28491348FDF712
:102C50004FFE00230A2294F8431310480AF094FE12
:102C600010490E48FDF752FE21490C48FDF740FE81
:102C700000230A2294F84F1308480AF085FE0949F8
:102C80000648FDF743FE1B490448FDF731FE94F862
:102C90005013FFF799BB00BF880301008C87FF1F0B
:102CA000D0FA0000F4F90000AC030100C4030100F5
:102CB000E0030100FC0301001404010038040100DA
:102CC0005004010068040100B4FD0000D8FD0000BC
:102CD000FCFD0000E4FE000008FF00001CFF0000F7
:102CE00030FF000044FF000058FF00006CFF0000B0
:102CF00080FF000094FF0000AE49AF48FDF706FEDC
:102D0000AE49AD48FDF7F4FD94F8C411AA480AF0A5
:102D10007BFEAB49A848FDF7F9FDAA49A648FDF797
:102D2000E7FD00230A2294F84713A3480AF02CFE7B
:102D3000A349A148FDF7EAFDA3499F48FDF7D8FD47
:102D400000230A2294F84D139B480AF01DFE9C496B
:102D50009948FDF7DBFD9D499748FDF7C9FD002324
:102D60000A2294F8401394480AF00EFE94499248BF
:102D7000FDF7CCFD96499048FDF7BAFD00230A22E5
:102D800094F849138C480AF0FFFD8D498A48FDF7F5
:102D9000BDFD90498848FDF7ABFD00230A2294F859
:102DA000421385480AF0F0FD85498348FDF7AEFDE2
:102DB00089498148FDF79CFD00230A2294F84A13B3
:102DC0007D480AF0E1FD7E497B48FDF79FFD834980
:102DD0007948FDF78DFD00230A2294F841137648C7
:102DE0000AF0D2FD76497448FDF790FD7C4972489F
:102DF000FDF77EFD00230A2294F84B136E480AF07B
:102E0000C3FD6F496C48FDF781FD76496A48FDF7BF
:102E10006FFD00230A2294F8461367480AF0B4FDB8
:102E200067496548FDF772FD6F496348FDF760FD2E
:102E300000230A2294F84C135F480AF0A5FD60496C
:102E40005D48FDF763FD69495B48FDF751FD94F866
:102E50004313FFF7B9BA6649FFF7CFBB6549564838
:102E6000FDF754FD64495448FDF750FD614952484F
:102E7000FDF74CFDFFF7B1BA60494F48FDF746FD3D
:102E8000FFF7A2B95E494C48FDF740FD5D494A484D
:102E9000FDF72EFD00230A2294F87C1246480AF022
:102EA00073FD47494448FDF731FD57494248FDF756
:102EB0001FFD00230A2294F87E123F480AF064FDA9
:102EC0003F493D48FDF722FD94F81853D5B14F49CD
:102ED0003948FDF70DFD94F8181337480AF094FDB2
:102EE00037493548FDF712FD94F82C320F3B012B82
:102EF0003FF673AA46493048FDF7FAFC94F81B13D5
:102F0000FFF762BA43492C48FDF7F2FC2B460A2230
:102F100094F87D1228480AF037FD29492648FDF724
:102F2000F5FC3D492448FDF7E3FC94F87F12224864
:102F30002B460A220AF028FD21491F48FDF7E6FC2E
:102F4000C5E736491C48FDF7D3FC41E534491A482A
:102F5000FDF7DCFCFFF7FEBA32491748FDF7D6FC57
:102F6000FFF76EBB30491448FDF7D0FC8EE72F49C0
:102F70001148FDF7CBFC89E72D490F48FDF7C6FC4A
:102F800084E72C490C48FDF7C1FC7FE72A490A4831
:102F9000FDF7BCFC7AE729490748FDF7A9FC17E5CE
:102FA00027490548FDF7B2FCFFF7D4BA2549FFF7DA
:102FB00040BB00BFA8FF00008C87FF1FD0FA0000B5
:102FC000F4F90000CCFF0000E0FF0000F4FF000077
:102FD000080001001C000100300001004400010055
:102FE000580001006C000100800001009400010005
:102FF00090FD00000CFB000008050100BCF900007A
:103000008CFC0000F8FC00000CFD000048FD0000F6
:1030100058FD000020FD000034FD00007003010099
:1030200090FB00005CFE000044FC000020FC00005F
:10303000D4FC0000B0FC000068FC000058FE00005A
:10304000B4FB000054FE00002DE9F04F8DB0342198
:10305000054609904648474C0AF082FA46480AF06D
:1030600083FC332145480AF07BFA43480AF07CFC94
:10307000332143480AF074FA3F480AF075FC41488E
:10308000414A0388117803EB432203EB820303F5E3
:10309000585319339BB203EB1322D2B212FB01F245
:1030A0001212038054F8228085F82922002758F84C
:1030B0002730DBB20137FF2BBFB2F8D1D8F8003090
:1030C000099A08974FEA136902F5FC72C3F3072BBC
:1030D000C3F3074A4FF0FF33079206930024CE460E
:1030E00058F8045F0798C5F307274FEA241CC5F377
:1030F0000746ECB2F9B2C5F307650491E9B2059150
:103100005FFA8CF1039108990F290AAA4FEA141368
:103110005FFA86F90CD806998C4507DC0F2905D093
:103120000131C9B28B42039138BF0B4659B20691A7
:103130000BA9009103998DF828B08DF829A08DF87E
:103140002AE08DF82C708DF82D608DF82E5008F047
:1031500063F9FF2CDDF810B0DDF814E0CA46BFD1EA
:10316000099B93F82902FEF709FD0DB0BDE8F08F29
:1031700050050100901001008C87FF1F8805010099
:10318000BC0501008487FF1F5487FF1F244B254A7D
:103190001B7800211170072B09D8DFE803F0131CFE
:1031A000252E34043A0A204B1B8880F83232FEF771
:1031B000F3BF1D4B1B88003318BF012380F8343246
:1031C000FEF7EABF184B1B88003318BF012380F8B5
:1031D000C431FEF7E1BF144B1B88003318BF012335
:1031E00080F83532FEF7D8BF0F4B1B88003318BF6D
:1031F000012380F83632FEF7CFBF0B4B1B8880F8D7
:103200003032FEF7C9BF084B1B8880F83132FEF719
:10321000C3BF054B1B8880F83332FEF7BDBF00BF2C
:103220007C9EFF1F1996FF1F1A95FF1F2DE9F04F77
:1032300090F82E3289B00446002B40F09D80D44E89
:1032400080F82D32338803EB432003EB800000F538
:103250005850193080B200EB402500EB850505F58C
:1032600058551935ADB205EB452305EB830303F53E
:103270005853193303EB432203EB820303F55853EE
:1032800019339BB203EB432103EB810101F5585144
:10329000193189B201EB412201EB820202F5585249
:1032A000193292B202EB422E02EB8E0E0EF5585EF0
:1032B0000EF1190E1FFA8EFE0EEB4E2C0EEB8C0C3F
:1032C0000CF5585C0CF1190C1FFA8CFC03EB13275E
:1032D0000CEB4C280CEB880801EB1121FFB202EB40
:1032E00012220EEB1E2E07EB870708F55858C9B2BD
:1032F000D3B201EB4101CEF3C01208F119084FEA35
:10330000272E1FFA88F88F1100EB10200EF1010113
:1033100003EB430305EB15251B11C0F3C019C5F3DF
:10332000C01507F1080001320CEB1C2C84F8301298
:1033300008EB182103F12007D2B2CCF3C01384F8B4
:103340003652C1F3C01184F831020F25012084F8F0
:10335000359284F8327284F83322A6F8008084F81B
:10336000C41184F8343284F82E0284F82A0284F8D6
:10337000C351002B40F07781864B1B78002B40F027
:103380007D8194F83432D3B1834B94F82912002212
:1033900003F1270084F82F2201E083420FD013F8B5
:1033A000012F8A42F9D194F833327C4AA2FB0323DD
:1033B000DB080133002284F8333284F8342296216A
:1033C00094F83222204608F0B9F894F83512002912
:1033D00040F0EC8094F8367294F83032002F00F010
:1033E000AC81002B00F073826D4894F82F22DFF837
:1033F000B4910390DFF8B0B10F460DF11C0A04F54B
:10340000E47804F1E1055DE094F831123B440B44AB
:10341000D9F800100491FF2B049998BF1B024FF4B8
:103420008C7000FB01F198BF9BB203FB01F31B0CF6
:103430005804C3F3CA0103D5C1F5FF61073189B24E
:10344000080A039E365C3BF81000C1F3460106FBF8
:10345000010189B21E0448BF49420EB294F82812F5
:1034600094F8C23100915046414608F0C7F8A6F5DD
:10347000004396229BB202FB03F31B0C03EB4303B6
:10348000E118E25C9DF81C0082FA50F2E2549DF8CB
:103490001D304A7882FA53F24A708B789DF81E20CC
:1034A00083FA52F38B7094F82F1294F8332294F825
:1034B000303201370A44FFB2D2B2BB4284F82F2225
:1034C00040F2058294F8C41100299DD194F831127C
:1034D0003B440B44D9F800100591FF2B059998BF88
:1034E0001B024FF48C7000FB01F198BF9BB203FBF1
:1034F00001F31B0C5804C3F3CA0103D5C1F5FF61E6
:10350000073189B2080A039E365C3BF81000C1F30C
:10351000460106FB010189B21E0448BF49420EB2B2
:1035200094F8281294F8C23100915046414608F0B0
:1035300065F8A6F500439BB203EB8303C3EB0313CB
:103540001B0C03EB4303E118E25C9DF81C0082FABC
:1035500050F2E2549DF81D304A7882FA53F24A70D4
:103560008B789DF81E2083FA52F38B7022462346F7
:10357000197882F8BF11597882F8C011997882F8C9
:10358000C11103339D42A2F10302F1D18BE700BFC9
:103590008487FF1F1996FF1F5B87FF1FCDCCCCCC04
:1035A0003412010084B1FF1FFC0A010094F8366256
:1035B000002E67D094F83032002B00F0888100256F
:1035C0000DF11C0A04F5E4784FF4FA7639E006FBB5
:1035D00005F3002900F0B5819522002194F831020D
:1035E000FCF768FF94F8281294F8C23194F82F225F
:1035F000009107464146504608F000F807EB4703A4
:10360000E118E25C9DF81C0082FA50F2E2544A781C
:103610009DF81D3082FA53F24A708B789DF81E2077
:1036200083FA52F38B7094F82F1294F8333294F893
:1036300030220135EDB20B44AA4284F82F3240F219
:10364000468194F8C53194F8C411002BBFD10029EC
:1036500000F0B8811946952206FB05F394F8310273
:10366000FCF76AFFBEE702EB820202FA00F384F87D
:103670003332D04B1B78002B3FF483AE2046FFF74C
:1036800085FD7EE694F83012002900F020810DF1CE
:103690001C0A04F5E47804F1E1053CE094F8C43137
:1036A00094F831023144002B00F0148100230844C7
:1036B00095221946FCF7FEFE94F8281294F8C231C0
:1036C00094F82F22009107464146504607F096FF96
:1036D00007EB4703E118E25C9DF81C0082FA50F208
:1036E000E2544A789DF81D3082FA53F24A708B7882
:1036F0009DF81E2083FA52F38B7094F82F2294F8D1
:10370000333294F830120136F6B21344B14284F8E1
:103710002F3240F2DC8094F8C531002BBED194F8F2
:10372000310294F8C42131440844002A00F0858114
:1037300019469522FCF700FFBEE7002B00F0C7807A
:103740009D4B94F82F22DFF874920393DFF870B248
:1037500004F5E4784FF48C7A04F1E10557E0D9F8E8
:1037600000300693069B94F831120AFB03F309021A
:1037700003FB01F3790301EB134399B24804C1F34E
:10378000CA0303D5C3F5FF6307339BB2180A039E30
:10379000365C3BF81000C3F3460306FB03039BB201
:1037A0000E0448BF5B4294F828121EB205A894F894
:1037B000C2310091414607F021FFA6F50043962251
:1037C0009BB202FB03F31B0C03EB4303E118E25C27
:1037D0009DF8140082FA50F2E2549DF815304A78B0
:1037E00082FA53F24A708B789DF8162083FA52F3CE
:1037F0008B7094F82F2294F8333294F830120137FA
:103800001A44FFB2D2B2B94284F82F225FD994F899
:10381000C431002BA3D1D9F800300793079994F84D
:1038200031320AFB01F11B0203FB01F3790301EBC7
:10383000134399B24804C1F3CA0303D5C3F5FF6328
:1038400007339BB2180A039E365C3BF81000C3F3A3
:10385000460306FB030309049BB248BF5B4294F88E
:1038600028121EB205A894F8C2310091414607F013
:10387000C5FEA6F500439BB203EB8303C3EB031322
:103880001B0C03EB4303E118E25C9DF8140082FA81
:1038900050F2E2549DF815304A7882FA53F24A7099
:1038A0008B789DF8162083FA52F38B7022462346BC
:1038B000197882F8BF11597882F8C011997882F886
:1038C000C1110333AB42A2F10302F1D191E709B078
:1038D000BDE8F08F08444A221946FCF7EBFD94F846
:1038E000281294F8C23194F82F22009107464146DD
:1038F000504607F083FE07EB4703E118E25C9DF8B2
:103900001C0082FA50F2E2549DF81D304A7882FA87
:1039100053F24A708B789DF81E2083FA52F38B7015
:1039200022462346197882F8BF11597882F8C011CF
:10393000997882F8C1110333AB42A2F10302F1D1AD
:10394000DBE64A2294F83102FCF7B4FD94F8281221
:1039500094F8C23194F82F22009107464146504610
:1039600007F04CFE07EB4703E118E25C9DF81C00F2
:1039700082FA50F2E2549DF81D304A7882FA53F2EE
:103980004A708B789DF81E2083FA52F38B7004F1F5
:10399000E10023462246197882F8BF11597882F84F
:1039A000C011997882F8C11103338342A2F1030256
:1039B000F1D138E61996FF1F3412010084B1FF1FC0
:1039C000FC0A010006FB05F34A2294F83102FCF7D9
:1039D000B3FD94F8281294F8C23194F82F22009184
:1039E00007464146504607F009FE07EB4703E1183A
:1039F000E25C9DF81C0082FA50F2E2549DF81D3002
:103A00004A7882FA53F24A708B789DF81E2083FA26
:103A100052F38B7004F1E10023462246197882F8B4
:103A2000BF11597882F8C011997882F8C111033317
:103A30008342A2F10302F1D1F5E5134611464A2271
:103A4000FCF77AFD94F8281294F8C23194F82F22EA
:103A5000009107464146504607F0D0FD07EB47036B
:103A6000E118E25C9DF81C0082FA50F2E2549DF8E5
:103A70001D304A7882FA53F24A708B789DF81E20E6
:103A800083FA52F38B7022462346197882F8BF11CD
:103A9000597882F8C011997882F8C1110333AB428A
:103AA000A2F10302F1D128E62DE9F04F90F82E3271
:103AB0008DB00446002B40F09D80C54E80F82D321D
:103AC000338803EB432003EB800000F55850193096
:103AD00080B200EB402500EB850505F558551935FA
:103AE000ADB205EB452305EB830303F558531933BA
:103AF00003EB432203EB820303F5585319339BB2C4
:103B000003EB432103EB810101F55851193189B2CF
:103B100001EB412201EB820202F55852193292B2B6
:103B200002EB422E02EB8E0E0EF5585E0EF1190ED0
:103B30001FFA8EFE0EEB4E2C0EEB8C0C0CF5585C27
:103B40000CF1190C1FFA8CFC03EB13270CEB4C281F
:103B50000CEB880801EB1121FFB202EB12220EEBF5
:103B60001E2E07EB870708F55858C9B2D3B201EBF0
:103B70004101CEF3C01208F119084FEA272E1FFAAF
:103B800088F88F1100EB10200EF1010103EB4303C5
:103B900005EB15251B11C0F3C019C5F3C01507F1BE
:103BA000080001320CEB1C2C84F8301208EB1821B1
:103BB00003F12007D2B2CCF3C01384F83652C1F31C
:103BC000C01184F831020F25012084F8359284F861
:103BD000327284F83322A6F8008084F8C41184F885
:103BE000343284F82E0284F82A0284F8C351002B60
:103BF00040F09082774B1B78002B40F0968294F82F
:103C0000343213B1002384F82F3294F832229621F3
:103C1000204607F093FC94F8C57194F83022002FE9
:103C200040F09981002A00F050836B4BDFF8ACB173
:103C3000DFF8ACA1039304F5E4780DF12C09BEB2D2
:103C40009319039A94F83112126807920B44FF2BD0
:103C5000079A98BF1B024FF48C7198BF9BB201FB6F
:103C600002F203FB02F3C3F30E43A3F580439BB2BE
:103C70005D04C3F3CA0203D5C2F5FF62073292B2F4
:103C8000100AC2F346011BF800503AF8102005FB59
:103C90000122180492B248BF554294F8281294F8B1
:103CA000C23154BF15B22DB294F82F22009148466C
:103CB000414607F0A3FCA5F5004326229BB202FB78
:103CC00003F31B0C25339BB203EB4303E118E25CC7
:103CD0009DF82C0082FA50F2E2549DF82D304A787B
:103CE00082FA53F24A708B789DF82E2083FA52F3B1
:103CF0008B7094F8312294F8303216441E44039BA2
:103D00001B680693FF2E069A98BF36024FF48C73F9
:103D100098BFB6B203FB02F206FB02F2C2F30E42F8
:103D200002F580425104C2F3CA0303D5C3F5FF6311
:103D300007339BB2180AC3F346011BF800503AF848
:103D4000103005FB013316049BB248BF5B4294F868
:103D5000281294F82F221DB2484694F8C2310091DF
:103D6000414607F04BFCA5F5004326229BB202FB1F
:103D700003F31B0C03EB4303E118E25C9DF82C00FA
:103D800082FA50F2E2549DF82D304A7882FA53F2CA
:103D90004A708B789DF82E2083FA52F38B7094F83A
:103DA00030320137FFB2BB421A463FF648AF94F8B3
:103DB000C421002A00F09A8194F8C571002F40F0C8
:103DC000C1814FF48C79002B00F0C2800AE000BF63
:103DD0008487FF1F1996FF1F84B1FF1F3412010053
:103DE000FC0A010094F8312201331344039ABEB255
:103DF00012680B9233449BB2FF2B0B9A9CBF1B02A1
:103E00009BB209FB02F203FB02F3C3F30E43A3F5DB
:103E100080439BB25D04C3F3CA0203D5C2F5FF62BF
:103E2000073292B2110AC2F346021BF801503AF867
:103E3000111005FB02151804ADB294F8281294F87D
:103E4000C23194F82F22009148BF6D42414609A823
:103E50002DB207F0D3FBA5F5004326229BB202FB4F
:103E600003F31B0C70339BB203EB4303E118E25CDA
:103E70009DF8240082FA50F2E2549DF825304A78E9
:103E800082FA53F24A708B789DF8262083FA52F317
:103E90008B7094F8312294F83032134401331E446D
:103EA000039B1B680A93B6B2FF2E0A9A9CBF360288
:103EB000B6B209FB02F206FB02F2C2F30E4202F5B1
:103EC00080425104C2F3CA0303D5C3F5FF6307332D
:103ED0009BB2180AC3F346011BF800503AF81030A1
:103EE00005FB013312049BB248BF5B4294F82812D1
:103EF00094F82F221DB209A894F8C23100914146CE
:103F000007F07CFBA5F500439BB203EBC30203EB78
:103F100082031B0C4B339BB203EB4303E118E25CBF
:103F20009DF8240082FA50F2E2549DF825304A7838
:103F300082FA53F24A708B789DF8262083FA52F366
:103F40008B70013794F83032FFB2BB423FF64AAF74
:103F50000DB0BDE8F08F002A00F0B781754BDFF897
:103F6000DCB1DFF8DCA1039304F5E47800270DF160
:103F70002C09BEB29319039A94F831121268059273
:103F80000B44FF2B059A98BF1B024FF48C7198BF0E
:103F90009BB201FB02F203FB02F3C3F30E4303F5F2
:103FA00080435D04C3F3CA0203D5C2F5FF62073242
:103FB00092B2100AC2F346011BF800503AF81020E2
:103FC00005FB0122180492B248BF554294F828120A
:103FD00094F8C23154BF15B22DB294F82F2200913B
:103FE0004846414607F00AFBA5F5004326229BB24E
:103FF00002FB03F31B0C25339BB203EB4303E118D5
:10400000E25C9DF82C0082FA50F2E2549DF82D30CB
:104010004A7882FA53F24A708B789DF82E2083FA00
:1040200052F38B7094F8312294F8303216441E44C7
:10403000039B1B680493FF2E049B98BF36024FF42A
:104040008C7298BFB6B202FB03F306FB03F3C3F313
:104050000E43A3F580439BB25904C3F3CA0203D5B0
:10406000C2F5FF62073292B2100AC2F346011BF892
:1040700000503AF8102005FB01221E0492B248BFFE
:10408000524294F8281294F8C23115B2484694F876
:104090002F220091414607F0B1FAA5F500432622F0
:1040A0009BB202FB03F31B0C03EB4303E118E25C3E
:1040B0009DF82C0082FA50F2E2549DF82D304A7897
:1040C00082FA53F24A708B789DF82E2083FA52F3CD
:1040D0008B7094F830320137FFB2BB421A463FF67C
:1040E00048AF94F8C421002A7FF466AE04F1E101E0
:1040F0002346227883F8BF21627883F8C021A27812
:1041000083F8C1210334A142A3F10303F1D10DB01F
:10411000BDE8F08F02EB820202FA00F384F833323A
:10412000054B1B78002B3FF46AAD2046FFF72EF8B5
:1041300065E500BF84B1FF1F1996FF1F341201000F
:10414000FC0A0100002B3FF403AF002794F8312252
:1041500001331344039ABEB21268099233449BB2EE
:10416000FF2B099A98BF1B024FF48C7198BF9BB22A
:1041700001FB02F203FB02F3C3F30E4303F580439A
:104180005D04C3F3CA0203D5C2F5FF62073292B2DF
:10419000110AC2F346021BF801503AF8111005FB50
:1041A00002151804ADB294F8281294F8C23194F8AC
:1041B0002F22009148BF6D42414648462DB207F07C
:1041C0001DFAA5F5004326229BB202FB03F31B0C4C
:1041D00070339BB203EB4303E118E25C9DF82C00C3
:1041E00082FA50F2E2549DF82D304A7882FA53F266
:1041F0004A708B789DF82E2083FA52F38B7094F8D6
:10420000312294F83032134401331E44039B1B685F
:104210000893B6B2FF2E089B98BF36024FF48C72FB
:1042200098BFB6B202FB03F306FB03F3C3F30E43DE
:10423000A3F580439BB25904C3F3CA0203D5C2F568
:10424000FF62073292B2110AC2F346021BF8015014
:104250003AF8111005FB02151E04ADB294F82812AD
:1042600094F8C23194F82F22009148BF6D42414624
:1042700048462DB207F0C2F9A5F500439BB203EB07
:10428000C30203EB82031B0C4B339BB203EB4303D0
:10429000E118E25C9DF82C0082FA50F2E2549DF89D
:1042A0002D304A7882FA53F24A708B789DF82E208E
:1042B00083FA52F38B70013794F83032FFB2BB426D
:1042C0003FF644AF0DB0BDE8F08F94F8C431002B39
:1042D0003FF40CAF3CE600BF1A4B1B4A1B78002191
:1042E0001170042B08D8DFE803F00F1E0327090024
:1042F000164B1B8880F87932FDF74EBF134B1B8895
:1043000080F83132FDF748BF104B1B88002B14BFDB
:104310000123002380F8C43114BF96234B23A0F857
:104320003C33FDF739BF094B1B88003318BF01230D
:1043300080F87B32FDF730BF044B1B8880F8783261
:10434000FDF72ABF7C9EFF1F1996FF1F1A95FF1FBE
:1043500090F82E322DE9F0410446002B5CD16948DB
:1043600084F82A32038803EB432203EB820303F52C
:10437000585319339BB203EB432203EB820202F53D
:104380005852193292B202EB422102EB810101F53F
:104390005851193189B201EB412601EB860606F529
:1043A000585603EB1323DBB21936B6B203EBC3073F
:1043B00006EB162503EB4703EDB21B1205EB850553
:1043C00001334FF0010E01EB1121ED11DBB2C1F30E
:1043D000C0170680033506260F207345E9B284F81E
:1043E000C47184F82EE284F87BE284F82D6284F8AC
:1043F000C30100F0858002EB1222D2B202EB42022E
:1044000012127244D2B284F8793284F8782284F895
:1044100031122046FDF7C0FE3B4B1B78002B6BD1C1
:1044200094F8C53143BB94F87A2294F878321A4450
:1044300094F87B32D2B284F87A224BBB94F8C43120
:10444000002B51D194F879324B21204606F0C4FF5D
:10445000204604F1E1012346027883F8BF21427827
:1044600083F8C021827883F8C12103308842A3F108
:104470000303F1D1BDE8F08194F87A3294F8782200
:104480009A1A94F87B32D2B284F87A22002BD5D0D3
:1044900094F879322521204606F09EFF04F16F053D
:1044A000234621462246107881F8DE00507881F8B4
:1044B000DF00907881F8E0000332AA42A1F1030105
:1044C000F1D104F1E1012046027883F8BF2142785E
:1044D00083F8C021827883F8C12103308842A3F198
:1044E0000303F1D1BDE8F08194F87932204696219A
:1044F000BDE8F04106F070BF2046FFF7EDFE8FE704
:104500001A4680E78487FF1F1996FF1FF0B590F8C1
:104510002E3283B00446002B5CD19C4884F82A32AA
:10452000038803EB432203EB820303F5585319334B
:104530009BB203EB432203EB820202F5585219327D
:1045400092B202EB422102EB810101F5585119317F
:1045500089B201EB412601EB860606F5585603EBBE
:104560001323DBB21936B6B203EBC30706EB1625ED
:1045700003EB4703EDB21B1205EB850501334FF04A
:10458000010E01EB1121ED11DBB2C1F3C017068062
:10459000033506260F207345E9B284F8C47184F808
:1045A0002EE284F87BE284F82D6284F8C30100F0E7
:1045B000EB8002EB1222D2B202EB420212127244E0
:1045C000D2B284F8793284F8782284F83112204605
:1045D000FDF7E2FD6E4B1B78002B40F0C98094F88C
:1045E000C5316C4A002B61D112680092009994F891
:1045F000313294F878524FF48C7202FB01F21B02B4
:1046000003FB02F31B0ED9B2480600F1A98001F0AA
:104610003F0201F00F006049121152008E18895CB0
:10462000727812FB00F001EB2011CAB2190648BFE4
:10463000524252B294F87A32803AD2B22B4402EB10
:10464000420203EBE21294F87B32D2B284F87A226F
:10465000002B60D094F879322521204606F0BCFE6C
:1046600004F16F05234621462246107881F8DE00CA
:10467000507881F8DF00907881F8E0000332AA4298
:10468000A1F10301F1D104F1E10120461A7880F88B
:10469000BF215A7880F8C0219A7880F8C12103336D
:1046A0008B42A0F10300F1D103B0F0BD126801927A
:1046B000019994F8313294F878524FF48C7202FBDD
:1046C00001F21B0203FB02F31B0ED9B24A063FD4D0
:1046D00001F03F0201F00F002F49121152008E1815
:1046E000895C727812FB00F001EB2011CAB21B0644
:1046F00048BF524252B294F87A32803AD2B25B1B2F
:1047000002EB4202A3EBE21294F87B32D2B284F8BD
:104710007A22002B9ED194F8C4316BBB94F8793285
:104720004B21204606F058FE204604F1E1012346C5
:104730001A7880F8BF215A7880F8C0219A7880F8DA
:10474000C12103339942A0F10300F1D103B0F0BDC0
:10475000C943CAB202F00F00013002F03F02BBE7CA
:10476000C943CAB202F00F00013002F03F0252E723
:104770002046FFF7B1FD32E794F8793220469621C2
:1047800006F02AFE03B0F0BD1A461AE78487FF1F21
:104790001996FF1F84B1FF1F9C0C0100F0B590F823
:1047A0002C429DF818609DF81CE00B2501270F3C5A
:1047B00080F82D52BC424FF00F0580F8C35180F8AD
:1047C0002E729DF814503DD900234B2480F87C5262
:1047D00080F87E6280F8181380F8192380F81BE3B4
:1047E00080F82A3280F8173380F816431F4C23884C
:1047F00003EB432203EB820303F5585319339BB2B7
:1048000003EB432203EB820202F55852193292B2B3
:1048100003EB132302EB1221DBB2C9B203EB430318
:1048200001EB41010A3D0A3EC3EBC303C1EBC101E9
:1048300005EB232306EB212180F87D32228080F8CE
:104840007F12F0BD80F82A7280F87C5280F87E6278
:1048500080F8181380F8192380F81BE312B1252281
:1048600080F8172380F81633C0E700BF8487FF1F46
:10487000194B1A4A1B7800211170052B08D8DFE864
:1048800003F00F151B032109154B1B8880F87F329D
:10489000FDF782BC124B1B8880F81B33FDF77CBCF4
:1048A0000F4B1B8880F87C32FDF776BC0C4B1B88C5
:1048B00080F87E32FDF770BC094B1B8880F87D3292
:1048C000FDF76ABC064B1B88003318BF012380F834
:1048D0001833FDF761BC00BF7C9EFF1F1996FF1FB8
:1048E0001A95FF1F2DE9F04390F82E32C54D87B081
:1048F0000446002B00F01082C34B1B78002B40F0C5
:10490000078294F81633002B00F0BA8294F87E12D6
:104910002A8801EB81014F0003F27F2E97FBF3F70A
:104920000237FFB2A64404F27F2602EB422102EBDB
:10493000810202F55852193292B202EB122116F896
:10494000010FC9B211FB07F1A0EB112121EAE171BE
:10495000B6453170E9D12A80DF1E012F16DD03F53F
:104960001F7003F27E2EDFF8A4C22044A64404F593
:104970002078017810F8016D01EB46018CFB01965F
:10498000A6EBE17140450EF8011DF2D102EB422188
:1049900002EB810202F55852193292B202EB122157
:1049A00094F87C622A80C9B28E42964826D902EBDE
:1049B000422102EB810202F55852193292B202EB07
:1049C000422602EB860606F558561936B6B206EBB5
:1049D000162102EB1222C9B2D2B201EB410EC2EB98
:1049E000C20204EB2222C1EB4E110912068060398B
:1049F00092F8800280FA51F082F8800294F818C38D
:104A0000BCF1000F7AD1002B00F02F8294F87F12B6
:104A10002A8801EB81014E0003F2CA2E96FBF3F6C1
:104A20000236F6B2A64404F2CA2002EB422102EB9F
:104A3000810202F55852193292B202EB122110F89B
:104A4000018FC9B211FB06F1A8EB112121EAE17136
:104A500070450170E9D12A80012F16DD03F2C720CD
:104A600003F2C927DFF8A4E12044274404F2CB284D
:104A7000017810F8016D01EB46018EFB0196A6EB63
:104A8000E171804507F8011DF2D102EB422102EBF2
:104A9000810202F55852193292B202EB122194F8B7
:104AA0007D622A80C9B28E42564827D902EB422144
:104AB00002EB810202F55852193292B202EB422502
:104AC00002EB850505F55855193502EB1222ADB2FA
:104AD000D2B205EB1521C2EBC202C9B204EB22220D
:104AE00001EB4106C1EB461192F8CB620580091239
:104AF0006039304680FA51F082F8CB0294F8C52133
:104B0000002A5ED1002B00F0D38004F27F2790466C
:104B1000B94605AE013BC8EB030505EB450519F8A1
:104B2000011F304606F048FD9DF8143063552544BA
:104B30009DF816309DF815206A70AB7094F8163306
:104B400008F101084345E5DC94F819230AB394F809
:104B5000C521002A40F049819046002B00F08A814F
:104B600008EB030517F8011F304606F025FD05EB9D
:104B700045039DF81420E25423449DF815109DF838
:104B8000162059709A7094F8163308F101084345BD
:104B9000E6DC94F81823002A3AD004F1E101234618
:104BA000227883F8BF21627883F8C021A27883F845
:104BB000C1210334A142A3F10303F1D107B0BDE841
:104BC000F083002B00F0538104F27F27B94625467D
:104BD0004FF0000805AE19F8011F304606F0ECFC56
:104BE0009DF816309DF814109DF8152029706A70F4
:104BF000AB7094F8163308F10108434505F103053D
:104C0000E9DCA1E78487FF1F1996FF1F565555550C
:104C100094F8C521002A56D0002BCFD004F2CA2721
:104C2000B94625464FF0000805AE19F8011F304679
:104C300006F0C2FC9DF816309DF814109DF8152062
:104C400085F8BF1185F8C02185F8C13194F8163375
:104C500008F101084345A5F10305E6DC94F81923A2
:104C6000002AABD094F8C521002A00F0DD80002B8B
:104C7000A4D025464FF0000817F8011F304606F073
:104C80009BFC9DF816309DF814109DF8152085F8B2
:104C9000E11085F8E22085F8E33094F8163308F146
:104CA0000108434505F10305E6DC07B0BDE8F083E4
:104CB00094F81933002B40F0DD80BCF1000F7FF435
:104CC0006CAF94F81633002B3FF478AF04F2CA2788
:104CD000B9464FF0000805AE94F8175319F8011FB4
:104CE0004B35454405EB4505304606F065FC9DF81F
:104CF0001430635525449DF816309DF815206A70D0
:104D0000AB7094F8163308F101084345E4DCA5E7DD
:104D10002046FFF7ADFDF4E52B8803EB432103EBC1
:104D2000810101F55851193189B201EB412201EBA2
:104D3000820202F55852193292B202EB422E02EB75
:104D40008E0E0EF5585E0EF1190E1FFA8EFE0EEB4A
:104D50004E260EEB860606F558561936B6B206EB09
:104D6000462306EB830303F5585319339BB203EB39
:104D7000432703EB870706EB16260EEB1E2E07F5DF
:104D8000585703EB1323F6B25FFA8EFE1937DBB2E6
:104D9000C6EB0616BFB2B6110EEB8E0CC3EB0313B7
:104DA0000EEB4C0E9B1106F1320C07EB17263C3331
:104DB0004FEA2E2EC6F381165FFA83F85FFA8CFC59
:104DC00001360EF1140301EB112102EB1222CDF892
:104DD00000C0CDF804800296C1F3C011C2F3C01226
:104DE000DBB22F80FFF7DAFC86E5002B42D02546A8
:104DF0004FF0000817F8011F304606F0DDFB9DF864
:104E000016309DF814109DF8152085F8DE1085F8F1
:104E1000DF2085F8E03094F8163308F101084345A7
:104E2000A5F10305E6DCB4E69046002B3FF4C6AEE0
:104E30004B33C8EB030505EB450517F8011F30465A
:104E400006F0BAFB9DF81430635525449DF81630E2
:104E50009DF815206A70AB7094F8163308F10108BC
:104E60004345E5DC07B0BDE8F0832A88F4E594F813
:104E700019333BB194F81833002B7FF48EAE9DE6C6
:104E80002A8869E5BCF1000F7FF487AE94F81633E9
:104E9000C2E600BF2DE9F04F90F82E32D04D87B01A
:104EA0000446002B00F0DA81CE4B1B78002B40F03B
:104EB000428294F816C36346BCF1000F00F03F82B3
:104EC00094F87E122A8801EB81014F000CF27F2EAC
:104ED00097FBFCF70237FFB2A64404F27F2602EBF1
:104EE000422102EB810202F55852193292B202EBD2
:104EF000122116F8010FC9B211FB07F1A0EB112125
:104F000021EAE171B6453170E9D194F818632A803D
:104F1000002E00F06B81ACF10307012F4FF0010967
:104F20001ADD0CF51F700CF27E26DFF8BC822044DF
:104F3000264404F5207E017810F801AD01EB4A010A
:104F400088FB01BAAAEBE171864506F8011DF2D192
:104F5000B9F1000F00F02C8102EB422102EB81023B
:104F600002F55852193292B202EB122094F87C6288
:104F70002A80C0B286429A4928D902EB422002EB2D
:104F8000800202F55852193292B202EB422602EB2D
:104F9000860606F55856193602EB1222B6B2D2B280
:104FA00006EB1620C2EBC202C0B204EB222200EBD9
:104FB00040070E80C0EB471092F880620012A0F10B
:104FC0006001304680FA51F082F88002B9F1000F9A
:104FD00012D12A8894F87D62814902EB422002EBCB
:104FE000800202F55852193292B202EB1220C0B27E
:104FF00086422A8000F2AF80BCF1000F00F0A4814D
:1050000004F27F2700260DF11409C3F14B039D190B
:1050100005EB450517F8011F484606F0CDFA9DF847
:105020001430635525449DF816309DF815206A709C
:10503000AB7094F816330136B342E6DC94F818638B
:10504000002E75D104F2CA27002B00F083814A3369
:105050009D1B05EB450517F8011F484606F0ACFA05
:105060009DF81430635525449DF816309DF81520A1
:105070006A70AB7094F816330136B342E7DC4B2B01
:1050800047D00DF1140904F5E47B27462646002598
:105090004FF0010A94F81A23CDF800A0C5EB0528BB
:1050A00098FBF3F31A44D2B2FF235946484606F060
:1050B000A5FA9DF814109DF815209DF81630317052
:1050C0007270B37094F81A3394F8162398FBF2F8C0
:1050D00008EB0302D2B2FF235946CDF800A04846A0
:1050E00006F08CFA9DF815209DF816309DF81410E6
:1050F00087F8C02187F8BF1187F8C13194F81633BB
:105100000135C3F14B02AA4206F10306A7F10307DA
:10511000C0DC94F8C531002B40F0968094F81A3327
:1051200094F81B239B1A84F81A3307B0BDE8F08F5C
:10513000214604F1E1052246107881F8BF0150783C
:1051400081F8C001907881F8C10103329542A1F144
:105150000301F1D193E702EB422002EB800202F55A
:105160005852193292B202EB422502EB850505F541
:105170005855193502EB1222ADB2D2B205EB15200B
:10518000C2EBC202C0B204EB222200EB4006C0EB2D
:10519000461092F8CB620D8001126039304680FAD9
:1051A00051F082F8CB02BCF1000F7FF429AFCFE0C1
:1051B0000CF2C7260CF2C92EDFF82C802644A64438
:1051C000317816F8010D01EB400188FB01A0013F89
:1051D000A0EBE171012F0EF8011DF1D1BCE600BF7B
:1051E0008487FF1F1996FF1F5655555594F87F1257
:1051F00001EB81014FEA410E9EFBFCFE0EF1020E17
:105200005FFA8EFE04F2CA2702EB422102EB810212
:1052100002F55852193292B202EB122117F8010F1F
:10522000C9B211FB0EF1A0EB1121013621EAE171A7
:1052300066453970E8DB2A80ACF10307012F4FF097
:1052400000093FF76EAE87E694F81A2394F81B33F3
:10525000134484F81A3307B0BDE8F08F2B8803EBB2
:10526000432103EB810101F55851193189B201EB5A
:10527000412201EB820202F55852193292B202EB3E
:10528000422E02EB8E0E0EF5585E0EF1190E1FFA2D
:105290008EFE0EEB4E260EEB860606F55856193698
:1052A000B6B206EB462306EB830303F558531933D6
:1052B0009BB203EB432703EB870706EB16260EEBA7
:1052C0001E2E07F5585703EB1323F6B25FFA8EFE36
:1052D0001937DBB2C6EB0616BFB2B6110EEB8E0C59
:1052E000C3EB03130EEB4C0E9B1106F1320C07EBD4
:1052F00017263C334FEA2E2EC6F381165FFA8CFC3C
:105300005FFA83F801EB11210EF1140302EB122274
:105310000136CDF800C0CDF804800296DBB2C1F3AF
:10532000C011C2F3C0122F80FFF738FA0B4B1B7865
:10533000002B3FF4BEAD2046FFF79AFAB9E594F88A
:1053400018234AB12A88E6E5B9F1000F7FF4F0AEE0
:105350000DF11409002396E62A886DE71996FF1FC0
:105360000E4B0F4A1B78002111703BB1012B03D16A
:105370000C4B1B8880F83E33FCF70EBF094B1B8893
:10538000002B14BF0123002380F8C43114BF9623DF
:105390004B23A0F83C33FCF7FFBE00BF7C9EFF1FF1
:1053A0001996FF1F1A95FF1FF0B590F82E324B4E3D
:1053B00085B004468BBB338803EB432203EB8203A7
:1053C00003F5585319339BB203EB432103EB8101DF
:1053D00001F55851193189B201EB1122D2B2C2EB59
:1053E0000212121203EB132301200632C3F3C0137F
:1053F00014270F253180D2B284F8C43184F82E02EC
:1054000084F82A0284F82D7284F8C351002B5CD1F1
:105410004B23A4F83C3384F83E23314B1B78002BFC
:1054200057D194F83E232046962106F087F832881B
:10543000B4F83C5302EB422302EB830202F55853CB
:1054400019339BB203EB432703EB870707F5585744
:105450001937BFB207EB172203FB05F301211D0C1F
:10546000009103A804F5E471D2B2FF23378006F05F
:10547000C5F805EB4503E118E25C9DF80C0082FAE3
:1054800050F2E2549DF80D304A7882FA53F24A7095
:105490008B789DF80E2083FA52F38B7094F8C43108
:1054A0008BB9204604F1E10123461A7880F8BF2128
:1054B0005A7880F8C0219A7880F8C12103338B4252
:1054C000A0F10300F1D105B0F0BD9623A4F83C3360
:1054D000A1E72046FFF744FFA3E700BF8487FF1F33
:1054E0001996FF1F244B254A1B7800211170092BA8
:1054F0000AD8DFE803F0101E23282D3237053C0BB5
:105500001F4B1B8880F84F33FCF746BE1C4B1B8893
:1055100080F84533F8E71A4B1B88002B14BF012392
:10552000002380F8C43114BF96234B23A0F83C33EA
:10553000EAE7134B1B8880F83F33E5E7104B1B88E5
:1055400080F84033E0E70E4B1B8880F84133DBE7FF
:105550000B4B1B8880F84233D6E7094B1B8880F839
:105560004633D1E7064B1B8880F84333CCE7044B26
:105570001B8880F85033C7E77C9EFF1F1996FF1FDA
:105580001A95FF1F2DE9F04F90F82E3285B0044692
:10559000002B40F0BE80DFF82CC3BCF8003003EBDA
:1055A000432603EB860606F558561936B6B206EBC7
:1055B000462106EB810101F55851193189B201EB01
:1055C000412501EB850505F558551935ADB205EBBB
:1055D000452305EB830303F5585319339BB203EBC3
:1055E000432703EB870707F558571937BFB207EB77
:1055F000472007EB800000F55850193080B200EBCF
:10560000402200EB820202F55852193292B202EBAC
:10561000422E02EB8E0E0EF5585E0EF1190E1FFA99
:105620008EFE0EEB4E280EEB880808F5585803EB5B
:10563000132301EB112102EB122208F119081FFAC2
:1056400088F8DBB2C9B2D2B208EB182902EB8202A9
:1056500003EB830301EB41014FEAA21A03EB83033F
:105660005FFA89F200EB1020091205EB15259B115A
:105670000131C5F3421502EB820206EB162607EB59
:105680001727C0B203F16409ACF800800AF11403D3
:10569000C6F3C016C7F3811700EB80000EEB1E2E79
:1056A0005FFA81FA4FF01508691DC2F3C71C012586
:1056B0000F2284F8C4615FFA89F90137C0F307202B
:1056C000DBB25FFA8EFE84F82E5284F82A5284F8F8
:1056D0002D8284F8C321002E40F0E8804B22A4F8EC
:1056E0003C23764D84F83FA3A5FB032501EB9502EF
:1056F000002184F8419384F8427384F8460384F8C7
:10570000433384F84FE384F850C384F8402384F88B
:1057100045136B4B1B78002B40F0CC8094F845135D
:1057200094F83F3394F8C5210B44DBB284F8453339
:1057300084F84433002A00F0B18094F8462394F8AA
:105740004033134484F84633B4F83C33002B00F064
:105750008E8004F5E4792546671C00264FF0FF088B
:105760005CE00029BCBFD243D2B25200D2B2531C7B
:1057700003FB02F2121202FB03F31B1202EB4202C2
:10578000A2EB430292B2D30554BF5FFA82FB4FF003
:10579000FF0BC0EB0B0B5FFA8BFB94F8502394F8D4
:1057A0004F338DF80E20294603A88DF80C308DF864
:1057B0000D8006F021F994F8443394F83F2394F8CF
:1057C0002812009102FB0A32D2B25B46494603A876
:1057D00005F014FF17F8013C9DF80C2083FA52F3F2
:1057E00007F8013C6A789DF80D3082FA53F26A702E
:1057F000AB789DF80E2083FA52F3AB7094F8441303
:1058000094F84233B4F83C2301360B44B24205F11C
:10581000030507F1030784F8443328DD94F8433384
:1058200094F846235FFA86FA03FB0A22D2B251B2F9
:105830000029BABFD343DBB213465B00DBB2581C6E
:1058400000FB03F31B1203FB00F0001203EB430306
:10585000A3EB40039BB2D80594F8410354BFDBB2DD
:10586000FF239842FFF47DAF4FF0000B95E794F8CB
:10587000C43183B904F1E1012346227883F8BF21C2
:10588000627883F8C021A27883F8C1210334A14251
:10589000A3F10303F1D105B0BDE8F08F94F84633CE
:1058A00094F840239B1A84F846334DE79622A4F8D7
:1058B0003C2316E72046FFF715FE2FE7CDCCCCCCD6
:1058C0001996FF1F8487FF1F10B50F4B0F4A1B78D7
:1058D000002182B0044611708BB90D4A0D48128820
:1058E0008DF80430521A18BF012284F8C72196217E
:1058F00001AA8DF805308DF8063005F05DFD2046D3
:10590000FCF74AFC02B010BD7C9EFF1F1996FF1FDA
:105910001A95FF1F2096FF1F70B5044682B01B4DDD
:10592000022006F0D7FC2B88184400EB402300EB44
:10593000830043F21963184480B200EB102200EB9D
:10594000402100EB8100D2B2034402EB82029BB201
:105950009211002603EB13211B3284F8512384F8A3
:10596000521384F8546384F8536384F85C632046CC
:1059700001AA96212B808DF804608DF805608DF8C2
:10598000066005F019FD02B070BD00BF8487FF1FDF
:105990002DE9F04F90F85C3387B00290002B00F0B7
:1059A000898090F851330393064618465D4B1B8857
:1059B00003EB432403EB840404F558541934A4B2D4
:1059C00004EB1423DBB203EB830903EBC9094FEAB1
:1059D000292909F1140901235FFA89F986F854335A
:1059E00086F85D9309F00CF806F5577B06F5AF6A6B
:1059F0005B4606F24C4806F23F57D346019006F547
:105A0000CD6600259A4604EB442304EB830404F599
:105A100058541934A4B2732303FB04F0000C019B07
:105A20004AF8043F0A3080B208F0EAFF3E4909F024
:105A3000F3F804EB442304EB830303F558531933C1
:105A40009BB203EB432403EB840404F5585419344C
:105A5000A4B204EB1421C9B201EB810103EB1323BF
:105A60000912C3F3C0130A3148F8040F07F8013FC5
:105A7000C8B208F0C5FF0135EBB22C4A4BF8040F51
:105A8000994546F8042FBED8039A029E254FC2F1CD
:105A9000950102EB420301EB4101F5187018FF225A
:105AA0003C80F2546A70AA7072544270827007B0DF
:105AB000BDE8F08F029D95F8533395F8511395F892
:105AC00052238DF814200533DBB201EB410185F838
:105AD0005333294405A8FF248DF816308DF815405E
