:100000000C94C2000C94EA000C94EA000C94EA00F0
:100010000C94EA000C94EA000C94EA000C94EA00B8
:100020000C94EA000C94EA000C9411070C948007DD
:100030000C94EA000C94EA000C94EA000C94EA0098
:100040000C94EA000C94EA000C94EA000C94EA0088
:100050000C94EA000C94EA000C94EA000C94B209A7
:100060000C94EA000C94EA000C94EA000C94EA0068
:100070000C94EA000C94EA000C94EA000C94EA0058
:100080000C94EA000C94EA000C94EA000C94EA0048
:100090000C94EA000C94EA000C94EA000C94EA0038
:1000A0000C94EA000C94EA000C94EA00070605049C
:1000B0000100080A0B0C0D09080B000202020000E7
:1000C00009040000010202000005240010010524BB
:1000D000010101042402060524060001070581032D
:1000E00010004009040100020A0000000705020296
:1000F00040000007058302400000040309041201C8
:100100000002EF020140412341800001010203018E
:1001100041726475696E6F204C4C43004172647586
:10012000696E6F2059756E000000000023002600E4
:1001300029002C002F0000000000250028002B00C3
:100140002E00310004040404040304050202020228
:100150000403020202020606060606060404020260
:100160000204040408020110408040102040804036
:1001700080080204018040201002011080102040FD
:100180004020FC0911241FBECFEFDAE0DEBFCDBF57
:1001900011E0A0E0B1E0E2E2F3E202C005900D92CE
:1001A000A236B107D9F724E0A2E6B1E001C01D9262
:1001B000A033B207E1F710E0C2ECD0E004C0219711
:1001C000FE010E948411C13CD107C9F70E94310A87
:1001D0000C948F110C940000FB01DC016C911296C1
:1001E0007C91962F990F990F990F35E5292F239F11
:1001F000020E20E0211D1124822F562F5074462F0D
:10020000407267FD47C0511133C0411105C0922FA4
:100210009095892F90E004C025E5280F90E08BEAA7
:100220007F3F09F421C030E0772321F0779F312D03
:1002300009F03F5F332309F44EC0882331F0482F83
:10024000439F040E40E0411D842F222321F0239F71
:10025000020E20E0211D992331F0492F439F040E07
:1002600040E0411D942F11248083218392830895BF
:1002700041110BC0392F2AEA329F030E30E0311DA5
:1002800011249BEA931B280FC4CF90E02095982F50
:1002900080E0C6CF511112C041110CC0392F2AEA9B
:1002A000329F030E30E0311D11242BEA231B95E50C
:1002B000930FEECF922F909520E0B2CF411106C060
:1002C00025E5280F9BEA981B822FF6CF2AEA280FF4
:1002D00090E0932FF8CF90E020E080E0C5CFFC01C4
:1002E00080918C03882311F13FB7F89482E08093CA
:1002F000E9002091F200822F90E01816190614F4FC
:1003000081E090E0882339F0289844E640938B03FD
:100310004091F1004083222339F02091F200211115
:1003200003C02BE62093E8003FBF08958FEF9FEFB7
:100330000895DC0117962C91179730E0F901ED59DB
:10034000FE4FE4911696EC9316972C5B3E4FF90105
:100350008491E82FF0E0EE0FFF1FEA5CFE4F8591DD
:10036000949113969C938E931297F9012491E22F06
:10037000F0E0EE0FFF1FE85DFE4F8591949115961A
:100380009C938E93149708952FB7F89483E08093ED
:10039000E9009091E800892F807295FF04C0909148
:1003A000F20080E4891B2FBF08958091830381119F
:1003B0000DC082E080937F0384E0809380031092DD
:1003C00082031092810381E0809383038FE793E09F
:1003D00008954091790350917A03209177033091E9
:1003E000780342175307B4F49091E8009570E1F355
:1003F0009091E80092FD19C08093F10080917903FB
:1004000090917A0301968F739927892B19F48EEFB7
:100410008093E8008091790390917A0301969093FC
:100420007A038093790381E0089580E00895EF9244
:10043000FF920F931F93CF93DF93F82E192FE62E81
:10044000042F81E0860F880F0E94E90183E00E945B
:10045000E901CF2DD12FEC0EFD2EF11CCE15DF05BD
:10046000B9F007FF13C0FE0184910E94E901182F23
:1004700080E00E94E901812321968111EFCFDF9175
:10048000CF911F910F91FF90EF9008958881EDCF4C
:1004900081E0F5CFDF92EF92FF920F931F93CF93FE
:1004A000DF93D82E8A01EB017B01E40EF51ECE15F9
:1004B000DF0559F0D7FE12C0FE0184910E94E901C8
:1004C00021968111F4CF0FEF1FEFC801DF91CF917B
:1004D0001F910F91FF90EF90DF9008958881EECFEC
:1004E0000F931F93CF93DF931F92CDB7DEB782E0B8
:1004F000898342E450E068EB70E080E80E944A02A1
:100500000E94D501DC0112960D911C910115110577
:1005100089F0D801ED91FC910280F381E02DBE01BC
:100520006F5F7F4FC801099597FD04C0F8010085F2
:100530001185ECCF89810F90DF91CF911F910F91A1
:100540000895615030F02091F100FC012083019664
:10055000F8CF289884E680938B03089590E080E09C
:100560000895CF93DF931F92CDB7DEB76983DC0187
:10057000ED91FC910280F381E02D41E050E0BE015D
:100580006F5F7F4F09950F90DF91CF91089583E0C2
:100590008093E9008091F200882319F08AE3809328
:1005A000E80008950E94C40190E00895CF93DF937E
:1005B0001F92CDB7DEB7FC018485958597FD08C0F5
:1005C0002FEF3FEF358724870F90DF91CF9108956C
:1005D000CE0101960E946F01019719F4898190E084
:1005E000F3CF8FEF9FEFF0CF0F931F93CF93DF9356
:1005F0001F92CDB7DEB78C01FC018485958597FFEE
:100600000BC0CE0101960E946F01019771F48981A0
:1006100090E0F80195878487F801848595850F908F
:10062000DF91CF911F910F9108958FEF9FEFF1CF41
:10063000FC018485958597FD0BC09FB7F89482E0F7
:100640008093E9008091F2009FBF90E001960895A9
:100650009FB7F89482E08093E9008091F2009FBFF9
:1006600090E008953FB7F8948091680190916901F6
:10067000A0916A01B0916B0126B5A89B05C02F3FE0
:1006800019F00196A11DB11D3FBFBA2FA92F982FB8
:100690008827BC01CD01620F711D811D911D42E0B3
:1006A000660F771F881F991F4A95D1F708958F927B
:1006B0009F92AF92BF92CF92DF92EF92FF924B0147
:1006C0005C010E9432036B017C010E9432036C19B1
:1006D0007D098E099F09683E734081059105A8F345
:1006E00021E0821A9108A108B10888EEC80E83E0C3
:1006F000D81EE11CF11C81149104A104B10429F756
:10070000FF90EF90DF90CF90BF90AF909F908F9031
:1007100008958F929F92AF92BF92CF92DF92EF9205
:10072000FF920F931F93CF93DF936C017B018A019C
:1007300080911001882309F45CC080918C03882388
:1007400009F457C080917D0380FF05C08091E000CF
:1007500082608093E000E801B12C8AEFA82E93E03C
:10076000892E2AE3922E209711F4BB20D9F10E9402
:10077000C40181110AC0AA94AA20D9F161E070E0F5
:1007800080E090E00E945703EECF8C171D0611F019
:100790000CF08C2F9FB7F8948092E9002091E8002C
:1007A00025FD02C09FBFDFCF282F30E0C21BD30B37
:1007B000F701815020F041914093F100FACFE20E11
:1007C000F31EBB2021F09092E800B12CEBCF80917A
:1007D000E80085FDE7CF9092E800BB24B394209712
:1007E00009F3F3CF5D9884E680937E03101611061B
:1007F0003CF081E090E0F6019383828310E000E01A
:10080000C801DF91CF911F910F91FF90EF90DF9082
:10081000CF90BF90AF909F908F9008952FB7F8948E
:10082000609164017091650180916601909167010A
:100830002FBF08952F923F924F925F926F927F92B7
:100840008F929F92AF92BF92CF92DF92EF92FF92E0
:100850000F931F93CF93DF93CDB7DEB729970FB6D2
:10086000F894DEBF0FBECDBF898749835A836B835F
:100870007C830091610310916203BDE78B2E912C64
:10088000A12CB12C0115110509F46BC0D801ED9113
:10089000FC910084F185E02DC80109951C01D80167
:1008A0001296ED91FC91C12CD12C7601412C512C4A
:1008B000320120E030E0A901009791F06081260F1D
:1008C000311D411D511D6181460E511C611C711C61
:1008D0006281C60ED11CE11CF11C01973396ECCF4E
:1008E000A0E5B0E00E9492106D837E838F8398878D
:1008F000A7E3B0E0A30192010E9492102B013C01FA
:10090000ABE4B0E0A70196010E9492102D813E81D8
:100910004F815885C32ED42EE52EFF2445E0429DFD
:100920009001439D300D1124C20ED31EE11CF11C19
:100930008C0C9D1CAE1CBF1C452C562C672C7724A0
:10094000840C951CA61CB71C472F582F692F77279E
:10095000840E951EA61EB71ED80114960D911C91EB
:1009600091CFB985CB2ED12CF12CE12CA70196018A
:10097000C501B4010E944110872E982EA92EBB24D8
:1009800029813A814B815C8182169306A406B506C3
:1009900068F0A701960169817A818B819C810E9410
:1009A0004110A50194010E9451102987898529963B
:1009B0000FB6F894DEBF0FBECDBFDF91CF911F9170
:1009C0000F91FF90EF90DF90CF90BF90AF909F90EE
:1009D0008F907F906F905F904F903F902F900895F1
:1009E000FC01A281B3819C9186812681982381E0BC
:1009F000921380E008950F931F93CF93DF9320917C
:100A000062012F5F322F37703093620120FF2BC0BD
:100A100020E831FD2064347009F02062205FFC0181
:100A2000EC01239600E011E06485662329F070E074
:100A3000C8010E945C116F5F6187322F369F030EE1
:100A400030E0311D1124311110C01682662311F0DF
:100A5000615061873196EC17FD0731F7DF91CF9137
:100A60001F910F91089520E0D4CF31503683EECFFF
:100A700087FF3FC02B9A769A0014001476980014D2
:100A800086FF39C02B9A769A0014001476980014C9
:100A900085FF33C02B9A769A0014001476980014C0
:100AA00084FF2DC02B9A769A0014001476980014B7
:100AB00083FF27C02B9A769A0014001476980014AE
:100AC00082FF21C02B9A769A0014001476980014A5
:100AD00081FF1BC02B9A769A00140014769800149C
:100AE00080FF15C02B9A769A001400147698001493
:100AF00008952B98C0CF2B98C6CF2B98CCCF2B988E
:100B0000D2CF2B98D8CF2B98DECF2B98E4CF2B9831
:100B1000EACFDC018D919C91009739F0DC01ED91D9
:100B2000FC910280F381E02D09940895AF92BF9269
:100B3000CF92DF92EF92FF920F931F93CF93DF93A9
:100B4000EB017C012FE0E20EF11CDC011F968D9180
:100B50009C91009739F0DC01ED91FC910190F081BE
:100B6000E02D0995CE84BD84AC8480E00E943805D8
:100B700080E00E94380580E00E94380580E00E94F5
:100B800038058C819D81181619060CF044C0E88147
:100B9000F98188899989E80FF91F10812A2D129F00
:100BA000010E10E0111D112401813B2D039F000E49
:100BB00000E0011D1124D2802D2D3C2D239F020E1B
:100BC00020E0211D1124D22E8FEF0E9438058D2D9B
:100BD0000E943805802F0E943805812F0E94380519
:100BE00089859E81891B8E838A859F81891B8F833E
:100BF0008B859885891B88872F8588819981820FAD
:100C0000911D27FD9A95998388838C819D810197F9
:100C10009D838C83B6CF0A80DB81C02DD7FD6F9674
:100C200085E0D595C7958A95E1F78FEF0E94380545
:100C300080E00E94380580E00E94380580E00E9434
:100C40003805219790F7C701DF91CF911F910F9140
:100C5000FF90EF90DF90CF90BF90AF900C948905FC
:100C6000239A6E9A0F960C9489050F931F93CF9336
:100C7000DF93CDB7DEB762970FB6F894DEBF0FBE35
:100C8000CDBF8C01F901DC011C968C917A836983BC
:100C90005C834B835E834D8390819D8791819E878A
:100CA00092819F878130F1F4CE0101960E94FB046E
:100CB00083E0888B1A8A198AD801ED91FC9104840B
:100CC000F585E02DBE016F5F7F4FC80109956296E3
:100CD0000FB6F894DEBF0FBECDBFDF91CF911F914D
:100CE0000F9108951C861B861A86198618861F8206
:100CF000DFCF0F931F93CF93DF93CDB7DEB762970C
:100D00000FB6F894DEBF0FBECDBF8C01F901DC0138
:100D10001C968C917A8369835C834B835E834D83BD
:100D200090819D8791819E8792819F878130E9F490
:100D3000CE0101960E94FB04188A1A8A198AD801EA
:100D4000ED91FC910484F585E02DBE016F5F7F4F2E
:100D5000C801099562960FB6F894DEBF0FBECDBFED
:100D6000DF91CF911F910F9108951C861B861A86E3
:100D7000198618861F82E0CFFC0186810280F381EC
:100D8000E02D90818095892380830895FC019681D0
:100D90000280F381E02D8081892B80830895FC01FE
:100DA000858596850895CF93DF9300D000D000D03D
:100DB000CDB7DEB7AB011C821D821E82DC01ED9136
:100DC000FC910190F081E02D19821A821B829E0114
:100DD0002F5F3F4FBE016C5F7F4F099526960FB680
:100DE000F894DEBF0FBECDBFDF91CF910895FC0117
:100DF000DB013C912081230F08F42FEF2083119613
:100E00003C9111972181230F08F42FEF2183129633
:100E10003C912281230F08F42FEF228308950E9432
:100E20008A111F920F920FB60F9211248F939F93E6
:100E30008091E1009091E100937F9093E10083FF26
:100E40000FC01092E90091E09093EB001092EC003B
:100E500092E39093ED0010928C0398E09093F00051
:100E600082FF22C093E09093E9009091F2009923D1
:100E700019F09AE39093E80090917E03992341F052
:100E800090917E03915090937E03911101C05D9AE1
:100E900090918B03992341F090918B039150909303
:100EA0008B03911101C0289A84FF18C08091E20041
:100EB0008E7E81608093E2008091E1008F7E80933E
:100EC000E10080917D038E7E806180937D039F9100
:100ED0008F910F900FBE0F901F90189580FFF7CF46
:100EE0008091E2008E7E80618093E2008091E1003B
:100EF0008E7E8093E10080917D038E7E8160E5CFC0
:100F00001F920F920FB60F921124CF92DF92EF92A1
:100F1000FF920F931F932F933F934F935F936F9382
:100F20007F938F939F93AF93BF93EF93FF93CF9351
:100F3000DF93CDB7DEB76C97DEBFCDBF1092E9006F
:100F40008091E80083FF25C068E0CE0145960E94AD
:100F5000A10282EF8093E8008D8987FF39C09091CC
:100F6000E80090FFFCCF982F907609F034C19E895D
:100F70004F89588D2F89F88C911131C0803861F5D7
:100F800080917C038093F1001092F1008EEF8093AA
:100F9000E8006C960FB6F894DEBF0FBECDBFDF91B0
:100FA000CF91FF91EF91BF91AF919F918F917F91E1
:100FB0006F915F914F913F912F911F910F91FF90F2
:100FC000EF90DF90CF900F900FBE0F901F9018956D
:100FD0009EEF9093E800C7CF1092F100D5CF9130EB
:100FE00059F48111D3CF4130510581F680917C03B2
:100FF0008D7F80937C03CACF933049F48111C6CF93
:101000004130510519F680917C038260F2CF953012
:1010100041F48091E80080FFFCCF20682093E3003A
:10102000B5CF963009F0A9C00B8D1C8D22E010922F
:10103000E90010927A0310927903F2122EC01092F6
:101040007803109277030E9470021F8299E09983BF
:10105000FA8291E09E8390EA98879AEF998720918F
:10106000790330917A03275F3F4F3C832B838D8335
:101070001092E90010927A0310927903109378038A
:101080000093770349E050E0BE016F5F7F4F80E03F
:101090000E944A020E94700279CF10937803009355
:1010A00077030E94D501DC0112960D911C91011568
:1010B000110509F451C1D801ED91FC910480F5812D
:1010C000E02DBE016B5E7F4FC8010995009709F0C6
:1010D0003EC1F80100851185EACFF3E0FF120EC092
:1010E0008F89882309F440C0823061F440E86BE0C6
:1010F0008CE191E00E941702811148CF81E2809338
:10110000EB0047CF813029F440E86BE080E191E0CB
:10111000F1CF833099F70E94D501DC011296ED9052
:10112000FC908E010F5F1F4F6801E114F10479F00C
:10113000D701ED91FC910680F781E02DB801C70140
:101140000995080F111DF701E084F184EECFD80155
:101150001C92F60101900020E9F73197BF016C194C
:101160007D0940E0C601C6CF6AEF70E0FB01449103
:1011700050E080E80E944A0209CF973009F4BECFC0
:10118000983021F481E08093F10000CF993009F08C
:10119000FDCE837009F0B2CFE8E3F1E081E031E009
:1011A00096E32191222371F08093E9003093EB00C4
:1011B000DF0111972C912093EC009093ED008F5F4D
:1011C000873079F78EE78093EA001092EA008F89E2
:1011D00080938C03DBCE8B8D9C8D1092E900109256
:1011E0007A03109279039093780380937703898D23
:1011F000811192C08E899D89913A49F4813209F01A
:101200007DCF47E050E069E071E080E0B3CF9132FC
:1012100009F074CF833269F48F89988DB0E0A0E033
:101220008093050190930601A0930701B0930801F4
:10123000ADCE803269F48091E80082FFFCCF67E098
:1012400089E091E00E94A1028BEF8093E8009ECE9E
:10125000823209F09BCE8F8980931001EEEFFFE779
:10126000859194918B3F9C4D51F1E0E0F8E08091A5
:10127000090190910A01A0910B01B0910C01803BF2
:101280009440A105B105F1F48091100180FD1AC0D0
:10129000EE3F8AE0F80789F587E797E79183808337
:1012A0008091600080937B0388E19BE00FB6F89407
:1012B000A895809360000FBE9093600067CEEEEF1C
:1012C000FAE0D5CF808191818737974709F05ECECC
:1012D000A8958091600088618093600080917B0375
:1012E00080936000EE3F2AE0F20789F08091FE0AC9
:1012F0009091FF0A9183808349CE808191818737C5
:10130000980751F29093FF0A8093FE0AC5CF10927E
:10131000FF0A1092FE0A3ACE0E94D501DC01129615
:101320000D911C910115110509F4E8CED801ED913C
:10133000FC910190F081E02DBE016B5E7F4FC801F2
:101340000995811123CEF80100851185EBCF181680
:1013500019060CF41BCED2CEF1E0FF12BECE6EEF1A
:1013600070E004CF1F920F920FB60F9211242F93AB
:101370003F938F939F93AF93BF938091640190911C
:101380006501A0916601B09167013091630123E08E
:10139000230F2D3758F50196A11DB11D2093630130
:1013A0008093640190936501A0936601B0936701F7
:1013B0008091680190916901A0916A01B0916B01DF
:1013C0000196A11DB11D8093680190936901A093BE
:1013D0006A01B0936B01BF91AF919F918F913F9143
:1013E0002F910F900FBE0F901F90189526E8230F96
:1013F0000296A11DB11DD2CFEDE8F3E01382128257
:1014000088EE93E0A0E0B0E084839583A683B78361
:1014100082E491E0918380838FEF9FEF95878487AB
:10142000EDEDF3E0808312821182148613868FEF34
:101430009FEFDC0187839087A187B287EAEEF3E014
:1014400016821782108611861286138614861586D8
:1014500016861786108A118A128A138A148A158AA8
:101460000895CF93DF93CDB7DEB729970FB6F894E1
:10147000DEBF0FBECDBF789484B5826084BD84B5D5
:10148000816084BD85B5826085BD85B5816085BD7F
:1014900080916E00816080936E0010928100809137
:1014A00081008260809381008091810081608093BF
:1014B0008100809180008160809380008091910004
:1014C000826080939100809191008160809391006F
:1014D000809190008160809390008091C100846031
:1014E0008093C1008091C10082608093C10080918F
:1014F000C10081608093C1008091C30081608093AE
:10150000C3008091C00082608093C0008091C200BF
:1015100081608093C20080917A00846080937A0019
:1015200080917A00826080937A0080917A00816055
:1015300080937A0080917A00806880937A0010927C
:101540008C0310927C0310927D038091D700816000
:101550008093D70080EA8093D80089B5806189BDE7
:1015600089B5826089BD09B400FEFDCF61E070E0FD
:1015700080E090E00E9457038091D8008F7C8061CA
:101580008093D8008091E000807F8093E00080917C
:10159000E1008E7E8093E1008DE08093E200559A19
:1015A000209A10922C0410922D0410922E04109266
:1015B0002F041092EC031092ED031092EE031092A0
:1015C000EF030E940E046B017C014B015C0148EBB0
:1015D000840E4BE0941EA11CB11C0E940E046C15DD
:1015E0007D058E059F0528F086169706A806B90684
:1015F000A0F768EE73E080E090E00E9457038FEF61
:101600009FEF90939A03809399030E940E04609336
:10161000EC037093ED038093EE039093EF0340E1AE
:1016200050E060E571E08DE893E00E9489030E943C
:101630000E046B017C014B015C015AE0850E911C8C
:10164000A11CB11C0E940E046C157D058E059F0522
:1016500028F086169706A806B906A0F791E09093A1
:101660000004109200012FEF3FEF30939A03209374
:10167000990380917F01811144C0109271011092F1
:1016800070018FEF809374018093750180937601D0
:1016900080937701809378018093790190937A0108
:1016A00010927C0110927B011092730110927201D2
:1016B0008091610390916203892B31F48EE691E071
:1016C0009093620380936103E0916C01F0916D014E
:1016D000309721F08EE691E0958384838EE691E049
:1016E00090936D0180936C0189E291E090936F017A
:1016F00080936E0110927E0110927D0181E08093B3
:101700007F01239A6E9A8DE791E00E94890588E90E
:1017100091E0909371018093700186E990E090933D
:101720007C0180937B018FEF8093DD038AE194E05D
:101730009093E9038093E80384EC99E0A0E0B0E0A3
:101740008093E4039093E503A093E603B093E7034B
:10175000B4E18B2E912CA12CB12CA6E92A2E312C90
:10176000E1EBF0E0849120917B00982F990F990F85
:1017700090722F7D922B90937B0020910001F0E4DA
:101780002F9F900111248770822B80937C00809181
:101790007A00806480937A0080917A0086FDFCCF85
:1017A0008091780060917900762F682F072E000CC9
:1017B000880B990B0E94240F6B017C0120E030E024
:1017C00048EF51E4609191017091920180919301F1
:1017D000909194010E94830FA70196010E94B51079
:1017E00020E030E040E05DE30E94830F9B01AC010C
:1017F000209391013093920140939301509394016F
:10180000C701B6010E94B4100E9421119B0177FF0D
:1018100004C022273327261B370B70E060E02830F6
:10182000310564F060918F0170919001620F731F18
:1018300077FF02C06F5F7F4F75956795709390013A
:1018400060938F01072E000C880B990B0E94240FC8
:101850006B017C0120E030E048EF51E460918B01A6
:1018600070918C0180918D0190918E010E94830F67
:10187000A70196010E94B51020E030E040E05DE352
:101880000E94830F60938B0170938C0180938D0174
:1018900090938E0120E030E040E351E40E94B510C7
:1018A0009B01AC01C701B6010E94571118160CF537
:1018B0000E940E04AB01BC018091870190918801C8
:1018C000A0918901B0918A01C296A11DB11D841712
:1018D0009507A607B70768F481E080935A030E9432
:1018E0000E0460938701709388018093890190931F
:1018F0008A0180916F03811115C00E940E046093CC
:101900006703709368038093690390936A038092DE
:101910006B0390926C03A0926D03B0926E0381E012
:1019200080936F030E940E04009167031091680377
:101930002091690330916A03601B710B820B930B3A
:1019400000916B0310916C0320916D0330916E0335
:10195000601771078207930708F466C00E940E049F
:1019600060936703709368038093690390936A039D
:1019700080915A03882341F04FEF5FEF50930401A9
:101980004093030110925A03E8E9F1E03FEB208114
:10199000239F020E20E0211D20832181239F020E20
:1019A00020E0211D21832281239F020E20E0211DA2
:1019B00022831124339653E0EA35F50741F700916D
:1019C0000301109104010115110509F4DEC0003175
:1019D000110551F10F3F100709F0F3C00E94CA0E24
:1019E00026E930E040E050E00E94731070939701C8
:1019F000609396012091010130910201A5E0B8E0C9
:101A00002A9FC0012B9F900D3A9F900D1124875E55
:101A1000994C9093020180930101890F8093950165
:101A20001092040110920301F090DD038091E00315
:101A30009091E103A091E203B091E303892B8A2BFB
:101A40008B2BD9F00E943203009163031091640341
:101A50002091650330916603601B710B820B930B21
:101A60000091E0031091E1032091E2033091E30340
:101A70006017710782079307C8F20E9432036093D0
:101A80006303709364038093650390936603E0910E
:101A9000E803F091E903309759F04091E403509145
:101AA000E5036091E6037091E7038F2D0995F82E09
:101AB00000916103109162034F2C512C712C612C09
:101AC0000115110509F4CFC0D8011C96BC91BF8344
:101AD0008091DE039091DF038436910510F4F801C4
:101AE0001486D801ED91FC91428153815987488732
:101AF00019821A821B82FF2099F1680156E0C50EF7
:101B0000D11CF0E0E0E0D6012D916D01222321F1FE
:101B10001296EC90EE2001F130E050E040E02F5FB3
:101B20003F4F4F4F5F4FC301B2010E9441109B01D5
:101B3000AC018E2D90E0B0E0A0E0BC01CD016F5F64
:101B40007F4F8F4F9F4F0E944110A1E0B0E0AC0F3C
:101B5000BD1FAE0FBF1F8C933196E330F10599F690
:101B6000F80145855685628173819E012F5F3F4F45
:101B7000C801E885F9850995EF81D8011C96EC9399
:101B80001C9714960D911C919BCF80919501898390
:101B90008FEF8A838B838091960190919701BC018E
:101BA000660F771F680F791F68567E4FCE0101962A
:101BB0000E94EC00E1E0F0E0F0930401E093030107
:101BC00033CF8FEF90E0B8010E945C11D62EDD0C70
:101BD000709095017C82CC24CA94CD82DE82BE01B5
:101BE0006F5F7F4FCE0104960E94EC00E09096015B
:101BF000F0909701C8018E0D9F1D8A569F4FB1012D
:101C00000E945C119C01220F331F820F931FBE01A3
:101C10006F5F7F4F88569E4F0E94F7067C82CD8271
:101C2000DE82BE016F5F7F4FCE0104960E94EC0002
:101C3000C701801B910B8A569F4FB1010E945C1116
:101C40009C01220F331F820F931FBE016F5F7F4FD6
:101C500088569E4F0E94F7060F5F1F4F1093040196
:101C600000930301E1CE80915F03909160038C01AA
:101C70000F5F1F4F1093600300935F034997B4F108
:101C80000E940E04C0905B03D0905C03E0905D0363
:101C9000F0905E039B01AC012C193D094E095F09D0
:101CA00021F421E030E040E050E088EE93E0089F2E
:101CB000B001099F700D189F700D1124072E000CA4
:101CC000880B990B0E9451103093DF032093DE03A1
:101CD0001092600310925F030E940E0460935B03F6
:101CE00070935C0380935D0390935E0380E090E0CB
:101CF000892B09F435CD0E9400002FCD8F929F9241
:101D0000AF92BF92CF92DF92EF92FF92CF93DF9389
:101D1000EC01688179818A819B816115710581055A
:101D2000910521F464E279ED8BE597E02DE133EF45
:101D300041E050E00E94731049015A019B01AC013F
:101D4000A7EAB1E40E9492106B017C01ACEEB4EF03
:101D5000A50194010E94A010C60ED71EE81EF91E10
:101D6000F7FE06C081E0C81AD108E10880E8F80A49
:101D7000C882D982EA82FB82C701B6019F77DF91D0
:101D8000CF91FF90EF90DF90CF90BF90AF909F905A
:101D90008F9008958F929F92AF92BF92CF92DF92D1
:101DA000EF92FF92609111017091120180911301E5
:101DB00090911401611571058105910521F464E28A
:101DC00079ED8BE597E02DE133EF41E050E00E94A3
:101DD000731049015A019B01AC01A7EAB1E40E94CA
:101DE00092106B017C01ACEEB4EFA50194010E944E
:101DF000A010C60ED71EE81EF91EF7FE06C081E031
:101E0000C81AD108E10880E8F80AC0921101D092FE
:101E10001201E0921301F0921401C701B6019F77FD
:101E2000FF90EF90DF90CF90BF90AF909F908F90FA
:101E300008956093110170931201809313019093A0
:101E400014010895E89409C097FB3EF4909580959D
:101E5000709561957F4F8F4F9F4F9923A9F0F92F70
:101E600096E9BB279395F695879577956795B795EE
:101E7000F111F8CFFAF4BB0F11F460FF1BC06F5FD4
:101E80007F4F8F4F9F4F16C0882311F096E911C0E6
:101E9000772321F09EE8872F762F05C0662371F007
:101EA00096E8862F70E060E02AF09A95660F771F1B
:101EB000881FDAF7880F9695879597F90895990FF7
:101EC0000008550FAA0BE0E8FEEF16161706E80704
:101ED000F907C0F012161306E407F50798F0621B25
:101EE000730B840B950B39F40A2661F0232B242BFA
:101EF000252B21F408950A2609F4A140A6958FEF19
:101F0000811D811D08950E94960F0C9407100E9458
:101F1000F90F38F00E94001020F0952311F00C9476
:101F2000F00F0C94F60F11240C943B100E94181023
:101F300070F3959FC1F3950F50E0551F629FF0011C
:101F4000729FBB27F00DB11D639FAA27F00DB11D35
:101F5000AA1F649F6627B00DA11D661F829F2227BE
:101F6000B00DA11D621F739FB00DA11D621F839F45
:101F7000A00D611D221F749F3327A00D611D231F1B
:101F8000849F600D211D822F762F6A2F11249F5769
:101F900050409AF0F1F088234AF0EE0FFF1FBB1F6C
:101FA000661F771F881F91505040A9F79E3F51052B
:101FB00080F00C94F00F0C943B105F3FE4F3983EDC
:101FC000D4F3869577956795B795F795E7959F5FD5
:101FD000C1F7FE2B880F911D9695879597F9089567
:101FE00097F99F6780E870E060E008959FEF80ECCC
:101FF000089500240A94161617061806090608956F
:1020000000240A9412161306140605060895092ED4
:102010000394000C11F4882352F0BB0F40F4BF2B43
:1020200011F460FF04C06F5F7F4F8F4F9F4F089583
:1020300057FD9058440F551F59F05F3F71F0479579
:10204000880F97FB991F61F09F3F79F0879508955E
:10205000121613061406551FF2CF4695F1DF08C07D
:10206000161617061806991FF1CF8695710561059A
:1020700008940895E894BB2766277727CB0197F942
:102080000895DB018F939F930E949210BF91AF91AF
:10209000A29F800D911DA39F900DB29F900D1124C2
:1020A0000895A1E21A2EAA1BBB1BFD010DC0AA1F99
:1020B000BB1FEE1FFF1FA217B307E407F50720F0B1
:1020C000A21BB30BE40BF50B661F771F881F991F2C
:1020D0001A9469F760957095809590959B01AC0175
:1020E000BD01CF010895052E97FB1EF400940E94B8
:1020F0008A1057FD07D00E94511007FC03D04EF400
:102100000C948A1050954095309521953F4F4F4F34
:102110005F4F089590958095709561957F4F8F4F93
:102120009F4F08950E94A510A59F900DB49F900DFC
:10213000A49F800D911D11240895B7FF0C94921057
:102140000E949210821B930B0895A29FB001B39F2F
:10215000C001A39F700D811D1124911DB29F700DB0
:10216000811D1124911D08955058BB27AA270E9454
:10217000CC100C9407100E94F90F38F00E94001048
:1021800020F039F49F3F19F426F40C94F60F0EF466
:10219000E095E7FB0C94F00FE92F0E94181058F31C
:1021A000BA17620773078407950720F079F4A6F53C
:1021B0000C943A100EF4E0950B2EBA2FA02D0B01C3
:1021C000B90190010C01CA01A0011124FF27591B7C
:1021D00099F0593F50F4503E68F11A16F040A22F82
:1021E000232F342F4427585FF3CF469537952795F3
:1021F000A795F0405395C9F77EF41F16BA0B620BF2
:10220000730B840BBAF09150A1F0FF0FBB1F661F38
:10221000771F881FC2F70EC0BA0F621F731F841F7B
:1022200048F4879577956795B795F7959E3F08F0A1
:10223000B0CF9395880F08F09927EE0F9795879563
:1022400008950E9428116894B1110C943B100895D0
:102250000E94201088F09F5798F0B92F9927B75106
:10226000B0F0E1F0660F771F881F991F1AF0BA953A
:10227000C9F714C0B13091F00E943A10B1E008954E
:102280000C943A10672F782F8827B85F39F0B93F40
:10229000CCF3869577956795B395D9F73EF49095ED
:1022A0008095709561957F4F8F4F9F4F08950E9445
:1022B0005F0F08F48FEF089597FB072E16F4009434
:1022C00007D077FD09D00E94701107FC05D03EF4BD
:1022D000909581959F4F0895709561957F4F0895D2
:1022E000AA1BBB1B51E107C0AA1FBB1FA617B7073C
:1022F00010F0A61BB70B881F991F5A95A9F7809558
:102300009095BC01CD010895EE0FFF1F0590F4914B
:10231000E02D099481E090E0F8940C948F11F894EA
:02232000FFCFED
:10232200013905FFFFFFFFFFFF00E1000000000091
:102332000001000000000000000F070F070F07D385
:1023420006CF06AE0200000000790635063006D33D
:1023520006CF06AE02960500C18081000000000093
:102362000000B1028903D202C7021803D602F402A6
:10237200564D4450565F317C315F564D4450560A9B
:02238200000059
:1070000055C000006EC000006CC000006AC00000E7
:1070100068C0000066C0000064C0000062C00000DC
:1070200060C000005EC00000FCC400005AC0000048
:1070300058C0000056C0000054C0000052C00000FC
:1070400050C000005DC000004CC000004AC00000FD
:1070500048C0000046C0000044C0000042C000001C
:1070600040C000003EC000003CC000003AC000002C
:1070700038C0000036C0000034C0000032C000003C
:1070800030C000002EC000002CC000002AC000004C
:1070900028C0000026C0000024C0000022C000005C
:1070A00020C000001EC000001CC0000011241FBE34
:1070B000CFEFDAE0DEBFCDBF11E0A0E0B1E0E6E463
:1070C000FFE702C005900D92A63AB107D9F711E08B
:1070D000A6EAB1E001C01D92AF3BB107E1F74FD383
:1070E00030C78ECFF89410926F001092810081E02B
:1070F00085BF15BE47985D9A289A0C9400000895A4
:107100001F920F920FB60F9211242F938F939F937C
:10711000EF93FF9310928500109284008091A60156
:107120009091A701009741F001979093A701809358
:10713000A601892B09F45D9A8091A8019091A9017B
:10714000009741F001979093A9018093A801892BA2
:1071500009F4289A8091AC019091AD010196909329
:10716000AD018093AC01E0E0F0E0859194918F5FF8
:107170009F4F49F08091AA019091AB0101969093A5
:10718000AB018093AA01FF91EF919F918F912F9175
:107190000F900FBE0F901F90189584E08093E90028
:1071A0000DC08091E8008B778093E80003C08EB318
:1071B000882351F08091E80082FFF9CF8091E800A8
:1071C00085FFEFCF8091F1000895982F83E08093A1
:1071D000E9008091E80085FD0DC08091E8008E7780
:1071E0008093E80003C08EB3882369F08091E800A3
:1071F00080FFF9CF9093F1005D9884E690E0909342
:10720000A7018093A60108954F925F926F927F929B
:107210008F929F92AF92BF92CF92DF92EF92FF92A6
:107220000F931F93CF93DF9384E08093E9008091C5
:10723000E80082FF57C2289884E690E09093A90165
:107240008093A801AADF182F853481F48CE49DE196
:107250009093AB018093AA0107B600FCFDCFF9998A
:10726000FECF81E180935700E89503C0843519F47F
:1072700094DF8DE00DC28C34E1F38035D1F3843797
:1072800021F484E4A2DF80E003C2813611F489E5B1
:10729000FFC18134B1F481DF182F7FDF90E0880FC8
:1072A000991FAA2797FDA095BA2F312F330F20E001
:1072B000442737FD4095542F822B932BA42BB52BBD
:1072C000B8C1803711F483E5E3C1833549F4C0E0E8
:1072D000D1E089917ADF21E0C730D207D1F7D9C157
:1072E000863521F481E371DF80E3D2C1833731F445
:1072F00087E86BDF85E969DF8EE1CAC18536B9F4BD
:10730000E0E0F0E093E085E090935700E89507B661
:1073100000FCFDCF80935700E89507B600FCFDCF39
:10732000E058FF4FA0E7E030FA0771F7A2CF8237AD
:1073300039F4E1E0F0E089E0809357008491A8C13E
:10734000863439F4E0E0F0E089E0809357008491DE
:107350009FC18E3439F4E3E0F0E089E08093570078
:10736000849196C1813539F4E2E0F0E089E08093C0
:10737000570084918DC1823631F489E526DF80E0A3
:1073800024DF80E885C1823419F0873609F0E5C032
:107390001092AB011092AA0100DF082FFEDEF82E3A
:1073A000FCDE682E8554823008F071C1902F80E099
:1073B000CF2DD0E0C82BD92B10926F00173609F0D3
:1073C0004BC081E180935700E895DD24CC24C39421
:1073D0003FC0E090AF01F090B0010091B101109179
:1073E000B201B6E46B16D9F4ED2DF0E0EE29FF29D9
:1073F000E4918E2FEADEDD2081F082E090E0A0E0D3
:10740000B0E0E80EF91E0A1F1B1FE092AF01F092D8
:10741000B0010093B1011093B201DC2418C0D8016F
:10742000C701B695A7959795879575D5CEDE82E06D
:1074300090E0A0E0B0E0E80EF91E0A1F1B1FE092EA
:10744000AF01F092B0010093B1011093B201219706
:10745000209709F0BECF7DC08090AF019090B00121
:10746000A090B101B090B20196E4691609F05DC038
:1074700083E0F40180935700E89507B600FCFDCF48
:1074800054C0F6E46F1661F5772031F1E090AF015A
:10749000F090B0010091B1011091B2017EDED82EC2
:1074A000CC24852D90E08C299D29F7010C01409278
:1074B0005700E895112482E090E0A0E0B0E0E80EEB
:1074C000F91E0A1F1B1FE092AF01F092B00100935A
:1074D000B1011093B20102C060DE582E742423C0A3
:1074E000E090AF01F090B0010091B1011091B201B4
:1074F00016950795F794E79450DE682FC70113D5CA
:107500008091AF019091B001A091B101B091B20111
:107510000296A11DB11D8093AF019093B001A0937D
:10752000B101B093B201219704C0552477244424BB
:107530004394209709F0A5CF96E4691641F485E0BD
:10754000F40180935700E89507B600FCFDCF8DE06D
:107550003CDE82E080936F009CC0833471F4009124
:10756000AF011091B00119DE90E021E0F8010C01AB
:1075700020935700E89511247CCE833619F5E090CE
:10758000AF01F090B0010091B1011091B20105DEA0
:10759000F701E16090E021E00C0120935700E895AD
:1075A000112482E090E0A0E0B0E0E80EF91E0A1F8E
:1075B0001B1FE092AF01F092B0010093B101109354
:1075C000B20157CE8D3661F4E091AF01F091B00178
:1075D00085E080935700E89507B600FCFDCF49CEC3
:1075E000823551F4E091AF01F091B0010591149111
:1075F000812FEBDD802F4CC0843421F5E090AF016A
:10760000F090B0010091B1011091B201169507956B
:10761000F794E794C2DD682FC70185D48091AF014C
:107620009091B001A091B101B091B2010296A11D5B
:10763000B11D8093AF019093B001A093B101B093BD
:10764000B20117CE843609F5E090AF01F090B00199
:107650000091B1011091B201D801C701B695A7956B
:107660009795879558D4B1DD82E090E0A0E0B0E036
:10767000E80EF91E0A1F1B1FE092AF01F092B00145
:107680000093B1011093B20104C08B3111F08FE36C
:107690009CDD83E08093E9009091E8008091E80010
:1076A0008E778093E80095FF04C010C08EB38823C6
:1076B000C9F08091E80080FFF9CF8091E8008E77D3
:1076C0008093E80003C08EB3882361F08091E800C6
:1076D00080FFF9CF84E08093E9008091E8008B7708
:1076E0008093E800DF91CF911F910F91FF90EF9071
:1076F000DF90CF90BF90AF909F908F907F906F90D2
:107700005F904F9008959091B701892F8F778132C4
:1077100049F58091B8018032A1F0813219F5913A92
:1077200009F58091E800877F8093E8008CE091E084
:1077300067E070E027D28091E8008B778093E800C3
:107740000895913279F48091E800877F8093E80072
:107750008CE091E067E070E079D28091E8008E776C
:107760008093E800089582E061EC42E0D1D083E0AC
:1077700061E842E1CDD084E060E842E1C9C01F93F6
:10778000209100081092000844B714BE88E10FB69B
:10779000F89480936000109260000FBE80E8E0E0F3
:1077A000F0E00FB6F89480936100E09361000FBEA3
:1077B00031E035BF92E095BF3F9A209A559A809369
:1077C00061001092610047985D9A289A1092890092
:1077D0008AEF8093880090936F0083E0809381000C
:1077E000859194918F5F9F4F11F03093AE01942F4C
:1077F00041FF19C0809109012817A9F08093000862
:10780000789480911301882339F08091AC01909194
:10781000AD018F5E9240C8F310920008F89481E0A9
:10782000809313010CC090FF04C08091AE018823A7
:1078300051F493FF09C080910901281729F0809124
:10784000AE01882309F04EDCD4D078941092AB01BD
:107850001092AA011EEF20C0D7DC4BD38091AA0161
:107860009091AB0181549F4110F0109213018091CF
:10787000B3019091B40101969093B4018093B30148
:10788000292F97FF03C0512F591B252F220F28178F
:1078900010F4479801C0479A809113018823E1F6BC
:1078A0008091E00081608093E0001CDC80E090E04B
:1078B0001F910895FA01923049F0933061F09130B0
:1078C000F9F484E191E022E130E01EC086E291E02B
:1078D0002EE330E019C0882329F484E691E024E007
:1078E00030E012C0813029F488E691E022E230E0F5
:1078F0000BC0823029F48CE891E028E130E004C02C
:1079000080E090E020E030E091838083C901089519
:107910008093E9008091EB0081608093EB001092EE
:10792000ED006093EC004093ED008091EE00881F25
:107930008827881F08958091B70188238CF403C09D
:107940008EB38823B1F08091E80082FFF9CF809157
:10795000E8008B778093E80008958EB3882349F080
:107960008091E80080FFF9CF8091E8008E778093C6
:10797000E8000895EF92FF920F931F9345D04CD0EB
:1079800008ED10E0F80180818F7780838081806826
:10799000808380818F7D808319BC1EBA1092B501CF
:1079A00080EEE82EF12CF70180818B7F8083F80137
:1079B00080818160808380E060E042E0A9DFE1EEC9
:1079C000F0E080818E7F8083E2EEF0E08081816054
:1079D0008083808188608083F70180818E7F8083AF
:1079E000F8018081806180831F910F91FF90EF905B
:1079F0000895E7EDF0E08081816080838AE482BFB2
:107A000081E08093B601B6CFE8EDF0E080818E7F13
:107A100080831092E20008951092DA001092E10043
:107A200008951F920F920FB60F9211242F933F9338
:107A30004F935F936F937F938F939F93AF93BF9376
:107A4000EF93FF938091DA0080FF1BC08091D800F4
:107A500080FF17C08091DA008E7F8093DA008091DA
:107A6000D90080FF0BC080E189BD82E189BD09B4E6
:107A700000FEFDCF81E08EBB3BD203C019BC1EBA15
:107A800037D28091E10080FF17C08091E20080FF33
:107A900013C08091E2008E7F8093E2008091E2002B
:107AA00080618093E2008091D80080628093D8004A
:107AB00019BC85E08EBB1CD28091E10084FF2CC0F4
:107AC0008091E20084FF28C080E189BD82E189BD08
:107AD00009B400FEFDCF8091D8008F7D8093D8003F
:107AE0008091E1008F7E8093E1008091E2008F7EA3
:107AF0008093E2008091E20081608093E2008091B7
:107B0000B501882331F48091E30087FD02C081E054
:107B100001C084E08EBBECD18091E10083FF21C0E5
:107B20008091E20083FF1DC08091E100877F8093F8
:107B3000E10082E08EBB1092B5018091E1008E7F62
:107B40008093E1008091E2008E7F8093E20080913B
:107B5000E20080618093E20080E060E042E0D8DEF5
:107B6000C7D1FF91EF91BF91AF919F918F917F917D
:107B70006F915F914F913F912F910F900FBE0F909A
:107B80001F9018959C014091BD015091BE01461770
:107B9000570718F4F90190E044C06115710511F020
:107BA000AB01F8CF8091E8008E778093E80040E049
:107BB00050E0F0CF8EB3882309F444C0853009F437
:107BC00043C08091E80083FF02C081E00895809166
:107BD000E80082FD31C08091E80080FF22C08091E2
:107BE000F3009091F200782F60E0292F30E0262BEF
:107BF000372B07C081918093F100415050402F5F97
:107C00003F4F4115510519F02830310598F390E0A8
:107C10002830310509F491E08091E8008E77809357
:107C2000E8004115510531F6992321F605C08EB3C0
:107C3000882341F0853041F08091E80082FFF7CF42
:107C400080E0089582E0089583E008959C01611525
:107C5000710529F48091E8008B778093E800F901A1
:107C600026C08EB3882391F1853091F18091E80090
:107C700083FF02C081E008958091E80082FFF1CF88
:107C800006C08091F10081936150704059F02091BD
:107C9000F3008091F200322F20E090E0822B932BB2
:107CA000892B79F78091E8008B778093E800611544
:107CB0007105B9F605C08EB3882341F0853041F0D7
:107CC0008091E80080FFF7CF80E0089582E008957A
:107CD00083E008950F931F93DF93CF9300D0CDB728
:107CE000DEB7E7EBF1E08091F100819381E0EF3BBB
:107CF000F807C9F708DD8091E80083FFE4C08091B0
:107D0000B7019091B801953009F46DC0963040F4F8
:107D1000913081F1913070F0933009F0D4C02AC0D5
:107D2000983009F4A3C0993009F4B2C0963009F034
:107D3000CAC07CC0803809F4C6C0823809F0C3C00C
:107D40008091BB0187708093E9008091EB001092D5
:107D5000E9002091E800277F2093E80090E025E0EB
:107D6000969587952A95E1F781708093F10010929E
:107D7000F10087C0882319F0823009F0A4C08F7108
:107D8000823009F0A0C08091B901882331F520919B
:107D9000BB01277009F497C02093E9008091EB00A4
:107DA00080FF1BC0933021F48091EB00806213C0F0
:107DB0008091EB0080618093EB0081E090E002C055
:107DC000880F991F2A95E2F78093EA001092EA0043
:107DD0008091EB0088608093EB001092E900809125
:107DE000E800877F51C0882309F06DC01091B90168
:107DF0001F770FB7F8948091E800877F8093E800A1
:107E00009ADD8091E80080FFFCCF8091E3008078CC
:107E1000812B8093E30080688093E300112311F4A9
:107E200082E001C083E08EBB0FBF4DC0805882301E
:107E300008F049C08091B9019091BA016091BB01ED
:107E4000AE014F5F5F4F36DDBC01009709F43BC0C8
:107E50008091E800877F8093E80089819A8192DE93
:107E60008091E8008B778093E8002DC0803859F529
:107E70008091E800877F8093E8008091B50180932E
:107E8000F1008091E8008E778093E80054DD1BC0FC
:107E90008823C9F49091B9019230A8F48091E80048
:107EA000877F8093E8009093B50145DD8091B5010F
:107EB000882331F48091E30087FD02C081E001C096
:107EC00084E08EBB50DC8091E80083FF0AC0809183
:107ED000EB0080628093EB008091E800877F8093C5
:107EE000E8000F900F90CF91DF911F910F910895AF
:107EF00008951F938EB3882361F01091E9001092CA
:107F0000E9008091E80083FF01C0E4DE1770109360
:107F1000E9001F910895F999FECF92BD81BDF89AAD
:107F2000992780B50895262FF999FECF1FBA92BDE3
:107F300081BD20BD0FB6F894FA9AF99A0FBE01964A
:067F40000895F894FFCF44
:107F46004341544552494E41007700080000000065
:107F5600000008011201100102000008412341003F
:107F660001000201000109023E00020100803209FF
:107F7600040000010202010005240010010424028D
:107F8600040524060001070582030800FF09040111
:107F960000020A000000070504021000010705831D
:107FA6000210000104030904220341007200640068
:107FB600750069006E006F002000590075006E00A4
:107FC60020002000200020002000000018034100AF
:107FD60072006400750069006E006F0020004C009E
:067FE6004C004300000006
:040000030000700089
:00000001FF