:1000000000000320D1010000F5600000AD60000099
:10001000AD600000AD600000AD600000AD600000AC
:10002000AD600000AD600000AD600000F560000054
:10003000F5600000AD6000004D76000051770000D3
:10004000F5600000F5600000F5600000F56000005C
:10005000F5600000F5600000F5600000F56000004C
:10006000F5600000F5600000F5600000F56000003C
:10007000F5600000F5600000F5600000F56000002C
:10008000F5600000F5600000F5600000F56000001C
:10009000F5600000F5600000F5600000F56000000C
:1000A000F5600000F5600000F5600000F5600000FC
:1000B000F5600000F5600000F56000006D7900005B
:1000C000F5600000997A0000F5600000C57B000033
:1000D000F5600000BD7C0000F5600000F5600000E8
:1000E000F5600000F5600000F5600000F5600000BC
:1000F000F5600000F5600000F5600000F5600000AC
:10010000F5600000F5600000F5600000F56000009B
:10011000F56000003D660000F5600000F56000003D
:10012000F5600000F5600000F5600000F56000007B
:10013000F5600000F5600000F5600000F56000006B
:10014000F5600000F5600000B57D0000F56000007E
:10015000F5600000F5600000F5600000F56000004B
:10016000F5600000F5600000F5600000F56000003B
:10017000F5600000F5600000F5600000F56000002B
:10018000F5600000F5600000F5600000F56000001B
:10019000F5600000F5600000AD7E0000F560000035
:1001A000F5600000F5600000F5600000F5600000FB
:1001B000F5600000F5600000F5600000F5600000EB
:1001C000F5600000F5600000F5600000F5600000DB
:1001D0005C4B4CF2205210B51A804DF628121A8052
:1001E00000BF00BF05F08AFF574B4FF030621A6026
:1001F000564A9A60564ADA60564B4FF470021A60BB
:10020000554B564A1A60564B1A78110703D51A787F
:1002100042F008021A70534B5349AA221A70534AEB
:10022000534B8B4204D252F8040F43F8040BF8E707
:10023000504B514900228B4202D243F8042BFAE77B
:100240004E494F4A002352F8230041F8230001335E
:10025000742BF8D14B4B4C4A802103F8011B93427D
:10026000FBD14A4B454A1A60494B8A221A70A3F5C2
:10027000805324225A70A0221A709A799207FCD5D2
:100280009A79D406FCD4434A937903F00C03082BE3
:10029000FAD1414B60221A7002331A78802AFCD1BD
:1002A0003C4B01221A715D225A719A799006FCD555
:1002B0009979384A4906FBD5384B394919600021EC
:1002C000596020231370937903F00C030C2BFAD19F
:1002D000344B354A1A60354A354C136813F4807331
:1002E00003D123604FF4A8531360324B324A1A6093
:1002F00000225A60072243F8042C304AC3F80C2D20
:1003000062B606F00BF82368DA0705D52C4805F02D
:1003100077FF2C4B2C4A1A602C4B1B785B0609D5B7
:10032000284C294B22689A4204D1254805F068FFE1
:100330000023236007F07AFE05F0E6FE07F010FACE
:10034000FEE700BF0E20054030800440823F0400DD
:100350000100002B88ED00E0002008E0030000858C
:1003600002D0074000E007407C0CFF1F1CA00000EB
:100370003007FF1F7C0CFF1F9C17FF1F0002FF1F91
:100380000000000000E400E064E400E008ED00E0AC
:10039000005006400040064001E007404480044011
:1003A0000000060204800440C010070010D0034083
:1003B00014D0034014E000E01FBF02000000202022
:1003C000DBECCF5E1CE00340A5C3945A00F007406D
:1003D000FFFFFFFFFFFFFFFFFFFFFFFFFFFFFFFF2D
:1003E000FFFFFFFFFFFFFFFFFFFFFFFFFFFFFFFF1D
:1003F000FFFFFFFFFFFFFFFFFFFFFFFFFFFFFFFF0D
:10040000FFFFFFFFFFFFFFFFFFFFFFFFDEF9FFFF23
:1004100010B5054C237833B9044B13B10448AFF33E
:1004200000800123237010BD7C0CFF1F0000000022
:1004300020A00000084B10B51BB108490848AFF3D5
:1004400000800848036803B910BD074B002BFBD0A0
:10045000BDE81040184700BF00000000800CFF1FDF
:1004600020A000007C0CFF1F0000000040697047C6
:10047000002070474FF4C870704700BF2DE9F04767
:10048000974C237884B0002B40F0E380954B964A3C
:100490009648197812780388DFF87092944E954F39
:1004A00002EB8202520086FB0246D217C2EBE6063E
:1004B0000236F6B207F1110E3D4603EB432203EB81
:1004C000820303F5585319339BB203EB132215F83B
:1004D000014FD2B212FB06F2A4EB122222EAE27220
:1004E000AE452A70E9D1844DDFF82482A5F10F02D0
:1004F000944605F1020E2C7815F8016D04EB4604C4
:1005000088FB04A6A6EBE47465450EF8014DF2D114
:1005100003EB432403EB840303F5585319339BB2D5
:1005200003EB1324E4B28C420380704824D203EB23
:10053000432103EB810303F5585319339BB203EBBB
:10054000432403EB840404F55854193403EB1323B8
:10055000A4B2DBB204EB1421C3EBC303C9B21B1278
:1005600001EB4105C1EB4511D55C048009126039EE
:10057000284680FA51F0D054604E4FF0010806F141
:10058000330A354624E005F06DF922469DF80C301B
:100590009DF80DE09DF80E40CDF8008058492B7075
:1005A00085F801E0AC70FF2303A8033505F05AF984
:1005B0009DF80C109DF80D209DF80E3086F8661001
:1005C000AA4586F8672086F86830A6F103063DD074
:1005D00017F8012F99F800E04949CDF80080C2EBE7
:1005E000021402EB0412C2F30724FF2303A82246DD
:1005F000BEF1000FC7D12246FF23414903A805F0F1
:1006000031F922469DF80C309DF80DE09DF80E4022
:10061000CDF800803A4986F8303086F831E0FF2383
:1006200086F8324003A805F01DF99DF80C109DF8DE
:100630000D209DF80E3085F8331085F8342085F8AC
:1006400035300335AA45A6F10306C1D104B0BDE893
:10065000F0872648244F0388DFF8B090294EDFF852
:1006600084E0294D03EB432203EB820303F5585347
:1006700019339BB203EB432C03EB8C0C0CF5585C49
:100680000CF1190C1FFA8CFC0CEB1C2203EB13234E
:10069000D2B2D9B202EB82020CEB4C230CEB8303F7
:1006A000C2EBC20203F55853D211193332329BB256
:1006B000D2B2C1EB01113A7003EB1327C7F3C01795
:1006C0008911323189F8007001273770C9B20F27BC
:1006D00000268EF8001003802F602670DEE600BF33
:1006E0007C07FF1F8007FF1F7E07FF1F9207FF1F6A
:1006F000797878781B11FF1F2B11FF1FCC0DFF1F7E
:10070000400FFF1F7407FF1F7807FF1F1811FF1FFF
:1007100056555555F0B53648037885B0002B62D054
:10072000344E354F3388354D354C03EB432103EBC5
:10073000810101F55851193189B201EB1123DBB266
:1007400003EBC30203EB4202D2110A32D2B24FF0E2
:10075000010E3180002314213A7085F800E02160F9
:100760000370284D284F2846232105F029F83388A7
:10077000264903EB432203EB820303F55853193355
:100780009BB203EB432003EB800000F55850193077
:1007900080B200EB102E03EB83035FFA8EFEC3EBF7
:1007A000C303012200921C0C72463080FF2303A871
:1007B00087F800E005F056F804EB4403E918EA5C1A
:1007C0009DF80C0082FA50F2EA549DF80D304A78F8
:1007D00082FA53F24A708B789DF80E2083FA52F316
:1007E0008B7005B0F0BD044B024E1A78B9E700BF1C
:1007F0007C07FF1F9207FF1F7007FF1F7407FF1F73
:100800007807FF1FCC0DFF1F7510FF1F400FFF1F44
:100810002DE9F04364490B7883B0002B40F08C80C5
:10082000624B634A634D187812782B88624F634C91
:1008300002EB8202520087FB02171744D217C2EB69
:1008400067170237FFB204F1230E264603EB43225B
:1008500003EB820303F5585319339BB203EB1322C6
:1008600016F8011FD2B212FB07F2A1EB122222EA04
:10087000E272B6453270E9D1514EDFF85481A6F1EB
:100880001F02944606F1020E317816F8017D01EB45
:10089000470188FB0197A7EBE17166450EF8011D42
:1008A000F2D103EB432103EB810303F558531933D2
:1008B0009BB203EB1321C9B281422B803D4D24D260
:1008C00003EB432103EB810303F5585319339BB228
:1008D00003EB432003EB800000F55850193003EB85
:1008E000132380B2DBB200EB1021C3EBC303C9B208
:1008F0001B1201EB4106C1EB4611D65C28800912A0
:100900006039304680FA51F0D0542E4D05F1690619
:1009100014F8011F01A804F083FF9DF804109DF84E
:1009200005209DF8063029706A70AB700335AE4221
:10093000EED103B0BDE8F0831E4D1D4F2B88224E33
:100940001A48224C03EB432203EB820202F5585271
:10095000193292B202EB422302EB830303F55853A0
:1009600019339BB202EB122E03EB1322D2B202EB2D
:100970008202C2EBC2025FFA8EFED211CEEB0E1ED5
:1009800032324FEAAE1ED2B20EF1320E3A7000276A
:100990005FFA8EFE37700F2680F800E02B807046DD
:1009A0000F70266042E700BF7C07FF1F8007FF1F14
:1009B0007E07FF1F9207FF1FEBA00EEA9B11FF1F90
:1009C000BB11FF1FCC0DFF1F7407FF1F7807FF1F10
:1009D000565555552DE9F0478F4C237882B0002BA2
:1009E00040F0D2808D498E4B8E4A8F4D0878127818
:1009F00019782B888D4E8E4C02EB8202520086FBBA
:100A0000026ED217C2EBEE0E0EF1020E5FFA8EFEF0
:100A100004F1110C274603EB432203EB820303F599
:100A2000585319339BB203EB132217F8016FD2B25C
:100A300012FB0EF2A6EB122222EAE272BC453A70D9
:100A4000E9D17C4FDFF8FC91A7F10F02904607F146
:100A5000020C3E7817F801ED06EB4E0689FB06AE58
:100A6000AEEBE676B8450CF8016DF2D103EB432608
:100A700003EB860303F5585319339BB203EB13269C
:100A8000F6B286422B80684D24D203EB432003EB61
:100A9000800303F5585319339BB203EB432603EB52
:100AA000860606F55856193603EB1323B6B2DBB2A9
:100AB00006EB1620C3EBC303C0B21B1200EB4007CA
:100AC000C0EB4710D75C2E80001260383D4685FA97
:100AD00050F5D55451B3584E01AF06F133083546A1
:100AE00014F8011F384604F09BFE9DF804009DF8A1
:100AF00005209DF8063028706A70AB702178384662
:100B0000033504F08DFE9DF804109DF805209DF836
:100B1000063086F86610A84586F8672086F86830A3
:100B2000A6F10306DCD102B0BDE8F087424D01AF6B
:100B3000A5F133082E4614F8011F384604F070FE64
:100B40009DF804009DF805209DF8063085F83000DA
:100B500085F8312085F8323021783846033D04F09D
:100B60005FFE9DF804109DF805209DF8063086F87C
:100B70003310A84586F8342086F8353006F1030690
:100B8000D9D102B0BDE8F087274D26492B88DFF880
:100B900090E02A4FDFF884C0294E03EB432203EB99
:100BA000820303F5585319339BB203EB432803EB3D
:100BB000880808F5585808F119081FFA88F808EB52
:100BC000182203EB1323D2B2D8B202EB820208EB55
:100BD000482308EB8303C2EBC20203F55853D2113A
:100BE000193332329BB2D2B2C0EB00100A7003EB61
:100BF00013218011C1F3C01132308EF800104FF074
:100C0000000EC0B287F800E00F278CF800002B80A0
:100C100084F800E03760EDE67C07FF1F8007FF1FC8
:100C20001811FF1F7E07FF1F9207FF1F7978787842
:100C30003711FF1F4711FF1FCC0DFF1F7407FF1F48
:100C40007807FF1F565555552E480378F0B593B9D0
:100C50002D492E4A2E4B097812781B782D480029F1
:100C600046D001788A1AD2B2027023212A48BDE800
:100C7000F04004F0F3BC294C254F2388224D234E2D
:100C800003EB432103EB810101F55851193189B27E
:100C900001EB412301EB830303F5585319339BB256
:100CA00003EB432203EB820202F5585219321FFA7A
:100CB00082FE03EB13220EEB1E23C3F3811301EB21
:100CC00011210133A4F800E03B70C2F38112C1F39B
:100CD000C011DFF850E0124F2970002401320A25BC
:100CE000047032708EF800403D600A480029B8D187
:100CF00001780A44D2B2027023210748BDE8F040CF
:100D000004F0ACBC7C07FF1F1811FF1F8407FF1FF6
:100D10007207FF1F7510FF1FCC0DFF1F9207FF1FEB
:100D20007807FF1F7407FF1F3349F8B50B7843BBE3
:100D30003249334A334B087812781B78D8B9324895
:100D400001780A44D2B202703048112104F086FCC6
:100D50002E4B03F133001A46197882F86610597841
:100D600082F86710997882F8681003338342A2F101
:100D70000302F1D1F8BD244801788A1AD2B2027078
:100D8000E2E723481F4E03881D4D1C4C03EB432212
:100D900003EB820303F5585319339BB203EB432251
:100DA00003EB820202F55852193292B202EB42274B
:100DB00002EB870707F558571937BFB207EB172C17
:100DC00003EB132302EB1222CCF3811CC3F3C01EEE
:100DD000C2F381120CF101030780337001320D4F11
:100DE0000D4E2A7084F800E000250F2470463D70F7
:100DF0000D703460A2E700BF7C07FF1F1811FF1FB2
:100E00008407FF1F7207FF1F7510FF1FCC0DFF1F08
:100E10009207FF1F7407FF1F7807FF1F10B50121FE
:100E20000446072005F0FEF90422024BA261E361AB
:100E300010BD00BFC0F00F402DE9F04F8F490B7877
:100E400087B0002B00F00A818D4CDFF868A2238860
:100E5000DFF864B2DFF86482DFF8649203EB4320CA
:100E600003EB800000F55850193080B200EB4023AE
:100E700000EB830303F55853193303EB432203EBD1
:100E8000820303F5585319339BB203EB432203EB60
:100E9000820202F55852193292B202EB422602EB5C
:100EA000860606F558561936B6B200EB102006EB4A
:100EB0001625C0F3811003EB132302305FFA85FE81
:100EC000DBB206EB462CFF2595FBF0F5013D03EB6D
:100ED000430306EB8C06EDB21B111EFB05F506F570
:100EE000585602EB1227193603F110022B122680F6
:100EF0000133644C8AF80030C7F303173D1D624B81
:100F00008BF80050D2B22270604D614C88F800001E
:100F10000120187000230A202B700B7089F8003014
:100F2000206023215B4804F04BFC98F80030002B34
:100F300000F09180584FDFF880B13A78DFF874A163
:100F4000DFF87C91534E002562E09BF800100B44C3
:100F5000524903EB4503096804919BB2FF2B0498A7
:100F600098BF1B024FF48C7198BF9BB201FB00F03D
:100F700003FB00F0C0F30E4000F580404404C0F3D2
:100F8000CA0303D5C3F5FF6307339BB24FEA132EA1
:100F9000C3F34601424B13F80E40424B33F81E3068
:100FA00004FB01339CB2030448BF644224B2A4F59D
:100FB0000044A4B204EB84043B493C4B09781B7801
:100FC0000091C4EBC404240C04EB4404384903A886
:100FD00004F048FC3119335D9DF80C2083FA52F37C
:100FE00033554A789DF80D3082FA53F24A708B7867
:100FF0009DF80E2083FA52F38B7039789AF800200E
:1010000098F800300A440135D2B2AB423A7022DD82
:1010100099F80010002998D09BF800100B441F4944
:1010200003EB4503096805919BB2FF2B059898BF18
:101030001B024FF48C7198BF9BB201FB00F003FBC5
:1010400000F0C0F30E40A0F5804080B24104C0F330
:10105000CA039BD596E707B0BDE8F08F0B4A12781C
:1010600032B1084A0C491278DFF850800B7058E70B
:10107000044BDFF848801A7853E700BF7C07FF1F56
:101080009207FF1F7007FF1F7407FF1F1911FF1F33
:101090007807FF1FCC0DFF1F7510FF1F6813FF1F80
:1010A000948E0000749800001411FF1F7F07FF1F2B
:1010B000400FFF1F7207FF1F8D07FF1F8C07FF1FC9
:1010C0001811FF1F2DE9F04FDFF8B49299F80030A6
:1010D0008BB0002B40F09380994904919949DFF837
:1010E000A482994B0391994905919949079198F8E0
:1010F000002098491B7806919748984C0178984FA2
:10110000DFF8849224780A44D2B202703A70D9F897
:101110000020002C6FD01344C9F80030914C0025FA
:10112000661C01E0D9F80030059A11785FFA85FB5A
:1011300001FB0B33DBB2190644BFDB43DBB25B00C0
:10114000DBB2591C01FB03F31B1203FB01F1091273
:1011500003EB4303A3EB41039BB2DA05049A117836
:10116000069A1078079A8DF8260054BFDBB2FF2349
:1011700092F800E08DF824E0994234BF4FF0FF0A66
:101180004FF0000A4FF0FF32214609A88DF82520C4
:1011900004F0B2FC397898F80000734B00FB0B1296
:1011A0001B780093D2B25346704909A804F05AFB49
:1011B00016F8013C9DF8242083FA52F306F8013C0E
:1011C00062789DF8253082FA53F26270A3789DF818
:1011D000262083FA52F3039A39781278A3700135E6
:1011E0008B18232D04F1030406F103063B7099D1FB
:1011F0000BB0BDE8F08FD31AC9F800308EE7544B1E
:10120000504A079307211C464D4E504B58480593B2
:101210000392049606F0A6F85648DFF8688106F0B7
:10122000A7FADFF868C1BCF8003003EB432203EBF8
:10123000820303F5585319339BB203EB432603EBA8
:10124000860606F558561936B6B206EB462106EB69
:10125000810101F55851193189B201EB412001EBAF
:10126000800000F55850193080B200EB402500EBAB
:10127000850505F558551935ADB205EB452E05EB3D
:101280008E0E0EF5585E0EF1190E1FFA8EFE0EEB45
:101290004E270EEB870707F558571937BFB203EBF8
:1012A000132305EB1525ACF80070DAB2C5F342152F
:1012B00006EB162307EB1726059FDFF88CC00135D8
:1012C00001EB112100EB1020C9B2C0F381103D7079
:1012D000039D0130C1EBC101F6B228700911049DD4
:1012E000254806EB86060EEB1E2E84F800E08039BA
:1012F000184C2970F611092E06944FF00A054FF08C
:101300000001056002EBC20218BF069889F80010C0
:101310004FEA222208BFC821267002F1010218BF3D
:101320000170C3F3811308BF21701449D2B2013395
:1013300001208CF8003088F800200870DCE600BF3F
:101340008307FF1F8407FF1F7307FF1F7D07FF1F12
:10135000350EFF1F3411FF1F4C11FF1F1811FF1F07
:101360007510FF1FCC0DFF1F1411FF1F400FFF1F33
:10137000188300009C07FF1F7807FF1F7407FF1FDB
:101380007C07FF1F8207FF1F9811FF1F9207FF1F97
:101390002DE9F04F7F4D2B7887B0002B40F018815E
:1013A0007D4A7E4B7E4801907E48147800901A78E2
:1013B0007D487E497E4B7F4F7F4E02907F48DFF80D
:1013C00004820078DFF80092D8F80050002840F03E
:1013D000D780D9F800002C440244C8F80040C9F86E
:1013E0000020097897F800E030781B78DFF8DCA15E
:1013F000734D8E445FFA8EFE034487F800E033702D
:101400004FF0000B21468EE0BCF1000FBCBFC9437A
:10141000C9B24900C9B24B1C03FB01F1091201FB1F
:1014200003F31B1201EB4101A1EB43039BB2D9056E
:1014300054BFDBB2FF231B1BDBB2803A1044C0B2A7
:101440004FFA80FCBCF1000FBABFC143C9B20146DC
:101450004900C9B24A1C02FB01F1091201FB02F268
:10146000121201EB4101A1EB4202009992B2D405A4
:10147000097854BFD2B2FF2291427CD2BCF1000F56
:10148000BCBFC043C0B24000C0B2421C02FB00F06F
:10149000001200FB02F2121200EB4000A0EB42022D
:1014A00092B2D00554BFD4B2FF24641AE4B22A78B1
:1014B0008DF814E0514605A88DF816308DF81520EA
:1014C00004F01AFB2A7833788DF8112005A904A8B6
:1014D0008DF810308DF8124004F00EFB9AF80030B1
:1014E0009DF8142083FA52F38AF800309AF801200C
:1014F0009DF8153082FA53F28AF801209AF80230EA
:101500009DF8162083FA52F30BF1010BBBF1220F69
:101510008AF802300AF1030A2FD0D8F80010D9F85F
:10152000002097F800E0029B187810FB0BF0C0B287
:101530000144C9B24FFA81FCBCF1000FBABFCB43E2
:10154000DBB20B465B00DBB25C1C04FB03F31B123B
:1015500003FB04F4241203EB4303A3EB44039BB209
:10156000DC05019C247854BFDBB2FF239C42FFF4CE
:101570004BAF002361E7002499E707B0BDE8F08F87
:10158000D9F800002C1B821AC8F80040C9F80020C6
:1015900027E700BF7C07FF1F7307FF1F8E07FF1F92
:1015A0008307FF1F8F07FF1F7D07FF1F8407FF1F94
:1015B000BF11FF1FC90CFF1F8807FF1F1811FF1F56
:1015C0007107FF1F9811FF1F0811FF1FCC0DFF1F90
:1015D0000721DFF898A15A485A4E5B4F05F0C2FE2A
:1015E0005A4806F0C5F8BAF8003003EB432403EB81
:1015F000840404F558541934A4B204EB442204EBD7
:10160000820202F55852193292B202EB422002EBEA
:10161000800000F55850193080B200EB402E00EBEE
:101620008E0E0EF5585E0EF1190E1FFA8EFE0EEBA1
:101630004E210EEB810101F55851193189B201EBB0
:10164000412301EB830303F5585319339BB203EB9A
:10165000432803EB880808F5585808F119081FFAC1
:1016600088F803EB132308EB482900EB1020DBB2CA
:1016700008EB8909C0B203EBC30309F5585908EB1D
:10168000182800EB80005B11C01101EB112B803B8F
:101690002F49039009F11909C8F342181FFA89F973
:1016A00018460EEB1E2E2B4B029108F1010881F813
:1016B000008009EB492C284918705FFA8EFE09EB6F
:1016C0008C0C0EEB4E0E0093244B81F800B04FEAC9
:1016D0002E2E04EB14240CF5585C02EB122201911F
:1016E0001F499DF80C0083F800E0E4B2DFF880E0C9
:1016F00008700CF1190CC2F381121FFA8CFC194806
:10170000AAF800C004EB840401328EF800200CEB30
:101710001C2CDFF860E086F800C0C4F307240470D6
:101720004FF00A0C1048CEF800C009EB19294FF011
:10173000000E87F8009080F800E085F800E03DE6B4
:10174000208300008807FF1FC90CFF1F9C07FF1F95
:101750007D07FF1F8F07FF1F8307FF1FBF11FF1F9D
:101760008407FF1F7307FF1F7407FF1F9207FF1FE8
:101770008E07FF1F7807FF1F2DE9F04F75490B7883
:1017800085B0002B00F0D6807348DFF8FC91038809
:10179000DFF8F8A1DFF8F881DFF8E8E103EB432494
:1017A00003EB840404F558541934A4B204EB442325
:1017B00004EB830303F55853193303EB432203EB84
:1017C000820303F5585319339BB203EB432603EB13
:1017D000860606F558561936B6B206EB462506EBD0
:1017E000850505F55855193503EB1323ADB2DBB26A
:1017F00004EB142403EB4302C4F3811405EB15231B
:101800000234DFB2FF2393FBF4F3013BDBB217FB9F
:1018100003F306EB16261211C6F303161B120580FE
:101820000436013310324D4F4D4D4E4889F800308B
:10183000D2B200238AF8006088F8004001260A240A
:101840008EF800203E702B700B70046023214648F8
:1018500003F0B6FF98F80030002B68D0434FDFF854
:101860002CA13A78DFF820913F4E00254FF48C7B75
:101870003F490C689AF8001003940B442B449BB228
:10188000FF2B03989CBF1B029BB20BFB00F003FBDA
:1018900000F0000C4104C0F3CA0303D5C3F5FF6395
:1018A00007339BB24FEA132EC3F34601314B13F8B3
:1018B0000E40314B33F81E3004FB01339CB203045D
:1018C00048BF644224B2A4F50044A4B22B482C497A
:1018D0000078009004EBC404C4F38F3404EB440498
:1018E000FF2302A803F0BEFF06EB040E335D9DF854
:1018F000082083FA52F333559DF809209EF80130F1
:1019000083FA52F38EF801309EF802109DF80A30E7
:1019100081FA53F1387899F8002098F800308EF861
:10192000021002440135D2B2AB423A70A0DC05B0DD
:10193000BDE8F08F0A4A127832B1124A0B49127888
:10194000DFF84C800B7081E70E4BDFF844801A788B
:101950007CE700BF7C07FF1F9207FF1F7407FF1F74
:101960001911FF1F7807FF1FCC0DFF1F7510FF1FF8
:101970006813FF1F948E0000749800001411FF1F5D
:10198000400FFF1F7007FF1F7207FF1F8D07FF1F0C
:101990008C07FF1FF0B552490B7885B0002B57D14B
:1019A000504B514C1A78514D5148232103F008FFF8
:1019B000504A23781268039203994FF48C721B02E9
:1019C00002FB01F103FB01F1090C4A04C1F3CA0354
:1019D00003D5C3F5FF6307339BB21A0A464C474849
:1019E000A45C30F81200C3F3460204FB02039CB26D
:1019F0000B0448BF644224B2A4F50044A4B204EB33
:101A000084042B78C4EBC404240C002B5ED13C4B23
:101A10003C491A780123009302A8FF2303F022FF18
:101A200004EB4404324A9DF80800135D111983FA4F
:101A300050F313554A789DF8093082FA53F24A70F0
:101A40008B789DF80A2083FA52F38B7005B0F0BDB5
:101A50002D4D254C2B882D48224E03EB432203EBC2
:101A6000820303F5585319339BB203EB432703EB6F
:101A7000870707F558571937BFB207EB172E03EB47
:101A8000132307EB472C5FFA8EFEDBB207EB8C07C4
:101A90000EEB8E0EC3EBC30307F558574FEAEE1E4D
:101AA0001A1119370EF1080E2F8010320F4D184FF2
:101AB00084F800E04FF0010E0023D2B280F800E07D
:101AC0000A2032702B700B7038606DE70C4D0D4999
:101AD0002A780123D618009302A8FF232E709DE7D1
:101AE0007C07FF1F7007FF1F8D07FF1F320FFF1FAF
:101AF000CC0DFF1F6813FF1F948E00007498000028
:101B00007510FF1F400FFF1F9207FF1F7407FF1F75
:101B10007807FF1F2DE9F04FB14B1A788DB032B125
:101B2000B04CB14900220A2022701A700860AF48F8
:101B300003680B930B9945F6287303FB01F1090C1D
:101B40004E04C1F3CA0303D5C3F5FF6307339BB249
:101B50001A0AA74FDFF8B482BD5C38F81240C3F30D
:101B6000460205FB02439BB20D0448BF5B4202687C
:101B70000A921BB2A3F500439BB20A999D4AC3EB9C
:101B800043131B0C02FB01F1090CDC33DBB24C04E8
:101B90000093C1F3CA0303D5C3F5FF6307339BB2B8
:101BA0001C0AC3F346023D5D38F8143005FB0233CE
:101BB0009BB20A0448BF5B42026809921BB2A3F5BC
:101BC00000439BB2099903EBC3134DF608621B0C4B
:101BD00002FB01F1090C60339BB24E0401935FFAE2
:101BE00083F9C1F3CA0303D5C3F5FF6307339BB27F
:101BF0001C0AC3F346023D5D38F8143005FB02337E
:101C00009BB20D0448BF5B421BB202680892A3F569
:101C100000439BB2C3EB0312089903EB02234AF281
:101C2000C80202FB01F1090C1B0C03F5C8534C045C
:101C30001FFA83FBC1F3CA0303D5C3F5FF63073360
:101C40009BB21C0AC3F346023D5D38F814306A4C5F
:101C500005FB02339BB20A0448BF5B42026807924D
:101C60001BB2A3F500439BB22621079DB4F800A048
:101C700001FB03F147F6983303FB05F52D0C090C26
:101C800017316E0489B2C5F3CA0203D5C2F5FF62EB
:101C9000073292B24FEA122EC2F3460617F80E2010
:101CA00038F81EE0554B02FB06E22D0492B205689F
:101CB0000595534E059DB6F800E00068069048BFB4
:101CC000524212B2A2F50042ADB240F6B83092B222
:101CD000CEEB050E00FB02F235801888069E494DBA
:101CE0001FFA8EFE05FB06F51EFB01012D0C120CE2
:101CF00089B2013219806B0496B2C5F3CA0203D5CA
:101D0000C2F5FF62073292B2100AC2F3460217F818
:101D100000C038F810000CFB020292B2280448BF41
:101D2000524212B2A2F5004292B202EB8202120CAF
:101D300005326FEA09095FFA89F992B20EFB02AE29
:101D40004B465944A4F800E0D1468CB222259A466D
:101D500009EB06031FFA83F961044FEA192EC4F355
:101D6000CA0203D5C2F5FF62073292B2100AC2F36B
:101D7000460117F800C038F810208DF810E00CFB71
:101D80000122230492B248BF524212B2A2F500428D
:101D900092B2019B02FB02F2120C03FB02F2C2F3AD
:101DA000074252449DF800308DF8122003A904A880
:101DB0008DF8113003F0A0FE134B05EB45001844DD
:101DC000402203A9013D03F0FDFCADB24FF6FF73C5
:101DD0005C449D42A4B2BBD10DB0BDE8F08F00BF02
:101DE0007C07FF1F7407FF1F7807FF1F6813FF1F83
:101DF000948E0000F87401003E0FFF1F6210FF1F59
:101E0000F012FF1F80B50100CC0DFF1F7498000079
:101E10002DE9F04FBB4B1A788DB03AB1BA4CBB49A3
:101E200001250A200022257008601A70B849B94BB4
:101E30000A680B920B9803FB00F0000C4704C0F3F8
:101E4000CA0303D5C3F5FF6307339BB21A0ADFF851
:101E50000CA3DFF80CB31AF802503BF81240C3F39E
:101E6000460205FB024306049BB248BF5B421BB21D
:101E70000A680A92A3F500439BB203EBC3130A9CC2
:101E8000180C4DF6086303FB04F4240CA24B6030DD
:101E9000C0B265041870C4F3CA0303D5C3F5FF6369
:101EA00007339BB21D0AC3F346021AF805603BF8DC
:101EB000153006FB02339BB2220448BF5B421BB2C3
:101EC0000A680992A3F500439BB2C3EB0319099C6E
:101ED000924A03EB09294AF2C80303FB04F44FEAD0
:101EE0001949240C09F5C8591FFA89F367040393AB
:101EF0001380C4F3CA0303D5C3F5FF6307339BB252
:101F00001D0AC3F346021AF805603BF81530DFF8E6
:101F1000548206FB02339BB2260448BF5B420A6828
:101F200008921BB2A3F500439BB2089DB8F800E0ED
:101F3000262202FB03F247F6983404FB05F4120C48
:101F4000774B240C173292B265041A70C4F3CA039B
:101F500003D5C3F5FF6307339BB21E0AC3F34605DF
:101F60001AF806303BF81660DFF8FCC103FB056386
:101F700027049BB20C68069448BF5B421BB2069FC5
:101F80000968BCF80040674E0791A3F5004340F292
:101F9000B1419BB2BFB201FB03F3634935880F80A7
:101FA0003C1BA4B26149ACF8007014FB0252DFF88C
:101FB000BCC1079D0C801B0C91B2318003F5967358
:101FC0005B4E0CFB05F52D0C9BB233806E04C5F304
:101FD000CA0203D5C2F5FF62073292B2160AC2F3F3
:101FE00046021AF806703BF81660DFF8849107FB8A
:101FF000026292B22D0448BF524212B2A2F50042D0
:1020000092B202EB8202120C053292B204FB02E49D
:10201000484F494E039AA8F800402225474C0395A3
:1020200005EB4508A044042473449BB24FEAD31E39
:102030001EF4807F6FEA132C0A4492B25FFA8CFC84
:10204000338008BF4FEA132C3D4D3E4BA5F800E00E
:10205000510483F800C03A80C2F3CA0E05D5CEF50C
:10206000FF6E0EF1070E1FFA8EFE4FEA1E21CEF311
:1020700046031AF801E03BF81110334D0EFB031E26
:102080001FFA8EFE130448BFCEF1000E0FFA8EFE2B
:10209000AEF5004E1FFA8EFE0EFB0EF2120C02FB86
:1020A00000F3C04300EB1340CCEB0C130CEB031C10
:1020B000012300932A80254B254DA3F800E0CCF3A3
:1020C000072CC0B2034662462870224989F800C036
:1020D00005A803F0C7FB204BBDF80C501D808022E3
:1020E00005A94046013C03F06DFB14F0FF0441D00C
:1020F0000F4B0A4A0848B6F800E01B883988128856
:10210000007891E77C07FF1F7407FF1F7807FF1F08
:102110006813FF1FF87401006410FF1F340FFF1FC6
:10212000C80DFF1F1611FF1FC40CFF1FC011FF1F9A
:102130009411FF1FC60CFF1F6610FF1FCC0DFF1F61
:102140001A11FF1F2D11FF1F3C0FFF1F8C11FF1FC6
:102150006010FF1F400FFF1F300FFF1F948E000005
:10216000749800004A11FF1F8E11FF1F80B50100F7
:10217000B512FF1F039D013DADB24FF6FF739D42A7
:1021800009D0064B064A0748B6F800E01B88398894
:102190001288007842E70DB0BDE8F08F9411FF1F60
:1021A000340FFF1F6410FF1F2DE9F04F93B0002381
:1021B00004688DF824308DF825308DF82630256898
:1021C000B34E0790B5428DF828300A468DF8293075
:1021D0008DF82A3040F01583817C0C9209A80129E2
:1021E0000D928DF83E308DF83F308DF840300B90D9
:1021F00000F0CA828DF83D308DF83C308DF83B30D0
:102200008DF83A308DF839308DF83830A369A1490E
:1022100000228B428DF84120119240F0FA82079CF7
:1022200004F006F8238CC01A83B2312BF8D99A4AED
:102230009DF83B1013689DF83D40019102949DF874
:102240003C109DF941409548009143F080739DF802
:102250003950DDF82C8003949DF838A09DF83A9011
:102260009DF83E609DF83F109DF84070DDF830B05D
:10227000136002688A4C8B4B42F00102026000221C
:1022800022601A681A6822F004021A60009B98F80B
:1022900001405D1B5FFA85FC002C40F017814B1C50
:1022A000049372B67E4B1968BBF1000F01F1E20195
:1022B00040F3BB80721C05927A487A1C06921F4636
:1022C000019ACAEB020A009ACCEB020C029AC9EB03
:1022D00002095FFA8AFA5FFA8CFC5FFA89F972B632
:1022E0001A688A4206D91A6842F27425521AAA421A
:1022F00000F2F6800568066845F0040526F004063D
:102300004FF0070E1A689142FCD839680560220622
:1023100001F1E20100F195801A688A1AC32AFBD8FC
:102320006400BEF1010E0660E4B2EBD11A6891427E
:10233000FCD839680560240601F1E20100F18B80C8
:102340001A688A1AC32AFBD8066098F800403CB184
:1023500084FA5AF4059AE4B204FB02F4C4F30724A5
:102360004FF0070E1A688A42FCD3396805602206CE
:1023700001F1E20179D41A688A1AC32AFBD86400F1
:10238000BEF1010E0660E4B2ECD11A689142FCD8AD
:1023900039680560240601F1E2016FD41A688A1ACF
:1023A000C32AFBD8066098F802403CB184FA59F47D
:1023B000069AE4B204FB02F4C4F307244FF0070EBC
:1023C0001A688A42FCD339680560220601F1E201ED
:1023D0006AD41A688A1AC32AFBD86400BEF1010EB7
:1023E0000660E4B2ECD11A689142FCD83968056005
:1023F000240601F1E20160D41A688A1AC32AFBD8C4
:10240000039A066090440BF1FF3B98F801403CB101
:1024100084FA5CF4049AE4B202FB04F4C4F30724E3
:1024200062B6BBF1000F7FF44BAF62B61C4B1B686A
:10243000002B56D003F0FCFE079B188413B0BDE8B8
:10244000F08F1A688A1A522A7FF66AAF1A688A1AB7
:10245000522AF6D864E71A688A1A522A7FF674AFAD
:102460001A688A1A522AF6D86EE71A688A1A522A05
:1024700085D91A688A1A522AF7D880E71A688A1A00
:10248000522A8FD91A688A1A522AF7D88AE700BFC7
:1024900025280000A5340000FCED00E0001000E05D
:1024A000041000E0C0F00F401A688A1A522A94D92A
:1024B0001A688A1A522AF7D88FE71A688A1A522A93
:1024C0009ED91A688A1A522AF7D899E784FA5CF4D6
:1024D000E3B24A1C02FB03F30492C3F30724E0E6D1
:1024E00062B662B640F6B833013BFDD172B6A24A7D
:1024F0009DF83B1013689DF83D40019102949DF8B2
:102500003C109DF941409D48009143F080739DF837
:102510003950DDF82C8003949DF838909DF83AA04E
:102520009DF83E609DF83F109DF84070DDF830B09A
:1025300013600268924C934B42F001020260002249
:1025400022601A681A6822F004021A60009B98F848
:1025500001405D1B5FFA85FC002C00F0098184FAC4
:102560005CF4E3B24A1C02FB03F30492C3F30724B6
:1025700072B6834B1968BBF1000F01F1E20140F321
:10258000BB80721C05927F487A1C06921F46019AF6
:10259000C9EB0209009ACCEB020C029ACAEB020AC0
:1025A0005FFA89F95FFA8CFC5FFA8AFA72B61A68E8
:1025B0008A4206D91A6842F27425521AAA4200F2D7
:1025C00026810668056846F0040625F004054FF0EC
:1025D000070E1A688A42FCD339680660220601F1A8
:1025E000E20100F18D801A688A1AC32AFBD86400C0
:1025F000BEF1010E0560E4B2EBD11A689142FCD83D
:1026000039680660240601F1E20100F183801A684E
:102610008A1AC32AFBD8056098F800403CB184FAB6
:1026200059F4059AE4B204FB02F4C4F307244FF012
:10263000070E1A688A42FCD339680660220601F147
:10264000E20171D41A688A1AC32AFBD86400BEF169
:10265000010E0560E4B2ECD11A689142FCD83968E9
:102660000660240601F1E20167D41A688A1AC32AB7
:10267000FBD8056098F802403CB184FA5AF4069AF7
:10268000E4B204FB02F4C4F307244FF0070E1A6807
:102690008A42FCD339680660220601F1E20155D472
:1026A0001A688A1AC32AFBD86400BEF1010E0560BD
:1026B000E4B2ECD11A689142FCD83968066022066F
:1026C00001F1E2014BD41A688A1AC32AFBD8039A93
:1026D000056090440BF1FF3B98F801403CB184FA4F
:1026E0005CF4049AE4B202FB04F4C4F3072462B677
:1026F000BBF1000F7FF44BAF62B6214B1B6899E62C
:102700001A688A1A522A7FF672AF1A688A1A522AEF
:10271000F6D86CE71A688A1A522A7FF67CAF1A68D4
:102720008A1A522AF6D876E71A688A1A522A8DD956
:102730001A688A1A522AF7D888E71A688A1A522A17
:1027400097D91A688A1A522AF7D892E71A688A1A09
:10275000522AA9D91A688A1A522AF7D8A4E71A68FD
:102760008A1A522AB3D91A688A1A522AF7D8AEE7B7
:102770004B1C0493FCE600BFFCED00E0001000E001
:10278000041000E0C0F00F40254B1A78013202F02F
:10279000070212F0010F1A7014BF80230023900764
:1027A00044BF43F04003DBB2510748BF43F020036E
:1027B00010330021DBB20DF13B020DF13E074FF467
:1027C0008076A9B196FBF1F1C9B2481CC0B200FBFA
:1027D00003352D121070ECB205B1013C02F8034C28
:1027E00000B111700132BA4208D0D1780029E9D184
:1027F000117002F8031C0132BA42F6D1079B1C6823
:1028000004E50AAB09A9A84713B0BDE8F08F62B68A
:1028100010E607980BA9984713B0BDE8F08F00BFEA
:10282000980CFF1F2DE9F04F91B0847C5D780790E4
:10283000012C18789B7809910A920B928DF836003A
:102840008DF837508DF8383000F0CA8200238DF8AB
:1028500035308DF834308DF833308DF832308DF8D6
:1028600031308DF83030079CA94923689B690022DC
:102870008B428DF839200F9240F0EC8203F0D8FCA7
:10288000238CC01A83B2312BF8D9A24A9DF8331099
:1028900013689DF83540019102949DF834109DF91C
:1028A00039409D48009143F080739DF83150DDF828
:1028B000248003949DF830909DF832A09DF83660F6
:1028C0009DF837109DF83870DDF828B01360026865
:1028D000924C934B42F001020260002222601A687F
:1028E0001A6822F004021A60009B98F801405D1BF0
:1028F0005FFA85FC002C40F01E824B1C049372B6DC
:10290000864B1968BBF1000F01F1E20140F3BB8077
:10291000721C059282487A1C06921F46019AC9EBE6
:102920000209009ACCEB020C029ACAEB020A5FFA87
:1029300089F95FFA8CFC5FFA8AFA72B61A689142DA
:1029400006D21A6842F27425521AAA4200F2EA80AC
:102950000568066845F0040526F004064FF0070EEA
:102960001A689142FCD839680560220601F1E2013B
:1029700000F195801A688A1AC32AFBD86400BEF158
:10298000010E0660E4B2EBD11A689142FCD83968B6
:102990000560240601F1E20100F18B801A688A1AB1
:1029A000C32AFBD8066098F800403CB184FA59F479
:1029B000059AE4B204FB02F4C4F307244FF0070EB7
:1029C0001A688A42FCD339680560220601F1E201E7
:1029D00079D41A688A1AC32AFBD86400BEF1010EA2
:1029E0000660E4B2ECD11A689142FCD839680560FF
:1029F000240601F1E2016FD41A688A1AC32AFBD8AF
:102A0000066098F802403CB184FA5AF4069AE4B29F
:102A100004FB02F4C4F307244FF0070E1A688A423D
:102A2000FCD339680560220601F1E2015DD41A6821
:102A30008A1AC32AFBD86400BEF1010E0660E4B214
:102A4000ECD11A689142FCD839680560240601F17E
:102A5000E20153D41A688A1AC32AFBD8039A066083
:102A600090440BF1FF3B98F801403CB184FA5CF4D0
:102A7000049AE4B202FB04F4C4F3072462B6BBF187
:102A8000000F7FF44BAF62B6244B1B68002B4AD07B
:102A900003F0CEFB079B188411B0BDE8F08F1A68D5
:102AA0008A1A522A7FF66AAF1A688A1A522AF6D808
:102AB00064E71A688A1A522A7FF674AF1A688A1A6B
:102AC000522AF6D86EE71A688A1A522A85D91A68E5
:102AD0008A1A522AF7D880E71A688A1A522A8FD996
:102AE0001A688A1A522AF7D88AE71A688A1A522A62
:102AF000A1D91A688A1A522AF7D89CE71A688A1A42
:102B0000522AABD91A688A1A522AF7D8A6E700BF08
:102B1000A5340000FCED00E0001000E0041000E02F
:102B2000C0F00F4062B662B640F6B833013BFDD14B
:102B300072B6A74A9DF8331013689DF8354001918D
:102B400002949DF834109DF93940A248009143F059
:102B500080739DF83150DDF8248003949DF8309007
:102B60009DF832A09DF836609DF837109DF83870BA
:102B7000DDF828B013600268974C984B42F00102D0
:102B80000260002222601A681A6822F004021A60A9
:102B9000009B98F801405D1B5FFA85FC002C40F01B
:102BA0000C814B1C049372B68B4B1968BBF1000F60
:102BB00001F1E20140F3BB80721C059287487A1C48
:102BC00006921F46019AC9EB0209009ACCEB020C4F
:102BD000029ACAEB020A5FFA89F95FFA8CFC5FFA83
:102BE0008AFA72B61A688A4206D91A6842F27425BD
:102BF000521AAA4200F22C810668056846F00406C3
:102C000025F004054FF0070E1A688A42FCD3396894
:102C10000660220601F1E20100F197801A688A1A23
:102C2000C32AFBD86400BEF1010E0560E4B2EBD10B
:102C30001A689142FCD839680660240601F1E20165
:102C400000F18D801A688A1AC32AFBD8056098F8AB
:102C500000403CB184FA59F4059AE4B204FB02F452
:102C6000C4F307244FF0070E1A688A42FCD3396870
:102C70000660220601F1E2017BD41A688A1AC32A8F
:102C8000FBD86400BEF1010E0560E4B2ECD11A6815
:102C90009142FCD839680660240601F1E20171D442
:102CA0001A688A1AC32AFBD8056098F802403CB11A
:102CB00084FA5AF4069AE4B204FB02F4C4F307243B
:102CC0004FF0070E1A688A42FCD339680660220664
:102CD00001F1E2015FD41A688A1AC32AFBD86400A2
:102CE000BEF1010E0560E4B2ECD11A689142FCD845
:102CF00039680660220601F1E20155D41A688A1A81
:102D0000C32AFBD8039A056090440BF1FF3B98F867
:102D100001403CB184FA5CF4049AE4B202FB04F48E
:102D2000C4F3072462B6BBF1000F7FF44BAF62B669
:102D3000294B1B68ACE684FA5CF4E3B24A1C02FB44
:102D400003F30492C3F30724D9E51A688A1A522AB6
:102D50007FF668AF1A688A1A522AF6D862E71A68AC
:102D60008A1A522A7FF672AF1A688A1A522AF6D83D
:102D70006CE71A688A1A522A83D91A688A1A522A60
:102D8000F7D87EE71A688A1A522A8DD91A688A1AE1
:102D9000522AF7D888E71A688A1A522A9FD91A68DD
:102DA0008A1A522AF7D89AE71A688A1A522AA9D98F
:102DB0001A688A1A522AF7D8A4E784FA5CF4E3B2B4
:102DC0004A1C02FB03F30492C3F30724EBE600BFA3
:102DD000FCED00E0001000E0041000E0C0F00F4047
:102DE0001F4B1A78013202F0070212F0010F1A701D
:102DF00014BF80230023940744BF43F04003DBB299
:102E0000510748BF43F020031033DBB20DF133020A
:102E10000DF136074FF48076B0B196FBF0F1C9B2F0
:102E2000481CC0B200FB03352D121070ECB205B186
:102E3000013C02F8034C00B111700132BA423FF478
:102E400012ADD0780028E8D1107002F8030CF4E736
:102E500062B61DE6079809A9984711B0BDE8F08F42
:102E6000980CFF1F2DE9F04F91B0847C5D7807909E
:102E7000012C18789B7809910A920B928DF83600F4
:102E80008DF837508DF8383000F0CA8200238DF865
:102E900035308DF834308DF833308DF832308DF890
:102EA00031308DF83030079CA94A23689B69032094
:102EB000002193428DF839000F9140F0EB8203F02E
:102EC000B7F9238CC01A83B2312BF8D9A14A9DF8E7
:102ED000331013689DF83540019102949DF8341029
:102EE0009DF939409C48009143F080739DF8315022
:102EF000DDF8248003949DF830909DF832A09DF871
:102F000036609DF837109DF83870DDF828B01360F2
:102F10000268924C924B42F0010202600022226051
:102F20001A681A6822F004021A60009B98F801409F
:102F30005D1B5FFA85FC002C40F01D824B1C049346
:102F400072B6864B1968BBF1000F01F1E20140F344
:102F5000BB80721C059282487A1C06921F46019A19
:102F6000C9EB0209009ACCEB020C029ACAEB020AE6
:102F70005FFA89F95FFA8CFC5FFA8AFA72B61A680E
:102F80008A4206D91A6842F27425521AAA4200F2FD
:102F9000E9800568066845F0040526F004064FF050
:102FA000070E1A689142FCD839680560220601F1C3
:102FB000E20100F195801A688A1AC32AFBD86400DE
:102FC000BEF1010E0660E4B2EBD11A689142FCD862
:102FD00039680560240601F1E20100F18B801A686E
:102FE0008A1AC32AFBD8066098F800403CB184FADC
:102FF00059F4059AE4B204FB02F4C4F307244FF039
:10300000070E1A688A42FCD339680560220601F16E
:10301000E20179D41A688A1AC32AFBD86400BEF187
:10302000010E0660E4B2ECD11A689142FCD839680E
:103030000560240601F1E2016FD41A688A1AC32AD6
:10304000FBD8066098F802403CB184FA5AF4069A1C
:10305000E4B204FB02F4C4F307244FF0070E1A682D
:103060008A42FCD339680560220601F1E2015DD491
:103070001A688A1AC32AFBD86400BEF1010E0660E2
:10308000E4B2ECD11A689142FCD839680560240694
:1030900001F1E20153D41A688A1AC32AFBD8039AB1
:1030A000066090440BF1FF3B98F801403CB184FA74
:1030B0005CF4049AE4B202FB04F4C4F3072462B69D
:1030C000BBF1000F7FF44BAF62B6244B1B68002BA3
:1030D00049D003F0ADF8079B188411B0BDE8F08F1C
:1030E0001A688A1A522A7FF66AAF1A688A1A522A0E
:1030F000F6D864E71A688A1A522A7FF674AF1A68FB
:103100008A1A522AF6D86EE71A688A1A522A85D97C
:103110001A688A1A522AF7D880E71A688A1A522A35
:103120008FD91A688A1A522AF7D88AE71A688A1A2F
:10313000522AA1D91A688A1A522AF7D89CE71A6823
:103140008A1A522AABD91A688A1A522AF7D8A6E7DD
:10315000A5340000FCED00E0001000E0041000E0E9
:10316000C0F00F4062B662B640F6B833013BFDD105
:1031700072B6A74A9DF8331013689DF83540019147
:1031800002949DF834109DF93940A248009143F013
:1031900080739DF83150DDF8248003949DF83090C1
:1031A0009DF832A09DF836609DF837109DF8387074
:1031B000DDF828B013600268974C984B42F001028A
:1031C0000260002222601A681A6822F004021A6063
:1031D000009B98F801405D1B5FFA85FC002C40F0D5
:1031E0000C814B1C049372B68B4B1968BBF1000F1A
:1031F00001F1E20140F3BB80721C059287487A1C02
:1032000006921F46019AC9EB0209009ACCEB020C08
:10321000029ACAEB020A5FFA89F95FFA8CFC5FFA3C
:103220008AFA72B61A68914206D21A6842F2742576
:10323000521AAA4200F22C810668056846F004067C
:1032400025F004054FF0070E1A688A42FCD339684E
:103250000660220601F1E20100F197801A688A1ADD
:10326000C32AFBD86400BEF1010E0560E4B2EBD1C5
:103270001A689142FCD839680660240601F1E2011F
:1032800000F18D801A688A1AC32AFBD8056098F865
:1032900000403CB184FA59F4059AE4B204FB02F40C
:1032A000C4F307244FF0070E1A688A42FCD339682A
:1032B0000660220601F1E2017BD41A688A1AC32A49
:1032C000FBD86400BEF1010E0560E4B2ECD11A68CF
:1032D0009142FCD839680660240601F1E20171D4FC
:1032E0001A688A1AC32AFBD8056098F802403CB1D4
:1032F00084FA5AF4069AE4B204FB02F4C4F30724F5
:103300004FF0070E1A688A42FCD33968066022061D
:1033100001F1E2015FD41A688A1AC32AFBD864005B
:10332000BEF1010E0560E4B2ECD11A689142FCD8FE
:1033300039680660220601F1E20155D41A688A1A3A
:10334000C32AFBD8039A056090440BF1FF3B98F821
:1033500001403CB184FA5CF4049AE4B202FB04F448
:10336000C4F3072462B6BBF1000F7FF44BAF62B623
:10337000294B1B68ADE684FA5CF4E3B24A1C02FBFD
:1033800003F30492C3F30724DAE51A688A1A522A6F
:103390007FF668AF1A688A1A522AF6D862E71A6866
:1033A0008A1A522A7FF672AF1A688A1A522AF6D8F7
:1033B0006CE71A688A1A522A83D91A688A1A522A1A
:1033C000F7D87EE71A688A1A522A8DD91A688A1A9B
:1033D000522AF7D888E71A688A1A522A9FD91A6897
:1033E0008A1A522AF7D89AE71A688A1A522AA9D949
:1033F0001A688A1A522AF7D8A4E784FA5CF4E3B26E
:103400004A1C02FB03F30492C3F30724EBE600BF5C
:10341000FCED00E0001000E0041000E0C0F00F4000
:103420001F4B1A78013202F0070212F0010F1A70D6
:1034300014BF80230023940744BF43F04003DBB252
:10344000510748BF43F020031033DBB20DF13302C4
:103450000DF136074FF48076B0B196FBF0F1C9B2AA
:10346000481CC0B200FB03352D121070ECB205B140
:10347000013C02F8034C00B111700132BA423FF432
:1034800012ADD0780028E8D1107002F8030CF4E7F0
:1034900062B61EE6079809A9984711B0BDE8F08FFB
:1034A000980CFF1F2DE9F04F8BB00446099008914E
:1034B00002F0BEFE238CC01A83B2312BF8D9089CCF
:1034C0009E4AE07B13680290207C657C0190204638
:1034D000667BD4F8008094F80C9094F80EA00395C5
:1034E000A77CE57C94F814E0954994F91540049480
:1034F00043F08073D0F804B013600A689148924B8F
:1035000042F001020A60002202601A681A680198FB
:1035100022F004021A6098F80140861B5FFA86FCCC
:10352000002C40F058826B1C059372B6854B1968CD
:10353000BBF1000F01F1E20140F3BC807A1C06925E
:1035400081480EF1010207921F46029AC9EB020957
:10355000019ACCEB020C039ACAEB020A5FFA89F9D2
:103560005FFA8CFC5FFA8AFA72B61A688A4206D948
:103570001A6842F27425521AAA4200F2E7800568DE
:10358000066845F0040526F004064FF0070E1A6899
:103590008A42FCD339680560220601F1E20100F19C
:1035A00095801A688A1AC32AFBD86400BEF1010EFE
:1035B0000660E4B2EBD11A689142FCD83968056024
:1035C000240601F1E20100F18B801A688A1AC32AED
:1035D000FBD8066098F800403CB184FA59F4069A8A
:1035E000E4B204FB02F4C4F307244FF0070E1A6898
:1035F0009142FCD839680560220601F1E20179D4D4
:103600001A688A1AC32AFBD86400BEF1010E06604C
:10361000E4B2ECD11A689142FCD8396805602406FE
:1036200001F1E2016FD41A688A1AC32AFBD8066036
:1036300098F802403CB184FA5AF4079AE4B204FBC9
:1036400002F4C4F307244FF0070E1A688A42FCD331
:1036500039680560220601F1E2015DD41A688A1A10
:10366000C32AFBD86400BEF1010E0660E4B2ECD1BF
:103670001A689142FCD839680560240601F1E2011C
:1036800053D41A688A1AC32AFBD8049A0660904455
:103690000BF1FF3B98F801403CB184FA5CF4059AC9
:1036A000E4B202FB04F4C4F3072462B6BBF1000FDA
:1036B0007FF44BAF62B6234B1B68002B47D002F060
:1036C000B7FD099B18840BB0BDE8F08F1A688A1A01
:1036D000522A7FF66AAF1A688A1A522AF6D864E725
:1036E0001A688A1A522A7FF674AF1A688A1A522AFE
:1036F000F6D86EE71A688A1A522A85D91A688A1A81
:10370000522AF7D880E71A688A1A522A8FD91A687B
:103710008A1A522AF7D88AE71A688A1A522AA1D92D
:103720001A688A1A522AF7D89CE71A688A1A522A03
:10373000ABD91A688A1A522AF7D8A6E7FCED00E03E
:10374000001000E0041000E0C0F00F4062B662B666
:1037500040F6B833013BFDD172B6089FA54AF97B0C
:1037600013687E7C02913C46397C94F915E0089CF4
:10377000A1487D7B019143F08073D7F8008097F8D2
:103780000CA097F80E900396F97CBE7CCDF810E063
:103790003F7DD4F804B013600268984C984B42F017
:1037A00001020260002222601A681A6822F00402F4
:1037B0001A60019B98F801405D1B5FFA85FC002CA4
:1037C00000F0138184FA5CF4E3B24A1C02FB03F3B9
:1037D0000592C3F3072472B6884B1968BBF1000F3A
:1037E00001F1E20140F3BB80721C069284487A1C0E
:1037F00007921F46029ACAEB020A019ACCEB020C0E
:10380000039AC9EB02095FFA8AFA5FFA8CFC5FFA45
:1038100089F972B61A688A4206D91A6842F2742582
:10382000521AAA4200F2E4800668056846F00406CF
:1038300025F004054FF0070E1A688A42FCD3396858
:103840000660220601F1E20100F18D801A688A1AF1
:10385000C32AFBD86400BEF1010E0560E4B2EBD1CF
:103860001A689142FCD839680660240601F1E20129
:1038700000F183801A688A1AC32AFBD8056098F879
:1038800000403CB184FA5AF4069AE4B204FB02F414
:10389000C4F307244FF0070E1A688A42FCD3396834
:1038A0000660220601F1E20171D41A688A1AC32A5D
:1038B000FBD86400BEF1010E0560E4B2ECD11A68D9
:1038C0009142FCD839680660240601F1E20167D410
:1038D0001A688A1AC32AFBD8056098F802403CB1DE
:1038E00084FA59F4079AE4B204FB02F4C4F30724FF
:1038F0004FF0070E1A688A42FCD339680660220628
:1039000001F1E20155D41A688A1AC32AFBD864006F
:10391000BEF1010E0560E4B2ECD11A689142FCD808
:1039200039680660220601F1E2014BD41A688A1A4E
:10393000C32AFBD8049A056090440BF1FF3B98F82A
:1039400001403CB184FA5CF4059AE4B202FB04F451
:10395000C4F3072462B6BBF1000F7FF44BAF62B62D
:10396000264B1B68ABE61A688A1A522A7FF672AF9A
:103970001A688A1A522AF6D86CE71A688A1A522AE2
:103980007FF67CAF1A688A1A522AF6D876E71A6848
:103990008A1A522A8DD91A688A1A522AF7D888E7C1
:1039A0001A688A1A522A97D91A688A1A522AF7D894
:1039B00092E71A688A1A522AA9D91A688A1A522AC8
:1039C000F7D8A4E71A688A1A522AB3D91A688A1A49
:1039D000522AF7D8AEE784FA5CF4E3B26A1C02FB21
:1039E00003F30592C3F307249FE54B1C0593F2E60E
:1039F00062B664E6FCED00E0001000E0041000E0B8
:103A0000C0F00F402DE9F04F0D7805704D784570EE
:103A1000897881701178C170517801719278427102
:103A20001A7882715A78C2719B78DDF824A00372EB
:103A30009AF800B080F809B00DF12C0898E8005110
:103A4000DDF828900E9F0F9E109D1199129A159BDC
:103A50009AF801B080F80AB09AF802A080F80BA09A
:103A600099F800A080F80CA099F801A080F80DA0AA
:103A700099F8029080F80E9098F8009080F80F90D6
:103A800098F8019080F8109098F8028080F81180E2
:103A90009CF8008080F812809CF8018080F81380E8
:103AA0009CF802C080F814C09EF800C080F815C0D1
:103AB0009EF801C080F816C09EF802E080F817E07A
:103AC00097F800E080F818E097F801E080F819E036
:103AD000BF7887763778C77677780777B67846776E
:103AE0002E7886776E78C677AD7880F820500D787E
:103AF00080F821504D7880F82250897880F8231082
:103B0000117880F82410517880F82510927880F888
:103B10002620139A127880F82720139A527880F87A
:103B20002820139A927880F82920149A127880F825
:103B30002A20149A527880F82B20149A927880F8D0
:103B40002C201A7880F82D205A7880F82E209B7827
:103B500080F82F30BDE8F08F2DE9F04F9BB03F4B40
:103B60000993431E0A9300F12F030B93DFF8F4909F
:103B700000230893002759F82730DBB20137FF2BC9
:103B8000BFB2F8D1D9F8003007974FEA13684FF069
:103B9000FF32C6460692C3F3072BC3F3074A00243D
:103BA000C84658F8045FC5F30727C5F30746F9B2BE
:103BB0004FEA241C0491F1B205915FFA8CF1039154
:103BC0000799ECB20F29C5F307650DAA0EA84FEAB5
:103BD00014135FFA85F90CD806998C4507DC0F2978
:103BE00005D00131C9B28B42039138BF0B4659B29F
:103BF00006910CA9009103998DF834B08DF835A089
:103C00008DF836E08DF830708DF831608DF83250D7
:103C100001F044FDFF2CDDF810B0DDF814A0CE4615
:103C2000BFD10A9B0B9C0EAA01E0A3420FD012F851
:103C3000011B13F8010F8842F7D0089B01335D2B5D
:103C4000089308D0099B53F8049F099392E7044B0B
:103C50009DF820201A701BB0BDE8F08FC08E0000C8
:103C6000BE12FF1F6C9B0000F0B5022083B002F073
:103C70009FF91A491A4A0B88DFF878E0194E1A4D55
:103C80001A4C184400EB402343F2196700EB830001
:103C9000384480B200EB402300EB830300EB10209C
:103CA000C0B200EB80003B4400129BB214300027EE
:103CB0000B80107003EB132301AA23210C483370EF
:103CC0002F708DF804708DF805708DF806702770D0
:103CD0008EF8007001F0B2FC03B0F0BD9207FF1F38
:103CE0003511FF1F2E11FF1FC90DFF1F6110FF1F90
:103CF000CC0DFF1FC80CFF1F2DE9F04F554C23784A
:103D000083B0002B00F08680DFF87C91524AB9F82E
:103D1000003092F800805149514A524F524E534D53
:103D2000534C54489FED546ADFF860B103EB432ACB
:103D300003EB8A0A0AF5585A0AF1190A1FFA8AFA95
:103D40000AEB1A23DBB203EB830E03EBCE0E4FEA32
:103D50002E2E07EE908A0EF1140E5FFA8EFE0123CE
:103D6000F8EE676A81F800E0137000214FF0730CE1
:103D70000AEB4A230AEB830303F5585319339BB22A
:103D80000CFB03F2120C0A3203EB432A92B203EB50
:103D90008A0307EE902A03F55853F8EE677A193331
:103DA0009BB287EE867A03EB432A03EB8A0A0AF575
:103DB000585A0AF1190A1FFA8AFA0AEB1A22D2B2E1
:103DC00002EB8202D2110532D2B2013103EB13238E
:103DD00007EE902ACAB2F8EE677AC3F3C01396458D
:103DE000E7EC016A40F804BB05F8013FE4EC017A16
:103DF000A6EC017ABCD82149A9F800A008EB480834
:103E000001EB0802FF2301F808305370937003B0F0
:103E1000BDE8F08F1A4D104A2B78127819481749CF
:103E200006788DF8046002EB42020533DBB21144E0
:103E300001A8FF222B708DF806308DF8052001F0C7
:103E40005BFE2B78FF2B04BF0123237003B0BDE87A
:103E5000F08F00BFC80CFF1F3511FF1F7410FF1F2C
:103E6000C90DFF1F700FFF1FCC0CFF1F4F11FF1F4D
:103E7000C411FF1F380EFF1F0000C842CC0DFF1FEA
:103E80006110FF1F2E11FF1F9207FF1F00007F43CD
:103E90002DE9F04F2DED048B754B76481A7885B0DF
:103EA000232101F08DFC744B744A1B78002515709A
:103EB000002B00F0AC8003ABDFF8F8B1DFF8F8912D
:103EC000DFF8B0816E4FDFF8F4A1DFED6E8A9FED71
:103ED0006E9A019342E0D6ED006A9CED006A76EEA0
:103EE000266AF5EEC06AF1EE10FAC6ED006A00F13E
:103EF0008280F4EE686AF1EE10FAC8BFF0EE686AEC
:103F0000624BDAED005A234493ED007A5A4BF7EEF8
:103F1000007AE7EE497A1A7809EB040393ED007A08
:103F200067EE877A25EE866A3919BCEEE77A81ED6D
:103F3000006A52498DED007A0978C3ED007A9DF848
:103F40000030994238BF4D4905F10105EDB25C449E
:103F500038BF0B70AA42C4ED006A4FD9AC0009EB20
:103F60000403D3ED007A4A4B01991B788DF8083091
:103F70000BEB040696ED008AFCEEE77ABDEEC88AEC
:103F800017EE903A4FF0FF0E02A88DF80A308DF828
:103F900009E001F0B1FD18EE103A03EB430308EB22
:103FA000030018F803109DF80CE081FA5EF108F8A0
:103FB00003109DF80D30417881FA53F141708378F8
:103FC0009DF80E1083FA51F3324A8370515D07EB6E
:103FD000040CE64600297FF47EAFD6ED006A9CED26
:103FE000006A76EEC66AF5EEC06AF1EE10FAC6ED2A
:103FF000006A7FF57EAFDFED286A81E71F4B1B78F3
:10400000052B06D905B0BDEC048BBDE8F08F03ABE2
:1040100001930023019A17488DF80C3023218DF865
:104020000D308DF80E3001F009FB1C481C4C038844
:1040300024681C491C4A039403EB43240988128812
:104040001A4D03EB840303F558530A4419339BB20A
:1040500092B20399164C038003FB02F301EB134366
:1040600002222B60227005B0BDEC048BBDE8F08FFE
:104070009007FF1FCC0DFF1F7410FF1FB412FF1F0E
:10408000CC0CFF1F000008420000803BC411FF1F42
:104090002E11FF1F5011FF1F000000009207FF1F8D
:1040A0006813FF1F8607FF1F8A07FF1F2C0FFF1FC4
:1040B000C90DFF1F700FFF1F380EFF1F6C07FF1F7A
:1040C00000B5104B1B78022B83B005D0A3B1012B98
:1040D0000DD003B05DF804FB0B4A0C4B1268019243
:1040E000019A1B689A42F4D3FFF7BEFDF1E7FFF790
:1040F000CFFE03B05DF804FBFFF7FEFD03B05DF8F3
:1041000004FB00BFC90DFF1F6813FF1F2C0FFF1F0B
:10411000194A13786BB3194919480B88F0B403EBAB
:10412000432703EB870303F5585319339BB203EB83
:10413000432703EB870703EB132307F55857DBB23D
:104140001937C3EB03130F4D0F4E104CBFB21B12A8
:104150000F800A3307EB17270D4933702F700023A8
:104160000A260225237006600D70F0BC1370FFF75D
:10417000A7BFFFF7A5BF00BF7C07FF1F9207FF1F68
:104180007807FF1F2E11FF1F3511FF1F7407FF1F38
:10419000C90DFF1F2DE9F04F520887B002F1140935
:1041A0009A46364DBDF84060DFF8DC80344F09F1A7
:1041B000010383460C460393FA36B6B27204C6F383
:1041C000CA0303D5C3F5FF6307339BB2190AC3F3D0
:1041D000460218F8010037F8113000FB02339BB299
:1041E000300448BF5B421BB2A3F50043039A9BB265
:1041F00002FB03F309EB13431C44A4B26104C4F3B0
:10420000CA0303D5C3F5FF6307339BB2190AC3F38F
:10421000460218F8010037F8113000FB02339BB258
:10422000220448BF5B421BB2A3F500439BB2C3EB21
:10423000031203EB021201230093C2F30742534619
:10424000594605A801F00EFB2B789DF8142083FA3F
:1042500052F32B706A789DF8153082FA53F26A7027
:10426000AB789DF8162083FA52F3AB70054B0335FB
:10427000AB42A1D107B0BDE8F08F00BFCC0DFF1F4E
:1042800074980000350EFF1F948E00002DE9F04F4A
:10429000564883B003680193019901EB8101C1EB9A
:1042A0008111C1F34731CBB25D0640F19A80DB4307
:1042B000DAB202F00F03013302F03F02DFF834916B
:1042C0004B4D1211520009EB020419F802206478D8
:1042D00014FB03F302EB2313DBB20C0648BF5B4273
:1042E000026800925BB2803BDBB200984FF4F5228B
:1042F00003EB830A02FB00F003EB4A0A000E4FEACD
:104300002A2AC743A0F10B0B0AF1370AFFB25FFA62
:104310008BFB5FFA8AFA05F1010858E007F00F03FA
:10432000013307F03F021211520009EB020119F8A4
:104330000220497818F801ECAE7811FB03F302EB88
:104340002313DBB202066A7848BF5B420FFA8EFC89
:1043500002EB82015BB201EB0111803B0CEB8C04A0
:104360000A44DBB206EB860104EB0414121201EBE3
:10437000011103EB4303644402EB24240E44C3EB1A
:10438000C3030AEB232304EB2626DBB2F6B2F21AB0
:104390000730D2B2B3421146C0B210D281FA52F104
:1043A0000C4684FA51F48EFA52FE08F801EC6A7851
:1043B00082FA51F2AB786A7083FA54F3AB70073F1C
:1043C0005845FFB205F1030508F1030806D0410680
:1043D000A4D400F03F0200F00F03A4E703B0BDE84F
:1043E000F08F03F03F0203F00F0367E76813FF1F2E
:1043F000CC0DFF1F508900001648821EF0B502F157
:1044000069040227052607255378917803EB431E9C
:1044100003EB4E0301EBC10EC3EB830301EBCE01B3
:10442000C3F30723C9115370917010F8021C0129BE
:104430009CBF00F8027C5378042B937898BF567089
:10444000062B98BF95700332A24200F10300DBD126
:10445000F0BD00BFCE0DFF1F2DE9F047C64B1A7807
:1044600094B06AB1C54EC64CC648002214250D2131
:1044700032701A70256002F075FFC34803F078F9B6
:10448000C24CC34A23680393039B2168139113987A
:10449000116813604FF4523202FB00F0000CC1EBC4
:1044A000030E4104C0F3CA0203D5C2F5FF6207320E
:1044B00092B2110AB74DB84E6F5C36F81130C2F3A4
:1044C000460107FB013293B2020448BF5B422268F7
:1044D00012921BB2A3F500439BB25B20129900FB22
:1044E00003F04FF48C2303FB01F1090C000CB330F3
:1044F0004F0480B2C1F3CA0203D5C2F5FF6207328E
:1045000092B2130AC2F34607EA5C36F8133002FB94
:104510000732090492B248BF524212B2A2F50042D9
:1045200092B25B212368119301FB02F1090C9B4AB3
:10453000119FB33189B20EFB00F00EFB01F102FBBB
:1045400007F73F0C000A090A43187A044FEA530E92
:10455000C7F3CA0303D5C3F5FF6307339BB24FEA22
:10456000132CC3F3460215F80C8036F81C30DFF824
:10457000449208FB02333F04226810929BB248BF6A
:104580005B421BB2DDF840C0854AB9F80070A3F564
:104590000043C3F3813302FB0CFC4FEA1C4C0A338B
:1045A00000FB03731CF4804FA9F80030CCF3CA035E
:1045B00003D0C3F5FF6307339BB24FEA1328C3F35D
:1045C000460715F8082036F81830DFF8EC8102FBB2
:1045D00007321CF4004F23680F9392B218BF524267
:1045E00012B2DDF83CC06F4FB8F80030A2F50042BF
:1045F000C2F3813207FB0CF708323F0C0EFB12337B
:104600007A04A8F80030C7F3CA0303D5C3F5FF63E3
:1046100007339BB24FEA132EC3F3460215F80EC0C0
:1046200036F81E300CFB02333F049BB248BF5B429E
:104630001BB2A3F5004322685B4F0E929BB203EBC3
:104640004302120C594BDDF838E0B7F800C00532D0
:1046500092B203FB0EFE00FB12C34FEA1E4042045F
:104660003B80C0F3CA0303D5C3F5FF6307339BB296
:104670004FEA132EC3F3460215F80EC036F81E306B
:10468000DFF838A10CFB023300049BB248BF5B4249
:104690001BB2A3F500439BB203EB4302120CBAF822
:1046A00000304348043292B201FB12330222062149
:1046B000AAF800308DF834200A230DAA8DF83510A1
:1046C00023218DF8363000F0B9FF23680D930D9843
:1046D000B9F800104FF4523303FB00F0000C420411
:1046E000C0F3CA0303D5C3F5FF6307339BB24FEA98
:1046F000132EC3F3460215F80EC036F81E300CFB1D
:1047000002339BB2020448BF5B4222680C921BB288
:10471000A3F50043DDF830E09BB24FF42F2003EB0C
:10472000430200FB0EFE03EB02224FEA1E6E120C48
:104730005FFA8EF302F53062580692B240F13E8184
:10474000DB43D8B200F00F03013300F03F00DFF885
:1047500070900011400009EB000C19F800009CF863
:1047600001C01CFB03F300EB23131EF0800FDBB230
:104770002068079026E000BF7C07FF1F7407FF1F1B
:104780007807FF1F288300009C07FF1F6813FF1F87
:104790003011FF1F948E000074980000C85104006F
:1047A000D8510300F8230200BA12FF1F18190100A4
:1047B000CC0DFF1FB612FF1FB812FF1FBC12FF1F48
:1047C0005089000018BF5B425BB2DDF81CC0DFF807
:1047D00030E28448803BDBB20EFB0CFEC3EB031CD3
:1047E00003EB8C034FEA1E4ECEF1000E1B121FFA94
:1047F0008EFE4633DBB2CDF800E0FFF7CBFC23683A
:104800000B930B98B8F800104FF48C2303FB00F0C7
:10481000000C4204C0F3CA0303D5C3F5FF6307339A
:104820009BB24FEA132EC3F3460215F80E5036F82A
:104830001E3005FB02339BB2020448BF5B42226874
:104840000A921BB2A3F500430A9D67489BB203EB93
:10485000430200FB05F503EB02222D0E120CEBB216
:1048600002F5C0625E0692B240F1B780D843C0B292
:1048700000F00F03013300F03F000011400009EB8E
:10488000000619F80000767816FB03F300EB2313FB
:10489000DBB2280648BF5B425BB220680690803BD3
:1048A000DBB2069D514803EB830603EBC6031B12E4
:1048B00000FB05F0000C2833DBB200904C48FFF7FA
:1048C00069FC236809930998398800EB8000C0EBE4
:1048D0008010C0F34730C3B25F0679D5DB43DAB24C
:1048E00002F00F03013302F03F021211520009EBF4
:1048F000020519F802206D7815FB03F302EB231370
:104900000606DBB22268059248BF5B425BB2059D9A
:10491000384A3948803BDBB202FB05F2C3EBC305E2
:1049200003EB8503120C52421B1292B20A3300921F
:10493000DBB24FF4C062FFF72DFC236808930898A0
:10494000BAF800104FF40C2303FB00F0000EC3B2C2
:104950005D0638D5DB43DAB202F00F03013302F013
:104960003F021211520009EB020519F802206D787E
:1049700015FB03F302EB2313DBB2020648BF5B42D5
:104980005BB222680492803BDBB2049C1B4A1A484B
:1049900003EBC30503EB450302FB04F21B12120CED
:1049A0000A33DBB200924FF4A062FFF7F3FBFFF78C
:1049B0006DFCFFF721FD14B0BDE8F08703F03F0068
:1049C00003F00F03C3E603F03F0203F00F03C8E751
:1049D00003F03F0203F00F0387E703F03F0003F00B
:1049E0000F034AE77810FF1F0098120098B60100E5
:1049F000A810FF1F28260200D810FF1F58910200A0
:104A0000384901002DE9F04F40F6B83197B07F48A2
:104A100000F03AFD4FF4E1317C4800F031FD012116
:104A20007A4800F007FD002840F0E2800021774836
:104A3000012200F0D5FD0121744800F0FBFC30B1EB
:104A40000621734802F08EFC704800F017FD4FF409
:104A5000FA6001F011FC6F486F4903686F4A0978EA
:104A6000117013F0010400F0A180232200236C498F
:104A70006C48DFF8D4816C4C00F07CFF40F6B83114
:104A8000052001F077F94FF497530220A8F8003081
:104A900001F08EFAB8F800300027034409AA0AA8EA
:104AA00010210AADA8F800308DF824708DF825701B
:104AB0008DF8267000F0C2FD0FCD0FC40FCDB8F8F1
:104AC000006006EB462E06EB8E060FC406F5585620
:104AD00095E80F001936B5B205EB1526F6B284E855
:104AE0000F0006EB4603C6EB0316F6114F4BA8F872
:104AF000005053F8268058F82730DBB20137FF2BDF
:104B0000BFB2F8D1D8F8003007974FF0FF324FEA24
:104B100013690692C3F3072BC3F3074A0024CE465A
:104B200058F8045F4248C5F30727C5F30746F9B2B2
:104B30004FEA241C0491F1B205915FFA8CF10391C4
:104B40000799ECB20F29C5F307650AAA4FEA1413B7
:104B50005FFA85F90CD806998C4507DC0F2905D03A
:104B60000131C9B28B42039138BF0B4659B206914D
:104B700009A9009103998DF828B08DF829A08DF826
:104B80002AE08DF824708DF825608DF8265000F00D
:104B900085FDFF2CDDF810B0DDF814A0CE46BFD1A6
:104BA000244B01221A7017B0BDE8F08F01F0AEFA65
:104BB00000283FF45AAF20491A4B08685C60FF2276
:104BC00001255C619C609D741A735A739A73DA7341
:104BD0001A745A74C0B1194A116801B18B6000246B
:104BE00017490C481C841360196001F095FA3CE7E2
:104BF0001021144802F0B6FB0A21044800F008FC1A
:104C0000024800F03BFC11E70B60E4E7F412FF1FE1
:104C10004C8300009C0CFF1F8107FF1F3C13FF1FEC
:104C2000CC0DFF1FA00CFF1F400FFF1FC08E000008
:104C3000C012FF1F1411FF1F4C13FF1F5C13FF1F37
:104C400000810000388300009207FF1F2DE9F04F1C
:104C5000DFF82493B54DA3B003F010FAB9F8003093
:104C60002A681844A9F80000D00740F18680DFF8D0
:104C70000C83AF4CD8F800300D9394E806000D9BE0
:104C80005B1A9A4240F28C80AA4D2B68D90740F1FA
:104C90009680D8F80030A84C1093109BA748228823
:104CA0006188A0FB0303C2EB93139BB299420DD81A
:104CB000D8F800300F930F9BA049A14AA1FB031322
:104CC00012789B092380002A40F099809D4D2B6823
:104CD000DA0740F18980D8F800309B4C1393139B7E
:104CE000964822886188A0FB0303C2EB93139BB212
:104CF00099421FD8B9F80030D8F80020129203EB7F
:104D0000432203EB820303F5585319339BB203EBA1
:104D100013221299894EA9F80030D3B2C3EB0313C2
:104D2000A6FB0112894D8A481B12920901212B70A2
:104D300022800170874D2B68DB074BD5D8F80030F7
:104D4000854C169394E80600169B5B1A93420DD38C
:104D50007E4BD8F80010814A18781591804B159930
:104D6000126853F8203084E8060098477D4801789F
:104D700000F052FE23B0BDE8F08F284601F0C6F9DE
:104D8000DFF8F8816A4C002840F00781D8F800303D
:104D90000D9394E806000D9B5B1A9342FFF474AFE9
:104DA000D8F800300C930C9B624D6F4923606F481C
:104DB000182200F0B7FD2B68D9073FF56AAF2846E7
:104DC00001F0A4F9002840F0F3805B4CD8F80030E3
:104DD000109362E7284601F099F9002840F0D0804E
:104DE0005D4CD8F80030ACE7284601F08FF9002878
:104DF00040F08C80544CD8F8003013936FE75A4D34
:104E00000FCD16AC0FC40FCD0FC495E80F0084E88A
:104E10000F0016A8FEF7A0FEB9F800305448554917
:104E200003EB432203EB820303F5585319339BB280
:104E300003EB1322D2B202EB4202C2EB4212121275
:104E4000A9F8003050F822A00A7000275AF827303D
:104E5000DBB20137FF2BBFB2F8D1DAF80030CDF862
:104E600024804FF0FF32C3F3074B0792C3F30722AE
:104E70001B0E0592049300240897DE46D04658F88E
:104E8000045F39484FEA241CC5F30727ECB2C5F389
:104E90000746C5F30765E9B206915FFA8CF1039105
:104EA00008990F2916AA4FEA14135FFA87FB5FFAD5
:104EB00086FA0CD807998C4507DC0F2905D00131FB
:104EC000C9B28B42039138BF0B4659B2079115A95D
:104ED00000919DF814C08DF859E003999DF810E0F9
:104EE0008DF85AE08DF858C08DF854708DF85560E3
:104EF0008DF8565000F0D2FB069BCDF814B0FF2C75
:104F0000D6460493BBD1DDF82480DFE6D8F8003024
:104F10001193119B094A0C4CA2FB03239B09782295
:104F200028462380628001F0F7F864E76810FF1FCD
:104F3000BC0DFF1F6C10FF1F380FFF1FD34D6210F9
:104F40007407FF1F7010FF1FC40DFF1F330FFF1FDB
:104F50007C07FF1F280FFF1F0C11FF1F7807FF1F83
:104F60003007FF1F3C13FF1FC012FF1F400FFF1F22
:104F7000C08E0000BE12FF1F9207FF1F6813FF1FA5
:104F8000D8F80020124B134C1492149A1B6822601C
:104F90002846636001F0C0F823E7D8F800300B938F
:104FA0000B9B236032232846636001F0B5F8EDE6E1
:104FB000D8F800300E930E9B074A084CA2FB03233F
:104FC0009B09192228462380628001F0A5F8FDE69E
:104FD0007807FF1F0C11FF1FD34D6210380FFF1F02
:104FE0002DE9F04FE14BE2489FB000241C705C704B
:104FF0009C704FF005038DF839304FF007038DF8A2
:105000003A304FF004038DF83D304FF009038DF82E
:105010003E304FF00B038DF842304FF00D038DF80A
:1050200046304FF010038DF84A304FF012034FF026
:10503000030A4FF0020B4FF01409012517278DF8D2
:105040004E3011AE4FF019038DF838408DF83C40CA
:105050008DF840408DF844408DF848408DF84C4024
:105060008DF850408DF854408DF858408DF85940D7
:105070008DF85C408DF85D408DF841A08DF845A01D
:105080008DF849B08DF84DB08DF851508DF85550D0
:105090008DF852908DF856708DF85A3000964FF07A
:1050A00026068DF862604FF031068DF866604FF08D
:1050B0003B068DF86A604FF046068DF86E606FF023
:1050C00055068DF875604FF050068DF876601DAE70
:1050D0000C961CAE0B961BAE0A961AAE099619AE2C
:1050E000089618AE079617AE069616AE059615AE3C
:1050F00004964FF01C0214AE4FF055084FF04B0CC5
:1051000010AB8DF85E200EA90FAA4FF0280E8DF877
:10511000718003960DF1480813AE8DF872C08DF8BA
:1051200060408DF861408DF864408DF865408DF8E1
:1051300068408DF869408DF86C408DF86D408DF8B1
:1051400070908DF874E00296CDF80480FEF75AFC5A
:105150004FF007038DF83A304FF005038DF83930E2
:105160004FF004038DF83D304FF009038DF83E30C9
:105170004FF00B038DF842304FF00D038DF84630A1
:105180004FF010038DF84A304FF012038DF84E3077
:105190004FF019038DF85A304FF026024FF01C03E0
:1051A0004FF031068DF838408DF83C408DF8404086
:1051B0008DF841A08DF844408DF845A08DF8484009
:1051C0008DF849B08DF84C408DF84DB08DF85040B9
:1051D0008DF851508DF852908DF854408DF85550FF
:1051E0008DF856708DF858408DF859408DF85C4018
:1051F0008DF85D408DF85E308DF860408DF861402F
:105200008DF862208DF866604FF03B068DF86A607D
:105210004FF046068DF86E604FF019068DF87460F9
:105220001DAE0C961CAE0B961BAE0A961AAE0996D6
:1052300019AE089618AE14A9079617AE03910696F4
:1052400013A916AE0291059611A915AE10AB0FAABF
:10525000CDF8048000915F250EA94FF0BE0E049694
:1052600052274FF00C0643488DF864408DF8654096
:105270008DF868408DF869408DF86C408DF86D4070
:105280008DF870608DF871508DF876508DF87270D1
:105290008DF875E0FEF7B6FB0E208DF83E008DF818
:1052A00059004FF005034FF006008DF841308DF89E
:1052B00045004FF009034FF01A008DF84D308DF87E
:1052C00046004FF00B034FF027008DF851308DF85A
:1052D0004E004FF00C034FF02D00202540260827EC
:1052E0008DF855308DF852004FF0330C4FF0390ED9
:1052F0004FF010034FF050008DF838408DF839B062
:105300008DF83C408DF83DA08DF840408DF84290DE
:105310008DF844408DF848408DF84C408DF8504051
:105320008DF854408DF858408DF85C408DF85D3014
:105330008DF860408DF861908DF83A708DF8497065
:105340008DF856C08DF85AE08DF84A508DF85E60A1
:105350008DF862008DF864408DF868408DF86C40DF
:105360004FF010044FF0700A06E000BF9011FF1FCD
:105370007810FF1FA810FF1F8DF870401DAC0C9413
:105380000DEB0A040B941BAC0A941AAC6027099429
:1053900019AC14A808940DEB07040390079413A804
:1053A00017AC0290069411A816AC4FF0180CCDF86B
:1053B000048000904FF0FF0E05940DEB06030FAA3A
:1053C0000EA94FF080094FF0BF084FF01C0B15AC31
:1053D0000E488DF869B08DF86D508DF871608DF8BC
:1053E000745004948DF865C08DF866708DF87570F2
:1053F0008DF86AA08DF86E908DF872808DF876E049
:10540000FEF700FB1FB0BDE8F08F00BFD810FF1FF4
:10541000074882B003680193019A114401E0994260
:1054200004D303680093009B9A42F8D902B07047F6
:105430006813FF1F10B4104A85B0A1B91368009318
:105440004168009B591A31290DD813680293029CB8
:1054500004F13203591A01E0994204D3136801930D
:10546000019B9C42F8D913680393039B436001207E
:1054700005B05DF8044B70476813FF1F704700BF0D
:105480004FF47A7000F0F8BE00234364436071B1BA
:10549000074882B003680193019A114401E09942E0
:1054A00004D303680093009B9A42F8D902B0704776
:1054B0006813FF1F30B5134C85B023680393039B1B
:1054C00043600D461048062101F04CFF00230A22DC
:1054D00029460E4802F05CF906210D4801F042FF12
:1054E0000A4802F045F923680293029A02F1320158
:1054F00001E0994204D323680193019B9A42F8D9B1
:1055000005B030BD6813FF1FD89C00009C07FF1F2B
:10551000E09C000038B5037E0BB9632038BD0D4612
:10552000044601F0F5FE10F0FF0F01D1652038BDF3
:1055300001F0EEFE10F0FF0FF8D001F0ADFEC0B2AA
:10554000A0F158031E2BF3D801A252F823F000BF9C
:10555000D95500003155000031550000315500008B
:105560003155000031550000315500003155000023
:10557000315500003155000031550000CD55000077
:105580003155000031550000315500003155000003
:105590001B55000031550000315500003155000009
:1055A00031550000315500003155000031550000E3
:1055B000315500001B5500003155000031550000E9
:1055C00031550000315500001D5500002046294688
:1055D000FFF770FF632038BD00232376632038BDBA
:1055E00070B5054682B01646C9B101230D4C03764D
:1055F00000212846FFF78EFF632810D0236801930F
:10560000019A511C23680093009B9A42F0D899425A
:10561000F8D200212846FFF77DFF6328EED12E76D1
:1056200002B070BD6813FF1F034B00229A60DA605E
:105630001A615A61704700BFF412FF1F00290BDD89
:1056400001EB410101441378037053784370937860
:10565000837003308842F6D1704700BF70B582B0C6
:10566000FF25F02400298DF804208DF806508DF8D0
:10567000054010DD01EB41011E4604464518214658
:1056800001A800F039FA9DF8042003343244AC42FA
:105690008DF80420F3D102B070BD00BF2DE9F04FAA
:1056A0008B42099E52D396F800E01578777896F8E9
:1056B0000280547892F802C0C1EB030BC5EB0E0ECA
:1056C000C4EB070ACCEB08061FFA8BF24FEACE1E9A
:1056D0004FEACA1AF601B2B30FFA82FB9EFBFBFE39
:1056E0009AFBFBFA4FEA4E0E4FEA4A0A96FBFBFB87
:1056F00099424FEA4B0B1FFA8EFE1FFA8AFA1FFAE5
:105700008BFB4FEA05254FEA04244FEA0C2218D8F8
:1057100001EB41070131C61989B24FEA25294FEA49
:1057200024284FEA222C754454445A448B4200F8F2
:105730000790ADB286F80180A4B286F802C092B29A
:10574000E6D2BDE8F08F4FF0010BC7E78946357808
:1057500092F800E07478577896F802C092F80280C8
:105760001570194686F800E04B465470777082F841
:1057700002C086F802809FE709B330B44D1EADB277
:10578000D2430135D2B205EB450505440132441C34
:1057900014F8013C02FB03F31B1204F8013C4178AE
:1057A000837802FB01F102FB03F309121B12417023
:1057B00083700330854204F10304E9D130BC7047A3
:1057C000FFF7DABF22B3FF2A23D0F0B404780E78B3
:1057D000437895B2A719D24306FB0576D2B204FBF3
:1057E0000264C4F3072404704C7886781F1904FB04
:1057F000057403FB0243C3F3072343708B78F1184E
:1058000003FB051506FB0252F0BCC2F307228270AF
:1058100070470B7803704B7843708B7883707047B8
:1058200001EB4103C1EB8313003118BF012101EBF0
:105830002321C9B28B000A06DBB20ED401F040016D
:1058400001F0FF0219B90370427082707047FF21A6
:1058500000224370017082707047FF2283700270D3
:10586000427070472DE9F043141104EB440512F027
:105870000F020D449DF81C6000D0E6B92C786978C1
:10588000AA78FF2B12D0002B43D00133DBB21CB11E
:1058900003FB0444C4F3072419B103FB0111C1F352
:1058A00007211AB103FB0222C2F3072204704170E0
:1058B0008270BDE8F0830F2C2E7895F80190AF78B8
:1058C00000D0E91C120182F0FF056C1C91F800C0A9
:1058D00091F801E091F8028004FB06F6511C04FBEC
:1058E00009F504FB07F4C4F30724C6F3072701FBFB
:1058F00008F201FB0CF6C5F3072501FB0EFE04EBD5
:10590000222207EB262605EB2E21F4B2C9B2D2B231
:10591000B7E71A4619461C46047041708270BDE80C
:10592000F08300BFF0B50139441E00252F3001E09F
:1059300084421ED014F8013F11F8016FB342F7D032
:1059400003F1010704D2FBB2237001350E78EDB2EA
:105950005F1E9E42FFB205F1010E08D227700E783D
:10596000BE4238BF023B5FFA8EF538BF23709542C6
:10597000DED3F0BDF8B51E1E03680446CCBF02EBB3
:10598000420500250F469B68D8BF164698477A19EE
:10599000236862605B690A4A6661934201D12046CE
:1059A000F8BD204698470028F9D0064A064B5168B2
:1059B00093FBF0F0884238BF084650602046F8BD9F
:1059C000710400003C13FF1F40420F0070B40F4CE5
:1059D0002268531C8A4283B0236013DB0C4D0D4AAE
:1059E0002968019101992D6800951668009D156040
:1059F0004FF47A720025891B02FB03F32560B3FB89
:105A0000F1F3438003B070BC704700BF5013FF1F19
:105A10006813FF1F5813FF1F2DE9F04F43682D4CEB
:105A200083B006468946002B4BD100F001FCF36899
:105A300020601BB14846B16898478146264B1C68D8
:105A40000025002C36D07388A77C61686269632BBF
:105A5000236898BFA574D3F804808DF804508DF89E
:105A600005508DF80650B9F1000F1CD004F10B035E
:105A70000DF1040E04F10E0C13F801BFBBF1000F81
:105A80000DD093F803A00AF101000BFB0000BAF15E
:105A9000000F04D009FB00F0000C8EF800006345F5
:105AA0000EF1010EE8D1204601ABC047A774A468EF
:105AB000002CC8D130461921FFF788FF03B0BDE89C
:105AC000F08F00F0B5FB22687368801A9842AAD361
:105AD000ABE700BF5413FF1F4C13FF1F002070479C
