:1000000000800020BD01000045230000FD2200000B
:10001000FD220000FD220000FD220000FD22000064
:10002000FD220000FD220000FD220000452300000B
:1000300045230000FD2200007137000075380000E4
:100040004523000045230000452300004523000010
:100050004523000045230000452300004523000000
:1000600045230000452300004523000045230000F0
:1000700045230000452300004523000045230000E0
:1000800045230000452300004523000045230000D0
:1000900045230000452300004523000045230000C0
:1000A00045230000452300004523000045230000B0
:1000B00045230000452300004523000045230000A0
:1000C0004523000045230000452300004523000090
:1000D0004523000045230000452300004523000080
:1000E0004523000045230000452300004523000070
:1000F000452300007D3A000045230000A93B000095
:1001000045230000D53C00004523000045230000A6
:10011000452300004523000045230000452300003F
:10012000452300004523000045230000452300002F
:10013000452300004523000045230000452300001F
:10014000452300004523000045230000452300000F
:1001500045230000452300004523000045230000FF
:10016000452300008D2700004523000045230000A3
:1001700045230000452300004523000045230000DF
:1001800045230000452300004523000045230000CF
:1001900045230000452300004523000045230000BF
:1001A00045230000452300004523000045230000AF
:1001B000452300004523000045230000564B4CF228
:1001C000205210B51A804DF628121A8000BF00BFC9
:1001D00002F0BCF8514B4FF010621A60504A9A601E
:1001E000504ADA60504A136813F4807304D14F49BF
:1001F0000B604FF4A85313604D4B1A78110703D5C9
:100200001A7842F008021A704A4B4B492A221A7097
:100210004A4A4B4B8B4204D252F8040F43F8040B6A
:10022000F8E7484B484900228B4202D243F8042B9E
:10023000FAE74649464A002352F8230041F82300D2
:1002400001336F2BF8D1434B434A802103F8011B44
:100250009342FBD1414B3D4A1A60414B8A221A70AE
:10026000A3F5805324225A70A0221A709A7992071B
:10027000FCD59A79D406FCD43A4A937903F00C035E
:10028000082B384BF9D103221A7140225A719A79FE
:100290009006FCD5334A9179324B4906FBD5324A58
:1002A000324911600221516020221A709A7902F0BD
:1002B0000C020C2AFAD12E4B2E4A1A602E4B2F4AD2
:1002C0001A6000225A60072243F8042C2C4AC3F813
:1002D0000C2D62B602F010F9144B1B68DA0705D535
:1002E000284802F081F8284B284A1A60284B1B78CE
:1002F0005B0609D5244C254B22689A4204D121483B
:1003000002F072F80023236003F098FD02F024F855
:1003100003F0B8FAFEE700BF0E200540308004402D
:10032000823F04000100002B10D0034014D0034092
:1003300002D0074000E007400C8CFF1F4044000043
:100340002087FF1F0C8CFF1FD495FF1F0082FF1F0B
:100350000000000000E400E05FE400E008ED00E0E1
:100360000050064000400640448004400000030165
:1003700004800440C010050014E000E0FF76010096
:10038000000020204712275E1CE00340A5C3945ABA
:1003900000F00740FFFFFFFFFFFFFFFFFFFFFFFF32
:1003A000FFFFFFFFFFFFFFFFFFFFFFFFFFFFFFFF5D
:1003B000FFFFFFFFFFFFFFFFFFFFFFFFFFFFFFFF4D
:1003C000FFFFFFFFFFFFFFFFFFFFFFFFFFFFFFFF3D
:1003D000FFFFFFFFFFFFFFFFFFFFFFFFFFFFFFFF2D
:1003E000FFFFFFFFFFFFFFFFFFFFFFFFFFFFFFFF1D
:1003F000FFFFFFFFFFFFFFFFFFFFFFFFFFFFFFFF0D
:10040000FFFFFFFFFFFFFFFFFFFFFFFFDEF9FFFF23
:1004100010B5054C237833B9044B13B10448AFF33E
:1004200000800123237010BD0C8CFF1F0000000012
:1004300044440000084B10B51BB108490848AFF30D
:1004400000800848036803B910BD074B002BFBD0A0
:10045000BDE81040184700BF00000000108CFF1FCF
:10046000444400000C8CFF1F0000000040697047EE
:10047000002070474268017B13780B43137070476C
:100480004268017B137823EA01031370704700BFB1
:1004900010B5012104460E2001F0B8FF072001210C
:1004A00001F0B4FFA06958B10368074A5B68934242
:1004B00007D14268017B137823EA0103137010BD52
:1004C00010BDBDE81040184781040000F0B58BB0A6
:1004D000002305688DF804308DF805308DF806305E
:1004E0002E68374A8DF8083096428DF809308DF81D
:1004F0000A305FD1827C04910446012A01A805914B
:100500008DF81E308DF81F308DF82030039015D0F7
:100510008DF81D308DF81C308DF81B308DF81A3099
:100520008DF819308DF818300023AA698DF8213024
:100530002046099303A990470BB0F0BD214A1378D8
:10054000013303F0070313F0010F14BF80210021D2
:1005500013709A0744BF41F04001C9B25B0748BF1E
:1005600041F0200110310022C9B20DF11B030DF141
:100570001E074FF4807EAAB19EFBF2F2D2B2501C4D
:10058000C0B200FB01152D121870EEB205B1013E8C
:1005900003F8036C00B11A7001339F4208D0DA7877
:1005A000002AE9D11A7003F8032C01339F42F6D1D7
:1005B0002568B9E70A4602AB01A9B0470BB0F0BD08
:1005C000C9050000288CFF1FF0B5857C1C785E787B
:1005D0009B7889B0012D0191029203928DF816400B
:1005E0008DF817608DF8183016D000238DF815306F
:1005F0008DF814308DF813308DF812308DF81130DD
:100600008DF810300268002392698DF81930079335
:1006100001A9904709B0F0BD1B4A1378013303F0DC
:10062000070313F0010F137014BF802200229907F3
:1006300044BF42F04002D2B25B0748BF42F0200202
:100640001032D2B20DF113030DF116074FF4807E74
:10065000ACB19EFBF4F4E4B2611CC9B201FB02250B
:100660002D121970EEB205B1013E03F8036C01B111
:100670001C700133BB42C5D0DC78002CE9D11C7062
:1006800003F8034CF5E700BF288CFF1FF0B5857C0D
:100690001C785E789B7889B0012D019102920392BB
:1006A0008DF816408DF817608DF8183017D000239C
:1006B0008DF815308DF814308DF813308DF8123018
:1006C0008DF811308DF810300368002203219B69EA
:1006D0008DF81910079201A9984709B0F0BD1B4A7F
:1006E0001378013303F0070313F0010F137014BFE5
:1006F00080220022990744BF42F04002D2B25B0739
:1007000048BF42F020021032D2B20DF113030DF1B6
:1007100016074FF4807EACB19EFBF4F4E4B2611C8A
:10072000C9B201FB02252D121970EEB205B1013ECE
:1007300003F8036C01B11C700133BB42C4D0DC78F8
:10074000002CE9D11C7003F8034CF5E7288CFF1F3F
:100750002DE9F04F85B00390806950B10368524A8B
:100760001B68934240F07F824268007B137803430A
:1007700013704E484E4A022404230460136000BFE5
:1007800003600460136000BF03600460136000BF77
:1007900003600460136000BF03600460136000BF67
:1007A00003600460136000BF03600460136000BF57
:1007B00003600460136000BF03600460136000BF47
:1007C00003600460136000BF03600460136000BF37
:1007D00003600460136000BF03600460136000BF27
:1007E00003600460136000BF03600460136000BF17
:1007F00003600460136000BF03600460136000BF07
:1008000003600460136000BF03600460136000BFF6
:1008100003600460136000BF03600460136000BFE6
:1008200003600460136000BF03600460136000BFD6
:1008300003600460136000BF03600460136000BFC6
:1008400003600460136000BF03600460136000BFB6
:1008500003600460136000BF03600460136000BFA6
:1008600003600460136000BF03600460136000BF96
:1008700003600460136000BFD1F808800360B8F122
:10088000000F40F34E810E68CDF80480254696F89F
:1008900002E0BEF1000F0DD091F80EC08EFA5CFEA2
:1008A0005FFA8EFE06E000BF75040000C8F00F403E
:1008B000C4F00F4091F814C015600CFB0EEECEF39F
:1008C000072E4EF47F4E136000BF03601560136067
:1008D00000BF03601560136000BF03601560136004
:1008E00000BF03601560136000BF036015601360F4
:1008F00000BF03601560136000BF036015601360E4
:1009000000BF1EF0800F03605FFA8EFC14BF1460FE
:100910000460136000BF1CF0400F036014BF14603C
:100920000460136000BF1CF0200F036014BF14604C
:100930000460136000BF1CF0100F036014BF14604C
:100940000460136000BF1CF0080F036014BF146044
:100950000460136000BF1CF0040F036014BF146038
:100960000460136000BF1CF0020F036014BF14602A
:100970000460136000BF1CF0010F036014BF14601B
:100980000460136000BF036096F801C0BCF1000F63
:1009900005D091F80DE08CFA5EFC5FFA8CFC91F8C2
:1009A000138096F800E008FB0CCC0CF47F4CBEF1F1
:1009B000000F05D091F80C808EFA58FE5FFA8EFE7B
:1009C00091F8128008FB0EEE4CEA1E2E4FEA2E2CF8
:1009D0001CF0800F14BF146004605FFA8CF8136081
:1009E00000BF18F0400F036014BF14600460136070
:1009F00000BF18F0200F036014BF14600460136080
:100A000000BF18F0100F036014BF1460046013607F
:100A100000BF18F0080F036014BF14600460136077
:100A200000BF18F0040F036014BF1460046013606B
:100A300000BF18F0020F036014BF1460046013605D
:100A400000BF18F0010F036014BF1460046013604E
:100A500000BF1EF0800F03605FFA8EF814BF1460B1
:100A60000460136000BF18F0400F036014BF1460EF
:100A70000460136000BF18F0200F036014BF1460FF
:100A80000460136000BF18F0100F036014BF1460FF
:100A90000460136000BF18F0080F036014BF1460F7
:100AA0000460136000BF18F0040F036014BF1460EB
:100AB0000460136000BF18F0020F036014BF1460DD
:100AC0000460136000BF18F0010F036014BF1460CE
:100AD0000460136000BF03608F7B0297019F91F851
:100AE00011E091F80C8091F80DA091F80FB091F8F9
:100AF00010C091F91590013F0197029FC7EB0E0EB0
:100B0000019F8F60C8EB0B08CAEB0C0C4E44002F02
:100B100081F80C8081F80DC081F80EE00E603FF77F
:100B2000B6AE4C68524A5349002CB8BF1F3464110A
:100B30000220042308600B6000BF136008600B6094
:100B400000BF136008600B6000BF136008600B609B
:100B500000BF136008600B6000BF136008600B608B
:100B600000BF136008600B6000BF136008600B607B
:100B700000BF136010600B6000BF136010600B605B
:100B800000BF136010600B6000BF136010600B604B
:100B900000BF136010600B6000BF136010600B603B
:100BA00000BF136010600B6000BF136010600B602B
:100BB00000BF136010600B6000BF136010600B601B
:100BC00000BF136010600B6000BF136010600B600B
:100BD00000BF136010600B6000BF136010600B60FB
:100BE00000BF136010600B6000BF136010600B60EB
:100BF00000BF136010600B6000BF136010600B60DB
:100C000000BF136010600B6000BF136010600B60CA
:100C100000BF136010600B6000BF136010600B60BA
:100C200000BF136010600B6000BF136010600B60AA
:100C300000BF013C651C13607FF47CAF039B986987
:100C400050B103680C4A5B68934208D14268017B4B
:100C5000137823EA0103137005B0BDE8F08F05B0E7
:100C6000BDE8F04F184701919847019981E500BF11
:100C7000C8F00F40C4F00F408104000038B50021D7
:100C80000446744802F002FC734802F003FE162189
:100C9000724802F0FBFB704802F0FCFD1621704820
:100CA00002F0F4FB94F82B32002B00F0C380012BF0
:100CB00000F0C88016216B4802F0E8FB00230A22EE
:100CC00094F8C211644802F0F5FD634802F0E2FDB9
:100CD0001621654802F0DAFB00230A2294F8C311BA
:100CE0005D4802F0E7FD5C4802F0D4FD16215F4844
:100CF00002F0CCFB94F82512574802F01BFE564830
:100D000002F0C8FD16215A4802F0C0FB94F82612E2
:100D1000514802F00FFE504802F0BCFD1621554824
:100D200002F0B4FB94F827124B4802F003FE4A4845
:100D300002F0B0FD1621504802F0A8FB00230A2261
:100D400094F82812444802F0B5FD434802F0A2FD91
:100D500016214A4802F09AFB94F82A123E4802F003
:100D6000E9FD3D4802F096FD94F82952002D58D136
:100D70001621434802F08AFB374802F08BFD0F2111
:100D8000404802F083FB2B460A2294F82C1232488A
:100D900002F090FD304802F07DFD0F213A4802F04C
:100DA00075FB2B460A2294F82D122B4802F082FD87
:100DB000294802F06FFD0F21344802F067FB2B46F3
:100DC0000A2294F82E12244802F074FD224802F000
:100DD00061FD0F212E4802F059FB2B460A2294F8A0
:100DE0002F121D4802F066FD1B4802F053FD0F2133
:100DF000284802F04BFB2B460A2294F83012164882
:100E000002F058FD144802F045FD0F21224802F07F
:100E10003DFB94F83112104802F08CFD0E4802F0B0
:100E200039FD16210D4802F031FB0B48BDE8384072
:100E300002F030BD0721194802F028FB064802F0F5
:100E400029FD37E70421164802F020FB024802F092
:100E500021FD2FE77C4100002887FF1FE03F0000B5
:100E6000F83F0000204000003840000050400000E3
:100E7000684000008040000098400000B040000042
:100E8000C8400000E0400000F040000000410000C9
:100E900010410000204100003041000010400000DF
:100EA000184000002DE9F84F184D9DF828809DF856
:100EB0002C709DF8306004468946154811219246F1
:100EC0009B4602F0E3FA284602F0E4FC01210020F0
:100ED00084F8290284F82A1284F8251284F82C92C6
:100EE00084F82DA284F82EB284F82F8284F8307210
:100EF00084F831621421074802F0C8FA284602F04B
:100F0000C9FC2046BDE8F84FFFF7B8BE2887FF1F91
:100F100040410000544100002DE9F04F90F82A12A2
:100F20008BB00646002900F0E28096F8313213B10A
:100F3000002386F82C3296F82F229621304600F0B6
:100F4000A5FC96F82D32002B00F0CE8006F1E104CE
:100F500096F82C22DFF854B2DFF854A2059400274B
:100F600006F5E2784FF48C795AE096F82E123B445D
:100F70000B44DBF800100891FF2B08999CBF1B0263
:100F80009BB209FB01F103FB01F31B0C5D04C3F3EE
:100F9000CA0103D5C1F5FF61073189B2080A814C46
:100FA0001AF8005034F81000C1F3460105FB0101A6
:100FB0001C0489B248BF49420DB296F8241296F833
:100FC000C231009107A8414600F062FCA5F500433C
:100FD0009AB2972303FB02F31B0C03EB4303F118B4
:100FE000F25C9DF81C0082FA50F2F2549DF81D301C
:100FF0004A7882FA53F24A708B789DF81E2083FA61
:1010000052F38B7096F82C1296F8302296F82D3207
:1010100001370A44FFB2D2B2BB4286F82C2263D910
:1010200096F826120029A0D196F82E123B440B44C4
:10103000DBF800100991FF2B09999CBF1B029BB2A2
:1010400009FB01F103FB01F3190C4804C1F3CA03C6
:1010500003D5C3F5FF6307339BB2180A514C1AF846
:10106000005034F81000C3F3460305FB03030904E2
:101070009BB248BF5B4296F824121DB207A896F8AF
:10108000C2310091414600F003FCA5F500434C221B
:101090009BB202FB03F31B0C03EB4303F118F25C5E
:1010A0009DF81C0082FA50F2F2549DF81D304A78E7
:1010B00082FA53F24A708B789DF81E2083FA52F31D
:1010C000059C8B7032463346197882F8DE105978C9
:1010D00082F8DF10997882F8E01003339C42A2F185
:1010E0000302F1D105948DE70BB0BDE8F08F2E4DD2
:1010F0002B8803EB432203EB820202F5585219328C
:1011000092B202EB422402EB840404F558541934E1
:10111000A4B204EB442304EB830303F558531933BF
:101120009BB203EB432703EB870707F558571937A3
:1011300003EB1323BFB2DBB207EB472E03EB8303B2
:1011400007EB8E0E04EB142403EB830302EB122C4B
:101150000EF5585EE2B29C115FFA8CFC0EF1190E8E
:10116000743C1FFA8EFE02EB4202E4B20CEB4C0C14
:1011700007EB172700944FEAEC1C93110EEB1E248B
:10118000C7F342170CF101020137C4F3C01408334E
:1011900002940197D2B2DBB2A5F800E0FFF782FE1D
:1011A000C3E600BFC83F00002087FF1F1493FF1F46
:1011B000D83F00002DE9F04F604B614900278BB00C
:1011C00083F82B7251F827305D4ADBB20137FF2BD1
:1011D000BFB2F7D1136807974FEA1368C3F3072B21
:1011E000C3F307494FF0FF33924606930024C646E7
:1011F0005AF8045F5348C5F30727C5F30746F9B209
:101200004FEA241C0491F1B205915FFA8CF103912D
:101210000799ECB20F29C5F3076509AA4FEA141321
:101220005FFA85F80CD806998C4507DC0F2905D0A4
:101230000131C9B28B42039138BF0B4659B20691B6
:1012400008A9009103998DF824B08DF825908DF8A8
:1012500026E08DF820708DF821608DF8225000F086
:1012600083FAFF2CDDF810B0DDF81490C646BFD12C
:101270003549002751F82730334ADBB20137FF2BBD
:10128000BFB2F7D113680797C3F30749C3F3072B1E
:101290004FEA13684FF0FF33CE4606930024914681
:1012A00059F8045F254BC5F30727C5F30746F9B284
:1012B0004FEA241C0491F1B205915FFA8CF103917D
:1012C0000799ECB20F29C5F3076503F5FA7009AA6F
:1012D0004FEA14135FFA85FA0CD806998C4507DC9F
:1012E0000F2905D00131C9B28B42039138BF0B469B
:1012F00059B2069108A9009103998DF824B08DF890
:1013000025E08DF826808DF820708DF821608DF80D
:10131000225000F029FAFF2CDDF810B0DDF814E0BF
:10132000D046BDD1094A012182F82B12034A00237D
:1013300082F829320BB0BDE8F08F00BF6890FF1F24
:10134000A84100002C92FF1FD44100004C8CFF1FCD
:1013500070B540F6B83182B0694800F065FD4FF4D1
:101360006141674800F05CFD0121654800F032FDF5
:1013700050B11021634802F089F861480A2100F059
:1013800017FD5F4800F04AFD012200215C4800F093
:10139000F7FD40F2DC515C4802F0D4FA08215B48CA
:1013A00002F074F8584802F075FA4FF47A7001F0C0
:1013B00055F85748036813F001047CD0554C564942
:1013C0005648574DFF260023962200F0E9FAB02236
:1013D000F023204601A926708DF805208DF80630EF
:1013E0008DF8046000F01CFB40F6B831052000F0D9
:1013F000D3FC0A214B4802F049F8434802F04AFA6C
:101400004FF4975302202B8000F0FAFE2B88002126
:10141000034420462B8000F015FC2178204600F084
:1014200037FB2046142100F095FB002501AA9621E8
:1014300039488DF804608DF805508DF8065000F09D
:1014400083F920464FF4FA7100F084FB01AA96213B
:1014500031488DF806608DF804508DF8055000F085
:1014600073F920464FF4FA7100F074FB802301AA4F
:10147000962129488DF805308DF804508DF80650D6
:1014800000F062F920464FF4FA7100F063FB294640
:10149000204600F0D7FB20464FF4FA7100F05AFBCB
:1014A000FFF788FE0E21204801F0F0FF164802F0F9
:1014B000F1F902B070BD00F051FF00283FF47EAF9B
:1014C0001A49164B08685C60FF2201255C619C602C
:1014D0009D741A735A739A73DA731A745A7460B1DA
:1014E000134A116801B18B6013600022114908484A
:1014F0009A61196000F038FF60E70B60F0E700BF09
:10150000C492FF1F6C4100002887FF1F804100002C
:101510002C8CFF1F9C92FF1FA08EFF1F308CFF1F83
:101520002087FF1F8C41000098410000AC92FF1FF4
:10153000BC92FF1FAC3F00002DE9F0418AB002F0E1
:10154000F3FC5E4A5E4D1388296818441080C80772
:1015500050D55C4E5C4C3368039394E80600039BC3
:101560005B1A9A4255D9594F594D3B68DFF8808133
:1015700095F8C32188F80020D90755D5554C336814
:10158000069394E80300069B1B1A99425BD9504BC3
:10159000514A03F5E1751C78587899781470033333
:1015A000AB425070917002F10302F4D14B4D2B68A5
:1015B000DB0755D533684A4C0993099A4948238873
:1015C0006188A0FB0202C3EB92139BB299420AD836
:1015D00033680893089B434A3D48A2FB03239B09B9
:1015E0002380FFF74BFB4048017800F051FA0AB026
:1015F000BDE8F081284600F0B1FE324E324C0028A2
:1016000036D13368039394E80600039B5B1A934238
:10161000A9D3336835490293029B2360A1F13000BE
:10162000182200F095F99EE7384600F097FE48BB77
:10163000284C3368069394E80600069B5B1A934295
:10164000A5D398F8002031680591059995F82932BD
:1016500084E80600002B9AD11D48FFF75DFC96E751
:10166000284600F07BFEC8B91D4C33680993A4E7F7
:1016700033680193019B236032232846636000F0A6
:1016800073FEBEE733680493124C049A98F8003056
:1016900022603846636000F067FECAE7336807934C
:1016A000079B104A0E4CA2FB03239B0905222846E8
:1016B0002380628000F058FED7E700BF2087FF1F1D
:1016C000948EFF1F1493FF1F888EFF1F6490FF1FCF
:1016D0006890FF1F808EFF1FA08EFF1F988EFF1F38
:1016E000908EFF1FD34D62109C92FF1F5C92FF1FD4
:1016F0009C8EFF1F30B4124A124BFF250A24012191
:10170000002082F8C25183F8C25182F8C34183F8A5
:10171000C34182F8241282F8251282F8271283F836
:10172000241283F8251283F8271282F8260282F801
:101730002A0283F8260283F82A0230BC704700BFD1
:101740006890FF1F4C8CFF1F00290BDD01EB41014E
:101750000144137803705378437093788370033097
:101760008842F6D1704700BF2DE9F04F8B42099EA9
:1017700052D396F800E01578777896F8028054787E
:1017800092F802C0C1EB030BC5EB0E0EC4EB070AC7
:10179000CCEB08061FFA8BF24FEACE1E4FEACA1AAC
:1017A000F601B2B30FFA82FB9EFBFBFE9AFBFBFA3B
:1017B0004FEA4E0E4FEA4A0A96FBFBFB99424FEA6C
:1017C0004B0B1FFA8EFE1FFA8AFA1FFA8BFB4FEAA9
:1017D00005254FEA04244FEA0C2218D801EB4107F3
:1017E0000131C61989B24FEA25294FEA24284FEA68
:1017F000222C754454445A448B4200F80790ADB2F1
:1018000086F80180A4B286F802C092B2E6D2BDE8A2
:10181000F08F4FF0010BC7E78946357892F800E06A
:101820007478577896F802C092F8028015701946BD
:1018300086F800E04B465470777082F802C086F854
:1018400002809FE709B330B44D1EADB2D2430135DB
:10185000D2B205EB450505440132441C14F8013CA5
:1018600002FB03F31B1204F8013C4178837802FB6E
:1018700001F102FB03F309121B1241708370033064
:10188000854204F10304E9D130BC7047FFF7DABFA9
:101890002DE9F043141104EB440512F00F020D443E
:1018A0009DF81C6000D0E6B92C786978AA78FF2BE7
:1018B00012D0002B43D00133DBB21CB103FB044434
:1018C000C4F3072419B103FB0111C1F307211AB1B5
:1018D00003FB0222C2F30722047041708270BDE84C
:1018E000F0830F2C2E7895F80190AF7800D0E91C8A
:1018F000120182F0FF056C1C91F800C091F801E024
:1019000091F8028004FB06F6511C04FB09F504FB68
:1019100007F4C4F30724C6F3072701FB08F201FB11
:101920000CF6C5F3072501FB0EFE04EB222207EBA4
:10193000262605EB2E21F4B2C9B2D2B2B7E71A4679
:1019400019461C46047041708270BDE8F08300BFE8
:10195000F0B50139441E00252F3001E084421ED02D
:1019600014F8013F11F8016FB342F7D003F10107FA
:1019700004D2FBB2237001350E78EDB25F1E9E4299
:10198000FFB205F1010E08D227700E78BE4238BFB3
:10199000023B5FFA8EF538BF23709542DED3F0BD6F
:1019A000F8B51E1E03680446CCBF02EB42050025B5
:1019B0000F469B68D8BF164698477A19236862601D
:1019C0005B690A4A6661934201D12046F8BD204610
:1019D00098470028F9D0064A064B516893FBF0F06F
:1019E000884238BF084650602046F8BD71040000A8
:1019F0009C92FF1F40420F00084B10B51C685CB161
:101A000063680021184623B1626902EB420202F0CA
:101A10003DFAA468002CF3D110BD00BFAC92FF1FAB
:101A2000074B1B6853B110B408784A788C789C73C4
:101A300018735A739B68002BF6D110BC704700BF17
:101A4000AC92FF1F70B40F4C2268531C8A4283B0C3
:101A5000236013DB0C4D0D4A2968019101992D6813
:101A600000951668009D15604FF47A720025891B59
:101A700002FB03F32560B3FBF1F3438003B070BCBA
:101A8000704700BFB092FF1F1493FF1FB892FF1F53
:101A90002DE9F04F43682D4C83B006468946002B54
:101AA0004BD100F0B9FCF36820601BB14846B16827
:101AB00098478146264B1C680025002C36D0738839
:101AC000A77C61686269632B236898BFA574D3F80B
:101AD00004808DF804508DF805508DF80650B9F14A
:101AE000000F1CD004F10B030DF1040E04F10E0CD9
:101AF00013F801BFBBF1000F0DD093F803A00AF15A
:101B000001000BFB0000BAF1000F04D009FB00F04C
:101B1000000C8EF8000063450EF1010EE8D120465E
:101B200001ABC047A774A468002CC8D13046192166
:101B3000FFF788FF03B0BDE8F08F00F06DFC22686E
:101B40007368801A9842AAD3ABE700BFB492FF1F14
:101B5000AC92FF1FF0B50A4D83B02B680093009F35
:101B600004460E4621782046FFF792FF01F002FF5F
:101B70002B680193019BDB1BB342F3D303B0F0BD91
:101B80001493FF1F2DE9F04F43682C4C83B0064699
:101B90008A469146002B49D100F03EFCF368206054
:101BA0001BB14846B16898478146254B1C68002503
:101BB000002C34D07388A77C6269632B236898BF9C
:101BC000A574D3F800808DF804508DF805508DF879
:101BD0000650B9F1000F1AD004F10B0301A804F16B
:101BE0000E0E13F801BFBBF1000F0CD093F803C029
:101BF0000CF101010BFB0111BCF1000F03D009FB3B
:101C000001F1090C0170734500F10100E9D1204692
:101C100001AB5146C047A774A468002CCAD1304616
:101C20001921FFF70FFF03B0BDE8F08F00F0F4FBC0
:101C300022687368801A9842ACD3ADE7B492FF1F54
:101C4000AC92FF1F10B5044682B051B100231A4672
:101C500001A98DF804308DF805308DF80630FFF7B6
:101C600091FF2046FFF7C8FE02B010BD002070476C
:101C7000044B0022FF204FF0FF31187099605A800A
:101C8000DA6070479C92FF1FF0B561B301F1FF3E2F
:101C90001FFA8EFE0EEB4E0E00220EF1060E86444B
:101CA000C31C1546144613F8037C13F8020C13F8F2
:101CB000016C033373453C4405443244F3D104EBD7
:101CC000840402EB8202C5EBC500C4F31713C2EB18
:101CD0000212C5EBC004120A03EB142401EB8101CC
:101CE00010190844F0BD0C460A46F7E72DE9F04309
:101CF000254B1C6885B0074688469CB1DFF8949058
:101D00007D2507E0606981B23046FFF7BDFFA4681A
:101D1000054444B194E848001B694B45F2D0204685
:101D20009847F0E77D2505FB07F52D0A174B45453C
:101D30001B7810D223B3164A012152F833208DF8B4
:101D40000C109DF80C101378384623EA0103137029
:101D500005B0BDE8F08308FB07F7B7FBF5F0C7B2A5
:101D600073B10B4A012152F833208DF80C109DF805
:101D70000C10137838460B43137005B0BDE8F083A0
:101D8000384605B0BDE8F083AC92FF1FC092FF1F3C
:101D90008C4200006D040000034B044ADA6001FB32
:101DA00000F19960704700BF9C92FF1FED1C00007E
:101DB000074882B003680193019A114401E09942F7
:101DC00004D303680093009B9A42F8D902B070478D
:101DD0001493FF1F10B4104A85B0A1B91368009383
:101DE0004168009B591A31290DD813680293029C4F
:101DF00004F13203591A01E0994204D313680193A4
:101E0000019B9C42F8D913680393039B4360012014
:101E100005B010BC704700BF1493FF1F704700BF90
:101E20004FF47A7000F01ABB00234364436071B131
:101E3000074882B003680193019A114401E0994276
:101E400004D303680093009B9A42F8D902B070470C
:101E50001493FF1F30B5134C85B023680393039B85
:101E600043600D461048062101F010FB00230A22B2
:101E700029460E4801F01EFD06210D4801F006FB23
:101E80000A4801F007FD23680293029A02F1320129
:101E900001E0994204D323680193019B9A42F8D947
:101EA00005B030BD1493FF1F084200002887FF1FB4
:101EB0001042000038B5037E0BB9632038BD0D46D3
:101EC000044601F0B9FA10F0FF0F01D1652038BDCA
:101ED00001F0B2FA10F0FF0FF8D001F071FAC0B2C1
:101EE000A0F158031E2BF3D801A252F823F000BF33
:101EF000791F0000D11E0000D11E0000D11E00007D
:101F0000D11E0000D11E0000D11E0000D11E000015
:101F1000D11E0000D11E0000D11E00006D1F000068
:101F2000D11E0000D11E0000D11E0000D11E0000F5
:101F3000BB1E0000D11E0000D11E0000D11E0000FB
:101F4000D11E0000D11E0000D11E0000D11E0000D5
:101F5000D11E0000BB1E0000D11E0000D11E0000DB
:101F6000D11E0000D11E0000BD1E000020462946E3
:101F7000FFF770FF632038BD00232376632038BD50
:101F800070B5054682B01646C9B101230D4C0376E3
:101F900000212846FFF78EFF632810D023680193A5
:101FA000019A511C23680093009B9A42F0D89942F1
:101FB000F8D200212846FFF77DFF6328EED12E7668
:101FC00002B070BD1493FF1F034B00229A60DA60C9
:101FD0001A615A61704700BFC492FF1F374A3849DF
:101FE00013681B06FCD40B6813F08003F8D172B69B
:101FF00034490A78002A5FD0334A3448F0B4344C6C
:10200000176806682568D4680C303E4414320068AE
:102010001268304F35442C4420440244C2F34E022F
:102020002D4E2E482E4D2F4C42F400423A60376818
:1020300006682D682C4A24680C303E4400681268FB
:102040002A4F35442C4420440244C2F34E02284E09
:102050002848294D294C42F400423A603768066806
:102060002D68274A24680C303E4400681268254FCA
:1020700035442C4420440244C2F34E02224E2348ED
:10208000234D244C42F400423A60376806682D68BC
:10209000214A24680C303E440068126835442C44C0
:1020A00020440244C2F34E021C4842F40042026043
:1020B0000B7062B6F0BC704762B6704724B0034044
:1020C00024B00B400D93FF1F38B003403CB00340D9
:1020D00040B003402CB0034058B003405CB0034014
:1020E00060B0034064B003406CB0034030B00340C4
:1020F00038B00B403CB00B4040B00B4044B00B40FC
:102100004CB00B402CB00B4058B00B405CB00B40B7
:1021100060B00B4064B00B406CB00B4030B00B4073
:1021200030B42948294A2A4B2A4D6024E121047001
:1021300011701B78284C082B30D00A2B27482849CF
:1021400037D00C2B0CBF35223D2212232A6023608E
:1021500002600B60234B24491B78244ABBB1012346
:102160000B601360224B23491B78234A012B26D98D
:10217000042B0FD9082B1ED9102B94BF862387233D
:102180000B6013601D4B01221A7030BC70470B604E
:102190001360E7E784230B601360F3E700F58E20FC
:1021A0000F490830012213232A60236002600B606C
:1021B000D0E73922F7E785230B601360E2E780233D
:1021C0000B601360DEE700BF00400740014007409E
:1021D0002287FF1F08B003400CB0034008B00B403B
:1021E0000CB00B401093FF1F20B0034020B00B40F9
:1021F0002387FF1F24B0034024B00B400D93FF1F23
:1022000028282FD8334B2DE9F0411E5CFF2E2BD010
:10221000314B1B78002B2AD132062CD472B62F4DAD
:102220002F4C2F46012326602B7062B672B62368AE
:102230001B060CD43B781BB9F4E72B78002BF1D0AC
:1022400062B601F097FB72B623681806F5D5254BE8
:102250001B6800222A7062B6234A107843FA00F005
:10226000BDE8F081002070470020BDE8F081FFF755
:10227000B5FE3206D2D572B61C4DDFF87C801C4C00
:1022800006F04007FFB206F03F06D8F80030DFB195
:1022900023F01003C8F8003001232660134A2B7086
:1022A00062B672B6236819060CD413781BB9ECE732
:1022B0002B78002BE9D062B601F05CFB72B6236884
:1022C0001B06F5D50B4BC3E743F01003C8F80030ED
:1022D000E2E700BF604200000D93FF1F0F93FF1F56
:1022E00000B0034010B003400C93FF1F0E93FF1F7C
:1022F00000B00B4010B00B400CB00B4008B5104CB8
:1023000008E0236859050DD423681A050FD4236803
:10231000DB0411D423685803F3D500F037FA23689F
:102320005905F1D501F0AAFB23681A05EFD501F094
:102330003BFC2368DB04EDD501F0CCFCEAE700BFF1
:102340003480044008B5FFF7D9FF00BF014B1022CD
:102350001A80704700200540704700BF0078B0FA2F
:1023600080F04009704700BF01230370704700BF31
:102370001C4A02EBC00301295B6811D004291BD061
:1023800052F83000002280F8802229B1022920D0A2
:10239000032922D01A6070474FF480721A60704788
:1023A00052F830004FF4A27280F880121A601A6856
:1023B00022F020021A60704752F830104FF4A272D7
:1023C000012081F880021A601A6842F020021A6027
:1023D000704740F203121A6070474FF481721A601E
:1023E000704700BF8C42000030B4054B054D064CD1
:1023F000002210211A602A602060196030BC7047EA
:1024000014D0034004D0034000D00340212801D859
:10241000FFF7AEBF704700BF72B60C490C4B0D4AB8
:102420001B680868126862B6520102D5322B88BF59
:1024300001300949C3F5BB334FF47A72FF33A1FB76
:10244000031302FB00F000EB931070471493FF1F7F
:1024500018E000E004ED00E0ABAAAAAA2DE9F843D9
:10246000054672B6204F214B214A1B683C68126812
:1024700062B6520102D5322B88BF013495B3C3F541
:10248000BB331C4EDFF86490DFF86480FF334FF4F9
:102490007A72A6FB031302FB04F404EB931472B6E6
:1024A000D9F800103A68D8F800E062B6C1F5BB333D
:1024B000FF33A6FB03031EF0806FC4EB93134FF4AE
:1024C0007A7002D0322988BF013200FB0233B3F5A3
:1024D0007A7F04D3013D05D004F57A74DFE701F07B
:1024E00049FADCE7BDE8F8831493FF1F18E000E029
:1024F00004ED00E0ABAAAAAAF8B52D4B2D49DFF8F0
:10250000D0E0DFF8D0C02C4E2C4D2D4C2D4A2E4F54
:102510004FF4000018604FF0807018604FF00070AA
:1025200018604FF0806018604FF000601860002065
:10253000086028234BF6FF71CCF80010CEF800306D
:10254000336013602B6023603B60B36293620922A7
:1025500045F8242CC4F8D80F05F57F65C7F8D41FBB
:1025600007F5FF2707F5FA67C6F8F83F2B6006F571
:10257000FF26C4F8D42F05F5FD2504F5FF243860A7
:1025800006F2F4761148316005F5FF6504F5FD6447
:102590002B6023600260FFF7C3FD1920FFF75EFF89
:1025A00000F05CFE40F21310BDE8F840FFF756BFA4
:1025B00008E100E0048003401480034024800340CD
:1025C0002C8003401C8003403480034000800B407B
:1025D0000C80034008800340431E032B14D872B6BE
:1025E0000A4951F8230068B170B4094C058834F8E1
:1025F0001320466841F82360521B24F8132062B66A
:1026000070BC704762B67047002070477093FF1F20
:10261000C095FF1F013803280BD872B6074B53F83B
:10262000203043B100205B680130002BFBD162B643
:102630007047002070471846F9E700BFC493FF1F9A
:1026400030B472B62B4A13781D0706D52A4B196A87
:10265000002936D0996A002941D053781C0706D545
:10266000254B196C00293ED0996C002939D09378FC
:10267000190705D5204B196E002936D0996E89B1FE
:10268000D3781B0707D51C4BD3F880207AB3D3F837
:10269000882011213AB162B6184B00221A7030BC62
:1026A00000F068BE0D21154C154D227843F83150CD
:1026B00003EBC1030830013A5860227062B630BCA7
:1026C000704704220D4C0F4D217843F8325003EB34
:1026D000C20308304A1E5860227062B6EFE7052137
:1026E000E1E70921DFE70822ECE70C22EAE7102204
:1026F000E8E700BFC84300000080FF1FED93FF1F05
:10270000C800400088004000431E032B1DD81B4A10
:10271000400140F0100030B4104472B6184CE25C36
:10272000032A1BD8DFE802F00212151703220D88D6
:10273000E25410F0080F14BFC823882343EA05436E
:1027400008310360416062B630BC70470830022235
:10275000EDE70522EBE708300422E8E7094A52F8E2
:10276000230038B1084A52F82300416042F8231090
:1027700062B6E9E742F82310034AF7E70080FF1F3B
:10278000FC93FF1FC493FF1FD493FF1F2DE9F04F4D
:10279000DFF80CB3DFF80CA387B044E0AB4F4FEA8F
:1027A000930807EBC809013ED9F8042003F0080399
:1027B000F6B2A2F1080003F0FF04002B40F0028102
:1027C00057F838301B0C99B222F8081C002B00F087
:1027D000F0809F4B22F8064C42F8044C53F8262018
:1027E000002A00F0C5829B4D55F8263058609A4C5F
:1027F00045F8260034F81630194424F8161000F075
:1028000099FD002800F0AD82944A954B19F0080F0D
:1028100000F1080018BF1346C9F8040047F8383023
:1028200008238BF800309BF80040E4B261071AD50A
:102830008C4B1B78A3B18C490A7802F0FF0322B1BC
:10284000013BDBB20B7003B900BE88490A7802F085
:10285000FF032AB1013BDBB20B70002B00F0578263
:1028600004238BF8003004F0080303F0FF02002B70
:1028700000F0CC809AF80030DBB21E098ED19C08A3
:10288000DFF8C89159F8342009EBC401C2F3830280
:10289000013A49680C2A00F28880DFE802F07C7C6B
:1028A0008686868686864786868607000868704DF7
:1028B0004A68704F704E286081B240F28160674B69
:1028C0006A604FF0010E0022814249F834303A60CC
:1028D000C9F81020C9F8182086F800E05B4C00F217
:1028E000E380B1F5D06F80F04683B1F5817F00F0D1
:1028F000FC8200F28D82802900F07783822940F0EB
:10290000FA82A98801F07F01042900F2F4825B4871
:102910005B4C89000844227062700278930740F192
:10292000588484F800E04FF0020E42E3514F3A68B9
:1029300032B3544B504E5449188834780D7840289F
:10294000864645F0020828BF4FF0400E002C84F068
:1029500001043470CEEB00000CBF8824C82409EBBE
:10296000C80680B285F0010544EA0E447260188002
:1029700049F8384072440D70002800F045813A60F3
:102980003B4B1A88B2F5A06F0FD100219A7859708D
:102990003E4B1A7009E0364A108842F221029042FA
:1029A00000F037812D4A49F83420394A0123137049
:1029B00036E72A4A2A4B19F0080F18BF134647F882
:1029C00038302DE700F0D6FC324A334952F8263031
:1029D000002B00F0D18158688C5D42F8260003F18D
:1029E0000802C9F80420032C05D8DFE804F02C0203
:1029F000292602228A551A8819F0080F0CBF88234D
:102A0000C82343EA024347F8383009E7E00700F1FA
:102A10008181210600F1F281A20706D51F4A2049D3
:102A200013780220DBB213700870E30602D51C4B4A
:102A300010221A7007B0BDE8F08F04228A55DAE739
:102A400005228A55D7E703228A55D4E70080FF1F65
:102A50007093FF1F1C93FF1FC095FF1FC80040000D
:102A600088004000F893FF1F8193FF1F0094FF1F11
:102A7000E493FF1F1893FF1F8093FF1FC0200740A0
:102A8000F093FF1F2C93FF1FEC93FF1F982007402C
:102A900094200740C493FF1FFC93FF1F882007402A
:102AA000802007409020074042F22100814200F040
:102AB0002A8100F2D880B1F5086F00F07682B1F576
:102AC000106F40F01882226AB349A8780870120685
:102AD00000F13A83D9F82820B049130600F10C839D
:102AE000D9F83020AD49150600F10183D9F8382016
:102AF000AA49140600F1F682D9F84020A749100629
:102B000000F14A83D9F84820A449120600F13F8316
:102B1000D9F85020A149130600F13483D9F8582080
:102B20009E49150600F12983D9F860209B491406B7
:102B300000F11E83D9F868209849100600F113832C
:102B4000D9F870209549120600F10883D9F8782049
:102B50009249130600F1FD82D9F880208F491506AD
:102B600000F13183D9F888208C49140600F12583BF
:102B7000D9F890208949100600F11983D9F89820D6
:102B80008649120600F10D838548864A86490190E0
:102B90008648874D874C049700230596029580460A
:102BA0000F4616461D460394306828B1446800F06D
:102BB000E1FB2046002CF9D100233360029B3868EA
:102BC0001A46002342F8253028B1446800F0D2FBB1
:102BD0002046002CF9D100223A60019A98F8003082
:102BE0001146002241F8042B039A0191023B4FF059
:102BF000000122F81510032B00F22B81DFE813F0FF
:102C00007001250170012501BEF1400F18BF00229F
:102C1000B5E6694A0D784878157050708D78C87897
:102C20009570D07010680D79157186284D79897965
:102C30005571917100F09B816049614E0A7830783E
:102C400082F00105002842F002020D700CBF8821BD
:102C5000C82149F8321009EBC20280F001000021BE
:102C6000307051609EE642F22120814240F0CB81DB
:102C7000544B554C5549A8781D682560CDF804E0A3
:102C80000870002002908046844604464B490D7827
:102C900045F0020E09EBCE030393019B002B039B2F
:102CA0005C600CBF8824C82444EA080385F0010452
:102CB00049F83E3032700C70DFF8E0E0404BDFF84E
:102CC000FC80002840F01E81BCF1400F1BD144F075
:102CD000020C09EBCC03029CDFF8C0E05C60002A28
:102CE00040F02681020442F088029DF804304EF83C
:102CF0003C20044433700D702346402803D100204B
:102D0000334A3B601080334A012313704DE600F0D4
:102D10009DFCA5E5214B2F4828491A614FF0020E72
:102D200080F800E02C4F0A702C49196099602C4EF5
:102D30002C4D2D4C9A610D213970FF213170DFF837
:102D4000B8E029702270294D294A8EF800109F277B
:102D5000012406F8047C5D600470DA6007B0BDE809
:102D6000F08F244A47F8380013780133137057E581
:102D700043F826000E4D3AE58B5D032B00F2F08000
:102D800001A252F823F000BF2128000021280000F2
:102D9000452E00003F2E0000F893FF1F0080FF1F0C
:102DA000D493FF1F7093FF1FC493FF1FFC93FF1F5B
:102DB0001C93FF1FC095FF1FC895FF1FEC93FF1FBB
:102DC0008093FF1F1493FF1FD095FF1F1094FF1FC8
:102DD0002C93FF1F94200740C0200740880040002C
:102DE0008820074080200740982007403093FF1F2D
:102DF0008493FF1FED93FF1F8C200740C149C24BF6
:102E000080220D2008701A70A2077FF50EAE05E62D
:102E100040F20232914240F0EE80A98801F07F0139
:102E2000042968D86A88002A65D1B648CDF804E03C
:102E300089000844017841F00201017021E7012373
:102E40008B55EDE400238B55EAE44FF0010388F83D
:102E500000300135042D06F1040607F1040708F1DE
:102E600001087FF4A1AEA94CA94B2278A94D049F7B
:102E7000059E002129701A70130700F10581627800
:102E8000A549DFF8A0820A7010074FF00001C9F8C9
:102E90003010C9F8381000F1E080A049A2780A701B
:102EA0000021C9F85010C9F858101107DFF87482D2
:102EB00000F10181E2789A499A4C0A7000211207C8
:102EC000C9F87010C9F8781000F1B0803378019318
:102ED000002183F00102C9F89010C9F89810D0E6DB
:102EE0004FF0000388F80030B3E7A98801F07F01B4
:102EF000042940F28D80834A0F2313708A4A0123EC
:102F0000137052E540287FF6E2AE44F002040EEB67
:102F1000C401029E4E60BAB19DF80410834A197034
:102F20003346403888F8005040334EF83420E7E606
:102F30009DF8043033700204029B0D7042F0C80209
:102F400003444EF83C20D8E69DF804101970029B0B
:102F5000774A88F80050403840334EF83420CFE6A6
:102F600019F0080F0CBF022303238B5558E4714A54
:102F70000F21117060E6704A5468002CBBD068883D
:102F8000B5F804E003E00C325468002CB3D0138889
:102F90008342F8D153887345F5D1000A03280CBF4A
:102FA00094F800E0B2F808E003E0644A644C127858
:102FB0002270E888704580F03F8162490D78402892
:102FC000844645F0020E28BF4FF0400C04EB0C0382
:102FD00009EBCE02029301235460CCEB00004FEAD0
:102FE0000C4800220193C8245EE6554C4FF0020EB7
:102FF00022706270DDE7B1F5A06F7FF47CAF012332
:10300000002201933DE642F221329142F7D072E76D
:103010006A88002A7FF46FAF3A48CDF804E089004F
:103020000844017821F0020101702AE600F082F9DB
:10303000002800F0EF8008303D4AC4F88400C4F84E
:10304000802000F077F9002800F0DE800830374A51
:10305000C9F88C00C9F8882038E700F06BF900281F
:1030600000F0C0800830324AC8F84400C8F8402058
:1030700000F060F9002800F0AF8008302B4AC9F852
:103080004C00C9F8482008E700F054F9002800F087
:10309000CD800830264AC9F82400C9F8202000F065
:1030A00049F9002800F0BC800830204AC9F82C00FB
:1030B000C9F82820E3E600F03DF9002800F09E80E2
:1030C00008301B4AC8F86400C8F8602000F032F9E4
:1030D000002800F08D800830144AC9F86C00C9F847
:1030E0006820E7E6C86B083800F044F904E5486B4F
:1030F000083800F03FF9F9E4C86A083800F03AF9F6
:10310000EEE400BFC020074080200740C843000015
:10311000C4200740ED93FF1FC8200740CC20074084
:10312000D02007400080FF1F94200740C8004000C7
:10313000880040008193FF1FCC430000F893FF1FDD
:10314000F093FF1FEC93FF1F606A083800F012F93C
:10315000C0E4C86F083800F00DF9FDE4486F083886
:1031600000F008F9F2E4C86E083800F003F9E7E46B
:10317000486E083800F0FEF8DCE4C86D083800F04E
:10318000F9F8D1E4486D083800F0F4F8C6E4C86CEA
:10319000083800F0EFF8BBE4486C083800F0EAF8B3
:1031A000B0E4D1F89C00083800F0E4F8ECE4D1F881
:1031B0009400083800F0DEF8E0E4D1F88C0008381C
:1031C00000F0D8F8D4E4D1F88400083800F0D2F840
:1031D000C8E44FF0020EECE62A78C9F84800013244
:1031E0002A705AE62A78C8F8400001322A703FE770
:1031F0002A78C9F8680001322A705BE62A78C8F894
:10320000600001322A7061E72A78C9F8880001322B
:103210002A705BE62A78C4F8800001322A7010E731
:103220002A78C9F8280001322A7028E62A78C9F8D5
:10323000200001322A7032E7BEF1400FF44628BF69
:103240004FF0400C04EB0C0302930123CCEB0E0077
:103250004FEA0C480022019318E500BFF8B500F0D2
:10326000A5FD294B29482A4C2A4F2B4DDFF8BCC01D
:10327000DFF8BCE0294E00221A605A609A60DA60DA
:103280001A615A619A61DA611A625A629A62DA6262
:103290001A635A639A63DA631A645A649A64DA6442
:1032A0001A655A659A65DA651A665A669A66DA6622
:1032B0001A675A679A67DA67C3F880200168C3F80B
:1032C000842041F480210160C3F307212170C3F3FE
:1032D0000740134938701B0E2B70FF238CF8003009
:1032E000104D8EF8003010480B700123337084F8B5
:1032F000642070264FF40074102207F82C3C2E70C6
:10330000046081F8F820F8BD0080FF1F348004407D
:103310009C200740B0200740B4200740942007407D
:103320001020074049E400E008E100E08020074069
:103330008820074072B60D480268B2FA82F30B2B60
:1033400010DC4FF00041D94022EA0102026062B66F
:10335000074803EBC303DB00C2180021C15010462D
:103360005160704762B60020704700BF2487FF1F7E
:10337000BC83FF1F0D4B0E4AC31AA2FB03231B097C
:103380000B2B0CD80B4A127852B972B60A484FF080
:103390000041026821FA03F31A43026062B67047E3
:1033A000064A1278002AF0D0FFF74AB9BC83FF1F03
:1033B000398EE338ED93FF1F2487FF1FF893FF1F1B
:1033C00038B50F4D286878B143880288C118013399
:1033D00093420C7A02D24380204638BDFFF7CAFFE1
:1033E000002320462B6038BD064B1B782BB10320F1
:1033F000FFF7F2F828600028E6D14FF0FF3038BD23
:103400000C94FF1FF893FF1F10B5094C206818B1EA
:1034100043881844007A10BD064B1B782BB103205B
:10342000FFF7DAF820600028F2D14FF0FF3010BD2E
:103430000C94FF1FF893FF1F044B054A1B689088EC
:103440001BB11A885B88D31A184470470C94FF1F6D
:10345000C095FF1F0B4B1B789BB110B50A4C206821
:1034600048B1FFF787FF002303202360FFF7B4F87C
:1034700030B1FFF77FFF0320FFF7AEF80028F8D147
:1034800010BD7047F893FF1F0C94FF1F2DE9F04FFC
:10349000DFF8F89083B0012289F80020019169B328
:1034A000DFF8EC80364F019E8346D8F80000B0B3B9
:1034B000344D4488C4F14001B14228BF314604EB89
:1034C000010E00221FFA8EFE2A70761AA0F802E082
:1034D00000F1080251B1013C224459441BF8014B50
:1034E00002F8014F8B45F9D1B0F802E0BEF13F0F71
:1034F0000BD8254A05211170002ED6D10198002342
:1035000089F8003003B0BDE8F08F40220280014608
:103510000420FFF7F9F80022C8F80020E9E73A781C
:103520002AB3184D4AF2F9244FF0010A07E0013C92
:1035300016D02A78A2B900F01DFA3A78BAB1042060
:10354000FFF768F80728F2D889F800A0FFF7F2FE25
:10355000C8F800000028ACD10C4B013C1870E8D131
:1035600001234FF0FF302B7003B0BDE8F08F002334
:103570004FF0FF3089F8003003B0BDE8F08F00BF96
:10358000F893FF1F0894FF1F0094FF1F0194FF1F73
:103590000494FF1F00B583B002AB012103F8010DB5
:1035A0001846FFF773FF03B05DF804FB38B50E4D06
:1035B0000E4C28680123237028B140880023237013
:1035C000C0F1400038BD0A4B1B7813B900202070B1
:1035D00038BD0420FFF71EF80728F7D8FFF7AAFE2A
:1035E00028600028E9D1F1E70494FF1F0194FF1F30
:1035F000F893FF1FF8B5114B1B788BB1104E114D8E
:10360000346801272F7064B10F4A63880027177050
:10361000214623800420FFF777F8376000232B70C2
:10362000F8BDFFF787FE084B28B1014604201C7047
:10363000FFF76AF8F2E71F70F0E700BFF893FF1F8B
:103640000494FF1F0194FF1F0094FF1F38B50E4B19
:103650001B7873B90D4C216861B103F0FF054B88ED
:103660000B800420FFF750F8256038BD084B01227D
:103670001A7038BDFFF75EFE0028F7D00146BDE89E
:1036800038400420FFF740B80194FF1F0494FF1F47
:103690000094FF1F10B4EFF3108272B6437F33B96A
:1036A000017F012907D003290FD00123437702B9F5
:1036B00062B610BC7047124C2168A1B11149436138
:1036C0000B68836108605861EFE70F4C216881B196
:1036D0000E4943610B688361086058610C4B4FF0E1
:1036E00080511960E1E7074B4161816120601860FA
:1036F000DBE7064B4161816120601860EEE700BFA7
:103700002494FF1F2094FF1F1494FF1F1894FF1F81
:1037100004ED00E010B4047F4160022CC26002D0CE
:1037200010BCFFF7B7BF836810BC184770B5EFF344
:10373000108272B60C4C206880B10C4E0025436993
:10374000236073B19D6102B962B64577836898477B
:10375000EFF3108272B620680028F0D102B962B689
:1037600070BD3360EFE700BF1494FF1F1894FF1F74
:10377000FFF7DCBF184A30B41468002C27D0036868
:1037800021688B420ED2CB1A00218460C160236075
:10379000E06010600223037530BC704711688B42F3
:1037A000144608D3A2685B1A0360002AF6D182602F
:1037B000C460A060EEE7D268C2608460E060C56863
:1037C000CB1A0222A8602360027530BC7047846067
:1037D000C4601060DEE700BF1C94FF1FF8B5224EE6
:1037E00034682CB32368002B3AD1204F1D4604E0E7
:1037F0003468ECB12368002B32D1A36803B1DD60DB
:1038000020693360036825751B68BB4221D1037FA3
:103810004560022BC46020D0FFF73CFF6368002B9B
:10382000E6D023602046FFF7A5FF3468002CE1D1E5
:10383000EFF3108372B60E4A00211068116003B9CD
:1038400062B628B18468FFF795FF20460028F9D1B9
:10385000F8BD224600219847E0E783689847DDE7F6
:10386000013B2360E4E700BF1C94FF1F15370000F5
:103870002C94FF1F024A136801331360FFF7AEBF99
:103880001493FF1F08B5FDF763FDFDF755FE00F02B
:1038900071F8FAE700B5064A036812885B6883B0DE
:1038A00001A9ADF804200222984703B05DF804FB9B
:1038B0009C430000F0B507468BB0002A33D0012AA4
:1038C00008BF0A2251B3212400E0F4B2B1FBF2F5A3
:1038D00002FB1511C8B2092900F1300198BFC8B226
:1038E0000AA988BF3730214488BFC0B201F8240C30
:1038F000661E2946002DE8D133B1013CE4B20AAB83
:1039000023442D2203F8242C3B6801AA11195B687B
:103910003846C4F1220298470BB0F0BD30228DF832
:1039200025202124E8E70368C9B21B6898470BB03B
:10393000F0BD00BF0029BABF49422D2300230A224F
:10394000FFF7B8BF81607047FFF784BDFFF75CBD2C
:10395000FFF736BDFFF770BDFFF74CBEFFF726BE81
:1039600008461146FFF792BD0846FFF713BE00BF99
:10397000704700BF38B5224C237803B138BD01230E
:103980002370FFF759FD70BB00F068F840BB00F0F2
:10399000FBF810BB00F08EF9E0B900232370EFF3C1
:1039A0000583002BEAD1EFF3108172B6154B18682E
:1039B000E0B1154C2278CAB945691D600123237016
:1039C000C5B1AA6101B962B60025457783689847F9
:1039D0002570D3E700F030FADFE700F02BFAD9E7E3
:1039E00000F026FAD3E7FFF7C3FFCDE70029C5D1E2
:1039F00062B638BD054B1D600029E5D1E3E700BF85
:103A00003094FF1F2494FF1F2894FF1F2094FF1F52
:103A1000F0B44D1E2E46002400E00134B0FBF2F35A
:103A200002FB1300092800F130078ABF3730F8B2D3
:103A3000C0B206F8010F1846002BEED10A195370D8
:103A40004CB1107815F8016F28700133E01A8342E9
:103A500002F80169F5DB0846F0BC7047054A064BE1
:103A600010781B78C0B2DBB2984238BF4030C01A21
:103A7000704700BF3894FF1F3994FF1FF0B4384BD4
:103A80001A7912F0300F2CD072B6997D01F0FF0236
:103A900000293DD062B6334F334938780D78334E24
:103AA0001C46C0B2EDB2431C402BE17928BF002375
:103AB000AB4202F1FF32C9B21CBFF154184612F0FA
:103AC000FF02F0D12A4B1B68C2B23A704BB1A84238
:103AD00036BFC5F14005401B40192728C4BF01224D
:103AE0001A701F49CA78D2B2150616D452060DD5DF
:103AF0001B4B1B795B0609D51E4B1F491B68002217
:103B00000A7003B11A70164B3C22DA70F0BC704791
:103B10004022D9795A7462B6E3E70B791C06E5D5E1
:103B2000164B174E1C783378E4B2DBB29C420ED0B1
:103B3000144D01E0A3420AD00133402B28BF0023DB
:103B40000879E85CC0B2C871087D0728F2D9DBB2F9
:103B5000034933700B79180644BF7C23CB70C5E74B
:103B600000A006403894FF1F3994FF1F7C94FF1F6C
:103B70003494FF1FC094FF1FBC94FF1FC494FF1F09
:103B8000BD94FF1F3C94FF1F054A064B10781B781D
:103B9000C0B2DBB2984238BF4030C01A704700BF95
:103BA0003895FF1FCD94FF1FF0B4384B1A7912F0EF
:103BB000300F2CD072B6997D01F0FF0200293DD064
:103BC00062B6334F334938780D78334E1C46C0B255
:103BD000EDB2431C402BE17928BF0023AB4202F138
:103BE000FF32C9B21CBFF154184612F0FF02F0D1E7
:103BF0002A4B1B68C2B23A704BB1A84236BFC5F11E
:103C00004005401B40192728C4BF01221A701F49D4
:103C1000CA78D2B2150616D452060DD51B4B1B79A5
:103C20005B0609D51E4B1F491B6800220A7003B1B1
:103C30001A70164B3C22DA70F0BC70474022D979DA
:103C40005A7462B6E3E70B791C06E5D5164B174E9E
:103C50001C783378E4B2DBB29C420ED0144D01E004
:103C6000A3420AD00133282B28BF00230879E85C3F
:103C7000C0B2C871087D0728F2D9DBB2034933709E
:103C80000B79180644BF7C23CB70C5E700B0064013
:103C90003895FF1FCD94FF1FF894FF1FC894FF1F96
:103CA0003C95FF1FCC94FF1F4095FF1F3995FF1FC8
:103CB000D094FF1F054A064B10781B78C0B2DBB2C8
:103CC000984238BF4030C01A704700BF4895FF1F68
:103CD0004995FF1F30B42B4B1A7994061FD52A48FB
:103CE000DA790378294901333F2B0978C8BF0023CB
:103CF0008B42D2B203D0264CD9B2E2540170254A8D
:103D0000116861B1244A1278D2B2934236BFC2F12F
:103D100040029B1A9B18272BC4BF01230B70194A22
:103D2000D378DBB2180611D45A060DD5154B1B7982
:103D30005B0609D5194B1A491B6800220A7003B1AA
:103D40001A70104B2C22DA7030BC704711790906BA
:103D5000EAD5144910480C780178C9B28C420DD0CC
:103D60004A1C272A84BF00210A460F4D054C98BFE4
:103D7000D1B2AA5CD2B2E2710170D5E76C21D170E8
:103D8000D2E700BF00C006404895FF1F4995FF1FBE
:103D90007495FF1F4495FF1FB595FF1FB895FF1F32
:103DA000B495FF1FBC95FF1F4C95FF1F70B584B0E5
:103DB00072B6194B194D1A48702241260F248021E2
:103DC0001A702E701A460470197013781B06FCD5F1
:103DD000144B186862B6144B144C984298BF00EB11
:103DE000800001A998BF40000A22FFF711FE01A937
:103DF0002046002311F8012B01333AB10A2B20F899
:103E0000022FF7D11623237004B070BD5B00DBB224
:103E1000237004B070BD00BF0000024007000240E4
:103E200006000240080002407F969800C487FF1FEA
:103E3000704700BF704700BF704700BF70B50F4E9E
:103E40000F4D761BB61018BF002405D0013455F86D
:103E5000043B9847A642F9D10A4E0B4D761B00F061
:103E6000DFFAB61018BF002406D0013455F8043B21
:103E70009847A642F9D170BD70BD00BF2C44000028
:103E80002C440000404400002C44000070B484071F
:103E900046D0541E002A41D0CDB2034602E0621E35
:103EA000E4B3144603F8015B9A07F8D1032C2ED92A
:103EB000CDB245EA05250F2C45EA054519D903F190
:103EC00010022646103E0F2E42F8105C42F80C5CA1
:103ED00042F8085C42F8045C02F11002F2D8A4F146
:103EE000100222F00F0204F00F041032032C1344CE
:103EF0000DD91E462246043A032A46F8045BFAD836
:103F0000221F22F003020432134404F003042CB1F4
:103F1000C9B21C4403F8011BA342FBD170BC70471B
:103F200014460346C2E700BF10B40C4B0C4C196892
:103F30000C4AD1F8A830D1F8AC0004FB03F402FB22
:103F40000040A3FB02230344013243F10003C1E913
:103F50002A2323F0004010BC704700BF088CFF1FCD
:103F60002DF451582D7F954C024B13B10248FDF7AB
:103F70007DBE7047000000007D3F000038B5074D52
:103F8000074C2C1BA41005D0013C55F8043D984764
:103F9000002CF9D1BDE8384000F052BA0000000012
:103FA000000000000000000000000000C905000043
:103FB0008D06000091040000CD0400006D04000097
:103FC00071040000510700000000F918FB301C4785
:103FD000825A6D6A4176897D31302C261F170E0476
:103FE0003D3D3D3D3D3D3D3D3D3D3D3D3D3D3D3D01
:103FF0003D3D3D3D3D3D00004C45442041727261D8
:10400000793A20202020202020202020202000007D
:1040100043555252454E54004E455854000000003E
:104020004272696768746E6573733A20202020209D
:10403000202020202020000064656C61795F746975
:104040006D653A2020202020202020202020000004
:104050007573655F70616C657474653A202020200B
:1040600020202020202000007573655F66756C6C31
:104070005F72616E67653A202020202020200000BA
:10408000746869735F6469723A20202020202020C0
:10409000202020202020000063757272656E745FFE
:1040A0006D6F64655F6E756D6265723A2020000009
:1040B0006D6F64655F696E697469616C697A656466
:1040C0003A202020202000003D3D3D4A5547474CE6
:1040D00045205641524941424C45533D3D3D00002B
:1040E000696E6465783A202020202020202020005E
:1040F0006E756D646F74733A20202020202020009C
:10410000626561743A202020202020202020200099
:10411000666164653A202020202020202020200095
:10412000646966663A20202020202020202020007C
:10413000696E6465785F72657365743A202020004B
:104140004A5547474C4520494E4954204245474926
:104150004E0000004A5547474C4520494E495420DF
:10416000434F4D504C45544500000000564D4450BF
:10417000565F317C315F564D4450560A00000000B6
:104180004445425547204F4E000000004C454473C3
:104190002041444445440000534554555020434F6A
:1041A0004D504C45544500FF000A5505191D6D1230
:1041B0003C3B8A2A5D5363346A6E42406D7B3141D9
:1041C000718B234274C075627CFFFF89A864B49B25
:1041D000FF1679AE00471B271F820B333FD50240E5
:1041E00046E801424CFC01456C7B0233FF2E09235B
:1041F000564D4450455F00003A323A003A00000004
:104200005F564D4450450000564D4450435F0000FA
:104210005F564D44504300004572726F723A204120
:104220007474656D707420746F20736574206120E0
:10423000726561642D6F6E6C79207661726961625E
:104240006C65206F722064617461207479706520E0
:104250006E6F7420737570706F727465640D0A00F0
:10426000050E08090D0C06070F0400130393050E35
:1042700008090D0C06070F04FFFFC585848687C457
:10428000FFFF001303931A9217FFFFFF4008FE433E
:1042900040A004404408FE4344A004400018FE43EC
:1042A00000C004403000FE43309004403400FE4320
:1042B000349004401C18FE431CC004401018FE43F8
:1042C00010C004400818FE4308C004400C18FE4308
:1042D0000CC004400C10FE430CB004401010FE4310
:1042E00010B004401810FE4318B004401C10FE43E8
:1042F0001CB004401410FE4314B004400418FE43E4
:1043000004C004400010FE4300B004400008FE4317
:1043100000A004400408FE4304A004400C08FE432F
:104320000CA004400808FE4308A004401418FE43F3
:1043300014C004401818FE4318C004400410FE4383
:1043400004B004400810FE4308B004401400FE43CB
:10435000149004404C08FE434CA004400420FE434B
:1043600004D004402410FE4324B004402010FE4337
:1043700020B004402810FE4328B004402C10FE4317
:104380002CB004400020FE4300D004404808FE4307
:1043900048A004401000FE43109004400D0AFFFFA7
:1043A00000000000000000006939000061390000D1
:1043B0005D390000593900005539000051390000BD
:1043C0004D390000493900000015191500010000A1
:1043D0003887FF1F12000000000200006487FF1FE3
:1043E0004300000000030000C087FF1F0000000022
:1043F000010309044C87FF1F0000000002030904A9
:10440000A887FF1F0000000003030904C487FF1FE3
:10441000000000000000000000000000000000009C
:10442000F8B500BFF8BC08BC9E467047693F000065
:1044300035040000F5160000711C0000C91F0000C3
:04444000F8B500BF0C
:1044440039050A04FFFFFFFFA84300000000000035
:10445400E803000000000000120110010200004007
:10446400C0168304750201020301000018035400FE
:10447400650065006E0073007900640075006900D2
:104484006E006F0009024300020100C032090400FB
:1044940000010202010005240010010524010101AC
:1044A40004240206052406000107058203100040C7
:1044B40009040100020A000000070503024000008D
:1044C4000705840240000000160355005300420013
:1044D4002000530065007200690061006C00000058
:1044E400040309040C0300000000000000000000A5
:1044F40000000000000000000000000000000000B8
:1045040000000000CC8AFF1F348BFF1F9C8BFF1F11
:104514000000000000000000000000000000000097
:104524000000000000000000000000000000000087
:104534000000000000000000000000000000000077
:104544000000000000000000000000000000000067
:104554000000000000000000000000000000000057
:104564000000000000000000000000000000000047
:104574000000000000000000000000000000000037
:104584000000000000000000000000000000000027
:104594000000000000000000000000000000000017
:1045A4000000000000000000010000000000000006
:1045B4000E33CDAB34126DE6ECDE05000B000000CB
:1045C40000000000000000000000000000000000E7
:1045D40000000000000000000000000000000000D7
:1045E40000000000000000000000000000000000C7
:1045F40000000000000000000000000000000000B7
:0C4924000000000000000000E087FF1F02
:00000001FF
