:1000000000800020BD0100005D4400001544000098
:10001000154400001544000015440000154400007C
:100020001544000015440000154400005D44000024
:100030005D44000015440000895800008D590000FF
:100040005D4400005D4400005D4400005D4400002C
:100050005D4400005D4400005D4400005D4400001C
:100060005D4400005D4400005D4400005D4400000C
:100070005D4400005D4400005D4400005D440000FC
:100080005D4400005D4400005D4400005D440000EC
:100090005D4400005D4400005D4400005D440000DC
:1000A0005D4400005D4400005D4400005D440000CC
:1000B0005D4400005D4400005D4400005D440000BC
:1000C0005D4400005D4400005D4400005D440000AC
:1000D0005D4400005D4400005D4400005D4400009C
:1000E0005D4400005D4400005D4400005D4400008C
:1000F0005D440000815B00005D440000AD5C0000D9
:100100005D440000D95D00005D4400005D440000D6
:100110005D4400005D4400005D4400005D4400005B
:100120005D4400005D4400005D4400005D4400004B
:100130005D4400005D4400005D4400005D4400003B
:100140005D4400005D4400005D4400005D4400002B
:100150005D4400005D4400005D4400005D4400001B
:100160005D440000A54800005D4400005D440000BF
:100170005D4400005D4400005D4400005D440000FB
:100180005D4400005D4400005D4400005D440000EB
:100190005D4400005D4400005D4400005D440000DB
:1001A0005D4400005D4400005D4400005D440000CB
:1001B0005D4400005D4400005D440000564B4CF27D
:1001C000205210B51A804DF628121A8000BF00BFC9
:1001D00004F048F9514B4FF010621A60504A9A608F
:1001E000504ADA60504A136813F4807304D14F49BF
:1001F0000B604FF4A85313604D4B1A78110703D5C9
:100200001A7842F008021A704A4B4B492A221A7097
:100210004A4A4B4B8B4204D252F8040F43F8040B6A
:10022000F8E7484B484900228B4202D243F8042B9E
:10023000FAE74649464A002352F8230041F82300D2
:1002400001336F2BF8D1434B434A802103F8011B44
:100250009342FBD1414B3D4A1A60414B8A221A70AE
:10026000A3F5805324225A70A0221A709A7992071B
:10027000FCD59A79D406FCD43A4A937903F00C035E
:10028000082B384BF9D103221A7140225A719A79FE
:100290009006FCD5334A9179324B4906FBD5324A58
:1002A000324911600221516020221A709A7902F0BD
:1002B0000C020C2AFAD12E4B2E4A1A602E4B2F4AD2
:1002C0001A6000225A60072243F8042C2C4AC3F813
:1002D0000C2D62B604F09CF9144B1B68DA0705D5A7
:1002E000284804F00DF9284B284A1A60284B1B783F
:1002F0005B0609D5244C254B22689A4204D121483B
:1003000004F0FEF80023236005F01AFE04F0B0F8B4
:1003100005F044FBFEE700BF0E200540308004409E
:10032000823F04000100002B10D0034014D0034092
:1003300002D0074000E007401888FF1F647F0000DC
:100340001C87FF1F1888FF1F1C91FF1F0082FF1FC3
:100350000000000000E400E05FE400E008ED00E0E1
:100360000050064000400640448004400000030165
:1003700004800440C010050014E000E0FF76010096
:10038000000020207512165E1CE00340A5C3945A9D
:1003900000F00740FFFFFFFFFFFFFFFFFFFFFFFF32
:1003A000FFFFFFFFFFFFFFFFFFFFFFFFFFFFFFFF5D
:1003B000FFFFFFFFFFFFFFFFFFFFFFFFFFFFFFFF4D
:1003C000FFFFFFFFFFFFFFFFFFFFFFFFFFFFFFFF3D
:1003D000FFFFFFFFFFFFFFFFFFFFFFFFFFFFFFFF2D
:1003E000FFFFFFFFFFFFFFFFFFFFFFFFFFFFFFFF1D
:1003F000FFFFFFFFFFFFFFFFFFFFFFFFFFFFFFFF0D
:10040000FFFFFFFFFFFFFFFFFFFFFFFFDEF9FFFF23
:1004100010B5054C237833B9044B13B10448AFF33E
:1004200000800123237010BD1888FF1F000000000A
:10043000687F0000084B10B51BB108490848AFF3AE
:1004400000800848036803B910BD074B002BFBD0A0
:10045000BDE81040184700BF000000001C88FF1FC7
:10046000687F00001888FF1F000000004069704787
:10047000002070474268017B13780B43137070476C
:100480004268017B137823EA01031370704700BFB1
:1004900008B50121072004F045F801210E2004F0E1
:1004A00041F80B4A1368D90405D40A490A4843F4B1
:1004B00080531360C860074A136843F00043136019
:1004C000136823F4804323F00103136008BD00BFC9
:1004D0003C80044000C0024001000138F0B58BB000
:1004E000002305688DF804308DF805308DF806304E
:1004F0002E68374A8DF8083096428DF809308DF80D
:100500000A305FD1827C04910446012A01A805913A
:100510008DF81E308DF81F308DF82030039015D0E7
:100520008DF81D308DF81C308DF81B308DF81A3089
:100530008DF819308DF818300023AA698DF8213014
:100540002046099303A990470BB0F0BD214A1378C8
:10055000013303F0070313F0010F14BF80210021C2
:1005600013709A0744BF41F04001C9B25B0748BF0E
:1005700041F0200110310022C9B20DF11B030DF131
:100580001E074FF4807EAAB19EFBF2F2D2B2501C3D
:10059000C0B200FB01152D121870EEB205B1013E7C
:1005A00003F8036C00B11A7001339F4208D0DA7867
:1005B000002AE9D11A7003F8032C01339F42F6D1C7
:1005C0002568B9E70A4602AB01A9B0470BB0F0BDF8
:1005D000C11700003488FF1F414803782DE9F04718
:1005E000002B37D13F4D404C404FDFF824812B7812
:1005F0003F4EFBB9237832781A4498F80030D2B2D3
:10060000327003B33B4DDFF8F090DFF8088100242F
:1006100018F804003B7815F8011B00EB4000484433
:10062000413403F041F8B4F5827F01D03278EFE72E
:10063000BDE8F087337822789A1A98F80030D2B261
:100640003270002BDED13B782B48BC21BDE8F0474F
:1006500003F02AB8294E234D3388234C234FDFF86B
:10066000B08003EB432203EB820303F558531933A5
:100670009BB203EB432203EB820202F5585219327C
:1006800092B202EB422102EB810101F5585119317E
:1006900089B202EB122203EB1323318001EB112EFE
:1006A000C3F3C01316492B70C2F381120023013229
:1006B000144E2270CEF3421E0EF1010E0B700A2270
:1006C00003700D210123104887F800E0326088F89C
:1006D000003004F067FF0D4805F068F987E700BFB8
:1006E0002487FF1F708BFF1F2987FF1F1D87FF1F98
:1006F0005C8BFF1F5887FF1F8488FF1F5C87FF1FCD
:100700001E87FF1F2087FF1FB06100006487FF1F47
:100710008188FF1FB08CFF1F2DE9F04F624E634DA3
:100720003378634F85B0002B40F09580614C624E6A
:100730003A783046BC2103F069F82378002B4DD07D
:100740002B88DFF880915D4FDFF88CA103EB432409
:1007500003EB840404F558541934A4B204EB442385
:1007600004EB830303F5585319339BB203EB1322B5
:10077000D2B204EB14242B80E4B289F800200025C7
:100780004FF0010817F8013BCDF8008003FB04434C
:100790000AEB232305EB851103A813F801B04849A0
:1007A000FF2303F085F80BEB4B03F118F25C9DF887
:1007B0000C0082FA50F2F2549DF80D304A7882FA19
:1007C00053F24A708B789DF80E2083FA52F301356C
:1007D000042D8B703CD099F80020D3E72B88394C3E
:1007E000374903EB432203EB820303F558531933D4
:1007F0009BB203EB432003EB800000F55850193007
:1008000080B200EB102EBC275FFA8EFE07FB03F3CD
:10081000012200921F0C72462880FF2303A884F84F
:1008200000E003F045F807EB4703F118F25C9DF890
:100830000C0082FA50F2F2549DF80D304A7882FA98
:1008400053F24A708B789DF80E2083FA52F38B7026
:1008500005B0BDE8F08F2B881B491C48154C03EBF5
:10086000432203EB820303F5585319339BB203EB86
:100870001322D2B202EBC20E02EB4E02D2112B8037
:100880004FF0140E01230A323A700B700022C0F8A8
:1008900000E008210E482370327004F083FE0D48FA
:1008A00005F084F843E700BF2487FF1F5C87FF1F24
:1008B0001C87FF1F8188FF1F8488FF1F5887FF1F29
:1008C000188BFF1F5C8BFF1F1E87FF1F2087FF1FDA
:1008D000C06100006487FF1FB08CFF1F2DE9F04F3F
:1008E0008A4A8B4C137885B0002B40F0D380894B1B
:1008F000894D8A4E01933278894E8A48238802EBCB
:100900008202520086FB02161644D217C2EBE6168C
:100910000236F6B200F1BC0703EB432203EB82037D
:1009200003F5585319339BB203EB132210F8011F40
:10093000D2B212FB06F2A1EB122222EAE272874245
:100940000270E9D1784FDFF8F8C1A7F1B800064688
:1009500007F1020E3A7817F8011D02EB41028CFBF9
:100960000281A1EBE272BE420EF8012DF2D103EB3F
:10097000432203EB820303F5585319339BB22D78BE
:10098000238003EB1322D2B29542614924D903EBB1
:10099000432203EB820303F5585319339BB203EB55
:1009A000432403EB840404F55854193403EB132354
:1009B000A4B2DBB204EB1422C3EBC303D2B21B120A
:1009C00002EB4205C2EB4512C55C0C801212603A84
:1009D000294681FA52F1C154DFF868A10027D146B7
:1009E000019B1B78002B3DD0DFF85CB1FCB24FF0CF
:1009F00000081BF8013B4A4A3178A2FB0323DB09BC
:100A00004A4A13FB04F352FA83F308EB881203A853
:100A10009D5C02F02BFF05EB45030AEB03011AF87E
:100A200003209DF80C0082FA50F20AF803209DF88A
:100A30000D304A7882FA53F24A708B789DF80E2076
:100A400083FA52F308F10108B8F1040F8B70D0D18A
:100A50000137BC2F06F1010609F10309C0D105B029
:100A6000BDE8F08F317803A8013702F0FFFE9DF852
:100A70000C109DF80D209DF80E3089F80010BC2F49
:100A800089F8012089F8023006F1010609F103090D
:100A9000A6D1E4E72388204D254826491F4E03EBC5
:100AA000432703EB870303F5585319339BB203EB3A
:100AB000432703EB870707F55857193703EB132331
:100AC000BFB2DBB207EB172EC3EB031327805FFA2D
:100AD0008EFE104F0197DB113C330F270EEB8E0E6D
:100AE0002B70076000230B4F0B704FEA6E1E0EF148
:100AF000500E1370042101230F4886F800E03B706C
:100B000004F050FD0D4804F051FFF4E62487FF1F68
:100B10005C87FF1F8188FF1F2887FF1F2587FF1F16
:100B20005D414CAEEF8BFF1FA88CFF1FB08CFF1FE9
:100B30002087FF1F1E87FF1FCC6100006487FF1FF7
:100B4000565555558488FF1F5887FF1F7D4B7E4A99
:100B50002DE9F04FDF68C7611B697C4E0362336883
:100B60007B4D43622B687B4C83622368C362804663
:100B700080691368C8F8303083B050B10368764A92
:100B80001B68934240F053814268007B1378034313
:100B900013706C4BDA68B2F1605F00F02B81694B27
:100BA0001A68550400F1308142F4804040F00100A1
:100BB0004FF060554FF0F0441860DD601C611A6022
:100BC000624B614D634C624E5E484FF410721A6086
:100BD0004FF4A27333602A6023600C7DCD7C91F8C2
:100BE00012B0C26A574B5704FBD472B64FF0805212
:100BF0005A63DA6A42F00042DA6262B6DA6A51484F
:100C00005604FBD472B64FF080534363C36A43F07B
:100C10000043C36262B68B68002B5ADD0346681C32
:100C20000746601C04460A68CDF804800BF1010BEE
:100C30001846A2468C691519145DAE786A780AFBCD
:100C400006F60BFB04F4C6F3072607FB02F2241298
:100C500046F47F461512DA6A5204FCD472B646F0A6
:100C600080524263C26A42F00042C26262B62A0205
:100C700092B2224394B2DA6A5204FCD472B644F0BF
:100C800080524263C26A42F00042C26262B68C681D
:100C9000009491F915200C6891F80C904E7B8D7B97
:100CA00091F80FE091F8108091F811C02244009C57
:100CB0000A60013CC9EB0E0EC6EB0806C5EB0C053D
:100CC000002C81F80CE04E738D738C60B2DCDDF883
:100CD000048048681B4A0028B8BF1F3040111146E5
:100CE000FF24D36A5E04FCD472B64C63CB6A43F033
:100CF0000043CB6262B6D36A13F48043FBD172B671
:100D00004B63CB6A43F00043CB6262B6D36A13F401
:100D10008043FBD172B64B63CB6A43F00043CB6296
:100D200062B6D36A13F48043FBD172B64B63CB6ACD
:100D300043F00043CB6262B610F1FF30D1D2014ADA
:100D400013E000BF00C0024004C0044008C00440DB
:100D500018B0044014B0044075040000D36A43F096
:100D60000043D362002362B643B972B6D36A13F468
:100D7000704FF3D1012362B6002BF6D02F49CB6A16
:100D80002E4A002BFBDAD36A2D4ED8F818002D4DD1
:100D90002D4C2E4943F01043D3624FF4A2733360BD
:100DA000D8F828202A602360D8F82C300B6050B186
:100DB0000368274A5B6893423DD14268017B137800
:100DC00023EA010313701D4BD8F81C20D968D8F80A
:100DD00020008A421FD0194B19684C0422D441F4D8
:100DE000804444F001041C60DA601861196003B0AB
:100DF000BDE8F08F1B69B3F1F04F3FF4E1AE0F4B4C
:100E00001A6855047FF5D0AE4FF060504FF0F042B5
:100E1000D8601A61D4E61B699842E8D0074B19687C
:100E20004C04DCD5DA60186103B0BDE8F08F0091A6
:100E300098470099ADE69847C5E700BF00C002405B
:100E400008C0044018B0044004C0044014B004407A
:100E5000810400002DE9F04F784803788FB0002B13
:100E600040F09E81DFF810B2754D764E764C2B78AF
:100E700013B1764B00221A7032787548BC2102F00B
:100E8000C5FC2578002D40F0B7809BF80030002B82
:100E900000F0AF806F4906916F4907916F496B4F22
:100EA00003916F4904916F49DFF8C4A13A78DFF8E4
:100EB000C491DFF8C8810591654E5EE09AF8001094
:100EC0000B44069903EB450309680A919BB2FF2B7B
:100ED0000A9998BF1B024FF48C7098BF9BB200FB1D
:100EE00001F103FB01F1C1F30E4101F5804148041A
:100EF000C1F3CA0303D5C3F5FF6307339BB2180AD6
:100F0000C3F3460E079C039B245C33F810000B04CC
:100F100004FB0E04A4B263D40599049B09781B78E2
:100F2000009124B2A4F50044BC21A4B201FB04F456
:100F3000240C04EB44044C490DA802F0B9FC31190F
:100F4000335D9DF8342083FA52F333554A789DF887
:100F5000353082FA53F24A708B789DF8362083FA46
:100F600052F38B70397899F800209BF800300A44CE
:100F70000135D2B2AB423A703BDD98F8001000293F
:100F80009CD09AF800100B44069903EB45030968BE
:100F90000B919BB2FF2B0B9998BF1B024FF48C70E7
:100FA00000FB01F198BF9BB203FB01F3C3F30E43B7
:100FB000A3F580439BB25804C3F3CA0103D5C1F51E
:100FC000FF61073189B2080AC1F3460E079C0399F5
:100FD000245C31F810001B0404FB0E04A4B29BD562
:100FE000644299E7099B0133042B099309F1010934
:100FF00008D10FB0BDE8F08F0023DFF88490DFF850
:101000004C8009939BF80030002BEBD011490791DD
:101010001149069111490591114904911149039112
:101020000999124F98F80020DFF850A0084E01EB04
:1010300081110F44002408978CE000BF2487FF1F14
:10104000788BFF1F1C87FF1F8188FF1F5C8BFF1F92
:101050008488FF1F5C8EFF1F546E00000870000024
:101060002687FF1F6C8BFF1F188BFF1FB08CFF1F85
:101070002B87FF1F1D87FF1F2A87FF1F708BFF1FF6
:101080005887FF1F8249087899F80010034403EB42
:10109000440398B2FF289CBF030298B2079B1B68C9
:1010A0000C930C9D4FF48C7303FB05F300FB03F3CF
:1010B000C3F30E4303F5804301395F0489B2C3F3E0
:1010C000CA0003D5C0F5FF60073080B2069F050A4D
:1010D000C0F3460017F805E0059F37F815500EFBE2
:1010E00000501B0480B248BF404200B2A0F500404F
:1010F00083B201FB03330898190C049B455C0399E8
:101100001B780978009105EB450562490BA802F0B0
:10111000CFFB7119735D9DF82C2083FA52F3735540
:101120004A789DF82D3082FA53F24A708B789DF8F8
:101130002E2083FA52F38B70574B98F800101A78D0
:101140009BF800300A440134D2B2A34288F8002050
:101150007FF748AF9AF80010002993D04C490878DF
:1011600099F80010034403EB440398B2FF289CBF96
:10117000030298B2079B1B680D930D9D4FF48C736F
:1011800003FB05F300FB03F3C3F30E43A3F5804316
:101190009BB201395D0489B2C3F3CA0096D591E7C9
:1011A0003E4CDFF814812388DFF8E4A0DFF8E890F4
:1011B000DFF808E1DFF808B103EB432503EB850511
:1011C00005F558551935ADB205EB452305EB8303FD
:1011D00003F55853193303EB432203EB820303F562
:1011E000585319339BB203EB432603EB860606F5EF
:1011F00058561936B6B206EB462106EB810101F5C9
:101200005851193189B201EB412201EB820203EB03
:10121000132302F5585205EB1525DBB21932C5F33D
:10122000811703EB430593B2238006EB162603EBED
:1012300013232A11C3F3C013C6F3031501EB1121C5
:10124000174E88F800301032164B3270C9B2023790
:1012500001220435FF2494FBF7F404FB01F1124C46
:101260008AF800501A7009120023104D89F80010F6
:10127000227003700A2211210D488BF800702B7028
:10128000CEF8002004F08EF90A4804F08FFBEEE55A
:101290002B87FF1F188BFF1F1D87FF1F5C87FF1FFA
:1012A0001C87FF1F1E87FF1F8188FF1F788BFF1F72
:1012B000D46100006487FF1F708BFF1F2087FF1F12
:1012C0002A87FF1F2DE9F04F8A4A8B4C13788B4EEB
:1012D00089B0002B40F0B181894B8A4F8A4D05932C
:1012E0003A788A4F8A48238802EB8202520087FBB1
:1012F00002171744D217C2EBA7170237FFB200F14B
:101300005E0E03EB432203EB820303F558531933BC
:101310009BB203EB132210F8011FD2B212FB07F2AB
:10132000A1EB122222EAE27286450270E9D17948E5
:10133000DFF8F0C1A0F15C08474600F1020E027828
:1013400010F8011D02EB41028CFB0291A1EBE2724D
:10135000B8420EF8012DF2D103EB432203EB8203D6
:1013600003F5585319339BB23078238003EB1322D3
:10137000D2B29042604925D903EB432203EB8203AA
:1013800003F5585319339BB203EB432003EB800062
:1013900000F55850193080B200EB102203EB1323F4
:1013A000D2B2DBB202EB4204C3EBC3031B12C2EBAB
:1013B000441212120880603A18F8031081FA52F1B0
:1013C00008F803102B78002B00F0AE80524B0293EC
:1013D0001D4603934FF0000B0DF11C0A059B1B7873
:1013E000002B66D04D4BCDF804B04FF000081E46E0
:1013F000B346464B16F8014B3978A3FB0434019BE6
:10140000A40903FB04F4464B08EB881999445046A1
:1014100019F80420009202F029FA009A9DF81CE0C5
:1014200002EB4202A818A95C81FA5EF1A9549DF86A
:101430001D20417881FA52F1417082789DF81E108A
:1014400082FA51F29BF8003039788270013B1C1B04
:10145000504619F8044002F009FA04EB4402A918B6
:10146000AB5C9DF81C0083FA50F3AB549DF81D3023
:101470004A7882FA53F24A708B789DF81E2083FADC
:1014800052F308F10108B8F1040F8B70B0D1DDF808
:1014900004B0029B03330293039B0BF1010B033B4C
:1014A000BBF15E0F07F10107039397D109B0BDE8C7
:1014B000F08F3978504602F0D9F9029E9DF81C0051
:1014C0009DF81D209DF81E30397830707270B37011
:1014D000504602F0CBF9039C9DF81C109DF81D208E
:1014E0009DF81E3084F8311284F8322284F83332A9
:1014F000CFE700BF2487FF1F5C87FF1F2887FF1FE0
:101500008188FF1F2587FF1F708BFF1F5D414CAE39
:10151000838BFF1FE08BFF1F8488FF1F5887FF1FEF
:10152000B08CFF1F565555550293059B684A1B7892
:101530000392154604920DF11C0A002B5AD09DF817
:101540000830DFF8B4B101934FF00008CDF800B0D7
:10155000604B1BF8016B3978A3FB0634BDF80430EF
:10156000E40914FB03F4E4B25B4BE04308EB881995
:10157000994400EB5606504619F8066002F076F9D9
:10158000009A9DF81C0011789DF81DE09DF81E2022
:1015900004EB510406EB460614F80940A8552E4406
:1015A0003978B270504686F801E004EB440402F04A
:1015B0005DF908F101082A199DF81C609DF81D00CD
:1015C0009DF81E102E55B8F1040F50709170BDD1CA
:1015D000039A029B033A0392049A013303325E2B6F
:1015E000029307F1010704923FF460AF059B1B785B
:1015F000002BA4D13978504602F038F9039E9DF8AB
:101600001C009DF81D209DF81E30397886F81701C2
:1016100086F8182186F81931504602F027F9049C03
:101620009DF81C109DF81D209DF81E3084F81A119D
:1016300084F81B2184F81C31CAE72388274D284FE2
:10164000284903EB432003EB800000F55850193084
:1016500080B200EB402300EB830303F558531933AA
:101660009BB203EB432E03EB8E0E00EB102003EB3B
:1016700013230EF5585EDBB2C0B20EF1190E03EB68
:101680008303C0EB00101FFA8EFEC3EBC30380116F
:10169000A4F800E032300EEB1E2EDB113070323336
:1016A000CEF3C01028703B700F48002313700F2238
:1016B0000B7002600D490D4A059101230B210C4866
:1016C000137003F06FFF0B4804F070F908E600BFD9
:1016D0008488FF1F5D414CAEB08CFF1F708BFF1FD5
:1016E0002587FF1F1E87FF1F2087FF1F8188FF1F81
:1016F000E86100006487FF1F5887FF1FF0B5857CF5
:101700001C785E789B7889B0012D0191029203923A
:101710008DF816408DF817608DF8183017D000231B
:101720008DF815308DF814308DF813308DF8123097
:101730008DF811308DF810300368002203219B6969
:101740008DF81910079201A9984709B0F0BD1B4AFE
:101750001378013303F0070313F0010F137014BF64
:1017600080220022990744BF42F04002D2B25B07B8
:1017700048BF42F020021032D2B20DF113030DF136
:1017800016074FF4807EACB19EFBF4F4E4B2611C0A
:10179000C9B201FB02252D121970EEB205B1013E4E
:1017A00003F8036C01B11C700133BB42C4D0DC7878
:1017B000002CE9D11C7003F8034CF5E73488FF1FB7
:1017C000F0B5857C1C785E789B7889B0012D0191FD
:1017D000029203928DF816408DF817608DF818303C
:1017E00016D000238DF815308DF814308DF8133095
:1017F0008DF812308DF811308DF81030026800230A
:1018000092698DF81930079301A9904709B0F0BD8E
:101810001B4A1378013303F0070313F0010F137011
:1018200014BF80220022990744BF42F04002D2B286
:101830005B0748BF42F020021032D2B20DF1130311
:101840000DF116074FF4807EACB19EFBF4F4E4B2C8
:10185000611CC9B201FB02252D121970EEB205B14F
:10186000013E03F8036C01B11C700133BB42C5D0CB
:10187000DC78002CE9D11C7003F8034CF5E700BFBD
:101880003488FF1F2DE9F04FBE4A137889B0002B32
:1018900040F00B81DFF838A3BB4EBC4CBC4D337815
:1018A00013B1BC4B00221A702278BB48BC2101F056
:1018B000ADFF2D78002D70D19AF80030002B69D043
:1018C000B649B44F0391B6490291B6490491DFF885
:1018D000E492B5493A78DFF8E482AF4E05914FF4CF
:1018E0008C7B99F800100B4403992B4409680691EE
:1018F0009BB2FF2B06999CBF1B029BB20BFB01F115
:1019000003FB01F1090C4C04C1F3CA0303D5C3F571
:10191000FF6307339BB2C3F3460E180A029C049B75
:10192000245C33F8100004FB0E04A4B2080448BF82
:10193000644224B2A4F50044A4B204EB4404059824
:101940009A4900780090C4EB8414240C04EB4404FE
:1019500007A8FF2301F0ACFF3019335D9DF81C2070
:1019600083FA52F333559DF81D20437883FA52F3DE
:10197000437081789DF81E3081FA53F13C7898F8D5
:1019800000209AF80030817022440135D2B2AB4277
:101990003A70A6DC09B0BDE8F08FDFF8F8914FF09F
:1019A00000089AF80010002976D07D4B04937D4BF7
:1019B0007F4F03937C4B029308EB88131F4499F8E5
:1019C0000020DFF8D8B1744E05970025794B1C78BC
:1019D0004B19794911F808E0DBF80010079123440E
:1019E000FF2B079998BF1B024FF48C7000FB01F18D
:1019F00098BF9BB203FB01F31B0C5904C3F3CA004D
:101A000003D5C0F5FF60073080B2010A049C039F34
:101A1000645C37F81110C0F3460004FB00101B048F
:101A2000029C62492478009480B248BF404200B2D0
:101A3000A0F50044A0B20EFB0000059C000CFF23A3
:101A4000245C04EB440406A801F032FF06EB040E0C
:101A5000335D9DF8182083FA52F333559DF8192011
:101A60009EF8013083FA52F38EF801309EF802009E
:101A70009DF81A3080FA53F0504B99F800201B78EB
:101A80009AF800108EF8020001351A44EDB2D2B275
:101A9000A94289F8002099D808F10108B8F1040F8B
:101AA0007FF47FAF09B0BDE8F08F454CDFF820A18F
:101AB0002388DFF80881DFF8FC90DFF818E103EBFA
:101AC000432003EB800000F55850193080B200EB42
:101AD000402500EB850505F558551935ADB205EBE8
:101AE000452305EB830303F5585319339BB203EBEE
:101AF000432103EB810101F55851193189B201EB02
:101B0000412601EB860606F558561936B6B203EBA8
:101B1000132306EB162700EB1020DBB2C0F3811075
:101B200003EB4303FFB226800230174E8AF8000011
:101B300001EB112105EB15251B11FF2494FBF0F49B
:101B400004FB07F7114C1F48C5F3C0151033C1F350
:101B50000311237035703B1204310D4D89F80010CC
:101B600088F8003001210A238EF8001029700360E4
:101B7000194615480023137003F014FD134803F0B1
:101B800015FF8CE62487FF1F788BFF1F1C87FF1F24
:101B90008188FF1F5C8BFF1F8488FF1F5C8EFF1FE7
:101BA000546E0000087000006C8BFF1F188BFF1F25
:101BB000B08CFF1F2B87FF1F5887FF1F1D87FF1F3C
:101BC0005C87FF1F2087FF1FF46100006487FF1FF1
:101BD0002A87FF1F1E87FF1F2DE9F04FB44B1A788D
:101BE00093B0002A40F0E681DFF8E482B1490B6847
:101BF0001193119845F6287303FB00F0000C46047E
:101C0000C0F3CA0303D5C3F5FF6307339BB21A0AB7
:101C1000DFF8C0A2DFF8C0B21AF802503BF8124059
:101C2000C3F3460205FB02439BB2050448BF5B4277
:101C30000A6810921BB2A3F500439BB210989E4A0B
:101C4000C3EB43131B0C02FB00F0000CDC33DBB2D4
:101C500044040293C0F3CA0303D5C3F5FF630733FB
:101C60009BB21C0AC3F346021AF804503BF8143026
:101C700005FB023300049BB248BF5B420A680F9227
:101C80001BB2A3F500439BB20F984DF6086203EB1D
:101C9000C31302FB00F01B0C000C60339BB2420428
:101CA00003935FFA83FCC0F3CA0303D5C3F5FF6354
:101CB00007339BB21C0AC3F346021AF804503BF8E0
:101CC000143005FB023307049BB248BF5B421BB2D2
:101CD0000A680E92A3F500439BB2C3EB03120E9861
:101CE00003EB02234AF2C8021B0C02FB00F0000CBB
:101CF00003F5C8539BB246040193C0F3CA0303D54E
:101D0000C3F5FF6307339BB21C0AC3F346021AF8FC
:101D100004503BF8143005FB02339BB205040A68FB
:101D20000D9248BF5B421BB20D9C6448A3F5004373
:101D30009BB2262247F6983602FB03F206FB04F616
:101D4000360C120C1732740492B2C6F3CA0305881B
:101D500003D5C3F5FF6307339BB21C0AC3F34603E5
:101D60001AF804703BF8144007FB03439BB20C685D
:101D70000B943704524C0B9F0968524E0C9148BF8C
:101D80005B421BB22188A3F50043BFB240F6B83EC8
:101D90009BB2791A0EFB03F32780B6F800E00C9C87
:101DA000494F89B211FB02EE07FB04F2120C1B0C27
:101DB0001FFA8EF40133348056049FB2C2F3CA0373
:101DC00003D5C3F5FF6307339BB21E0AC3F3460373
:101DD0001AF806E03BF816600EFB03639BB2120490
:101DE00048BF5B421BB2A3F500439BB203EB8303E6
:101DF0001B0C05339BB298F8002001FB03510180B6
:101E00006FEA0C0C002A69D1019B1C445FFA8CF329
:101E10000493A4B24FF0BB0909AE0DF128087B1959
:101E20009DB263044FEA152EC4F3CA0203D5C2F56E
:101E3000FF62073292B2100AC2F346011AF800C0DC
:101E40003BF81020039B8DF828E00CFB01222004B6
:101E500092B248BF524212B2A2F5004292B202FBC5
:101E600002F2120C03FB02F2049BC2F307421A4473
:101E700031469DF808308DF82A2040468DF82930EB
:101E800001F060FE114B09EB490018444022314635
:101E900001F0BEFC019B09F1FF391C441FFA89F9CE
:101EA0004FF6FF739945A4B2B9D113B0BDE8F08FD6
:101EB0002487FF1F5C8EFF1FF8740100168BFF1F25
:101EC0007E8BFF1F7288FF1F80B501008488FF1F73
:101ED0008188FF1F546E0000087000005FFA8CF3C9
:101EE000DFF8108106930026079718F80620002ACD
:101EF0005AD0019B394906EB86121C448B18049377
:101F00000AABA4B200270DF12409059300E01446A2
:101F1000079B1D44ADB261044FEA152EC4F3CA02FB
:101F200003D5C2F5FF62073292B2100AC2F346012E
:101F30001AF800C03BF8102005988DF828E00CFB3B
:101F40000122230492B248BF524212B2A2F50042CB
:101F500092B2039B02FB02F2120C03FB02F2069BFD
:101F6000C2F307421A4449469DF808308DF82A20EA
:101F70008DF8293001F0E6FD18F80610049B0139B0
:101F8000C91B89B24022585C154B00EB4000184435
:101F9000494601F03DFC013718F80610019BBFB21D
:101FA0001A19B94292B2B2D80136042E9DD113B09B
:101FB000BDE8F08F0B490C4DDFF83C800B48002248
:101FC0000A700A26012405211A702E6088F8004044
:101FD00003F0E8FA064803F0E9FC07E6B08CFF1FBF
:101FE0008488FF1F1E87FF1F2087FF1F00620000DD
:101FF0006487FF1F5887FF1F8188FF1F2DE9F04F5F
:10200000BC4B1A7893B0002A40F06F82DFF834A3FB
:10201000B94EBA4B32681192119A03FB02F2120CBC
:102020005104C2F3CA0303D5C3F5FF6307339BB260
:10203000190ADFF814B3B248405C3BF81110C3F33F
:10204000460300FB031317049BB248BF5B421BB25D
:1020500032681092A3F500439BB203EBC313109AAE
:10206000180C4DF6086303FB02F2120CA54B60300E
:10207000C0B255041870C2F3CA0303D5C3F5FF6399
:1020800007339BB2190A9E4C645C3BF81110C3F3F2
:10209000460304FB03139BB2140448BF5B421BB20C
:1020A000A3F5004332680F929BB2C3EB031203EB1C
:1020B00002230F991B0C4AF2C80202FB01F203F53E
:1020C000C85391499BB2120C0B8051040293C2F386
:1020D000CA0303D5C3F5FF6307339BB2190A884CC3
:1020E0008A4D645C3BF81110DFF86092DFF8608283
:1020F000C3F3460304FB031317049BB248BF5B42C0
:102100001BB232680E92A3F5004326229BB202FB5B
:1021100003F30E9FB9F80020A8F800201B0C47F627
:102120009834173304FB07F499B2240C2970650422
:10213000C4F3CA0303D5C3F5FF6307339BB21D0A7B
:102140006F4FDFF810E27F5D3BF81550BEF800C01E
:10215000C3F3460307FB03539BB2270434680C9474
:1021600048BF5B420C9D3468694E0D941BB2A3F5C9
:102170000043ADB29BB240F2B14404FB03F4CCEB9C
:10218000050C3388634FAEF800501FFA8CFC1CFB23
:102190000133DDF834E060493D80240C04F5967489
:1021A00001FB0EFE5D4D5E49A7B24FEA1E44A1F849
:1021B00000C02F8099B265043180C4F3CA0303D5EF
:1021C000C3F5FF6307339BB21D0A4D4E765D3BF8A6
:1021D0001550C3F3460306FB03539BB2240448BFC8
:1021E0005B421BB2A3F500439BB203EB83031B0CC2
:1021F00005339AF80040DFF860A19BB20CFB032383
:10220000A9F80030AAF80010002C40F0D080454B0F
:102210000393454B0493454B0593454B0693454B20
:102220000793029BDFF834910446BE461846BB254F
:102230000BAE2346404C05EB450727440297042488
:10224000724492B24FEAD21C6FEA122E1CF4807FC5
:102250005FFA8EFE014408BF4FEA122EA8F8002054
:10226000364A039F82F800E089B24A04A7F800C00A
:10227000AAF80010C1F3CA0003D5C0F5FF6007300B
:1022800080B24FEA102CC0F346021D4810F80C0033
:102290003BF81CC000FB02C00F0480B248BF4042A4
:1022A00000B2A0F5004080B200FB00F2120C02FB6D
:1022B00003FCDB4303EB1C4CCEEB0E130EEB031EB7
:1022C00001230093049B1E491880059802800698FC
:1022D0005FFA8CFCCEF3072E6346724680F800C08E
:1022E00089F800E0304601F0E3FA079B02981D8070
:1022F00036E000BF2487FF1F5C8EFF1FF8740100CB
:10230000546E00004A8BFF1FC68AFF1F8088FF1F84
:102310006E8BFF1F7088FF1F80B50100EC8BFF1FC5
:10232000AC8CFF1F7A8BFF1FE48BFF1F148BFF1FEA
:10233000488BFF1FBC8AFF1F8488FF1F7C8BFF1FF9
:10234000188BFF1F8188FF1F08700000E28BFF1FA2
:102350004C8BFF1FE68BFF1F7488FF1FAE8CFF1F87
:1023600080223146013C01F053FA14F0FF040BD0F7
:10237000684BB8F80020B3F800E0674BBAF80010DB
:102380001888664B1B785BE7013DADB24FF6FF73D3
:102390009D4200F0A7805F4BB8F80020B3F800E042
:1023A0005D4BBAF8001018885C4B1B7842E700239D
:1023B000DFF8A8911F4619F8013B002B00F08E8032
:1023C000574B0993574B0893574B0793574B06931B
:1023D000574B0593574B0493BB0100250BAE03935A
:1023E000042402954B4BB8F800201B88099913442C
:1023F0009BB2DA0912F4807F6FEA132E5FFA8EFE29
:10240000A8F8003008BF4FEA132E4B4B0A8083F820
:1024100000E0414BBAF800201B881A4492B25104E4
:10242000AAF80020C2F3CA0303D5C3F5FF6307333C
:102430009BB2190A4148405C3BF81110C3F34603B4
:1024400000FB031080B2130448BF404200B2A0F565
:102450000040324B3A491B7880B200FB00F2120C6C
:1024600002FB03FCDB4303EB1C4CCEEB0E130EEB29
:10247000031E089B0125009518800798059D028082
:1024800006985FFA8CFCCEF3072E6346724680F8FE
:1024900000C085F800E0304601F00AFA19F8013C66
:1024A000029A013B9B1A039AD119264A9BB2114406
:1024B000013CC85C04990B80234B00EB4000802258
:1024C0001844314601F0A4F914F0FF048AD1029DAA
:1024D00019F8013C0135ADB2AB4281D80137042F68
:1024E0007FF469AF13B0BDE8F08F1849DFF870A032
:1024F000174D184801220A700A26002409218AF87B
:1025000000202E601C7003F04DF8134803F04EFAC3
:102510007EE500BFEC8BFF1FC68AFF1F4A8BFF1FA3
:102520007A8BFF1FE48BFF1F148BFF1F488BFF1F4D
:10253000AE8CFF1FBC8AFF1F7C8BFF1F546E0000F8
:10254000188BFF1FB08CFF1F8488FF1F1E87FF1F83
:102550002087FF1F086200006487FF1F5887FF1F46
:102560008188FF1F2DE9F04F994A137887B0002B1F
:1025700040F0D380974E984FDFF8A082DFF8A0B2EA
:10258000964CDFF8A0A298F80000954BDFF89892DF
:10259000195C2278934D9BF8003000EB801002F11B
:1025A000010E19F8000084F800E000EB4000284418
:1025B00001F07AF89AF800208B48142101F026F9EE
:1025C0008A4B38781B680593059933784FF48C72E1
:1025D0001B0202FB01F103FB01F1090C4E04C1F3E4
:1025E000CA0303D5C3F5FF6307339BB21E0ADFF8A6
:1025F0003CE27F4A1EF806E032F816207A4EC3F31A
:1026000046030EFB0322090492B248BF524212B2A3
:10261000A2F5004293B200FB0333012022787549F2
:1026200000901C0C04A8FF2301F042F904EB4403C2
:10263000F118F25C9DF8100082FA50F2F2549DF805
:1026400011304A7882FA53F24A708B789DF8122042
:1026500083FA52F33A788B7012B30024DFF8A4A106
:10266000A34698F800309AF8002003EB83134B44FC
:10267000234404EB44019B5C03EB430305EB030E93
:1026800005F803B031447046FF228EF801B08EF891
:1026900002B001F0BDF801343B78E4B2A342E0D8C7
:1026A000554D2B68DB0728D5504B544C1B680493C1
:1026B00094E80600049B5B1A9A4214D84B4B504A8C
:1026C0001B6803931378039921607BB14D4C98F8F4
:1026D0000050434E39782078755D0144A94265DB8E
:1026E00083F00103137007B0BDE8F08F454801780F
:1026F0000029F5D001390170F5E7284601F0BAFE4E
:10270000002858D13D4C394B1B68049394E80600CF
:10271000049B5B1A9342E6D3D0E73B4EDFF800B14F
:1027200033883A4D3A483649DFF8D8A02B4CDFF8C9
:10273000EC8003EB432703EB870303F5585319336E
:102740009BB203EB432E03EB8E0E03EB13230EF52C
:10275000585EC3F3421301330EF1190E8BF80030AB
:102760001FFA8EFE0A23A6F800E02B60194E1A4FBE
:10277000012303700B701023502131703B701946F8
:1027800000238AF80030DFF89CA013700EEB1E2E99
:102790006422204884F800E088F800308AF800209D
:1027A00002F000FF1C4803F001F9ECE60130207054
:1027B00007B0BDE8F08F0D4B104C1B680293029BD5
:1027C000236019232846636001F05AFE9BE700BF8F
:1027D0002487FF1F2B87FF1F5D8BFF1F5C8BFF1F55
:1027E0005887FF1F8488FF1FD08AFF1F5C8EFF1F42
:1027F00008700000188BFF1F588BFF1FC88AFF1F2F
:10280000718BFF1F7D8BFF1F5C87FF1F2087FF1FC2
:102810001E87FF1F146200006487FF1F808BFF1F4D
:102820001D87FF1F1C87FF1FB08CFF1F546E000009
:102830002DE9F04F9D4A137887B0002B40F085803A
:102840009B4CDFF8A892DFF8A8A29A4E22789A480B
:10285000BC2100F0DBFF3378002B00F0BF80974FE6
:10286000DFF88482944D964E03970024954B039A8B
:102870001B68059312F801EB059999F80030039253
:102880004FF48C721B0202FB01F103FB01F1090CF6
:102890000EF1FF3E4804C1F3CA031FFA8EFE03D5B2
:1028A000C3F5FF6307339BB2180AC3F34602864B96
:1028B00013F800C0854B33F810300CFB02339BB289
:1028C0000A0448BF5B421AB2A2F5004292B20EFB64
:1028D000022E9AF800207E4904EB841BFF23B344A8
:1028E00004A84FEA1E4E32B398F800201BF80EB031
:1028F000012702EB070E009788F800E000F0D8FFF0
:102900000BEB4B03E918EA5C9DF8100082FA50F2D9
:10291000EA544A789DF8113082FA53F24A708B7863
:102920009DF8122083FA52F30134042C8B709DD150
:1029300007B0BDE8F08F01231BF80EB098F8002017
:1029400000936349FF2304A8D8E76249584C0B88D9
:10295000614F584EDFF89491DFF894A103EB4320C8
:1029600003EB800303F5585319339BB203EB432069
:1029700003EB800000F55850193080B200EB402581
:1029800003EB132300EB8505DBB205F5585500EB8F
:102990001020C3EBC3031935C0B21B11ADB2103305
:1029A000C0EBC0000D8023704C490123C0113B7067
:1029B000337004300A2305EB152589F800000B60FD
:1029C000C5F3C0150023072145488AF8005013704D
:1029D00002F0E8FD434802F0E9FF37E7394B99F888
:1029E00000101B680493049A4FF48C7303FB02F3EA
:1029F000090203FB01F1090C4D04C1F3CA0303D51D
:102A0000C3F5FF6307339BB21A0A2F4C2F48A45C0F
:102A100030F81200C3F3460204FB02039BB20C041D
:102A200048BF5B421BB2A3F50043BC249BB29AF89B
:102A3000002004FB03F31C0C0ABB2B4B24491A781F
:102A40000123009305A8FF2300F032FF04EB4404A8
:102A5000194A9DF81400135D111983FA50F31355A8
:102A60004A789DF8153082FA53F24A708B789DF8B7
:102A7000162083FA52F38B7007B0BDE8F08F1A4D21
:102A800013492A780123D618009305A8FF232E7036
:102A900000F00EFF04EB4404074B9DF814001A5D90
:102AA000191982FA50F21A55DAE700BF2487FF1F7E
:102AB0001C87FF1F8188FF1F8488FF1F5887FF1F07
:102AC000B08CFF1F5C8EFF1F546E0000087000006A
:102AD000188BFF1F5C87FF1F1E87FF1F2087FF1FAC
:102AE000286200006487FF1F5C8BFF1F2B87FF1F7E
:102AF000C48AFF1F2DE9F04F894C23788BB0002B3F
:102B000040F0B180874B0293874B0393874F884BEC
:102B1000884D04933A788848BC2100F077FE2B78E2
:102B2000002B00F02381DFF838B2DFF83892DFF8AD
:102B30003882824F804E00244FF48C7AD9F80030CE
:102B40000993029B09981B781BF8011B1B020AFBC7
:102B500000F003FB00F0000C01394504C0F3CA0388
:102B600089B203D5C3F5FF6307339BB21D0AC3F3D4
:102B7000460218F805E037F815300EFB0233020460
:102B8000D9F800200892049A089812789BB248BF9E
:102B90005B4212021BB20AFB00F002FB00F0A3F53D
:102BA0000043000C9BB2013101FB03F345044FEAE3
:102BB0001343C0F3CA0203D5C2F5FF62073292B2D3
:102BC000150AC2F3460218F805E037F815500EFB57
:102BD000025292B2000448BF524212B2A2F5004221
:102BE00092B201FB02F10398554A00781278090C61
:102BF0001944544B03EB610104EB841340B3CB5CE9
:102C000005934F4D50490123D01800932870FF239E
:102C100007A800F04DFE059B03EB43057119735D9A
:102C20009DF81C2083FA52F373554A789DF81D30A5
:102C300082FA53F24A708B789DF81E2083FA52F381
:102C40000134042C8B707FF479AF0BB0BDE8F08FAA
:102C5000CD5C3D490123009307A8FF2300F028FE27
:102C600005EB4505DAE73948314B049303882E4AD2
:102C7000039203EB432203EB820303F5585319330A
:102C80009BB203EB432203EB820202F55852193246
:102C900092B2244D029502EB422502EB850505F523
:102CA00058551935ADB205EB452105EB810101F50C
:102CB0005851193189B201EB112603EB132302EBB2
:102CC0001222F6B20180DBB217481949174FD2B26F
:102CD000C6EBC60605EB1525C5F3C015C3EBC3034C
:102CE000C2EBC2023612057003360E480E701B117D
:102CF000D21110330432164902703B70154A0D4D43
:102D0000154801230B700A212B701160002310213C
:102D1000237002F047FC114802F048FEFAE600BFBB
:102D20002487FF1F2B87FF1FC48AFF1F1C87FF1FDD
:102D30002787FF1F8188FF1F8488FF1F08700000FE
:102D40005C8BFF1FB08CFF1F188BFF1F5C87FF1F62
:102D50001E87FF1F2087FF1F306200006487FF1F50
:102D60005887FF1F5C8EFF1F546E0000DFF8309104
:102D7000029BD9F8002007921B7807994FF48C72B8
:102D80001B0202FB01F103FB01F1090C4804C1F332
:102D9000CA0303D5C3F5FF6307339BB21A0ADFF8F2
:102DA00004813B4F18F8024037F81200C3F3460283
:102DB00004FB0203D9F800200692049A069809043D
:102DC0009BB2117848BF5B424FF48C7202FB00F259
:102DD0001BB2090202FB01F1A3F50043BC20090C60
:102DE0009BB200FB03F34A044FEA1340C1F3CA034A
:102DF00003D5C3F5FF6307339BB21C0AC3F3460236
:102E000018F8045037F8143005FB02339BB20E0457
:102E100048BF5B42039A1BB2A3F500439BB21178F3
:102E2000BC2202FB03F31B0C21BB1A4A1A4912787D
:102E30000344012043FA00F40090FF2309A800F0A6
:102E400037FD04EB440315489DF82440C25CC118CB
:102E500082FA54F2C2544A789DF8253082FA53F22D
:102E60004A708B789DF8262083FA52F38B700BB052
:102E7000BDE8F08F074D08492A7803440120161851
:102E800043FA00F40090FF2309A82E70D7E700BF93
:102E9000087000005C8BFF1F188BFF1F8488FF1FCA
:102EA0005C8EFF1F546E00002DE9F04F9BB03F4B2E
:102EB0000993431E0A9300F12F030B93DFF8F4905C
:102EC00000230893002759F82730DBB20137FF2B86
:102ED000BFB2F8D1D9F8003007974FEA13684FF026
:102EE000FF32C6460692C3F3072BC3F3074A0024FA
:102EF000C84658F8045FC5F30727C5F30746F9B27B
:102F00004FEA241C0491F1B205915FFA8CF1039110
:102F10000799ECB20F29C5F307650DAA0EA84FEA71
:102F200014135FFA85F90CD806998C4507DC0F2934
:102F300005D00131C9B28B42039138BF0B4659B25B
:102F400006910CA9009103998DF834B08DF835A045
:102F50008DF836E08DF830708DF831608DF8325094
:102F600000F0C2FBFF2CDDF810B0DDF814A0CE4657
:102F7000BFD10A9B0B9C0EAA01E0A3420FD012F80E
:102F8000011B13F8010F8842F7D0089B0133622B15
:102F9000089308D0099B53F8049F099392E7044BC8
:102FA0009DF820201A701BB0BDE8F08F806E0000E5
:102FB000498BFF1F647B0000124A002302F8013F87
:102FC0000133412BFAD1104A7F2302F13F0102F86D
:102FD000013F013B8A42DBB2F9D10C4A10B4802395
:102FE00002F1410102F11E0402F8013FC3F13B006E
:102FF000A24203F1010301F8010FDBB2F4D110BCCE
:10300000704700BFAF8CFF1FF08CFF1F318DFF1F7B
:103010002DE9F04F40F6B83197B07C4800F090FFB2
:103020004FF46141794800F087FF0121774800F0B3
:103030005DFF50B11021764802F0B4FA73480A21BE
:1030400000F0CAFE714800F075FF012200216F48B0
:1030500001F022F84FF4FA6001F08CFA6D48036831
:1030600013F0010400F0AE800023BC226A496B48D3
:10307000DFF8CC8100F0A4FC694B0122F0218274BE
:10308000FF25B422B0241A70057344738173FFF7CF
:1030900093FF40F6B831052000F092FE4FF49753AD
:1030A0000220A8F8003001F037F9B8F800305D4C84
:1030B0000344002709AA0AA810210AADA8F8003085
:1030C0008DF824708DF825708DF8267000F0DCFAEC
:1030D0000FCDB8F800600FC40FCD06EB462E06EBFF
:1030E0008E0606F5585619360FC495E80F00B5B28E
:1030F00005EB1526F6B206EB460606EB461684E807
:103100000F003612484BA8F8005053F8268058F8A4
:103110002730DBB20137FF2BBFB2F8D1D8F800302F
:1031200007974FF0FF324FEA13690692C3F3072B5C
:10313000C3F3074A0024CE4658F8045F3B48C5F362
:103140000727C5F30746F9B24FEA241C0491F1B2F0
:1031500005915FFA8CF103910799ECB20F29C5F341
:1031600007650AAA4FEA14135FFA85F90CD8069985
:103170008C4507DC0F2905D00131C9B28B42039180
:1031800038BF0B4659B2069109A9009103998DF8F1
:1031900028B08DF829A08DF82AE08DF824708DF8DC
:1031A00025608DF8265000F09FFAFF2CDDF810B056
:1031B000DDF814A0CE46BFD11D4B01221A7017B006
:1031C000BDE8F08F01F056F900283FF44DAF1949E2
:1031D000124B08685C60FF2201255C619C609D7455
:1031E0001A735A739A73DA731A745A7460B1124A62
:1031F000116801B18B6013600022104905489A6183
:10320000196001F03DF92FE70B60F0E70C8EFF1F0E
:10321000B86200003888FF1F8488FF1F3C88FF1FAA
:10322000E48DFF1F188BFF1F806E0000B48DFF1F01
:103230006C8BFF1FF48DFF1F048EFF1FD45F0000F7
:103240005C87FF1F2DE9F04FDFF85482A3B0D8F858
:1032500000300893089B2BB9D8F800300993099BDC
:10326000012B21D97848794C00F0C8FD22687849B3
:10327000904203460860C0F0E5809A1AF92A13D9F3
:103280004FF4FA717048236000F0C2FD01216E48CE
:1032900000F02CFE002840F0BC816B48052100F0B6
:1032A0009BFD694800F018FE6A4D2B68D80740F175
:1032B0008980694CD8F800300D9394E806000D9B86
:1032C0005B1A9A4240F28F80644D2B68D90740F117
:1032D0009980D8F80030624C1093109B6148228886
:1032E0006188A0FB0303C2EB93139BB299420DD8F4
:1032F000D8F800300F930F9B5A495B4AA1FB031388
:1033000012789B092380002A40F0CC80574D2B680F
:10331000DA0740F18C80D8F80030554C1393139B9A
:10332000504822886188A0FB0303C2EB93139BB231
:10333000994224D8D8F800301293129B494A4D4E36
:103340004D48A2FB03239B090025012716AABC2197
:10335000238037708DF858508DF859508DF85A5099
:1033600000F092F94549464B0A783A44A3FB020320
:10337000DB0803EB830003EB4003D31A0B70414DD2
:103380002B68DB0749D5D8F800303F4C169394E8FA
:103390000600169B5B1A93420DD3384BD8F80010E9
:1033A0003A4A187815913A4B1599126853F820301B
:1033B00084E8060098473748017800F053FB23B0B3
:1033C000BDE8F08F284601F055F8002840F0E8806D
:1033D000214CD8F800300D9394E806000D9B5B1A41
:1033E0009342FFF471AFD8F800300C930C9B1B4D47
:1033F000294923602948182200F0BAFA2B68D90716
:103400003FF567AF284601F035F8002840F0D4803A
:10341000134CD8F8003010935FE7284601F02AF8E3
:10342000002840F0E980184CD8F80030AEE7284674
:1034300001F020F8002840F0CF800D4CD8F8003083
:1034400013936CE723602FE70C8EFF1F608BFF1F29
:10345000748BFF1F508BFF1F0C8BFF1F548BFF1FA4
:103460007888FF1FD34D62101E87FF1FC08AFF1F81
:103470007C88FF1F2487FF1F8488FF1FC58AFF1FCA
:10348000A38B2EBAB88AFF1F648BFF1F2087FF1FF4
:103490002C87FF1FE48DFF1FB48DFF1F188BFF1FAC
:1034A0005C8EFF1F674D0FCD16AC0FC40FCD0FC440
:1034B00095E80F0084E80F0016A8FFF7F5FC6249B5
:1034C000624C0B88624803EB432203EB820303F553
:1034D000585319339BB203EB1322D2B2C2EBC20290
:1034E000C2EBC202D2110B8054F822900270002766
:1034F00059F82730DBB20137FF2BBFB2F8D1D9F82A
:1035000000300797C3F3074A4FF0FF32C3F3072B8E
:103510001B0E069203930024D64659F8045F4948CF
:10352000C5F307274FEA241CC5F30746ECB2F9B2EE
:10353000C5F307650491E9B205915FFA8CF1029138
:1035400007990F2916AA4FEA14135FFA86FA0CD8C6
:1035500006998C4507DC0F2905D00131C9B28B4291
:10356000029138BF0B4659B2069115A900918DF80A
:1035700059E002999DF80CE08DF858B08DF85AE0AA
:103580008DF854708DF855608DF8565000F0ACF8F9
:10359000059BDDF810B00393FF2CD646BDD1B5E6F0
:1035A000D8F800302B4C0B930B9B2360322328461A
:1035B000636000F065FF0CE7D8F800300E930E9BB7
:1035C000254A264CA2FB03239B0919222846238067
:1035D000628000F055FF1CE7D8F800301193119B72
:1035E0001D4A1F4CA2FB03239B091422284623805B
:1035F000628000F045FF21E7D8F80020194B1A4CF3
:103600001492149A1B6822602846636000F038FF09
:103610000AE70121154800F00DFC0121144801F0D2
:10362000C1FFD8F800300A930A99124800230A22F1
:1036300002F0CCF90D4800F041FC0C4800F07AFC97
:103640002BE600BFB48DFF1F5C87FF1F806E00005C
:10365000498BFF1F0C8BFF1FD34D62107888FF1F13
:103660007C88FF1F2087FF1F648BFF1F0C8EFF1FAE
:10367000CC6200006487FF1F024B00221A705A7050
:103680009A707047E88BFF1F00290BDD01EB4101A9
:103690000144137803705378437093788370033038
:1036A0008842F6D1704700BF70B582B0FF25F02484
:1036B00000298DF804208DF806508DF8054010DDA6
:1036C00001EB41011E4604464518214601A800F0C1
:1036D00039FA9DF8042003343244AC428DF80420BA
:1036E000F3D102B070BD00BF2DE9F04F8B42099EAF
:1036F00052D396F800E01578777896F802805478DF
:1037000092F802C0C1EB030BC5EB0E0EC4EB070A27
:10371000CCEB08061FFA8BF24FEACE1E4FEACA1A0C
:10372000F601B2B30FFA82FB9EFBFBFE9AFBFBFA9B
:103730004FEA4E0E4FEA4A0A96FBFBFB99424FEACC
:103740004B0B1FFA8EFE1FFA8AFA1FFA8BFB4FEA09
:1037500005254FEA04244FEA0C2218D801EB410753
:103760000131C61989B24FEA25294FEA24284FEAC8
:10377000222C754454445A448B4200F80790ADB251
:1037800086F80180A4B286F802C092B2E6D2BDE803
:10379000F08F4FF0010BC7E78946357892F800E0CB
:1037A0007478577896F802C092F80280157019461E
:1037B00086F800E04B465470777082F802C086F8B5
:1037C00002809FE709B330B44D1EADB2D24301353C
:1037D000D2B205EB450505440132441C14F8013C06
:1037E00002FB03F31B1204F8013C4178837802FBCF
:1037F00001F102FB03F309121B12417083700330C5
:10380000854204F10304E9D130BC7047FFF7DABF09
:1038100022B3FF2A23D0F0B404780E78437895B20F
:10382000A719D24306FB0576D2B204FB0264C4F3A7
:10383000072404704C7886781F1904FB057403FB79
:103840000243C3F3072343708B78F11803FB05157C
:1038500006FB0252F0BCC2F30722827070470B785D
:1038600003704B7843708B788370704701EB410392
:10387000C1EB8313003118BF012101EB2321C9B231
:103880008B000A06DBB20ED401F0400101F0FF020A
:1038900019B90370427082707047FF210022437093
:1038A000017082707047FF2283700270427070470F
:1038B0002DE9F043141104EB440512F00F020D44FE
:1038C0009DF81C6000D0E6B92C786978AA78FF2BA7
:1038D00012D0002B43D00133DBB21CB103FB0444F4
:1038E000C4F3072419B103FB0111C1F307211AB175
:1038F00003FB0222C2F30722047041708270BDE80C
:10390000F0830F2C2E7895F80190AF7800D0E91C49
:10391000120182F0FF056C1C91F800C091F801E0E3
:1039200091F8028004FB06F6511C04FB09F504FB28
:1039300007F4C4F30724C6F3072701FB08F201FBD1
:103940000CF6C5F3072501FB0EFE04EB222207EB64
:10395000262605EB2E21F4B2C9B2D2B2B7E71A4639
:1039600019461C46047041708270BDE8F08300BFA8
:10397000F0B50139441E00252F3001E084421ED0ED
:1039800014F8013F11F8016FB342F7D003F10107BA
:1039900004D2FBB2237001350E78EDB25F1E9E4259
:1039A000FFB205F1010E08D227700E78BE4238BF73
:1039B000023B5FFA8EF538BF23709542DED3F0BD2F
:1039C000F8B51E1E03680446CCBF02EB4205002575
:1039D0000F469B68D8BF164698477A1923686260DD
:1039E0005B690A4A6661934201D12046F8BD2046D0
:1039F00098470028F9D0064A064B516893FBF0F02F
:103A0000884238BF084650602046F8BD7104000067
:103A1000E48DFF1F40420F0070B40F4C2268531C0E
:103A20008A4283B0236013DB0C4D0D4A2968019153
:103A300001992D6800951668009D15604FF47A7203
:103A40000025891B02FB03F32560B3FBF1F34380E0
:103A500003B070BC704700BFF88DFF1F5C8EFF1F66
:103A6000008EFF1F2DE9F04F43682D4C83B00646B2
:103A70008946002B4BD100F05BFDF36820601BB141
:103A80004846B16898478146264B1C680025002CA3
:103A900036D07388A77C61686269632B236898BFFE
:103AA000A574D3F804808DF804508DF805508DF876
:103AB0000650B9F1000F1CD004F10B030DF1040EF8
:103AC00004F10E0C13F801BFBBF1000F0DD093F8F9
:103AD00003A00AF101000BFB0000BAF1000F04D0B3
:103AE00009FB00F0000C8EF8000063450EF1010E9A
:103AF000E8D1204601ABC047A774A468002CC8D108
:103B000030461921FFF788FF03B0BDE8F08F00F0C1
:103B10000FFD22687368801A9842AAD3ABE700BFF2
:103B2000FC8DFF1FF48DFF1F00207047044B002207
:103B3000FF204FF0FF31187099605A80DA607047AB
:103B4000E48DFF1FF0B4047846788278E00000F03E
:103B5000F80000EB800303EB031303442506C3F3D3
:103B600007235FD404F0400505F0FF0704F02004AC
:103B7000002D46D104F0FF00002C6CD05533DDB28F
:103B8000AB243B46FF2E1CD0002E79D01CB106FB87
:103B90000444C4F307241DB106FB0555C5F30725EE
:103BA0001BB106FB0333C3F30723F043C0B200FB92
:103BB0000000C0F30720044405440344E4B2EDB21E
:103BC000DBB2FF2A18D012FB02F0003218BF01222C
:103BD00002EB102212F0FF0256D01CB102FB04448B
:103BE000C4F307241DB102FB0555C5F307251BB11E
:103BF00002FB0333C3F307230C704D708B70F0BCD2
:103C0000704704F0FF075CBB00EBC00400EB44000E
:103C100000EBC0000412563BC4F1AB04DDB2E4B2C9
:103C20003B46AFE704F0400707F0FF05E7B904F0B3
:103C3000200707F0FF04002F36D100EBC00300EB94
:103C4000430000EBC000C0F30720C0F1AB055530C6
:103C5000EDB2C3B296E7DC43E4B21D46034691E7FA
:103C60000024DD43EDB28DE704F0200404F0FF05ED
:103C700094B903F15504E4B2C3F1AB03DBB281E7BD
:103C8000FF231D461C469CE71546144613460C7040
:103C90004D708B70F0BC7047A3F15604E4B2002560
:103CA000C3F15503DBB26DE7D8431C46C3B269E7E5
:103CB000F0B561B301F1FF3E1FFA8EFE0EEB4E0E22
:103CC00000220EF1060E8644C31C1546144613F856
:103CD000037C13F8020C13F8016C033373453C4466
:103CE00005443244F3D104EB840402EB8202C5EBB9
:103CF000C500C4F31713C2EB0212C5EBC004120ACD
:103D000003EB142401EB810110190844F0BD0C46AB
:103D10000A46F7E72DE9F043254B1C6885B00746B6
:103D200088469CB1DFF894907D2507E0606981B2F8
:103D30003046FFF7BDFFA468054444B194E848004D
:103D40001B694B45F2D020469847F0E77D2505FBDF
:103D500007F52D0A174B45451B7810D223B3164A99
:103D6000012152F833208DF80C109DF80C101378B7
:103D7000384623EA0103137005B0BDE8F08308FB61
:103D800007F7B7FBF5F0C7B273B10B4A012152F840
:103D900033208DF80C109DF80C10137838460B4327
:103DA000137005B0BDE8F083384605B0BDE8F08378
:103DB000F48DFF1F088EFF1FB07D00006D04000012
:103DC000034B044ADA6001FB00F19960704700BFC1
:103DD000E48DFF1F153D0000074882B00368019382
:103DE000019A114401E0994204D303680093009BB7
:103DF0009A42F8D902B070475C8EFF1F034B82B025
:103E00001B680193019802B0704700BF5C8EFF1FD2
:103E100010B4074B82681B68016183B000240193D2
:103E2000019B4461C260836003B010BC704700BF57
:103E30005C8EFF1F2DE9F0411B4B1C4C1B681C4E78
:103E400082B00546019388461A48019F062101F079
:103E5000A9FB414600230A22204601F0B7FD0321B9
:103E6000154801F09FFB394600230A22204601F045
:103E7000ADFD3046012101F095FBA9680023791AB8
:103E80000A22204601F0A2FD3046012101F08AFB02
:103E9000EB68A9682046C91A0A22002301F096FDA2
:103EA00002B0BDE8F08100BF5C8EFF1F6487FF1F7A
:103EB000207D0000147D00001C7D000008B5062157
:103EC000034801F06FFB0348BDE8084001F06EBDF8
:103ED000247D00006487FF1F034B82B01B680193A1
:103EE000019B836002B070475C8EFF1F10B4104AC4
:103EF00085B0A1B9136800934168009B591A312914
:103F00000DD813680293029C04F13203591A01E0A0
:103F1000994204D313680193019B9C42F8D913681A
:103F20000393039B4360012005B010BC704700BFA2
:103F30005C8EFF1F704700BF4FF47A7000F01ABB11
:103F400000234364436071B1074882B00368019362
:103F5000019A114401E0994204D303680093009B45
:103F60009A42F8D902B070475C8EFF1F30B5134CEF
:103F700085B023680393039B43600D4610480621D8
:103F800001F010FB00230A2229460E4801F01EFD15
:103F900006210D4801F006FB0A4801F007FD2368E1
:103FA0000293029A02F1320101E0994204D323689C
:103FB0000193019B9A42F8D905B030BD5C8EFF1F7A
:103FC0002C7D00006487FF1F347D000038B5037E20
:103FD0000BB9632038BD0D46044601F0B9FA10F064
:103FE000FF0F01D1652038BD01F0B2FA10F0FF0FCC
:103FF000F8D001F071FAC0B2A0F158031E2BF3D82B
:1040000001A252F823F000BF91400000E93F0000F8
:10401000E93F0000E93F0000E93F0000E93F000000
:10402000E93F0000E93F0000E93F0000E93F0000F0
:10403000E93F000085400000E93F0000E93F000043
:10404000E93F0000E93F0000D33F0000E93F0000E6
:10405000E93F0000E93F0000E93F0000E93F0000C0
:10406000E93F0000E93F0000E93F0000D33F0000C6
:10407000E93F0000E93F0000E93F0000E93F0000A0
:10408000D53F000020462946FFF770FF632038BD6A
:1040900000232376632038BD70B5054682B01646EE
:1040A000C9B101230D4C037600212846FFF78EFF8E
:1040B000632810D023680193019A511C2368009350
:1040C000009B9A42F0D89942F8D200212846FFF787
:1040D0007DFF6328EED12E7602B070BD5C8EFF1F8F
:1040E000034B00229A60DA601A615A61704700BF80
:1040F0000C8EFF1F374A384913681B06FCD40B6827
:1041000013F08003F8D172B634490A78002A5FD0E0
:10411000334A3448F0B4344C176806682568D468CC
:104120000C303E44143200681268304F35442C4441
:1041300020440244C2F34E022D4E2E482E4D2F4CE9
:1041400042F400423A60376806682D682C4A2468B9
:104150000C303E44006812682A4F35442C442044F9
:104160000244C2F34E02284E2848294D294C42F4FD
:1041700000423A60376806682D68274A24680C3088
:104180003E4400681268254F35442C4420440244C4
:10419000C2F34E02224E2348234D244C42F40042E7
:1041A0003A60376806682D68214A24680C303E441E
:1041B0000068126835442C4420440244C2F34E0285
:1041C0001C4842F4004202600B7062B6F0BC7047BB
:1041D00062B6704724B0034024B00B40558EFF1FD9
:1041E00038B003403CB0034040B003402CB0034023
:1041F00058B003405CB0034060B0034064B003407B
:104200006CB0034030B0034038B00B403CB00B40C2
:1042100040B00B4044B00B404CB00B402CB00B40B6
:1042200058B00B405CB00B4060B00B4064B00B402A
:104230006CB00B4030B00B4030B42948294A2A4BAF
:104240002A4D6024E121047011701B78284C082B42
:1042500030D00A2B2748284937D00C2B0CBF3522E9
:104260003D2212232A60236002600B60234B244905
:104270001B78244ABBB101230B601360224B2349F6
:104280001B78234A012B26D9042B0FD9082B1ED9C2
:10429000102B94BF862387230B6013601D4B0122D4
:1042A0001A7030BC70470B601360E7E784230B6023
:1042B0001360F3E700F58E200F4908300122132325
:1042C0002A60236002600B60D0E73922F7E785237C
:1042D0000B601360E2E780230B601360DEE700BF32
:1042E00000400740014007405E87FF1F08B00340C1
:1042F0000CB0034008B00B400CB00B40588EFF1FB1
:1043000020B0034020B00B405F87FF1F24B0034064
:1043100024B00B40558EFF1F28282FD8334B2DE992
:10432000F0411E5CFF2E2BD0314B1B78002B2AD185
:1043300032062CD472B62F4D2F4C2F460123266007
:104340002B7062B672B623681B060CD43B781BB97F
:10435000F4E72B78002BF1D062B601F08DFB72B63A
:1043600023681806F5D5254B1B6800222A7062B613
:10437000234A107843FA00F0BDE8F081002070472E
:104380000020BDE8F081FFF7B5FE3206D2D572B647
:104390001C4DDFF87C801C4C06F04007FFB206F095
:1043A0003F06D8F80030DFB123F01003C8F8003022
:1043B00001232660134A2B7062B672B62368190671
:1043C0000CD413781BB9ECE72B78002BE9D062B63C
:1043D00001F052FB72B623681B06F5D50B4BC3E701
:1043E00043F01003C8F80030E2E700BF847D00000E
:1043F000558EFF1F578EFF1F00B0034010B00340C3
:10440000548EFF1F568EFF1F00B00B4010B00B40A4
:104410000CB00B4008B5104C08E0236859050DD4CA
:1044200023681A050FD42368DB0411D423685803CA
:10443000F3D500F037FA23685905F1D501F0A0FB58
:1044400023681A05EFD501F031FC2368DB04EDD5B4
:1044500001F0C2FCEAE700BF3480044008B5FFF772
:10446000D9FF00BF014B10221A8070470020054081
:10447000704700BF0078B0FA80F04009704700BF75
:1044800001230370704700BF1C4A02EBC0030129DF
:104490005B6811D004291BD052F83000002280F84C
:1044A000802229B1022920D0032922D01A60704726
:1044B0004FF480721A60704752F830004FF4A272C5
:1044C00080F880121A601A6822F020021A60704781
:1044D00052F830104FF4A272012081F880021A6065
:1044E0001A6842F020021A60704740F203121A6004
:1044F00070474FF481721A60704700BFB07D0000B2
:1045000030B4054B054D064C002210211A602A607C
:104510002060196030BC704714D0034004D00340C1
:1045200000D00340212801D8FFF7AEBF704700BF7D
:1045300072B60C490C4B0D4A1B680868126862B6CB
:10454000520102D5322B88BF01300949C3F5BB3374
:104550004FF47A72FF33A1FB031302FB00F000EB70
:10456000931070475C8EFF1F18E000E004ED00E040
:10457000ABAAAAAA2DE9F843054672B6204F214BF3
:10458000214A1B683C68126862B6520102D5322B80
:1045900088BF013495B3C3F5BB331C4EDFF864907C
:1045A000DFF86480FF334FF47A72A6FB031302FB3B
:1045B00004F404EB931472B6D9F800103A68D8F8F2
:1045C00000E062B6C1F5BB33FF33A6FB03031EF068
:1045D000806FC4EB93134FF47A7002D0322988BFF6
:1045E000013200FB0233B3F57A7F04D3013D05D0DD
:1045F00004F57A74DFE701F03FFADCE7BDE8F88301
:104600005C8EFF1F18E000E004ED00E0ABAAAAAA50
:10461000F8B52D4B2D49DFF8D0E0DFF8D0C02C4E97
:104620002C4D2D4C2D4A2E4F4FF4000018604FF0AA
:10463000807018604FF0007018604FF08060186054
:104640004FF0006018600020086028234BF6FF71CF
:10465000CCF80010CEF80030336013602B6023607C
:104660003B60B3629362092245F8242CC4F8D80F4A
:1046700005F57F65C7F8D41F07F5FF2707F5FA672B
:10468000C6F8F83F2B6006F5FF26C4F8D42F05F5D1
:10469000FD2504F5FF24386006F2F47611483160F8
:1046A00005F5FF6504F5FD642B6023600260FFF7EC
:1046B000C3FD1920FFF75EFF00F05CFE40F213100F
:1046C000BDE8F840FFF756BF08E100E00480034072
:1046D00014800340248003402C8003401C8003404E
:1046E0003480034000800B400C800340088003406E
:1046F000431E032B14D872B60A4951F8230068B13F
:1047000070B4094C058834F81320466841F82360DA
:10471000521B24F8132062B670BC704762B6704713
:1047200000207047B88EFF1F0891FF1F0138032833
:104730000BD872B6074B53F8203043B100205B68AA
:104740000130002BFBD162B670470020704718463D
:10475000F9E700BF0C8FFF1F30B472B62B4A1378F5
:104760001D0706D52A4B196A002936D0996A0029F7
:1047700041D053781C0706D5254B196C00293ED033
:10478000996C002939D09378190705D5204B196EFB
:10479000002936D0996E89B1D3781B0707D51C4BF9
:1047A000D3F880207AB3D3F8882011213AB162B6C9
:1047B000184B00221A7030BC00F068BE0D21154C59
:1047C000154D227843F8315003EBC1030830013A0C
:1047D0005860227062B630BC704704220D4C0F4DF9
:1047E000217843F8325003EBC20308304A1E586068
:1047F000227062B6EFE70521E1E70921DFE7082231
:10480000ECE70C22EAE71022E8E700BFEC7E0000AC
:104810000080FF1F358FFF1FC80040008800400048
:10482000431E032B1DD81B4A400140F0100030B43A
:10483000104472B6184CE25C032A1BD8DFE802F081
:104840000212151703220D88E25410F0080F14BF4E
:10485000C823882343EA054308310360416062B6F8
:1048600030BC704708300222EDE70522EBE7083044
:104870000422E8E7094A52F8230038B1084A52F8FE
:104880002300416042F8231062B6E9E742F82310A2
:10489000034AF7E70080FF1F448FFF1F0C8FFF1FA5
:1048A0001C8FFF1F2DE9F04FDFF80CB3DFF80CA3CE
:1048B00087B044E0AB4F4FEA930807EBC809013ECD
:1048C000D9F8042003F00803F6B2A2F1080003F0BF
:1048D000FF04002B40F0028157F838301B0C99B2CE
:1048E00022F8081C002B00F0F0809F4B22F8064CA9
:1048F00042F8044C53F82620002A00F0C5829B4D54
:1049000055F8263058609A4C45F8260034F8163091
:10491000194424F8161000F099FD002800F0AD822B
:10492000944A954B19F0080F00F1080018BF134680
:10493000C9F8040047F8383008238BF800309BF89A
:104940000040E4B261071AD58C4B1B78A3B18C49A7
:104950000A7802F0FF0322B1013BDBB20B7003B90E
:1049600000BE88490A7802F0FF032AB1013BDBB29E
:104970000B70002B00F0578204238BF8003004F0FA
:10498000080303F0FF02002B00F0CC809AF80030FF
:10499000DBB21E098ED19C08DFF8C89159F834208B
:1049A00009EBC401C2F38302013A49680C2A00F200
:1049B0008880DFE802F07C7C86868686868647864D
:1049C000868607000868704D4A68704F704E2860F0
:1049D00081B240F28160674B6A604FF0010E0022A5
:1049E000814249F834303A60C9F81020C9F81820DB
:1049F00086F800E05B4C00F2E380B1F5D06F80F008
:104A00004683B1F5817F00F0FC8200F28D8280291F
:104A100000F07783822940F0FA82A98801F07F01B3
:104A2000042900F2F4825B485B4C89000844227040
:104A300062700278930740F1588484F800E04FF0E8
:104A4000020E42E3514F3A6832B3544B504E544930
:104A5000188834780D784028864645F0020828BF2B
:104A60004FF0400E002C84F001043470CEEB0000B7
:104A70000CBF8824C82409EBC80680B285F0010564
:104A800044EA0E447260188049F8384072440D7050
:104A9000002800F045813A603B4B1A88B2F5A06FC0
:104AA0000FD100219A7859703E4B1A7009E0364AAE
:104AB000108842F22102904200F037812D4A49F8D5
:104AC0003420394A0123137036E72A4A2A4B19F059
:104AD000080F18BF134647F838302DE700F0D6FC12
:104AE000324A334952F82630002B00F0D181586801
:104AF0008C5D42F8260003F10802C9F80420032C5B
:104B000005D8DFE804F02C02292602228A551A88EB
:104B100019F0080F0CBF8823C82343EA024347F863
:104B2000383009E7E00700F18181210600F1F281C8
:104B3000A20706D51F4A204913780220DBB2137062
:104B40000870E30602D51C4B10221A7007B0BDE8AE
:104B5000F08F04228A55DAE705228A55D7E7032227
:104B60008A55D4E70080FF1FB88EFF1F648EFF1F99
:104B70000891FF1FC800400088004000408FFF1FC1
:104B8000C98EFF1F488FFF1F2C8FFF1F608EFF1FD6
:104B9000C88EFF1FC0200740388FFF1F748EFF1F75
:104BA000348FFF1F98200740942007400C8FFF1F71
:104BB000448FFF1F88200740802007409020074037
:104BC00042F22100814200F02A8100F2D880B1F542
:104BD000086F00F07682B1F5106F40F01882226AFB
:104BE000B349A8780870120600F13A83D9F8282052
:104BF000B049130600F10C83D9F83020AD491506F1
:104C000000F10183D9F83820AA49140600F1F68290
:104C1000D9F84020A749100600F14A83D9F8482066
:104C2000A449120600F13F83D9F85020A149130688
:104C300000F13483D9F858209E49150600F12983E4
:104C4000D9F860209B49140600F11E83D9F868202A
:104C50009849100600F11383D9F87020954912067F
:104C600000F10883D9F878209249130600F1FD82FB
:104C7000D9F880208F49150600F13183D9F88820B2
:104C80008C49140600F12583D9F890208949100633
:104C900000F11983D9F898208649120600F10D8396
:104CA0008548864A864901908648874D874C0497F7
:104CB00000230596029580460F4616461D4603942E
:104CC000306828B1446800F0E1FB2046002CF9D19F
:104CD00000233360029B38681A46002342F82530CF
:104CE00028B1446800F0D2FB2046002CF9D1002204
:104CF0003A60019A98F800301146002241F8042BDE
:104D0000039A0191023B4FF0000122F81510032B8A
:104D100000F22B81DFE813F07001250170012501FD
:104D2000BEF1400F18BF0022B5E6694A0D784878F9
:104D3000157050708D78C8789570D07010680D79A6
:104D4000157186284D7989795571917100F09B8193
:104D50006049614E0A78307882F00105002842F0FF
:104D600002020D700CBF8821C82149F8321009EBEE
:104D7000C20280F001000021307051609EE642F2D4
:104D80002120814240F0CB81544B554C5549A878A5
:104D90001D682560CDF804E0087000200290804670
:104DA000844604464B490D7845F0020E09EBCE03CC
:104DB0000393019B002B039B5C600CBF8824C824D9
:104DC00044EA080385F0010449F83E3032700C7063
:104DD000DFF8E0E0404BDFF8FC80002840F01E8167
:104DE000BCF1400F1BD144F0020C09EBCC03029C38
:104DF000DFF8C0E05C60002A40F02681020442F047
:104E000088029DF804304EF83C20044433700D7045
:104E10002346402803D10020334A3B601080334AA8
:104E2000012313704DE600F09DFCA5E5214B2F48B2
:104E300028491A614FF0020E80F800E02C4F0A70EA
:104E40002C49196099602C4E2C4D2D4C9A610D21E6
:104E50003970FF213170DFF8B8E029702270294DD8
:104E6000294A8EF800109F27012406F8047C5D6013
:104E70000470DA6007B0BDE8F08F244A47F83800C4
:104E800013780133137057E543F826000E4D3AE5C9
:104E90008B5D032B00F2F08001A252F823F000BFDB
:104EA00039490000394900005D4F0000574F0000AC
:104EB000408FFF1F0080FF1F1C8FFF1FB88EFF1F3A
:104EC0000C8FFF1F448FFF1F648EFF1F0891FF1F71
:104ED0001091FF1F348FFF1FC88EFF1F5C8EFF1FB6
:104EE0001891FF1F588FFF1F748EFF1F94200740DB
:104EF000C0200740880040008820074080200740ED
:104F000098200740788EFF1FCC8EFF1F358FFF1F24
:104F10008C200740C149C24B80220D2008701A70B6
:104F2000A2077FF50EAE05E640F20232914240F054
:104F3000EE80A98801F07F01042968D86A88002AD8
:104F400065D1B648CDF804E089000844017841F005
:104F50000201017021E701238B55EDE400238B55FD
:104F6000EAE44FF0010388F800300135042D06F122
:104F7000040607F1040708F101087FF4A1AEA94C6B
:104F8000A94B2278A94D049F059E002129701A7013
:104F9000130700F105816278A549DFF8A0820A7045
:104FA00010074FF00001C9F83010C9F8381000F1AF
:104FB000E080A049A2780A700021C9F85010C9F811
:104FC00058101107DFF8748200F10181E2789A49E4
:104FD0009A4C0A7000211207C9F87010C9F87810AD
:104FE00000F1B08033780193002183F00102C9F809
:104FF0009010C9F89810D0E64FF0000388F8003000
:10500000B3E7A98801F07F01042940F28D80834A2B
:105010000F2313708A4A0123137052E540287FF64C
:10502000E2AE44F002040EEBC401029E4E60BAB13F
:105030009DF80410834A19703346403888F80050B0
:1050400040334EF83420E7E69DF804303370020414
:10505000029B0D7042F0C80203444EF83C20D8E693
:105060009DF804101970029B774A88F80050403868
:1050700040334EF83420CFE619F0080F0CBF02235E
:1050800003238B5558E4714A0F21117060E6704A72
:105090005468002CBBD06888B5F804E003E00C32FB
:1050A0005468002CB3D013888342F8D153887345D9
:1050B000F5D1000A03280CBF94F800E0B2F808E02C
:1050C00003E0644A644C12782270E888704580F0EE
:1050D0003F8162490D784028844645F0020E28BF82
:1050E0004FF0400C04EB0C0309EBCE0202930123BA
:1050F0005460CCEB00004FEA0C4800220193C82416
:105100005EE6554C4FF0020E22706270DDE7B1F59D
:10511000A06F7FF47CAF0123002201933DE642F2B1
:1051200021329142F7D072E76A88002A7FF46FAF8C
:105130003A48CDF804E089000844017821F00201E2
:1051400001702AE600F082F9002800F0EF800830B4
:105150003D4AC4F88400C4F8802000F077F90028A4
:1051600000F0DE800830374AC9F88C00C9F8882082
:1051700038E700F06BF9002800F0C0800830324AB0
:10518000C8F84400C8F8402000F060F9002800F09A
:10519000AF8008302B4AC9F84C00C9F8482008E70E
:1051A00000F054F9002800F0CD800830264AC9F8F4
:1051B0002400C9F8202000F049F9002800F0BC8044
:1051C0000830204AC9F82C00C9F82820E3E600F08E
:1051D0003DF9002800F09E8008301B4AC8F86400A2
:1051E000C8F8602000F032F9002800F08D80083007
:1051F000144AC9F86C00C9F86820E7E6C86B08389B
:1052000000F044F904E5486B083800F03FF9F9E490
:10521000C86A083800F03AF9EEE400BFC020074041
:1052200080200740EC7E0000C4200740358FFF1F20
:10523000C8200740CC200740D02007400080FF1F37
:1052400094200740C800400088004000C98EFF1F1E
:10525000F07E0000408FFF1F388FFF1F348FFF1F2D
:10526000606A083800F012F9C0E4C86F083800F02E
:105270000DF9FDE4486F083800F008F9F2E4C86E53
:10528000083800F003F9E7E4486E083800F0FEF84B
:10529000DCE4C86D083800F0F9F8D1E4486D08384E
:1052A00000F0F4F8C6E4C86C083800F0EFF8BBE48E
:1052B000486C083800F0EAF8B0E4D1F89C000838EF
:1052C00000F0E4F8ECE4D1F89400083800F0DEF8DF
:1052D000E0E4D1F88C00083800F0D8F8D4E4D1F834
:1052E0008400083800F0D2F8C8E44FF0020EECE673
:1052F0002A78C9F8480001322A705AE62A78C8F894
:10530000400001322A703FE72A78C9F8680001326C
:105310002A705BE62A78C8F8600001322A7061E7DB
:105320002A78C9F8880001322A705BE62A78C4F826
:10533000800001322A7010E72A78C9F8280001326B
:105340002A7028E62A78C9F8200001322A7032E74C
:10535000BEF1400FF44628BF4FF0400C04EB0C03A5
:1053600002930123CCEB0E004FEA0C48002201937C
:1053700018E500BFF8B500F09BFD294B29482A4CE1
:105380002A4F2B4DDFF8BCC0DFF8BCE0294E0022CD
:105390001A605A609A60DA601A615A619A61DA6139
:1053A0001A625A629A62DA621A635A639A63DA6319
:1053B0001A645A649A64DA641A655A659A65DA65F9
:1053C0001A665A669A66DA661A675A679A67DA67D9
:1053D000C3F880200168C3F8842041F48021016073
:1053E000C3F307212170C3F30740134938701B0E24
:1053F0002B70FF238CF80030104D8EF800301048D1
:105400000B700123337084F8642070264FF400740D
:10541000102207F82C3C2E70046081F8F820F8BDAB
:105420000080FF1F348004409C200740B0200740CC
:10543000B4200740942007401020074049E400E0D2
:1054400008E100E0802007408820074072B60D4840
:105450000268B2FA82F30B2B10DC4FF00041D94006
:1054600022EA0102026062B6074803EBC303DB00D5
:10547000C2180021C15010465160704762B600202A
:10548000704700BF6087FF1FBC83FF1F0D4B0E4A94
:10549000C31AA2FB03231B090B2B0CD80B4A12784F
:1054A00052B972B60A484FF00041026821FA03F37C
:1054B0001A43026062B67047064A1278002AF0D09A
:1054C000FFF74AB9BC83FF1F398EE338358FFF1FC2
:1054D0006087FF1F408FFF1F38B50F4D286878B1D8
:1054E00043880288C118013393420C7A02D2438068
:1054F000204638BDFFF7CAFF002320462B6038BD89
:10550000064B1B782BB10320FFF7F2F82860002828
:10551000E6D14FF0FF3038BD548FFF1F408FFF1F83
:1055200010B5094C206818B143881844007A10BDA2
:10553000064B1B782BB10320FFF7DAF82060002818
:10554000F2D14FF0FF3010BD548FFF1F408FFF1F6F
:10555000044B054A1B6890881BB11A885B88D31AD4
:1055600018447047548FFF1F0891FF1F0B4B1B7887
:105570009BB110B50A4C206848B1FFF787FF0023A4
:1055800003202360FFF7B4F830B1FFF77FFF03205B
:10559000FFF7AEF80028F8D110BD7047408FFF1F0D
:1055A000548FFF1F2DE9F04FDFF8F89083B00122F0
:1055B00089F80020019169B3DFF8EC80364F019E35
:1055C0008346D8F80000B0B3344D4488C4F140019C
:1055D000B14228BF314604EB010E00221FFA8EFEB5
:1055E0002A70761AA0F802E000F1080251B1013CDD
:1055F000224459441BF8014B02F8014F8B45F9D165
:10560000B0F802E0BEF13F0F0BD8254A052111701A
:10561000002ED6D10198002389F8003003B0BDE8F0
:10562000F08F4022028001460420FFF7F9F80022A3
:10563000C8F80020E9E73A782AB3184D4AF2F9246D
:105640004FF0010A07E0013C16D02A78A2B900F019
:1056500013FA3A78BAB10420FFF768F80728F2D8AD
:1056600089F800A0FFF7F2FEC8F800000028ACD1CE
:105670000C4B013C1870E8D101234FF0FF302B7028
:1056800003B0BDE8F08F00234FF0FF3089F8003001
:1056900003B0BDE8F08F00BF408FFF1F508FFF1F8A
:1056A000488FFF1F498FFF1F4C8FFF1F00B583B02E
:1056B00002AB012103F8010D1846FFF773FF03B099
:1056C0005DF804FB38B50E4D0E4C2868012323709D
:1056D00028B1408800232370C0F1400038BD0A4B38
:1056E0001B7813B90020207038BD0420FFF71EF886
:1056F0000728F7D8FFF7AAFE28600028E9D1F1E7CC
:105700004C8FFF1F498FFF1F408FFF1FF8B5114BB4
:105710001B788BB1104E114D346801272F7064B186
:105720000F4A638800271770214623800420FFF763
:1057300077F8376000232B70F8BDFFF787FE084B22
:1057400028B1014604201C70FFF76AF8F2E71F70C9
:10575000F0E700BF408FFF1F4C8FFF1F498FFF1FD7
:10576000488FFF1F38B50E4B1B7873B90D4C21685D
:1057700061B103F0FF054B880B800420FFF750F860
:10578000256038BD084B01221A7038BDFFF75EFE58
:105790000028F7D00146BDE838400420FFF740B8A4
:1057A000498FFF1F4C8FFF1F488FFF1F10B4EFF36F
:1057B000108272B6437F33B9017F012907D00329D4
:1057C0000FD00123437702B962B610BC7047124C68
:1057D0002168A1B1114943610B6883610860586178
:1057E000EFE70F4C216881B10E4943610B6883617B
:1057F000086058610C4B4FF080511960E1E7074B8E
:105800004161816120601860DBE7064B4161816185
:1058100020601860EEE700BF6C8FFF1F688FFF1FCE
:105820005C8FFF1F608FFF1F04ED00E010B4047F4A
:105830004160022CC26002D010BCFFF7B7BF836882
:1058400010BC184770B5EFF3108272B60C4C20688C
:1058500080B10C4E00254369236073B19D6102B98C
:1058600062B6457783689847EFF3108272B6206876
:105870000028F0D102B962B670BD3360EFE700BF17
:105880005C8FFF1F608FFF1FFFF7DCBF184A30B42B
:105890001468002C27D0036821688B420ED2CB1AE3
:1058A00000218460C1602360E06010600223037502
:1058B00030BC704711688B42144608D3A2685B1A4B
:1058C0000360002AF6D18260C460A060EEE7D2686F
:1058D000C2608460E060C568CB1A0222A8602360C1
:1058E000027530BC70478460C4601060DEE700BFA2
:1058F000648FFF1FF8B5224E34682CB32368002B49
:105900003AD1204F1D4604E03468ECB12368002BE7
:1059100032D1A36803B1DD60206933600368257567
:105920001B68BB4221D1037F4560022BC46020D09D
:10593000FFF73CFF6368002BE6D023602046FFF7AB
:10594000A5FF3468002CE1D1EFF3108372B60E4A44
:1059500000211068116003B962B628B18468FFF7AE
:1059600095FF20460028F9D1F8BD2246002198472E
:10597000E0E783689847DDE7013B2360E4E700BF89
:10598000648FFF1F2D580000748FFF1F024A136899
:1059900001331360FFF7AEBF5C8EFF1F08B5FDF744
:1059A00037FBFDF74FFC00F067F8FAE700B5064A51
:1059B000036812885B6883B001A9ADF80420022255
:1059C000984703B05DF804FBC07E0000F0B50746C1
:1059D0008BB0002A33D0012A08BF0A2251B32124F8
:1059E00000E0F4B2B1FBF2F502FB1511C8B20929CF
:1059F00000F1300198BFC8B20AA988BF37302144EE
:105A000088BFC0B201F8240C661E2946002DE8D1DB
:105A100033B1013CE4B20AAB23442D2203F8242C19
:105A20003B6801AA11195B683846C4F12202984705
:105A30000BB0F0BD30228DF825202124E8E7036863
:105A4000C9B21B6898470BB0F0BD00BFFFF78EBD11
:105A5000FFF766BDFFF740BDFFF77ABDFFF756BE03
:105A6000FFF730BE08461146FFF79CBD0846FFF71A
:105A70001DBE00BF704700BF38B5224C237803B16C
:105A800038BD01232370FFF763FD70BB00F068F899
:105A900040BB00F0FBF810BB00F08EF9E0B900232A
:105AA0002370EFF30583002BEAD1EFF3108172B678
:105AB000154B1868E0B1154C2278CAB945691D60CC
:105AC00001232370C5B1AA6101B962B600254577EB
:105AD000836898472570D3E700F030FADFE700F0DD
